:020000040000FA
:100000000202DF0218034100B8002202180B22226C
:0100100022CD
:07001300021813E4FFE1BC39
:07001B0002181B75C8012249
:030023000218239D
:03002B0002182B8D
:030033000218337D
:03003B0002183B6D
:030043000218435D
:03004B0002184B4D
:030053000218533D
:03005B0002185B2D
:030063000218631D
:03006B0002186B0D
:10007300021873BB010689828A83E0225002E722B9
:10008300BBFE02E32289828A83E49322BB010CE54F
:100093008229F582E5833AF583E0225006E9258239
:1000A300F8E622BBFE06E92582F8E222E58229F57D
:1000B30082E5833AF583E49322BB010689828A832E
:1000C300F0225002F722BBFE01F322F8BB010DE53B
:1000D3008229F582E5833AF583E8F0225006E92583
:1000E30082C8F622BBFE05E92582C8F222C5F0F8D4
:1000F300A3E028F0C5F0F8E582158270021583E0CD
:1001030038F022A3F8E0C5F025F0F0E582158270FF
:10011300021583E0C838F0E822EF2BFFEE3AFEED3C
:1001230039FDEC38FC2275F008758200EF2FFFEEE5
:1001330033FECD33CDCC33CCC58233C5829BED9A10
:10014300EC99E58298400CF582EE9BFEED9AFDEC6E
:1001530099FC0FD5F0D6E4CEFBE4CDFAE4CCF9A8B4
:100163008222B800C1B90059BA002DEC8BF084CFBC
:10017300CECDFCE5F0CBF97818EF2FFFEE33FEED93
:1001830033FDEC33FCEB33FB10D703994004EB99BD
:10019300FB0FD8E5E4F9FA227818EF2FFFEE33FED0
:1001A300ED33FDEC33FCC933C910D7059BE99A4005
:1001B30007EC9BFCE99AF90FD8E0E4C9FAE4CCFB1D
:1001C3002275F010EF2FFFEE33FEED33FDCC33CC71
:1001D300C833C810D7079BEC9AE899400AED9BFDFA
:1001E300EC9AFCE899F80FD5F0DAE4CDFBE4CCFA0D
:1001F300E4C8F922EF5BFFEE5AFEED59FDEC58FC23
:1002030022EB9FF5F0EA9E42F0E99D42F0E89C451F
:10021300F022E8600FECC313FCED13FDEE13FEEFC9
:1002230013FFD8F122E8600FEFC333FFEE33FEED87
:1002330033FDEC33FCD8F122E0FCA3E0FDA3E0FEA8
:10024300A3E0FF22E0F8A3E0F9A3E0FAA3E0FB2296
:10025300ECF0A3EDF0A3EEF0A3EFF022A8828583E8
:10026300F0D083D082120276120276120276120244
:1002730076E473E493A3C583C5F0C583C8C582C878
:10028300F0A3C583C5F0C583C8C582C822E0FBA31C
:10029300E0FAA3E0F922F8E0FBA3A3E0F925F0F0EC
:1002A300E582158270021583E0FA38F022EBF0A3A1
:1002B300EAF0A3E9F022D083D082F8E493701274B9
:1002C3000193700DA3A393F8740193F5828883E4DB
:1002D300737402936860EFA3A3A380DF75812F0279
:1002E300094A9000E551B0AE071FEE60129000E896
:1002F30071031176FE9000E57103EE11BC80E822D4
:10030300E475F0018090900A12EEF0A3EFF09000F4
:100313004FE064016002619CC3900A12E0940850AC
:100323000BE4FF9153900A12918780ECE4F50DFBE7
:1003330071C5AF0C12103DE50DC39408504771C34E
:10034300E50D7F0071BDEF29F9EA3EFA9000E8510F
:10035300B07B017A0979007FFF51E5E50DFEE424C6
:10036300FFFFE43E71BD8F828E83118F9009FFF0F2
:100373007B017A0979009000FBE50DF0AD0C1210BA
:1003830063050D80B2900050513BE42FFFEE34081B
:10039300120D139000500214BC900054E0FEA3E031
:1003A300FF71BE900A12E0FDA3E09000D1CD1208C8
:1003B300D4900054EEF0A3EFF022FE902001419080
:1003C3007B007A00791012103675FF031176F5D38E
:1003D30075FF0390000171F190000271F190000329
:1003E30071F175D40175FF03E5D55402FF22118F16
:1003F300F5D375FF03229000F1E0FEA3E0FF9130F7
:1004030091539000F3513BEF2401120D109000F330
:100413005153900A18914D900A18E07002A3E070AE
:100423000BFF7E087109120F4212142822B108CD66
:1004330024FFCD34FFFCC3ED9FFFEC9E541FFE74DD
:10044300082F121416FF229000DF74FFF5F001F05D
:10045300B108541FFC74082DF58274203CF583EF1A
:10046300F0902006E0B42019A3E0B4001490200516
:10047300E02401FF902004E03400541FF0A3EFF0C8
:1004830022902006E475F00101F09000BA515390D8
:1004930000BE51B0110AF11EEF6004110F80F71274
:1004A3000F0560099000BA513B7810D1249000BA2F
:1004B300D1209000BA513BE480219000C11208C7BB
:1004C30045F0601B9000BE5190E94A600C1176FF25
:1004D300D1279000BF918780E1E4FFD12780DBF132
:1004E300B79000AF7401F0229000E3E0FF81039026
:0704F3000A1BE014F0E022F7
:10050800902006E0FCA3E0FD902005E02DFD902062
:1005180004E03C22D1C8EF541FFF12148DA37401CC
:10052800F0120F4C9000DCE0FCA3E0FDAE0478056F
:10053800CEC313CE13D8F9FF9000DFEEF0A3EFF08F
:10054800ED541FA3F0A3E4F09000F1F0A3F0C390E2
:1005580000DDE094209000DCE09400407D914A901A
:1005680000E1E0FEA3E0FF9000F1EE8FF011F090C3
:1005780000DFE07004A3E06406700AD1C89000DFD1
:10058800E48FF011F0D1C89000F1E48FF011F0126F
:100598000FFCEF600512148A8005E49000DEF090ED
:1005A80000F1121371701D91309000E3EFF0910388
:1005B80091EB91EB9000DFE07002A3E0604891EBD3
:1005C800914A80F071F971F971F99000DFE07002D9
:1005D800A3E0603271F9914A80F09000DC91878045
:1005E8000A9000DCE07002A3E0600BD1C891039090
:1005F80000DC914D80EB120FFCEF600512148A802D
:1006080005E49000DEF09000DEE06002A12C1214F8
:10061800AB71099000F3413B513B78085115E4E573
:10062800C820E2FB8FEB227F01F1BC900A1C740109
:10063800F0900A1CE06032120FF4D1BC900A1CEF53
:10064800F0120849D1AB9000ACEFF0120849900ABB
:100658001CE054011213BB60D8A3E0F460D3EF3060
:10066800E7CFE4900A1CF080C8F1E87F9FD127D13A
:10067800BC9000ADD1BA9000B2D1BA9000B3F1B538
:100688009000ABE0F4601BA3E0F460169000B2E0C9
:10069800FD541F240FA3F0EDC413540744809000A9
:1006A800B2F022F1E87FD7D1277FFFD127D1C090C0
:1006B80000ABEFF07FFFD127E5C820E2FBAFEB22CC
:1006C800900081E0B4082CA3E0B40027120F2E7B21
:1006D800017A0179009000CA120F45F161120F2EBC
:1006E800E42FFFEE3408120D13120F28E490008156
:0806F800F0A3F0900083120F43
:10070000DB9000835153900081E475F0013106FEC7
:10071000740025F0F58274013EF583E0FF227F012D
:10072000F1BC300216120FF4D1BC900A1DEFF0128A
:100730000849900A1DE020E002C202300219D1AB44
:100740009000ACEF1213BB600BA3E0F46006EF3037
:10075000E702C202120849E4FFF1BCA202E433FF3F
:10076000229000C351539000C751B0110AF11EEFFF
:100770006004110F80F7F1E47F03120F1E600990EF
:1007800000C3513B7810D1249000C3D1209000C306
:10079000120F349000CA1208C745F06011D1BC9006
:1007A00000C75190EF11BC9000C8918780E51208F6
:1007B00049E4FF8007EFF0120849E4FFEFB40104B9
:1007C00043FE202253FEDF229000ABE020E014F134
:1007D000E47F3DD1277F2AD1277F80D1277FA6D1F3
:1007E00027F1B7227F01F1BC9000B0E051B9080AAF
:1007F00004081214081715081C17082C3008313487
:10080000083636083B3700000824531AEF851A8053
:10081000802F531BEF8008531BDF8003531B7F8502
:100820001B90801D531CDF851CA08015531DFE806E
:100830000D531DEF8008531DBF8003531D7F851D81
:10084000B07F0CDFFE2212062712149FEF70FA9081
:1008500000B2E0F4600B900A1B7406F01204F27010
:10086000FB9000B0E01202B9088404088C140891CF
:100870001508961708A63008AB3408B03608B53707
:100880000000089E431A10851A80802F431B108099
:1008900008431B208003431B80851B90801D431C45
:1008A00020851CA08015431D01800D431D1080086C
:1008B000431D408003431D80851DB0900A1B740CAE
:1008C000F01204F270FB2274FFF5F0020106E0FD65
:1008D0009000D1E4F0A3EDF09000CCEEF0A3EFF0A7
:1008E000A31202B09000D111C745F060549000CE21
:1008F0001202901200769000D3F09000CF1204877D
:100900007D80ED60DF3141EE7C0030E7027C0190BC
:1009100000D3E05D7B0060027B01EB6CFCEF25E027
:10092000FFEE339000CCF0A3EFF0AF04EF600C903B
:1009300000CCE06410F0A3E06421F0EDC313FD806F
:10094000C19000CCE0FEA3E0FF2275FF03759E027C
:100950009017FAE493900A0FF075FF02E5E654034E
:100960006002618B7510DE7511AD7512BE7513EFE7
:10097000C2AF75FF0275E404F5E4751AFF751BFF3D
:10098000751CFF751DFF7516FF7517FF7518FF7530
:1009900019FF75FF0253E6BFD11A1210DAB11BEF2F
:1009A00064016002618290180893FE740193FF90C5
:1009B000007FEEF0A3EFF0F5828E83E493FE7401E6
:1009C00093FFC3EE9480500280047E807F008E14DB
:1009D0008F15B1F7FFF5828E83740293F51E7403B1
:1009E00093F51F740493F508740593F50974069341
:1009F000F50A740793F50BC201EF4E700241E4EF64
:100A0000F4FFEEF44F700241E4E514451EFEE515D7
:100A1000451FFFE5084EFEE5094FFFE50A4EFEE5DE
:100A20000B4F4E700241E4E51FF4FFE51EF4FEE5B6
:100A300015F4FDE514F44EFEED4FFFE509F4FDE578
:100A400008F44EFEEF4DFFE50BF4FDE50AF44EFE13
:100A5000EF4D4E700241E47F03718EE50B24FFFFE2
:100A6000E50A71BC640370227F02718EE50924FFE0
:100A7000FFE50871BCB402127F01718EE51F24FFEF
:100A8000FFE51E71BCB40102D2012001577F017144
:100A90008E71B59000D1E51EF0E51FF13B71A07F8E
:100AA0000271AB9000D1E508F0E509719E7F0371FA
:100AB000AB9000D1E50AF0E50B719E7F01718E903D
:100AC0000A10E0FEA3E0FF7BFF7A187900E4251509
:100AD0009000D2F0E51434E89000D1719F4EC370BD
:100AE00001D39201300109F1ACEF6401600261822F
:100AF000D20091FB7B017A007964B1D8741BF012AB
:100B00000761900064E0B4800B9153EF70061214FB
:100B100046EF6002C20030006530011AB1F7F5827D
:100B20008E83740C93FE740D93FF90007DE06E70C5
:100B300003A3E06F604890005012025F00001800AD
:100B400091FBF128F12EEF2401B110B1D27404F021
:100B5000120761900087B10A9000871214BC9000C0
:100B600081F14590004F04F012051C7440D3950CA0
:100B7000400C1203C3AF0C12103D050C80EDE4FFD6
:100B8000F186E4F510F511F512F513021800AEFF29
:100B9000EE54CFFEEFC454F024804EF5FF22A3F0B4
:100BA00011D8900A10EEF0A3EFF022718E900A1087
:100BB000E0FEA3E0FF7BFF7A80790022347F8F8202
:100BC000F583E49322900000EEF0A3EFF0A312026D
:100BD0003B900008120253900006E0FFA3E0900053
:100BE0000CCF806090000C121371605EC3EF9440D4
:100BF000EE94004006A37440F0800590000EEFF0E4
:100C0000B1FFE0FFB1D8EFF090000812023B1207ED
:100C10006190000EE0FFC390000DE09FF090000C8B
:100C2000E09400F090000812024790000EE4FCFDF2
:100C3000FE12011C900008120253914AB1FF11CE1E
:100C4000900000EEF0A3EFF0809A900000E0FEA389
:100C5000E0FF2291FBB101900006E4F07405F13B46
:100C600091F0C006C00791FBEF2407B110B10190CD
:100C70000006E4F0A37414F0D007D00691F0C0068B
:100C8000C007B107B101D10940067EFF7FFF800692
:100C900090006512023B900006EEF0A3EFF0D00743
:100CA000D00691F0D109402F91FBEF241AFFE43ECA
:100CB000FEED3401FDE43CFCB10190006512023B05
:100CC000EF2401FFE43E900006F0A3EFF0900A1637
:100CD000E0FEA3E0FF91F0900069E0FEA3E0FF904A
:100CE0000A16E06E7003A3E06F7F0060027FFF22B0
:100CF00071C5900A16EEF0A3EFF0229000A6020252
:100D00003B9000020202539000A612023BEF241B0C
:100D1000FFE43EFEE43DFDE43CFC22E49000AAF04A
:100D20007B017A007995121378900097E0FF741197
:100D3000D39F5077E4FFFEFDFC7B017A0079FE90A3
:100D400000CAF0A37402F01207619000FEE0FEA357
:100D5000E0FFE4FCFDB1CC91FBEF2402B110B1CC7B
:100D60009000B5E024FFFF9000B4E034FFFEE4FC07
:100D7000FD9000A61202471201F79000FCEEF0A3CE
:100D8000EFF09000A61202479000FCE0FEA3E0FF07
:100D9000C39000B5E09FFF9000B4E09EFEE4FCFD30
:100DA00012011CB1CC9000AA7401F09000AAE0FBE3
:100DB0006017E4FFFE7D02FC900097E024EFF9F855
:100DC00012022890008F120253AF03229000A60255
:100DD00002537B017A0079839000CAE4F0A3229148
:100DE000FBEF2401B110B1D27404F0120761B10716
:100DF000F128900081E14590007FE0FEA3E0227B96
:100E0000017A00790F90000E22E47FFF7EFFFDFC47
:100E1000900065120247D3020204E4900A1EF0908B
:100E20000A1EE0FFD3946F501EEF2410FFF198903C
:100E30000A1EE0FEE42EF582E4344FF583EFF090D5
:100E40000A1EE004F080D87B017A4F79009000D12F
:100E5000E4F0A37470F07F0F7E1D11D8EF4E7F0079
:100E600070027F01901218EFF024FF22900A09EB24
:100E7000F0900A05120253900A0512023BD1C3906A
:100E80000A09E06F603B12000A12071EEF600512AC
:100E9000000F80F5F105600B900A0512023B7810F7
:100EA000120624900A05120620900A05F134900AD1
:100EB00009E0FF1206271207B79000AF7401F0D3C4
:100EC00022C322900A0012025312000A12071EEFD8
:100ED000600512000F80F51207E47F03F11E600B1E
:100EE000900A0012023B7810120624900A001206A3
:100EF00020900A00F1341206BC900A041207B59043
:100F00000A04E0FF227F011207BCD2021207E87F29
:100F10000612062711491207E89000AEE0FF1206FC
:100F2000279000B1E06402229000870202539000F3
:100F30008702023B12023BE4020627A3F07F0F7EEA
:100F40001D22900A187408F0A3E4F022F1429000E8
:100F5000F312025F00000000E4902004F0A3F0A36D
:100F6000F0A3F07B017A2079089020011202B0E40E
:100F7000902000F0227F0F7E1D11D09000D8120229
:100F8000909000DB01CEAB07E4FF9000AAE0600781
:100F9000F1D8D16CE433FF2275FF03E4F59712100A
:100FA00021E59720E1FB75FF03AF9922E4900A1A2F
:100FB000F09000AAE0601B90008F12023BE4FBFA65
:100FC0007902F8D31202045009F1D8D1C3900A1A59
:100FD000EFF0900A1AE0FF229000A612023BEF24E5
:100FE000FFFFEE34FFFEED34FFFDEC34FFFC22E4A6
:100FF000FCFDC1C31207E87F05020627E4FFFEFDE2
:10100000FC900083120E137F0040027F012275FFC7
:10101000037597011121E59720E1FB75FF03AF9957
:101020002275FF038F9875FF0322113675FF03E5C4
:10103000D5F45402FF2275FF0375D4022275FF0315
:10104000EF543F4480F5D1E5D520E20AE5D520E014
:1010500005E5D530E1F1E5D55403FF75FF0375D5FE
:101060000580D375FF03ACD5EC20E13C75FF03EDA3
:10107000543FF5D175FF03E9F5D375FF03EA540F2B
:10108000FF9000FBE0C4547044804FF5D2E5D520BA
:10109000E205E5D530E0F6E5D55401FC75FF0343E4
:1010A000D40275FF0375D505AF042212000A12079A
:1010B0001EEF600512000F80F57F011207BCD202FF
:1010C0001207E87F061208461207E87F011206277A
:1010D0007F03120846E4FF0207BC7B017A0079B067
:1010E0007F0351E47A0079B97F0851E47A0079B638
:1010F0007D027F0951847B017A0079B47D027F0BE8
:1011000051849000B471716006BEFF16BFFF135189
:10111000F35002800451FC80099000B4E4F0A37401
:1011200040F051F3500280089000B17403F0800643
:101130009000B17402F09000B0E01202B9115904AD
:10114000116414116C15117417118A301192341135
:101150009A3611A2370000117F75FF015316EF85F3
:1011600016FD804775FF015317EF800E75FF015381
:1011700017DF800675FF0153177F8517C9802C750F
:10118000FF015318DF8518CA802175FF015319FE2E
:10119000801675FF015319EF800E75FF015319BFBB
:1011A000800675FF0153197F8519CB1208497F11FD
:1011B00051DEE4FF710612062F9000AE7402F0902B
:1011C00000B2E0247F600904701651EB740A8007B6
:1011D0001207C851EB7458F09000B17403F051FC41
:1011E0009000B3E0F4600241829000B6E0FEA3E01C
:1011F000FF64104E70069000B3740EF0EF64204E42
:1012000070069000B3740FF0EF64404E70069000CB
:10121000B37410F0EF64804E70069000B37411F058
:10122000E4B5070AEEB401069000B37412F0E4B519
:10123000070AEEB402069000B37413F0E4B5070A8F
:10124000EEB404069000B37414F0E4B5070AEEB4EB
:1012500008069000B37415F0E4B5070AEEB4100662
:101260009000B37416F0E4B5070AEEB420069000BF
:10127000B37417F0E4B5070AEEB440069000B374F7
:1012800018F001AB900A0AEFF0A3EDF0A31202B040
:10129000900A0BE06047901218E06013900A0AE091
:1012A0002410FF120F98900A0C120290EF801790F2
:1012B0000A0AE06401900A0C7007120290748080A0
:1012C0000512029074FF1200BC900A0D1204879060
:1012D0000A0BE014F0900A0AE004F080B322EF4415
:1012E00020F5FE227D0151847B01227F1051DE908A
:1012F00000AE229000B9E024FE24FD229000B474D8
:1013000001F0A3E4F022900A14EFF0E4A3F09000BF
:10131000B9E0FFB40209740F716974B9F0800CEF81
:1013200064047044743D71697479F01207E4900AA2
:1013300014E060079000B8E0FF80027FAB12062740
:10134000120849900A14E09000B8F07016900A153F
:10135000E0D39400400D7FFF120627900A15E01499
:10136000F080EAE4FF1207BC22900A15F09000B862
:1013700022E0FEA3E0FF4E229000ADE01200BC9000
:1013800000B2E09000011200CE9000B3E0900002A5
:101390000200CEAB05E4FCFD020E6C9000ED1202E3
:1013A000B0E4FCFDC0079000ED1202909000F0E068
:1013B000FF120DD8EFF0D007020761F09000ABE00C
:1013C000FFF42212000A12071EEF600512000F80C0
:1013D000F5229000AFE0FF22E49000AFF0229012DF
:1013E00018E024FF22901218E060057F10020F9889
:1013F0007FFF22902004E0FEA3E0FF24089116FD69
:10140000EF2401FFE43E541F902004F0A3EFF0A36B
:1014100012044DAF0522F58274203EF583E0229040
:101420002006E0FEA3E0FF22902000E0045403F039
:101430007F0033333354F8FEEF2408F974203EFA6A
:101440007B01A30202B0900054741DF0A3740FF04E
:10145000120DDFE490004FF012051C90006BE0FECF
:10146000A3E0FF900054E06E7003A3E06F7F006084
:10147000027FFF22EFB40109D2AD75FF0143AE40F8
:1014800022C2AD75FF0153AEBF221206C89000DC28
:10149000E4F0A3EFF022E5C85402FF75C80222E58C
:1014A000C85404FF22E5C85401FF22900A18E0FE48
:1014B000A3E0FFC3E49FFF74089EFE22120253E4E0
:1014C000FB7A08F9F890005012023B1201658F0C6C
:0114D00022F9
:1017FA00060AFFFCFFFF02184E02719619A37FB872
:10180A00822D1C1613111010000271BA5A2D57613D
:10181A00766520362E313000FF026E4B1A341A39A3
:10182A00FF0258B8EF90183793901900730A2036C0
:10183A004CE577FF22EFF577224BDF480849631B17
:10184A00B502592C75819F75FF03759E02121920E6
:10185A000250A302333D9029F3E47E019360F4A37E
:10186A00FF543F30E509541FFEE493A360010ECFF5
:10187A0054E0B4E00EEFFAEEF9A3A3A3A3DAFDD97C
:10188A00FB80D654C025E0604B5026E493A3F8545D
:10189A0007240CC8C333C4540F4420C8834004F43B
:1018AA0056800146F6DFE480B001020408102040A9
:1018BA0080E493A3FAE493A3F8E493A3C8C582C887
:1018CA00CAC583CAF0A3C8C582C8CAC583CADFE924
:1018DA00DEE78085E493A3F8E493A34003F680014E
:1018EA00F208DFF40218631958195D196C19711995
:1018FA00761CB41CB9FFC0777419C0E0C082C083DB
:10190A0075770AE5FF54CF4490F5FF22C077741922
:10191A00C0E0C082C083757720E5FF54CF4490F5BC
:10192A00FF22C0777419C0E0C082C083757736E59C
:10193A00FF54CF44A0F5FF22C0777419C0E0C082DB
:10194A00C08375774CE5FF54CF44B0F5FF229081F0
:10195A00AA21169081BE211690A834211690C08C17
:10196A00211690E7E7211690E7FF21169095D121DD
:10197A001690E8152116909CD3211690EFCF2116C8
:10198A0090E4192116909EAE211690F077211690B8
:10199A00F093211690E88E211690DC35211690F3EB
:1019AA0038211690A7E0211690E2B3211690F39AF7
:1019BA00211690D1B5211690D190211690DBCA211B
:1019CA001690DB8B211690DB5F211690DB862116A1
:1019DA0090D304211690CFF0211690D901211690A8
:1019EA00F498211690CA4A211690CE9A211690F59B
:1019FA0024211690F424211690A97D211690D29FB5
:101A0A00211690DEEC211690F600211690F644215C
:101A1A001690F689211690F6BD211690F708211620
:101A2A0090F79F211690F74F211690F7C62116902E
:101A3A0094CD211690DEA821169081F1211690DC12
:101A4A00C7211690F7E9211690F811211690CD3684
:101A5A00211690F820211690CF33211690F84721AD
:101A6A001690CCCF211690CCBA211690DF3D2116C4
:101A7A0090CD52211690F859211690CD65211690D5
:101A8A00CD43211690F1A2211690F9EE211690F974
:101A9A00EF211690F9F4211690F826211690CE4BD4
:101AAA00211690F2B0211690FA0D211690FA3E21D5
:101ABA001690F0EF211690E8B9211690D0B12116B0
:101ACA0090BA31211690F881211690E1EF211690F3
:101ADA00E280211690E0B6211690DF4D211690E3A0
:101AEA00F4211690DF9A211690E217211690E0FA57
:101AFA00211690E86F211690FA6A211690F20121B8
:101B0A001690DED9211690CD82211690BFA52116F6
:101B1A0090ECFC211690D370211690E9382116908A
:101B2A00E9F6211690FB4B211690FAEE211690FB4E
:101B3A0096211690E8CA211690EEBE211690E60B61
:101B4A00211690809721169080FB21169080002103
:101B5A001690815F211690BDE121429084B2214204
:101B6A0090BF6C214290BF6F214290BFFC214290EE
:101B7A00BA53214290B951214290994721429098F3
:101B8A00C22142908216214290809B214290B9A79D
:101B9A00214290C05B214290C080214290C0A32183
:101BAA00429098942142909132214290C15B214205
:101BBA0090A91F214290C3CE21429094D1214290F4
:101BCA00C522214290C52F214290C4ED214290C6E0
:101BDA0010214290C54C214290C5C2214290C6466E
:101BEA00214290C6B9214290C66B214290C7DF219B
:061BFA004290C877214271
:101C00009098C1214290C947214290CF59214290DA
:101C100098E2214290CFE0214290D1282142909930
:101C200039214290800021429080CB214290D136D0
:101C3000214290D1E7214290D209214290C9072147
:101C40004290BA05214290CC0C214290D48E214280
:101C500090D493214290D5E1214290D82321429003
:101C6000D84A214290CBBC2142908EDE214290ADD9
:101C7000F6214290C95521429085CC214290ADCFAA
:101C8000214290B11F214290DE66214290E01E2148
:101C90004290B084214290CAA4214290C17E214248
:101CA00090E123214290CFA1214290E14B2142902B
:101CB000E272214290E1C9214290905F2142908FCF
:101CC000F32142908D8A2142908975214290B91763
:101CD00021429088A5214290CFD0214290CFD82197
:101CE0004290E2D2214290BA7B214290B107214238
:101CF00090E2FE214290E31A214290B116214290D7
:101D00008863214290CC1D214290CC11214290B198
:101D100019214290CC17214290B9F7214290C8591D
:101D2000214290AB76214290E3B621429092192154
:101D30004290A9ED214290E3E8214290A8DC2142A3
:101D400090AE97214290C6FA214290D02D21429028
:101D500081BC214290A2CB214290E933214290C81C
:101D6000E6214290C85F214290E93D214290886976
:101D7000214290E973214290E9F0214290BC732105
:101D80004290EB02214290E1E2214290D4B62142FE
:101D900090EB14214290EB17214290B4B92142906C
:101DA000E9A1214290B889214290B8432142908410
:101DB000D32142908264214290E098214290A4ED88
:101DC000214290823D214290C75B214290A3152180
:101DD00042908341214290A154212C90A1E8212CD2
:101DE00090997A212C90A21A212C90A22E212C902D
:101DF0008000212C90AB66212C90B004212C90B057
:101E000011212C90B016212C90B164212C90806D62
:101E1000212C909E8F212C909E92212C90B1C0213C
:101E20002C90B8F0212C90824E212C90BA11212CAC
:101E300090BDA2212C90C1F5212C90BB52212C9059
:101E4000A6C6212C90D246212C90CF9D212C909477
:101E500026212C90D308212C90D3A3212C90D41090
:101E6000212C90D43C212C90CB42212C90D4912138
:101E70002C90D65B212C90D6E1212C90C1FF212CF7
:101E800090D70A212C90D75B212C90C420212C9034
:101E9000D7F4212C90C1EA212C90C0DE212C90C4D3
:101EA00006212C90D9D9212C908001212C9091E2EF
:101EB000212C909DEA212C90DCCF212C00E709F603
:101EC00008DFFA8046E709F208DFFA803E88828C54
:101ED00083E709F0A3DFFA8032E309F608DFFA802E
:101EE00078E309F208DFFA807088828C83E309F0D6
:101EF000A3DFFA806489828A83E0A3F608DFFA8090
:101F00005889828A83E0A3F208DFFA804C80D2806D
:101F1000FA80C680D4806980F28033801080A680E9
:101F2000EA809A80A880DA80E280CA803389828A37
:101F300083ECFAE493A3C8C582C8CCC583CCF0A3D4
:101F4000C8C582C8CCC583CCDFE9DEE7800D8982B5
:101F50008A83E493A3F608DFF9ECFAA9F0EDFB22FB
:101F600089828A83ECFAE0A3C8C582C8CCC583CC39
:101F7000F0A3C8C582C8CCC583CCDFEADEE880DB2D
:101F800089828A83E493A3F208DFF980CC88F0EF9A
:101F900060010E4E60C388F0ED2402B4040050B915
:101FA000F582EB2402B4040050AF23234582239032
:101FB0001F0D73BB010689828A83E0225002E7224B
:101FC000BBFE02E32289828A83E49322BB010B8950
:101FD000828A83F8E0C828F0E822500327C722BB92
:101FE000FE07F8E3C828F3E8228A838982E4932273
:101FF000BB010CE58229F582E5833AF583E02250A6
:1020000006E92582F8E622BBFE06E92582F8E222EF
:10201000E58229F582E5833AF583E49322BB010941
:1020200089828A83F8E028F022500327F722BBFE3A
:1020300005F8E328F3228A838982F8E4932822BBF7
:10204000010FF8E58229F582E5833AF583E028F06F
:10205000225009C58229F8E58226F622BBFE09C571
:102060008229F8E22582F222F8EA2583F583E993B2
:102070002822BB010689828A83F0225002F722BB04
:10208000FE01F322F8BB010DE58229F582E5833AD2
:10209000F583E8F0225006E92582C8F622BBFE054A
:1020A000E92582C8F222EF8DF0A4A8F0CF8CF0A42D
:1020B00028CE8DF0A42EFE22BC000BBE0029EF8D91
:1020C000F084FFADF022E4CCF875F008EF2FFFEEBE
:1020D00033FEEC33FCEE9DEC984005FCEE9DFE0FCC
:1020E000D5F0E9E4CEFD22EDF8F5F0EE8420D21C27
:1020F000FEADF075F008EF2FFFED33FD400798506F
:1021000006D5F0F222C398FD0FD5F0EA22C2D5EC35
:1021100030E709B2D5E4C39DFDE49CFCEE30E71541
:10212000B2D5E4C39FFFE49EFE1220B8C3E49DFD38
:10213000E49CFC80031220B830D507C3E49FFFE481
:102140009EFE22C5F0F8A3E028F0C5F0F8E5821560
:102150008270021583E038F022A3F8E0C5F025F084
:10216000F0E582158270021583E0C838F0E822BBE2
:10217000010A89828A83E0F5F0A3E022500687F005
:1021800009E71922BBFE07E3F5F009E3192289826A
:102190008A83E493F5F074019322BB0110E5822950
:1021A000F582E5833AF583E0F5F0A3E0225009E9F2
:1021B0002582F886F008E622BBFE0AE92582F8E2CD
:1021C000F5F008E222E5832AF583E993F5F0A3E927
:1021D0009322BB010DC58229C582C5833AC58302FE
:1021E00021435011C58229F808E5F026F618F5F0CC
:1021F000E58236F622BBFE11C58229F808E225F0F9
:10220000F5F0F218E23582F222F8E58229F582E54E
:10221000832AF58374019325F0F5F0E4933822BB0B
:10222000010A89828A83F0E5F0A3F0225006F709BB
:10223000A7F01922BBFE06F3E5F009F31922F8BB5B
:102240000111E58229F582E5833AF583E8F0E5F0AE
:10225000A3F0225009E92582C8F608A6F022BBFEA9
:1022600009E92582C8F2E5F008F222EF2BFFEE3AE9
:10227000FEED39FDEC38FC22C3EF9BFFEE9AFEED3C
:1022800099FDEC98FC22E88FF0A4CC8BF0A42CFCF8
:10229000E98EF0A42CFC8AF0EDA42CFCEA8EF0A4CC
:1022A000CDA8F08BF0A42DCC3825F0FDE98FF0A45B
:1022B0002CCD35F0FCEB8EF0A4FEA9F0EB8FF0A452
:1022C000CFC5F02ECD39FEE43CFCEAA42DCE35F08E
:1022D000FDE43CFC2275F008758200EF2FFFEE3321
:1022E000FECD33CDCC33CCC58233C5829BED9AEC89
:1022F00099E58298400CF582EE9BFEED9AFDEC99F3
:10230000FC0FD5F0D6E4CEFBE4CDFAE4CCF9A882FC
:1023100022B800C1B90059BA002DEC8BF084CFCEA1
:10232000CDFCE5F0CBF97818EF2FFFEE33FEED335F
:10233000FDEC33FCEB33FB10D703994004EB99FB26
:102340000FD8E5E4F9FA227818EF2FFFEE33FEED0F
:1023500033FDEC33FCC933C910D7059BE99A40071C
:10236000EC9BFCE99AF90FD8E0E4C9FAE4CCFB2233
:1023700075F010EF2FFFEE33FEED33FDCC33CCC8FC
:1023800033C810D7079BEC9AE899400AED9BFDEC07
:102390009AFCE899F80FD5F0DAE4CDFBE4CCFAE446
:1023A000C8F922EF5BFFEE5AFEED59FDEC58FC2216
:1023B000C3E49FFFE49EFEE49DFDE49CFC22EB9FB2
:1023C000F5F0EA9E42F0E99D42F0EC6480C864803A
:1023D0009845F022EB9FF5F0EA9E42F0E99D42F02D
:1023E000E89C45F022E8600FECC313FCED13FDEE12
:1023F00013FEEF13FFD8F122E8600FEFC333FFEEB7
:1024000033FEED33FDEC33FCD8F122BB01078982AA
:102410008A830224995005E9F8022943BBFE05E9A5
:10242000F802294F89828A830224A5BB010DE58227
:1024300029F582E5833AF5830224995007E925823C
:10244000F8022943BBFE07E92582F802294FE582FD
:1024500029F582E5833AF5830224A5BB0107898229
:102460008A830224F15005E9F8022985BBFE05E9BB
:10247000F802299122BB010DE58229F582E5833A14
:10248000F5830224F15007E92582F8022985BBFE75
:1024900007E92582F802299122E0FCA3E0FDA3E0F0
:1024A000FEA3E0FF22E493FC740193FD740293FE0B
:1024B000740393FF22E0F8A3E0F9A3E0FAA3E0FBA2
:1024C00022BB010DE58229F582E5833AF5830224DA
:1024D000B55007E92582F802295BBBFE07E9258292
:1024E000F8022968E58229F582E5833AF583022915
:1024F00075ECF0A3EDF0A3EEF0A3EFF022A8828537
:1025000083F0D083D08212251412251412251412C0
:102510002514E473E493A3C583C5F0C583C8C582BD
:10252000C8F0A3C583C5F0C583C8C582C822BB0156
:102530000789828A830224FD5005E9F802299DBBA0
:10254000FE05E9F80229B622BB010DE58229F582D4
:10255000E5833AF5830224FD5007E92582F8022934
:102560009DBBFE07E92582F80229B622F5F0C58257
:10257000A4C582C5F0C583A42583F58322A4258242
:10258000F582E5F03583F58322E0FBA3E0FAA3E0D2
:10259000F922F8E0FBA3A3E0F925F0F0E58215822B
:1025A00070021583E0FA38F022EBF0A3EAF0A3E919
:1025B000F022E493FB740193FA740293F922BB01B5
:1025C0000789828A830225895005E9F80229CFBB51
:1025D000FE05E9F80229E189828A830225B2BB015E
:1025E0001A89828A83D0F0D0E0F8D0E0F9D0E0FAFE
:1025F000D0E0FBE8C0E0C0F00225A95016E9F8D011
:1026000083D082D0E0F9D0E0FAD0E0FBC082C08372
:102610000229D8BBFE16E9F8D083D082D0E0F9D0E9
:10262000E0FAD0E0FBC082C0830229EA22BB010DA0
:10263000E58229F582E5833AF5830225895007E989
:102640002582F80229CFBBFE07E92582F80229E19D
:10265000E58229F582E5833AF5830225B2BB0120A4
:10266000E58229F582E5833AF583D0F0D0E0F8D011
:10267000E0F9D0E0FAD0E0FBE8C0E0C0F00225A924
:102680005018E92582F8D083D082D0E0F9D0E0FA62
:10269000D0E0FBC082C0830229D8BBFE18E92582A6
:1026A000F8D083D082D0E0F9D0E0FAD0E0FBC0824D
:1026B000C0830229EA22D083D082F8E49370127496
:1026C0000193700DA3A393F8740193F5828883E4BA
:1026D000737402936860EFA3A3A380DFD083D082DA
:1026E000E4937012740193700DA3A393F874019393
:1026F000F5828883E4737402936C70127403936D93
:10270000700C7404936E70067405936F60DDA3A360
:10271000A3A3A3A380CA8A838982E473E573258275
:10272000F582E5723583F583B572048582732210D4
:10273000AF06858273F57222858273F572D2AF225D
:10274000EC8EF0A4CCC5F0CCCDF8EFA4CEC5F02D26
:10275000FDE43CFCE8A42EC8C5F03DFDE43CFCEFE4
:10276000A4FFE5F028FEE43DFDE43CFC22E3F5F0A7
:1027700009E208B5F06BDFF58067E3F5F009E608DC
:10278000B5F05EDFF5805A87F009E608B5F052DF54
:10279000F6804E87F009E208B5F046DFF680428801
:1027A000828C8387F009E0A3B5F036DFF6803288AB
:1027B000828C8387F009E493A3B5F025DFF58021AF
:1027C00088828C83E3F5F009E0A3B5F014DFF5808F
:1027D0001088828C83E3F5F009E493A3B5F002DF5F
:1027E000F402289C808780E9809080D4803E801508
:1027F000806E807E809D80B7808D80A380518074A4
:10280000803C0228A889828A83ECFAE493F5F0A33D
:10281000C8C582C8CCC583CCE493A3C8C582C8CC44
:10282000C583CCB5F076DFE3DEE1807089828A83F0
:10283000E493F5F0A3E208B5F062DFF4805E8982EC
:102840008A83E0F5F0A3E608B5F051DFF5804D8905
:10285000828A83E0F5F0A3E208B5F040DFF5803C22
:1028600089828A83E493F5F0A3E608B5F02EDFF4BD
:10287000802A8002805789828A83ECFAE493F5F0FB
:10288000A3C8C582C8CCC583CCE0A3C8C582C8CCC8
:10289000C583CCB5F006DFE4DEE280007FFFB5F053
:1028A000020F2240027F012289828A83ECFAE0F53E
:1028B000F0A3C8C582C8CCC583CCE0A3C8C582C874
:1028C000CCC583CCB5F0D5DFE5DEE380CF89828A45
:1028D00083ECFAE0F5F0A3C8C582C8CCC583CCE48C
:1028E00093A3C8C582C8CCC583CCB5F0AFDFE4DE06
:1028F000E280A988F0EF60010E4E60ABED2402B4D7
:1029000004005098F582EB2402B40400508E232377
:102910004582239027E473EF4E6012EF60010EEDC5
:10292000BB010B89828A83F0A3DFFCDEFA2289F0E7
:102930005007F709DFFCA9F022BBFEFCF309DFFC1E
:10294000A9F022E6FC08E6FD08E6FE08E6FF22E222
:10295000FC08E2FD08E2FE08E2FF22E6FB08E6F9D9
:1029600008E6FA08E6CBF822E2FB08E2F908E2FA08
:1029700008E2CBF822E493F8740193F9740293FA15
:10298000740393FB22ECF608EDF608EEF608EFF67A
:1029900022ECF208EDF208EEF208EFF222D083D03A
:1029A00082E493F608740193F608740293F60874AF
:1029B0000393F6740473D083D082E493F208740115
:1029C00093F208740293F208740393F2740473E6AA
:1029D000FB08E6FA08E6F922EBF608EAF608E9F65B
:1029E00022E2FB08E2FA08E2F922EBF208EAF20836
:1029F000E9F2224103C1004103C000E002020000ED
:102A000014E4E002020002120FE00102000954E0A7
:102A10000102000AA5E00102120B00E00502120CFF
:102A2000120F02060A4106B1060114004106B00168
:102A30004106AE01C114011900011700C12B41422A
:102A4000A80041429D004142A6004142A7004142E8
:102A5000A4FF41416D00C117C1024131070041315E
:102A600095FF41318C00C100413196004131970002
:102A700041318D01C1054131060041490B00C1378B
:102A8000433EDF000000413EDE00413EE2004303E2
:102A9000B70000004303B40103B742335E98074315
:102AA0004654000000434651014654E00202121110
:102AB00001B0E00102121300E00102129400E005EF
:102AC0000213BC01B006060A414834024148330DE6
:102AD0004148350860203A0E42DB0100000000004A
:102AE00000000000000000000000000000000000E6
:102AF000000000000000000060203A2E09000000E5
:102B000000000000000000000000000000000000C5
:102B1000000000000000000000000000503D5100D7
:102B2000000000000000000000000000000000C1E4
:102B30000E015000C10BC10C4147AD05C118C11AAF
:102B4000C11F422712984041271400433A810000D8
:102B500000423A7F00006020234B0000000000008C
:102B60000000000000000000000000000000000065
:102B7000000000000000000000004320009F010052
:102B800050200300000000000000000000000000D2
:102B900000000161272994000201050101020E06CF
:102BA00001010004070401020300000400060805F7
:102BB00004020803140400040014050108090805B0
:102BC000020803140500040014050006001408029E
:102BD000020A0A08020301000800040014080006A3
:102BE000001408010800140A020D000A0A020C0071
:102BF0000A0A02080B0A0A01050C0E0A0004001456
:102C00000A000600140A010800140E000A0D110E35
:102C1000020804140E000400140E000600140E0135
:102C20000800140E010500140E020F0E1211000C04
:102C30000C0E110208041411000400141100060007
:102C4000141101080014110105001411000A0014E8
:102C50001102050E12120208041412020C0F0012C7
:102C600000040014120006001412010800141201DE
:102C700005001412000A0014120205001412000CC0
:102C8000001413020C0100000209000000021000F1
:102C900000140209010014020B00131400071000B5
:102CA00014020A0100140204001414020C0014148B
:102CB000020D010014020E00141402100100602421
:102CC0002BA40200FFFF0602FF000602FF00030123
:102CD000FF002300FFFF03000000130000000200BC
:102CE000010103000000462AFB0100020104024228
:102CF0002B811D59412C0800412DB601412C0E009D
:102D0000432C0B012BC9432BFF012BC9410B0F0097
:102D1000602009B7EDFFFFFFFFFFFFFFFFFFFFFF91
:102D2000FFFFFFFFFFFFFFFFFFFFFFFFFFFFFFFFB3
:102D3000FFFFFF7F4F26DD5E85598E605586725AF4
:102D400073989F6C5B7A45238C5E556C989F4A26DE
:102D5000D28685598E60725A735B7A4F26EC0126B3
:102D6000DD0F01238C050126D20A031801603826E5
:102D7000971801FF356C05FF357104FF3575031891
:102D800001FF356C05FF357104FF3575031801FF30
:102D9000356C05FF357104FF3575031801FF356C7F
:102DA00005FF357104FF3575034326CF0400404409
:102DB00026905B035A014226945B0361702507202D
:102DC000012001427574746F6E20533200000000C0
:102DD00000000000000000000000000000000000F3
:102DE000000000000000000000000000002001269C
:102DF00001427574746F6E205332000000000000B1
:102E000000000000000000000000000000000000C2
:102E10000000000000000000000000200220014E21
:102E20004F542055534544000000000000000000AE
:102E30000000000000000000000000000000000092
:102E4000000000000000000000200226014E4F5448
:102E50002055534544000000000000000000000021
:102E60000000000000000000000000000000000062
:102E70000000000000000020032001427574746F00
:102E80006E2053340000000000000000000000002D
:102E90000000000000000000000000000000000032
:102EA000000000000020032601427574746F6E203C
:102EB000533400000000000000000000000000008B
:102EC0000000000000000000000000000000000002
:102ED00000000020042001427574746F6E20533688
:102EE00000000000000000000000000000000000E2
:102EF00000000000000000000000000000000000D2
:102F00000020042601427574746F6E205336000051
:102F100000000000000000000000000000000000B1
:102F20000000000000000000000000000000006041
:102F30005C239720012001427574746F6E20533218
:102F40000000000000000000000000000000000081
:102F50000000000000000000000000000000000071
:102F60000020012601427574746F6E2053320000F8
:102F70000000000000000000000000000000000051
:102F800000000000000000000000000000000060E1
:102F90005C23F3200220014E4F542055534544003A
:102FA0000000000000000000000000000000000021
:102FB0000000000000000000000000000000000011
:102FC00000200226014E4F54205553454400000076
:102FD00000000000000000000000000000000000F1
:102FE0000000000000000000000000000000006081
:102FF0005C244F20032001427574746F6E2053349B
:1030000000000000000000000000000000000000C0
:1030100000000000000000000000000000000000B0
:103020000020032601427574746F6E205334000033
:103030000000000000000000000000000000000090
:103040000000000000000000000000000000006020
:103050005C24AB20042001427574746F6E205336DB
:103060000000000000000000000000000000000060
:103070000000000000000000000000000000000050
:103080000020042601427574746F6E2053360000D0
:103090000000000000000000000000000000000030
:1030A00000000000000000000000000000000058C8
:1030B000267802010203010304020205020306034B
:1030C0000207030308040209040350270006000650
:1030D0000006000600060006000600060041271153
:1030E000004126DCFF44239300000000412696FFA8
:1030F0004123915AE0020213C1010FE0050214CBF3
:10310000010F040405E0020214D00013E00C0214C5
:10311000D20000030C0003000C0405060AE00502BF
:1031200014DE0013FF0405E0020214E30000434133
:103130008400000042418B00004441870710223286
:1031400046417E40464A4E5256C121413DB2004161
:103150003DAF00424897000041489600C141432ED0
:10316000E6000000412DB700412F1801423E8E00BD
:1031700000413E85004543B800000000004543B3D0
:10318000000000000041434C0041434800414342DD
:103190000041434B004143430041445100414450EE
:1031A000004447EF0000000041493700413DEA007C
:1031B0005B3DCE00000000000000000000000000A9
:1031C0000000000000000000000000000000413D81
:1031D000CDFFC14B413C1900503B74000000000082
:1031E0000000000000000000000000453B840001DA
:1031F000020480473B9400000000000000433B9124
:1032000000000041430A004143100041430F0042C7
:10321000430B00004143140041431300424311009B
:103220000042430D000041430900413CE400C1500D
:103230004C4315100000000000110000000000C108
:10324000534109F320C155007265736574006373BF
:103250006100476F7420697421006C6D73006C6DA0
:103260006500776472005A57005A57206170703AAF
:103270000D0A00204669726D776172652049443AF3
:1032800020000D0A2056657273696F6E3A20005453
:1032900079706520276120637361203C31302064A0
:1032A00069676974206B65793E2720616E642070C0
:1032B0007265737320456E7465722E003E20001E89
:1032C000211E26C2D5E830E70FB2D5E4C39BFBE44C
:1032D0009AFAE499F9E498F8EC30E717B2D512328B
:1032E000F9122311E4C39BFBE49AFAE499F9E498F8
:1032F000F8800312231130D50DE4C39FFFE49EFE36
:10330000E49DFDE49CFC22789FE4F6D8FD9000004B
:103310007F007E10E4F0A3DFFCDEFA90493CA3E5D9
:1033200083C394204011FEAF829020000E0FE480F2
:1033300002F0A3DFFCDEFA12192002186022325AD2
:1033400043425F746573745F696E7465726661632E
:10335000655F706F6C6C000D0A4368616E6E656C22
:1033600073206172653A000D0A09203E001EB741C4
:10337000707045765363686564756C657200941B64
:103380001E53000001000000001706000000001896
:1033900006000000061806000000011806000000E4
:1033A00008180600000001010100000001150000DE
:1033B0000000010204000000010B04000000060BE5
:1033C00004000000080B04000000010D00000000D4
:1033D000010E04000000011000000000010F0000B9
:1033E00000000405010000000406060000000407B8
:1033F00008000000020500000000030501000000B5
:10340000010805000000000800000000010C010098
:103410000000011205000000080302000000012264
:103420000000000008160800000008080000000066
:103430000116010000000616010000000509030046
:103440000000050A0000000005030200000005045A
:1034500000000000061B06000000011B0600000023
:10346000061C07000000061D0700000007050800F5
:103470000000081E07000000082000000000081FD0
:1034800000000000082100000000081106000000F4
:1034900001110600000008220000000006190600C5
:1034A0000000061E00000000062000000000061AB2
:1034B00008000000061401000000071401000000CD
:1034C000081B06000000072400000000081401008B
:1034D0000000555555555555555555555555555546
:1034E000553333333333333333333333333333338A
:1034F00033888888888888888888888888888888A1
:103500003F241E16110E0B09070504030201F0C823
:10351000A7917767604638353230242220140001A5
:103520000102020303040405050606070700000064
:10353000000000000000000000000000000000008B
:10354000000000000000000000000000878888885C
:103550008888888888888888888888882626262673
:103560002626262626262626262626265E85598EC9
:103570006C5E6C989F85598E00010000011DF91D3D
:10358000FE1E0300011E081E1C000DFA20000DFA8D
:103590002000000000020C00003F3F3F04040440F4
:1035A0004040000000004C6966656C696E6500492A
:1035B0006E76616C69642067726F75700019BC1952
:1035C000C119C619CB19D519E919EE19F31D721DC8
:1035D0007C1D811D861D8B1D901D951D9F1C3C1CF7
:1035E0004B1C501C551C5A1E711E761E7B1E801EC5
:1035F000851A7A1A7F1AB61C8C1C961CAF1E2B1EBD
:10360000301E351E581E5D1E621E671E6C1E8A1EF1
:103610008F1E941E991E9E1EA3FF02011BC91D68CA
:103620005A01200160C2E4FD7C0CAB050DEB901843
:1036300016938F828E83F00FBF00010EDCEC7F03A8
:10364000228F828E83E4F0A37406D163740AD1635F
:10365000A3E4F0EF2404F582E43EF583E4F0A374E0
:103660006DF022F08F828E83A3A322AD07901217F4
:10367000E054FCF0E0FFED54307E0060027E02EF8B
:103680004E901217F0E0FFED7E0030E0027E01EF79
:103690004E901217F0229003C97402F09003C0E01C
:1036A000FF121DE0D16B9003C97405F0229003C78F
:1036B000E0FF121DEA9003CCEFF0229003CCE07FF4
:1036C0000070027F0122E49003C7F0229003C774C8
:1036D00001F0229003C77402F022D1E170027F0151
:1036E000229003C7E07F0022D1E1B401027F0122D2
:1036F000D1E1B402027F01221243EC121A3E121BE6
:103700000B121994121C371276D87002E1D17FFF88
:10371000121AC5900A731225A97E007F09126F390B
:10372000BF540E7E007F0A126F39BFA5047F01804F
:10373000027F009003C0EFF01276DFE94A4B701E63
:103740007F04FE126F39EF2401FFE433FEC37401DE
:10375000125F717F0050027F019003C0EFF0900371
:10376000C0E0640170411276DFAE021273EF126F97
:103770005AFEA3E0FF1276DF127618E92407F9E477
:103780003AFA900A761225A9E92408F9E43AFE12D9
:1037900073EF126F5A64047004A3E06405600812AA
:1037A0001ACA9003C0EFF09003C0E0701C7E007F47
:1037B00004C006C374E49404FE7414127392D00619
:1037C000126F8AE4FFFE121ACF9003C0E0FF121AB4
:1037D000F21276D87F0060027F011219FD121A07DB
:1037E00012196212741C121B6F125820FE4FFDA397
:1037F000E0FC4DFDA3E0FB4D600BEE5FFFEC5FFFD7
:10380000EB5FF47003123819901221E0FF9012253B
:10381000E06F9003BBF0021C05E4FF1254A0EF60C0
:103820004212747611645009901223E0C394C04090
:10383000F07B017A1279251164500F1258205FFF36
:10384000A3E05FFFA3E05FF460E790122AE030E0BE
:10385000057F011254A0E4901221F0127476E0FD6D
:10386000121B7422904321126B9AF090432712246A
:10387000FD0000000190432B7401F0F5FFE5D554E5
:10388000C0700512564A5002C322E4F5FF53967FDA
:1038900075FF0175D504D1DC75FF0143D508E4F54A
:1038A000FF5394FBF5FF53847FF5FF7598FF90431A
:1038B00025E5F4F075F49C75FF01A3E5E4F075E4EB
:1038C000257B017A43792B126B6790432BE06401CF
:1038D0006002218CF5FF9043247414F0904327314B
:1038E000BCFF78011223F89043271224F1E5A7309A
:1038F000E1FB43A70290432731BCFFE5A730E00579
:10390000E47B018002E4FBFAF9F8EF4BFFEE4AFE9C
:10391000ED49FDEC48FC9043271224F1904324E04C
:1039200014F070B890432731BCFF78101223E57B68
:103930006D7A4E79C67841122286EF2439FFEE3433
:103940003091E0E4FBFA7901F8122311EE547FFE86
:10395000E4FDFC12654190432731BCFFEB6FFFEAA9
:103960006EFEE8CDEFCDCCEECCECFF90432112699A
:10397000FAEF1220729043211269FAED126F229031
:10398000120FE030E606E4F5FF75968075FF01E45E
:10399000F5D5904325E0F5F475FF01A3E0F5E412B9
:1039A0006C6E90432BE0B40103D38001C322EB255E
:1039B000E025E02401F582E43412F583E0FCA3E085
:1039C000FDA3E0FEA3E022903D311224F1903D41A1
:1039D0007401F0E4A3F0126D9F75FF02E5E630E09C
:1039E0000E903D427401F0FB7A3D7942126B679074
:1039F0003D4C1224FD002DC6C0E4F5FFF5A4901245
:103A00000FF0903D437402F075FF03903D43E0FFDB
:103A1000F595EF14601314601C24027027903D315B
:103A200031BCF1EB903D3D8016903D3531BCF1EB62
:103A3000903D3E800A903D3931BCF1EB903D3FE036
:103A4000903D50F0126DD0903D50E070051275BB66
:103A5000806690120EE004F0903D431275FF903D99
:103A600042E0701D903D4C31BCFF903D4812746B9C
:103A7000FBC31223D4500A903D4831BCFFA312244B
:103A8000F1903D50E0FF126C20903D40E0FF903DF2
:103A900043E0FDA231922E126D4D903D42E0700F39
:103AA000903D4831BC127752903D43E0FF91E89041
:103AB0003D43E031AFFFD1A0127719600241089079
:103AC0003D42E0704DA37402F075FF03903D431238
:103AD00077A07019903D4C91BE78011223E5903D7E
:103AE00043E0FBB17B1224F131AEFFD1A012771974
:103AF00070D7903D4C31BC2420FFEE344E91E0E471
:103B0000FB7A04F9F891CE78011223E5903D441236
:103B100024F1126BAC400343F420A231922F126CBB
:103B20007F903D42E024FF922D903D4431BCFF1236
:103B30006BBAE4F5FF75E5081275F2E59B30E7FB1B
:103B4000D1ECF1F843D5047FC8D1FF9198D1E37B44
:103B5000017A3D7941126BC890120EE0B401031254
:103B600076CA903D41E0B40103D38001C322903E68
:103B7000901224F1126D9F903EA51224FD002DC6D7
:103B8000C0E4F5FFF5A490120EF0A3F0903EA074EF
:103B900002F075FF03903EA0E0FFF595EF1460136F
:103BA00014601C24027027903E9031BCF1E4903EDA
:103BB0009C8016903E9431BCF1E4903E9D800A902A
:103BC0003E9831BCF1E4903E9EE0903EA9F0126D2B
:103BD000D0903EA9E070051275BB805690120EE0A1
:103BE00004F0903EA01275FF903EA531BCFF903EC0
:103BF000A112746BFBC31223D4500A903EA131BCB6
:103C0000FFA31224F1903EA9E0FF126C20903E9F8A
:103C1000E0FFA3E0FDA230922E126D4DA331BC1245
:103C20007752903EA0E0FF91E8903EA0E031AFFFD8
:103C3000D1A0127722600261927402F075FF0390A6
:103C40003EA01277A0701EFF7E04FDFC903EA59161
:103C5000C378011223E5903EA0E0FBB17B1224F172
:103C600031AEFFD1A012772270D2126BAC40034369
:103C7000F420A230922F126C7F903EA531BC2420FC
:103C8000FFEE344E91E0E4FB7A04F9F891CE78012E
:103C90001223E5C22D126BBA9012137401F07E123A
:103CA0007F01E4FD8F828E83EF2DF582E43EF58364
:103CB000E0FC901213E02CF00DEDB412E722FF7E31
:103CC00004FDFCE0F8A3E0F9A3E0FAA3E0FB122274
:103CD00086E47B7DFAF9F8122311EF2401FFE43E1C
:103CE000FEE43DFDE43CFC229046E7EFF0E4A391C6
:103CF000BE78011223E59046E7E0FBB17B1224F188
:103D0000901210E064806072E0C3947F5038EBB191
:103D10007BC083C08231BCFFEEC0E0EFC0E09012F8
:103D200010E075F004A4AEF0FBCAEECAEA3395E0E9
:103D3000F9F8D0E0FFD0E0FEC3EF9BFFEE9AFEED76
:103D400099FDEC98802C9046E7E0B17BC083C0825F
:103D500012746BFB901210E0F40475F004A4FFAE33
:103D6000F0EE3395E0FDFCEB2FFFEA3EFEE93DFD72
:103D7000E83CFCD082D0831224F12225E025E02407
:103D800001F582E43412F58322904593124F71EBD2
:103D9000F09045997401F0C2327FE87E03F1DF12A2
:103DA00057115005E5FC20E6F6126B3BBF0108E415
:103DB000F5FC75FC408008126B3BBF0202D3221257
:103DC00076C3904594E0FF126DDD75FF0153D5DF9A
:103DD00053FAFB904593E0FF12573D904594E090D5
:103DE0004593B40809E031AF245291DD8004E031FD
:103DF000AFFFD1A0904595E0FFF1F275FF0175FF8F
:103E000003759B047FE87E03F1DF75FC42E5FC202F
:103E1000E10512571140F3904596E0F075FF03E578
:103E20009B20E70512571140F3E59B20E70D75FF36
:103E300003759B1F125767D23280521276D1126BD4
:103E400067904594E0FD90120FE05D701D904593E2
:103E5000E0FF1276D112632290120FE0FF9045949A
:103E6000E0FEEF4E90120FF09198126A2A7B017AD1
:103E7000457997126913500FC3904598E0942090AC
:103E80004597E0940340E61276D1126BC8D1E33037
:103E90003202A191904599E0B40103D38001C3227D
:103EA00090477B1224F175FF0190477BA3E0FDA3AF
:103EB000A3E4FFFEE4FC78101223E58FE190477B3A
:103EC000A3A3E0FEA3E4FFE4FDFC78081223E58F42
:103ED000E290477BA3A3A3E0FF8FE3227F3FFEF1A5
:103EE0000AF10375FF03E59120E7FB22E4F5FF7576
:103EF0008EC8126A2A75FF0153D5FBF1D87F147E54
:103F000000F10A75FF034391802275FF03D3EF94FC
:103F100002EE9400400874FE2FFF74FF3EFEEFF5A2
:103F200092EE540FF59122E490477FF0A304F0E461
:103F3000904782F0E5FA30E1FB75FF01E5D530E707
:103F4000037F0022E4F5FF75E5081276C3E5D5305E
:103F5000E61A75FF01904781E5DAF0E4F5DA75FFBE
:103F600001E5D630E3FB9047827401F01275F2E56B
:103F70009B30E7FBE4FB75FF038B9531AEFFD1A0CF
:103F80000BEBB403F175FF03759580D1ECF1F843A9
:103F9000D504904782E07008F1D87FC8D1FFD1E303
:103FA0007B017A477980126BC8904780E090477F09
:103FB0007006E04404FF8002E0FF90477FEFF0903E
:103FC000120EE0B401031276CA75FF01904781E03A
:103FD000F5DA90477FE0FF2275FF03E4F5912212A6
:103FE00068DEE103FF903EA10224F1FF903D48020C
:103FF00024F175FF018FDA22D1E375FF012275FFED
:104000000275E40475E40175E4022275FF0275E4AB
:1040100004E4F5E42275FF02E5E430E10675E40608
:1040200075E403229043DB1224F19043DF1225A9AB
:1040300011153132EF6004B19780F731D5F1ACFF43
:1040400071E3600A9043DB12249978101190904339
:10405000DB118B9043DB122499E480229043E2121F
:104060007565601E9043DF122589E94A600E121FB4
:10407000B3FF11949043E012592580E0E4FF1194BE
:1040800080DA51B19041647401F0221224997808C9
:104090001223E5E4E5C820E2FB8FEB227F0151B556
:1040A0009049047401F0904904E0602FF134312606
:1040B000904904EFF031E13115904161EFF031E1C9
:1040C000904904E0540112778960DBA3E0F460D6E4
:1040D000EF30E7D2E4904904F080CB31767F9F1136
:1040E0009431269041623124904167312490416897
:1040F00051AF904160E0F4601BA3E0F46016904182
:1041000067E0FD541F240FA3F0EDC413540744804F
:10411000904167F02231767FD711947FFF1194315F
:104120002A904160EFF07FFF1194E5C820E2FBAFD9
:10413000EB227F0151B5303514F134312690490519
:10414000EFF031E1904905E020E002C2353035184A
:104150003115904161EF127789600BA3E0F460069E
:10416000EF30E702C23531E1E4FF51B5A235E43367
:10417000FF227F0151B5904165E01226B6419904B6
:1041800041A11441A61541AB1741BB3041C0344198
:10419000C53641CA37000041B3536CEF856C80804F
:1041A0002F536DEF8008536DDF8003536D7F856D56
:1041B00090801D536EDF856EA08015536FFE800DBD
:1041C000536FEF8008536FBF8003536F7F856FB0CD
:1041D0007F0CDFFE227F0151B5D23531767F06118B
:1041E0009412718AEF70FA904167E0F4600B904985
:1041F000037406F012779870FB904165E01226B6C2
:10420000421C04422414422915422E17423E3042D9
:104210004334424836424D3700004236436C1085E5
:104220006C80802F436D108008436D208003436DA8
:1042300080856D90801D436E20856EA08015436F34
:1042400001800D436F108008436F408003436F80EF
:10425000856FB0904903740CF012779870FB229030
:1042600046F11224F19046F112249951C19046F57D
:10427000E06F603911153132EF6004B19780F7318A
:10428000D5F1ACFF71E3600A9046F11224997810E1
:1042900011909046F1118B9046F1F12E9046F5E089
:1042A000FF119451B19041647401F0D322C322EF05
:1042B000F031E1E4FFEFB4010443FE202253FEDFBE
:1042C000229046EC1224F111153132EF6004B197BF
:1042D00080F771DB600A9046EC12249978101190F7
:1042E0009046EC118B9046ECF12E31269046F05121
:1042F000AF9046F0E0FF2211153132EF6004B19724
:1043000080F731D531767F0111947F03119431E12B
:10431000E4FF80A19043E41224F19043E81225A920
:1043200011153132EF6004B19780F771DB600A90AC
:1043300043E4122499781011909043E4118B904338
:10434000E4F12E9043EB127565601031269043E83E
:10435000125F7B9043E912592580E831E1E4FF4187
:10436000B5904160E020E01431727F3D11947F2AC6
:1043700011947F8011947FA6119451B1229048C767
:10438000EFF0E4A3F090416EE0FFB40209740FF186
:10439000B374B9F0800CEF6404703F743DF1B374F2
:1043A00079F031729048C7E0600790416DE0FF807E
:1043B000027FAB119431E19048C7E090416DF070FD
:1043C000159048C8E0D39400400C7FFF11949048AA
:1043D000C8E014F080EBE4FF51B5227F0151B53104
:1043E000767F031194904166E06402227B017A415A
:1043F00079657D017F03121C0F7A41796E7F081267
:10440000756F7A41796B7F091277917A4179697F6B
:104410000B127791904169F1F56006BEFF18BFFF5E
:1044200015127710500280051276B9800990416903
:10443000E4F0A37440F012771050028008904166B7
:104440007403F080069041667402F0904165E012BA
:1044500026B6446E04447914448115448917449F58
:104460003044A73444AF3644B7370000449475FF56
:10447000015368EF8568FD804775FF015369EF8040
:104480000E75FF015369DF800675FF0153697F8553
:1044900069C9802C75FF01536ADF856ACA8021755E
:1044A000FF01536BFE801675FF01536BEF800E7595
:1044B000FF01536BBF800675FF01536B7F856BCB8C
:1044C00031E17F11F1A6E4FF717D119C904163748D
:1044D00002F0904167E0247F6009047016F1BB741C
:1044E0000A80067161F1BB7458F09041667403F064
:1044F0001276B9904168E0F46002A19590416BE0BA
:10450000FEA3E0FF64104E7006904168740EF0EF59
:1045100064204E7006904168740FF0EF64404E7056
:10452000069041687410F0EF64804E700690416808
:104530007411F0E4B5070AEEB401069041687412F4
:10454000F0E4B5070AEEB402069041687413F0E493
:10455000B5070AEEB404069041687414F0E4B50798
:104560000AEEB408069041687415F0E4B5070AEE47
:10457000B410069041687416F0E4B5070AEEB42052
:10458000069041687417F0E4B5070AEEB44006904F
:1045900041687418F041F7E51530E20FE51520E5A4
:1045A0000AE51530E0057F011254A0229041BA12AD
:1045B00024F19041BE1225A99041BA12249990414C
:1045C0006AE024FFFD904169E034FF5EFEED5FFF8D
:1045D0009041C31275EB60669041C3126B34127543
:1045E000D09041C3F0A3EFF09041C11276949FECBC
:1045F0009E5006A3ECF0A3EDF0D1DF1270CA602D3F
:10460000F1D8F1C312226BC004C005C006C007D1A7
:10461000DFE94A6005F13AFF80027F007E00D1DFCA
:1046200012749BD007D006D005D0041124D1B8E96C
:104630004A60051276EE80737E007F00806D9041A7
:10464000C1F1F56071904169127694EF9DEE9C4046
:104650000A9041C3ECF0A3EDF0800D9041C1E0FF62
:10466000A3E0A3CFF0A3EFF0D1DF1270CA602DF169
:10467000D8F1C312226BC004C005C006C007D1DF49
:10468000E94A6005F13AFF80027F007E00D1DF1227
:10469000749BD007D006D005D0041124D1B8E94AC4
:1046A00060051276EE80047E007F009041BFEE8FA1
:1046B000F01221438088D3229041C3E0FEA3E0FFA3
:1046C000C39041C2E09FF09041C1E09EF09041BA9A
:1046D0001224B5E4FCFD12226B9041BA1224F19031
:1046E00041BE022589EFF4045FFFE4FEEF70037F13
:1046F000FF22EFD3940F4009EFC4540FFFEE4404A0
:10470000FEEFD39403400AEF1313543FFFEE44022D
:10471000FEEF30E1010EAF06227E127F0BE4FD12A8
:104720004B6511153132EF6004B19780F7221224E6
:1047300099E4019431767F0501949041C7E0FFD15F
:10474000E5EFC43354E022AB07AA06EB241FFFE4D5
:104750003AFEEF7805CEC313CE13D8F9F9EB541F08
:10476000904906F0AF05F13FFCAF05D1EAAE01EE8E
:1047700014C39FC43354E0F9AF04C3EB9FFFEA9422
:1047800000FEE9FDC3EF127672ED600FE0FD6007F9
:10479000C374209DFD80067D0080027D007C00EFBB
:1047A0002DFFEC3EFE22EF4420F5FE2231769041B3
:1047B00063E0229048C8F090416D227F10F1A690EE
:1047C000416322E0FFD1E5EF75F020A4FFAEF0E4F5
:1047D000FCFD9041BA0224B59041C3E0FEA3E0FF86
:1047E0009041C7E0FDF1479041C5EEF0A3EFF0A383
:1047F00022E4FF41B5E0FEA3E0FF4E221261EC90FF
:1048000003CAEEF0A3EFF02212679FEF70087FA0BB
:104810007E0FFDFC01A91267D690429EEFF0740650
:10482000D39F4067E0605A31247E0090429EE0149E
:10483000FDE5F0A805088005C333CE33CED8F9FFD7
:10484000311D310990429F1224B5C000C001C00241
:10485000C00390429EE014FF74107E00A8070880F9
:1048600005C333CE33CED8F9FFEE3395E0FDFC31EE
:1048700015122286D003D002D001D00012226B8004
:10488000283124AFF07E00311D801E9042A6E0FF4B
:10489000600FE4FCFDFEFB7AF47901F812228680B9
:1048A000087F007ED07D077C00310931377E497F4B
:1048B00063C006C0073101D198D007D006717212CB
:1048C00067B0EF703B310FD31223D44007E47F0170
:1048D000FEFD8022310F12231131093101E47B01E9
:1048E000D1BE50143101C3EF9401FFEE9400FEEDF0
:1048F0009400FDEC940031083101121BF61247FCC4
:104900002290429F022499FDFC90429F0224F19044
:10491000429F122499E47BE87A03F9F8227C007D17
:1049200064022740312CEF75F0A084229003BBE095
:1049300064AA2411FFF022D1CCEF600FE47FA07EA7
:104940000F3107901217E054E7F022901217E0FFA2
:1049500074E0D39F4005E02410F022EF6410901221
:1049600017F02291689042A3E0B4020AD1C59042A8
:10497000A37403F041019042A3E064037069904284
:10498000A5E060569042A7E0B40105121BDD800A45
:104990009042A7E0B40203121BE29042A5E014F09B
:1049A000E0601F312CEF75F04684E5F075F064A4EB
:1049B000FFEF24A0FFE5F0340FFEE433FDE433FC09
:1049C0008007E47FA07E0FFDFC9044901224F17ECE
:1049D000497F63E4904494F061729042A37401F0C3
:1049E00051017FFD021DF49042A3E0B4040FD1CC2D
:1049F000EF600712739BE4FF0108121BDD227401B4
:104A0000F09042A3E0640270227C4B7DDF7F0112B4
:104A100019F8E4FBFAFD7FFF1219E47E497F63C0B9
:104A200006C007D191D007D00661729042A3E0641E
:104A3000037017FFFE31079042A7E07C4B7DDFB487
:104A400002047F0380117F02800D9042A3E0B40432
:104A50000B7C4B7DDF7F041219F821639042A3E0A9
:104A6000B4010BD1C591687147E49042A3F0229044
:104A70004901EFF0C22B901221E060207E127F0BE3
:104A8000126F39BF01087FFF121DF47F0022904290
:104A9000A3E06008901221E0FF121DF41247199064
:104AA0004901E070026127E49042A7F09042A3E040
:104AB000600231FE904901E0FFB401079042A77403
:104AC000018009EFB403109042A77402F07147907F
:104AD00042A57404F08048EF64047035901221E020
:104AE000701ED22BD176EF700F7147F1D17E127FFD
:104AF0000B7D0171651247229042A37404F0803A45
:104B00009003C2E0B40505E4F0121BD871477F00A2
:104B100022904901E0640270219042A5F071479013
:104B200042A37402F08013E49042A7F0D176EF60C4
:104B3000031247199042A37401F051019042A3E07F
:104B40007F0060027F0122901217E05403F022E000
:104B500075F002A42484F9740F35F07B02FEAF01D6
:104B600090318EE0FDAB05E4FCFD9046F5EBF002E4
:104B7000425F717A9042A8EFF02290448EEEF0A34B
:104B8000EFF07FFFA31224B5E8494A4B60509044F0
:104B9000957403F0904495E0FEC3940E5040EE915E
:104BA0009CE07032904495919A7405F0C00790444F
:104BB000901224999044891224F1904494E09044F6
:104BC0008DF090448EE0FCA3E0FDD007B18E9044C0
:104BD00095E004FF8008904495E004F080B62290B0
:104BE00048C5EFF0A3EDF091689048C5E0B401121C
:104BF000A3E09042A4F071479042A37405F07FFEB9
:104C0000805F9048C5E0640270229042A7E0640291
:104C1000705590429EF09042A37403F07E497F63EA
:104C2000C006C007D191D007D00661729048C5E098
:104C30007035121A5CEF6401602A302B14121E12B8
:104C4000EF600C121A5CEF60069048C674FFF0C269
:104C50002B1247199042A3E0600231FE9048C6E053
:104C6000FF021DF4121A66229042A8E0FF9175E43B
:104C70009042A8F022AB07E4FF1BEBC3940E50193F
:104C8000D1821224FD00000000B1711224FD000049
:104C90000000EB919CE4F07F0122E0FF75F00CA492
:104CA00024A3F582E43432F58322D3900001E0940A
:104CB00000900000E094005002A170C2ADE0FFA39C
:104CC000E09048C3F1C3900000F0A3F0D2ADF575B9
:104CD000E575919CE07002A15A9048C3D1D4E57566
:104CE000B1721224B5D31223D4504DE575B180E0D2
:104CF000FF600AF46007E575B180E014F0E575B176
:104D000080E06010E575D183122499E575B17212C7
:104D100024F18011E575919CE4F0E575B1721224DF
:104D2000FD00000000B1E3E0FEA3E04E6005B1E34A
:104D300012764D1245978022E575B172C083C0820C
:104D4000122499C006C0079048C3D1DDD007D00611
:104D5000122278D082D0831224F10575E575C394B0
:104D60000E500281D09048C3E0FEA3E0FF121B0664
:104D700022EB75F00CA42498F582E43432F58322FA
:104D800075F00CA424A2F582E43432F58322904419
:104D900087ECF0A3EDF0904486EFF0FB904489128D
:104DA0002499D1821224F1B1711224F1B171C0831E
:104DB000C0821224B5900000D1D412226BD082D0D0
:104DC000831224F190448DE0FF904486E0FEB18090
:104DD000EFF0904487E0FCA3E0FDEEB1E5ECF0A33A
:104DE000EDF022E57575F00CA424A0F582E43432D0
:104DF000F5832290457EF16EEBF090458374FFF0D1
:104E0000904582E0904584F0904584E0FFC3940E85
:104E1000505EEFB172122499E4FBD1BE704A904506
:104E200082E07E0170027E02904584919AEEF0C08D
:104E300007904580E0FF7E006004F1CA80027F0A8F
:104E4000E4FCFD9044891224F1904581E090448D6A
:104E5000F090457EE0FCA3E0FDD007B18E90458444
:104E6000E004FF904583F022904584E004F08098B0
:104E7000904583E0FF22901217E07F0030E2027F2E
:104E80000122EB75F00CA4249CF582E43432F58306
:104E900022E47FD07E07FDFC9044901224F1E49040
:104EA0004494F022AB07E4FA1BEBC3940E500CD1F0
:104EB00082F1E16006B1711224F10AAF0222FAF91F
:104EC000F8C30223D4E4FDFCFF0219F8901217E0A6
:104ED0005408FF22E0FEA3E0FFE4FCFD22E0FEA375
:104EE000E0FBAA06E4F9F82290478BF16EEBF09014
:104EF000478BD1DDF164F1E9C006C00790478BF123
:104F0000D9D1E1D007D006D31223BE7E0050047F52
:104F10000180027F00C006C00790478BD1DDF1649D
:104F2000D0E02FFFD0E03E90478BF0A3EFF053ECA2
:104F3000FC90478BE0FCA3E0FDEC540342EC75FFD2
:104F400002EDF5AF75ED0275ED04A3E0600543ECED
:104F500008800353ECF790478EE0600443EC042292
:104F600053ECFB227F807E387D01FC0232C3EEF0E1
:104F7000A3EFF0A3EDF0A322F0A3EFF07E1C7FAF30
:104F8000E4FB7D01E4904582F0A1F320022B901216
:104F900017E030E10AF1C050067E007F0180047EF8
:104FA000007F00EF4E7012121C6EEF700C121CA5E9
:104FB000EF70061247FC7F01227F0022C1A4817599
:104FC000A21322CFF0A3EFF0E4227C007D0A02209E
:104FD000A6901217E04404F022E0C313FEA3E013EE
:104FE00022122499EC4D4E4F22AC00AD01AE02AF1F
:104FF000032290072AEFF090072CEBF090072BED9F
:10500000F05402901240F0124F8BEF7002C32290C6
:10501000072AE0B40411A3E0FB7D017F01114C904D
:10502000072A7403F0801390072AE0B40505121BC9
:10503000E7800790072B1179114C90072AE0900325
:10504000C1F090072CE090123FF0D322EB6008757E
:10505000FF0153CDFD800675FF0143CD02ED6005D4
:1050600053FBDF800343FB20EF600775FF0243E142
:10507000402275FF0253E1BF22E0FB7D01E4FF22E5
:10508000121BE77F0143FB1075FF0243E640EF6010
:105090000D75FF02E5E120E7FB43FB0D800343FBB9
:1050A0000E80FE75FF0275E404E4F5E4F1DFC33021
:1050B000E001D34017E5E630E012901217E0540CFF
:1050C000600A121BF1901217E054F7F0C213F1DFDF
:1050D00030E035E5E654036401702D121A20B1F872
:1050E000401D90123FE0600AE014F0700512330793
:1050F00071E6901215E020E00221961180219612AF
:105100003307D21371E621961233071268219003F8
:10511000C2EFF0901200E0B47A14901214E0B49C44
:105120000D9003C2E0FF64056004EFB40330E49027
:1051300003C8F09003C8E0FFC394805013E42FF538
:1051400082E43412F583E4F09003C8E004F080E3D5
:10515000901200747AF0901214749CF0D20F121C0A
:10516000194003121C147B017A1279107D017F0112
:10517000121C0F7B017A1279117D017F21121C0F05
:105180007B017A1279127D017F22121C0F7A12792B
:10519000297F0212756F901229E0B401057F011278
:1051A0006E36121A25126821121A1B9003C2EFF0F4
:1051B000121999121A169003C2E0FFB40602800C6D
:1051C0003013047F0280059003C2E0FF121DDBEF65
:1051D00024FFB3923775FF0253E6BF1276D8600200
:1051E00071E6125895121A2F1236F8300F0B7B0108
:1051F0007A12792B7D10126617121A6B901215E035
:10520000C330E001D3400F20370C1236967B017A71
:1052100031799E1219DA90122AE030E002800330D0
:1052200013047F0191A0D2AF20370241AE121C328D
:10523000124CAA121DE5121C0A40F29003C1E06054
:105240003F121A4DEF70051262244034E51470FCD1
:10525000E51520E50291BD121B6AEF70FA71EE5060
:1052600004910050057F0112437D9003C1E0B40218
:1052700004E4FF80099003C1E0B403047F011185B9
:10528000121A43E51530E1A51274B94002E4F0E5C5
:105290001520E50471CA91141274CFC0E071D87B57
:1052A000019003C4E0FDD0E0FF12198F412D125888
:1052B0003712580750031238191236E8EF7006906B
:1052C00003C1E06052903107E0704C121A4DEF704C
:1052D000051262244041E51470FCE51520E50291B9
:1052E000BD121CA0121B6AEF70FA71EE50049100FF
:1052F00050057F0112437D9003C1E070121236E821
:10530000EF600C1236D3901217E04408F08008903A
:1053100003C1E0FF121BEC121C32124CAA121BFB41
:105320001236AD1236BBEF70241236F0EF60051264
:105330001BF180381236E8EF70321267BCEF702C28
:10534000124F8BEF640170241236CC801F9012171D
:10535000E020E2181236F0EF600D71EE500491007B
:105360005005E4FF12437DE49003C7F020100512BE
:105370001A4380221261EC9003BAE0FEEFC39E4014
:1053800005EF9EFF80089003BAE0F4042FFF740637
:10539000D39F5002C210E51530E1241274B94002C7
:1053A000E4F0E51520E50471CA91141274CFC0E051
:1053B00071D87B019003C4E0FDD0E0FF12198F1279
:1053C0001BBA121A5712588341AE9003C3E0FD7501
:1053D000F0AA9003CD12257DED75F002A424BCF94E
:1053E000740335F0FA22901215E054FEF02290007A
:1053F00001740193B40007E493B41802C322D322CA
:105400007F017E009017FCE4935EFE7401935F4E73
:1054100024FFB3227B01AF82AE837D01900A8F12FD
:1054200047EA1225A9E5147076D1425004C233919F
:10543000E3900A8FE0FEA3E08E11F512A3122589F6
:105440009006B21225A9AE11AF127DAA127101E425
:10545000F5FF75D901F510E5155421602BE51530E0
:10546000E504E4FFF13DE4900A94F0900A94E0042E
:10547000F0123F27EF6009900A94E0C3941040EBCC
:105480007F02121DD65315DE9006AEE07F00B403F6
:10549000027F01F1D0D23391E3D2EBA21292ED223E
:1054A000EF600E71CA7B01AF82AE83E4FD911C8078
:1054B00009121A5291BDE433FF227F0122E51470D4
:1054C00020D1425004C23391E3F160F1F5E5D120DF
:1054D000E0FB4315205315FEE4F510A21292EDD324
:1054E00022C322904902E5F4F0E0547FF5F47F8274
:1054F0007E00123FDFF1115005E5FC20E6F7303366
:1055000008904902E04480F5F47FE87E03123FDF13
:10551000F1115005E5FC20E6F775FF01E5D520E720
:1055200002C322E5F4D330E601C322900AF4EFF07F
:10553000C234F11CD21B900AF4E09047FDF0D21C5B
:10554000A3E4F0A3740DF0D15FE4900AF5F0D14A22
:105550005076900AF5E07070E5F754C060F0B1DD68
:10556000B1F06455704EB1F0901221E06F600E9072
:105570000AF5E0F47039901215E030E132B1F064D0
:10558000556018E0FF644A6012EF640A600D9012E3
:1055900021E0FF900AF5E0FE6F7005900AF5800AA1
:1055A0009006AFE06E900AF570197402F0809F903B
:1055B0000AF5800F900AF5E0B454057433F0808E3C
:1055C000900AF57401F08086900AF5E0B40206C2F4
:1055D0003391E38000D152900AF5E0FF22E5F720F5
:1055E000E008E5F754C070F5FF2243F701AFF92258
:1055F000B1DD900AF5EFF0221267317F02121DD65D
:105600007F01B12B900B07EFF0BF02028013900BCC
:1056100007E0B43311E4F07F01B12BBF020D900B12
:10562000077401F08005E4900B07F0900B07E07021
:105630000AD14A5004C23391E3F160900B07E02491
:10564000FF22C2EBA2ED9212C2EDE5F4C330E701F6
:10565000D322C21BE49047FDF0C21CA3F0A3F07557
:10566000FF01E5D520E702C322C234F11C201B0252
:10567000E10153F4DF9047FDE0FFF13D1276CA30BF
:105680001C0543F440800353F4BFE4F5FF53F5F0E9
:105690009047FEE0FAA3E0FBEA42F5EBF5F6D234E0
:1056A000F11C7FC8123EFFE4F5FFE59320E604F10C
:1056B0001140F4301C59E5F430E3047D288010E5F6
:1056C000F430E2047D288007E5F430E1027D281201
:1056D0003FD87F28123EFFF11140FC7F78123EFF39
:1056E000F111502BF15950F8F1A4EFC39D50F1F195
:1056F0005950EDE5F720E5E8C234F11C123FD8809F
:10570000DF53F4BF126BB2400643F4201276C3D3CA
:105710002275FF03E591C330E701D322AFF4EF54C4
:105720007FF5F4303405EF4480F5F475FF01E5D5DD
:1057300020E702C322E5F4D330E601C32275FF015E
:10574000E5D530E602C322E4F5FF439A80EF1276F6
:1057500000E4F5FF539A7FD32275FF01E5E433227D
:10576000F1677F08021DD6E5FA30E1FB75FC807514
:10577000FF0153D5EFE4F5FC75FC40123FD8E5FC82
:1057800020E6FB22E4FFE5F754C06002801675FFB7
:1057900001E5D530E30DF15950F4F1A4EF60EFF1DC
:1057A0005950EB22126BA2AFD922C23391E3F1F52B
:1057B000E5D120E0FBE4F5FF75D9019006AEE07F6E
:1057C00000B403027F01F1D0D23391E3E4F510225B
:1057D000F13D43FA04E4F5FF53D1FD43D1012275B5
:1057E000FF02901215E022C2AFEFF45215D2AF22A1
:1057F000E4F51481BDE4F5FFE5D154FE4402F5D192
:105800002275FF028FE322901221E07011125820BE
:105810004FFFA3E04FFFA3E04F7003D38001C322EB
:10582000901223E0FFA3E022AE0712492CEE04FE03
:10583000EF8EF084AFF02230110C903107E070064B
:10584000FF1219B7C211301323AF719006CFE0FEDB
:10585000EFC39E400AEF9ED394024010C2132290E1
:1058600006CFE0F42FD394014002C213229003C567
:10587000E0FCA3E04C700A9003C5EEF0A3EFF0D378
:1058800022C3229003C51247F56009CAEECAC9EFC8
:10589000C912271622D2ADD2BD75FF02758E717561
:1058A000740975FF02E58E546F4480F58E9047733E
:1058B0001224FD0000000022C0E0C0F0C083C082BE
:1058C000C0D075D008C0FF75FF02E58E30E4397591
:1058D000FF02E58E54EF4410F58E90477312249921
:1058E000123CDA9047731224F19000003125E574E0
:1058F00030E0020551E574700D7574090571E571AC
:10590000700205708002157475FF02E58530E408A9
:1059100075FF024385100576D0FFD0D0D082D083AA
:10592000D0F0D0E032E475F001022143C0E0C0F0D5
:10593000C083C082C0D075D008C0FF75FF01E5D517
:1059400030E6047F028009E5D57F0030E7027F0161
:105950008F18E518640260024103E5141226B65957
:105960007801598B0259F00859960959A10A59AF83
:105970000B59CD0C00005B7D75FF0175C355151AE1
:10598000E51A6002617D751402617D75FF0175C3C2
:10599000F0751409617D75FF0175C35575140A61B1
:1059A0007D75FF019006C2E0F5C375140B617D752E
:1059B000FF019006AFE0F5C3751401751A14900647
:1059C000D11275496002617D75140C617DAB1CAA12
:1059D0001DA91EF18BAD16AF1FF198D1D475FF0034
:1059E000F18243FA0475FF001257D8751408617DDF
:1059F000C2EB7514004315041265F24002617D315B
:105A000025617DE51864016002617DF1B7400261A6
:105A10007DE51070227191E0FF64556004EFB4548D
:105A20000BD213AF719006CFEFF041FF75100275E6
:105A3000FF0075D908617DE5106402706E75FF0185
:105A4000F5EA75EAFF9006B2122589E5D9122072AF
:105A5000126E121265B09006AEEFF071B5E0900BC9
:105A600006F0E0FFD3940940259006AEE0D39402FF
:105A7000400CEFD394AA7F0040027F01800D900B71
:105A800006E0D394407F0040027F01EF600471A3E1
:105A9000806D900B06E0F516126E07901222EFF063
:105AA00075FF008516D9751003617DE510640360EC
:105AB00002617D9006B271AFFF719BEF122072718F
:105AC000A375FF009006AEE0C39403E5D3500554E0
:105AD00002FF80035401FFEF602A30E111C39006FA
:105AE000BCE094FF9006BBE094FF5013800FC3907E
:105AF00006BEE094FF9006BDE094FF5002312512EF
:105B000057AA8079C2331254E375FF001257F8E5A3
:105B1000D120E0FBC2EB4315027191A3E0FF90128C
:105B200024E0FEEF6E7190E0901223718AA3A3E04F
:105B3000901225718AA3A3A3E0FE901226E0FDEE49
:105B40006D4F6011C39006C0E094FF9006BFE094D3
:105B5000FF50023125C39006BAE094FF9006B9E0E9
:105B600094FF500231257510009006AEE0B4030793
:105B7000151671B5E516F09003C4E516F0D0FFD008
:105B8000D0D082D083D0F0D0E032FEE0FDEE6D4F79
:105B9000FF85128285118322122589E92401F9E407
:105BA0003AFA22301305C21312565222904585123A
:105BB0002589021FB3E5122407F582E43511F58328
:105BC00022904588ECF0A3EDF09045851225A9F1CF
:105BD00018904588127587904585F17B71ACB4FFAC
:105BE00004E412207271ACFF22900AA71225A9D2F8
:105BF00027C2EBE5146002C172E51530E202C32250
:105C0000D17A24E3F9E43AFAE4122072126731906F
:105C10000AA7D1C912216F5407FF9006B0F0126590
:105C20004E900AAAEFF0E51520E06B12564A4005A7
:105C30007F011254A0900AAAE0FF7B017A0A79AB97
:105C4000126977E4337004D2EBC157900AAAE024BA
:105C50006BF1EAE0FF900AABE0D39F4039D2EBF161
:105C6000A5A21292ED9006C1E0600ED17A24E31253
:105C7000744F431504F10DD3229006D0E070157BCC
:105C8000017A0679D07C627D3690458A7464F0E4AE
:105C9000A3F071C1C32212564A5005C2331254E315
:105CA0001257F5E5D120E0FBE4F510C213900AA7E6
:105CB000D1C912216F5407C39403E494005033D127
:105CC0007A24B1D1C2FFD17A24D8D1C22FFFE433D4
:105CD000FED3EF9440EE648094804016D17A24E3A2
:105CE000F9E43AFA7402122072431504A21292EDFA
:105CF000D322D17A2408F9E43ACFE9CFF5118F12F3
:105D0000D17A24B1D1C2F516AE1112712BD17A24F9
:105D1000B2F9E43A8B1CF51D891ED17A24D8D1C280
:105D2000F51F900AA7D1C912216FFDACF054606035
:105D30002DD17A24D9D1C2FF1265C4C227D1B2FBBA
:105D40007A009006D1E0FE7D18F1E2EF2BFFEA3EEB
:105D5000FEEF2414FBE43EFA7D027F01C144900A69
:105D6000A7D1C912216F54079006B0F0751408D15D
:105D70007A24B2F9E43AFAF18BD17A24D8D1C2FF6D
:105D8000AD16F1989006B0E0640370237B01FDD15D
:105D900082D3F1715005740112201DE4F5FFF182E8
:105DA000121FB32428FBE433FA7D03E4FFC14490BF
:105DB00006B0E06402702BD185D3F171400574FF09
:105DC00012201DE4F5FFE5D25480440AF5D2121FDB
:105DD000B32414FBE433FA7D027F01126673D1D43D
:105DE0008065E4FB7D01D182D3F171400574FF121F
:105DF000201DE4F5FF900AA7D1C912216F44104578
:105E0000F07F0560027F0AEF547FFFE5D254804F98
