:020000040000FA
:100000000202DF0218034100B8002202180B22226C
:0100100022CD
:07001300021813E4FFE1BC39
:07001B0002181B75C8012249
:030023000218239D
:03002B0002182B8D
:030033000218337D
:03003B0002183B6D
:030043000218435D
:03004B0002184B4D
:030053000218533D
:03005B0002185B2D
:030063000218631D
:03006B0002186B0D
:10007300021873BB010689828A83E0225002E722B9
:10008300BBFE02E32289828A83E49322BB010CE54F
:100093008229F582E5833AF583E0225006E9258239
:1000A300F8E622BBFE06E92582F8E222E58229F57D
:1000B30082E5833AF583E49322BB010689828A832E
:1000C300F0225002F722BBFE01F322F8BB010DE53B
:1000D3008229F582E5833AF583E8F0225006E92583
:1000E30082C8F622BBFE05E92582C8F222C5F0F8D4
:1000F300A3E028F0C5F0F8E582158270021583E0CD
:1001030038F022A3F8E0C5F025F0F0E582158270FF
:10011300021583E0C838F0E822EF2BFFEE3AFEED3C
:1001230039FDEC38FC2275F008758200EF2FFFEEE5
:1001330033FECD33CDCC33CCC58233C5829BED9A10
:10014300EC99E58298400CF582EE9BFEED9AFDEC6E
:1001530099FC0FD5F0D6E4CEFBE4CDFAE4CCF9A8B4
:100163008222B800C1B90059BA002DEC8BF084CFBC
:10017300CECDFCE5F0CBF97818EF2FFFEE33FEED93
:1001830033FDEC33FCEB33FB10D703994004EB99BD
:10019300FB0FD8E5E4F9FA227818EF2FFFEE33FED0
:1001A300ED33FDEC33FCC933C910D7059BE99A4005
:1001B30007EC9BFCE99AF90FD8E0E4C9FAE4CCFB1D
:1001C3002275F010EF2FFFEE33FEED33FDCC33CC71
:1001D300C833C810D7079BEC9AE899400AED9BFDFA
:1001E300EC9AFCE899F80FD5F0DAE4CDFBE4CCFA0D
:1001F300E4C8F922EF5BFFEE5AFEED59FDEC58FC23
:1002030022EB9FF5F0EA9E42F0E99D42F0E89C451F
:10021300F022E8600FECC313FCED13FDEE13FEEFC9
:1002230013FFD8F122E8600FEFC333FFEE33FEED87
:1002330033FDEC33FCD8F122E0FCA3E0FDA3E0FEA8
:10024300A3E0FF22E0F8A3E0F9A3E0FAA3E0FB2296
:10025300ECF0A3EDF0A3EEF0A3EFF022A8828583E8
:10026300F0D083D082120276120276120276120244
:1002730076E473E493A3C583C5F0C583C8C582C878
:10028300F0A3C583C5F0C583C8C582C822E0FBA31C
:10029300E0FAA3E0F922F8E0FBA3A3E0F925F0F0EC
:1002A300E582158270021583E0FA38F022EBF0A3A1
:1002B300EAF0A3E9F022D083D082F8E493701274B9
:1002C3000193700DA3A393F8740193F5828883E4DB
:1002D300737402936860EFA3A3A380DF75812F0279
:1002E300094A9000E551B0AE071FEE60129000E896
:1002F30071031176FE9000E57103EE11BC80E822D4
:10030300E475F0018090900A12EEF0A3EFF09000F4
:100313004FE064016002619CC3900A12E0940850AC
:100323000BE4FF9153900A12918780ECE4F50DFBE7
:1003330071C5AF0C12103DE50DC39408504771C34E
:10034300E50D7F0071BDEF29F9EA3EFA9000E8510F
:10035300B07B017A0979007FFF51E5E50DFEE424C6
:10036300FFFFE43E71BD8F828E83118F9009FFF0F2
:100373007B017A0979009000FBE50DF0AD0C1210BA
:1003830063050D80B2900050513BE42FFFEE34081B
:10039300120D139000500214BC900054E0FEA3E031
:1003A300FF71BE900A12E0FDA3E09000D1CD1208C8
:1003B300D4900054EEF0A3EFF022FE902001419080
:1003C3007B007A00791012103675FF031176F5D38E
:1003D30075FF0390000171F190000271F190000329
:1003E30071F175D40175FF03E5D55402FF22118F16
:1003F300F5D375FF03229000F1E0FEA3E0FF9130F7
:1004030091539000F3513BEF2401120D109000F330
:100413005153900A18914D900A18E07002A3E070AE
:100423000BFF7E087109120F4212142822B108CD66
:1004330024FFCD34FFFCC3ED9FFFEC9E541FFE74DD
:10044300082F121416FF229000DF74FFF5F001F05D
:10045300B108541FFC74082DF58274203CF583EF1A
:10046300F0902006E0B42019A3E0B4001490200516
:10047300E02401FF902004E03400541FF0A3EFF0C8
:1004830022902006E475F00101F09000BA515390D8
:1004930000BE51B0110AF11EEF6004110F80F71274
:1004A3000F0560099000BA513B7810D1249000BA2F
:1004B300D1209000BA513BE480219000C11208C7BB
:1004C30045F0601B9000BE5190E94A600C1176FF25
:1004D300D1279000BF918780E1E4FFD12780DBF132
:1004E300B79000AF7401F0229000E3E0FF81039026
:0704F3000A1BE014F0E022F7
:10050800902006E0FCA3E0FD902005E02DFD902062
:1005180004E03C22D1C8EF541FFF12148DA37401CC
:10052800F0120F4C9000DCE0FCA3E0FDAE0478056F
:10053800CEC313CE13D8F9FF9000DFEEF0A3EFF08F
:10054800ED541FA3F0A3E4F09000F1F0A3F0C390E2
:1005580000DDE094209000DCE09400407D914A901A
:1005680000E1E0FEA3E0FF9000F1EE8FF011F090C3
:1005780000DFE07004A3E06406700AD1C89000DFD1
:10058800E48FF011F0D1C89000F1E48FF011F0126F
:100598000FFCEF600512148A8005E49000DEF090ED
:1005A80000F1121371701D91309000E3EFF0910388
:1005B80091EB91EB9000DFE07002A3E0604891EBD3
:1005C800914A80F071F971F971F99000DFE07002D9
:1005D800A3E0603271F9914A80F09000DC91878045
:1005E8000A9000DCE07002A3E0600BD1C891039090
:1005F80000DC914D80EB120FFCEF600512148A802D
:1006080005E49000DEF09000DEE06002A12C1214F8
:10061800AB71099000F3413B513B78085115E4E573
:10062800C820E2FB8FEB227F01F1BC900A1C740109
:10063800F0900A1CE06032120FF4D1BC900A1CEF53
:10064800F0120849D1AB9000ACEFF0120849900ABB
:100658001CE054011213BB60D8A3E0F460D3EF3060
:10066800E7CFE4900A1CF080C8F1E87F9FD127D13A
:10067800BC9000ADD1BA9000B2D1BA9000B3F1B538
:100688009000ABE0F4601BA3E0F460169000B2E0C9
:10069800FD541F240FA3F0EDC413540744809000A9
:1006A800B2F022F1E87FD7D1277FFFD127D1C090C0
:1006B80000ABEFF07FFFD127E5C820E2FBAFEB22CC
:1006C800900081E0B4082CA3E0B40027120F2E7B21
:1006D800017A0179009000CA120F45F161120F2EBC
:1006E800E42FFFEE3408120D13120F28E490008156
:0806F800F0A3F0900083120F43
:10070000DB9000835153900081E475F0013106FEC7
:10071000740025F0F58274013EF583E0FF227F012D
:10072000F1BC300216120FF4D1BC900A1DEFF0128A
:100730000849900A1DE020E002C202300219D1AB44
:100740009000ACEF1213BB600BA3E0F46006EF3037
:10075000E702C202120849E4FFF1BCA202E433FF3F
:10076000229000C351539000C751B0110AF11EEFFF
:100770006004110F80F7F1E47F03120F1E600990EF
:1007800000C3513B7810D1249000C3D1209000C306
:10079000120F349000CA1208C745F06011D1BC9006
:1007A00000C75190EF11BC9000C8918780E51208F6
:1007B00049E4FF8007EFF0120849E4FFEFB40104B9
:1007C00043FE202253FEDF229000ABE020E014F134
:1007D000E47F3DD1277F2AD1277F80D1277FA6D1F3
:1007E00027F1B7227F01F1BC9000B0E051B9080AAF
:1007F00004081214081715081C17082C3008313487
:10080000083636083B3700000824531AEF851A8053
:10081000802F531BEF8008531BDF8003531B7F8502
:100820001B90801D531CDF851CA08015531DFE806E
:100830000D531DEF8008531DBF8003531D7F851D81
:10084000B07F0CDFFE2212062712149FEF70FA9081
:1008500000B2E0F4600B900A1B7406F01204F27010
:10086000FB9000B0E01202B9088404088C140891CF
:100870001508961708A63008AB3408B03608B53707
:100880000000089E431A10851A80802F431B108099
:1008900008431B208003431B80851B90801D431C45
:1008A00020851CA08015431D01800D431D1080086C
:1008B000431D408003431D80851DB0900A1B740CAE
:1008C000F01204F270FB2274FFF5F0020106E0FD65
:1008D0009000D1E4F0A3EDF09000CCEEF0A3EFF0A7
:1008E000A31202B09000D111C745F060549000CE21
:1008F0001202901200769000D3F09000CF1204877D
:100900007D80ED60DF3141EE7C0030E7027C0190BC
:1009100000D3E05D7B0060027B01EB6CFCEF25E027
:10092000FFEE339000CCF0A3EFF0AF04EF600C903B
:1009300000CCE06410F0A3E06421F0EDC313FD806F
:10094000C19000CCE0FEA3E0FF2275FF03759E027C
:100950009017FAE493900A0FF075FF02E5E654034E
:100960006002618B7510DE7511AD7512BE7513EFE7
:10097000C2AF75FF0275E404F5E4751AFF751BFF3D
:10098000751CFF751DFF7516FF7517FF7518FF7530
:1009900019FF75FF0253E6BFD11A1210DAB11BEF2F
:1009A00064016002618290180893FE740193FF90C5
:1009B000007FEEF0A3EFF0F5828E83E493FE7401E6
:1009C00093FFC3EE9480500280047E807F008E14DB
:1009D0008F15B1F7FFF5828E83740293F51E7403B1
:1009E00093F51F740493F508740593F50974069341
:1009F000F50A740793F50BC201EF4E700241E4EF64
:100A0000F4FFEEF44F700241E4E514451EFEE515D7
:100A1000451FFFE5084EFEE5094FFFE50A4EFEE5DE
:100A20000B4F4E700241E4E51FF4FFE51EF4FEE5B6
:100A300015F4FDE514F44EFEED4FFFE509F4FDE578
:100A400008F44EFEEF4DFFE50BF4FDE50AF44EFE13
:100A5000EF4D4E700241E47F03718EE50B24FFFFE2
:100A6000E50A71BC640370227F02718EE50924FFE0
:100A7000FFE50871BCB402127F01718EE51F24FFEF
:100A8000FFE51E71BCB40102D2012001577F017144
:100A90008E71B59000D1E51EF0E51FF13B71A07F8E
:100AA0000271AB9000D1E508F0E509719E7F0371FA
:100AB000AB9000D1E50AF0E50B719E7F01718E903D
:100AC0000A10E0FEA3E0FF7BFF7A187900E4251509
:100AD0009000D2F0E51434E89000D1719F4EC370BD
:100AE00001D39201300109F1ACEF6401600261822F
:100AF000D20091FB7B017A007964B1D8741BF012AB
:100B00000761900064E0B4800B9153EF70061214FB
:100B100046EF6002C20030006530011AB1F7F5827D
:100B20008E83740C93FE740D93FF90007DE06E70C5
:100B300003A3E06F604890005012025F00001800AD
:100B400091FBF128F12EEF2401B110B1D27404F021
:100B5000120761900087B10A9000871214BC9000C0
:100B600081F14590004F04F012051C7440D3950CA0
:100B7000400C1203C3AF0C12103D050C80EDE4FFD6
:100B8000F186E4F510F511F512F513021800AEFF29
:100B9000EE54CFFEEFC454F024804EF5FF22A3F0B4
:100BA00011D8900A10EEF0A3EFF022718E900A1087
:100BB000E0FEA3E0FF7BFF7A80790022347F8F8202
:100BC000F583E49322900000EEF0A3EFF0A312026D
:100BD0003B900008120253900006E0FFA3E0900053
:100BE0000CCF806090000C121371605EC3EF9440D4
:100BF000EE94004006A37440F0800590000EEFF0E4
:100C0000B1FFE0FFB1D8EFF090000812023B1207ED
:100C10006190000EE0FFC390000DE09FF090000C8B
:100C2000E09400F090000812024790000EE4FCFDF2
:100C3000FE12011C900008120253914AB1FF11CE1E
:100C4000900000EEF0A3EFF0809A900000E0FEA389
:100C5000E0FF2291FBB101900006E4F07405F13B46
:100C600091F0C006C00791FBEF2407B110B10190CD
:100C70000006E4F0A37414F0D007D00691F0C0068B
:100C8000C007B107B101D10940067EFF7FFF800692
:100C900090006512023B900006EEF0A3EFF0D00743
:100CA000D00691F0D109402F91FBEF241AFFE43ECA
:100CB000FEED3401FDE43CFCB10190006512023B05
:100CC000EF2401FFE43E900006F0A3EFF0900A1637
:100CD000E0FEA3E0FF91F0900069E0FEA3E0FF904A
:100CE0000A16E06E7003A3E06F7F0060027FFF22B0
:100CF00071C5900A16EEF0A3EFF0229000A6020252
:100D00003B9000020202539000A612023BEF241B0C
:100D1000FFE43EFEE43DFDE43CFC22E49000AAF04A
:100D20007B017A007995121378900097E0FF741197
:100D3000D39F5077E4FFFEFDFC7B017A0079FE90A3
:100D400000CAF0A37402F01207619000FEE0FEA357
:100D5000E0FFE4FCFDB1CC91FBEF2402B110B1CC7B
:100D60009000B5E024FFFF9000B4E034FFFEE4FC07
:100D7000FD9000A61202471201F79000FCEEF0A3CE
:100D8000EFF09000A61202479000FCE0FEA3E0FF07
:100D9000C39000B5E09FFF9000B4E09EFEE4FCFD30
:100DA00012011CB1CC9000AA7401F09000AAE0FBE3
:100DB0006017E4FFFE7D02FC900097E024EFF9F855
:100DC00012022890008F120253AF03229000A60255
:100DD00002537B017A0079839000CAE4F0A3229148
:100DE000FBEF2401B110B1D27404F0120761B10716
:100DF000F128900081E14590007FE0FEA3E0227B96
:100E0000017A00790F90000E22E47FFF7EFFFDFC47
:100E1000900065120247D3020204E4900A1EF0908B
:100E20000A1EE0FFD3946F501EEF2410FFF198903C
:100E30000A1EE0FEE42EF582E4344FF583EFF090D5
:100E40000A1EE004F080D87B017A4F79009000D12F
:100E5000E4F0A37470F07F0F7E1D11D8EF4E7F0079
:100E600070027F01901218EFF024FF22900A09EB24
:100E7000F0900A05120253900A0512023BD1C3906A
:100E80000A09E06F603B12000A12071EEF600512AC
:100E9000000F80F5F105600B900A0512023B7810F7
:100EA000120624900A05120620900A05F134900AD1
:100EB00009E0FF1206271207B79000AF7401F0D3C4
:100EC00022C322900A0012025312000A12071EEFD8
:100ED000600512000F80F51207E47F03F11E600B1E
:100EE000900A0012023B7810120624900A001206A3
:100EF00020900A00F1341206BC900A041207B59043
:100F00000A04E0FF227F011207BCD2021207E87F29
:100F10000612062711491207E89000AEE0FF1206FC
:100F2000279000B1E06402229000870202539000F3
:100F30008702023B12023BE4020627A3F07F0F7EEA
:100F40001D22900A187408F0A3E4F022F1429000E8
:100F5000F312025F00000000E4902004F0A3F0A36D
:100F6000F0A3F07B017A2079089020011202B0E40E
:100F7000902000F0227F0F7E1D11D09000D8120229
:100F8000909000DB01CEAB07E4FF9000AAE0600781
:100F9000F1D8D16CE433FF2275FF03E4F59712100A
:100FA00021E59720E1FB75FF03AF9922E4900A1A2F
:100FB000F09000AAE0601B90008F12023BE4FBFA65
:100FC0007902F8D31202045009F1D8D1C3900A1A59
:100FD000EFF0900A1AE0FF229000A612023BEF24E5
:100FE000FFFFEE34FFFEED34FFFDEC34FFFC22E4A6
:100FF000FCFDC1C31207E87F05020627E4FFFEFDE2
:10100000FC900083120E137F0040027F012275FFC7
:10101000037597011121E59720E1FB75FF03AF9957
:101020002275FF038F9875FF0322113675FF03E5C4
:10103000D5F45402FF2275FF0375D4022275FF0315
:10104000EF543F4480F5D1E5D520E20AE5D520E014
:1010500005E5D530E1F1E5D55403FF75FF0375D5FE
:101060000580D375FF03ACD5EC20E13C75FF03EDA3
:10107000543FF5D175FF03E9F5D375FF03EA540F2B
:10108000FF9000FBE0C4547044804FF5D2E5D520BA
:10109000E205E5D530E0F6E5D55401FC75FF0343E4
:1010A000D40275FF0375D505AF042212000A12079A
:1010B0001EEF600512000F80F57F011207BCD202FF
:1010C0001207E87F061208461207E87F011206277A
:1010D0007F03120846E4FF0207BC7B017A0079B067
:1010E0007F0351E47A0079B97F0851E47A0079B638
:1010F0007D027F0951847B017A0079B47D027F0BE8
:1011000051849000B471716006BEFF16BFFF135189
:10111000F35002800451FC80099000B4E4F0A37401
:1011200040F051F3500280089000B17403F0800643
:101130009000B17402F09000B0E01202B9115904AD
:10114000116414116C15117417118A301192341135
:101150009A3611A2370000117F75FF015316EF85F3
:1011600016FD804775FF015317EF800E75FF015381
:1011700017DF800675FF0153177F8517C9802C750F
:10118000FF015318DF8518CA802175FF015319FE2E
:10119000801675FF015319EF800E75FF015319BFBB
:1011A000800675FF0153197F8519CB1208497F11FD
:1011B00051DEE4FF710612062F9000AE7402F0902B
:1011C00000B2E0247F600904701651EB740A8007B6
:1011D0001207C851EB7458F09000B17403F051FC41
:1011E0009000B3E0F4600241829000B6E0FEA3E01C
:1011F000FF64104E70069000B3740EF0EF64204E42
:1012000070069000B3740FF0EF64404E70069000CB
:10121000B37410F0EF64804E70069000B37411F058
:10122000E4B5070AEEB401069000B37412F0E4B519
:10123000070AEEB402069000B37413F0E4B5070A8F
:10124000EEB404069000B37414F0E4B5070AEEB4EB
:1012500008069000B37415F0E4B5070AEEB4100662
:101260009000B37416F0E4B5070AEEB420069000BF
:10127000B37417F0E4B5070AEEB440069000B374F7
:1012800018F001AB900A0AEFF0A3EDF0A31202B040
:10129000900A0BE06047901218E06013900A0AE091
:1012A0002410FF120F98900A0C120290EF801790F2
:1012B0000A0AE06401900A0C7007120290748080A0
:1012C0000512029074FF1200BC900A0D1204879060
:1012D0000A0BE014F0900A0AE004F080B322EF4415
:1012E00020F5FE227D0151847B01227F1051DE908A
:1012F00000AE229000B9E024FE24FD229000B474D8
:1013000001F0A3E4F022900A14EFF0E4A3F09000BF
:10131000B9E0FFB40209740F716974B9F0800CEF81
:1013200064047044743D71697479F01207E4900AA2
:1013300014E060079000B8E0FF80027FAB12062740
:10134000120849900A14E09000B8F07016900A153F
:10135000E0D39400400D7FFF120627900A15E01499
:10136000F080EAE4FF1207BC22900A15F09000B862
:1013700022E0FEA3E0FF4E229000ADE01200BC9000
:1013800000B2E09000011200CE9000B3E0900002A5
:101390000200CEAB05E4FCFD020E6C9000ED1202E3
:1013A000B0E4FCFDC0079000ED1202909000F0E068
:1013B000FF120DD8EFF0D007020761F09000ABE00C
:1013C000FFF42212000A12071EEF600512000F80C0
:1013D000F5229000AFE0FF22E49000AFF0229012DF
:1013E00018E024FF22901218E060057F10020F9889
:1013F0007FFF22902004E0FEA3E0FF24089116FD69
:10140000EF2401FFE43E541F902004F0A3EFF0A36B
:1014100012044DAF0522F58274203EF583E0229040
:101420002006E0FEA3E0FF22902000E0045403F039
:101430007F0033333354F8FEEF2408F974203EFA6A
:101440007B01A30202B0900054741DF0A3740FF04E
:10145000120DDFE490004FF012051C90006BE0FECF
:10146000A3E0FF900054E06E7003A3E06F7F006084
:10147000027FFF22EFB40109D2AD75FF0143AE40F8
:1014800022C2AD75FF0153AEBF221206C89000DC28
:10149000E4F0A3EFF022E5C85402FF75C80222E58C
:1014A000C85404FF22E5C85401FF22900A18E0FE48
:1014B000A3E0FFC3E49FFF74089EFE22120253E4E0
:1014C000FB7A08F9F890005012023B1201658F0C6C
:0114D00022F9
:1017FA00060AFFFCFFFF02184E02734D19C17FB89B
:10180A00822D1C1613111010010273715A2D576183
:10181A00766520362E313000FF026E0A676F67B593
:10182A00FF02589AEF90183793901900730A2036DE
:10183A004CE573FF22EFF573223E6440063EEC1B33
:10184A00D802451675819F75FF03759E02121920ED
:10185A0002483802319D902A5AE47E019360F4A32B
:10186A00FF543F30E509541FFEE493A360010ECFF5
:10187A0054E0B4E00EEFFAEEF9A3A3A3A3DAFDD97C
:10188A00FB80D654C025E0604B5026E493A3F8545D
:10189A0007240CC8C333C4540F4420C8834004F43B
:1018AA0056800146F6DFE480B001020408102040A9
:1018BA0080E493A3FAE493A3F8E493A3C8C582C887
:1018CA00CAC583CAF0A3C8C582C8CAC583CADFE924
:1018DA00DEE78085E493A3F8E493A34003F680014E
:1018EA00F208DFF40218631958195D197B19801977
:1018FA00851A521A57FFC0737419C0E0C082C08398
:10190A0075730AE5FF54CF4490F5FF22C07374192A
:10191A00C0E0C082C083757320E5FF54CF4490F5C0
:10192A00FF22C0737419C0E0C082C083757336E5A4
:10193A00FF54CF44A0F5FF22C0737419C0E0C082DF
:10194A00C08375734CE5FF54CF44B0F5FF229081F4
:10195A00AA21169081BE2116909012211690A0A756
:10196A00211690A0E1211690AE652116908C3621A1
:10197A001690DA27211690DA3F211690848C2116C8
:10198A0090DD772116909311211690DFF32116909E
:10199A00AD46211690A541211690E135211690E118
:1019AA0051211690E157211690E18A2116908370F1
:1019BA00211690E38D211690E410211690E4D82187
:1019CA001690AFF1211690B44D211690E5302116EC
:1019DA0090E7C7211690E7F3211690E8292116907F
:1019EA00E85F211690E8B0211690E89C211690E550
:1019FA00FB211690E618211690C88C211690E793C1
:101A0A00211690CA4E211690E8C7211690DB0421B0
:101A1A001690E578211690B15E211690D5C521164B
:101A2A0090BADE211690F071211690F0BB21169023
:101A3A00F100211690F134211690F17F211690F2CF
:101A4A00A2211690F1C6211690F2C92116908E8015
:101A5A00211690F32121169081F1211690D8B221F6
:101A6A001690F357211690F381211690AFEF2116A5
:101A7A0090F38C211690F5A5211690F44C2116901E
:101A8A00F5D4211690CCF7211690CCE2211690E9D4
:101A9A006B211690F39A211690F481211690E24850
:101AAA00211690E239211690E318211690F5E621C5
:101ABA001690F468211690F5E7211690F5AB2116D9
:101ACA0090E317211690E2B7211690F5FB211690A4
:101ADA00F3AE211690E1EB211690F62D211690E631
:101AEA00D2211690BD0C211690BBD0211690F63348
:101AFA00211690EB1C211690EAE1211690E97B2130
:101B0A001690EFCA211690E9C7211690F65C2116A5
:101B1A0090EB9C211690DFC7211690F6DB211690D8
:101B2A00D964211690F34F211690D7E8211690AD6B
:101B3A00E9211690F8BD211690C339211690FB4C65
:101B4A00211690EC1E211690FCF8211690FA7321AA
:101B5A001690FD33211690FBBF211690FD812116A8
:101B6A0090DEC0211690809721169080FB21169056
:101B7A008000211690815F211690BF9721429081A3
:101B8A00FC214290C01C214290C01F214290BC6897
:101B9A00214290C04B214290BCE22142908A772197
:101BAA004290919D21429080A221429081C021427F
:101BBA0090C09A214290C0C2214290C0E72142902F
:101BCA00C25D214290A1D32142909F27214290C415
:101BDA006F2142908F2A214290C7DD21429083EDE6
:101BEA00214290C97A214290C9BF2142908367213C
:061BFA004290CA262142C0
:101C000090CC3B214290B090214290CD0621429051
:101C1000CD70214290CD1D214290CDC0214290CF68
:101C2000E4214290828B214290D05E214290D0A24A
:101C3000214290B12C214290D4C3214290D5192148
:101C4000429087AD214290800021429080CC214279
:101C500090D520214290D6B0214290D70B214290BE
:101C6000D7DF214290BB5E214290B60E214290D830
:101C700005214290D81B214290D82C214290D8496E
:101C8000214290D87B214290CCA9214290820C2104
:101C90004290D8D9214290C8EF21429087BB21427F
:101CA00090C9CC2142908796214290D9EC21429054
:101CB000DBF42142909807214290BCE0214290E061
:101CC00086214290CC03214290CAF2214290E11831
:101CD000214290DAEF214290E196214290BA3421DC
:101CE00042909EBD214290C8852142909960214238
:101CF00090BB08214290B977214290BAF8214290D6
:101D0000BB00214290E1EA214290B9682142909EB5
:101D100034214290CE63214290CE712142909EBAEE
:101D2000214290828C214290CA1F214290CA0D21EB
:101D30004290A00A214290CA13214290BB42214204
:101D400090C8A3214290C48F214290C61621429090
:101D5000C508214290C3AE214290E245214290E263
:101D6000F1214290E32F214290E3A7214290D53206
:101D7000214290837E214290B0CD214290E7E6211E
:101D80004290CF3B214290B11B214290E954214225
:101D9000908319214290EA44214290EA84214290A2
:101DA000A92C214290D6E7214290D0DD214290AB70
:101DB0001A214290D49D214290EB35214290A7C038
:101DC000214290EB70214290903B2142908FF9216B
:101DD00042908E632142908C31214290CE992142D3
:101DE00090918A2142908310214290DB3F214290C2
:101DF00091512142908C37214290AAA0212C90AA87
:101E0000A1212C90909D212C90ADAF212C90ADB7AD
:101E1000212C909EB3212C90AF7C212C90B75B217C
:101E20002C90B7E8212C90B7FF212C90C1A5212C34
:101E300090C1BE212C90909A212C909EB0212C9084
:101E40008F21212C90C7A1212C90C9A7212C90D0A3
:101E50004A212C90831F212C90D29F212C90D2219B
:101E6000212C90D58A212C90D0E5212C90AC892171
:101E70002C90DF1D212C90D633212C90AFD5212C16
:101E800090DFFD212C90E0AD212C90E10B212C90D6
:101E900082FD212C90CF9D212C90E1E8212C90B344
:101EA0005F212C90EBE1212C90EC72212C90ECAE78
:101EB000212C90ADA1212C90ADA5212C90ED462197
:101EC0002C90ED6A212C90E336212C90E212212CEB
:101ED00090EECE212C90EEEC212C908292212C9031
:101EE0008097212C90A84E212C9099DF212C00E77F
:101EF00009F608DFFA8046E709F208DFFA803E8833
:101F0000828C83E709F0A3DFFA8032E309F608DF69
:101F1000FA8078E309F208DFFA807088828C83E324
:101F200009F0A3DFFA806489828A83E0A3F608DFE0
:101F3000FA805889828A83E0A3F208DFFA804C8015
:101F4000D280FA80C680D4806980F280338010808D
:101F5000A680EA809A80A880DA80E280CA803389ED
:101F6000828A83ECFAE493A3C8C582C8CCC583CC2B
:101F7000F0A3C8C582C8CCC583CCDFE9DEE7800DFD
:101F800089828A83E493A3F608DFF9ECFAA9F0EDDD
:101F9000FB2289828A83ECFAE0A3C8C582C8CCC53B
:101FA00083CCF0A3C8C582C8CCC583CCDFEADEE809
:101FB00080DB89828A83E493A3F208DFF980CC88EE
:101FC000F0EF60010E4E60C388F0ED2402B404000F
:101FD00050B9F582EB2402B4040050AF23234582AC
:101FE00023901F3F73BB010689828A83E02250023F
:101FF000E722BBFE02E32289828A83E49322BB01AB
:102000000B89828A83F8E0C828F0E822500327C7AA
:1020100022BBFE07F8E3C828F3E8228A838982E41A
:102020009322BB010CE58229F582E5833AF583E032
:10203000225006E92582F8E622BBFE06E92582F851
:10204000E222E58229F582E5833AF583E49322BB17
:10205000010989828A83F8E028F022500327F722B9
:10206000BBFE05F8E328F3228A838982F8E49328EB
:1020700022BB010FF8E58229F582E5833AF583E07A
:1020800028F0225009C58229F8E58226F622BBFEF7
:1020900009C58229F8E22582F222F8EA2583F58330
:1020A000E9932822BB010689828A83F0225002F735
:1020B00022BBFE01F322F8BB010DE58229F582E582
:1020C000833AF583E8F0225006E92582C8F622BB60
:1020D000FE05E92582C8F222EF8DF0A4A8F0CF8C8E
:1020E000F0A428CE8DF0A42EFE22BC000BBE002949
:1020F000EF8DF084FFADF022E4CCF875F008EF2FFF
:10210000FFEE33FEEC33FCEE9DEC984005FCEE9DBB
:10211000FE0FD5F0E9E4CEFD22EDF8F5F0EE8420D7
:10212000D21CFEADF075F008EF2FFFED33FD400738
:10213000985006D5F0F222C398FD0FD5F0EA22C2DE
:10214000D5EC30E709B2D5E4C39DFDE49CFCEE304C
:10215000E715B2D5E4C39FFFE49EFE1220EAC3E474
:102160009DFDE49CFC80031220EA30D507C3E49F68
:10217000FFE49EFE22C5F0F8A3E028F0C5F0F8E5E4
:1021800082158270021583E038F022A3F8E0C5F0D2
:1021900025F0F0E582158270021583E0C838F0E87A
:1021A00022BB010A89828A83E0F5F0A3E02250066F
:1021B00087F009E71922BBFE07E3F5F009E31922CE
:1021C00089828A83E493F5F074019322BB0110E5C0
:1021D0008229F582E5833AF583E0F5F0A3E0225009
:1021E00009E92582F886F008E622BBFE0AE9258285
:1021F000F8E2F5F008E222E5832AF583E993F5F0A9
:10220000A3E99322BB010DC58229C582C5833AC5C6
:10221000830221755011C58229F808E5F026F618C9
:10222000F5F0E58236F622BBFE11C58229F808E2F8
:1022300025F0F5F0F218E23582F222F8E58229F570
:1022400082E5832AF58374019325F0F5F0E4933851
:1022500022BB010A89828A83F0E5F0A3F0225006AE
:10226000F709A7F01922BBFE06F3E5F009F31922DE
:10227000F8BB0111E58229F582E5833AF583E8F0A0
:10228000E5F0A3F0225009E92582C8F608A6F0225D
:10229000BBFE09E92582C8F2E5F008F222EF2BFF28
:1022A000EE3AFEED39FDEC38FC22C3EF9BFFEE9ACF
:1022B000FEED99FDEC98FC22E88FF0A4CC8BF0A405
:1022C0002CFCE98EF0A42CFC8AF0EDA42CFCEA8E08
:1022D000F0A4CDA8F08BF0A42DCC3825F0FDE98F2B
:1022E000F0A42CCD35F0FCEB8EF0A4FEA9F0EB8F22
:1022F000F0A4CFC5F02ECD39FEE43CFCEAA42DCEEF
:1023000035F0FDE43CFC2275F008758200EF2FFFEC
:10231000EE33FECD33CDCC33CCC58233C5829BEDBD
:102320009AEC99E58298400CF582EE9BFEED9AFDC1
:10233000EC99FC0FD5F0D6E4CEFBE4CDFAE4CCF971
:10234000A88222B800C1B90059BA002DEC8BF084E4
:10235000CFCECDFCE5F0CBF97818EF2FFFEE33FEB2
:10236000ED33FDEC33FCEB33FB10D703994004EB6A
:1023700099FB0FD8E5E4F9FA227818EF2FFFEE3336
:10238000FEED33FDEC33FCC933C910D7059BE99A48
:102390004007EC9BFCE99AF90FD8E0E4C9FAE4CCD9
:1023A000FB2275F010EF2FFFEE33FEED33FDCC3343
:1023B000CCC833C810D7079BEC9AE899400AED9B2C
:1023C000FDEC9AFCE899F80FD5F0DAE4CDFBE4CC0B
:1023D000FAE4C8F922EF5BFFEE5AFEED59FDEC5826
:1023E000FC22C3E49FFFE49EFEE49DFDE49CFC22EE
:1023F000EB9FF5F0EA9E42F0E99D42F0EC6480C864
:1024000064809845F022EB9FF5F0EA9E42F0E99D4A
:1024100042F0E89C45F022E8600FECC313FCED139A
:10242000FDEE13FEEF13FFD8F122E8600FEFC33388
:10243000FFEE33FEED33FDEC33FCD8F122BB010798
:1024400089828A830224CB5005E9F80229AABBFEBF
:1024500005E9F80229B689828A830224D7BB010DD7
:10246000E58229F582E5833AF5830224CB5007E91A
:102470002582F80229AABBFE07E92582F80229B6BF
:10248000E58229F582E5833AF5830224D7BB01076B
:1024900089828A830225585005E9F80229ECBBFE9F
:1024A00005E9F80229F822BB010DE58229F582E54C
:1024B000833AF5830225585007E92582F80229EC72
:1024C000BBFE07E92582F80229F822E0FCA3E0FD23
:1024D000A3E0FEA3E0FF22E493FC740193FD7402E9
:1024E00093FE740393FF22E0F8A3E0F9A3E0FAA3BC
:1024F000E0FB22BB010DE58229F582E5833AF583F5
:102500000224E75007E92582F80229C2BBFE07E949
:102510002582F80229CFE58229F582E5833AF58301
:102520000229DC7401FF3395E0FEFDFCA3A3A3E0C8
:102530002FFFF0E582158270021583E03EFEF0E584
:1025400082158270021583E03DFDF0E582158270F0
:10255000021583E03CFCF022ECF0A3EDF0A3EEF0DA
:10256000A3EFF022A8828583F0D083D08212257B4E
:1025700012257B12257B12257BE473E493A3C5838C
:10258000C5F0C583C8C582C8F0A3C583C5F0C5839F
:10259000C8C582C822BB010789828A83022564508C
:1025A00005E9F8022A04BBFE05E9F8022A1D22BB50
:1025B000010DE58229F582E5833AF5830225645011
:1025C00007E92582F8022A04BBFE07E92582F80202
:1025D0002A1D22F5F0C582A4C582C5F0C583A425B5
:1025E00083F58322A42582F582E5F03583F58322E5
:1025F000E0FBA3E0FAA3E0F922F8E0FBA3A3E0F9F3
:1026000025F0F0E582158270021583E0FA38F02299
:10261000EBF0A3EAF0A3E9F022E493FB740193FA50
:10262000740293F922BB010789828A830225F05044
:1026300005E9F8022A36BBFE05E9F8022A48898234
:102640008A83022619BB011A89828A83D0F0D0E0DE
:10265000F8D0E0F9D0E0FAD0E0FBE8C0E0C0F0024A
:1026600026105016E9F8D083D082D0E0F9D0E0FAF5
:10267000D0E0FBC082C083022A3FBBFE16E9F8D03F
:1026800083D082D0E0F9D0E0FAD0E0FBC082C083F2
:10269000022A5122BB010DE58229F582E5833AF534
:1026A000830225F05007E92582F8022A36BBFE078F
:1026B000E92582F8022A48E58229F582E5833AF580
:1026C00083022619BB0120E58229F582E5833AF5CC
:1026D00083D0F0D0E0F8D0E0F9D0E0FAD0E0FBE829
:1026E000C0E0C0F00226105018E92582F8D083D04F
:1026F00082D0E0F9D0E0FAD0E0FBC082C083022AA9
:102700003FBBFE18E92582F8D083D082D0E0F9D013
:10271000E0FAD0E0FBC082C083022A5122D083D0ED
:1027200082F8E4937012740193700DA3A393F8746C
:102730000193F5828883E4737402936860EFA3A326
:10274000A380DFD083D082E4937012740193700D64
:10275000A3A393F8740193F5828883E473740293BE
:102760006C70127403936D700C7404936E70067425
:1027700005936F60DDA3A3A3A3A3A380CA8A838963
:1027800082E473E56F2582F582E56E3583F583B5C6
:102790006E0485826F2210AF0685826FF56E2285EA
:1027A000826FF56ED2AF22EC8EF0A4CCC5F0CCCD0A
:1027B000F8EFA4CEC5F02DFDE43CFCE8A42EC8C57E
:1027C000F03DFDE43CFCEFA4FFE5F028FEE43DFD18
:1027D000E43CFC22E3F5F009E208B5F06BDFF5809C
:1027E00067E3F5F009E608B5F05EDFF5805A87F09B
:1027F00009E608B5F052DFF6804E87F009E208B529
:10280000F046DFF6804288828C8387F009E0A3B52A
:10281000F036DFF6803288828C8387F009E493A358
:10282000B5F025DFF5802188828C83E3F5F009E09F
:10283000A3B5F014DFF5801088828C83E3F5F009EE
:10284000E493A3B5F002DFF4022903808780E980D6
:102850009080D4803E8015806E807E809D80B78081
:102860008D80A380518074803C02290F89828A83E5
:10287000ECFAE493F5F0A3C8C582C8CCC583CCE4D8
:1028800093A3C8C582C8CCC583CCB5F076DFE3DEA0
:10289000E1807089828A83E493F5F0A3E208B5F0C1
:1028A00062DFF4805E89828A83E0F5F0A3E608B5F2
:1028B000F051DFF5804D89828A83E0F5F0A3E208CC
:1028C000B5F040DFF5803C89828A83E493F5F0A37C
:1028D000E608B5F02EDFF4802A8002805789828ACC
:1028E00083ECFAE493F5F0A3C8C582C8CCC583CCC9
:1028F000E0A3C8C582C8CCC583CCB5F006DFE4DE52
:10290000E280007FFFB5F0020F2240027F012289A2
:10291000828A83ECFAE0F5F0A3C8C582C8CCC583EF
:10292000CCE0A3C8C582C8CCC583CCB5F0D5DFE563
:10293000DEE380CF89828A83ECFAE0F5F0A3C8C594
:1029400082C8CCC583CCE493A3C8C582C8CCC58358
:10295000CCB5F0AFDFE4DEE280A988F0EF60010ED5
:102960004E60ABED2402B404005098F582EB2402D3
:10297000B40400508E232345822390284B73EF4EDE
:102980006012EF60010EEDBB010B89828A83F0A318
:10299000DFFCDEFA2289F05007F709DFFCA9F022FC
:1029A000BBFEFCF309DFFCA9F022E6FC08E6FD080B
:1029B000E6FE08E6FF22E2FC08E2FD08E2FE08E28D
:1029C000FF22E6FB08E6F908E6FA08E6CBF822E281
:1029D000FB08E2F908E2FA08E2CBF822E493F87483
:1029E0000193F9740293FA740393FB22ECF608ED59
:1029F000F608EEF608EFF622ECF208EDF208EEF239
:102A000008EFF222D083D082E493F608740193F6A3
:102A100008740293F608740393F6740473D083D099
:102A200082E493F208740193F208740293F208743A
:102A30000393F2740473E6FB08E6FA08E6F922EB66
:102A4000F608EAF608E9F622E2FB08E2FA08E2F9FB
:102A500022EBF208EAF208E9F2224107740041078A
:102A60007300E00202000014F6E002020002120FFE
:102A7000E00102000954E00102000AA5E00102128F
:102A80000B00E00502120C120F02060A410A4D0665
:102A9000011300410A4C01410A4A01C11501180005
:102AA000011600C12E4140EF004140E4004140EDDD
:102AB000004140EE004140EBFF413F9C00C118C186
:102AC00008412EE100412F6FFF412F6600C10641F2
:102AD0002F7000412F7100412F6701C10B412EE083
:102AE0000041479F00C13A433CEF000000413CEEEB
:102AF00000413CF2004303E70000004303E401030C
:102B0000E742314298074344C00000004344BD01FE
:102B100044C0E00202121101B0E00102121300E011
:102B20000102129400E0050213BC01B006060A413E
:102B300046B5024146B40D4146B608602037F24220
:102B4000DB010000000000000000000000000000A9
:102B50000000000000000000000000000000006015
:102B600020381209000000000000000000000000F2
:102B70000000000000000000000000000000000055
:102B8000000000503B610000000000000000000059
:102B9000000000000000C10F015000C10CC10D4138
:102BA000462205C119C11BC11E42238C98404123F6
:102BB0008E00433865000000423863000060202327
:102BC0004B000000000000000000000000000000BA
:102BD00000000000000000000000000000000000F5
:102BE000004320009F01005020030000000000006F
:102BF000000000000000000000016127260E000216
:102C000001050101020E060101000407040102038F
:102C10000000040006080504020803140400040070
:102C2000140501080908050208031405000400142E
:102C300005000600140802020A0A0802030100083F
:102C400000040014080006001408010800140A0219
:102C50000D000A0A020C000A0A02080B0A0A010502
:102C60000C0E0A000400140A000600140A010800F1
:102C7000140E000A0D110E020804140E00040014B4
:102C80000E000600140E010800140E010500140EBB
:102C9000020F0E1211000C0C0E1102080414110088
:102CA000040014110006001411010800141101059C
:102CB000001411000A00141102050E121202080479
:102CC0001412020C0F00120004001412000600146B
:102CD0001201080014120105001412000A00141257
:102CE0000205001412000C001413020C0100000273
:102CF0000900000002100000140209010014020B78
:102D00000013140007100014020A0100140204004A
:102D10001414020C001414020D010014020E00140D
:102D200014021001006024281E0200FFFF0602FFAB
:102D3000000602FF000301FF002300FFFF03000065
:102D40000013000000020001010300000046277587
:102D50000100020104024227FB1D7C412882004140
:102D60002A300141288800432885012843432879D7
:102D7000012843410C460060200ABBEDFFFFFFFF26
:102D8000FFFFFFFFFFFFFFFFFFFFFFFFFFFFFFFF53
:102D9000FFFFFFFFFFFFFFFFFFFF7F4F2B91FF3381
:102DA0003211FF334305FF33480C031004602A2B14
:102DB000601001FF335407FF335B04FF335F0510DE
:102DC00001FF335407FF335B04FF335F051101FF3D
:102DD000336407FF336B04FF336F05432B8A030013
:102DE00000442B5B71055A01422A3A7105608A2A18
:102DF000C871087105616C61726D20455020310009
:102E000000000000000000000000000000000000C2
:102E10000000000000000000000000000000007141
:102E2000087105616C61726D204550203200000010
:102E30000000000000000000000000000000000092
:102E40000000000000000000000000000071087198
:102E500005616C61726D2045502033000000000058
:102E60000000000000000000000000000000000062
:102E70000000000000000000000000602E2A3D71EC
:102E8000087105616C61726D2045502031000000B1
:102E90000000000000000000000000000000000032
:102EA00000000000000000000000000000602E2A6A
:102EB0006B71087105616C61726D204550203200A4
:102EC0000000000000000000000000000000000002
:102ED0000000000000000000000000000000006092
:102EE0002E2A9971087105616C61726D2045502020
:102EF000330000000000000000000000000000009F
:102F000000000000000000000000000000000000C1
:102F1000004C2BA007000700070007000600060072
:102F2000412BAE00412B5F70412A3201412A31FF13
:102F3000C13F412A3C00492B520201020302020414
:102F40000302412AC703412BAC08E0020213C1016E
:102F500021E0030214D9FFFFFFE0050214DD012187
:102F6000040405E0020214E20013E00C0214E40081
:102F700000030B0003000B0405060AE0050214F031
:102F80000013FF0405E0020214F50000433FB30004
:102F90000000423FBA0000443FB607102232463FCD
:102FA000AD40464A4E5256C120413BC200413BBF54
:102FB00000424718000041471700C146432CF20069
:102FC0000000412BAF00412D2401423C9E000041F6
:102FD0003C950045420A0000000000454205000003
:102FE0000000004141930041418F0041418900416F
:102FF00041920041418A004142AC004142AB004451
:10300000466800000000C14F4139FE00413BFA0014
:103010005B3BDE000000000000000000000000003C
:103020000000000000000000000000000000413B24
:10303000DDFFC1534139FD00503958000000000048
:103040000000000000000000000000453968000199
:103050000204804739780000000000000043397501
:10306000000000414151004141570041415600429A
:103070004152000041415B0041415A004241580029
:1030800000424154000041415000413AF400C1580F
:103090004C415C100000000000110000000000C165
:1030A0005B410AF720C15D0072657365740063734C
:1030B0006100476F7420697421006C6D73006C6D42
:1030C0006500776472005A57005A57206170703A51
:1030D0000D0A00204669726D776172652049443A95
:1030E00020000D0A2056657273696F6E3A200054F5
:1030F00079706520276120637361203C3130206442
:1031000069676974206B65793E2720616E64207061
:103110007265737320456E7465722E003E20001E2A
:103120004E1E53C2D5E830E70FB2D5E4C39BFBE493
:103130009AFAE499F9E498F8EC30E717B2D512312D
:1031400059122343E4C39BFBE49AFAE499F9E49807
:10315000F8800312234330D50DE4C39FFFE49EFEA5
:10316000E49DFDE49CFC22789FE4F6D8FD900000ED
:103170007F007E10E4F0A3DFFCDEFA9047D7A3E5E2
:1031800083C394204011FEAF829020000E0FE48094
:1031900002F0A3DFFCDEFA12192002186022325A74
:1031A00043425F746573745F696E746572666163D0
:1031B000655F706F6C6C000D0A4368616E6E656CC4
:1031C00073206172653A000D0A09203E001EE94134
:1031D000707045765363686564756C657200AFCA3C
:1031E0001E8000000100000000170600000000180B
:1031F0000600000006180600000001180600000086
:10320000081806000000010101000000011500007F
:103210000000010204000000010B04000000060B86
:1032200004000000080B04000000010D0000000075
:10323000010E04000000011000000000010F00005A
:103240000000040501000000040606000000040759
:103250000800000002050000000003050100000056
:10326000010805000000000800000000010C01003A
:103270000000011205000000080302000000012206
:103280000000000008160800000008080000000008
:1032900001160100000006160100000005090300E8
:1032A0000000050A000000000503020000000504FC
:1032B00000000000061B06000000011B06000000C5
:1032C000061C07000000061D070000000705080097
:1032D0000000081E07000000082000000000081F72
:1032E0000000000008210000000008110600000096
:1032F0000111060000000822000000000619060067
:103300000000061E00000000062000000000061A53
:10331000080000000614010000000714010000006E
:10332000081B06000000072400000000081401002C
:1033300000005E2526858E59715586725A73989FB6
:10334000606C7A5E6C55989F86252671858E5960D3
:10335000725A737A5E2585598E716C5E6C989F25C2
:1033600085598E715E2685598E716C5E6C989F268C
:1033700085598E7100011E1C1E211E261E2B1E301B
:103380001E441E4955555555555555555555555578
:103390005555553333333333333333333333333397
:1033A000333333888888888888888888888888889C
:1033B00088883F241E16110E0B090705040302011D
:1033C000F0C8A79177676046383532302422201440
:1033D00000010102020303040405050606070700B5
:1033E00000000000000000000000000000000000DD
:1033F00000000000000000000000000000008788BE
:103400008888888888888888888888888888262600
:103410002626262626262626262626262626000E8A
:103420000D44000E1064000E15DC020202063F3F40
:103430003F04040440404005320FA04C6966656CAF
:10344000696E6500496E76616C69642067726F759C
:10345000700019DA19DF19E419E919F31A071A0CBF
:103460001A111D951D9F1DA41DA91DAE1DB31DB8CC
:103470001DC21C5F1C6E1C731C781C7D1EA31EA825
:103480001EAD1EB21EB71A9D1AA21AD91CAF1CB9C6
:103490001CD21E581E5D1E621E851E8A1E8F1CD7E2
:1034A0001CDC1E941E991EBC1EC11EC61ECB1ED047
:1034B0001ED5FF02011BEC1D8B5A01200325031EA4
:1034C0009E5A7FE4FD7C0CAB050DEB901816938F94
:1034D000828E83F00FBF00010EDCEC7F03228F820F
:1034E0008E83E4F0A37406F0B102740AF0B102A373
:1034F000E4F0EF2404F582E43EF583E4F0A3746D78
:10350000F0228F828E83A3A322AD07901217E0547E
:10351000FCF0E0FFED54307E0060027E02EF4E9042
:103520001217F0E0FFED7E0030E0027E01EF4E90DA
:103530001217F02290077C7402F0900773E0FF12DC
:103540001E03B10990077C7405F02290077AE0FF12
:10355000121E0D90077FEFF02290077FE07F007032
:10356000027F0122E490077AF02290077A7401F03A
:103570002290077A7402F022B17F70027F012290BC
:10358000077AE07F0022B17FB401027F0122B17F80
:10359000B402027F0122126EFC121A5C121B2E1260
:1035A00019A3121C5AF1E37002C17D7FFF121AE8C1
:1035B000900B811226107E007F09D1DCBF540D7E56
:1035C000007F0AD1DCBFA5047F0180027F00900745
:1035D00073EFF0900B811225F0E94A4B701D7F04C8
:1035E000FED1DCEF2401FFE433FEC3740112625309
:1035F0007F0050027F01900773EFF0900773E06443
:10360000017050900B811225F012770B7A0B79879D
:103610001270DE900B87E0FEA3E0FF900B81127624
:1036200073F9E43AFA900B84122610E92408F9E4BD
:103630003AFEAF017B017A0B79871270DE900B871F
:10364000E064047004A3E064056008121AED9007BA
:1036500073EFF0900773E0701C7E007F04C006C318
:1036600074F69404FE74141274A0D0061278BBE4AD
:10367000FFFE121AF2900773E0FF121B15F1E37FB1
:103680000060027F01121A1B121A2512196C1267B0
:10369000551275607A127922121B921250CCFE4F8D
:1036A000FDA3E0FC4DFDA3E0FB4D600BEE5FFFECE6
:1036B0005FFFEB5FF470031250D4901220E0FF9094
:1036C0001224E06F90076EF0021C28E075F002A44F
:1036D0002485F9740F35F07B02FEAF01E4FCFD9008
:1036E000455812255812386A123AC9EF6005123D42
:1036F0000480F5F1F07F03123E5A600A904558129B
:1037000024CB7810F124904558F11F904558F1DDF5
:10371000F1BE90455CEFF0F1CC90455CE0FF2212E9
:1037200024CB7808122417E4E5C820E2FB8FEB22B3
:103730007F01F1D19047987401F0904798E0603193
:10374000F1EAF1BE904798EFF0123A4EF1AD903F9A
:1037500090EFF0123A4E904798E054011278C3600F
:10376000D9A3E0F460D4EF30E7D0E4904798F0803C
:10377000C9F1F47F9FF128F1BE903F91F1BC903FD9
:1037800096F1BC903F97EFF0F1CC903F8FE0F46062
:103790001BA3E0F46016903F96E0FD541F240FA396
:1037A000F0EDC41354074480903F96F022F1F47F6B
:1037B000D7F1287FFFF128F1C2903F8FEFF07FFF14
:1037C000F128E5C820E2FBAFEB22F128123A4EE4E3
:1037D000FFEFB4010443FE202253FEDF221224CB6C
:1037E000E4E128900775E0640122F1F47F05E12807
:1037F0007F01F1D1903F94E012271D381704381F44
:1038000014382415382917383930383E34384336BF
:1038100038483700003831536AEF856A80802F536B
:103820006BEF8008536BDF8003536B7F856B908059
:103830001D536CDF856CA08015536DFE800D536D9C
:10384000EF8008536DBF8003536D7F856DB07F0C93
:10385000DFFE2275FF0275E40475E40175E40222BF
:1038600075FF0275E404E4F5E42275FF02E5E43037
:10387000E10675E40675E403227E127F0BE4FD3158
:1038800081116A51C9EF6004B10480F72290479515
:10389000EFF0C22E901220E060207E127F0B1236D5
:1038A000DCBF01087FFF121E177F00229040EAE074
:1038B0006008901220E0FF121E171179904795E0E2
:1038C00070022144E49040EEF09040EAE060023162
:1038D000D9904795E0FFB401079040EE740180094C
:1038E000EFB403109040EE7402F031639040EC743A
:1038F00004F08048EF64047035901220E0701ED20E
:103900002EF1DFEF700F31631267C57E127F0B7DE2
:1039100001318111819040EA7404F080399007757B
:10392000E0B40505E4F0121BFB31637F00229047F1
:1039300095E0640270209040ECF031639040EA74AE
:1039400002F08012E49040EEF0F1DFEF60021179B6
:103950009040EA7401F031DC9040EAE07F006002C0
:103960007F0122901217E05403F022E075F002A4C8
:103970002484F9740F35F07B02FEAF01902F68E0CC
:10398000FDAB05E4FCFD904561EBF090455D122533
:103990005890455D1224CB1236DF904561E06F6090
:1039A00036116A51C9EF6004B10480F7D141600B50
:1039B00090455D1224CB781012372490455D123764
:1039C0001F90455D1237DD904561E0FF1237CA90C8
:1039D0003F937401F0D322C3227401F09040EAE0D7
:1039E000640270227C3E7D647F01121A16E4FBFAA9
:1039F000FD7FFF121A027E3E7FECC006C007F1F386
:103A0000D007D006E18A9040EAE064037018FFFE18
:103A100012410A9040EEE07C3E7D64B402047F03D4
:103A200080117F02800D9040EAE0B4040B7C3E7D63
:103A3000647F04121A16C1EC9040EAE0B4010BF165
:103A4000D0F1933163E49040EAF022123728F1ED8F
:103A5000EF70FB903F96E0F4600A9047977406F091
:103A6000F1D770FC903F94E012271D3A87043A8FFB
:103A7000143A94153A99173AA9303AAE343AB33613
:103A80003AB83700003AA1436A10856A80802F4314
:103A90006B108008436B208003436B80856B9080A4
:103AA0001D436C20856CA08015436D01800D436D16
:103AB000108008436D408003436D80856DB0904752
:103AC00097740CF0F1D770FC227F011237D1303897
:103AD000161237EA1237BE904799EFF0514E9047D1
:103AE00099E020E002C2383038191237AD903F908B
:103AF000EF1278C3600BA3E0F46006EF30E702C278
:103B000038514EE4FF1237D1A238E433FF22116A54
:103B100051C9EF6004B10480F77F011237D1D23868
:103B20001237F47F06514B1237F47F011237287F8A
:103B300003514BE4FF0237D190422D122558904299
:103B400031122610116A51C9EF6004B10480F7D117
:103B500041600B90422D1224CB78101237249042F2
:103B60002D12371F90422D1224CBE4802390423433
:103B7000F1C945F0601F9042311225F0E94A600E0C
:103B8000121FE5FF123728904232D11380DFE4FF85
:103B900012372880D81237CC903F937401F02290CE
:103BA0003FDA122558903FDE122610903FDA122499
:103BB000CB903F99E024FFFD903F98E034FF5EFEFC
:103BC000ED5F903FE31275BF4E605DD11AC3127670
:103BD000E6903FE3F0A3EFF0903FE1E0FCA3E0FDCF
:103BE000D39FEC9E50031275B891CA1271B560282C
:103BF000B1E3C004C005C006C00791CAE94A600528
:103C0000B1D6FF80027F007E0091CA1275A0D00756
:103C1000D006D005D004713891A3E94A6004D11AC6
:103C200080747E007F00806E903FE1E0FEA3E0FFA5
:103C30004E606E903F98E0FCA3E0FDD3EF9DEE9CBC
:103C4000400A903FE3ECF0A3EDF0800D903FE1E0FF
:103C5000FFA3E0A3CFF0A3EFF091CA1271B56028E3
:103C6000B1E3C004C005C006C00791CAE94A6005B7
:103C7000B1D6FF80027F007E0091CA1275A0D007E6
:103C8000D006D005D004713891A3E94A6004D11A56
:103C900080047E007F00903FDFEE8FF01221758060
:103CA00087D322903FE3E0FEA3E0FFC3903FE2E032
:103CB0009FF0903FE1E09EF0903FDA1224E7E4FCB1
:103CC000FD12229D903FDA122558903FDE0225F02A
:103CD000EFF4045FFFE4FEEF70037FFF22EFD39465
:103CE0000F4009EFC4540FFFEE4404FEEFD39403DA
:103CF000400AEF1313543FFFEE4402FEEF30E101A0
:103D00000EAF0622E51430E20FE51420E50AE514B3
:103D100030E0057F011244A72290423612255890C8
:103D2000423A122610116A51C9EF6004B10480F7BB
:103D30001237F07F03D15A600B9042361224CB78B1
:103D40001012372490423612371F9042361237DD58
:103D500090423DF1C945F060141237BE90423A12CC
:103D600025F0EF1220A490423BD11380E3514EE4A2
:103D7000FF0237D1AB07AA06EB241FFFE43AFEEFA0
:103D80007805CEC313CE13D8F9F9EB541F90479A98
:103D9000F0AF05B1DBFCAF0591D5AE01EE14C39FCA
:103DA000C43354E0F9AF04C3EB9FFFEA9400FEE98B
:103DB000FDC3EF9DFFEE9400FEED600FE0FD600798
:103DC000C374209DFD80067D0080027D007C00EF95
:103DD0002DFFEC3EFE22903FE7E0FF91D0EFC43391
:103DE00054E022903FE3E0FEA3E0FF903FE7E0FDD8
:103DF000B174903FE5EEF0A3EFF0A3E0FF91D0EFB8
:103E000075F020A4FFAEF0E4FCFD903FDA1224E749
:103E100002229DE475F001022175903FE3E0FEA3CC
:103E2000E0FF227402F0904409122610E4FCFDC069
:103E3000079044091225F090440C12773AD007619C
:103E40009F7F011237D1D2381237F47F06123728FC
:103E5000514E1237F4903F92E0FF123728903F9571
:103E6000E0640222904751EFF0A3EDF0F193904708
:103E700051E0B40112A3E09040EBF031639040EACE
:103E80007405F07FFE805E904751E06402702290DE
:103E900040EEE0640270549040E5F09040EA740314
:103EA000F07E3E7FECC006C007F1F3D007D006E1FC
:103EB0008A904751E07034121A7FEF640160293014
:103EC0002E14121E3AEF600C121A7FEF6006904714
:103ED0005274FFF0C22E11799040EAE0600231D9AD
:103EE000904752E0FF021E17121A8922F193904068
:103EF000EAE0B4020AF1D09040EA7403F021DC90C9
:103F000040EAE06403706A9040ECE060579040EE55
:103F1000E0B40105121C00800A9040EEE0B40203F8
:103F2000121C059040ECE014F0E060201257F3EF13
:103F300075F04684E5F075F064A4FFEF24A0FFE57A
:103F4000F0340FFEE433FDE433FC8007E47FA07E11
:103F50000FFDFC9042FD1225587E3E7FECE490431D
:103F600001F080269040EA7401F031DC7FFD021EF2
:103F7000179040EAE0B404111267BDEF60081274B4
:103F8000A9E4FF024006121C0022124F3D9040EFB0
:103F9000EFF0229040EFE0FFF1A0E49040EFF0223C
:103FA000AB07E4FF1BEBC3940E501D124FF112251B
:103FB0006400000000EB124D501225640000000068
:103FC000EB124EACE4F07F012274FFF5F002218B7E
:103FD000E4FDFCFF021A16904797E014F0E02290EF
:103FE0001217E07F0030E2027F012280B3E5C8545F
:103FF00004FF22E47FD07E07FDFC9042FD1225588D
:10400000E4904301F0221267CDEF70087FA07E0F8D
:10401000FDFC01A91268179040E5EFF07406D39FEC
:104020004069E0605B1257FE7E009040E5E014FDC1
:10403000E5F0A805088005C333CE33CED8F9FFF1EB
:10404000EA310C9040E61224E7C000C001C002C073
:10405000039040E5E014FF74107E00A80708800577
:10406000C333CE33CED8F9FFEE3395E0FDFC3118E3
:104070001222B8D003D002D001D00012229D802994
:104080001257FEAFF07E00F1EA801E9040EDE0FF97
:10409000600FE4FCFDFEFB7AF47901F81222B8808F
:1040A000087F007ED07D077C00310C1267EA7E3EDF
:1040B0007FECC006C0073104123FFAD007D00612C9
:1040C0003F8A1267DEEF703B3112D312240640079D
:1040D000E47F01FEFD80233112122343310C3104B1
:1040E000E47B01124FEA50143104C3EF9401FFEE58
:1040F0009400FEED9400FDEC9400310B3104121C91
:1041000019F1FB229040E60224CBFDFC9040E60230
:1041100025589040E61224CBE47BE87A03F9F82294
:10412000904498E024FC70024132147002412B1438
:104130007002411B147002415124066002416BE57C
:10414000136002416BC2EB516C1219AD90474FEFF7
:10415000F0E51430E0024118126A7260047F0191A8
:10416000A790474F7A4779501269894004D2EB8172
:104170009490474FE0F1F1E0FF904750E0D39F402B
:1041800002E191904497E0640F702790474FE0FF61
:10419000516CE924B9517BFD516C124E0790475088
:1041A000EFF0E0FF7005D2EBD20022EFB40203D2B1
:1041B000EB22F1CE516CE924E2517BFF90449491C3
:1041C0006BFDACF0E4FB1265A0C22990474FE09074
:1041D0000C0CF0E4FFFE12625C503AD2EB90449873
:1041E0007402F01265EF7E00E4FCFD7BD07A127958
:1041F00013F81222B83118123123AB07AA069047E0
:104200004FE0FF7D031266537E677F6F7D147C0055
:104210001219678003D2EB22D2EB22E51420E52AA3
:10422000E51430E0257F0191A7801F904498740128
:10423000F022516CE924EF517B600774FF12204F8C
:104240007008121962516C021A759044987403F048
:10425000221265C1D200516CF1DE1274A99044940F
:10426000122610E4904498F0121976229044940299
:1042700025F0900BDB1225F0E924E1F9E43AFA028B
:104280001FE5900BDB122610D22AC2EBE513600269
:104290008153E51430E202C322916024ECF9E41268
:1042A000752012654AA2ED9213C2ED9168546060C8
:1042B00033900BDB917E517B20E129904498E064A0
:1042C000046021904497740FF091789044941226E2
:1042D000101274A9F1DE9044987405F03120A213F5
:1042E00092EDD3229178121FE5540FFFBF0111E91F
:1042F00024ED517B700A901221E0900BDEF0800AD1
:1043000091781219AD900BDEEFF0E51420E05F120A
:104310005BE240047F0191A7900BDE7A0B79DF12FC
:104320006989E433915F24EDF9E43AFA74011220CB
:104330004FEF70028034900BDEE0FFF1F1E0FE9071
:104340000BDFE0D39E4004F191C322916024B95168
:104350007BFD9178124E07900BDFEFF0E0FF7006C7
:10436000D2EBD200813FEFB40204D2EB813F9168DF
:104370005460600F900BDB917E517B20E105E4904F
:104380004498F0125BE25004C236F149F19CE5D149
:1043900020E0FBE4F510C21491602408F9E43ACF60
:1043A000E9CFF5118F12916024B1517BF515AE1153
:1043B0001272DB916024B1517BFF51722FFFE43305
:1043C000FE1277DFFE916024B9517BD31262535005
:1043D00005740112204F916024B2F9E43A8B1AF56A
:1043E0001B891C5172F51D91685407900A4CF07599
:1043F0001308916024B2F9E43AFA1272CF5172FFB5
:10440000AD151272FA7B01E4FDFF127271E4F5FF43
:10441000E5D25480440CF5D2915B24B9517B241829
:10442000FBE433FA7D031266539168FFAEF0A22AD3
:104430009229900BDEE0900C0CF012625C4006A218
:104440001392EDC322915B24F1918CA21392EDD2D1
:10445000EBD322A21392EDD2EBC322900BDEE0FF4E
:10446000900BDB1225F0E922900BDB1225F0E924FA
:1044700004F9E43AFA0221A1900BDB0225F012259F
:10448000F0E9240322FF1225F0E92403F9E43AFAC3
:10449000EF0220A4C3900A57E094FF900A56E094DC
:1044A000FF5003123E1322EF600D124B7E124FA2FB
:1044B000E4FD125BEA800A121A701264A4E433FF6E
:1044C000227F0122900C07122610900A64E012202D
:1044D000A4900A65E0FF900C071274C5918C900AB5
:1044E00066E0FF900C071225F0E92402918C900AF7
:1044F00051E0900C079185900A52E0900C071274DD
:10450000CC918C900A53E0FF900C07127526F9E4C9
:104510003AFAEF0220A4C0E0C0F0C083C082C0D04D
:1045200075D008C0FF75FF01E5D530E6047F028035
:1045300009E5D57F0030E7027F018F17E517640298
:104540006002A1D8E51312271D4562014575024599
:10455000C408458009458B0A45990B45B90C0000F4
:10456000472E75FF0175C3551519E5196002E12E37
:10457000751302E12E75FF0175C3F0751309E12E65
:1045800075FF0175C35575130AE12E75FF01900A79
:1045900062E0F5C375130BE12E75FF01900A4BE045
:1045A000F5C3751301751908900A7512779E45F0C9
:1045B0006002E12E75130CE12E9044987406F0759C
:1045C0001300E12EC2EB7513004314041265C940B9
:1045D00002E12E123E13E12EE51764016002E12E86
:1045E000126DEE4002E12EE5107022F142E0FF6410
:1045F000556004EFB4540B75100575FF0075D901B3
:10460000E12E75100275FF0075D908E12EE51064E2
:1046100002704C75FF01F5EA75EAFF900A4E12250B
:10462000F0E5D91220A4126DBD12658C900A4AEFF4
:10463000F01277ADE090072CF0E0FFD3940940062C
:10464000EFD394AA40051265D7806E90072CE0F551
:1046500015126DB575FF008515D9751003E12EE5AE
:104660001064057020F142A3E0FF901220E0FEEFFD
:104670006E700D900A4904F0126DB5E0FF1219A892
:104680007510008034E51064036002E12E900A4E3C
:104690001225F0121FE5FFE92401918C1265D775F0
:1046A000FF00E5D330E016C3900A5DE094FF900A66
:1046B0005CE094FF5003123E13F1A88071C236F102
:1046C0004975FF00F19FE5D120E0FBC2EB431402E6
:1046D000F142A3E0FF901223E0FEEF6EF141E09083
:1046E0001222F13BA3A3E0901224F13BA3A3A3E089
:1046F000FE901225E0FDEE6D4F6012C3900A5FE060
:1047000094FF900A5EE094FF5003123E13C3900A98
:1047100059E094FF900A58E094FF5003123E13753D
:10472000100015151277ADE515F0900777F0D0FF62
:10473000D0D0D082D083D0F0D0E032FEE0FDEE6D5C
:104740004FFF85128285118322904796E5F4F0E0B1
:10475000547FF5F47F827E00F1E4125DF85005E5A8
:10476000FC20E6F6303608904796E04480F5F47F6A
:10477000E87E03F1E4125DF85005E5FC20E6F675ED
:10478000FF01E5D520E702C322E5F4D330E601C3FB
:1047900022D2EB9194D20022C236F149E4F5FFE532
:1047A000D154FE4402F5D122F198E5D120E0FBE49A
:1047B000F5FF75D90112762E94805005E004FF8034
:1047C000027F00125F97D236F149E4F51022E5141A
:1047D00020E507F198E5D120E0FBE4F51022903CBC
:1047E000EF022610125FBD0256347C007D64022762
:1047F000A724D3F582E43409F58322124FD8900719
:104800007DEEF0A3EFF02220082B901217E030E1AC
:104810000AF1E750067E007F0180047E007F00EFF2
:104820004E7012121C91EF700C121CC8EF70061221
:1048300047FB7F01227F002275FF0275E404E4F547
:10484000E4F1A9C330E001D34017E5E630E012906F
:104850001217E0540C600A121C14901217E054F75F
:10486000F0C214F1A930E039E5E654036401703177
:10487000121A3E1264D5401F90123EE0600BE01405
:10488000F07006123167B15EF0901215E020E00280
:10489000213312508B2133123167D214B15EF021D3
:1048A0003312316712687D900775EFF0901200E0C7
:1048B000B47A14901214E0B49C0D900775E0FF6474
:1048C000056004EFB40330E490077BF090077BE0D1
:1048D000FFC394805013E42FF582E43412F583E48F
:1048E000F090077BE004F080E3901200747AF0907F
:1048F0001214749CF0D210121C3C4003121C377B23
:10490000017A1279107D017F01121C327B017A122B
:1049100079117D017F21121C327B017A1279127D7F
:10492000017F22121C327B017A1279287D017F02DD
:10493000121C32901228E0B401057F01126DF512AD
:104940001A4312687D121A39900775EFF01219B2E6
:10495000121A34900775E0FFB40602800C3014047C
:104960007F028005900775E0FF121DFEEF24FFB364
:10497000923A75FF0253E6BF1237E36003B15EF06F
:10498000125877121A4D12359630100B7B017A129D
:10499000792A7D101265F7121A8E901215E0C33035
:1049A000E001D3400F203A0C1235347B017A2F7985
:1049B000781219F8901229E030E0028003301405D3
:1049C0007F011244A7D2AF3014031219B7203A0264
:1049D0004158121C5571FD121E08121C2D40F390F7
:1049E0000774E06040121A6BEF7005125BB7403538
:1049F000E51370FCE51420E5031264A4121B8DEF8F
:104A000070FAB17F5004B19150047F01719A900700
:104A100074E0B40204E4FF8009900774E0B4030575
:104A20007F01125090121A61E51430E1A5F1BA40ED
:104A300002E4F0E51420E509717EF1A27D01125B2C
:104A4000EA127609EFC0E0718C7B01900777E0FDF8
:104A5000D0E0FF12199E21D21258161250B4500302
:104A60001250D4123586EF7006900774E0605290B1
:104A70002EE1E0704C121A6BEF7005125BB74041EB
:104A8000E51370FCE51420E5031264A4121CC312A4
:104A90001B8DEF70FAB17F5004B19150047F01710A
:104AA0009A900774E07012123586EF600C1235711F
:104AB000901217E04408F08008900774E0FF121C81
:104AC0000F121C5571FD121C1E904493E0704A1287
:104AD000354B123559EF702312358EEF6005121CDD
:104AE000148036123586EF703012684BEF702A1141
:104AF00007EF6401702312356A801E901217E020C0
:104B0000E21712358EEF600CB17F5004B191500462
:104B1000E4FF719AE490077AF0201105121A61807F
:104B200021F1D890076DE0FEEFC39E4005EF9EFF98
:104B3000800890076DE0F4042FFF7403D39F5002A8
:104B4000C211E51430E129F1BA4002E4F0E5142085
:104B5000E509717EF1A27D01125BEA127609EFC0D0
:104B6000E0718C7B01900777E0FDD0E0FF12199E89
:104B7000121BDD121A7A1267881258624158900788
:104B800076E0FD75F0AA9007801225E4ED75F0023D
:104B9000A4246FF9740735F0FA22904753EFF0E43C
:104BA000A3F0903F9DE0FFB40209740FD19874B94F
:104BB000F0800CEF64047044743DD1987479F01265
:104BC00037F0904753E06007903F9CE0FF80027F02
:104BD000AB123728123A4E904753E0903F9CF0704A
:104BE00016904754E0D39400400D7FFF1237289071
:104BF0004754E014F080EAE4FF1237D122D390004A
:104C000001E09400900000E094005002A13FC2AD8A
:104C1000E0FFA3E090474D127822900000F0A3F04F
:104C2000D2ADF571B140E0FEA3E0FF4E6054C390F9
:104C3000474EE09F90474DE09E402D74C42571B1D2
:104C400067E0B4011374C42571B1677402F0900A6F
:104C500063E0FFB140E4802674C42571B167E4F0DD
:104C6000B140E4F0A3F0801AB140C083C082E0FEFE
:104C7000A3E0FFD1A0EF9DFFEE9CD082D083F0A3F4
:104C8000EFF00571E5716403709A903075E0FF6094
:104C90001DF4601A7E00D1A09FEC9E40087A007B34
:104CA000007F008004C3EF9DFF903075EFF0E4F5C6
:104CB00071E571D1ACE0607190474DF1CFB14E120A
:104CC000787D5044B16FE0FF6008F46005B16FE09B
:104CD00014F0B16FE0600EE571F1F21224CBB14E29
:104CE000122558800FE571D1ACE4F0B14E12256465
:104CF0000000000012756C4E600912756CAA06F96E
:104D000012277D123D048021B14EC083C08212243F
:104D1000CBC006C00790474D12638ED007D0061255
:104D200022AAD082D0831225580571E571C3940E52
:104D3000500281B190474DE0FEA3E0FF121B2922F3
:104D4000E57125E0246FF582E43430F58322E571C6
:104D500075F00CA424C7F582E4342FF58322901259
:104D600015E054FE2224C4F582E4342FF58322E5B5
:104D70007175F00CA424D1F582E4342FF5832290D0
:104D80000001740193B40007E493B41802C322D362
:104D9000227F017E009017FCE4935EFE7401935F16
:104DA0004E24FFB3229042F4ECF0A3EDF09042F3D6
:104DB000EFF0FB9042F61224CBF1F1122558EBB143
:104DC00050122558EBB150C083C0821224E79000E6
:104DD00000F1CF12229DD082D0831225589042FA42
:104DE000E0FF9042F3E0FEB171EFF09042F4E0FC9E
:104DF000A3E0FDEE75F00CA424CFF582E4342FF58A
:104E000083ECF0A3EDF022121FE5FB900C31EFF0E4
:104E1000A3EBF0900C31E0B165E0FEB402037F003B
:104E200022EE701C900C31E0FFB1657401F0900A25
:104E300060E0FCA3E0FDEFB142ECF0A3EDF0802ACE
:104E4000ED241BFFE433FEE4FCFD7B0CFAF9F812C1
:104E50003123EF2405FF900C31E0B142E0FCA3E0E8
:104E6000C39FEC940050037F0022903075E0B4FFA4
:104E700015900C32E0540FFFBF0103E48004900A48
:104E800074E0903075F0903075E060037F022290FE
:104E9000307574FFF07F0122904754F0903F9C22C0
:104EA00090474DE0FCA3E0FDC322E0FF75F00CA4A9
:104EB00024D2F582E4342FF583229043EB12631160
:104EC0009043F074FFF09043EFE09043F1F0904393
:104ED000F1E0FFC3940E505FEFB1501224CBE4FB1E
:104EE000F1EA704B9043EFE07E0170027E02904346
:104EF000F1D1AAEEF0C0079043EDE0FF7E0060051F
:104F00001278AC80027F0AE4FCFD9042F61225582C
:104F10009043EEE09042FAF09043EBE0FCA3E0FD1A
:104F2000D007B1A59043F1E004FF9043F0F0229048
:104F300043F1E004F080979043F0E0FF229042FBC1
:104F4000EEF0A3EFF07FFFA31224E7E8494A4B609D
:104F5000509043027403F0904302E0FEC3940E505D
:104F600040EED1ACE07032904302D1AA7405F0C09B
:104F7000079042FD1224CB9042F61225589043012F
:104F8000E09042FAF09042FBE0FCA3E0FDD007B1D4
:104F9000A5904302E004FF8008904302E004F08003
:104FA000B6227B01AF82AE832275FF02901215E01C
:104FB00022C2AFEFF45214D2AF227F02F1B19007B8
:104FC00076E090077BF090077604F0C3940222E02D
:104FD000FEA3E0FFE4FCFD22A2AD9228C2ADAF1F0C
:104FE000AE1EA22892AD22A21422FAF9F8C302241E
:104FF00006EB75F00CA424CBF582E4342FF5832264
:10500000900C04EFF0900C06EBF0900C05EDF054D2
:105010000290123FF0124807EF7002C322900C0476
:10502000E0B40411A3E0FB7D017F01115E900C044C
:105030007403F08017900C04E0B40505121C0A807C
:105040000B900C05E0FB7D01E4FF115E900C04E089
:10505000900774F0900C06E090123EF0D322EB60C3
:105060000875FF0153CDFD800675FF0143CD02EDAC
:10507000600553FBDF800343FB20EF600775FF02F1
:1050800043E1402275FF0253E1BF22121C0A7F0157
:1050900043FB1075FF0243E640EF600D75FF02E52C
:1050A000E120E7FB43FB0D800343FB0E80FE75FF11
:1050B000028FE322901220E0701011CC4FFFA3E08A
:1050C0004FFFA3E04F7003D38001C322901222E070
:1050D000FFA3E022E4FF1244A7EF603FF1E4311C9C
:1050E0005009901222E0C394C040F17B017A1279FA
:1050F00024311C500E11CC5FFFA3E05FFFA3E05FE3
:10510000F460E8901229E030E0057F011244A7E442
:10511000901220F0F1E4E0FD121B972290416812FA
:105120006A0C90416E122564000000019041727477
:1051300001F0F5FFE5D554C07005125BE25002C3E3
:1051400022E4F5FF53967F75FF0175D504F13B7599
:10515000FF0143D508E4F5FF5394FBF5FF53847F2B
:10516000F5FF7598FF90416CE5F4F075F49C75FFC0
:1051700001A3E5E4F075E4257B017A417972126AB6
:1051800040904172E064016002413CF5FF90416B48
:105190007414F090416E517E780112242A90416E71
:1051A000122558E5A730E1FB43A70290416E517EDE
:1051B000E5A730E005E47B018002E4FBFAF9F8EFB3
:1051C0004BFFEE4AFEED49FDEC48FC90416E122586
:1051D0005890416BE014F070BA90416E517E781097
:1051E0001224177B6D7A4E79C678411222B8EF24CB
:1051F00039FFEE3430B186E4FBFA7901F81223432B
:10520000EE547FFEE4FDFC1262B090416E517EEBE5
:105210006FFFEA6EFEE8CDEFCDCCEECCECFF126A6C
:1052200015EF1220A4126A15900001ED1220B6901D
:10523000120FE030E606E4F5FF75968075FF01E495
:10524000F5D590416CE0F5F475FF01A3E0F5E412AB
:105250006C42904172E0B40103D38001C322E0FBB1
:1052600025E025E02401F582E43412F58312255867
:10527000EB25E025E02401F582E43412F583E0FC1F
:10528000A3E0FDA3E0FEA3E0FF22903B41122558DE
:10529000903B517401F0E4A3F0F14B75FF02E5E699
:1052A00030E00E903B527401F0FB7A3B7952126A67
:1052B00040903B5C122564002DC6C0E4F5FFF5A4C8
:1052C00090120FF0903B537402F075FF03903B5324
:1052D000E0FFF595EF14601314601C240270279012
:1052E0003B41517EF1C6903B4D8016903B45517E2F
:1052F000F1C6903B4E800A903B49517EF1C6903BEF
:105300004FE0903B60F0126D73903B60E0700512CF
:1053100076D1806690120EE004F0903B5312774EE7
:10532000903B52E0701A903B5C517E903B58F1D913
:10533000FBC31224065009903B58517EA3122558F6
:10534000903B60E0FF126BF4903B50E0FF903B53CA
:10535000E0FDA2349231126D21903B52E070129028
:105360003B58517E904554122558903B53E0FFB175
:105370008E903B53E05171126A9912785460024149
:10538000CA903B52E07040A37402F075FF03903B5B
:1053900053F1EB7012903B5CB164780112241790CA
:1053A0003B53515E126A9912785470DF903B5C1245
:1053B0007640B186E4FB7A04F9F8B17478011224DE
:1053C00017903B54122558126A8B400343F420A2D5
:1053D000349232126C53903B52E024FF9230903B57
:1053E00054517E127664E4F5FF75E508126B8FE583
:1053F0009B30E7FBD11EF1D343D5047FC8D130B138
:105400003EF1427B017A3B7951126B9C90120EE087
:10541000B40103126B88903B51E0B40103D38001C7
:10542000C322903CA0122558F14B903CB512256444
:10543000002DC6C0E4F5FFF5A490120EF0A3F09085
:105440003CB07402F075FF03903CB0E0FFF595EFBF
:1054500014601314601C24027027903CA0517EF14C
:10546000C0903CAC8016903CA4517EF1C0903CAD05
:10547000800A903CA8517EF1C0903CAEE0903CB9CF
:10548000F0126D73903CB9E070051276D1805690A1
:10549000120EE004F0903CB012774E903CB5517E75
:1054A000903CB1F1D9FBC31224065009903CB15194
:1054B0007EA3122558903CB9E0FF126BF4903CAFEC
:1054C000E0FFA3E0FDA2339231126D21A3517E9043
:1054D0004554122558903CB0E0FFB18E903CB0E0AE
:1054E0005171126A9912785D600281457402F075FB
:1054F000FF03903CB0F1EB7017FF7E04FDFC903C85
:10550000B5B1697801122417903CB0515E126A99C6
:1055100012785D70DA126A8B400343F420A2339252
:1055200032126C53903CB5127640B186E4FB7A049B
:10553000F9F8B1747801122417C23012766490120F
:10554000137401F07E127F01E4FD8F828E83EF2DB4
:10555000F582E43EF583E0FC901213E02CF00DEDB3
:10556000B412E722FF7E04FDFCE0F8A3E0F9A3E01B
:10557000FAA3E0FB1222B8E47B7DFAF9F812234388
:10558000EF2401FFE43EFEE43DFDE43CFC229045B7
:1055900053EFF0E4A3B1647801122417904553E06F
:1055A000FBF17A122558901210E06480606FE0C31E
:1055B000947F5037EBF17AC083C082517EEEC0E019
:1055C000EFC0E0901210E075F004A4AEF0FBCAEE5C
:1055D000CAEA3395E0F9F8D0E0FFD0E0FEC3EF9BD4
:1055E000FFEE9AFEED99FDEC98802A904553F179F3
:1055F000C083C082F1D9FB901210E0F40475F0046E
:10560000A4FFAEF0EE3395E0FDFCEB2FFFEA3EFE8B
:10561000E93DFDE83CFCD082D08312255822E4F518
:10562000FF758EC8F18875FF0153D5FBF1CC7F144F
:105630007E00F11E75FF0343918022903DB012253C
:1056400058E4F5FF75BB0575BB8575FF0175D5027F
:10565000203004F13BF18875FF0143D52030300242
:10566000E104E4F5FF538EF7438E077D04E4F5FF74
:105670008DBCF5FF43B102E5B130E2FBE4F5FFAFCD
:10568000DFEFFEACDEECFBEBFFED25E024AEF582B8
:10569000E4343DF5831276DFF5FFF5FF53B1FD0DE0
:1056A000EDB40CC9903DB0517E7809122417A312B5
:1056B00076DFFDED25E024B8F582E4343DF583E0A6
:1056C000C313FAA3E013FB127651F5831264252B62
:1056D000FFEE3AFE127651F583EEF0A3EFF0ED24E3
:1056E0000490120DF0EDC394075019CFEDCF0DEFDC
:1056F000127652127579FFC3903DB5E09F903DB48C
:10570000E09E50AFE4F5FF758EC8F5FF90120DE0F6
:10571000F5BCE4F5FF75BB8075FF01F5D52275FF7B
:1057200003D3EF9402EE9400400874FE2FFF74FF41
:105730003EFEEFF592EE540FF591227F3FFEF11EF3
:10574000D13475FF03E59120E7FB2275FF0243E1A9
:1057500080F1A475FF01438E1075FF0153DB7F7547
:10576000FF0175D502D12EF1D3438E1075FF014391
:10577000DB8075FF01E4F5D522E025E025E024017A
:10578000F582E43412F58322E4F5FF75C2E17F1E51
:10579000126A3830E707E4F5FF75C2A122E4F5FF8D
:1057A00075C28122E5FA30E1FB75FC8075FF01537B
:1057B000D5EFE4F5FC75FC40F1CCE5FC20E6FB22DE
:1057C000903CB1022558903B5802255875FF03E4E0
:1057D000F59122F14275FF0122E0F8A3E0F9A3E080
:1057E000FAA3E0227B017A12792222E0F595E5F412
:1057F00054072290076EE064AA2411FFF02212578A
:10580000F3EF75F0A08422AE071257F3EE04FEEF1B
:105810008EF084AFF02230120C902EE1E07006FF83
:105820001219D5C212301423AF1F900A73E0FEEF95
:10583000C39E400AEF9ED394024010C21422900AE5
:1058400073E0F42FD394014002C21422900778E051
:10585000FCA3E04C700A900778EEF0A3EFF0D3229F
:10586000C322900778E0FEA3E0FF4E6009CAEECAAB
:10587000C9EFC912277D22D2ADD2BD75FF02758E48
:105880007175700975FF02E58E546F4480F58E9036
:1058900045E41225640000000022C0E0C0F0C0838F
:1058A000C082C0D075D008C0FF75FF02E58E30E41D
:1058B0003A75FF02E58E54EF4410F58E9045E412E0
:1058C00024CB1255809045E4122558900000123EDA
:1058D00013E57030E0020551E570700D7570090533
:1058E0001FE51F7002051E8002157075FF02E58519
:1058F00030E40875FF024385100572D0FFD0D0D088
:1059000082D083D0F0D0E032F0A3EFF07E1C7FD2C3
:10591000E4FB7D01E49043EFF0024EBA9043F5ECD6
:10592000F0A3EDF09043F2122610315E9043F53172
:10593000523114314CEF1220A4314C121FE5B4FF48
:1059400004E41220A4314C121FE5FF229043F2021E
:1059500025F0E0FEA3E0FFA3E0FDA3E0FB229046DC
:10596000781226109046781225F0121FE5FF123F9C
:10597000A09046781225F0E40220A47E1E7FA37B2F
:10598000017D0A9043EF7403F0024EBA7BFF7D0164
:1059900080F190474BECF0A3EDF090474AEFF051C7
:1059A000FEFFD244121E6C90474AE0FFE4FD31D75F
:1059B00090474AE0FF51F112528390474AE05171FB
:1059C000EEF0A3EFF0205B0DD25B7E5A7F7F318C2F
:1059D000BFFF02C322D322EF7011ED600775FF01F4
:1059E00043AE012275FF0153AEFE22EFB4011490C5
:1059F0001248EDF0600775FF0143AE022275FF010A
:105A000053AEFD229045E01226109045DFEFF0C224
:105A10005A51FEFF7B017A4579E3121E674003A2CB
:105A20005A22515EE0FE9045E3E0FDEE6D702CEFF2
:105A30005163E0FF9045E01225F0EF1220A4515E83
:105A4000E07008EF51637401F080089045DFE05189
:105A500063E4F0515EE0FD31D7D25AA25A2290455C
:105A6000DFE0FF75F006A42461F582E43441F5839C
:105A70002275F006A4245FF582E43441F58322E424
:105A8000904791F0904791E0FFC394025054EF513A
:105A9000E3E064017044904791E051E3E4F07B015E
:105AA0007A4779925104501B904791E0FE5171E082
:105AB000FCA3E04C600D904792E0FFEE5171710E37
:105AC000122781904791E0FF75F006A4245EF582CD
:105AD000E43441F5837401F051F1904791E004F012
:105AE00080A22275F006A4245DF582E43441F5839A
:105AF00022EF146006047005D2A822D2AA2275F003
:105B000006A4245CF582E43441F583E022FFE0FC46
:105B1000A3E0FDF5828C8322AB07E4FA1BEBC39470
:105B20000E500F124FF171376008EB124D501225D5
:105B3000580AAF022280E11224CBEC4D4E4F221FB7
:105B4000EFC3940E5009EF124D501224CB8005E4A0
:105B5000FFFEFDFC22E4FEEFC3940E5013EF124E45
:105B6000ACE05D7C00B505027C01EC2EFE0F80E709
:105B7000AF06227D02E4FF80DC7D017F037155AB1F
:105B8000077173EF2BFF22E4FD7F0380C8AD07ACE4
:105B900006124FD8C3EF9DEE9C4008EF9DFFEE9C90
:105BA000FE8013EDF4FDECF4FCED2401FDE43CFC7F
:105BB000ED2FFFEC3EFE2290077DE0FEA3E0FF719B
:105BC0008DD3EF94C8EE94002271E25005126DE778
:105BD0004003301403D38001C322C2EBA2ED921321
:105BE000C2EDE5F4C330E701D322900BA51274D4C3
:105BF000E513707B71DA5005C236124749900BA548
:105C0000E0FEA3E08E11F512A31225F0900A4E12C9
:105C10002610AE11AF127DAA1272A5E4F5FF75D958
:105C200001F510E5145421602BE51430E504E4FF80
:105C30009170E4900BAAF0900BAAE004F0126AD5E0
:105C4000EF6009900BAAE0C3941040EB7F02121D95
:105C5000F95314DE12762E94805005E004FF800282
:105C60007F00F197D236124749D2EBA21392ED2270
:105C700075FF01E5D530E602C322E4F5FF439A80C3
:105C8000EF12774FE4F5FF539A7FD322900C2DEF5C
:105C9000F0C237B1D7D21C900C2DE090467EF0D2E6
:105CA0001DA3E4F0A37434F0B126E4900C2EF0713F
:105CB000E25050900C2EE0704AE5F754C060F0F1CD
:105CC00025F125900C2EEFF064557023F125900CF2
:105CD0002E1277476F600E900C2EE0B4FF0F9012DB
:105CE00015E030E116900C2E7402F080C2800C900A
:105CF0000C2EE0B454057433F080B4900C2E740173
:105D0000F080AC900C2EE0B40207C23612474980F6
:105D100000B119900C2EE0FF22C21CE490467EF0E8
:105D2000C21DA3F0A3F075FF01E5D520E702C32251
:105D3000C237B1D7201C02A1C853F4DF90467EE0E1
:105D4000FF9170126B88301D0543F440800353F4BB
:105D5000BFE4F5FF53F5F090467FE0FAA3E0FBEADD
:105D600042F5EBF5F6D237B1D77FC8125630E4F5DD
:105D7000FFE59320E604B1F840F4301D58E5F43017
:105D8000E3047D288010E5F430E2047D288007E5F7
:105D9000F430E1027D281257CC7F28125630B1F83A
:105DA00040FC7F78125630B1F8502AF13850F8F1A3
:105DB0005FEFC39D50F1F13850EDE5F720E5E8C203
:105DC00037B1D71257CC80DF53F4BF126A91400528
:105DD00043F420F190D322AFF4EF547FF5F4303741
:105DE00005EF4480F5F475FF01E5D520E702C322F5
:105DF000E5F4D330E601C32275FF03E591C330E734
:105E000001D3229044001263149044067401F0C23E
