:020000040000FA
:0A000000021800021803007F082216
:0E000B0002180BEFF45211220218137F01228B
:07001B0002181BE5F7132298
:07002300021823EF42112235
:06002B0002182B02138EE7
:0700330002183375ED0422F1
:07003B0002183B75ED0222E3
:06004300021843AFEF229A
:06004B0002184B8FEF22AA
:030053000218533D
:03005B0002185B2D
:030063000218631D
:03006B0002186B0D
:10007300021873C2D5E830E70FB2D5E4C39BFBE4A3
:100083009AFAE499F9E498F8EC30E717B2D512003C
:10009300AC120720E4C39BFBE49AFAE499F9E498D1
:1000A300F8800312072030D50DE4C39FFFE49EFEC2
:1000B300E49DFDE49CFC22787FE4F6D8FD900000EB
:1000C3007F007E10E4F0A3DFFCDEFA90207DA3E541
:1000D30083C394204011FEAF829020000E0FE48072
:1000E30002F0A3DFFCDEFA12012002018922325A58
:0B00F3002D5761766520362E3130005D
:10010000C01E7401C0E0C082C083751E0AE5FF54A2
:10011000CF4490F5FF22C01E7401C0E0C082C083AE
:10012000751E20E5FF54CF4490F5FF22C01E7401D8
:10013000C0E0C082C083751E36E5FF54CF44A0F5F1
:10014000FF22C01E7401C0E0C082C083751E4CE552
:10015000FF54CF44B0F5FF22908134211690829055
:1001600021169082272116908056212C90805721AD
:100170002C908000212C0075817F75FF03759E02F5
:100180001201200203960200F090021AE47E01930D
:1001900060F4A3FF543F30E509541FFEE493A360CD
:1001A000010ECF54E0B4E00EEFFAEEF9A3A3A3A33F
:1001B000DAFDD9FB80D654C025E0604B5026E4938D
:1001C000A3F85407240CC8C333C4540F4420C88375
:1001D0004004F456800146F6DFE480B001020408D2
:1001E00010204080E493A3FAE493A3F8E493A3C817
:1001F000C582C8CAC583CAF0A3C8C582C8CAC58398
:10020000CADFE9DEE78085E493A3F8E493A3400323
:10021000F68001F208DFF402018C4100F900410090
:10022000F00041207A00C1040110004101A7014102
:1002300001A501C100C10241207D0000EF900245EF
:1002400093900100730A20364CE51EFF22EFF51E45
:1002500022000D45DA000D403000000000020C00C5
:10026000013F3F3F04040440404000000000000103
:1002700001020203030404050506060707822D1C7C
:100280001613111010E4FD7C0CAB050DEB9000F281
:10029000938F828E83F00FBF00010EDCEC01078F7D
:1002A000828E83E4F0A3740651C1740A51C1A3E4A1
:1002B000F0EF2404F582E43EF583E4F0A3746DF0DE
:1002C00022F08F828E83A3A32275FF0275E404754A
:1002D000E40175E40222C2AF75FF0375D40451C96D
:1002E000120FE97FE87E03120FC5712D120E511215
:1002F0000FBC7135C3902075E094D7902074E094C2
:100300000340E975FF0175D30175FF0275D2807551
:10031000FF0243E704712D7135902074E0B403F7B8
:10032000A3E0B4E8F275FF0253E7FB80FEE49020FF
:1003300074F0A3F022902074E475F001C11F9020A6
:100340004EEFF0A3EDF0A312085090204FE060456F
:10035000901217E0601390204EE02410FF1210E27C
:10036000902050120847EF801790204EE0640190D3
:10037000205070071208477480800512084774FFE8
:10038000B170902051713890204FE014F090204EC1
:10039000E004F080B52275FF0275E404E4F5E41191
:1003A000BA9158BF0522E49000F8F09000F8E0FF01
:1003B000C394805013E42FF582E43412F583E4F003
:1003C0009000F8E004F080E312102E1211E64003D2
:1003D0001210917B017A1279107D017F01713E7BB1
:1003E000017A1279117D017F21713E7B017A1279A8
:1003F000127D017F22713E7B017A1279167D017F89
:1004000002713E901216E0B401057F0112168212AD
:100410001312915812107375FF0253E6BFE4FF31B7
:100420006C1213681209653171120953121112E529
:100430001130E21D7F04110EE51120E6031209655B
:100440007E007FFB9000F1E0FD7B007A00790031B7
:1004500058316212101980CF75FF02E5E630E203D1
:100460007F0322E5E630E3037F0022E5E630E10387
:100470007F0422E5E67F0530E0027F0122F07F0F56
:100480007E1D902030121D1790203574FFF5F0D19D
:100490003545F06052902032120847B1089020375D
:1004A000F090203371387D80ED60DD91E7EE7C00C7
:1004B00030E7027C01902037E05D7B0060027B0129
:1004C000EB6CFCEF25E0FFEE33902030F0A3EFF073
:1004D000AF04EF600C902030E06410F0A3E06421E2
:1004E000F0EDC313FD80C1902030E0FEA3E0FF22B9
:0A04F00075FF0275E404E4F5E42250
:10050800BB010689828A83E0225002E722BBFE02F1
:10051800E32289828A83E49322BB010CE58229F5D0
:1005280082E5833AF583E0225006E92582F8E6223F
:10053800BBFE06E92582F8E222E58229F582E583F9
:100548003AF583E49322BB010989828A83F8E0287B
:10055800F022500327F722BBFE05F8E328F3228A8E
:10056800838982F8E4932822BB010689828A83F072
:10057800225002F722BBFE01F322EF8DF0A4A8F06F
:10058800CF8CF0A428CE8DF0A42EFE22BC000BBE8A
:100598000029EF8DF084FFADF022E4CCF875F00867
:1005A800EF2FFFEE33FEEC33FCEE9DEC984005FC9C
:1005B800EE9DFE0FD5F0E9E4CEFD22EDF8F5F0EE64
:1005C8008420D21CFEADF075F008EF2FFFED33FD4F
:1005D8004007985006D5F0F222C398FD0FD5F0EAEF
:1005E80022C2D5EC30E709B2D5E4C39DFDE49CFCFA
:1005F800EE30E715B2D5E4C39FFFE49EFE120594E2
:10060800C3E49DFDE49CFC800312059430D507C328
:10061800E49FFFE49EFE22C5F0F8A3E028F0C5F0B1
:10062800F8E582158270021583E038F022A3F8E01D
:10063800C5F025F0F0E582158270021583E0C83810
:10064800F0E822BB010A89828A83E0F5F0A3E02260
:10065800500687F009E71922BBFE07E3F5F009E326
:10066800192289828A83E493F5F074019322BB01ED
:100678000A89828A83F0E5F0A3F0225006F709A7D9
:10068800F01922BBFE06F3E5F009F31922E88FF012
:10069800A4CC8BF0A42CFCE98EF0A42CFC8AF0ED01
:1006A800A42CFCEA8EF0A4CDA8F08BF0A42DCC38B5
:1006B80025F0FDE98FF0A42CCD35F0FCEB8EF0A4ED
:1006C800FEA9F0EB8FF0A4CFC5F02ECD39FEE43CA7
:1006D800FCEAA42DCE35F0FDE43CFC2275F008754B
:1006E8008200EF2FFFEE33FECD33CDCC33CCC58265
:1006F80033C5829BED9AEC99E58298400CF582EE21
:100708009BFEED9AFDEC99FC0FD5F0D6E4CEFBE408
:10071800CDFAE4CCF9A88222B800C1B90059BA00D0
:100728002DEC8BF084CFCECDFCE5F0CBF97818EF2B
:100738002FFFEE33FEED33FDEC33FCEB33FB10D72C
:1007480003994004EB99FB0FD8E5E4F9FA227818ED
:10075800EF2FFFEE33FEED33FDEC33FCC933C91048
:10076800D7059BE99A4007EC9BFCE99AF90FD8E07A
:10077800E4C9FAE4CCFB2275F010EF2FFFEE33FE4C
:10078800ED33FDCC33CCC833C810D7079BEC9AE8BF
:1007980099400AED9BFDEC9AFCE899F80FD5F0DA40
:1007A800E4CDFBE4CCFAE4C8F922C3E49FFFE49E5D
:1007B800FEE49DFDE49CFC22EB9FF5F0EA9E42F0EE
:1007C800E99D42F0EC6480C864809845F022EB9F74
:1007D800F5F0EA9E42F0E99D42F0E89C45F022E8F7
:1007E800600FECC313FCED13FDEE13FEEF13FFD8FF
:1007F800F122E493FC740193FD740293FE74039355
:10080800FF22ECF0A3EDF0A3EEF0A3EFF022A88214
:100818008583F0D083D08212082D12082D12082D5E
:1008280012082DE473E493A3C583C5F0C583C8C536
:1008380082C8F0A3C583C5F0C583C8C582C822E0B5
:10084800FBA3E0FAA3E0F922EBF0A3EAF0A3E9F0B6
:1008580022BB010789828A830208475005E9F8020A
:1008680008FBBBFE05E9F802090D89828A830209A3
:100878001FBB011A89828A83D0F0D0E0F8D0E0F952
:10088800D0E0FAD0E0FBE8C0E0C0F0020850501613
:10089800E9F8D083D082D0E0F9D0E0FAD0E0FBC00C
:1008A80082C083020904BBFE16E9F8D083D082D047
:1008B800E0F9D0E0FAD0E0FBC082C083020916223A
:1008C8008A838982E473EC8EF0A4CCC5F0CCCDF891
:1008D800EFA4CEC5F02DFDE43CFCE8A42EC8C5F07D
:1008E8003DFDE43CFCEFA4FFE5F028FEE43DFDE41B
:1008F8003CFC22E6FB08E6FA08E6F922EBF608EAF1
:10090800F608E9F622E2FB08E2FA08E2F922EBF23D
:1009180008EAF208E9F222E493FB740193FA7402FC
:1009280093F92275FF02E5E430E10675E40675E403
:1009380003229000EFE064AA2411FFF022AE0731F1
:100948003AEE04FEEF8EF084AFF022E51130E30CAE
:100958007F0812000EE51120E6023165227E007F35
:10096800FB9001E5EEF0A3EFF0E5107055C2EBE562
:100978001130E104C20C31D09001E5E0FEA3E08E15
:100988000BF50C850B08850C09E4F50AE5115442B2
:100998006005E4FF121C06E49001E7F09001E7E02F
:1009A80004F0D1E2EF60099001E7E0C3941040EC55
:1009B8007F02120167E4FF121C064311025311BEA5
:1009C80031CB2243FA04D20C90207CE5F4F0E054B9
:1009D8007FF5F47F827E00D158D15171A55005E58D
:1009E800FC20E6F7300C0890207CE04480F5F4D138
:1009F8004B71A55005E5FC20E6F775FF01E5D5200C
:100A0800E702C322E5F4D330E601C3229001DE11E8
:100A180050E51060026162C2EBE51130E104C20CDE
:100A280031D0E4F50A4311015311BD71642408F96A
:100A3800E43ACFE9CFF50B8F0C716424B1718DF5D1
:100A480012716424B2F9E43A8B18F519891A7164A1
:100A580024D8718DF51B71647194FDACF054079026
:100A680001A7F0751008E0FFB40319716424B2F906
:100A7800E43AFAE92407F9E43AFA740112054E75E2
:100A880014288015EFB40205751414800CED441079
:100A98004C7F0560027F0A8F145311F771647194BB
:100AA800AF1730E302AF0F1212C24004E4F5102270
:100AB80043FA049001A7E0B40320AA0BA90C7B0118
:100AC80090203C115090203FE512F0AB18AA19A9CC
:100AD8001AAD1B1210F58E0D8F0E7516FFAF14127E
:100AE8001C2FE51B601E151BAB18AA19A91A1205A5
:100AF800089001E1F07401251AF51AE43519F51981
:100B0800718280DEE51260191512850C82850B83CF
:100B1800E09001E1F0050CE50C7002050B71828094
:100B2800E39001A7E0B4030DE50DFF716BAF0EE58F
:100B38000E716B8015AF16716B9001A7E0B4010AB6
:100B4800E4FF716BE4F5FF43D280E5FA30E1FBE4A2
:100B5800F5104311085311FED322C3229001DE1170
:100B680047E92275FF01E5D520E602C322E5FA54DC
:100B78000360FA75FF018FC3D322E0FF716B900108
:100B8800E1E0621622F9E43AFA0205082404F9E4DD
:100B98003AFA02064BF1F831CBE4F50A2275FF0365
:100BA800E591C330E701D3229020471216749020B4
:100BB8004D7401F0C20BD14B71A55005E5FC20E640
:100BC800F7D1B4BF0108E4F5FC75FC408007D1B447
:100BD800BF0202D32275FF0153D8EF902048E0FFEF
:100BE800121BD175FF0153D5DF53FAFB902047E064
:100BF800FF121C06902048E0902047B4080891B8DE
:100C08002452D1A9800391B8FF12170C902049E013
:100C1800FF121C2975FF0175FF03759B04D14B75E5
:100C2800FC42E5FC20E10471A540F490204AE0F084
:100C380075FF03E59B20E70471A540F4E59B20E7D9
:100C48000D75FF03759B1F121BB4D20B804FF1E289
:100C58001216CE902048E0FD90120FE05D701C90B7
:100C68002047E0FFF1E2121A1190120FE0FF9020E6
:100C780048E0FEEF4E90120FF0D1251215E87B01E7
:100C88007A20794B121657500FC390204CE09420CD
:100C980090204BE0940340E6F1E2121748F1BC3093
:100CA8000B0261B690204DE0B40103D38001C3224A
:100CB800E025E025E02401F582E43412F583E0FC28
:100CC800A3E0FDA3E0FEA3E022902000110A75FF37
:100CD8000243E180121BB412193B90201511160033
:100CE8002DC6C0E4F5FFF5A490120EF0A3F09020F5
:100CF800107402F0F1F0FFF595EF146017146024FA
:100D08002402703390200091C6FF902011110A90A0
:100D1800200C801E90200491C6FF902011110A908B
:100D2800200D800E90200891C6FF902011110A9086
:100D3800200EE0902019F0121957902019E0700F3A
:100D4800F5FFF59675FF0175D70975F41880599068
:100D5800120EE004F0902010E0121C219020159152
:100D6800C6FF902011121A05C31207D65009902009
:100D78001191C6FFA3110A902019E0FF1217A09045
:100D8800200FE0FFA3E0FDA20A92081218E9A39140
:100D9800C6FF902054110A902010E0FF12196490A9
:100DA800201091B8FF12170C121D20600281FC74EC
:100DB80002F0F1F0F595E5F454077019902015D17B
:100DC8008A78011207E79020101219F5110AEB91A1
:100DD800B9FF12170C121D2070D875FF0375958086
:100DE80090120EE0D39401400343F420A20A920922
:100DF80012181B90201591C62420FFEE344ED1AC5A
:100E0800E4FB7A04F9F8D19A78011207E7C20712CD
:100E180014F3E4F5FFE5BD54F84404F5BD9012134E
:100E28007401F07E127F01E4FD8F828E83EF2DF531
:100E380082E43EF583E0FC901213E02CF00DEDB453
:100E480012E7227FE87E03D15875FF034391802281
:100E5800902061EEF0A3EFF07B017A2079631216FF
:100E6800575014902063E0FEA3E0FF902062E09FBB
:100E7800902061E09E400A902061E0FEA3E0FFF12F
:100E8800C522FF7E04FDFCE0F8A3E0F9A3E0FAA385
:100E9800E0FB120695E47B7DFAF9F8120720EF24AF
:100EA80001FFE43EFEE43DFDE43CFC227FFA7E00C7
:100EB800F1C5D151E5FC30E60471A540F7E5FC30F9
:100EC800E6037F032275FF01E5D530E6037F0222A2
:100ED800E5D57F0030E7027F0122E4902069F0A386
:100EE80004F0E490206CF0E5FA30E1FB75FF01E5D1
:100EF800D530E7037F0022E4F5FF75E50875FF01AB
:100F080053D8EFE5D530E61A75FF0190206BE5DA86
:100F1800F0E4F5DA75FF01E5D630E3FB90206C7458
:100F280001F075FF03759B0475FC4175FF03E59B94
:100F380030E7FBE4FB75FF038B95EB91B9FF1217C4
:100F48000C0BEBB403EF75FF03759580E4F5FF75A3
:100F58008EC81215E875FF0153D5FBF1E9F1B47598
:100F6800FF0143D50490206CE07006F1E97FC8F1D9
:100F7800B67B017A20796A12174890206AE090209F
:100F8800697006E04404FF8002E0FF902069EFF0FA
:100F980090120EE0B4010675FF0143D81075FF01E9
:100FA80090206BE0F5DA902069E0FF227F147E0044
:100FB800F1C5D15175FF03E59120E7FB2275FF03C9
:100FC800D3EF9402EE9400400874FE2FFF74FF3EA6
:100FD800FEEFF592EE540FF591227B017A20794DC0
:100FE8002275FF03E4F5912275FF03902010E0229B
:100FF800C20C31D085080B85090C229000F6E0FC64
:10100800A3E04C700A9000F6EEF0A3EFF0D322C3F1
:10101800229000F6E0FEA3E0FF4E6009CAEECAC9BE
:10102800EFC91208C822E4F53FF540F541F54275CD
:10103800FF0185FD3B75FF0185C93C75FF0185CA28
:101048003D75FF0185CB3E22EF1157F0020000905D
:101058001218F090207A22901218E0FFF4600590A0
:10106800207AEFF074FF1157E0FF22901218E0FE8B
:10107800640690207A6004EFF08008EEF090121871
:1010880074FFF090207AE0FF22E490207BF090201B
:101098007BE0FFD3946F501EEF2410FF11E29020E5
:1010A8007BE0FEE42EF582E4344FF583EFF09020E8
:1010B8007BE004F080D87B017A4F790011DB7470F3
:1010C80012047DEF4E7F0070027F01901217EFF03F
:1010D80024FF22902035E4F0A32275FF03E4F5975E
:1010E80031F4E59720E1FB75FF03AF99227F0F7E6E
:1010F8001D11DBEDF012048290203C12084790206D
:101108003FE0FD11DBEDF0020482C0FFE51120E1B4
:101118000221D0E50A701531ED400221D031D37596
:101128000A037516FFE4F515F51421D0E50A6403E2
:10113800600221D012001E400221D031D3850C82DA
:10114800850B83EFF0050CE50C7002050BEF6216BA
:101158000515E515B4081D8F14E514D39409403717
:10116800E514D394AA4002802E5131510A9001A56A
:10117800EFF08054E5156514704E120FF89001A534
:10118800E0B4030FAA0BA90C7B0111DBE5141204D0
:101198007D8F16E5166005120B9D802CC2EB900022
:1011A800F1E514F04311045311FDE4F50A9001A58B
:1011B800E0B40314E5092407F582E43508F583E073
:1011C80014F09000F1E014F0D0FF22E5F720E008D9
:1011D800E5F754C070F5FF2243F701AFF9229012EA
:1011E80017E024FF22E5F754C024FF2275FF038F80
:1011F8009875FF0322901217E060047F1001E27FC8
:10120800FF22EF24FE600C24FE600580007F01228F
:101218007F02227F032275FF0375970131F4E5975A
:1012280020E1FB75FF03AF9922E5F75406FFBF06DF
:10123800037F0822E5F75406FFBF04037F0422E575
:10124800F75406FFBF02037F02227F01229001CEDE
:10125800120850AE071FEE60229001D11208471203
:101268000508FE9001CE120847EE1205709001CFD6
:101278001203389001D212033880D822E49001B9C1
:10128800F09001AB04F02251A25006519B5002800D
:1012980001C322E5F754E024FF22E5F4C330E70157
:1012A800D322AF10EFC36001D322EF24FD60068084
:1012B800007E018002E4FEAF06229001E3EFF09089
:1012C80001A7E0FF51B29001E4EFF09001A7E024FC
:1012D800FD60130470089001E27404F0800E900120
:1012E800E27408F080069001E27402F07F011201B6
:1012F800679001E4E0FF9001E2E0FDA3E0FBE490E9
:10130800204AF0120BB050E9D322C2EBD2FB900274
:10131800551207FA90200412080A9002591207FA87
:1013280090200812080A90025DE49390200CF09037
:10133800025EE49390200DF090025FE49390200EFB
:10134800F0900260E49390200FF0D20A90025112BC
:1013580007FA120CD1E4F50AF51075114022711242
:10136800715D90026193F517900264E493F50F9014
:101378007FB2E493FFF460028F17907FB5E493FF88
:10138800F460028F0F22EF7011ED600775FF0143C3
:10139800AE012275FF0153AEFE22EFB40114901284
:1013A8001AEDF0600775FF0143AE022275FF015385
:1013B800AEFD22EF600775FF0253E6BF2275FF02FC
:1013C80043E640227BFF7DFFEF14600F1460142476
:1013D8000270188B8075FF018DFD228B9075FF01BF
:1013E8008DC9228BA075FF018DCA22AF038FB075FE
:1013F800FF01AF058FCB22902041120850EF1460F7
:10140800111460182402701E9139E580913FE5FDA2
:10141800801C9139E590913FE5C980129139E5A08A
:10142800913FE5CA80089139E5B0913FE5CB0205C7
:101438007090204402084712057075FF0190204102
:10144800020847E4F5FFAF9122E4F5FFAF9222903E
:10145800205DEEF0A3D17491D4AC00AD01AE02AF23
:1014680003C006C00790205D91EBFBAA06E4F9F8DB
:10147800D007D006D31207C07E0050047F01800237
:101488007F00C006C00791D4D0E02FFFD0E03E9087
:10149800205DF0A3EFF053ECFC90205DE0FCA3E0AE
:1014A800FDEC540342EC75FF02EDF5AF75ED0275E6
:1014B800ED04A3E0600543EC08800353ECF79020AB
:1014C80060E0600443EC042253ECFB2290205DE0D2
:1014D800FEA3E0FBAA06E4F9F87F807E387D01FCD4
:1014E800020076E0C313FEA3E0132290201A12082C
:1014F8000AE4F5FF75BB0575BB8575FF0175D50257
:101508002007087F3FFE120FB8B1E875FF0143D5E9
:1015180020300702A1C1E4F5FF538EF7438E077D03
:1015280004E4F5FF8DBCF5FF43B102E5B130E2FB01
:10153800E4F5FFAFDFEFFEACDEECFBEBFFED25E003
:101548002418F582E43420F583EEF0A3EFF0E4F5F7
:10155800FFF5FF53B1FD0DEDB40CC690201A120C27
:10156800C6FF78091207E7A3EEF0A3EFF0E4FDED5C
:1015780025E02422F582E43420F583E0C313FAA39E
:10158800E013FBB1DB91EB2BFFEE3AFEB1DBEEF0A3
:10159800A3EFF0ED240490120DF0EDC39407501959
:1015A800CFEDCF0DEFB1DCE0FEA3E0FFC390201F2D
:1015B800E09F90201EE09E50B6E4F5FF758EC8F5BA
:1015C800FF90120DE0F5BCE4F5FF75BB8075FF01D7
:1015D800F5D522ED25E02420F582E43420F5832298
:1015E800E4F5FF75C2E17F1EFED10890120FE030CE
:1015F800E707E4F5FF75C2A122E4F5FF75C2812271
:10160800CDEFCDCCEECCD14BAB94EF4BD16CCBEF37
:10161800CBFAE59130E71DD14EA994E9F582EF4563
:1016280082FFEB2DF582EA3CF583C3EF9582E5F066
:10163800958340DEE59120E709CEECCECFEDCF12C1
:101648000FB82275FF03AF93EF75F010A4FF22D1F6
:101658004BAD94EF4DD16C8FF0120676E591C33007
:10166800E701D32224FBFFE5F034FF22EFF0A3EDDE
:10167800F0A3EBF02290121080F2EF600775FF02E2
:1016880043E6102275FF0253E6EF22E5ED30E2FB58
:1016980075ED04AFEF22E5ED20E0FB8FEF22EF6060
:1016A8000443EC042253ECFB22EF600443EC0822D1
:1016B80053ECF722E5ED5402FF22E5ED5404FF2236
:1016C800E5ED5401FF22902071EBF0A3EAF0A3E9C5
:1016D800F07F017C127D01E4FE8D828C83ED2EF576
:1016E80082E43CF583E02FFF0EEEB412EC90121367
:1016F800E06F600F902071E0FBA3E0FAA3E0F9E44B
:101708001205702290206512080A75FF0190206565
:10171800A3E0FDA3A3E4FFFEE4FC78101207E78F23
:10172800E1902065A3A3E0FEA3E4FFE4FDFC7808B4
:101738001207E78FE2902065A3A3A3E0FF8FE322BF
:10174800C20675FF03759B1F75FF0390120FE020FB
:10175800E71BE59A540FC394024012E04480F0E47A
:10176800F5FF75C2A143FC0475FF03D206E5FC3002
:10177800E609E59A540FC3940540CDE5FC30E6111F
:10178800E412057075FC80F5FC75FC40E5FC20E66C
:10179800FB300603120E2522EF30E00E43F401E47D
:1017A800F5FF43A404F5FF759624EF30E10E43F4EA
:1017B80001E4F5FF43A408F5FF759624EF30E2092C
:1017C80043F402E4F5FF75961EEF30E30943F40491
:1017D800E4F5FF75961075FF01EF5403600475D7A3
:1017E800122275D72D2275FF01438E1075FF012235
:031800000201776B
:101808007FB8E4F5FF7584E6F5FF439404F5FF75AA
:10181800981422E4F5FF75933F75FF03759A4011FC
:101828000AE4F5FF759C93F5FF75A1A3F5FF75858F
:1018380031F5FF758628E5FA54304480F5FA75FFCE
:101848000175E74A75FF0275DF4975FF0143D30447
:1018580075FF0153D367E4F5FF53E6BF75FF0175C4
:10186800D825F5FF75B503F5FF75B215F5FF75BAFF
:1018780002F5FF75AFB3F5FF75CD0AF5FF75CB0817
:10188800F5FF75CA12F5FF75BF0EF5FF75CC96F515
:10189800FFF5BDF5FF75C281F5FF75AEE1F5FF7582
:1018A800DA55F5FF75F580F5FF75E903F5FF75E97C
:1018B80033F5FF75972A75FF01759B42759CA475D2
:1018C8009D29759E48759F2475A11275A312759A56
:1018D800F820090CF5FF43968090120FE04440F081
:1018E80022CCEFCCCFEDCF74017E00C8EFC80880C2
:1018F80005C333CE33CED8F9FFCDECCDEF5D601BF9
:1019080030081875FF0175DCAD75FF0175DDCDE494
:10191800F5FF759A74F5FF7594842275FF0175DCDF
:101928005375FF0175DD33E4F5FF759A14F5FF75FE
:101938009404221217EE53DB7F75FF0175D502124E
:101948000FB41217EE43DB8075FF01E4F5D522755D
:10195800FF0175E46575FF0175D64722902053EFA6
:10196800F0E4A3120E8A78011207E790205331F5AC
:1019780012080A901210E064806071E0C3947F50EE
:1019880039EB31F7C083C082120CC6FFEEC0E0EF1E
:10199800C0E0901210E075F004A4AEF0FBCAEECAE5
:1019A800EA3395E0F9F8D0E0FFD0E0FEC3EF9BFF03
:1019B800EE9AFEED99FDEC98802A902053E031F7DD
:1019C800C083C0825105901210E0F40475F004A49D
:1019D800FFAEF0EE3395E0FDFCEB2FFFEA3EFEE9AB
:1019E8003DFDE83CFCD082D08312080A22E0FB25AA
:1019F800E025E02401F582E43412F58322E0F8A31F
:101A0800E0F9A3E0FAA3E0FB2290206DEDF090123C
:101A180011E0F46005A3E0B4FF0C90206F7418F097
:101A2800A37413F08010901211E090206FF09012C0
:101A380012E0902070F012050864016002618E9037
:101A4800206DE0FE64086004EEB4040890206E7413
:101A580028F0800690206E743AF0EF120CB9FF124D
:101A680007B2E4718FEF24D8FFEE343FFEED3493D4
:101A7800FDEC3416FC7B007A80790378001200763E
:101A8800C8ECC8C9EDC9CAEECACBEFCB902070E04C
:101A9800FF90206FE0C39FFFE49400FEE4FCFD127A
:101AA8000695ECC0E0EDC0E0EEC0E0EFC0E09020AD
:101AB80070E0FFE4FCFDFE718FD0E0FBD0E0FAD0CF
:101AC800E0F9D0E0F8EB2FFBEA3EFAE93DF9E83C13
:101AD800F890206EE0FFE4FCFDFE120695EF24541A
:101AE800FFEE340B120EACE47BA87A16F9F812005C
:101AF80076CBEFCB90206DE014606314601D24FE5C
:101B0800600E24FC6002618EE4F5FF75CE3180061C
:101B1800E4F5FF75CE21F5FF8BCF22E4FAE4F5FF5B
:101B2800EA2440F5CEE4F5FFEAFFC374079FFFE41B
:101B38009400FE747D2FF58274023EF583E471975C
:101B4800C39DF5CFE4F5FFEA2448F5CEE4F5FFEAB6
:101B580090027D71972DF5CF0AEAB408C022E4F50A
:101B6800FF75CE01F5FF8BCFF5FF75CE0EF5FFEBB8
:101B780025E0F5CFE4F5FF75CE0FF5FFCFEBCFEB02
:101B880075F003A4F5CF227B64FAF9F80206959361
:101B980025E0FDE433FCEB75F010A4FFAEF0120570
:101BA80094CDEFCDEBFFE4C313EF1322E5FA30E158
:101BB800FB75FC8075FF0153D5EFE4F5FC75FC401F
:101BC800120FE9E5FC20E6FB2275FF01E5D530E6BA
:101BD80002C32253FACFEFB4080543FA308012EF5C
:101BE800B4040543FA208009EFB4020543FA1080D3
:101BF80000D322E5F45418131313541FFF2275FF62
:101C080001E5D530E602C322E4F5FF439A80EF915F
:101C180021E4F5FF539A7FD32233333354F8F5F494
:101C28002275FF018FDA22CEEFCE75FF01E5D520B0
:101C3800E602C32243FA04E4FDEDC39E50087F5533
:101C4800120B6B0D80F3E5FA543070047F0F80029D
:101C58007FF0120B6BD322919075FF03120508F5E4
:101C6800D375FF039000019187900002918790003F
:101C780003918775D40175FF03E5D55402FF22123D
:101C88000521F5D375FF032275FF0375D402229150
:101C98009075FF03E5D5F45402FF2275FF03EF5456
:101CA8003F4480F5D1E5D520E20AE5D520E005E5F9
:101CB800D530E1F1E5D55403FF75FF0375D50580EF
:101CC800C775FF03ACD5EC20E13C75FF03ED543F2D
:101CD800F5D175FF03E9F5D375FF03EA540FFF90BB
:101CE800205CE0C4547044804FF5D2E5D520E2056D
:101CF800E5D530E0F6E5D55401FC75FF0343D40281
:101D080075FF0375D505AF042275FF03AFD522EE25
:101D1800F0A3EFF0A3020850902010E0FF14F0EFBA
:011D28002298
:107FB000FFFFFFFFFFFFFFFF7FC600000000000084
:067FC000000003090000AF
:108000009001C41208501208599001CA1208501168
:108010008324051174FF540F6401704EEF20E74A6A
:10802000118324081174651D7040116B4401118087
:1080300024041174118B2408117B2409F9E43AFA01
:10804000C003C002C001118C2403F9E43AFA1208FB
:10805000799001CA116E118B2406117B24051174CD
:1080600030E607116B4404120570229001C4120817
:1080700047E92407F9E43AFA020508F9E43AFAEF85
:108080001205709001CA120847E922FF9001C4123C
:108090000847E9229001D4120850E49001D7F0A3D8
:1080A000F0FEEEC39D5021312B1174FFFB9001D7E0
:1080B000E48BF012061F5103500B312B1174FF900B
:1080C00001D7E480520E80DA31227C0012059490B0
:1080D00001D7EEF0A3EFF0D39450EE9400400B9054
:1080E00001D7E4F0A3747EF080313122C39428EEEE
:1080F0009400500B9001D7E4F0A3747DF0801C7CB9
:10810000007D9B120582EF24DAFFEE34C2FE7D640F
:108110001205E99001D7EEF0A3EFF09001D7A3E0AC
:10812000FF229001D7E0FEA3E0FF229001D41208C5
:1081300047E92E229001D9121D179001D9E0FEA324
:10814000E0AA067531018A32F533E4F5389001A5CD
:10815000E0900000F09001DB1208479001C7120880
:10816000507B007A0079311100E53820E20221FAD3
:108170009000F9E004F0E4F53074B32530F582E4C2
:108180003400F583E4F00530E530B404ECE490000D
:10819000B7F0A3F07403F09000B27401F09000BB4C
:1081A000E0900009F0AB31E533240631FB9000B9D3
:1081B000F0A3740AF09000D97408F0E53324053177
:1081C000FB30E5079000B8E04420F09000BBE539B3
:1081D000F0900000E0FF900005E4F0A3EFF0E4F57C
:1081E00030E530701512128F40F77B017A0079016B
:1081F000120A1450EC75300180E722F9E43532FAA6
:10820000020508EFB47F03D38001C3229000E77416
:1082100001F0229000E7EFF0227F2E2275FF01E5AA
:10822000A4C330E401D32230023543FA08300005FC
:1082300012093A8002E4FF120B6BE4F5FF53B1FD23
:10824000F5FF43B102E5B130E2FBE4F5FFE5B12013
:10825000E30D43FC047F017E005162511C50FCA2DF
:10826000022275FF017C0C7D351208CEE47B64FA96
:10827000F9F8120720AD07EEF5A9EDF5A775FF0196
:1082800075A41075FF0275F60275FF0175A415221D
:10829000902076EDF0A3EBF0EF7002611DA2EB925F
:1082A00001C2EBD202902076E090025D93540690DA
:1082B00001A7F0902077E0703DC20012136675FFB1
:1082C00001902078E5DEF075FF01A3E5DFF075FF92
:1082D00001E4F5DE75FF01F5DFF5FF75CE11F5FF61
:1082E000F5CFF5FF75CE21F5FFF5CFF5FF75CE3152
:1082F000F5FFF5CF800F902077E0B40108D200128F
:108300001312121368902076E0FF9001A7E0FDE4BD
:1083100090204AF0AB17120BB0402680E8A20192E1
:10832000EBC202C200E4F5FF53B1FD121BB475FFAE
:1083300001902078E0F5DE75FF01A3E0F5DF121370
:028340006622B3
:020000040001F9
:1000000090207DE07010E58020E4057401F080060A
:1000100090207D7402F090207DE0B4010C7403F018
:10002000E4FB7D017F0102015D90207DE0FF640320
:10003000601CEF64027017FF1213CC7F01114F7F19
:1000400002114F7F031213CC90207D7403F0227BAA
:10005000FF7DFF0213D02275FF01433B10433F1089
:10006000853F80853BFDE4FF0FEFB4FAFB7F012263
:07007000227F00227F002225
:00000001FF
