:020000040000FA
:1000000002180002180308F808FD0102180B0B285B
:0A0010000B3222021813383A0AE2FC
:07001B0002181B0AF648372A
:100023000218237F0722D32202182BA248923522DB
:06003300021833021D0358
:0E003B0002183BA249923822021843023A3CB6
:07004B0002184B75ED0422C1
:0700530002185375ED0222B3
:06005B0002185BAFEF226A
:060063000218638FEF227A
:07006B0002186B1240C322D2
:100073000218734105E700C135C1384105E600E0C8
:10008300020200003843E0020200022FEDE0040206
:10009300000446524545E00102001554E001020008
:1000A30016A5E0E8022568FEFEFEFEFEFEFEFEFE4D
:1000B300FEFEFEFEFEFEFEFEFEFEFEFEFEFEFEFE5D
:1000C300FEFEFEFEFEFEFEFEFEFEFEFEFEFEFEFE4D
:1000D300FEFEFEFEFEFEFEFEFEFEFEFEFEFEFEFE3D
:1000E300FEFEFEFEFEFEFEFEFEFEFEFEFEFEFEFE2D
:1000F300FEFEFEFEFEFEFEFEFEFEFEFEFEFEFEFE1D
:10010300FEFEFEFEFEFEFEFEFEFEFEFEFEFEFEFE0C
:10011300FEFEFEFEFEFEFEFEFEFEFEFEFEFEFEFEFC
:10012300FEFEFEFEFEFEFEFEFEFEFEFEFEFEFEFEEC
:10013300FEFEFEFEFEFEFEFEFEFEFEFEFEFEFEFEDC
:10014300FEFEFEFEFEFEFEFEFEFEFEFEFEFEFEFECC
:10015300FEFEFEFEFEFEFEFEFEFEFEFEFEFEFEFEBC
:10016300FEFEFEFEFEFEFEFEFEFEFEFEFEFEFEFEAC
:10017300FEFEFEFEFEFEFEFEFEFEFEFEFEFEFEFE9C
:10018300FEFEFEFEFEFEFEFEFEFEFEFEFEFEFEE0AA
:1001930001022650FFE0010226A828E001022FBB3E
:1001A300FFE001022FE900E005022FEA2FED02062E
:1001B3000A4107C9060136004107C8014107C601C4
:1001C300C13D013B00013900C14E412B9600412B3B
:1001D3008B00412B9400412B9500412B92FF412B27
:1001E300BA004128BE0041285F055D2AF4000000E3
:1001F30000000000000000000000000000000000FC
:1002030000000000000000000000C143412740003F
:10021300C111C12F014400C12BC12CC12D412E3965
:1002230005412F1100C163432B45000000412B44BE
:1002330000412B4800C139C13BC144412B6C000133
:100243005B00C129C127412B5E00412B6B00602855
:10025300261D060A000000030008F6877788CF7F73
:10026300C04FFBDFFDE06700008000808680BA0599
:10027300E87300800F000060000041216600412107
:100283007900412169004121620141216C02412130
:10029300640141239E004121610141216A114121F1
:1002A300630041239B00C146C1474128CF964128A3
:1002B300CB0FE002022FEF0039E0050230230039B3
:1002C30004060AE0020230280807E00502382A087B
:1002D3000705060AE00202382F0013E00C0238314A
:1002E3000000030800030008060A060AE0050238B6
:1002F3003D0013FF060AE002023842000000758148
:100303009075FF03759E02120820022B6D02041ED6
:10031300900076E47E019360F4A3FF543F30E50937
:10032300541FFEE493A360010ECF54E0B4E00EEF3C
:10033300FAEEF9A3A3A3A3DAFDD9FB80D654C02513
:10034300E0604B5026E493A3F85407240CC8C3334E
:10035300C4540F4420C8834004F456800146F6DF9A
:10036300E480B00102040810204080E493A3FAE47F
:1003730093A3F8E493A3C8C582C8CAC583CAF0A3EC
:10038300C8C582C8CAC583CADFE9DEE78085E493AE
:10039300A3F8E493A34003F68001F208DFF4020319
:1003A30016C2D5E830E70FB2D5E4C39BFBE49AFA53
:1003B300E499F9E498F8EC30E717B2D51203DA12AE
:1003C30010E2E4C39BFBE49AFAE499F9E498F88019
:1003D300031210E230D50DE4C39FFFE49EFEE49DBB
:1003E300FDE49CFC227890E4F6D8FD9000007F00A9
:1003F3007E10E4F0A3DFFCDEFA902F18A3E583C39D
:1004030094204011FEAF829020000E0FE48002F092
:10041300A3DFFCDEFA1208200203132232EF90045A
:100423002993900800730A20364CE55CFF22EFF510
:100433005C2209340939093E09430948094D095227
:10044300095C09610966096B097A097F09890993BE
:1004530009A7D0AB09B10A0B0A100A150A1A0A1F19
:100463000A240A290A2E0A3D0A470A5B0A600A651A
:100473000A740A790AB50ABA0ABF0C810C860C8B76
:100483000C900C950C9A0C9F0CA40CA90CAE0CB3FD
:100493000CB80CBD0CC20CC70CCC0CD10CD60CDBAD
:1004A3000CE00CE50CEA0CEF0CF40000000000007B
:1004B3003F241E16110E0B09070504030201F0C8A1
:1004C300A791776760463835323024222014000123
:1004D30001020203030404050506060707000E13C1
:1004E30084000E18FC000E225C020202003F3F3F14
:0D04F300040404323232000201900208F3CA
:100508000C040C0E0C130C180C1D0C220C2C0C36A5
:100518000C3B0C590C5E5A2D5761766520362E31EE
:1005280030002A331858281838EA822D1C1613115F
:1005380010100B910BC30BC80BCDE4FD7C0CAB0565
:100548000DEB90051E938F828E83F00FBF00010E76
:10055800DCEC01268F828E83E4F07406B17E740A87
:10056800B17EA3A3E4F0EF2404F582E43EF583E42E
:10057800F0A3746DF022A3F08F828E83A322AD07BF
:10058800901215E054FCF0E0FFED54307E0060025C
:100598007E02EF4E901215F0E0FFED7E0030E00293
:1005A8007E01EF4E901215F0229005F37402F09040
:1005B80005E6E0FF120D08B1869005F37405F022F8
:1005C8009005F1E0FF120CF99005F6EFF022900586
:1005D800F6E07F0070027F0122E49005F1F022909E
:1005E80005F17401F0229005F17402F022B1FC705B
:1005F800027F01229005F1E07F0022B1FCB40102E4
:100608007F0122B1FCB402027F012212416E120B5B
:1006180037120BEB120B789005E8E064017002C109
:10062800B87FFF12089490087A1212637E007F1533
:10063800F127BF540D7E007F16F127BFA5047F0167
:1006480080027F009005E6EFF06401704190087A1F
:1006580012125AAE02124408FEA3E0FF90087A1262
:10066800125A124C06E92407F9E43AFA90087D1266
:100678001263E92408F9E43AFE1244086406700497
:10068800A3E0640A60081208999005E6EFF0900567
:10069800E6E0701C7E007F10C006C374439410FE11
:1006A8007438122AD0D00612471DE4FFFE12089EA5
:1006B800120A5112098412090712382C3063057581
:1006C8005401802F124A5C120862124C7AFE4FFDC8
:1006D800A3E0FC4DFDA3E0FB4D600BEE5FFFEC5F7C
:1006E800FFEB5FF470031220039005EDE065549072
:1006F80005E1F0E4902C87F0902C85F0A3F001122E
:1007080075FF0275E40475E40175E402229026BEC3
:10071800E075F016A424E9F9741F35F0FEAF01E482
:10072800FCFD902DBC1212111217E3F194EF600535
:10073800122FF780F612180A600A902DBC1211E9E0
:100748007810F16A902DBCF165902DBCF1E9F18823
:10075800902DC0EFF0F1D8902DC0E0FF221211E9E2
:1007680078081211A9E4E5C820E2FB8FEB221214E5
:100778000A7FD7F16E7FFFF16EF18C902BADEFF011
:100788007FFFF16EE5C820E2FBAFEB227F01F1DDD0
:10079800305615F1EFF188902EF6EFF01214FA901A
:1007A8002EF6E020E002C256305619F176902BAEB4
:1007B800EF124C5B600BA3E0F46006EF30E702C277
:1007C800561214FAE4FFF1DDA256E433FF22F16E6B
:1007D8001214FAE4FFEFB4010443FE202253FEDFB3
:1007E800221211E9E4E16E12140A7F05E16E902BE2
:0407F8008D0211E974
:10080000C05C7408C0E0C082C083755C0AE5FF5418
:10081000CF4490F5FF22C05C7408C0E0C082C08362
:10082000755C20E5FF54CF4490F5FF22C05C74084E
:10083000C0E0C082C083755C36E5FF54CF44A0F5AC
:10084000FF22C05C7408C0E0C082C083755C4CE5C8
:10085000FF54CF44B0F5FF2290800401169081E947
:1008600001169083AD01169084AC01169081310180
:10087000169085A50116908D14011690A4530116AB
:1008800090A4560116908CA20116908BF50116903B
:10089000A519011690B526011690B242011690B620
:1008A00012011690B057011690C8D6011690D01AB2
:1008B000011690D7DB011690D893011690D8AA01A3
:1008C0001690D053011690A7DF011690A7CC011601
:1008D00090A4BD011690DFD5011690DFF8011690A7
:1008E000E2CF011690A1E7011690D70F011690DE16
:1008F00046011690A76E011690E46D011690A4E6CD
:10090000011690E4B3011690CBBF011690D9FE01F9
:100910001690C51C011690C440011690CFD2011646
:1009200090E744011690E205011690E151011690FE
:10093000D337011690E747011690E75D011690D076
:1009400099011690E76B011690D6BE011690E6D07D
:10095000011690D782011690E772011690E7D10137
:100960001690E955011690E95F011690EB6A0116A1
:1009700090BA00011690ACA0011690D71D011690F8
:10098000EBAF011690BCE9011690E41F011690EA46
:10099000E4011690E44F011690EC3B011690C76EEF
:1009A000011690C5A9011690D116011690D0AF017D
:1009B0001690D3A2011690D126011690EC73011661
:1009C00090EC8A011690EC92011690D201011690DB
:1009D000D207011690ED2B011690D676011690A83D
:1009E00034011690B95B011690E924011690E8B322
:1009F000011690E922011690E870011690E939017C
:100A00001690D743011690ED47011690AD2E0116B2
:100A100090AF98011690B7D6011690EFB3011690DB
:100A2000BDD9011690EFC2011690EFF6011690BDE8
:100A3000A6011690CC140116908E6B011690A81C7E
:100A4000011690DD1A011690DC73011690DB0A0185
:100A50001690F06B011690F089011690F1E80116DE
:100A600090F1F5011690A892011690C9FB0116901D
:100A70008C3C011690D35D011690BE81011690F258
:100A8000AD011690D3C0011690F2C1011690E9860F
:100A9000011690F2D8011690BC5B011690C9B30103
:100AA0001690F2DB0116908CFE011690F2DE011614
:100AB00090C9A8011690C8DF011690F30F01169097
:100AC000F320011690DF19011690DCD9011690D59C
:100AD000F9011690D5B3011690EF2D011690EE3264
:100AE000011690F39601169083ED011690D8D3016C
:100AF000169085AC011690F461011690F4980116D9
:100B000090EDF9011690ED4E011690EDCD01169085
:100B1000F4B5011690F4FA011690F52E011690F630
:100B20002A011690F582011690F6A4011690801401
:100B300001169081FE011690F7030116909FD801CF
:100B40001690A04E011690F717011690AD9A011657
:100B5000908111011690A4FC011690F7490116909E
:100B6000B2BF014290B2FA014290B34F014290B439
:100B700045014290B478014290B5B2014290B0C7AD
:100B8000014290B7CA014290B152014290B00D01AA
:100B90004290B867014290B868014290A72D014287
:100BA0009092A1014290B8C4014290B8F5014290E0
:100BB00091A2014290A888014290A8080142908D1C
:100BC0009F014290B9A2014290B9BA0142908C2093
:100BD000014290B9BB014290B9CD014290BA1801CF
:100BE0004290BC010142908000014290BCA30142AE
:100BF00090BCB6014290BDB6014290ADDC0142907E
:100C0000BDEB014290B7A8014290BDC2014290BD28
:100C1000EE014290BB58014290BB29014290BE2296
:100C2000014290ADF0014290BE09014290B921010C
:100C30004290AE78014290BE30014290BF750142B1
:100C400090BE6D014290BFD6014290BCE901429036
:100C5000BEA1014290BA46014290C03D014290AC13
:100C600063014290AEEA014290BAB3014290C03EA5
:100C7000014290BAA6014290B3A1014290B60E0182
:100C80004290A01D012C909F43012C90A027012C85
:100C900090A14F012C90A16F012C90A184012C9068
:100CA000A1A0012C90A1AA012C909D67012C90A1DC
:100CB000B4012C90A1DF012C90A278012C90A1BE50
:100CC000012C90A332012C90A250012C90A25A0129
:100CD0002C90A2D6012C90A390012C90A264012C00
:100CE00090A26E012C90A3B3012C90A3F4012C9040
:100CF000A43F012C90A46F012C9083AC012C90A5F3
:100D000051012C90A552012C908000012C90A590AF
:100D1000012C909985012C909E4F012C909F0001F1
:100D20002C909CEF012C90A5C0012C00E709F6083F
:100D3000DFFA8046E709F208DFFA803E88828C837A
:100D4000E709F0A3DFFA8032E309F608DFFA8078DA
:100D5000E309F208DFFA807088828C83E309F0A34C
:100D6000DFFA806489828A83E0A3F608DFFA80587C
:100D700089828A83E0A3F208DFFA804C80D280FA6D
:100D800080C680D4806980F28033801080A680EA9B
:100D9000809A80A880DA80E280CA803389828A8340
:100DA000ECFAE493A3C8C582C8CCC583CCF0A3C831
:100DB000C582C8CCC583CCDFE9DEE7800D89828A95
:100DC00083E493A3F608DFF9ECFAA9F0EDFB22899E
:100DD000828A83ECFAE0A3C8C582C8CCC583CCF074
:100DE000A3C8C582C8CCC583CCDFEADEE880DB8936
:100DF000828A83E493A3F208DFF980CC88F0EF6065
:100E0000010E4E60C388F0ED2402B4040050B9F521
:100E100082EB2402B4040050AF2323458223900DBB
:100E20007C73BB010689828A83E0225002E722BBE1
:100E3000FE02E32289828A83E49322BB010CE582CD
:100E400029F582E5833AF583E0225006E92582F808
:100E5000E622BBFE06E92582F8E222E58229F58238
:100E6000E5833AF583E49322BB010989828A83F8FA
:100E7000E028F022500327F722BBFE05F8E328F311
:100E8000228A838982F8E4932822BB010FF8E58245
:100E900029F582E5833AF583E028F0225009C582DE
:100EA00029F8E58226F622BBFE09C58229F8E2254B
:100EB00082F222F8EA2583F583E9932822BB010612
:100EC00089828A83F0225002F722BBFE01F322F8C6
:100ED000BB010DE58229F582E5833AF583E8F0222E
:100EE0005006E92582C8F622BBFE05E92582C8F234
:100EF00022EF8DF0A4A8F0CF8CF0A428CE8DF0A422
:100F00002EFE22BC000BBE0029EF8DF084FFADF059
:100F100022E4CCF875F008EF2FFFEE33FEEC33FC43
:100F2000EE9DEC984005FCEE9DFE0FD5F0E9E4CE79
:100F3000FD22EDF8F5F0EE8420D21CFEADF075F048
:100F400008EF2FFFED33FD4007985006D5F0F22251
:100F5000C398FD0FD5F0EA22C2D5EC30E709B2D52F
:100F6000E4C39DFDE49CFCEE30E715B2D5E4C39FDD
:100F7000FFE49EFE120F03C3E49DFDE49CFC80038E
:100F8000120F0330D507C3E49FFFE49EFE22C5F095
:100F9000F8A3E028F0C5F0F8E58215827002158309
:100FA000E038F022A3F8E0C5F025F0F0E5821582E4
:100FB00070021583E0C838F0E822BB010A89828AF2
:100FC00083E0F5F0A3E022500687F009E71922BB81
:100FD000FE07E3F5F009E3192289828A83E493F599
:100FE000F074019322BB010789828A83020F8E501D
:100FF0000B09C5F027F7C5F01937F722BBFE0D091D
:10100000F8E325F0F3C5F019E338F322F889828A72
:101010008374019325F0C5F0F8E4933822BB010AEC
:1010200089828A83F0E5F0A3F0225006F709A7F041
:101030001922BBFE06F3E5F009F31922EF2BFFEEB0
:101040003AFEED39FDEC38FC22C3EF9BFFEE9AFE31
:10105000ED99FDEC98FC22E88FF0A4CC8BF0A42C49
:10106000FCE98EF0A42CFC8AF0EDA42CFCEA8EF0B6
:10107000A4CDA8F08BF0A42DCC3825F0FDE98FF09D
:10108000A42CCD35F0FCEB8EF0A4FEA9F0EB8FF094
:10109000A4CFC5F02ECD39FEE43CFCEAA42DCE351C
:1010A000F0FDE43CFC2275F008758200EF2FFFEEA6
:1010B00033FECD33CDCC33CCC58233C5829BED9A84
:1010C000EC99E58298400CF582EE9BFEED9AFDECE2
:1010D00099FC0FD5F0D6E4CEFBE4CDFAE4CCF9A828
:1010E0008222B800C1B90059BA002DEC8BF084CF30
:1010F000CECDFCE5F0CBF97818EF2FFFEE33FEED07
:1011000033FDEC33FCEB33FB10D703994004EB9930
:10111000FB0FD8E5E4F9FA227818EF2FFFEE33FE43
:10112000ED33FDEC33FCC933C910D7059BE99A4078
:1011300007EC9BFCE99AF90FD8E0E4C9FAE4CCFB90
:101140002275F010EF2FFFEE33FEED33FDCC33CCE4
:10115000C833C810D7079BEC9AE899400AED9BFD6D
:10116000EC9AFCE899F80FD5F0DAE4CDFBE4CCFA80
:10117000E4C8F922C3E49FFFE49EFEE49DFDE49CE5
:10118000FC22EB9FF5F0EA9E42F0E99D42F0EC6410
:1011900080C864809845F022EB9FF5F0EA9E42F00B
:1011A000E99D42F0E89C45F022E8600FECC313FC97
:1011B000ED13FDEE13FEEF13FFD8F122E8600FEF01
:1011C000C333FFEE33FEED33FDEC33FCD8F122BB2D
:1011D000010789828A830212115005E9F80213C9B6
:1011E000BBFE05E9F80213D522E0FCA3E0FDA3E075
:1011F000FEA3E0FF22E493FC740193FD740293FECE
:10120000740393FF22E0F8A3E0F9A3E0FAA3E0FB64
:1012100022ECF0A3EDF0A3EEF0A3EFF022A882857C
:1012200083F0D083D082121234121234121234128C
:101230001234E473E493A3C583C5F0C583C8C582A3
:10124000C8F0A3C583C5F0C583C8C582C822A4253C
:1012500082F582E5F03583F58322E0FBA3E0FAA373
:10126000E0F922EBF0A3EAF0A3E9F022E493FB74A7
:101270000193FA740293F922BB010789828A8302DF
:10128000125A5005E9F80213E1BBFE05E9F8021312
:10129000F389828A8302126CBB011A89828A83D005
:1012A000F0D0E0F8D0E0F9D0E0FAD0E0FBE8C0E020
:1012B000C0F00212635016E9F8D083D082D0E0F972
:1012C000D0E0FAD0E0FBC082C0830213EABBFE1676
:1012D000E9F8D083D082D0E0F9D0E0FAD0E0FBC0CA
:1012E00082C0830213FC22BB010DE58229F582E551
:1012F000833AF58302125A5007E92582F80213E176
:10130000BBFE07E92582F80213F3E58229F582E5A1
:10131000833AF58302126CBB0120E58229F582E550
:10132000833AF583D0F0D0E0F8D0E0F9D0E0FAD0FD
:10133000E0FBE8C0E0C0F00212635018E92582F833
:10134000D083D082D0E0F9D0E0FAD0E0FBC082C0F8
:10135000830213EABBFE18E92582F8D083D082D03D
:10136000E0F9D0E0FAD0E0FBC082C0830213FC2297
:10137000D083D082F8E4937012740193700DA3A30C
:1013800093F8740193F5828883E473740293686020
:10139000EFA3A3A380DF8A838982E473EC8EF0A499
:1013A000CCC5F0CCCDF8EFA4CEC5F02DFDE43CFCCF
:1013B000E8A42EC8C5F03DFDE43CFCEFA4FFE5F039
:1013C00028FEE43DFDE43CFC22ECF608EDF608EED8
:1013D000F608EFF622ECF208EDF208EEF208EFF272
:1013E00022E6FB08E6FA08E6F922EBF608EAF60838
:1013F000E9F622E2FB08E2FA08E2F922EBF208EA57
:10140000F208E9F2227F011207DD902BB2E0717041
:10141000142C04143414143915143E17144E3014BB
:101420005334145836145D3700001446531CEF85AE
:101430001C80802F531DEF8008531DDF8003531D38
:101440007F851D90801D531EDF851EA08015531FB4
:10145000FE800D531FEF8008531FBF8003531F7F73
:10146000851FB07F0CDFFE227F011207DD902EF575
:101470007401F0902EF5E060321207EF12078890A9
:101480002EF5EFF091FA120776902BAEEFF091FA6D
:10149000902EF5E05401124C5B60D8A3E0F460D3C9
:1014A000EF30E7CFE4902EF5F080C8910A7F9F12CD
:1014B000076E120788902BAF120786902BB4120785
:1014C00086902BB5EFF01207D8902BADE0F4601B9F
:1014D000A3E0F46016902BB4E0FD541F240FA3F09A
:1014E000EDC41354074480902BB4F0227F011207FF
:1014F000DDD256910A7F0612076E1247ECEF70FAA2
:10150000902BB4E0F4600B902EF47406F0124C6350
:1015100070FB902BB2E07170153404153C1415412A
:1015200015154617155630155B3415603615653799
:101530000000154E431C10851C80802F431D108019
:1015400008431D208003431D80851D90801D431E80
:1015500020851EA08015431F01800D431F108008A9
:10156000431F408003431F80851FB0902EF4740CEE
:10157000F0124C6370FB22F1E3120794EF60051246
:101580002FF780F591EC910A7F0112076E7F03120D
:10159000076E91FAE4FF0207DD902DC15111902DE5
:1015A000C131E912072A902DC5E06F603CF1E312CA
:1015B0000794EF6005122FF780F591ECF1CE121829
:1015C00014600A902DC131E9781012076A902DC17C
:1015D000120765902DC11207E9902DC5E0FF120793
:1015E000D6902BB17401F0D322C322902C885111D4
:1015F000902C8C5163F1E3120794EF6005122FF7E2
:1016000080F591ECF1CE121814600A902C8831E923
:10161000781012076A902C88120765902C8831E99F
:10162000E48022902C8F124653601F902C8C515ACC
:10163000E94A600F120E22FF12076E902C8D121DC8
:101640002B80E0E4FF12076E80D91207D8902BB1EF
:101650007401F022902BCB5111902BCF5163902B22
:10166000CB31E9902BB7E024FFFD902BB6E034FF9F
:101670005EFEED5FFF902BD4EEF0A3EFF04E606BBB
:10168000F1C5C3902BB7E09FFF902BB6E09EFE9074
:101690002BD4F0A3EFF0902BD2124BCB9FEC9E50AB
:1016A00006A3ECF0A3EDF0F18C124551602D12462B
:1016B000CE5105113CC004C005C006C007F18CE93D
:1016C0004A6005F1D6FF80027F007E00F18C124A4D
:1016D000F3D007D006D005D004B1EBF168E94A6039
:1016E00004F1C580767E007F008070902BD2E0FEF2
:1016F000A3E0FF4E6070902BB6124BCBEF9DEE9C9B
:10170000400A902BD4ECF0A3EDF0800D902BD2E0AA
:10171000FFA3E0A3CFF0A3EFF0F18C124551602DB1
:101720001246CE5105113CC004C005C006C007F1E9
:101730008CE94A6005F1D6FF80027F007E00F18CC3
:10174000124AF3D007D006D005D004B1EBF168E916
:101750004A6004F1C580047E007F00902BD0EE8F9C
:10176000F0120F8E8085D322902BD4E0FEA3E0FFF1
:10177000C3902BD3E09FF0902BD2E09EF0902BCB28
:101780005105E4FCFD113C902BCB5111902BCF4126
:101790005AEFF4045FFFE4FEEF70037FFF22EFD304
:1017A000940F4009EFC4540FFFEE4404FEEFD394AE
:1017B00003400AEF1313543FFFEE4402FEEF30E103
:1017C000010EAF0622902BD4E0FEA3E0FF22910A87
:1017D000902BB0E0FF22902BD8E0FFF191EFC433C3
:1017E00054E02275FF02E5E430E10675E40675E495
:0717F0000322902D54415A21
:10180000020301E4FF0207DD7FB87F011207DD124A
:10181000140A7F0312076E902BB3E064022275C88E
:021820000122A3
:06182300024023AF4E223B
:10182B0002306B75FF0275E404E4F5E422D2091271
:0B183B0008B79005F4EEF0A3EFF022D8
:10184B00A132200D0511387F01227F002212386D45
:10185B00EF70087FA07E0FFDFC01FD1238D2902B9C
:10186B008CEFF07406D39F406BE0605C1228107E07
:10187B0000902B8CE014FDE5F0A805088005C33320
:10188B00CE33CED8F9FF124C73319C902B8D1212A4
:10189B0005C000C001C002C003902B8CE014FF7484
:1018AB00107E00A807088005C333CE33CED8F9FFCE
:1018BB00EE3395E0FDFC31A8121057D003D002D0C7
:1018CB0001D00012103C802A122810AFF07E0012BB
:1018DB004C73801E902B94E0FF600FE4FCFDFEFB2D
:1018EB007AF47901F812105780087F007ED07D07BB
:1018FB007C00319C1238A47E287F18C006C00712CA
:10190B0007F6122AB6D007D006122A1C12387EEF21
:10191B00703E31A2D31211984007E47F01FEFD8087
:10192B002531A21210E2319C1207F6E47B01123A28
:10193B00AD50151207F6C3EF9401FFEE9400FEEDC8
:10194B009400FDEC9400319B1207F6123A691138A2
:10195B0022900904EFF0A3EDF05402901234F01131
:10196B004DEF7002C322900904E0B40412A3E0FB14
:10197B007D017F01123A0F9009047403F0800690E9
:10198B000905123A09900904E09005E7F0D322FD0E
:10199B00FC902B8D021211902B8D1211E9E47BE838
:1019AB007A03F9F822902D58E024FC700241C814F8
:1019BB00700241C114700241B014700241E9240657
:1019CB0060026104E53660026104C2EB1217F21289
:1019DB000BF0902EC2EFF0E53730E00241AD12472D
:1019EB003160057F01122F53902EC27A2E79C3F1ED
:1019FB00674004D2EBA119902EC2E0F1F9E0FF9001
:101A0B002EC3E0D39F4002E1EC902D57E0640F70A2
:101A1B0029902EC2E0FF902D547108FD902D54F1AA
:101A2B000AFB123658902EC3EFF0E0FF7005D2EB95
:101A3B00D21F22EFB40203D2EB221234C61217F2DA
:101A4B00E924E2710EFF902D54B10CFDACF0E4FBD8
:101A5B0012360EC24A902EC2E09008F1F0E4FFFE5F
:101A6B00123209503AD2EB902D587402F0123645CF
:101A7B007E00E4FCFD7BD07A127913F812105731FB
:101A8B00A81203A4AB07AA06902EC2E0FF7D031297
:101A9B0036FB7E387F3A7D147C00120BA58003D277
:101AAB00EB22D2EB22E53720E52DE53730E0287F1E
:101ABB0001122F538021902D587401F0221217F22E
:101ACB00E924EF710E600774FF120E687009120B98
:101ADB009B1217F2020B5A902D587403F0221236F8
:101AEB002FD21F1217F2F1F3122AD9902D54121282
:101AFB0063E4902D58F0120BBE229008CC12125AB0
:101B0B00E924B9F9E43AFA020E229008CC121263D6
:101B1B00D24BC2EBE536600281F2E53730E202C30D
:101B2B002291FB24EC124A8B1237AFA2ED923CC2EE
:101B3B00EDB1095460603691FB2403710E20E12D49
:101B4B00902D58E064046025902D57740FF0900889
:101B5B00CC12125A902D54121263122AD9F1F3900F
:101B6B002D587405F031B0A23C92EDD322F10754FD
:101B7B000FFFBF0111E924ED710E700A90121AE0EC
:101B8B009008CFF0800E9008CC12125A120BF090E6
:101B9B0008CFEFF0E53720E05C1230F140057F0114
:101BAB00122F539008CF7A0879D0F167E43391FA6A
:101BBB0024EDF9E43AFA7401120E68EF70028031E9
:101BCB009008CFE0FFF1F9E0FE9008D0E0D39E4003
:101BDB0004F1ECC3227105FDF107FB123658900896
:101BEB00D0EFF0E0FF7006D2EBD21F81D9EFB40239
:101BFB0004D2EB81D9B1095460600E91FB240371BF
:101C0B000E20E105E4902D58F01230F15004C2552E
:101C1B00F11E1234BAE5D120E0FBE4F53091FB2440
:101C2B0008F9E43ACFE9CFF5318F3291FB24B1714A
:101C3B000EF538AE3112478791FB24B1710E91FA34
:101C4B0024E1710E2FFFE433FEEF2401FFE43EFE8F
:101C5B00710512346450057401120E6891FB24B2A5
:101C6B00F9E43A8B40F541894291FB24E1710EF581
:101C7B0043B10954079007C8F075360891FB24B29D
:101C8B00F9E43AFA12348F91FB24E1710EFFAD386F
:101C9B001247A37B01E4FDFF124753E4F5FFE5D2A6
:101CAB005480440CF5D29008CFE0FF71052418FB4B
:101CBB00E433FA7D031236FBB109FFAEF0A24B926F
:101CCB004A9008CFE09008F1F01232094006A23C8E
:101CDB0092EDC3229008CFE091FA24F1123FDBA2E0
:101CEB003C92EDD2EBD322A23C92EDD2EBC322FF7E
:101CFB009008CC12125AE92275FF028FE32290084A
:101D0B00CC12125AE92404F9E43AFA020FBAC3903E
:101D1B0007D0E094FF9007CFE094FF5002B12B2245
:101D2B00E475F001020F8EC0E0C0F0C083C082C02A
:101D3B00D075D008C0FF75FF01E5D530E6047F02F2
:101D4B008009E5D57F0030E7027F018F3AE53A64E1
:101D5B00026002A1F1E5361213701D7E011D910286
:101D6B001DDE081D9C091DA70A1DB50B1DD30C00FC
:101D7B00001EFA75FF0175C355153CE53C6002C1A9
:101D8B00FA753602C1FA75FF0175C3F0753609C1D4
:101D9B00FA75FF0175C35575360AC1FA75FF0190C7
:101DAB0007DBE0F5C375360BC1FA75FF019007C76A
:101DBB00E0F5C3753601753C089007EA124B0960D4
:101DCB0002C1FA75360CC1FA902D587406F07536AF
:101DDB0000C1FAC2EB7536004337041236374002A6
:101DEB00C1FAB12BC1FAE53A64016002C1FA123EA5
:101DFB007D4002C1FAE530705475FF01F5EA75EAD2
:101E0B00FF9007CA12125AE5D9120EBD124B7CE095
:101E1B00900916F0123E3C1235FA9007C6EFF0907F
:101E2B000916E0FFD394094051EFD394AA400280E6
:101E3B0049900916E0F538123E3190121AEFF07501
:101E4B00FF00900916E0F5D9753003C1FAE530644F
:101E5B00036002C1FA9007CAF10AFFE92401123F9D
:101E6B00DB75FF00E5D330E016C39007D6E094FF97
:101E7B009007D5E094FF5002B12B1231AE8070C2A7
:101E8B0055F11E75FF001234BDE5D120E0FBC2EB0E
:101E9B00433702F117A3E0FF9005ECE0FEEF6EF184
:101EAB0016E09005EBF110A3A3E09005EDF110A364
:101EBB00A3A3E0FE9005EEE0FDEE6D4F6011C39025
:101ECB0007D8E094FF9007D7E094FF5002B12BC3E3
:101EDB009007D2E094FF9007D1E094FF5002B12B12
:101EEB007530001538124B7CE538F09005EAF0D0D0
:101EFB00FFD0D0D082D083D0F0D0E0329008CC127B
:101F0B00125A020E22FEE0FDEE6D4FFF85328285E6
:101F1B00318322902EF3E5F4F0E0547FF5F47F82C9
:101F2B007E00123B641225081224F65005E5FC20B6
:101F3B00E6F6305508902EF3E04480F5F4122501B7
:101F4B001224F65005E5FC20E6F675FF01E5D520D9
:101F5B00E702C322E5F4D330E601C322E0FF7B01A5
:101F6B00902E0FEFF0A3123BFD75FF01124731606E
:101F7B0002C322E5F430E602C3227FE87E03122778
:101F8B0002122508123E66400122C255F11E902E08
:101F9B000FE0FF12318453F4DFD255F11E7F787EB0
:101FAB000012273875FF0153E4BFE5E430E7FB125D
:101FBB004BD27F8A1227E830E606123BF1E4800809
:101FCB0075FF01123BF1E5D9120EBD75FF0143E41C
:101FDB0040124C6B400343F420123E66400122D367
:101FEB0022D2EBB119D21F22902B4502126324A0EF
:101FFB00F582E43407F58322E4FF122F53EF603AA6
:10200B00124A7811465005124C4B40F47B017A056D
:10201B0079ED1146500F124C7A5FFFA3E05FFFA3DF
:10202B00E05FF460E77F01122F537554017E007F50
:10203B0008124A78124BAC12471822902C16123BFE
:10204B00FD902C1C12121D00000001902C2074011D
:10205B00F0F5FFE5D554C070051230F15002C322E4
:10206B00E4F5FF53967F75FF0175D5047F3FFED1D5
:10207B002575FF0143D508E4F5FF5394FBF5FF539A
:10208B00847FF5FF7598FF902C1AE5F4F075F49C9E
:10209B0075FF01A3E5E4F075E4257B017A2C79202B
:1020AB00123BBF902C20E0640160022174F5FF907D
:1020BB002C197414F0902C1C31A3FF78011211BC55
:1020CB00902C1C121211E5A730E1FB43A702902CB8
:1020DB001C31A3FFE5A730E005E47B018002E4FBA4
:1020EB00FAF9F8EF4BFFEE4AFEED49FDEC48FC9098
:1020FB002C1C121211902C19E014F070B8902C1C9F
:10210B0031A3FF78101211A97B6D7A4E79C67841F5
:10211B00121057EF2439FFEE34307130FCE4FBFA28
:10212B007901F81210E2EE547FFEE4FDFC12349BB1
:10213B00902C1C31A3FFEB6FFFEA6EFEE8CDEFCDC9
:10214B00CCEECCECFF902C16123BF4EF120EBD90A4
:10215B002C16123BF4900001ED120ECF90120FE0F3
:10216B0030E606E4F5FF75968075FF01E4F5D59032
:10217B002C1AE0F5F475FF01A3E0F5E4123CAC90EA
:10218B002C20E0B40103D38001C32225E025E024F9
:10219B0001F582E43412F583E0FCA3E0FDA3E0FE3D
:1021AB00A3E022902B1112121175FF0243E1801252
:1021BB003DEAF11F902B2612121D002DC6C0E4F52F
:1021CB00FFF5A490120EF0A3F0902B217402F0F106
:1021DB00E0FFF595EF14601314601C240270279038
:1021EB002B1131A391E8902B1D8016902B1531A349
:1021FB0091E8902B1E800A902B1931A391E8902B1C
:10220B001FE0902B2AF0123DDD902B2AE0700FF58A
:10221B00FFF59675FF0175D70975F4188059901263
:10222B000EE004F0902B21E0123475902B2631A395
:10223B00FF902B22F1F9C3121198500A902B2231E7
:10224B00A3FFA3121211902B2AE0FF123C5E902BDE
:10225B0020E0FFA3E0FDA2539251123D8BA331A3CB
:10226B00FF902DB8121211902B21E0FF9142902B71
:10227B0021E03196FFF194F1F0600221DA7402F063
:10228B00F1E0F595E5F454077017902B26710E913C
:10229B00E2902B2191D4F583121211EB3196FFF1C1
:1022AB0094F1F070DB75FF03759580124C6B400356
:1022BB0043F420A2539252123CBD902B2631A324FF
:1022CB0020FFEE344E7130FCE4FB7A04F9F8711EFA
:1022DB0091E2C250B13DE4F5FFE5BD54F84404F57D
:1022EB00BD9012137401F07E127F01E4FD8F828E7C
:1022FB0083EF2D124C53FC901213E02CF00DEDB428
:10230B0012EB22FF7E04FDFCE0F8A3E0F9A3E0FA58
:10231B00A3E0FB121057E47B7DFAF9F81210E2EF01
:10232B002401FFE43EFEE43DFDE43C22902D14121B
:10233B003F22EBF0902D1A7401F0C254B10191F6CB
:10234B005005E5FC20E6F7B10FBF0108E4F5FC757D
:10235B00FC408007B10FBF0202D32275FF0153D897
:10236B00EF902D15E0FF123E0775FF0153D5DF539C
:10237B00FAFB902D14E0FF123184902D15E0902D77
:10238B0014B4080AE031962452712DFC8004E0311C
:10239B0096FFF194902D16E0FF123E6075FF0175CC
:1023AB00FF03759B04B10175FC42E5FC20E1049130
:1023BB00F640F4902D17E0F075FF03E59B20E70442
:1023CB0091F640F4E59B20E70D75FF03759B1F12FB
:1023DB003DEAD254804E91EF123BBF902D15E0FD9C
:1023EB0090120FE05D701C902D14E0FF91EF1232F4
:1023FB00D490120FE0FF902D15E0FEEF4E90120FD0
:10240B00F051ECF1797B017A2D7918123B96500F34
:10241B00C3902D19E09420902D18E0940340E69181
:10242B00EF123C06D129305402613F902D1AE0B4D3
:10243B000103D38001C322902DB7EFF0E4A3710EFB
:10244B0091E2902DB791D4F583121211901210E0F6
:10245B0064806074E0C3947F503AEB91D6F583C0EF
:10246B0083C08231A3FFEEC0E0EFC0E0901210E01A
:10247B0075F004A4AEF0FBCAEECAEA3395E0F9F8A6
:10248B00D0E0FFD0E0FEC3EF9BFFEE9AFEED99FD8F
:10249B00EC98802C902DB7E091D6F583C083C08249
:1024AB00F1F9901210E0F40475F004A4FFAEF0EE15
:1024BB003395E0FDFCEB2FFFEA3EFEE93DFDE83CEA
:1024CB00FCD082D08312121122E0FB25E025E02400
:1024DB0001F582E4341222FC78010211A9FF902B42
:1024EB00220212117B017A2D791A2275FF03E591D5
:1024FB00C330E701D3227FE87E03123B6475FF03F1
:10250B00439180227FFA7E00F102B108E5FC30E6B0
:10251B000491F640F7E5FC30E6037F032275FF01DB
:10252B00E5D530E6037F0222E5D57F0030E7027F59
:10253B000122902B75121211E4F5FF75BB0575BBCB
:10254B008575FF0175D5022050077F3FFED125F120
:10255B007975FF0143D520305002C107E4F5FF53D5
:10256B008EF7438E077D04E4F5FF8DBCF5FF43B179
:10257B0002E5B130E2FBE4F5FFAFDFEFFEACDEECE2
:10258B00FBEBFFED25E02473F582E4342BF583EEB2
:10259B00F0A3EFF0E4F5FFF5FF53B1FD0DEDB40C37
:1025AB00C6902B7531A3FF78091211A9A3EEF0A3E6
:1025BB00EFF0E4FDED25E0247DF582E4342BF5838B
:1025CB00E0C313FAA3E013FBF1CC123F172BFFEE82
:1025DB003AFEF1CCEEF0A3EFF0ED240490120DF0E7
:1025EB00EDC394075016CFEDCF0DEFF1CD124BB3DA
:1025FB00902B7AE09F902B79E09E50B8E4F5FF7515
:10260B008EC8F5FF90120DE0F5BCE4F5FF75BB80AD
:10261B0075FF01F5D5227F147E00F102B10875FF1D
:10262B0003E59120E7FB22E4902E07F0A304F0E4EE
:10263B00902E0AF0E5FA30E1FB75FF01E5D530E7A6
:10264B00037F0022E4F5FF75E50875FF0153D8EF12
:10265B00E5D530E61A75FF01902E09E5DAF0E4F5C1
:10266B00DA75FF01E5D630E3FB902E0A7401F075A5
:10267B00FF03759B0475FC4175FF03E59B30E7FB7E
:10268B00E4FB75FF038B95EB3196FFF1940BEBB4E9
:10269B0003F075FF03759580E4F5FF758EC8F1792E
:1026AB0075FF0153D5FBF1D9D12175FF0143D5043A
:1026BB00902E0AE07006F1D97FC8D1237B017A2EC8
:1026CB007908123C06902E08E0902E077006E04425
:1026DB0004FF8002E0FF902E07EFF090120EE0B4A3
:1026EB00010675FF0143D81075FF01902E09E0F527
:1026FB00DA902E07E0FF2275FF03D3EF9402EE94DE
:10270B0000400874FE2FFF74FF3EFEEFF592EE546F
:10271B000FF59122F1C253DB7F75FF0175D502D105
:10272B0021F1C243DB8075FF01E4F5D522CDEFCD5E
:10273B00CCEECC123BABAB94EF4B123BB7CBEFCB0E
:10274B00FAE59130E71A123BAEA994E9F582EF4511
:10275B0082FFEB124C0EC3EF9582E5F0958340E1BF
:10276B00E59120E708CEECCECFEDCFD12522E4F5D5
:10277B00FF75C2E17F1EF1E830E707E4F5FF75C294
:10278B00A122E4F5FF75C28122902E03121211755E
:10279B00FF01902E03A3E0FDA3A3124B9A8FE190B0
:1027AB002E03A3A3E0FEA3124B908FE2902E03A364
:1027BB00A3A3E0FF8FE32275FF01438E1075FF018A
:1027CB0022ED25E0247BF582E4342BF5832275FF83
:1027DB0003E4F5912275FF03902B21E022FEF138E3
:1027EB0090120FE022902B21E0FF14F0EF22E0F883
:1027FB00A3E0F9A3E0FAA3E0FB229005E1E064AAD1
:10280B002411FFF0221105EF75F0A08422512590C1
:10281B002B91E0B4020A5115902B917403F001C671
:10282B00902B91E064037079902B93E06056902B82
:10283B0095E0B40105120B05800A902B95E0B402CC
:10284B0003120B0A902B93E014F0E0601F1105EFBD
:10285B0075F04684E5F075F064A4FFEF24A0FFE566
:10286B00F0340FFEE433FDE433FC8007E47FA07EFD
:10287B000FFDFC902CD01212117E287F18E4902CA7
:10288B00D4F0411C902B917401F011C6902B9874CD
:10289B00FDF0902B977407F07B017A2B7997020D43
:1028AB000D902B91E0B4040F519AEF600751D9E4CE
:1028BB00FF021858120B05227401F0902B91E06463
:1028CB000270207C2A7D337F011209C57E287F1878
:1028DB00C006C007E47FD07E07FDFC51B6D007D001
:1028EB0006411C902B91E064037018FFFE12199A9D
:1028FB00902B95E07C2A7D33B402047F0380117FFB
:10290B0002800D902B91E0B4040B7C2A7D337F0465
:10291B001209C50118902B91E0B4010B51155125EB
:10292B003133E4902B91F022901215E05403F022F6
:10293B00902D06EFF0C24E120A9CEF5423642060D8
:10294B0023902B91E0601D7B017A2D790751065165
:10295B0091902D077406F0A3E554F07B017A2D7945
:10296B0007120D0D902D06E0607D510CE0600211F9
:10297B00C3902D06E0FFB40107902B9574018009DD
:10298B00EFB40310902B957402F03133902B9374AA
:10299B0004F0804BEF64047038120A9CEF5423FF51
:1029AB00BF2013D24E51AAEF7004313351A2902B9A
:1029BB00917404F08035120A9CEF5432FFBF020C65
:1029CB009005E8E0B40505E4F0120B0031337F000D
:1029DB0022902D06E0B40213E4902B93F031339048
:1029EB002B917402F08004510C04F011C6902B91C2
:1029FB00E07F0060027F012212125A902D2D0212ED
:102A0B0063E4902B95F0902B9122E4FDFCFF0209DF
:102A1B00C51208B2902B96EFF022902B96E0FF1286
:102A2B0008ADE4902B96F022902DF71212635125EE
:102A3B00902DF7121F0A902DFAF0902DF751037B72
:102A4B00015191902DFAE0B4011D902DF712125AFD
:102A5B00E92401121B0E902B92F074FE120EBD9006
:102A6B002B917405F08015902DFAE0FF640660043D
:102A7B00EFB40711902B91E0600211C3902DF71268
:102A8B00125A120D0D227A2B79977F060208859028
:102A9B001215E05408FF22901215E04404F0229026
:102AAB001215E07F0030E2027F0122902CD012122F
:102ABB0011E4902CD4F022AE071105EE04FEEF8E3C
:102ACB00F084AFF0229400902D20F0A3CEF07B0089
:102ADB007A00790022C003C002C0017B017A2C79F5
:102AEB00825106D001D002D0037F03020885124722
:102AFB0031706E123E31902EC4EFF0D394035061BF
:102B0B00902C87E0FF902EC4E06F7055F101902E52
:102B1B00C5EFF07B017A2E79C57D01120BE1902E6A
:102B2B00C4E02482F582E4342CF583EFF0902C87FB
:102B3B001231E07C007D03120F03AF05EFF0702123
:102B4B00902C85E07002A3E060177B017A2C797FD3
:102B5B0051E07B017A2C797F902C85124ADE12137F
:102B6B009A2275FF0275E404E4F5E475FF02E5E6CD
:102B7B0030E012901215E0540C600A1239A9901231
:102B8B0015E054F7F01203E8F12E9005E8EFF09002
:102B9B001200E0B47A14901214E0B49C0D9005E886
:102BAB00E0FF64056004EFB4032EE49005F2F090AF
:102BBB0005F2E0FFC394805013E42FF582E4341246
:102BCB00F583E4F09005F2E004F080E390120074DA
:102BDB007AF0901214749CF0120B6E4003120B6976
:102BEB007B017A1279107D017F01120B647B017AD4
:102BFB001279117D017F21120B647B017A127912FC
:102C0B007D017F22120B647A12791D7F02124342DF
:102C1B0090121DE0B401057F01123FE3120B19F175
:102C2B002E120B149005E8EFF0120BF5120B0F9010
:102C3B0005E8E0FF120D03EF24FFB3926375FF026B
:102C4B0053E6BF123048120B2312061320630912EE
:102C5B0005B1124BBA1209987F01F153D2AF206321
:102C6B000281F2120B731208A3120CFE120B5F40BF
:102C7B00F29005E7E0603E120B46EF7004D1834003
:102C8B0034E53670FCE53720E502F17712085DEF8D
:102C9B0070FAD1315004D14350047F01D196900585
:102CAB00E7E0B40204E4FF80099005E7E0B4030514
:102CBB007F0112398B120B41E53730E1A6D1604011
:102CCB0002E4F0E53720E505D1151230F9D175AFE7
:102CDB0082AE83EFC0E0D1237B019005EAE0FDD00B
:102CEB00E0FF120BE6816E12300C120603EF70063A
:102CFB009005E7E0604D201C03200947120B46EFBF
:102D0B007004D183403DE53670FCE53720E502F1D8
:102D1B007712085DEF70FAD1315004D14350047F24
:102D2B0001D1969005E7E07012120603EF600C12CA
:102D3B0005EE901215E04408F080089005E7E0FFDF
:102D4B001239739005E7E0600C201C09300906204E
:102D5B000203120970120B731208A351F91205C862
:102D6B001205D6EF702412060BEF60051239A980FD
:102D7B0037120603EF703112388AEF702B12184D91
:102D8B00EF640170231205E7801E901215E020E21C
:102D9B001712060BEF600CD1315004D1435004E4F1
:102DAB00FFD196E49005F1F0203605120B418022FD
:102DBB001208B79005E0E0FEEFC39E4005EF9EFFC3
:102DCB0080089005E0E0F4042FFF7403D39F5002BA
:102DDB00C236E53730E128D1604002E4F0E5372018
:102DEB00E505D1151230F9D175AF82AE83EFC0E096
:102DFB00D1237B019005EAE0FDD0E0FF120BE61238
:102E0B000AE712385312303381F29005E9E0FD7571
:102E1B00F0AA9005F712124EED75F002A424E2F918
:102E2B00740535F0FA22900001740193B40007E4A5
:102E3B0093B41802C322D3227F017E009017FCE4C7
:102E4B00935EFE7401935F4E24FFB322C2AFEFF487
:102E5B005237D2AF227F02D1579005E9E09005F2AD
:102E6B00F09005E904F0C39402229005F2E0FD75A1
:102E7B00F0AA9005F702124E9005F4E0FEA3E0FFD6
:102E8B001208BCD3EF94C8EE940022902EC6EFF03C
:102E9B00E4A3F0902BBBE0FFB40209740FD1F974DB
:102EAB00B9F0800CEF64047044743DD1F97479F07F
:102EBB00121405902EC6E06007902BBAE0FF80023B
:102ECB007FAB12076E1214FA902EC6E0902BBAF05D
:102EDB007016902EC7E0D39400400D7FFF12076E43
:102EEB00902EC7E014F080EAE4FF1207DD22902E4B
:102EFB00C7F0902BBA22E4FFE5F754C060028016AE
:102F0B0075FF01E5D530E30DF12750F4F121EF60AA
:102F1B00EFF12750EB22124BD2AFD92275FF01E50F
:102F2B00E4332275FF02E5E630E2037F0322E5E698
:102F3B0030E3037F0022E5E630E1037F0422E5E680
:102F4B007F0530E0027F0122EF600FD1157B01AFCF
:102F5B0082AE83E4FD123101800F3035037F0022F6
:102F6B00120B55F177E433FF227F0122E5367029EE
:102F7B001230E95005C255121F1E123DEA7F08128E
:102F8B000D261234BAE5D120E0FB4337205337FE30
:102F9B00E4F530A23C92EDD322C3229008D1121259
:102FAB00639008D4EDF0E4A3F0ED54FE9008D4F058
:102FBB00602BE4FFF153BF01249008D112125A1277
:102FCB00204650199008D2124C449008D5E02402A8
:102FDB00F09008D5E0FF9008D4E06F70DC7F01F132
:102FEB00539008D5E0FF22E4F5368080E53730E2D8
:102FFB000FE53720E50AE53730E0057F01122F5347
:10300B002230370D12092FEF6007C25C12091BC269
:10301B0037229005EFE0FCA3E04C700A9005EFEE31
:10302B00F0A3EFF0D322C3229005EFE0FEA3E0FF65
:10303B004E6009CAEECAC9EFC912139622D2ADD29D
:10304B00BD75FF02758E7175550975FF02E58E54BE
:10305B006F4480F58E902DF312121D00000000229C
:10306B00C0E0C0F0C083C082C0D075D008C0FF756F
:10307B00FF02E58E30E43B75FF02E58E54EF441002
:10308B00F58E902DF31211E912232AFC902DF312D9
:10309B001211900000121D2BE55530E0020545E59D
:1030AB0055700D7555090551E5517002055080029B
:1030BB00155575FF02E58530E40411D60559D0FF8F
:1030CB00D0D0D082D083D0F0D0E03275FF024385D0
:1030DB00102211F15006916E50028001C322C2EBF7
:1030EB00A2ED923CC2EDE5F4C330E701D3227B01A4
:1030FB00AF82AE837D01900890917DE5367079119A
:10310B00E95005C255121F1E900890E0FEA3E08EF9
:10311B0031F532A312125A9007CA121263AE31AFB5
:10312B00327DAA31E8E4F5FF75D908F530E537545F
:10313B0021602BE53730E504E4FF3184E4900895FA
:10314B00F0900895E004F0122632EF600990089594
:10315B00E0C3941040EB7F02120D265337DE31DDB6
:10316B0031D35005E004FF80027F00319FD255120E
:10317B001F1ED2EBA23C92ED2275FF01E5D530E686
:10318B0002C322E4F5FF439A80EF9175E4F5FF53F8
:10319B009A7FD322318443FA04E4F5FF53D1FD43E4
:1031AB00D1012291B5E5D120E0FBE4F5FF75D908FB
:1031BB0031DD31D35005E004FF80027F00319FD217
:1031CB0055121F1EE4F53022C3EF9403EE64809476
:1031DB00802290121AE02401FFE433FE22E4F5FF73
:1031EB0075D102E5D120E0FBE4F5D1F5FFEF918637
:1031FB00EE540F42D6E4F5FFCFEDCF8FD4224337F9
:10320B00015337DF9008F1E0FD51539008F1E0FDD9
:10321B0091D64004E4F5362243FA045337FB304A87
:10322B000431A4800A7F55513C7F55513CD2EBD3DE
:10323B002275FF01E5D520E602C322E5FA540360AF
:10324B00FA75FF018FC3D322EF30E30774332DF8E8
:10325B00E6FF22743D2DF8E6FD203D04EE30E00B39
:10326B00E539C394F0502051A68018E53B6006FD6C
:10327B00E4F53B8012E539C394F0500BE539540F5C
:10328B00FF60045195AD07AF052291A8FFC3940EC3
:10329B0040027F0DEF9004B393FF229007C9E0FD2E
:1032AB00FFC3740E51CDEFC4F8540FC868FFEEC4C2
:1032BB0054F048FEE53954F0C391657F005002AFDE
:1032CB0005229FFFE49400FE22902E0BEDF090124E
:1032DB0011E0F46005A3E0B4FF0C902E0D7418F010
:1032EB00A37413F08010901211E0902E0DF0901239
:1032FB0012E0902E0EF0120E2264016002813E90BD
:10330B002E0BE0FE64086004EEB40408902E0C74DF
:10331B0028F08006902E0C743AF0EF122196FF12D3
:10332B001174E4913FEF24D8FFEE343FFEED34935C
:10333B00FDEC3416FC7B007A80790378001203A431
:10334B00919B902E0EE0FF902E0DE0C351CDE4FC2F
:10335B00FD121057ECC0E0EDC0E0EEC0E0EFC0E0B6
:10336B00902E0EE0FFE4FCFDFE913FD0E0FBD0E0A1
:10337B00FAD0E0F9D0E0F8EB2FFBEA3EFAE93DF9A1
:10338B00E83CF8902E0CE0FFE4FCFDFE121057EF2A
:10339B002454FFEE340B122330FCE47BA87A16F98D
:1033AB00F81203A4CBEFCB902E0BE014605D1460EE
:1033BB001B24FE600C24FC707AE4F5FF75CE318083
:1033CB0006E4F5FF75CE21F5FF8BCF22E4FAE4F589
:1033DB00FFEA2440F5CEE4F5FFEAFFC3740751CDB5
:1033EB0074322FF58274053EF583E49147C39DF546
:1033FB00CFE4F5FFEA2448F5CEE4F5FFEA90053279
:10340B0091472DF5CF0AEAB408C422E4F5FF75CE37
:10341B0001F5FF8BCFF5FF75CE0EF5FFEB25E0F534
:10342B00CFE4F5FF75CE0FF5FFCFEBCFEB75F003C8
:10343B00A4F5CF227B64FAF9F80210579325E0FD2F
:10344B00E433FCEB75F010A4FFAEF0120F03CDEFDD
:10345B00CDEBFFE4C313EF1322D39FEE6480F8741C
:10346B00809822E5F754E024FF2233333354F8F5E8
:10347B00F422EEF0A3EFF0A3021263F5D7E4F5FF0D
:10348B0053D6F022E4F5FFE99186EA540F42D62297
:10349B00C8ECC8C9EDC9CAEECACBEFCB22E539C41B
:1034AB00540FFEEF9004D1932E22C255121F1EE42F
:1034BB00F5FFE5D154FE4402F5D122E53720E507AF
:1034CB0091B5E5D120E0FBE4F53022900906EDF053
:1034DB00A3EFF07F01120D26900906E0FFA3E0FB9E
:1034EB00E4902D17F07D0212233750ECD322E539EF
:1034FB00C394F0501F5339F091A8FE740FC39F4033
:10350B0005EE940E400543390D8003EF4239E53942
:10351B00540FFF227F0022AF36EFC36001D322EF9F
:10352B00C3940E50059007C9EFF022E539540FFFF5
:10353B00229005F3E06402701F8F3DAF058F3EAF05
:10354B00038F3F90088DE0F533A3E0F534A3E0F54E
:10355B0035AF3D120B1ED322C3229008EC1212631F
:10356B00B199E53DB196E92401F9E43AFAE53EB1AA
:10357B0096B1AEE53FB196B1B6E533B196B1A6E5DE
:10358B0034B196B19FFAE535020EBD120EBD90080F
:10359B00EC02125AE92405F9E43A22E92404F9E48D
:1035AB003AFA22E92402F9E43AFA22E92403F9E48B
:1035BB003AFA22E53954F0C4540F2FFFC39410404C
:1035CB00027F0FEF9004C193FF227E10EE60091E65
:1035DB00EE9004C193B507F4EEC3940E40027E0D3A
:1035EB00EE9004B393FF22C2AFEF4237D2AF22EF7C
:1035FB0024FE600C24FE600580007F01227F0222E6
:10360B007F0322753601753C079007DBEFF09007BF
:10361B00C87403F0C374799B9007EBF0E4940090AB
:10362B0007EAF022D1375003121D2B22C39007CE8D
:10363B00E094FF9007CDE094FF229007EAE0A3E02F
:10364B00FF227D02122FA6EFC36001D3229009083F
:10365B00EFF0A3EBF0900908E0D1F1E0FEB4020328
:10366B007F0022EE701C900908E0FFD1F17401F08D
:10367B009007D9E0FCA3E0FDEFD1E5ECF0A3EDF072
:10368B00802AED241BFFE433FEE4FCFD7B0CFAF9EE
:10369B00F81203A4EF2405FF900908E0D1E5E0FC44
:1036AB00A3E0C39FEC940050037F0022902A37E0E5
:1036BB00B4FF15900909E0540FFFBF0103E4800428
:1036CB009007E9E0902A37F0902A37E060037F02F9
:1036DB0022902A3774FFF07F012225E02431F582F6
:1036EB00E4342AF583222486F582E43429F58322F7
:1036FB009008F2EFF0ED24FE60191460262402709E
:10370B003BEB2402FFE43AFE7C007D50120EF17D70
:10371B0060801EF16FC333CE33CED8F9FF7C007DB2
:10372B0028800EF16FC333CE33CED8F9FF7C007DEA
:10373B0064120F039008F3EEF0A3EFF09008F2E0A1
:10374B00F17AC083C0821212059008F4E02401FFC5
:10375B009008F3E03400FEE4FCFD12103CD082D064
:10376B0083021211EB2401FFE43AFEEF78032225CA
:10377B00E025E024DDF582E43407F58322EFF17ACE
:10378B001211E90211CFE49007DDF1A69007E1F1E8
:10379B00A6FFFEFDFC9007E5021211FFFEFDFC12D9
:1037AB001211E4229005EBE0F4FFA3E06FFFA3E01E
:1037BB006FFFA3E06FFF6455601DEF64056018EFAA
:1037CB0064256013EF6445600EEF64656009EF6478
:1037DB004A6004EFB40A010F9007C7EFF022A2EB87
:1037EB00924CC2EB7A0779CD7B017D0CE4FF12087A
:1037FB0058A24C92EB22A2EB924DC2EBEBC0E0EA4B
:10380B00C0E0E9C0E07B017A0779CD122A06D0E04F
:10381B00F9D0E0FAD0E0FB7F0C120885A24D92EBB9
:10382B0022E4902D58F0FBFAF9902D5402126312FA
:10383B000B9B902D57E014F06005A3740580059049
:10384B002D587407F00219B0902D58E0FF640660F4
:10385B0004EFB401031219B022902C85EEF0A3EF04
:10386B00F022901215E05414FFBF14047F01800264
:10387B007F0022901215E07F0030E0027F01229042
:10388B002B91E0B4040D902B96E06007117EEF7046
:10389B0002FF22902B91E0FF22122A9AEF6010E494
:1038AB007FA07E0F12199A901215E054E7F0229028
:1038BB001215E0FF74E0D39F4005E02410F022EFD7
:1038CB006410901215F022901215E0C4135407FFE8
:1038DB0022902B8BE0FF1208ADE4902B8BF0221182
:1038EB00DCE54464066006E54464077030902B8B7E
:1038FB00E06003F47027E4FDFC7F01120AD87E38E8
:10390B007FEAC006C0077F587E807D047C00122AA8
:10391B00B6D007D0061208B2902B8BEFF022902670
:10392B00CBE070087B017A2679C3314B9026CBE034
:10393B0044C0F09026CE31529026D2E054FEF022B5
:10394B007D107F23020B64E054FEF0A3E044C0F033
:10395B00227405D39F500B7463C39F4005902B9427
:10396B00EFF0902B94E0FF22902EF2EFF0BF0204C9
:10397B00E4FF8009902EF2E0B403047F01318B2227
:10398B0043FB1075FF0243E640EF600D75FF02E548
:10399B00E120E7FB43FB0D800343FB0E80FE31FA76
:1039AB00700790121CE070012231FA60237FFF1226
:1039BB0000369012161211E9EF24FFFFEE34FFFED2
:1039CB00ED34FFFDEC34FFFC901216121211800D3A
:1039DB0090121CE0FF120036E490121CF09012358E
:1039EB00E0FD7F01513C90123451097F018091E43D
:1039FB00FFFEFDFC901216121205C3021198E0FB9C
:103A0B007D01E4FFEB600875FF0153CDFD8006756A
:103A1B00FF0143CD02ED600553FBDF800343FB2029
:103A2B00EF600775FF0243E1402275FF0253E1BFD0
:103A3B0022EF7011ED600775FF0143AE012275FF98
:103A4B000153AEFE22EFB40114901235EDF0600776
:103A5B0075FF0143AE022275FF0153AEFD22902D7F
:103A6B00FB12121151A7E47BFF51AD501CE451A680
:103A7B001210E2901216121211E47BFFFAF951A602
:103A8B001210E290121CEBF02290121612121D0073
:103A9B0000000051A790121CEFF022F8902DFB02B2
:103AAB0011E9FAF9F8C3021198902DB21212119084
:103ABB002DB6E05402901234F0902DB21211E98021
:103ACB009DEF600775FF0253E6BF2275FF0243E6C9
:103ADB004022EF14600F146014240270188B807551
:103AEB00FF018DFD228B9075FF018DC9228BA07577
:103AFB00FF018DCA22AF038FB075FF01AF058FCBCE
:103B0B0022902D0E121263EF146011146018240210
:103B1B00701E7146E580714CE5FD801C7146E59089
:103B2B00714CE5C980127146E5A0714CE5CA80085D
:103B3B007146E5B0714CE5CB020EBD902D11021212
:103B4B005A120EBD75FF01902D0E02125AE4F5FFAD
:103B5B00AF9122E4F5FFAF9222902DFFEEF0A3EF91
:103B6B00F07B017A2E790171965014902E01E0FEB4
:103B7B00A3E0FF902E00E09F902DFFE09E400B9066
:103B8B002DFFE0FEA3E0FF1227022271ABAD94EFF5
:103B9B004D71B78FF012101DE591C330E701D322A1
:103BAB0075FF03AF93EF75F010A4FF2224FBFFE525
:103BBB00F034FF22902E5F71FD7F017C127D01E4BA
:103BCB00FE8D828C83ED2EF582E43CF583E02FFF96
:103BDB000EEEB412EC901213E06F6009902E5F7131
:103BEB00F4E4120EBD22902E10E0FBA3E0FAA3E04A
:103BFB00F922EBF0A3EAF0A3E9F022C24F75FF0321
:103C0B00759B1F75FF0390120FE020E71BE59A547D
:103C1B000FC394024012E04480F0E4F5FF75C2A19B
:103C2B0043FC0475FF03D24FE5FC30E609E59A54DB
:103C3B000FC3940540CDE5FC30E611E4120EBD75C3
:103C4B00FC80F5FC75FC40E5FC20E6FB304F0312D5
:103C5B0022EC22EF30E00E43F401E4F5FF43A40421
:103C6B00F5FF759624EF30E10E43F401E4F5FF43C5
:103C7B00A408F5FF759624EF30E20943F402E4F54E
:103C8B00FF75961EEF30E30943F404E4F5FF7596D8
:103C9B001075FF01EF5403600475D7122275D72DF1
:103CAB0022E4F5FF7584E6F5FF439404F5FF759860
:103CBB001422E4F5FF75933F75FF03759A4091ACA1
:103CCB00E4F5FF759C93F5FF75A1A3F5FF758531A1
:103CDB00F5FF758628E5FA54304480F5FA75FF0137
:103CEB0075E74A75FF0275DF4975FF0143D304750C
:103CFB00FF0153D367E4F5FF53E6BF75FF0175D89A
:103D0B0025F5FF75B503F5FF75B215F5FF75BA020D
:103D1B00F5FF75AFB3F5FF75CD0AF5FF75CB08F55C
:103D2B00FF75CA12F5FF75BF0EF5FF75CC96F5FF43
:103D3B00F5BDF5FF75C281F5FF75AEE1F5FF75DADF
:103D4B0055F5FF75F580F5FF75E903F5FF75E9335B
:103D5B00F5FF75972A75FF01759B42759CA4759DA0
:103D6B0029759E48759F2475A11275A312759AF833
:103D7B0020520CF5FF43968090120FE04440F02246
:103D8B00CCEFCCCFEDCF74017E00C8EFC808800517
:103D9B00C333CE33CED8F9FFCDECCDEF5D601B3006
:103DAB00511875FF0175DCAD75FF0175DDCDE4F5BF
:103DBB00FF759A74F5FF7594842275FF0175DC53BA
:103DCB0075FF0175DD33E4F5FF759A14F5FF7594F6
:103DDB00042275FF0175E46575FF0175D64722E571
:103DEB00FA30E1FB75FC8075FF0153D5EFE4F5FC70
:103DFB0075FC401227D9E5FC20E6FB2275FF01E597
:103E0B00D530E602C32253FACFEFB4080543FA309C
:103E1B008012EFB4040543FA208009EFB402054386
:103E2B00FA108000D322E5F45418131313541FFF18
:103E3B0022E5F75406FFBF06037F0822E5F7540679
:103E4B00FFBF04037F0422E5F75406FFBF02037F85
:103E5B0002227F012275FF018FDA22E5F730E51090
:103E6B00E5F754C070051224F640F01227D9C3228F
:103E7B00D322E5F754C024FF22902E13F11FEBF051
:103E8B00F100AC00AD01AE02AF03C006C007902E2F
:103E9B0013F117FBAA06E4F9F8D007D006D31211D9
:103EAB00827E0050047F0180027F00C006C007F1B4
:103EBB0000D0E02FFFD0E03E902E13F0A3EFF05395
:103ECB00ECFC902E13E0FCA3E0FDEC540342EC75EC
:103EDB00FF02EDF5AF75ED0275ED04A3E060054350
:103EEB00EC08800353ECF7902E16E0600443EC04CF
:103EFB002253ECFB22902E13E0FEA3E0FBAA06E478
:103F0B00F9F87F807E387D01FC0203A4E0C313FE29
:103F1B00A3E01322EEF0A3EFF0A3EDF0A322C2ACCB
:103F2B00E4F54FF54EF54DF54BF54CF54A7B017D20
:103F3B0001D184D2AC22902BFEF122EBF07F021246
:103F4B000B3C902C07121263EA494B6071902BFFCC
:103F5B00E0FFF1CC24B6F1DBE49007A5F0900793DA
:103F6B0012125A1247F8F1CC24EFF1DB6010902BB0
:103F7B00FEE04442F0F1CC24E2F1D4120EBD902CC1
:103F8B0000E0FF30E122F1CC24BBF1D4120EBDEFE7
:103F9B0054FC902C00F0FE902C77E054FDF0124A6C
:103FAB009312125A7D018010902C00E054FEF0FE0B
:103FBB00124A9312125A7D02120BAF7F01227F001D
:103FCB0022902C0712125AE922F9E43AFA74FF22D2
:103FDB00F9E43AFAEF020EBDEF600775FF0243E614
:103FEB00102275FF0253E6EF22E5ED30E2FB75ED93
:103FFB0004AFEF22E5ED20E0FB8FEF22EF600443EF
:10400B00EC042253ECFB22EF600443EC082253EC4C
:10401B00F722E5ED5402FF22C0E0C0F0C083C0825E
:10402B00C0D075D000C000C001C002C003C004C026
:10403B0005C006C007C0FF11B5EF602912004E1274
:10404B00005EE54AC394204003754A00E54EC394D5
:10405B0020500FAE4A054A744B2E3110EFF0054E2F
:10406B008003754E20111DEF6023120056E54FD3D0
:10407B0094004019E54D94204003754D00AF4D055C
:10408B004D746B2F11BBE0FF120066154FD0FFD0A4
:10409B0007D006D005D004D003D002D001D000D079
:1040AB00D0D082D083D0F0D0E032E5ED5404FF22A3
:1040BB00F582E43407F5832290091AEFF0E54FC33C
:1040CB0094204005122FF780F4E54BC39420400356
:1040DB00E4F54BC2AC310AEF700EE54F700A900954
:1040EB001AE0FF120066801290091AE0FFAE4B0532
:1040FB004B746B2E11BBEFF0054FD2AC7F0122E559
:10410B00ED5401FF22F582E43407F58322C2AC3172
:10411B000AEF7004E54F60047F0180027F00D2AC90
:10412B0022E54CC394204003E4F54CAF4C054C7492
:10413B004B2F3110E0FFC2ACE54ED394004002157B
:10414B004ED2AC22902BADE020E0171214057F3D30
:10415B0012076E7F2A12076E7F8012076E7FA612E0
:10416B0007D6227B017A2B79B27D017F03120B6478
:10417B007A2B79BB7F0871427A2B79B87F0971282A
:10418B007A2B79B67F0B7128902BB6E0FEA3E0FF5C
:10419B004E6006BEFF16BFFF13712F5002800471D5
:1041AB00388009902BB6E4F0A37440F0712F5002C5
:1041BB008008902BB37403F08006902BB37402F03D
:1041CB00902BB2E012137041EE0441F91442011529
:1041DB00420917421F30422734422F3642373700ED
:1041EB0000421475FF015318EF8518FD804775FFCA
:1041FB00015319EF800E75FF015319DF800675FF10
:10420B000153197F8519C9802C75FF01531ADF855E
:10421B001ACA802175FF01531BFE801675FF0153CF
:10422B001BEF800E75FF01531BBF800675FF0153FB
:10423B001B7F851BCB1214FA7F11711AE4FF122E10
:10424B0096121468902BB07402F0902BB4E0247F7C
:10425B0060090470157120740A8006314F71207447
:10426B0058F0902BB37403F07138902BB5E0F460D9
:10427B00026117902BB8E0FEA3E0FF64104E7006AE
:10428B00902BB5740EF0EF64204E7006902BB57426
:10429B000FF0EF64404E7006902BB57410F0EF6486
:1042AB00804E7006902BB57411F0E4B5070AEEB48E
:1042BB000106902BB57412F0E4B5070AEEB40206B2
:1042CB00902BB57413F0E4B5070AEEB40406902BEB
:1042DB00B57414F0E4B5070AEEB40806902BB57468
:1042EB0015F0E4B5070AEEB41006902BB57416F072
:1042FB00E4B5070AEEB42006902BB57417F0E4B5BD
:10430B00070AEEB44006902BB57418F0021577EF40
:10431B004420F5FE227F10711A902BB0227B017D79
:10432B0002020B64902BBBE024FE24FD22902BB6E3
:10433B007401F0A3E4F0227B017D01020B64902B4E
:10434B00AFE0120EBD902BB4E0900001120ECF9097
:10435B002BB5E0900002020ECF7E267FAAE4FDABC8
:10436B0005E4FCFD902DC5EBF0021599902C9112F4
:10437B001211902C951212631217E3120794EF602F
:10438B0005122FF780F512180A600B902C91121161
:10439B00E9781012076A902C91120765902C9112F4
:1043AB0007E9902C98D1536010120788902C95D167
:1043BB0015902C96121D2B80E91214FAE4FF0207BC
:1043CB00DD902E68E075F005A4242EF9742B35F0E2
:1043DB00FEAF017B017A2A79EF902D5E7405F09088
:1043EB002D5B121263E4FCFDC007902D5BD10DE039
:1043FB00FF902C98E4F0A3EFF0D0076177AF017B2F
:10440B00017A087980902D5E7402F071EA90088031
:10441B00E022902ABF121211902AC3121263E49069
:10442B002AE8F0D3902AC7E09420902AC6E09400A3
:10443B004001227B017A2A79C8902AC6D15D902A45
:10444B00BF1211E97177902AC312125AE94A600B15
:10445B00902AE8E0F582B14BFF80027F00902AE8BA
:10446B00E024C8F582E4342AF583E06F6002C322AE
:10447B00902AE8E004FFF0D3902AC7E09F902AC669
:10448B00E0940050C122B13B121263E4902BF0F088
:10449B00A304F0902BEDE0FEA3E0FF4E7002A135DC
:1044AB00D3EF9420EE940040047F208006902BEDF8
:1044BB00A3E0FF902BEFEFF0902BEA12125A902B08
:1044CB00EFE0FF902AC6E4F0A3EFF0902BE6121179
:1044DB00E9911D400E902BF0E0FFA3E0FEEF4E9014
:1044EB002BF0F0902BEFE0FFC3902BEEE09FF090C2
:1044FB002BEDE09400F0902BE6121205902BEFE4DD
:10450B00FCFDFE12103CB13B12125AE94A600790B7
:10451B002BEFE0FF80027F00902BEBE48FF0120F6C
:10452B008E902BF1E025E0F0819E902BF0E0FF22A6
:10453B00902BE6121211902BEA2212125A1E8E8227
:10454B00758300020E3B902BD4E0FFA3E0902BED84
:10455B00CFF0A3EFF0902BCB1211E99191902BD8C8
:10456B00EFF022902DA7B1DFE58F20E0FBB1E6E461
:10457B00FF902DA712125A8F82B14BF5930FEFB408
:10458B0010EFE4FF902DAA12125A8F82B14BF594C3
:10459B000FEFB410EF22902CB5B1DFE58F20E0FBCD
:1045AB00B1E67E10902CB8B145F593EE70F67E1007
:1045BB00902CB5B145F594EE70F67F01B1F6D14A6A
:1045CB00EF70FB7E10902CBB12125A1E8E82D11CE8
:1045DB00EE70F22212126375FF012275FF01538FE9
:1045EB000675FF01538FF075FF0122EFB40107D160
:1045FB003B4401F58F2275FF01E58F54F04406F51E
:10460B008F2212125A902D5E22FF12125AEF020EB7
:10461B00BD758300E593020ECF902EBFB1DFE4FF93
:10462B00902EBF12125A8F82D11C0FEFB410F122B1
:10463B0075FF01E58F54F622D13B4408F58F2275A7
:10464B00FF01E58F5401FF2274FFF5F0120FA44513
:10465B00F022E0FFA3E0902C98CFF0A3EFF022AB79
:10466B0007AA06EB241FFFE43AFEEF7805CEC3132F
:10467B00CE13D8F9F9EB541F902EF7F0AF051217A4
:10468B00DBFCAF05121796AE01EE14C39FC4335477
:10469B00E0F9AF04C3EB9FFFEA9400FEE9FDC3EF23
:1046AB009DFFEE9400FEED600FE0FD6007C37420EC
:1046BB009DFD80067D0080027D007C00EF2DFFECD0
:1046CB003EFE22902BD4E0FEA3E0FF902BD8E0FD22
:1046DB00D16A902BD6EEF0A3EFF0A3E0FF12179167
:1046EB00EF75F020A4FFAEF0E4FCFD902BCB227411
:1046FB0005F0902D1D121263E4FCFDC007902D1DDB
:10470B0012125A902D20F124D0070216547404F083
:10471B0080E0D1FD74FFFDFC22E0FFA3E0902BD2E3
:10472B00CFF0A3EFF02212250FEF6401221217E353
:10473B00120794EF6005122FF780F522902BB1E052
:10474B00FF22E4902BB1F022E4F5FF75D102E5D105
:10475B0020E0FBE4F5FFF5D1EF6008E4F5FF43D271
:10476B00808006E4F5FF53D27FEB6006E4F5FF4350
:10477B00D104ED6006E4F5FF43D10822E4F5FFEF29
:10478B00F5D8E4F5FF53D60FEE540FC4F854F0C828
:10479B00E4C4540F4842D622E4F5FF8FD4F5FFCF83
:1047AB00EDCF8FD522E4F5FF8FD422E4F5FFE5D1D1
:1047BB00540133333354F8FFE4F5FFE5D354074F7B
:1047CB00FF22EFB40109D2AD75FF0143AE4022C207
:1047DB00AD75FF0153AEBF22E5C85402FF75C80289
:1047EB0022E5C85404FF22E5C85401FF22902DEEA8
:1047FB00121263E4902DF1F0A3F0902DF1E0902DC7
:10480B00EE124830902DF1EFF06010E0FFC2611214
:10481B000A4CEF6006902DF2E004F0902DF1E07061
:10482B00D9A3E0FF22FF12125A0208DAEF600490BC
:10483B002C7BF09007A5E090079311309007A5EF24
:10484B00F0605120214E902C79E0C330E501D392DA
:10485B0024902C78E0FD902C7C12125A9008241294
:10486B001263902C7AE0900827F0902C77E0900858
:10487B0028F0A3748011B39007A511ACEF702190B1
:10488B002C7B7402F0902C75E0FEA3E0F5828E83F6
:10489B007F028009902C7BE0902C7531AF12139A1C
:1048AB0022E0FBE4FF020BB9F0A37448F0A37437CA
:1048BB00F022902C0B121263902C0AEFF0FE902C2E
:1048CB00157403F0902C12E05437F0E0FF54209055
:1048DB002C79F0902C78EEF0902C13E0FDA3E09067
:1048EB002C75CDF0A3EDF0902C0E12125A902C7C5F
:1048FB00121263902C11E0902C7AF0902C0B121268
:10490B005A900793121263EF4420902C77F0E490A7
:10491B002C7BF0C221F55A902C0B12125AAF5A1263
:10492B0008DA8F5AEF601E7D03120AC940E9AF5AAD
:10493B00120AC45008902C157401F08008902C15A5
:10494B007402F080D2902C11E0FED3948140037F4F
:10495B000022902C12E0FB902C1530E010319BC004
:10496B000331A3902C04EE11B3D0038020319B3183
:10497B00A3902C11E0902C04F0902C75E0FBA3E09D
:10498B00902C05CBF0A3EBF0902C12E0FB023F41F7
:10499B00E0FF902C0AE0FD22902C0E12125A902C64
:1049AB0001021263FFE0FCA3E0FDF5828C832290F1
:1049BB002C43121263902C42EFF0120AA640069081
:1049CB002C42E554F0902C42E0FF902C4612125AE8
:1049DB00902C0E121263902C49E0902C11F0902C1D
:1049EB004AE0902C12F0902C4BE0FDA3E0902C139E
:1049FB00CDF0A3EDF0902C4312125A01BDE4FF3021
:104A0B0035037402FF22200005D2160209FCC322D3
:104A1B00C2ACC37420954FFFD2AC2275FF01E58F5A
:104A2B005408FF22EFB4010775FF0143AE20227536
:104A3B00FF0153AEDF22EFB4010775FF0143912055
:104A4B002275FF015391DF22902B6CE0540F22C291
:104A5B000A7B007A007954902D621212630B7A054F
:104A6B0079EB22F9E43AFA902D341212637B017A36
:104A7B000579EB22FF12125AE92406F9E43AFA22DD
:104A8B00F9E43AFAE4020EBD902BFEE0FF902C0401
:104A9B00E0900841F0A3EEF0902C05E0FDA3E09030
:104AAB000843CDF0A3EDF0902C0712125A90084555
:104ABB00121263902C0122FDEF4DFFE5F08FF002F7
:104ACB00101DF9E43AFAC3E99FF9EA222408F9E444
:104ADB003AFA22E0FEA3E0FFF5828E83227B01905F
:104AEB002D43F0A374FFF022E92FF9EE3AFA902B45
:104AFB00D6E0FFA3E0902C8FCFF0A3EFF02274FF52
:104B0B00F5F0120F8E45F022D2237B017A07798DB7
:104B1B0022A3F0A3F0A3F02212125AE924B722E049
:104B2B00FCA3E0FD4C2290086FF0A3EFF022E924E8
:104B3B002EF9E43AFA7D04E4FF020858F07B017A7F
:104B4B0027797522E0900827F0A3EFF0E4A322E980
:104B5B00242DF9E43AFA7440020EBD7A0779C27F2C
:104B6B000422F0A3EDF0E4A3F0228D828C830213D8
:104B7B009AE5322407F582E43531F58322E92420C6
:104B8B00F9E43AFA22E4FFE4FDFC78080211A9E407
:104B9B00FFFEE4FC78100211A9F090285D7401F07F
:104BAB0022902D20E4F0A322E0FEA3E0FFC3227BA2
:104BBB00017A2779712275F005A424F3F974002288
:104BCB00E0FCA3E0FDD32275FF01E4F5EA75EAFFF3
:104BDB00222FF9EA3EFA020E227B017A2D79B07F61
:104BEB000222902D87ECF0A3EDF022F9EA34FFFAC4
:104BFB00020E22E9240BF9E43AFA22C3E99FF9EAFF
:104C0B009EFA222DF582EA3CF583227438F0A374C8
:104C1B0043F0227B017F08020885FF54F0C4540F38
:104C2B00FE227401F0AE04AF0522AA06A9070213F7
:104C3B0096AF03EAF0A3EFF022E475F002020F8EB9
:104C4B009005EBE0C394C022F582E43EF583E022AD
:104C5B00F0902BADE0FFF422902EF4E014F0E02264
:104C6B0090120EE0D39401227C007D6402139C9081
:074C7B0005EBE0FFA3E022BE
:107F7E000200022B332FED02060A022FEF302300F0
:107F8E003904060A023028382A080705060A02387C
:087F9E002F383D0013FF060A15
:107FB000FFFFFFFFFFFFFFFF7FC600000000000084
:067FC000000003080000B0
:108000007B01E4FFAE051DEE6009EF120EBD12DF2D
:10801000F080F122902E3B12348012F6E631394A7C
:10802000C36001D34002211012F6DB5015E0FF942B
:1080300004500280027F04313912C7C4128D6112CC
:10804000F950902B45121D0C5467902B58F0313984
:1080500024E831F7902B53F0313924F231F7902B8B
:1080600059F0313924F331F7902B5AF0313924F497
:1080700031F7902B5BF0313924F031F7902B51F030
:10808000313924F131F7902B52F0313924F5121D9A
:108090001212DFB7F0902B4512125A12AD9AE490EB
:1080A0002B48F0313924E5121D1245F06053902E13
:1080B0003BE0602DA312125A128D617A2B794C127B
:1080C000F9D212F6FCC003C002C001313924E51216
:1080D0001D12F58285F083D001D002D003E4FF8029
:1080E0001D12F6FCC003C002C001313924E5121D87
:1080F00012F58285F083D001D002D0037F011213E4
:108100009A902D58E0B40402E4F0122AD9121FF319
:10811000229008F81212639008F8121F0A540F12E6
:108120000EBD9008F812125AE924F212F7F3020E6B
:1081300068020727F07E0B7F28902B4512125AE920
:1081400022121FF3E924EC31F76016E4902B5CF067
:10815000313912F7F1120EBD7E0B7F28FD7C002114
:10816000E63139240131F7D394014041120BAA9032
:108170002B5CEFF0E004313424B731F7540F64087E
:10818000701E313924BC31F720E015313924BD315E
:10819000F7FDC4540FFCED540FB504047D078009AE
:1081A000313924B131F712F9CA7C008039E4902BBF
:1081B0005C313424B731F7540F6408701E31392410
:1081C000BC31F720E015313924BD31F7FDC4540F1F
:1081D000FCED540FB504047D078009313924B13119
:1081E000F712F9CA7C00020BA0020794C219902B67
:1081F000BE12125AE92402F9E43AFA020E22902E33
:108200003F121263E94AC36001D3400241E0902E5D
:108210003F31F130E01751E224B731F7540FFFBF7F
:108220000503D38001C3400512F959214112F6E636
:1082300012F95912F6DB5015E0FF94045002800247
:108240007F0451E212C7C4128D6112F950902E3F83
:10825000121D0C5467902B5851E124E831F7902BF4
:108260005351E124F231F7902B5951E124F331F7C6
:10827000902B5A51E124F431F7902B5B51E124F01B
:1082800031F7902B5151E124F131F7902B5251E10C
:1082900024F5121D1212DFB751E124EC31F7902EB4
:1082A000427003F080037401F051E224E5121D12C4
:1082B00045F06026902E42E0FF12F6FCC003C0029B
:1082C000C00151E224E5121D12FDACF0F58285F0EB
:1082D00083D001D002D00312139A12F95912AD9A29
:1082E00022F0902E3F12125AE922E547600261A166
:1082F00071A7E9240431F730E61771A712F784E477
:1083000075F06412101D71A77406120EBDC2228092
:108310004371A7E9240531F7442071A6E9242A1204
:108320008D2971A7124B5A71A7124B3971A7740589
:10833000120EBD71A7E9240431F730E3067E037FF6
:10834000E880047E077FD071A712F784EE8FF012C9
:10835000101DD22290057231F1FF900572128CE54A
:1083600031F7FD71A7124B88C003C002C00171A78D
:10837000E9240631F7900834F071A7E9240431F7B5
:1083800054F7900835F0A3740AF0A374E2F0D0011A
:10839000D002D003120BB4EF700771A77407120E4E
:1083A000BD2290121AE0FF90057202125A902D5FC2
:1083B0001212637E007F14120727902D6212461559
:1083C000902D62121F0A700F04120EBD12F9B960CF
:1083D0001B7E007F08800912F9B960107E007F10B3
:1083E000902D5F12460D7404F01243EA227F477D00
:1083F0004812F3B9E54714700312DBDCE4F546904C
:10840000057212EF8D120E2224FE601524FE6016F6
:1084100014601714601814601A2406707691CC80CA
:108420007212F42E806D51EA8069B133806512F4C6
:1084300045806071A7E9241E121D1245F0604CE5CD
:10844000476404600971A7E9240131F7F54871A771
:10845000E92409121D12FFAEF012D8AA71A7E9246F
:108460000B12EF2512101DC003C002C00171A7E955
:10847000241E121D12F58285F083D001D002D00394
:10848000AF4812139A71A7E912F93471A7E4120EDA
:10849000BDC22F0546E546C39402500261FFE54583
:1084A0006009FD7F0112F363E4F54522902E62120C
:1084B00012637E007F1412436A7E007F10902E624A
:1084C00012125A12B5DD1247187F012271A7E41269
:1084D0000EBD71A7E9240531F714600304705371D0
:1084E000A7E9242D31F7540F900917F09005726019
:1084F0002E12125AE9242C31F7FF122AC2EFFD90F6
:108500000917E014F075F064A42419FFE435F0CFE6
:108510002DCF3400FE71A712F784EE8FF080091280
:10852000125A12F784E4F5F012101D71A7740212AA
:108530000EBD22E54724FD604C14601224037064D4
:1085400012F3FA505FC22E71A712F7F0804C71A798
:10855000124BFEC003C002C0017B017A0579C01234
:108560008D61D001D002D0037F13128CA271A7E9D4
:10857000240431F754097002802371A2E9241312F4
:108580008D29D22E22900572128CE531F7B5481450
:1085900071A2E92413F9E43AFAEF120EBD71A7743F
:1085A00007120EBD2212436AE433FF2290085412D0
:1085B0001263121278E9240A31F7541FF549128C1C
:1085C0002D240731F7FFE54464016022E54464028D
:1085D000601C7413D39F5016E549B40206741AD375
:1085E0009F500BE549B40108741CD39F4002C3227D
:1085F000128C2D240B31F730E21C128C2D24093102
:10860000F7FF65546010128CFE400B128C2D240471
:1086100031F7FF12D8D3E54964026002C1D4128C4D
:10862000CEE9240731F730E702C1D2128C2D24099C
:1086300031F7FF65546005128CFE5028202E02C1D0
:10864000D2C22E128C2D240431F7FD7F0312F36366
:10865000128C2D240431F7FFD25B128C2D241412BE
:10866000D980806E128C2D240D31F7FF540FFE60DF
:1086700061128C2D240EF9E43AFA1E7C00E92EF9E1
:10868000EC3AFA120E2265547048128C2D240731F0
:10869000F7641A703D128C2D240DF9E43AFAEF5468
:1086A000F024102E128C2A240C124A8B128CCE121B
:1086B0001278128D617F1912F95FC222128C2D245B
:1086C0000431F7FF128C2D240931F7FD12EF6E12E1
:1086D0000BB4C322E490085AF090085AE0FFC39408
:1086E000045028128C2D240EF9E43AFA7E00E92F6A
:1086F000F9EE3AFA120E22FF65546005128CFE5014
:1087000002C32290085AE004F080CE128C2D24047B
:1087100031F7FF128C2D240831F7FD12DBFF5002D8
:10872000C322128C2D240931F7FF6554700302888F
:10873000A3128CFE50030288A3E544640570030273
:1087400088A3E544640470030288A3E544640670CA
:10875000030288A3E544640770030288A390274CB2
:10876000E020E0030288A3E5496401600B128CCE8F
:10877000E9240731F730E71A202C030288A3E549E2
:10878000640160030288A3128C2D12E26E40030282
:1087900088A312DFC48F46BF0202C322128C2D248D
:1087A0000731F7FF74AAC39F5002C322E549B40101
:1087B0001F128C2D2412F9E43AFA7B01C002C00189
:1087C0007A0579EB128D61D001D0027F04128CA260
:1087D000E54675F0CAA424DEF9740335F0FA7B018E
:1087E000900575121263128C2D240731F7128C93A9
:1087F000124B89C003C002C001128CCE1212781233
:108800008D61D001D002D003128CA2128C2D2404D1
:108810001281F7FF12DB78912D24081281F7FE12E6
:10882000DC54A60612DB6F76070876D0912D240D56
:108830001281F754F0FF606B7440C39F406574F081
:108840002F9193242D1281F7540FFE7404D39E4070
:10885000529194242EF9E43AFAEE12E360E55412B0
:108860000EBDEF2E049193242D912524041281F73F
:1088700091932402912524091281F7FF90057591A7
:10888000E5B12990057512125A7401120EBD91942A
:1088900012F81D7440912A24071281F7B11F919498
:1088A00012F934912D24091281F7FF6554601E914D
:1088B000FE500B91CEE924071281F730E70F2038E4
:1088C0000C912D24091281F7F4600261A991CEE97F
:1088D00024071281F720E704E549602CE54964018B
:1088E000600261A9912D12E26E400261A9E5446423
:1088F000076008E5446405600261A9202B0261A9B4
:108900009027CEE0600261A9912D2412F9E43AFA91
:10891000C003C002C00190085491E5F9E43AFA128C
:108920001298912D24071281F724EDFF900854B17D
:1089300023303814912D24091281F7FF6554600803
:10894000EFF4600491FE500F91CEE924071281F7F5
:108950004401120EBD8002C322E5496401600F91FB
:108960002D24041281F7FFC25B912D12D97E912D27
:1089700024051281F720E72EE5446407600261A216
:1089800090085491E5F9E43AFA121278E9240512B4
:1089900081F76428600261A212E2C37A2779D712B4
:1089A000E2BC600261A2E549640160026138C22B49
:1089B00090085491E5F9E43AFA09E970010AE4757E
:1089C000F004120FE5900854124A8074FC120E68ED
:1089D000912D240D1281F7540F90085BF06055E43F
:1089E0009005D3F090085BE0C454F09005D4F0E417
:1089F00090085CF090085BE0FFA3E0FEC39F502D61
:108A0000EEFDC3EF9DFFE49400CF240DCF3400FEB4
:108A1000912D124BDCFF90085CE024D5F582E43404
:108A200005F583EFF090085CE004F080C790085BE8
:108A3000E02402F090085BE090085DF0D22D7A0708
:108A400079997D051280009007997414F0912D2476
:108A5000091281F790079BF0912D24041281F79061
:108A6000079AF090085712125A7D02120BE19007F4
:108A70009CEFF090085491E5F9E43AFA121278C0AC
:108A800003C002C00191CEE924061281F7902BC1E8
:108A9000F07B017A077999A3121263D001D002D03A
:108AA00003E4FFFED16BC22D91CEE924071281F7BA
:108AB00054FE120EBD9027CEE0602490085DE024A5
:108AC000D3F9E43405FA7B01C002C001B15DD001E5
:108AD000D0027F0791A290085DE02407F08002C3D6
:108AE00022E4F544902773E0FFC25B912D12D97EFA
:108AF00012F9D9D222912D24041281F7FBC0037BF5
:108B0000017A0579D312ACFD90085DE0FDD394079E
:108B10007E0040027E01ED2E900827F0EDD39407F1
:108B20007F0140027FC1900828EF12F28DD003AD83
:108B3000547F03120BB9C32291CE121278B1617F18
:108B40001212F95F90057DE0547FF0912D240412FC
:108B500081F790058AF0912D24081281F790058BFA
:108B6000F0912D240DF9E43AFAB1617A05798C126D
:108B7000F9D2912D24091281F7FF90057CF0900520
:108B80007F741AF0912D24041281F7FD900581F075
:108B9000A37422F0A37407F0C22212EF6E120BB47A
:108BA0008051E549C37001D322E54464067042E573
:108BB000496401703C912D12E26E503591CEE9244A
:108BC000071281F74401912A2416F9E43AFAC00306
:108BD000C002C00190085491E5F9E43AFA121298E3
:108BE000912D24071281F724E9FF900854B12380C6
:108BF00002C322D322902D31121263AE071FEE6002
:108C000021902D34121F0AFE902D31121F0A6E6022
:108C1000037F0122902D32121D2B902D35121D2B1A
:108C200080D97F0022F9E43AFAEF120EBD90085481
:108C300012125A121278E9227D01AF17300C53ED4F
:108C40006017E4FE91ECE0B5070991ECE4F091D4F3
:108C5000E4F0220EEEB405EC2290265BE0FDE4FC8D
:108C6000FE91ECE0B5070E91D4E0C394FF50239140
:108C7000D4E004F02291D4E0FBEDD39B4004AD039B
:108C8000AC060EEEB405DAEC91EDEFF0EC91D57494
:108C900001F022FF90057512125AE9227A267954C2
:108CA0007F05902D2A121263AE071FEE601F902DD4
:108CB0002D121F0AFE902D2A12125AEE120EBD908E
:108CC0002D2B121D2B902D2E121D2B80DB22900898
:108CD0005402125AEE25E0245BF582E43426F58333
:108CE00022FF902BBE12125AE9240322EE25E02423
:108CF0005AF582E43426F583229027CFE0FFEF6017
:108D000011D394E8500C12C729AD0712A433EF24F5
:108D1000FF22C322902D6AE0902D5EF00243EAFF0D
:108D200090057512125AE92406F9E43AFAEF020E98
:108D3000BD902D27E0FDA3E0902D20CDF0A3EDF018
:108D40001246FD5009902D28E02401FF80027F018A
:108D5000229027A2E004FF902740F07B017A277938
:108D600071902D2D02126390269AE0FE3333335416
:108D7000F8902F03F0200D02C168EF04F511902F39
:108D800003E0FFE511D39F5052902B6CE030E403D9
:108D9000120C09AF1112DF56EF703C12F97CAD11C5
:108DA00012A433EF6031AF1191FE4023E5116554F9
:108DB000601DE5111490273BF01232A6AD077A0929
:108DC0007B89AF1112EA54EF6002C16A02E46012BB
:108DD000F97CAD1112A4BD051180A3C23DC20D9056
:108DE00026B9E0FF65546004EFB5151A90269AE0A5
:108DF000FD12F97C12CB0F90274A12B5EB606BAADB
:108E000006A90702139612EAEA7407F0E4A3F0E554
:108E100015602B7512039026B9E0FD12EAD2900876
