:020000040000FA
:100000000202DF0218034100B8002202180B22226C
:0100100022CD
:07001300021813E4FFE1BC39
:07001B0002181B75C8012249
:030023000218239D
:03002B0002182B8D
:030033000218337D
:03003B0002183B6D
:030043000218435D
:03004B0002184B4D
:030053000218533D
:03005B0002185B2D
:030063000218631D
:03006B0002186B0D
:10007300021873BB010689828A83E0225002E722B9
:10008300BBFE02E32289828A83E49322BB010CE54F
:100093008229F582E5833AF583E0225006E9258239
:1000A300F8E622BBFE06E92582F8E222E58229F57D
:1000B30082E5833AF583E49322BB010689828A832E
:1000C300F0225002F722BBFE01F322F8BB010DE53B
:1000D3008229F582E5833AF583E8F0225006E92583
:1000E30082C8F622BBFE05E92582C8F222C5F0F8D4
:1000F300A3E028F0C5F0F8E582158270021583E0CD
:1001030038F022A3F8E0C5F025F0F0E582158270FF
:10011300021583E0C838F0E822EF2BFFEE3AFEED3C
:1001230039FDEC38FC2275F008758200EF2FFFEEE5
:1001330033FECD33CDCC33CCC58233C5829BED9A10
:10014300EC99E58298400CF582EE9BFEED9AFDEC6E
:1001530099FC0FD5F0D6E4CEFBE4CDFAE4CCF9A8B4
:100163008222B800C1B90059BA002DEC8BF084CFBC
:10017300CECDFCE5F0CBF97818EF2FFFEE33FEED93
:1001830033FDEC33FCEB33FB10D703994004EB99BD
:10019300FB0FD8E5E4F9FA227818EF2FFFEE33FED0
:1001A300ED33FDEC33FCC933C910D7059BE99A4005
:1001B30007EC9BFCE99AF90FD8E0E4C9FAE4CCFB1D
:1001C3002275F010EF2FFFEE33FEED33FDCC33CC71
:1001D300C833C810D7079BEC9AE899400AED9BFDFA
:1001E300EC9AFCE899F80FD5F0DAE4CDFBE4CCFA0D
:1001F300E4C8F922EF5BFFEE5AFEED59FDEC58FC23
:1002030022EB9FF5F0EA9E42F0E99D42F0E89C451F
:10021300F022E8600FECC313FCED13FDEE13FEEFC9
:1002230013FFD8F122E8600FEFC333FFEE33FEED87
:1002330033FDEC33FCD8F122E0FCA3E0FDA3E0FEA8
:10024300A3E0FF22E0F8A3E0F9A3E0FAA3E0FB2296
:10025300ECF0A3EDF0A3EEF0A3EFF022A8828583E8
:10026300F0D083D082120276120276120276120244
:1002730076E473E493A3C583C5F0C583C8C582C878
:10028300F0A3C583C5F0C583C8C582C822E0FBA31C
:10029300E0FAA3E0F922F8E0FBA3A3E0F925F0F0EC
:1002A300E582158270021583E0FA38F022EBF0A3A1
:1002B300EAF0A3E9F022D083D082F8E493701274B9
:1002C3000193700DA3A393F8740193F5828883E4DB
:1002D300737402936860EFA3A3A380DF75812F0279
:1002E300094A9000E551B0AE071FEE60129000E896
:1002F30071031176FE9000E57103EE11BC80E822D4
:10030300E475F0018090900A12EEF0A3EFF09000F4
:100313004FE064016002619CC3900A12E0940850AC
:100323000BE4FF9153900A12918780ECE4F50DFBE7
:1003330071C5AF0C12103DE50DC39408504771C34E
:10034300E50D7F0071BDEF29F9EA3EFA9000E8510F
:10035300B07B017A0979007FFF51E5E50DFEE424C6
:10036300FFFFE43E71BD8F828E83118F9009FFF0F2
:100373007B017A0979009000FBE50DF0AD0C1210BA
:1003830063050D80B2900050513BE42FFFEE34081B
:10039300120D139000500214BC900054E0FEA3E031
:1003A300FF71BE900A12E0FDA3E09000D1CD1208C8
:1003B300D4900054EEF0A3EFF022FE902001419080
:1003C3007B007A00791012103675FF031176F5D38E
:1003D30075FF0390000171F190000271F190000329
:1003E30071F175D40175FF03E5D55402FF22118F16
:1003F300F5D375FF03229000F1E0FEA3E0FF9130F7
:1004030091539000F3513BEF2401120D109000F330
:100413005153900A18914D900A18E07002A3E070AE
:100423000BFF7E087109120F4212142822B108CD66
:1004330024FFCD34FFFCC3ED9FFFEC9E541FFE74DD
:10044300082F121416FF229000DF74FFF5F001F05D
:10045300B108541FFC74082DF58274203CF583EF1A
:10046300F0902006E0B42019A3E0B4001490200516
:10047300E02401FF902004E03400541FF0A3EFF0C8
:1004830022902006E475F00101F09000BA515390D8
:1004930000BE51B0110AF11EEF6004110F80F71274
:1004A3000F0560099000BA513B7810D1249000BA2F
:1004B300D1209000BA513BE480219000C11208C7BB
:1004C30045F0601B9000BE5190E94A600C1176FF25
:1004D300D1279000BF918780E1E4FFD12780DBF132
:1004E300B79000AF7401F0229000E3E0FF81039026
:0704F3000A1BE014F0E022F7
:10050800902006E0FCA3E0FD902005E02DFD902062
:1005180004E03C22D1C8EF541FFF12148DA37401CC
:10052800F0120F4C9000DCE0FCA3E0FDAE0478056F
:10053800CEC313CE13D8F9FF9000DFEEF0A3EFF08F
:10054800ED541FA3F0A3E4F09000F1F0A3F0C390E2
:1005580000DDE094209000DCE09400407D914A901A
:1005680000E1E0FEA3E0FF9000F1EE8FF011F090C3
:1005780000DFE07004A3E06406700AD1C89000DFD1
:10058800E48FF011F0D1C89000F1E48FF011F0126F
:100598000FFCEF600512148A8005E49000DEF090ED
:1005A80000F1121371701D91309000E3EFF0910388
:1005B80091EB91EB9000DFE07002A3E0604891EBD3
:1005C800914A80F071F971F971F99000DFE07002D9
:1005D800A3E0603271F9914A80F09000DC91878045
:1005E8000A9000DCE07002A3E0600BD1C891039090
:1005F80000DC914D80EB120FFCEF600512148A802D
:1006080005E49000DEF09000DEE06002A12C1214F8
:10061800AB71099000F3413B513B78085115E4E573
:10062800C820E2FB8FEB227F01F1BC900A1C740109
:10063800F0900A1CE06032120FF4D1BC900A1CEF53
:10064800F0120849D1AB9000ACEFF0120849900ABB
:100658001CE054011213BB60D8A3E0F460D3EF3060
:10066800E7CFE4900A1CF080C8F1E87F9FD127D13A
:10067800BC9000ADD1BA9000B2D1BA9000B3F1B538
:100688009000ABE0F4601BA3E0F460169000B2E0C9
:10069800FD541F240FA3F0EDC413540744809000A9
:1006A800B2F022F1E87FD7D1277FFFD127D1C090C0
:1006B80000ABEFF07FFFD127E5C820E2FBAFEB22CC
:1006C800900081E0B4082CA3E0B40027120F2E7B21
:1006D800017A0179009000CA120F45F161120F2EBC
:1006E800E42FFFEE3408120D13120F28E490008156
:0806F800F0A3F0900083120F43
:10070000DB9000835153900081E475F0013106FEC7
:10071000740025F0F58274013EF583E0FF227F012D
:10072000F1BC300216120FF4D1BC900A1DEFF0128A
:100730000849900A1DE020E002C202300219D1AB44
:100740009000ACEF1213BB600BA3E0F46006EF3037
:10075000E702C202120849E4FFF1BCA202E433FF3F
:10076000229000C351539000C751B0110AF11EEFFF
:100770006004110F80F7F1E47F03120F1E600990EF
:1007800000C3513B7810D1249000C3D1209000C306
:10079000120F349000CA1208C745F06011D1BC9006
:1007A00000C75190EF11BC9000C8918780E51208F6
:1007B00049E4FF8007EFF0120849E4FFEFB40104B9
:1007C00043FE202253FEDF229000ABE020E014F134
:1007D000E47F3DD1277F2AD1277F80D1277FA6D1F3
:1007E00027F1B7227F01F1BC9000B0E051B9080AAF
:1007F00004081214081715081C17082C3008313487
:10080000083636083B3700000824531AEF851A8053
:10081000802F531BEF8008531BDF8003531B7F8502
:100820001B90801D531CDF851CA08015531DFE806E
:100830000D531DEF8008531DBF8003531D7F851D81
:10084000B07F0CDFFE2212062712149FEF70FA9081
:1008500000B2E0F4600B900A1B7406F01204F27010
:10086000FB9000B0E01202B9088404088C140891CF
:100870001508961708A63008AB3408B03608B53707
:100880000000089E431A10851A80802F431B108099
:1008900008431B208003431B80851B90801D431C45
:1008A00020851CA08015431D01800D431D1080086C
:1008B000431D408003431D80851DB0900A1B740CAE
:1008C000F01204F270FB2274FFF5F0020106E0FD65
:1008D0009000D1E4F0A3EDF09000CCEEF0A3EFF0A7
:1008E000A31202B09000D111C745F060549000CE21
:1008F0001202901200769000D3F09000CF1204877D
:100900007D80ED60DF3141EE7C0030E7027C0190BC
:1009100000D3E05D7B0060027B01EB6CFCEF25E027
:10092000FFEE339000CCF0A3EFF0AF04EF600C903B
:1009300000CCE06410F0A3E06421F0EDC313FD806F
:10094000C19000CCE0FEA3E0FF2275FF03759E027C
:100950009017FAE493900A0FF075FF02E5E654034E
:100960006002618B7510DE7511AD7512BE7513EFE7
:10097000C2AF75FF0275E404F5E4751AFF751BFF3D
:10098000751CFF751DFF7516FF7517FF7518FF7530
:1009900019FF75FF0253E6BFD11A1210DAB11BEF2F
:1009A00064016002618290180893FE740193FF90C5
:1009B000007FEEF0A3EFF0F5828E83E493FE7401E6
:1009C00093FFC3EE9480500280047E807F008E14DB
:1009D0008F15B1F7FFF5828E83740293F51E7403B1
:1009E00093F51F740493F508740593F50974069341
:1009F000F50A740793F50BC201EF4E700241E4EF64
:100A0000F4FFEEF44F700241E4E514451EFEE515D7
:100A1000451FFFE5084EFEE5094FFFE50A4EFEE5DE
:100A20000B4F4E700241E4E51FF4FFE51EF4FEE5B6
:100A300015F4FDE514F44EFEED4FFFE509F4FDE578
:100A400008F44EFEEF4DFFE50BF4FDE50AF44EFE13
:100A5000EF4D4E700241E47F03718EE50B24FFFFE2
:100A6000E50A71BC640370227F02718EE50924FFE0
:100A7000FFE50871BCB402127F01718EE51F24FFEF
:100A8000FFE51E71BCB40102D2012001577F017144
:100A90008E71B59000D1E51EF0E51FF13B71A07F8E
:100AA0000271AB9000D1E508F0E509719E7F0371FA
:100AB000AB9000D1E50AF0E50B719E7F01718E903D
:100AC0000A10E0FEA3E0FF7BFF7A187900E4251509
:100AD0009000D2F0E51434E89000D1719F4EC370BD
:100AE00001D39201300109F1ACEF6401600261822F
:100AF000D20091FB7B017A007964B1D8741BF012AB
:100B00000761900064E0B4800B9153EF70061214FB
:100B100046EF6002C20030006530011AB1F7F5827D
:100B20008E83740C93FE740D93FF90007DE06E70C5
:100B300003A3E06F604890005012025F00001800AD
:100B400091FBF128F12EEF2401B110B1D27404F021
:100B5000120761900087B10A9000871214BC9000C0
:100B600081F14590004F04F012051C7440D3950CA0
:100B7000400C1203C3AF0C12103D050C80EDE4FFD6
:100B8000F186E4F510F511F512F513021800AEFF29
:100B9000EE54CFFEEFC454F024804EF5FF22A3F0B4
:100BA00011D8900A10EEF0A3EFF022718E900A1087
:100BB000E0FEA3E0FF7BFF7A80790022347F8F8202
:100BC000F583E49322900000EEF0A3EFF0A312026D
:100BD0003B900008120253900006E0FFA3E0900053
:100BE0000CCF806090000C121371605EC3EF9440D4
:100BF000EE94004006A37440F0800590000EEFF0E4
:100C0000B1FFE0FFB1D8EFF090000812023B1207ED
:100C10006190000EE0FFC390000DE09FF090000C8B
:100C2000E09400F090000812024790000EE4FCFDF2
:100C3000FE12011C900008120253914AB1FF11CE1E
:100C4000900000EEF0A3EFF0809A900000E0FEA389
:100C5000E0FF2291FBB101900006E4F07405F13B46
:100C600091F0C006C00791FBEF2407B110B10190CD
:100C70000006E4F0A37414F0D007D00691F0C0068B
:100C8000C007B107B101D10940067EFF7FFF800692
:100C900090006512023B900006EEF0A3EFF0D00743
:100CA000D00691F0D109402F91FBEF241AFFE43ECA
:100CB000FEED3401FDE43CFCB10190006512023B05
:100CC000EF2401FFE43E900006F0A3EFF0900A1637
:100CD000E0FEA3E0FF91F0900069E0FEA3E0FF904A
:100CE0000A16E06E7003A3E06F7F0060027FFF22B0
:100CF00071C5900A16EEF0A3EFF0229000A6020252
:100D00003B9000020202539000A612023BEF241B0C
:100D1000FFE43EFEE43DFDE43CFC22E49000AAF04A
:100D20007B017A007995121378900097E0FF741197
:100D3000D39F5077E4FFFEFDFC7B017A0079FE90A3
:100D400000CAF0A37402F01207619000FEE0FEA357
:100D5000E0FFE4FCFDB1CC91FBEF2402B110B1CC7B
:100D60009000B5E024FFFF9000B4E034FFFEE4FC07
:100D7000FD9000A61202471201F79000FCEEF0A3CE
:100D8000EFF09000A61202479000FCE0FEA3E0FF07
:100D9000C39000B5E09FFF9000B4E09EFEE4FCFD30
:100DA00012011CB1CC9000AA7401F09000AAE0FBE3
:100DB0006017E4FFFE7D02FC900097E024EFF9F855
:100DC00012022890008F120253AF03229000A60255
:100DD00002537B017A0079839000CAE4F0A3229148
:100DE000FBEF2401B110B1D27404F0120761B10716
:100DF000F128900081E14590007FE0FEA3E0227B96
:100E0000017A00790F90000E22E47FFF7EFFFDFC47
:100E1000900065120247D3020204E4900A1EF0908B
:100E20000A1EE0FFD3946F501EEF2410FFF198903C
:100E30000A1EE0FEE42EF582E4344FF583EFF090D5
:100E40000A1EE004F080D87B017A4F79009000D12F
:100E5000E4F0A37470F07F0F7E1D11D8EF4E7F0079
:100E600070027F01901218EFF024FF22900A09EB24
:100E7000F0900A05120253900A0512023BD1C3906A
:100E80000A09E06F603B12000A12071EEF600512AC
:100E9000000F80F5F105600B900A0512023B7810F7
:100EA000120624900A05120620900A05F134900AD1
:100EB00009E0FF1206271207B79000AF7401F0D3C4
:100EC00022C322900A0012025312000A12071EEFD8
:100ED000600512000F80F51207E47F03F11E600B1E
:100EE000900A0012023B7810120624900A001206A3
:100EF00020900A00F1341206BC900A041207B59043
:100F00000A04E0FF227F011207BCD2021207E87F29
:100F10000612062711491207E89000AEE0FF1206FC
:100F2000279000B1E06402229000870202539000F3
:100F30008702023B12023BE4020627A3F07F0F7EEA
:100F40001D22900A187408F0A3E4F022F1429000E8
:100F5000F312025F00000000E4902004F0A3F0A36D
:100F6000F0A3F07B017A2079089020011202B0E40E
:100F7000902000F0227F0F7E1D11D09000D8120229
:100F8000909000DB01CEAB07E4FF9000AAE0600781
:100F9000F1D8D16CE433FF2275FF03E4F59712100A
:100FA00021E59720E1FB75FF03AF9922E4900A1A2F
:100FB000F09000AAE0601B90008F12023BE4FBFA65
:100FC0007902F8D31202045009F1D8D1C3900A1A59
:100FD000EFF0900A1AE0FF229000A612023BEF24E5
:100FE000FFFFEE34FFFEED34FFFDEC34FFFC22E4A6
:100FF000FCFDC1C31207E87F05020627E4FFFEFDE2
:10100000FC900083120E137F0040027F012275FFC7
:10101000037597011121E59720E1FB75FF03AF9957
:101020002275FF038F9875FF0322113675FF03E5C4
:10103000D5F45402FF2275FF0375D4022275FF0315
:10104000EF543F4480F5D1E5D520E20AE5D520E014
:1010500005E5D530E1F1E5D55403FF75FF0375D5FE
:101060000580D375FF03ACD5EC20E13C75FF03EDA3
:10107000543FF5D175FF03E9F5D375FF03EA540F2B
:10108000FF9000FBE0C4547044804FF5D2E5D520BA
:10109000E205E5D530E0F6E5D55401FC75FF0343E4
:1010A000D40275FF0375D505AF042212000A12079A
:1010B0001EEF600512000F80F57F011207BCD202FF
:1010C0001207E87F061208461207E87F011206277A
:1010D0007F03120846E4FF0207BC7B017A0079B067
:1010E0007F0351E47A0079B97F0851E47A0079B638
:1010F0007D027F0951847B017A0079B47D027F0BE8
:1011000051849000B471716006BEFF16BFFF135189
:10111000F35002800451FC80099000B4E4F0A37401
:1011200040F051F3500280089000B17403F0800643
:101130009000B17402F09000B0E01202B9115904AD
:10114000116414116C15117417118A301192341135
:101150009A3611A2370000117F75FF015316EF85F3
:1011600016FD804775FF015317EF800E75FF015381
:1011700017DF800675FF0153177F8517C9802C750F
:10118000FF015318DF8518CA802175FF015319FE2E
:10119000801675FF015319EF800E75FF015319BFBB
:1011A000800675FF0153197F8519CB1208497F11FD
:1011B00051DEE4FF710612062F9000AE7402F0902B
:1011C00000B2E0247F600904701651EB740A8007B6
:1011D0001207C851EB7458F09000B17403F051FC41
:1011E0009000B3E0F4600241829000B6E0FEA3E01C
:1011F000FF64104E70069000B3740EF0EF64204E42
:1012000070069000B3740FF0EF64404E70069000CB
:10121000B37410F0EF64804E70069000B37411F058
:10122000E4B5070AEEB401069000B37412F0E4B519
:10123000070AEEB402069000B37413F0E4B5070A8F
:10124000EEB404069000B37414F0E4B5070AEEB4EB
:1012500008069000B37415F0E4B5070AEEB4100662
:101260009000B37416F0E4B5070AEEB420069000BF
:10127000B37417F0E4B5070AEEB440069000B374F7
:1012800018F001AB900A0AEFF0A3EDF0A31202B040
:10129000900A0BE06047901218E06013900A0AE091
:1012A0002410FF120F98900A0C120290EF801790F2
:1012B0000A0AE06401900A0C7007120290748080A0
:1012C0000512029074FF1200BC900A0D1204879060
:1012D0000A0BE014F0900A0AE004F080B322EF4415
:1012E00020F5FE227D0151847B01227F1051DE908A
:1012F00000AE229000B9E024FE24FD229000B474D8
:1013000001F0A3E4F022900A14EFF0E4A3F09000BF
:10131000B9E0FFB40209740F716974B9F0800CEF81
:1013200064047044743D71697479F01207E4900AA2
:1013300014E060079000B8E0FF80027FAB12062740
:10134000120849900A14E09000B8F07016900A153F
:10135000E0D39400400D7FFF120627900A15E01499
:10136000F080EAE4FF1207BC22900A15F09000B862
:1013700022E0FEA3E0FF4E229000ADE01200BC9000
:1013800000B2E09000011200CE9000B3E0900002A5
:101390000200CEAB05E4FCFD020E6C9000ED1202E3
:1013A000B0E4FCFDC0079000ED1202909000F0E068
:1013B000FF120DD8EFF0D007020761F09000ABE00C
:1013C000FFF42212000A12071EEF600512000F80C0
:1013D000F5229000AFE0FF22E49000AFF0229012DF
:1013E00018E024FF22901218E060057F10020F9889
:1013F0007FFF22902004E0FEA3E0FF24089116FD69
:10140000EF2401FFE43E541F902004F0A3EFF0A36B
:1014100012044DAF0522F58274203EF583E0229040
:101420002006E0FEA3E0FF22902000E0045403F039
:101430007F0033333354F8FEEF2408F974203EFA6A
:101440007B01A30202B0900054741DF0A3740FF04E
:10145000120DDFE490004FF012051C90006BE0FECF
:10146000A3E0FF900054E06E7003A3E06F7F006084
:10147000027FFF22EFB40109D2AD75FF0143AE40F8
:1014800022C2AD75FF0153AEBF221206C89000DC28
:10149000E4F0A3EFF022E5C85402FF75C80222E58C
:1014A000C85404FF22E5C85401FF22900A18E0FE48
:1014B000A3E0FFC3E49FFF74089EFE22120253E4E0
:1014C000FB7A08F9F890005012023B1201658F0C6C
:0114D00022F9
:1017FA00060AFFFCFFFF02281019F819FD017FB83D
:10180A00EF90181393901900730A20364CE557FF8E
:10181A0022EFF557225A2D5761766520362E313040
:10182A00000250A3000E1384000E18FC000E225C66
:10183A00020202003F3F3F04040432323200020136
:10184A0090024DDA4BF4485649F05EE21C2D1C37E3
:10185A0022023046C2D5E830E70FB2D5E4C39BFB7B
:10186A00E49AFAE499F9E498F8EC30E717B2D51259
:10187A001894122251E4C39BFBE49AFAE499F9E41E
:10188A0098F8800312225130D50DE4C39FFFE49EDD
:10189A00FEE49DFDE49CFC227890E4F6D8FD9000DD
:1018AA00007F007E10E4F0A3DFFCDEFA90303CA358
:1018BA00E583C394204011FEAF829020000E0FE40E
:1018CA008002F0A3DFFCDEFA12192002282222325B
:1018DA001D311D3B1D401D451D4A1D4F1D591D63D0
:1018EA001D681D861D8B822D1C16131110101CBE1F
:1018FA001CF01CF51CFAC0577419C0E0C082C083E2
:10190A0075570AE5FF54CF4490F5FF22C057741962
:10191A00C0E0C082C083755720E5FF54CF4490F5DC
:10192A00FF22C0577419C0E0C082C083755736E5DC
:10193A00FF54CF44A0F5FF22C0577419C0E0C082FB
:10194A00C08375574CE5FF54CF44B0F5FF22908011
:10195A00042116908046211690804C2116908253BD
:10196A0021169080492116909F542116909F642138
:10197A001690A022211690A025211690801A2116D1
:10198A009089A7211690A4BF211690A56E211690C2
:10199A00A08C211690A35F211690AA38211690A92F
:1019AA0085211690A94D211690AE68211690A90F8F
:1019BA00211690C024211690C7FA211690CA4521F3
:1019CA001690BEEA211690BE47211690CFF2211634
:1019DA0090D016211690D7ED211690A4F3211690D7
:1019EA00DBB0211690D8AB211690BA93211690BA83
:1019FA0063211690808C211690E04D211690D9A66D
:101A0A00211690D9FA211690D23D211690D1612142
:101A1A001690CFED211690E0FA211690E0FD2116DE
:101A2A0090E1B6211690DD92211690E5AF2116902D
:101A3A00E6FD211690E585211690E70B211690DB2D
:101A4A00BD211690E4A6211690E58D211690E71285
:101A5A00211690E7B5211690EAAD211690E4FA21F5
:101A6A001690EAB7211690B57E211690AF66211618
:101A7A0090E785211690DCB7211690D43221169072
:101A8A00C7AE211690EB7E211690C7A9211690DDCC
:101A9A0060211690D58B211690D5FA211690CFBFCA
:101AAA00211690CE8C211690CFCF211690E938219D
:101ABA001690EB8E211690EBA5211690EBAD211610
:101ACA0090CACA211690CAD0211690EC43211690CA
:101ADA00EC5F211690CC0C211690ACC2211690E92D
:101AEA0007211690E8FA211690E88B211690E8490A
:101AFA00211690E91C211690EC67211690EC7721AB
:101B0A001690C81C211690C922211690CDFC2116C8
:101B1A0090EE3D211690E266211690D7C9211690C3
:101B2A00EE4C211690EE60211690DC102116908B57
:101B3A00F22116909D90211690ADB92116909F8A98
:101B4A002116909D5A211690EEB7211690EED521B6
:101B5A001690EF87211690EF94211690AF9F2116C9
:101B6A0090B45521169089DB211690CA89211690C6
:101B7A00C517211690EFBF211690DDB8211690EFF8
:101B8A00D3211690E5BE211690EFEA211690E6A61B
:101B9A00211690C3B3211690EFED2116908A4A219F
:101BAA001690EFF0211690C1BF211690CD1621167E
:101BBA0090CDEB211690CCEB211690AE3E211690DB
:101BCA00ADD0211690DF2B211690DED6211690ED8E
:101BDA0069211690ABCF211690F0E9211690C0F139
:101BEA00211690C04E211690837D211690F16D2109
:061BFA001690F17A21169D
:101C000090ECFF211690EC7E211690ED3B21169072
:101C1000F1B9211690F1EA211690F218211690F2EE
:101C20004C211690F348211690F2A0211690F3C291
:101C3000211690809C2116908285211690F42121F6
:101C400016908B43211690F43F211690F5D421165F
:101C500090A90B2116908BD2211690F5CA211690CF
:101C6000F614211690B436214290BEDB214290C07A
:101C700063214290C2C9214290C705214290B339E5
:101C8000214290B722214290C77D214290C7A321D3
:101C90004290C7C5214290C7CB214290AECB214292
:101CA00090B0B2214290C819214290C8262142909A
:101CB000C930214290C8AE214290C8ED214290C95E
:101CC000C9214290BFA2214290A6F321429097AB36
:101CD000214290C9E5214290B875214290AA38214D
:101CE0004290A8DB214290B7F62142908BF421422A
:101CF00090CA7F214290CA97214290943E214290FF
:101D0000CA98214290C27A214290CAB0214290964C
:101D10002F2142908000214290CAE3214290CAF6CE
:101D2000214290CB29214290B93A214290CB3521D2
:101D30004290CBB3214290C01B214290CBC12142A3
:101D400090BC53214290BFEE214290CBF8214290AB
:101D5000B8B2214290CBDC214290BE20214290B902
:101D600040214290CC06214290C679214290C24542
:101D7000214290BE4A214290C3C4214290C32421F3
:101D80004290C51A214290CC59214290BAAE2142CC
:101D900090B9B1214290C384214290C5F82142906C
:101DA000C630214290CC5A214290CD01214290B5BB
:101DB00070214290B706214290CD30214290CD5DF6
:101DC000214290B6F3214290B774214290A0D221D3
:101DD0002C90A0DC212C90A134212C90A18D212CC1
:101DE00090A197212C90A1A3212C90A1B5212C90FA
:101DF000A1CE212C909C8F212C90A1EF212C90A280
:101E000025212C90A2E0212C90A407212C90A42025
:101E1000212C90A47D212C90A487212C90A27E219E
:101E20002C90A491212C90A4C5212C90A4CF212CDE
:101E300090A4D9212C909F8E212C90A05F212C90D2
:101E4000A531212C9082DF212C90A60C212C90A66C
:101E50000D212C908000212C90A64B212C9099F9DB
:101E6000212C909EEC212C90A690212C909F30212B
:101E70002C90A6DE212C00E709F608DFFA8046E761
:101E800009F208DFFA803E88828C83E709F0A3DF3D
:101E9000FA8032E309F608DFFA8078E309F208DF16
:101EA000FA807088828C83E309F0A3DFFA8064896A
:101EB000828A83E0A3F608DFFA805889828A83E069
:101EC000A3F208DFFA804C80D280FA80C680D480EA
:101ED0006980F28033801080A680EA809A80A88092
:101EE000DA80E280CA803389828A83ECFAE493A3A1
:101EF000C8C582C8CCC583CCF0A3C8C582C8CCC530
:101F000083CCDFE9DEE7800D89828A83E493A3F640
:101F100008DFF9ECFAA9F0EDFB2289828A83ECFA5A
:101F2000E0A3C8C582C8CCC583CCF0A3C8C582C80D
:101F3000CCC583CCDFEADEE880DB89828A83E49348
:101F4000A3F208DFF980CC88F0EF60010E4E60C389
:101F500088F0ED2402B4040050B9F582EB2402B4F9
:101F6000040050AF2323458223901EC773BB010694
:101F700089828A83E0225002E722BBFE02E32289A3
:101F8000828A83E49322BB010B89828A83F8E0C8AA
:101F900028F0E822500327C722BBFE07F8E3C82831
:101FA000F3E8228A838982E49322BB010CE582292B
:101FB000F582E5833AF583E0225006E92582F8E6CA
:101FC00022BBFE06E92582F8E222E58229F582E5B8
:101FD000833AF583E49322BB010989828A83F8E07E
:101FE00028F022500327F722BBFE05F8E328F3224E
:101FF0008A838982F8E4932822BB010FF8E58229BD
:10200000F582E5833AF583E028F0225009C582295C
:10201000F8E58226F622BBFE09C58229F8E2258270
:10202000F222F8EA2583F583E9932822BB01068989
:10203000828A83F0225002F722BBFE01F322F8BB12
:10204000010DE58229F582E5833AF583E8F0225017
:1020500006E92582C8F622BBFE05E92582C8F222E0
:10206000EF8DF0A4A8F0CF8CF0A428CE8DF0A42E94
:10207000FE22BC000BBE0029EF8DF084FFADF022E4
:10208000E4CCF875F008EF2FFFEE33FEEC33FCEEF6
:102090009DEC984005FCEE9DFE0FD5F0E9E4CEFDE9
:1020A00022EDF8F5F0EE8420D21CFEADF075F008BC
:1020B000EF2FFFED33FD4007985006D5F0F222C315
:1020C00098FD0FD5F0EA22C2D5EC30E709B2D5E48D
:1020D000C39DFDE49CFCEE30E715B2D5E4C39FFF41
:1020E000E49EFE122072C3E49DFDE49CFC8003127A
:1020F000207230D507C3E49FFFE49EFE22C5F0F8AE
:10210000A3E028F0C5F0F8E582158270021583E09F
:1021100038F022A3F8E0C5F025F0F0E582158270D2
:10212000021583E0C838F0E822BB010A89828A835D
:10213000E0F5F0A3E022500687F009E71922BBFE84
:1021400007E3F5F009E3192289828A83E493F5F025
:1021500074019322BB010789828A830220FD500B00
:1021600009C5F027F7C5F01937F722BBFE0D09F8AE
:10217000E325F0F3C5F019E338F322F889828A8366
:1021800074019325F0C5F0F8E4933822BB010A8965
:10219000828A83F0E5F0A3F0225006F709A7F01930
:1021A00022BBFE06F3E5F009F31922EF2BFFEE3A0E
:1021B000FEED39FDEC38FC22C3EF9BFFEE9AFEEDFD
:1021C00099FDEC98FC22E88FF0A4CC8BF0A42CFCB9
:1021D000E98EF0A42CFC8AF0EDA42CFCEA8EF0A48D
:1021E000CDA8F08BF0A42DCC3825F0FDE98FF0A41C
:1021F0002CCD35F0FCEB8EF0A4FEA9F0EB8FF0A413
:10220000CFC5F02ECD39FEE43CFCEAA42DCE35F04E
:10221000FDE43CFC2275F008758200EF2FFFEE33E1
:10222000FECD33CDCC33CCC58233C5829BED9AEC49
:1022300099E58298400CF582EE9BFEED9AFDEC99B3
:10224000FC0FD5F0D6E4CEFBE4CDFAE4CCF9A882BD
:1022500022B800C1B90059BA002DEC8BF084CFCE62
:10226000CDFCE5F0CBF97818EF2FFFEE33FEED3320
:10227000FDEC33FCEB33FB10D703994004EB99FBE7
:102280000FD8E5E4F9FA227818EF2FFFEE33FEEDD0
:1022900033FDEC33FCC933C910D7059BE99A4007DD
:1022A000EC9BFCE99AF90FD8E0E4C9FAE4CCFB22F4
:1022B00075F010EF2FFFEE33FEED33FDCC33CCC8BD
:1022C00033C810D7079BEC9AE899400AED9BFDECC8
:1022D0009AFCE899F80FD5F0DAE4CDFBE4CCFAE407
:1022E000C8F922EF5BFFEE5AFEED59FDEC58FC22D7
:1022F000C3E49FFFE49EFEE49DFDE49CFC22EB9F73
:10230000F5F0EA9E42F0E99D42F0EC6480C86480FA
:102310009845F022EB9FF5F0EA9E42F0E99D42F0ED
:10232000E89C45F022E8600FECC313FCED13FDEED2
:1023300013FEEF13FFD8F122E8600FEFC333FFEE77
:1023400033FEED33FDEC33FCD8F122BB010789826B
:102350008A8302238D5005E9F8022545BBFE05E975
:10236000F802255122E0FCA3E0FDA3E0FEA3E0FF7C
:1023700022E493FC740193FD740293FE740393FFB3
:1023800022E0F8A3E0F9A3E0FAA3E0FB22ECF0A33B
:10239000EDF0A3EEF0A3EFF022A8828583F0D083C6
:1023A000D0821223B01223B01223B01223B0E473F0
:1023B000E493A3C583C5F0C583C8C582C8F0A3C58F
:1023C00083C5F0C583C8C582C822A42582F582E5ED
:1023D000F03583F58322E0FBA3E0FAA3E0F922EBDA
:1023E000F0A3EAF0A3E9F022E493FB740193FA74FA
:1023F0000293F922BB010789828A830223D6500502
:10240000E9F802255DBBFE05E9F802256F89828A9D
:10241000830223E8BB011A89828A83D0F0D0E0F8D6
:10242000D0E0F9D0E0FAD0E0FBE8C0E0C0F0022351
:10243000DF5016E9F8D083D082D0E0F9D0E0FAD0AE
:10244000E0FBC082C083022566BBFE16E9F8D0839C
:10245000D082D0E0F9D0E0FAD0E0FBC082C08302A5
:10246000257822BB010DE58229F582E5833AF583C3
:102470000223D65007E92582F802255DBBFE07E955
:102480002582F802256FE58229F582E5833AF583F6
:102490000223E8BB0120E58229F582E5833AF58332
:1024A000D0F0D0E0F8D0E0F9D0E0FAD0E0FBE8C01E
:1024B000E0C0F00223DF5018E92582F8D083D082F3
:1024C000D0E0F9D0E0FAD0E0FBC082C083022566FC
:1024D000BBFE18E92582F8D083D082D0E0F9D0E0A5
:1024E000FAD0E0FBC082C08302257822D083D0825C
:1024F000F8E4937012740193700DA3A393F8740120
:1025000093F5828883E4737402936860EFA3A3A3B6
:1025100080DF8A838982E473EC8EF0A4CCC5F0CC92
:10252000CDF8EFA4CEC5F02DFDE43CFCE8A42EC808
:10253000C5F03DFDE43CFCEFA4FFE5F028FEE43DE2
:10254000FDE43CFC22ECF608EDF608EEF608EFF6AA
:1025500022ECF208EDF208EEF208EFF222E6FB08B8
:10256000E6FA08E6F922EBF608EAF608E9F622E2CE
:10257000FB08E2FA08E2F922EBF208EAF208E9F2D3
:102580002241093700C135C13841093600E0020255
:1025900000003843E0020200022FEDE004020004D4
:1025A00046524545E00102001554E001020016A51F
:1025B000E0E8022568FEFEFEFEFEFEFEFEFEFEFEDA
:1025C000FEFEFEFEFEFEFEFEFEFEFEFEFEFEFEFE2B
:1025D000FEFEFEFEFEFEFEFEFEFEFEFEFEFEFEFE1B
:1025E000FEFEFEFEFEFEFEFEFEFEFEFEFEFEFEFE0B
:1025F000FEFEFEFEFEFEFEFEFEFEFEFEFEFEFEFEFB
:10260000FEFEFEFEFEFEFEFEFEFEFEFEFEFEFEFEEA
:10261000FEFEFEFEFEFEFEFEFEFEFEFEFEFEFEFEDA
:10262000FEFEFEFEFEFEFEFEFEFEFEFEFEFEFEFECA
:10263000FEFEFEFEFEFEFEFEFEFEFEFEFEFEFEFEBA
:10264000FEFEFEFEFEFEFEFEFEFEFEFEFEFEFEFEAA
:10265000FEFEFEFEFEFEFEFEFEFEFEFEFEFEFEFE9A
:10266000FEFEFEFEFEFEFEFEFEFEFEFEFEFEFEFE8A
:10267000FEFEFEFEFEFEFEFEFEFEFEFEFEFEFEFE7A
:10268000FEFEFEFEFEFEFEFEFEFEFEFEFEFEFEFE6A
:10269000FEFEFEFEFEFEFEFEFEFEFEFEFEE0010271
:1026A0002650FFE0010226A828E001022FBBFFE030
:1026B00001022FE900E005022FEA2FED02060A4190
:1026C000041C0601360041041B0141041901C13DEF
:1026D000013B00013900C150412C3000412C250044
:1026E000412C2E00412C2F00412C2CFF412C650049
:1026F0004128BE0041285F055D2B7A0000000000E4
:1027000000000000000000000000000000000000C9
:102710000000000000000000C14341274000C1113B
:10272000C12F014400C12BC12CC12D412F3D0541BA
:10273000302E00C165432BCB000000412BCA004165
:102740002BCE00412DA8FFC139C13BC146412BF220
:1027500000015600C129C127412BE400412BF100A3
:102760006028261D060A000000030008F687778807
:10277000CF7FC04FFBDFFDE0670080800080868058
:10278000BA05E87300800F00006000004121660078
:1027900041217900412169004121620141216C02FE
:1027A0004121640141239E004121610141216A11BF
:1027B0004121630041239B00C148C1494128CF9674
:1027C0004128CB0FE002022FEF0039E00502302351
:1027D000003904060AE0020230280807E005023842
:1027E0002A080705060AE00202382F0013E00C024F
:1027F00038310000030800030008060A060AE00555
:1028000002383D0013FF060AE002023842000000D1
:1028100075819075FF03759E021219200240850292
:1028200018D8902581E47E019360F4A3FF543F30D3
:10283000E509541FFEE493A360010ECF54E0B4E019
:102840000EEFFAEEF9A3A3A3A3DAFDD9FB80D654C9
:10285000C025E0604B5026E493A3F85407240CC82D
:10286000C333C4540F4420C8834004F45680014647
:10287000F6DFE480B00102040810204080E493A356
:10288000FAE493A3F8E493A3C8C582C8CAC583CA6F
:10289000F0A3C8C582C8CAC583CADFE9DEE7808560
:1028A000E493A3F8E493A34003F68001F208DFF475
:1028B0000228251A341A391A3E1A431A481A4D1A90
:1028C000521A5C1A611A661A6B1A7A1A7F1A891AD6
:1028D000931AA7CE881AB11B0B1B101B151B1A1BB2
:1028E0001F1B241B291B2E1B3D1B471B5B1B601B37
:1028F000651B741B791BB51BBA1BBF0904000002C2
:102900000A000000070582022000000705020220DD
:102910000000090401000102020100052400100169
:102920000524010001042402000524060001070516
:1029300081030800201DCC1DD11DD61DDB1DE01D0F
:10294000E51DEA1DEF1DF41DF91DFE1E031E081EE8
:102950000D1E121E171E1C1E211E261E2B1E301E93
:10296000351E3A1E3F000000000000120100020266
:1029700000000858060002000000000001090200E3
:1029800000000100803204030409A280CACF099824
:10299000445CAD550641469503861C73000000005B
:1029A0000005000006000000100000242880000040
:1029B00024208000001138210000442880000044B9
:1029C0002080000034382100003F241E16110E0B19
:1029D00009070504030201F0C8A79177676046382C
:1029E00035323024222014000101020203030404C2
:1029F000050506060707000301020604052A735EA3
:102A0000A11BE21BF6651AE4FD7C0CAB050DEB90F7
:102A1000181F938F828E83F00FBF00010EDCEC7FB6
:102A200007228F828E83E4F074065144740A514465
:102A3000A3A3E4F0EF2404F582E43EF583E4F0A3DD
:102A4000746DF022A3F08F828E83A32290300CEF5E
:102A5000F0902C76E0B40110C2ED7A30790C902D14
:102A60001D5169121C9BD2ED227B011223DF7A2CAF
:102A7000797722902C76E0640170287B017A2C799A
:102A800077121CA5EF701C90300DF0C2ED7A3079F2
:102A90000D902CF35169121CA0D2ED90300DE0FF87
:102AA000121C6E22902C767401F0FB51C77E2A7F97
:102AB0007390093FE0FCA3E04C700A90093FEEF0F0
:102AC000A3EFF0D322C3227A2C797F902DC4122356
:102AD000DF902DC77401F0A37405F07A2C7977028A
:102AE0001C967F0151F2902C76E0B401047B0151D9
:102AF000C722EF600E124328AF82AE83E4FD12447A
:102B00004A80103035037F0022121C5A124516E409
:102B100033FF227F01229004FB1223DFD24DC2EB50
:102B2000E5366002A105E53730E202C322B10EE9C5
:102B300024EC126781125E16A2ED923CC2EDD175B3
:102B400054606034B10EE92403B11B20E12A902EB9
:102B500046E064046022902E45740FF0B10E902E72
:102B6000421223DF124CD41267DE902E467405F019
:102B7000B122A23C92EDD322B10E121F6D540FFF71
:102B8000BF0111E924EDB11B700A90121AE0900404
:102B9000FEF0800AB10E121D1D9004FEEFF0E53725
:102BA00020E06012617940047F0151F29004FE7AC6
:102BB0000479FF124719E433B10DE924EDF9E43A41
:102BC000FA7401121FD7EF700280349004FEE0FF08
:102BD0001267AFE0FE9004FFE0D39E4004F1DCC337
:102BE000229004FBB115FDB10E125CB99004FFEF09
:102BF000F0E0FF7006D2EBD21F81EBEFB40204D2FB
:102C0000EB81EBD1755460600FB10EE92403B11B69
:102C100020E105E4902E46F01261795005C257126A
:102C200044D0125BE4E5D120E0FBE4F530B10EE9DD
:102C30002408F9E43ACFE9CFF5318F32B10EE92417
:102C4000B1B11BF538AE311262AEB10EE924B1B1AB
:102C50001BB10DE924E1B11B2FFFE433FEEF24018A
:102C6000FFE43EFE9004FBB115125A5B500574015F
:102C7000121FD7B10EE924B2F9E43A8B40F541892D
:102C800042B10EE924E1B11BF543D175540790041C
:102C90001BF0753608B10EE924B2F9E43AFA126273
:102CA000A2B10EE924E1B11BFFAD381262CA7B016B
:102CB000E4FDFF126244E4F5FFE5D25480440CF5D4
:102CC000D29004FEE09004FBB1142418FBE433FA24
:102CD0007D03125D60D175FFAEF0A24D924C900461
:102CE000FEE0900AC7F0125A654006A23C92EDC37E
:102CF000229004FEE0B10DE924F1124FCEA23C92E5
:102D0000EDD2EBD322A23C92EDD2EBC322FF900492
:102D1000FB0223D6FF1223D6E924B9F9E43AFA02DA
:102D20001F6D902E46E024FC7002C134147002C165
:102D30002D147002C11D147002C15324066002C11B
:102D40006EE5366002C16EC2EBD16F121D1D902F71
:102D5000D0EFF0E53730E002C11A1247D660047FA9
:102D60000151F2902FD07A2F79D11247194004D215
:102D7000EBC185902FD0E01267AFE0FF902FD1E03C
:102D8000D39F4002E1DC902E45E0640F7024902F29
:102D9000D0E0902E42B114FDD16F125CB9902FD1CA
:102DA000EFF0E0FF7005D2EBD21F22EFB40203D2A6
:102DB000EB22125BF0D16FE924E2B11BFF902E42AF
:102DC000D178FDACF0E4FB125C1CC24C902FD0E03B
:102DD000900AC7F0E4FFFE125A65503BD2EB902EEA
:102DE000467402F0125C537E00E4FCFD7BD07A1244
:102DF0007913F81221C612495E12185EAB07AA06B3
:102E0000902FD0E0FF7D03125D607E5E7FA17D1478
:102E10007C00121CD28003D2EB22D2EB22E53720B9
:102E2000E52AE53730E0257F0151F2801F902E46DC
:102E30007401F022D16FE924EFB11B600774FF1217
:102E40001FD77008121CC8D16F021C5F902E4674E9
:102E500003F022125C3DD21FD16F1267DE124CD4F8
:102E6000902E421223DFE4902E46F0121CEB2290AB
:102E70002E420223D69004FB1223D6E92404F9E45F
:102E80003AFA022129C3900423E094FF900422E03F
:102E900094FF5002D19722E475F0010220FD902D9D
:102EA0004B12238D902D4F1223DF1237C912370B8F
:102EB000EF6005123D3880F5123D4D600A902D4BB4
:102EC0001223657810F108902D4BF103902D4B12D1
:102ED0002365E48021902D5212670D601D902D4FC7
:102EE0001223D6E94A600D121F6DFFF10C902D5090
:102EF000D19780E1E4FFF10C80DBF1B1902C5C74A0
:102F000001F0221223657808122325E4E5C820E2A7
:102F1000FB8FEB227F01F1B69030127401F09030FC
:102F200012E06032126873F1A3903012EFF01236A3
:102F30008AF192902C59EFF012368A903012E054B8
:102F4000011268C860D8A3E0F460D3EF30E7CFE4A3
:102F5000903012F080C8F1E77F9FF10CF1A3902C24
:102F60005AF1A1902C5FF1A1902C60EFF0F1B1909B
:102F70002C58E0F4601BA3E0F46016902C5FE0FD99
:102F8000541F240FA3F0EDC41354074480902C5F0A
:102F9000F022F1E77FD7F10C7FFFF10CF1A7902C25
:102FA00058EFF07FFFF10CE5C820E2FBAFEB22F118
:102FB0000C12368AE4FFEFB4010443FE202253FED4
:102FC000DF22902C58E020E012F1E37F3DF10C7FEE
:102FD0002AF10C7F80F10C7FA6F1AF22D2EBD185D4
:102FE000D21F227F01F1B6902C5DE01224EC300A52
:102FF00004301214301715301C17302C3030313497
:10300000303636303B3700003024531CEF851C80AF
:10301000802F531DEF8008531DDF8003531D7F85D4
:103020001D90801D531EDF851EA08015531FFE803E
:103030000D531FEF8008531FBF8003531F7F851F51
:10304000B07F0CDFFE22C0E0C0F0C083C082C0D0E1
:1030500075D000C000C001C002C003C004C005C0DC
:1030600006C00790300EE5FFF075FF02E5D430E6AC
:103070000C75D440902E3B31B16002917B75FF02FC
:10308000E5D430E50C75D420902E3D31B16002912D
:103090007B75FF02E5D430E40A75D41031AE6003CD
:1030A00012684875FF02E5D430E30C75D408902E01
:1030B0003B31B16002918475FF02E5D430E20C75BA
:1030C000D404902E3D31B16002918475FF02E5D4A5
:1030D00030E11875D402124035EF600F31AE600553
:1030E00012683F800612400212402D75FF02E5D49F
:1030F00030E01075D40131AE60098F828E837F0776
:1031000012251675FF02E5D530E41075D51031AEE5
:1031100060098F828E837F0312251675FF02E5D525
:1031200030E10A75D50231AE600312670475FF0203
:10313000E5D530E01075D50131AE60098F828E8300
:103140007F0412251675FF02E5D530E21075D5040F
:1031500031AE60098F828E837F0A12251675FF02B9
:10316000E5D530E71075D58031AE60098F828E834A
:103170007F0812251675FF02E5D530E61075D5409B
:1031800031AE60098F828E837F0912251690300E32
:10319000E0F5FFD007D006D005D004D003D002D090
:1031A00001D000D0D0D082D083D0F0D0E032902EA9
:1031B0003FE0FEA3E0FF4E22902C8412238D902C42
:1031C000881223DF902C84122365902C62E024FF68
:1031D000FD902C61E034FF5EFEED5FFF902C8DEEE4
:1031E000F0A3EFF04E605B902C8D126734902C8D25
:1031F000F0A3EFF0902C8B91749FEC9E5006A3EC03
:10320000F0A3EDF051DB915760287184C004C00534
:10321000C006C00751DBE94A60057177FF80027F75
:10322000007E0051DB91A0D007D006D005D004125B
:103230002E9E51B4E94A6004918D806B7E007F0020
:103240008065902C8B31B16069902C619174EF9DF9
:10325000EE9C400A902C8DECF0A3EDF0800D902CAC
:103260008BE0FFA3E0A3CFF0A3EFF051DB91576019
:10327000287184C004C005C006C00751DBE94A605C
:10328000057177FF80027F007E0051DB91A0D0079F
:10329000D006D005D004122E9E51B4E94A600491A4
:1032A0008D80047E007F00902C89EE8FF01220FD2F
:1032B0008090D322902C8DE0FEA3E0FFC3902C8C55
:1032C000E09FF0902C8BE09EF0902C84122381E400
:1032D000FCFD1221AB902C8412238D902C880223AC
:1032E000D6EFF4045FFFE4FEEF70037FFF22EFD31D
:1032F000940F4009EFC4540FFFEE4404FEEFD39443
:1033000003400AEF1313543FFFEE4402FEEF30E197
:10331000010EAF0622AB07AA06EB241FFFE43AFE1C
:10332000EF7805CEC313CE13D8F9F9EB541F9030C4
:1033300014F0AF05717CFCAF0551E6AE01EE14C38D
:103340009FC43354E0F9AF04C3EB9FFFEA9400FE3F
:10335000E9FDC3EF9DFFEE9400FEED600FE0FD6020
:1033600007C374209DFD80067D0080027D007C00E7
:10337000EF2DFFEC3EFE22902C91E0FF51E1EFC4D7
:103380003354E022902C8DE0FEA3E0FF902C91E0DE
:10339000FD7115902C8FEEF0A3EFF0A3E0FF51E14B
:1033A000EF75F020A4FFAEF0E4FCFD902C84122316
:1033B000810221AB91961223DFE4902CA9F0A304A3
:1033C000F0902CA631B170028151D3EF9420EE948D
:1033D0000040047F208006902CA6A3E0FF902CA83C
:1033E000EFF0902CA31223D6902CA8E0FF902B4C4A
:1033F000E4F0A3EFF0902C9F12236512394A400E9F
:10340000902CA9E0FFA3E0FEEF4E902CA9F0902CA9
:10341000A8E0FFC3902CA7E09FF0902CA6E09400BA
:10342000F0902C9F122381902CA812688B919612F9
:1034300023D6E94A6007902CA8E0FF80027F009025
:103440002CA4E48FF01220FD902CAAE025E0F0617E
:10345000C1902CA9E0FF22902C8DE0FFA3E0902CDE
:10346000A6CFF0A3EFF0902C8412236571B4902CBA
:1034700091EFF022E0FCA3E0FDD3228F828E837FC8
:10348000010225168F828E83E4FF022516902C8D73
:10349000E0FEA3E0FF22902C9F12238D902CA3220C
:1034A000E92FF9EE3AFA902C8FE0FFA3E0902D522D
:1034B000CFF0A3EFF0227B017A2C795D7D017F03B1
:1034C000121C7D7A2C79667F081267F37A2C796357
:1034D0007F09F1AF7A2C79617F0BF1AF902C6131CC
:1034E000B16006BEFF16BFFF13F1B650028004F1B3
:1034F000BF8009902C61E4F0A37440F0F1B6500253
:103500008008902C5E7403F08006902C5E7402F0AC
:10351000902C5DE01224EC353304353E143546150D
:10352000354E17356430356C34357436357C37009C
:1035300000355975FF015318EF8518FD804775FF59
:10354000015319EF800E75FF015319DF800675FFD7
:103550000153197F8519C9802C75FF01531ADF8526
:103560001ACA802175FF01531BFE801675FF015397
:103570001BEF800E75FF01531BBF800675FF0153C3
:103580001B7F851BCBD18A7F11F105E4FF12434ECF
:10359000122F14902C5B7402F0902C5FE0247F605B
:1035A00009047016F1A7740A8007122FC2F1A774DC
:1035B00058F0902C5E7403F0F1BF902C60E0F46042
:1035C00002C15C902C63E0FEA3E0FF64104E700625
:1035D000902C60740EF0EF64204E7006902C607496
:1035E0000FF0EF64404E7006902C607410F0EF64A2
:1035F000804E7006902C607411F0E4B5070AEEB4AA
:103600000106902C607412F0E4B5070AEEB40206CD
:10361000902C607413F0E4B5070AEEB40406902C05
:10362000607414F0E4B5070AEEB40806902C6074D8
:1036300015F0E4B5070AEEB41006902C607416F08D
:10364000E4B5070AEEB42006902C607417F0E4B5D8
:10365000070AEEB44006902C607418F0F1C9F10B23
:10366000EF6005123D3880F67F01122FB6D2581256
:103670002FE77F06D187122FE77F01122F0C7F03E0
:10368000D187E4FF022FB6122F0CF1E5EF70FB900B
:103690002C5FE0F4600A9030117406F0F19F70FC2A
:1036A000902C5DE01224EC36C30436CB1436D015D2
:1036B00036D51736E53036EA3436EF3636F437008D
:1036C0000036DD431C10851C80802F431D108008B0
:1036D000431D208003431D80851D90801D431E20B7
:1036E000851EA08015431F01800D431F10800843D5
:1036F0001F408003431F80851FB0903011740CF071
:10370000F19F70FC22EF4420F5FE227F01122FB6BC
:10371000305816126873122FA3903013EFF0D18A2D
:10372000903013E020E002C258305819122F9290C6
:103730002C59EF1268C8600BA3E0F46006EF30E785
:1037400002C258D18AE4FF122FB6A258E433FF22F6
:10375000902EB512238D902EB5122365123CB89091
:103760002EB9E06F6037F1C9F10BEF6005123D38FB
:1037700080F6123D4D600B902EB512236578101225
:103780002F08902EB5122F03902EB5F1EB902EB985
:10379000E0FF122FAF902C5C7401F0D322C3229073
:1037A0003011E014F0E0227F10F105902C5B227BB9
:1037B000017D02021C7D902C66E024FE24FD2290F7
:1037C0002C617401F0A3E4F02275FF02E5E430E11E
:1037D0000675E40675E40322F1C9F10BEF600512EA
:1037E0003D3880F622E5C85404FF22122365E40226
:1037F0002F0C75FF028FD675FF02AF058FD77F01A3
:10380000EFC36001D392ED22E475FF02AFD4CDEF98
:10381000CD75FF02AFD5EFFCEDCEECCEFF2275FFEC
:1038200002EFF452D475FF02EDF452D522902EE748
:103830001223DF902EEA51A6943F4003743FF075A7
:10384000FF02E5CD20E13EE5FD254E04543FFFE5B6
:10385000DD543F6F6027902EEA51515020902EE7A3
:103860001223D6854E8211A3AEFD7178543F248E6B
:10387000F582EC3406F583EFF0054E80CAE5FD25B0
:103880004E543FF5FDAF4E2290303BEFF07B017A76
:1038900030793B7D01112D7F01221188221223D620
:1038A0001E8E82758300021FAA902E9B311BE58F0E
:1038B00020E0FB3122E4FF902E9B1223D68F821151
:1038C000A3F5930FEFB410EFE4FF902E9E1223D6D2
:1038D0008F8211A3F5940FEFB410EF22902D783161
:1038E0001BE58F20E0FB31227E10902D7B119DF592
:1038F00093EE70F67E10902D78119DF594EE70F693
:103900007F01313212667DEF70FA7E10902D7E12AB
:1039100023D61E8E82F1E6EE70F2221223DF75FFAF
:10392000012275FF01538F0675FF01538FF075FF5C
:103930000122EFB4010812665A4401F58F2275FF87
:1039400001E58F54F04406F58F22902B4512238D0C
:10395000902B491223DFE4902B6EF0D3902B4DE097
:103960009420902B4CE094004001227B017A2B792B
:103970004E902B4C1267B9902B4512236531BF90A6
:103980002B491223D6E94A600B902B6EE0F5821189
:10399000A3FF80027F00902B6EE0244EF582E4347A
:1039A0002BF583E06F6002C322902B6EE004FFF0E2
:1039B000D3902B4DE09F902B4CE0940050C122906F
:1039C0002D5412238D902D581223DF1237C9123730
:1039D0000BEF6004B13880F6122FE37F03B167600C
:1039E0000B902D541223657810122F08902D54122D
:1039F0002F03902D541237EB902D5B12670D601042
:103A0000122FA3902D58F1DF902D59122E9780E898
:103A100012368AE4FF022FB6902F70E075F005A4ED
:103A2000242EF9742B35F0FEAF017B017A2B7975CA
:103A3000902E4C7405F0902E491223DFE4FCFDC05B
:103A400007902E491223D6902E4C126799D0072149
:103A5000BFE0FFE54EC39F22902EEF1223DF902E92
:103A6000F251A6943F4003743FF075FF02E5CB2569
:103A70004E543FFFE5DB543F6F601E902EF25151D4
:103A80005017ADCB51FC543F244EF582EE3406F571
:103A900083E0902EEF710480D4E54E600625CB5470
:103AA0003FF5CBAF4E22EDF0E4F54EEDD322902E54
:103AB000F31223DF902EF651A6941F4003741FF0DB
:103AC00075FF02E5CC254E541FFFE5DC541F6F60E7
:103AD0001E902EF651515017ADCC51FC541F24CEE0
:103AE000F582EE3406F583E0902EF3710480D4E580
:103AF0004E600625CC541FF5CCAF4E22ED254EFF6F
:103B00007E00EF22FF1223D6854E82758300EF12CE
:103B1000203E054E22902EEB1223DF902EEEEDF08C
:103B2000E4F54E75FF02EDD3941F4003741FF0754A
:103B3000FF02E5CD20E23EE5C9254E04541FFFE516
:103B4000DE541F6F6027902EEE51515020902EEBC7
:103B50001223D6854E8211A3AEC97178541F24EE6C
:103B6000F582EC3406F583EFF0054E80CAE5C925F1
:103B70004E541FF5C9AF4E22FFE54EFDEE2DFD7CE4
:103B800000ED22902E4CF041361234B6121C3C123D
:103B90001D18121C91900938E06401700281407F69
:103BA000FF1219949004CD1223DF7E007F1591B58A
:103BB000BF540D7E007F1691B5BFA5047F01800222
:103BC0007F00900936EFF0640170549004CD122309
:103BD000D6AE02AF017A0479D37402B1249004D333
:103BE000E0FEA3E09004CDB12CE92407F9E43AFA11
:103BF0009004D01223DFE92408F9E43AFEAF017BF8
:103C0000017A0479D3740271839004D3E06406705E
:103C100004A3E0640A6008121999900936EFF09045
:103C20000936E0701B7E007F10C006C374439410F9
:103C3000FE7438124CCBD00691FEE4FFFE12199EA2
:103C4000121B51121A84121A07125E933065057501
:103C50004F01802D1266A1121962F156FE4FFDA38D
:103C6000E0FC4DFDA3E0FB4D600BEE5FFFEC5FFF62
:103C7000EB5FF47002B17190093DE0654F9009313E
:103C8000F0E4902D4AF0902D48F0A3F002185A75F8
:103C9000FF02E5DB543FFFE5CB543F6F7F0060023E
:103CA0007F01229026BEE075F016A424E9F9741F66
:103CB00035F0FEAF01E4FCFD902EB012238D1237DB
:103CC000C912370BEF6004B13880F6122FE37F037F
:103CD000B167600B902EB01223657810122F0890F8
:103CE0002EB0122F03902EB01237EB122FA3902E6E
:103CF000B4EFF0122FB1902EB4E0FF228091B10802
:103D000074FFFDFC227405F0902DF01223DFE4FC1B
:103D1000FDC007902DF01223D6902DF31266E0D04F
:103D2000070231B87B01902E4CF04136FF1223D6AA
:103D3000C3E99FF9EA9EFA22E53730E20FE5372022
:103D4000E50AE53730E0057F01122AF2227F0112F1
:103D50002FB6D258122FE77F06122F0C12368A1276
:103D60002FE7902C5BE0FF122F0C902C5EE064029A
:103D700022E4FF122AF2EF6035F17FB1AF50051255
:103D800068C040F57B017A09793DB1AF500EF1561C
:103D90005FFFA3E05FFFA3E05FF460E87F01122A0A
:103DA000F2754F017E007F08F17FF1D7F15122902B
:103DB0002CCFF15E902CD512239900000001902C9D
:103DC000D97401F0F5FFE5D554C070051261795042
:103DD00002C322E4F5FF53967F75FF0175D5047F7A
:103DE0003FFEF18A75FF0143D508E4F5FF5394FBCC
:103DF000F5FF53847FF5FF7598FF902CD3E5F4F021
:103E000075F49C75FF01A3E5E4F075E4257B017A68
:103E10002C79D9F11F902CD9E064016002C1D9F549
:103E2000FF902CD27414F0902CD5F108FF78011279
:103E30002338902CD512238DE5A730E1FB43A70250
:103E4000902CD5F108FFE5A730E005E47B01800266
:103E5000E4FBFAF9F8EF4BFFEE4AFEED49FDEC48C2
:103E6000FC902CD512238D902CD2E014F070B890D9
:103E70002CD5F108FF78101223257B6D7A4E79C678
:103E800078411221C6EF2439FFEE3430125132E46A
:103E9000FBFA7901F8122251EE547FFEE4FDFC1288
:103EA0005AB0902CD5F108FFEB6FFFEA6EFEE8CD1B
:103EB000EFCDCCEECCECFF902CCFF116EF12202CF6
:103EC000902CCFF116900001ED12203E90120FE0E1
:103ED00030E606E4F5FF75968075FF01E4F5D590B0
:103EE0002CD3E0F5F475FF01A3E0F5E41260D79060
:103EF0002CD9E0B40103D38001C32225E025E024BE
:103F000001F582E43412F583E0FCA3E0FDA3E0FEBA
:103F1000A3E022902F14E0FBA3E0FAA3E0F92290A3
:103F20002F67F15E7F017C127D01E4FE8D828C8320
:103F3000ED2EF582E43CF583E02FFF0EEEB412EC9B
:103F4000901213E06F6009902F67F116E412202C95
:103F5000227404F0A10890093BE0FFA3E022EBF0FB
:103F6000A3EAF0A3E9F0227FE87E0312469475FFEE
:103F70000343918022F9E43AFA902E071223DF7B63
:103F8000017A09793B227F147E00F1BAF16E75FF48
:103F900003E59120E7FB22F1B053DB7F75FF01754C
:103FA000D502F186F1B043DB8075FF01E4F5D5223F
:103FB00075FF01438E1075FF012275FF03D3EF9447
:103FC00002EE9400400874FE2FFF74FF3EFEEFF5F2
:103FD00092EE540FF59122902DF3E4F0A322FF12FC
:103FE00023D6EF02202C758300E59302203E75FF57
:103FF00002E5DC541FFFE5CC541F6F7F0060027F99
:10400000012275FF0153CCFD43FB40124023759EF6
:104010000143FB0975FF03859E9E75FF03859E9EE8
:104020007F012275FF0243D20175FF03221123E4B1
:10403000F59E7F012275FF02AFD3EF7F0030E602CD
:104040007F0122AD07901215E054FCF0E0FFED5423
:10405000307E0060027E02EF4E901215F0E0FFED20
:104060007E0030E0027E01EF4E901215F0229009A2
:10407000437402F0900936E0FF121E531143900979
:10408000437405F02275FF0275E404E4F5E475FF5E
:1040900002E5E630E011901215E0540C600971D78A
:1040A000901215E054F7F01218A2125FCC90093864
:1040B000EFF0901200E0B47A14901214E0B49C0D6A
:1040C000900938E0FF64056004EFB4032EE4900922
:1040D00042F0900942E0FFC394805013E42FF58230
:1040E000E43412F583E4F0900942E004F080E390B8
:1040F0001200747AF0901214749CF0121C87400322
:10410000121C827B017A1279107D017F01121C7DC5
:104110007B017A1279117D017F21121C7D7B017A4E
:104120001279127D017F22121C7D7A12791D7F0285
:104130001267F390121DE0B401057F011261AB120A
:104140001C1E125FCC121C19900938EFF0121D22B0
:10415000121C0F900938E0FF121E4EEF24FFB3929D
:104160006575FF0253E6BF125080121C28123B896E
:1041700020650B116E7B017A277971121A987F01E5
:10418000122AF2D2AF206502410C121C8C1219A324
:10419000121E49121C7840F2900937E0603E121C52
:1041A0004BEF70051267474033E53670FCE537206A
:1041B000E502B11612195DEF70FA71B1500471C3C6
:1041C00050047F01714E900937E0B40204E4FF808F
:1041D00009900937E0B403047F019126121C46E5DB
:1041E0003730E1A6B1634002E4F0E53720E5047121
:1041F0002891441266C9AF82AE83EFC0E071369059
:10420000093AE0FDD0E0FF121D13218A12505D71C2
:1042100046EF7006900937E0604D201C03200947E7
:10422000121C4BEF7005126747403CE53670FCE509
:104230003720E502B11612195DEF70FA71B1500422
:1042400071C350047F01714E900937E070117146BF
:10425000EF600C12481D901215E04408F0800890A1
:104260000937E0FF125F86900937E0600C201C09D7
:10427000300906200203121A70121C8C1219A312A4
:104280004D1DF1F7124805EF7021B152EF60047136
:10429000D780357146EF7030125F54EF702A124CA0
:1042A0009AEF64017022124816801D901215E020CA
:1042B000E216B152EF600C71B1500471C35004E4C6
:1042C000FF714EE4900941F0203605121C46802211
:1042D0001219B7900930E0FEEFC39E4005EF9EFF34
:1042E0008008900930E0F4042FFF7403D39F50023C
:1042F000C236E53730E126B1634002E4F0E537200D
:10430000E504712891441266C9AF82AE83EFC0E024
:10431000713690093AE0FDD0E0FF121D13121BE741
:10432000125EBA12506E410C900939E0FD75F0AA88
:104330009009471223CAED75F002A42432F97409DA
:1043400035F0FA7B0122F1DCB401027F0122902FCB
:10435000D4EFF0E4A3F0902C66E0FFB40209740FF0
:10436000B14A74B9F0800CEF64047044743DB14AF2
:104370007479F0122FE3902FD4E06007902C65E061
:10438000FF80027FAB122F0C12368A902FD4E09060
:104390002C65F07016902FD5E0D39400400D7FFF70
:1043A000122F0C902FD5E014F080EAE4FF122FB604
:1043B00022900001740193B40007E493B41802C37F
:1043C00022D3227F017E009017FCE4935EFE7401ED
:1043D000935F4E24FFB322F19A700790121CE07095
:1043E0000122F19A60227FFFB144901216122365D8
:1043F000EF24FFFFEE34FFFEED34FFFDEC34FFFC55
:1044000090121612238D800C90121CE0FFB144E430
:1044100090121CF0901235E0FD7F01125F9F901208
:10442000341250257F0143FB1075FF0243E640EF35
:10443000600D75FF02E5E120E7FB43FB0D800343C0
:10444000FB0E80FEAF82AE837D019004E31266D73F
:10445000E536707B1261715004C25791D09004E32D
:10446000E0FEA3E08E31F532A31223D690041D1294
:1044700023DFAE31AF327DAA126278E4F5FF75D941
:1044800008F530E5375421602BE53730E504E4FFCB
:10449000D1CDE49004E8F09004E8E004F01254F088
:1044A000EF60099004E8E0C3941040EB7F02121E15
:1044B000715337DE125BD4125BCA5005E004FF80F3
:1044C000027F00F1E8D25791D0D2EBA23C92ED22CC
:1044D000903010E5F4F0E0547FF5F47F827E00D157
:1044E00094123F6EB1785005E5FC20E6F73057088E
:1044F000903010E04480F5F4123F67B1785005E544
:10450000FC20E6F775FF01E5D520E702C322E5F4BC
:10451000D330E601C322E53670281261715004C21F
:104520005791D01255D17F08121E71125BE4E5D16C
:1045300020E0FB4337205337FEE4F530A23C92EDF8
:10454000D322C32275FF028FE322902FD5F0902C47
:104550006522F1DCB402027F0122C2AFEFF45237D0
:10456000D2AF227F02B15A900939E0900942F0900F
:10457000093904F0C394022275FF03E591C330E7C3
:1045800001D322902DE71257E0EBF0902DED74014E
:10459000F0C256123F67B1785005E5FC20E6F7D12E
:1045A000E9BF0108E4F5FC75FC408007D1E9BF02D2
:1045B00002D32275FF0153D8EF902DE8E0FF12617E
:1045C0004775FF0153D5DF53FAFB902DE7E0FFD18C
:1045D000CD902DE8E0902DE7B4080BE0123EFB24CF
:1045E0005212512F8005E0123EFBFF125360902DB6
:1045F000E9E0FF1261A575FF0175FF03759B0412C9
:104600003F6775FC42E5FC20E104B17840F4902D51
:10461000EAE0F075FF03E59B20E704B17840F4E59C
:104620009B20E70D75FF03759B1F1255D1D2568055
:104630004FD1C6123F1F902DE8E0FD90120FE05DB4
:10464000701D902DE7E0FFD1C61258CC90120FE0FC
:10465000FF902DE8E0FEEF4E90120FF01252831201
:10466000548B7B017A2D79EBF1A9500FC3902DEC7F
:10467000E09420902DEBE0940340E7D1C61255ED75
:10468000123F8E305602A18B902DEDE0B40103D382
:104690008001C322902F03EEF0A3EFF07B017A2F6D
:1046A0007905F1A95014902F05E0FEA3E0FF902FAB
:1046B00004E09F902F03E09E400B902F03E0FEA3A9
:1046C000E0FF123FBA227B017A2D79ED2275FF01BE
:1046D000E5D530E602C322E4F5FF439A80EF125796
:1046E000CDE4F5FF539A7FD3227FFA7E00123FBAC2
:1046F000123F6EE5FC30E604B17840F7E5FC30E6A9
:10470000037F032275FF01E5D530E6037F0222E532
:10471000D57F0030E7027F0122E0FF7B01902F135D
:10472000EFF0A3123F5E75FF01F1D66002C322E5F0
:10473000F430E602C3227FE87E03123FBA123F6ED6
:10474000F1C0400122C25791D0902F13E0FFD1CD8C
:1047500053F4DFD25791D07F787E001254A675FFB4
:104760000153E4BFE5E430E7FB124DC57F8A1255E3
:10477000C930E606123F13E4800875FF01123F13AB
:10478000E5D912202C75FF0143E4401257C54003C0
:1047900043F420F1C0400122D322E4FFFEFDFC904F
:1047A0001216122381C30223141254E4AD94EF4D68
:1047B0001257D58FF012218CE591C330E701D32237
:1047C000E5F730E50FE5F754C07004B17840F11219
:1047D00055C2C322D322D1E9EF640122900941E0FE
:1047E0007F0022E4F536A116D1CD43FA04E4F5FFAB
:1047F00053D1FD43D10122900941E0FF121E4490A4
:104800000946EFF022900946E07F0070027F012206
:10481000E4900941F0229009417401F0229009418D
:104820007402F0221247DC70027F012275FF0275CC
:10483000E40475E40175E4022275FF0275E404E402
:10484000F5E422A24A923522D2091219B7900944FE
:10485000EEF0A3EFF02291DBEF70087FA07E0FFD5A
:10486000FC01F59190902C26EFF07406D39F4067E1
:10487000E0605A316D7E00902C26E014FDE5F0A832
:1048800005088005C333CE33CED8F9FF31663152E7
:10489000902C27122381C000C001C002C003902CBD
:1048A00026E014FF74107E00A807088005C333CEED
:1048B00033CED8F9FFEE3395E0FDFC315E1221C610
:1048C000D003D002D001D0001221AB8028316DAFCF
:1048D000F07E003166801E902C2EE0FF600FE4FC1D
:1048E000FDFEFB7AF47901F81221C680087F007E74
:1048F000D07D077C00315231807E497FF0C006C0F8
:1049000007314A917CD007D00671E291B1EF70393E
:104910003158D31223144007E47F01FEFD80223179
:10492000581222513152314AE47B01915D501431C9
:104930004AC3EF9401FFEE9400FEED9400FDEC9469
:10494000003151314A31AC114822902C27022365A5
:10495000FDFC902C2702238D902C27122365E47BED
:10496000E87A03F9F8227C007D640225183175EF9E
:1049700075F0A08422900931E064AA2411FFF0228E
:10498000916BEF600FE47FA07E0F3150901215E025
:1049900054E7F022901215E0FF74E0D39F4005E049
:1049A0002410F022EF6410901215F022902EFF12C6
:1049B000238D31EAE47BFF915D501CE431E9122242
:1049C0005190121612238DE47BFFFAF931E912227D
:1049D0005190121CEBF02290121612239900000045
:1049E0000031EA90121CEFF022F8902EFF022365AE
:1049F000914F902C2BE0B4020A9164902C2B7403FD
:104A0000F0419D902C2BE064037079902C2DE06098
:104A100056902C2FE0B40105121C05800A902C2F13
:104A2000E0B40203121C0A902C2DE014F0E0601F89
:104A30003175EF75F04684E5F075F064A4FFEF245E
:104A4000A0FFE5F0340FFEE433FDE433FC8007E41F
:104A50007FA07E0FFDFC902D9312238D7E497FF069
:104A6000E4902D97F061E2902C2B7401F0519D9011
:104A70002C3274FDF0902C317407F07B017A2C7984
:104A800031021E58902C2BE0B4040E916BEF60069F
:104A900091D4E4FF0156121C05227401F0902C2BD6
:104AA000E0640270207C4B7DF47F01121AC57E49C0
:104AB0007FF0C006C007E47FD07E07FDFC917CD06C
:104AC00007D00661E2902C2BE064037017FFFE31E3
:104AD00050902C2FE07C4B7DF4B402047F038011B6
:104AE0007F02800D902C2BE0B4040B7C4B7DF47F77
:104AF00004121AC521F0902C2BE0B4010B916491A3
:104B00004F7109E4902C2BF022901215E05403F021
:104B100022902DD9EFF0C250121B9CEF5423642039
:104B20006023902C2BE0601D7B017A2D79DA71DCFB
:104B30009173902DDA7406F0A3E54FF07B017A2D86
:104B400079DA121E58902DD9E0607D71EBE0600299
:104B5000519A902DD9E0FFB40107902C2F74018059
:104B600009EFB40310902C2F7402F07109902C2DD2
:104B70007404F0804BEF64047038121B9CEF5423D4
:104B8000FFBF2013D25091A5EF7004710991889056
:104B90002C2B7404F08035121B9CEF5432FFBF02A3
:104BA0000C900938E0B40505E4F0121C0071097F8F
:104BB0000022902DD9E0B40213E4902C2DF071095D
:104BC000902C2B7402F0800471EB04F0519D902C1A
:104BD0002BE07F0060027F01221223D6902E00027C
:104BE00023DF1219B2902C30EFF022E4902C2FF03A
:104BF000902C2B22902EFB1223DF914F9149121FF4
:104C00006D902EFEF0902EFB71D97B019173902E4A
:104C1000FEE0B401199149E92401122D1B902C2CBE
:104C2000F074FE12202C902C2B7405F08015902E21
:104C3000FEE0FF64066004EFB4070D902C2BE060EB
:104C400002519A9149121E5822902EFB0223D690AF
:104C50002C30E0FF1219ADE4902C30F022FAF9F874
:104C6000C3022314E4FDFCFF021AC5901215E054A0
:104C700008FF227A2C79317F06021985902D931234
:104C8000238DE4902D97F022901215E04404F02239
:104C9000901215E0C4135407FF22200D0511487F20
:104CA00001227F0022901215E07F0030E2027F0196
:104CB00022901215E07F0030E0027F0122AE073122
:104CC00075EE04FEEF8EF084AFF0229400902DF389
:104CD000F0A3CEF07B007A00790022901215E05408
:104CE00014FFBF14047F0180027F0022902EA612C1
:104CF000238D902EAAE05402901234F0902EA6122A
:104D0000236521ACC003C002C0017B017A2D794527
:104D100071DCD001D002D0037F030219851247D67F
:104D2000706CB1CF902FD2EFF0D394035060902DE0
:104D30004AE0FF902FD2E06F7054B18F902FD3EFE5
:104D4000F07B017A2F79D37D01121D0E902FD2E0D6
:104D50002445F582E4342DF583EFF0902D4A125B63
:104D6000D77C007D03122072AF05EFF07020902DEC
:104D700048E07002A3E060167B017A2D7942B1040D
:104D80007B017A2D7942902D48B1BB12251622E481
:104D9000FFE5F754C06002801675FF01E5D530E3EA
:104DA0000DB1B450F4B1AFEF60EFB1B450EB22B13C
:104DB000C5AFD92275FF01E5E43322E0FEA3E0FF91
:104DC000F5828E832275FF01E4F5EA75EAFF22E59C
:104DD000F45418131313541FFF22C0E0C0F0C08313
:104DE000C082C0D075D008C0FF75FF01E5D530E6A0
:104DF000047F028009E5D57F0030E7027F018F3A0A
:104E0000E53A64026002C199E5361224EC4E2601AF
:104E10004E39024E85084E44094E4F0A4E5D0B4EE8
:104E20007A0C00004FA075FF0175C355153CE53C99
:104E30006002E1A0753602E1A075FF0175C3F0754F
:104E40003609E1A075FF0175C35575360AE1A075F5
:104E5000FF0190042EE0F5C375360BE1A075FF014C
:104E600090041AE0F5C3753601753C0890043DF1D5
:104E7000DE6002E1A075360CE1A0902E467406F0CB
:104E8000753600E1A0C2EB753600433704125C456D
:104E90004002E1A0122E97E1A0E53A64016002E130
:104EA000A0F1C74002E1A0E530705275FF01F5EABC
:104EB00075EAFF90041D1223D6E5D912202CF1BB10
:104EC000E0900AECF0126181125C08900419EFF096
:104ED000900AECE0FFD39409404FEFD394AA40022C
:104EE0008047900AECE0F538B1CF90121AEFF075D8
:104EF000FF00900AECE0F5D9753003E1A0E53064DD
:104F0000036002E1A090041DF1D6E92401F1CE7501
:104F1000FF00E5D330E017C3900429E094FF90042C
:104F200028E094FF5003122E97125BA48072C257A0
:104F30001244D075FF00125BE7E5D120E0FBC2EB25
:104F4000433702F1B4A3E0FF90093CE0FEEF6EF1BD
:104F5000B3E090093BF1ADA3A3E090093DF1ADA30F
:104F6000A3A3E0FE90093EE0FDEE6D4F6012C390FA
:104F7000042BE094FF90042AE094FF5003122E9734
:104F8000C3900425E094FF900424E094FF500312A2
:104F90002E977530001538F1BBE538F090093AF0DE
:104FA000D0FFD0D0D082D083D0F0D0E032FEE0FD70
:104FB000EE6D4FFF85328285318322E5322407F57D
:104FC00082E43531F58322E5F754C024FF22F9E469
:104FD0003AFAEF02202C1223D6121F6DFF2274FF23
:104FE000F5F01220FD45F022900ADAEFF0A3EDF083
:104FF0005402901234F0919AEF7002C322900ADAB0
:10500000E0B40412A3E0FB7D017F0112502B900A53
:10501000DA7403F08005900ADB1125900ADAE0903B
:105020000937F0D322E0FB7D01E4FFEB600875FF58
:105030000153CDFD800675FF0143CD02ED600553A0
:10504000FBDF800343FB20EF600775FF0243E14075
:105050002275FF0253E1BF22A24B92382230370D56
:10506000121A2FEF6007C25E121A1BC23722900974
:105070003F1231B16009CAEECAC9EFC91225122226
:10508000D2ADD2BD75FF02758E7175500975FF02E4
:10509000E58E546F4480F58E902EF7122399000010
:1050A000000022C0E0C0F0C083C082C0D075D0082C
:1050B000C0FF75FF02E58E30E43975FF02E58E54BE
:1050C000EF4410F58E902EF7122365312C902EF7B9
:1050D00012238D900000122E97E55030E002054516
:1050E000E550700D755009054BE54B7002054A807F
:1050F00002155075FF02E58530E40875FF0243850F
:10510000100554D0FFD0D0D082D083D0F0D0E03280
:10511000FF7E04FDFCE0F8A3E0F9A3E0FAA3E0FBC6
:105120001221C6E47B7DFAF9F8122251EF2401FF27
:10513000E43EFEE43DFDE43CFC22902B9712238DDF
:1051400075FF0243E180B1D1123F97902BAC12233F
:1051500099002DC6C0E4F5FFF5A490120EF0A3F05F
:10516000902BA77402F0714FFFF595EF14601414A3
:10517000601E2402702A902B97123F0851A4902B96
:10518000A38018902B9B123F0851A4902BA4800B56
:10519000902B9F123F0851A4902BA5E0902BB0F0CC
:1051A00012613A902BB0E0700FF5FFF59675FF0194
:1051B00075D70975F418805C90120EE004F0902BFE
:1051C000A7E0F1CD902BAC123F08FF902BA8917F68
:1051D000C3122314500B902BA8123F08FFA31223D5
:1051E0008D902BB0E0FF126089902BA6E0FFA3E02A
:1051F000FDA25592531260E8A3123F08FF902EAC17
:1052000012238D902BA7E0FF51AB902BA7E0123E0D
:10521000FBFF71607157600221667402F0714FF5F7
:1052200095E5F45407701B902BAC311078011223D4
:1052300025902BA77141F58312238DEB123EFBFFC6
:105240007160715770D775FF03759580F1C5400384
:1052500043F420A2559254D144902BAC123F082421
:1052600020FFEE344E3132E4FB7A04F9F831207835
:1052700001122325C252718EE4F5FFE5BD54F844B6
:1052800004F5BD9012137401F07E127F01E4FD8FCE
:10529000828E83EF2DF122FC901213E02CF00DEDA5
:1052A000B412EC22FF902BA802238D902EABEFF0CE
:1052B000E4A331107801122325902EAB7141F583C0
:1052C00012238D901210E064806075E0C3947F50CB
:1052D0003BEB7143F583C083C082123F08FFEEC0F1
:1052E000E0EFC0E0901210E075F004A4AEF0FBCA4D
:1052F000EECAEA3395E0F9F8D0E0FFD0E0FEC3EF64
:105300009BFFEE9AFEED99FDEC98802C902EABE081
:105310007143F583C083C082917F901210E0F40442
:1053200075F004A4FFAEF0EE3395E0FDFCEB2FFF2B
:10533000EA3EFEE93DFDE83CFCD082D08312238D9D
:1053400022E0FB25E025E02401F582E434122275F9
:10535000FF03902BA7E022902BA7E0FF14F0EF2291
:10536000902F0712238D75FF01902F07A3E0FDA357
:10537000A312680C8FE1902F07A3A3E0FEA312688D
:10538000028FE2902F07A3A3A3E0FF8FE322902BCD
:10539000FB12238DE4F5FF75BB0575BB8575FF0119
:1053A00075D5022052087F3FFE123F8A918B75FF10
:1053B0000143D5203052028158E4F5FF538EF74364
:1053C0008E077D04E4F5FF8DBCF5FF43B102E5B126
:1053D00030E2FBE4F5FFAFDFEFFEACDEECFBEBFF12
:1053E000ED25E024F9F582E4342BF583EEF0A3EF0C
:1053F000F0E4F5FFF5FF53B1FD0DEDB40CC6902BB5
:10540000FB123F08FF7809122325A3EEF0A3EFF06B
:10541000E4FDED25E02403F582E4342CF583E0C3BC
:1054200013FAA3E013FB9172F12A2BFFEE3AFE91DF
:1054300072EEF0A3EFF0ED240490120DF0EDC394A2
:10544000075015CFEDCF0DEF9173F113902C00E0C5
:105450009F902BFFE09E50BAE4F5FF758EC8F5FFD4
:1054600090120DE0F5BCE4F5FF75BB8075FF01F50A
:10547000D522ED25E02401F582E4342CF58322E0E9
:10548000F8A3E0F9A3E0FAA3E0FB22E4F5FF75C27C
:10549000E17F1EB1C930E707E4F5FF75C2A122E440
:1054A000F5FF75C28122CDEFCDCCEECC91E4AB946B
:1054B000EF4BF1D5CBEFCBFAE59130E71891E7A9A7
:1054C00094E9F582EF4582FFEBF11AC3EF9582E58F
:1054D000F0958340E3E59120E709CEECCECFEDCF08
:1054E000123F8A2275FF03AF93EF75F010A4FF22DD
:1054F000E4902F0BF0A304F0E4902F0EF0E5FA30C7
:10550000E1FB75FF01E5D530E7037F0022E4F5FFFD
:1055100075E50875FF0153D8EFE5D530E61A75FF3C
:1055200001902F0DE5DAF0E4F5DA75FF01E5D630EC
:10553000E3FB902F0E7401F075FF03759B0475FC5F
:105540004175FF03E59B30E7FBE4FB75FF038B959B
:10555000EB123EFBFF71600BEBB403EF75FF0375BD
:105560009580E4F5FF758EC8918B75FF0153D5FBCF
:10557000B1C2123F8675FF0143D504902F0EE07033
:1055800007B1C27FC8123F887B017A2F790CB1ED39
:10559000902F0CE0902F0B7006E04404FF8002E097
:1055A000FF902F0BEFF090120EE0B4010675FF0193
:1055B00043D81075FF01902F0DE0F5DA902F0BE026
:1055C000FF2275FF03E4F59122FE91A690120FE0F1
:1055D00022E5FA30E1FB75FC8075FF0153D5EFE45D
:1055E000F5FC75FC40B1C2E5FC20E6FB22C251751A
:1055F000FF03759B1F75FF0390120FE020E71BE56B
:105600009A540FC394024012E04480F0E4F5FF7511
:10561000C2A143FC0475FF03D251E5FC30E609E565
:105620009A540FC3940540CDE5FC30E611E41220F6
:105630002C75FC80F5FC75FC40E5FC20E6FB305148
:1056400002518322E4F5FF75933F75FF03759A407D
:105650001260D7E4F5FF759C93F5FF75A1A3F5FFE4
:10566000758531F5FF758628E5FA54304480F5FAE2
:1056700075FF0175E74A75FF0275DF4975FF014344
:10568000D30475FF0153D367E4F5FF53E6BF75FFFD
:105690000175D825F5FF75B503F5FF75B215F5FF52
:1056A00075BA02F5FF75AFB3F5FF75CD0AF5FF7555
:1056B000CB08F5FF75CA12F5FF75BF0EF5FF75CC67
:1056C00096F5FFF5BDF5FF75C281F5FF75AEE1F505
:1056D000FF75DA55F5FF75F580F5FF75E903F5FF00
:1056E00075E933F5FF75972A75FF01759B42759C27
:1056F000A4759D29759E48759F2475A11275A312E6
:10570000759AF820540CF5FF43968090120FE044F0
:1057100040F022E0FEA3E0FFC3222DF582EA3CF533
:105720008322F582E43EF583E022E0C313FEA3E08A
:105730001322902F17F1DDEBF0F1AEAC00AD01AE0E
:1057400002AF03C006C007902F17F12AFBAA06E498
:10575000F9F8D007D006D31222FE7E0050047F0154
:1057600080027F00C006C007F1AED0E02FFFD0E07E
:105770003E902F17F0A3EFF053ECFC902F17E0FCB6
:10578000A3E0FDEC540342EC75FF02EDF5AF75EDBF
:105790000275ED04A3E0600543EC08800353ECF7C9
:1057A000902F1AE0600443EC042253ECFB22902F6C
:1057B00017E0FEA3E0FBAA06E4F9F87F807E387DBF
:1057C00001FC02185E90120EE0D3940122333333B1
:1057D00054F8F5F42224FBFFE5F034FF22EEF0A3A9
:1057E000EFF0A3EDF0A3221261795006F1F450021C
:1057F0008001C322E5F754E024FF22AF36EFC360F7
:1058000001D322EFC3940E500590041CEFF022E563
:1058100039540FFF22E539C394F0501F5339F0116A
:105820003EFE740FC39F4005EE940E400543390DB4
:105830008003EF4239E539540FFF227F0022E5391A
:10584000C4540FFEEF9029E7932E22113EFFC3941C
:105850000E40027F0DEF9029C993FF22EF30E3073E
:1058600074332DF8E6FF22743D2DF8E6FD203D044B
:10587000EE30E00BE539C394F05020119E8018E51E
:105880003B6006FDE4F53B8012E539C394F0500B14
:10589000E539540FFF6004114BAD07AF05229004AA
:1058A0001CE0FDFFC3740E11C5EFC4F8540FC868A7
:1058B000FFEEC454F048FEE53954F0C3515C7F005C
:1058C0005002AF05229FFFE49400FE22902F0FEDBF
:1058D000F0901211E0F46005A3E0B4FF0C902F11DA
:1058E0007418F0A37413F08010901211E0902F112F
:1058F000F0901212E0902F12F0121F6D64016002FE
:105900004135902F0FE0FE64086004EEB404089067
:105910002F107428F08006902F10743AF0EF123E8A
:10592000FBFF1222F0E45136EF24D8FFEE343FFEA5
:10593000ED3493FDEC3416FC7B007A80790378001B
:1059400012185E51B0902F12E0FF902F11E0C3119A
:10595000C5E4FCFD1221C6ECC0E0EDC0E0EEC0E005
:10596000EFC0E0902F12E0FFE4FCFDFE5136D0E0E6
:10597000FBD0E0FAD0E0F9D0E0F8EB2FFBEA3EFAFA
:10598000E93DF9E83CF8902F10E0FFE4FCFDFE1241
:1059900021C6EF2454FFEE340B125132E47BA87A77
:1059A00016F9F812185ECBEFCB902F0FE014605D64
:1059B00014601B24FE600C24FC707AE4F5FF75CEA5
:1059C000318006E4F5FF75CE21F5FF8BCF22E4FA96
:1059D000E4F5FFEA2440F5CEE4F5FFEAFFC37407DF
:1059E00011C574F02FF58274183EF583E4513EC35F
:1059F0009DF5CFE4F5FFEA2448F5CEE4F5FFEA9003
:105A000018F0513E2DF5CF0AEAB408C422E4F5FFA0
:105A100075CE01F5FF8BCFF5FF75CE0EF5FFEB25AB
:105A2000E0F5CFE4F5FF75CE0FF5FFCFEBCFEB75CB
:105A3000F003A4F5CF227B64FAF9F80221C693257E
:105A4000E0FDE433FCEB75F010A4FFAEF012207221
:105A5000CDEFCDEBFFE4C313EF1322D39FEE6480B1
:105A6000F8748098224337015337DF900AC7E0FD6E
:105A7000115C900AC7E0FD51BD4004E4F5362243B5
:105A8000FA045337FB304C051247ED800A7F55511D
:105A9000997F555199D2EBD32275FF01E5D520E6C8
:105AA00002C322E5FA540360FA75FF018FC3D322C3
:105AB000C8ECC8C9EDC9CAEECACBEFCB22900ADC4C
:105AC000EDF0A3EFF07F01121E71900ADCE0FFA35E
:105AD000E0FBE4902DEAF07D0212458350ECD322E6
:105AE000900943E06402701F8F3DAF058F3EAF0306
:105AF0008F3F9004E0E0F533A3E0F534A3E0F53503
:105B0000AF3D121C23D322C322900AC21223DF719D
:105B100048E53D7145E92401F9E43AFAE53E1220F1
:105B20002C900AC27155E53F71457168E5337145A6
:105B30007160E53412202C900AC2714EF9E43AFAF1
:105B4000E53502202C12202C900AC20223D6122303
:105B5000D6E92405221223D6E92402F9E43AFA22EE
:105B6000E92404F9E43AFA22E92403F9E43AFA22AE
:105B7000E53954F0C4540F2FFFC3941040027F0F37
:105B8000EF9029D793FF227E10EE60091EEE902938
:105B9000D793B507F4EEC3940E40027E0DEE902924
:105BA000C993FF2271DFE5D120E0FBE4F5FF75D951
:105BB0000871D471CA5005E004FF80027F001247CB
:105BC000E8D2571244D0E4F53022C3EF9403EE64D8
:105BD0008094802290121AE02401FFE433FE22C256
:105BE000571244D0E4F5FFE5D154FE4402F5D1222A
:105BF000E53720E50771DFE5D120E0FBE4F5302251
:105C0000C2AFEF4237D2AF22EF24FE600C24FE6019
:105C10000580007F01227F02227F032275360175F5
:105C20003C0790042EEFF090041B7403F0C37479CA
:105C30009B90043EF0E4940090043DF02291455086
:105C400003122E9722C3900421E094FF900420E0D9
:105C500094FF2290043DE0A3E0FF22900AA71223C4
:105C6000DF900AAAEDF0E4A3F0ED54FE900AAAF04A
:105C7000602BE4FF122AF2BF0123900AA71223D659
:105C8000123DAF5018900AA891A8900AABE02402E8
:105C9000F0900AABE0FF900AAAE06F70DD7F01127E
:105CA0002AF2900AABE0FF22E475F0020220FD7DAB
:105CB00002915BEFC36001D322121F6DFB900ADEDD
:105CC000EFF0A3EBF0900ADEE0B14AE0FEB402038D
:105CD0007F0022EE701C900ADEE0FFB14A7401F0F2
:105CE00090042CE0FCA3E0FDEFB154ECF0A3EDF048
:105CF000802AED241BFFE433FEE4FCFD7B0CFAF963
:105D0000F812185EEF2405FF900ADEE0B154E0FCC3
:105D1000A3E0C39FEC940050037F0022902A37E059
:105D2000B4FF15900ADFE0540FFFBF0103E48004C5
:105D300090043CE0902A37F0902A37E060037F021D
:105D400022902A3774FFF07F01222486F582E43402
:105D500029F5832225E02431F582E4342AF58322D3
:105D6000900AC8EFF0ED24FE60191460262402703A
:105D70003BEB2402FFE43AFE7C007D501220607D64
:105D800060801EB1D0C333CE33CED8F9FF7C007D06
:105D900028800EB1D0C333CE33CED8F9FF7C007D3E
:105DA00064122072900AC9EEF0A3EFF0900AC8E0E6
:105DB000B1E1C083C082122381900ACAE02401FFAE
:105DC000900AC9E03400FEB1DBD082D08302238D7B
:105DD000EB2401FFE43AFEEF780322E4FCFD02210C
:105DE000AB25E025E02430F582E43404F58322EF8E
:105DF000B1E112236502234BE4900430D10D9004ED
:105E000034D10DFFFEFDFC90043802238DFFFEFD12
