:020000040000FA
:100000000202DF0218034100B8002202180B22226C
:0100100022CD
:07001300021813E4FFE1BC39
:07001B0002181B75C8012249
:030023000218239D
:03002B0002182B8D
:030033000218337D
:03003B0002183B6D
:030043000218435D
:03004B0002184B4D
:030053000218533D
:03005B0002185B2D
:030063000218631D
:03006B0002186B0D
:10007300021873BB010689828A83E0225002E722B9
:10008300BBFE02E32289828A83E49322BB010CE54F
:100093008229F582E5833AF583E0225006E9258239
:1000A300F8E622BBFE06E92582F8E222E58229F57D
:1000B30082E5833AF583E49322BB010689828A832E
:1000C300F0225002F722BBFE01F322F8BB010DE53B
:1000D3008229F582E5833AF583E8F0225006E92583
:1000E30082C8F622BBFE05E92582C8F222C5F0F8D4
:1000F300A3E028F0C5F0F8E582158270021583E0CD
:1001030038F022A3F8E0C5F025F0F0E582158270FF
:10011300021583E0C838F0E822EF2BFFEE3AFEED3C
:1001230039FDEC38FC2275F008758200EF2FFFEEE5
:1001330033FECD33CDCC33CCC58233C5829BED9A10
:10014300EC99E58298400CF582EE9BFEED9AFDEC6E
:1001530099FC0FD5F0D6E4CEFBE4CDFAE4CCF9A8B4
:100163008222B800C1B90059BA002DEC8BF084CFBC
:10017300CECDFCE5F0CBF97818EF2FFFEE33FEED93
:1001830033FDEC33FCEB33FB10D703994004EB99BD
:10019300FB0FD8E5E4F9FA227818EF2FFFEE33FED0
:1001A300ED33FDEC33FCC933C910D7059BE99A4005
:1001B30007EC9BFCE99AF90FD8E0E4C9FAE4CCFB1D
:1001C3002275F010EF2FFFEE33FEED33FDCC33CC71
:1001D300C833C810D7079BEC9AE899400AED9BFDFA
:1001E300EC9AFCE899F80FD5F0DAE4CDFBE4CCFA0D
:1001F300E4C8F922EF5BFFEE5AFEED59FDEC58FC23
:1002030022EB9FF5F0EA9E42F0E99D42F0E89C451F
:10021300F022E8600FECC313FCED13FDEE13FEEFC9
:1002230013FFD8F122E8600FEFC333FFEE33FEED87
:1002330033FDEC33FCD8F122E0FCA3E0FDA3E0FEA8
:10024300A3E0FF22E0F8A3E0F9A3E0FAA3E0FB2296
:10025300ECF0A3EDF0A3EEF0A3EFF022A8828583E8
:10026300F0D083D082120276120276120276120244
:1002730076E473E493A3C583C5F0C583C8C582C878
:10028300F0A3C583C5F0C583C8C582C822E0FBA31C
:10029300E0FAA3E0F922F8E0FBA3A3E0F925F0F0EC
:1002A300E582158270021583E0FA38F022EBF0A3A1
:1002B300EAF0A3E9F022D083D082F8E493701274B9
:1002C3000193700DA3A393F8740193F5828883E4DB
:1002D300737402936860EFA3A3A380DF75812F0279
:1002E300094A9000E551B0AE071FEE60129000E896
:1002F30071031176FE9000E57103EE11BC80E822D4
:10030300E475F0018090900A12EEF0A3EFF09000F4
:100313004FE064016002619CC3900A12E0940850AC
:100323000BE4FF9153900A12918780ECE4F50DFBE7
:1003330071C5AF0C12103DE50DC39408504771C34E
:10034300E50D7F0071BDEF29F9EA3EFA9000E8510F
:10035300B07B017A0979007FFF51E5E50DFEE424C6
:10036300FFFFE43E71BD8F828E83118F9009FFF0F2
:100373007B017A0979009000FBE50DF0AD0C1210BA
:1003830063050D80B2900050513BE42FFFEE34081B
:10039300120D139000500214BC900054E0FEA3E031
:1003A300FF71BE900A12E0FDA3E09000D1CD1208C8
:1003B300D4900054EEF0A3EFF022FE902001419080
:1003C3007B007A00791012103675FF031176F5D38E
:1003D30075FF0390000171F190000271F190000329
:1003E30071F175D40175FF03E5D55402FF22118F16
:1003F300F5D375FF03229000F1E0FEA3E0FF9130F7
:1004030091539000F3513BEF2401120D109000F330
:100413005153900A18914D900A18E07002A3E070AE
:100423000BFF7E087109120F4212142822B108CD66
:1004330024FFCD34FFFCC3ED9FFFEC9E541FFE74DD
:10044300082F121416FF229000DF74FFF5F001F05D
:10045300B108541FFC74082DF58274203CF583EF1A
:10046300F0902006E0B42019A3E0B4001490200516
:10047300E02401FF902004E03400541FF0A3EFF0C8
:1004830022902006E475F00101F09000BA515390D8
:1004930000BE51B0110AF11EEF6004110F80F71274
:1004A3000F0560099000BA513B7810D1249000BA2F
:1004B300D1209000BA513BE480219000C11208C7BB
:1004C30045F0601B9000BE5190E94A600C1176FF25
:1004D300D1279000BF918780E1E4FFD12780DBF132
:1004E300B79000AF7401F0229000E3E0FF81039026
:0704F3000A1BE014F0E022F7
:10050800902006E0FCA3E0FD902005E02DFD902062
:1005180004E03C22D1C8EF541FFF12148DA37401CC
:10052800F0120F4C9000DCE0FCA3E0FDAE0478056F
:10053800CEC313CE13D8F9FF9000DFEEF0A3EFF08F
:10054800ED541FA3F0A3E4F09000F1F0A3F0C390E2
:1005580000DDE094209000DCE09400407D914A901A
:1005680000E1E0FEA3E0FF9000F1EE8FF011F090C3
:1005780000DFE07004A3E06406700AD1C89000DFD1
:10058800E48FF011F0D1C89000F1E48FF011F0126F
:100598000FFCEF600512148A8005E49000DEF090ED
:1005A80000F1121371701D91309000E3EFF0910388
:1005B80091EB91EB9000DFE07002A3E0604891EBD3
:1005C800914A80F071F971F971F99000DFE07002D9
:1005D800A3E0603271F9914A80F09000DC91878045
:1005E8000A9000DCE07002A3E0600BD1C891039090
:1005F80000DC914D80EB120FFCEF600512148A802D
:1006080005E49000DEF09000DEE06002A12C1214F8
:10061800AB71099000F3413B513B78085115E4E573
:10062800C820E2FB8FEB227F01F1BC900A1C740109
:10063800F0900A1CE06032120FF4D1BC900A1CEF53
:10064800F0120849D1AB9000ACEFF0120849900ABB
:100658001CE054011213BB60D8A3E0F460D3EF3060
:10066800E7CFE4900A1CF080C8F1E87F9FD127D13A
:10067800BC9000ADD1BA9000B2D1BA9000B3F1B538
:100688009000ABE0F4601BA3E0F460169000B2E0C9
:10069800FD541F240FA3F0EDC413540744809000A9
:1006A800B2F022F1E87FD7D1277FFFD127D1C090C0
:1006B80000ABEFF07FFFD127E5C820E2FBAFEB22CC
:1006C800900081E0B4082CA3E0B40027120F2E7B21
:1006D800017A0179009000CA120F45F161120F2EBC
:1006E800E42FFFEE3408120D13120F28E490008156
:0806F800F0A3F0900083120F43
:10070000DB9000835153900081E475F0013106FEC7
:10071000740025F0F58274013EF583E0FF227F012D
:10072000F1BC300216120FF4D1BC900A1DEFF0128A
:100730000849900A1DE020E002C202300219D1AB44
:100740009000ACEF1213BB600BA3E0F46006EF3037
:10075000E702C202120849E4FFF1BCA202E433FF3F
:10076000229000C351539000C751B0110AF11EEFFF
:100770006004110F80F7F1E47F03120F1E600990EF
:1007800000C3513B7810D1249000C3D1209000C306
:10079000120F349000CA1208C745F06011D1BC9006
:1007A00000C75190EF11BC9000C8918780E51208F6
:1007B00049E4FF8007EFF0120849E4FFEFB40104B9
:1007C00043FE202253FEDF229000ABE020E014F134
:1007D000E47F3DD1277F2AD1277F80D1277FA6D1F3
:1007E00027F1B7227F01F1BC9000B0E051B9080AAF
:1007F00004081214081715081C17082C3008313487
:10080000083636083B3700000824531AEF851A8053
:10081000802F531BEF8008531BDF8003531B7F8502
:100820001B90801D531CDF851CA08015531DFE806E
:100830000D531DEF8008531DBF8003531D7F851D81
:10084000B07F0CDFFE2212062712149FEF70FA9081
:1008500000B2E0F4600B900A1B7406F01204F27010
:10086000FB9000B0E01202B9088404088C140891CF
:100870001508961708A63008AB3408B03608B53707
:100880000000089E431A10851A80802F431B108099
:1008900008431B208003431B80851B90801D431C45
:1008A00020851CA08015431D01800D431D1080086C
:1008B000431D408003431D80851DB0900A1B740CAE
:1008C000F01204F270FB2274FFF5F0020106E0FD65
:1008D0009000D1E4F0A3EDF09000CCEEF0A3EFF0A7
:1008E000A31202B09000D111C745F060549000CE21
:1008F0001202901200769000D3F09000CF1204877D
:100900007D80ED60DF3141EE7C0030E7027C0190BC
:1009100000D3E05D7B0060027B01EB6CFCEF25E027
:10092000FFEE339000CCF0A3EFF0AF04EF600C903B
:1009300000CCE06410F0A3E06421F0EDC313FD806F
:10094000C19000CCE0FEA3E0FF2275FF03759E027C
:100950009017FAE493900A0FF075FF02E5E654034E
:100960006002618B7510DE7511AD7512BE7513EFE7
:10097000C2AF75FF0275E404F5E4751AFF751BFF3D
:10098000751CFF751DFF7516FF7517FF7518FF7530
:1009900019FF75FF0253E6BFD11A1210DAB11BEF2F
:1009A00064016002618290180893FE740193FF90C5
:1009B000007FEEF0A3EFF0F5828E83E493FE7401E6
:1009C00093FFC3EE9480500280047E807F008E14DB
:1009D0008F15B1F7FFF5828E83740293F51E7403B1
:1009E00093F51F740493F508740593F50974069341
:1009F000F50A740793F50BC201EF4E700241E4EF64
:100A0000F4FFEEF44F700241E4E514451EFEE515D7
:100A1000451FFFE5084EFEE5094FFFE50A4EFEE5DE
:100A20000B4F4E700241E4E51FF4FFE51EF4FEE5B6
:100A300015F4FDE514F44EFEED4FFFE509F4FDE578
:100A400008F44EFEEF4DFFE50BF4FDE50AF44EFE13
:100A5000EF4D4E700241E47F03718EE50B24FFFFE2
:100A6000E50A71BC640370227F02718EE50924FFE0
:100A7000FFE50871BCB402127F01718EE51F24FFEF
:100A8000FFE51E71BCB40102D2012001577F017144
:100A90008E71B59000D1E51EF0E51FF13B71A07F8E
:100AA0000271AB9000D1E508F0E509719E7F0371FA
:100AB000AB9000D1E50AF0E50B719E7F01718E903D
:100AC0000A10E0FEA3E0FF7BFF7A187900E4251509
:100AD0009000D2F0E51434E89000D1719F4EC370BD
:100AE00001D39201300109F1ACEF6401600261822F
:100AF000D20091FB7B017A007964B1D8741BF012AB
:100B00000761900064E0B4800B9153EF70061214FB
:100B100046EF6002C20030006530011AB1F7F5827D
:100B20008E83740C93FE740D93FF90007DE06E70C5
:100B300003A3E06F604890005012025F00001800AD
:100B400091FBF128F12EEF2401B110B1D27404F021
:100B5000120761900087B10A9000871214BC9000C0
:100B600081F14590004F04F012051C7440D3950CA0
:100B7000400C1203C3AF0C12103D050C80EDE4FFD6
:100B8000F186E4F510F511F512F513021800AEFF29
:100B9000EE54CFFEEFC454F024804EF5FF22A3F0B4
:100BA00011D8900A10EEF0A3EFF022718E900A1087
:100BB000E0FEA3E0FF7BFF7A80790022347F8F8202
:100BC000F583E49322900000EEF0A3EFF0A312026D
:100BD0003B900008120253900006E0FFA3E0900053
:100BE0000CCF806090000C121371605EC3EF9440D4
:100BF000EE94004006A37440F0800590000EEFF0E4
:100C0000B1FFE0FFB1D8EFF090000812023B1207ED
:100C10006190000EE0FFC390000DE09FF090000C8B
:100C2000E09400F090000812024790000EE4FCFDF2
:100C3000FE12011C900008120253914AB1FF11CE1E
:100C4000900000EEF0A3EFF0809A900000E0FEA389
:100C5000E0FF2291FBB101900006E4F07405F13B46
:100C600091F0C006C00791FBEF2407B110B10190CD
:100C70000006E4F0A37414F0D007D00691F0C0068B
:100C8000C007B107B101D10940067EFF7FFF800692
:100C900090006512023B900006EEF0A3EFF0D00743
:100CA000D00691F0D109402F91FBEF241AFFE43ECA
:100CB000FEED3401FDE43CFCB10190006512023B05
:100CC000EF2401FFE43E900006F0A3EFF0900A1637
:100CD000E0FEA3E0FF91F0900069E0FEA3E0FF904A
:100CE0000A16E06E7003A3E06F7F0060027FFF22B0
:100CF00071C5900A16EEF0A3EFF0229000A6020252
:100D00003B9000020202539000A612023BEF241B0C
:100D1000FFE43EFEE43DFDE43CFC22E49000AAF04A
:100D20007B017A007995121378900097E0FF741197
:100D3000D39F5077E4FFFEFDFC7B017A0079FE90A3
:100D400000CAF0A37402F01207619000FEE0FEA357
:100D5000E0FFE4FCFDB1CC91FBEF2402B110B1CC7B
:100D60009000B5E024FFFF9000B4E034FFFEE4FC07
:100D7000FD9000A61202471201F79000FCEEF0A3CE
:100D8000EFF09000A61202479000FCE0FEA3E0FF07
:100D9000C39000B5E09FFF9000B4E09EFEE4FCFD30
:100DA00012011CB1CC9000AA7401F09000AAE0FBE3
:100DB0006017E4FFFE7D02FC900097E024EFF9F855
:100DC00012022890008F120253AF03229000A60255
:100DD00002537B017A0079839000CAE4F0A3229148
:100DE000FBEF2401B110B1D27404F0120761B10716
:100DF000F128900081E14590007FE0FEA3E0227B96
:100E0000017A00790F90000E22E47FFF7EFFFDFC47
:100E1000900065120247D3020204E4900A1EF0908B
:100E20000A1EE0FFD3946F501EEF2410FFF198903C
:100E30000A1EE0FEE42EF582E4344FF583EFF090D5
:100E40000A1EE004F080D87B017A4F79009000D12F
:100E5000E4F0A37470F07F0F7E1D11D8EF4E7F0079
:100E600070027F01901218EFF024FF22900A09EB24
:100E7000F0900A05120253900A0512023BD1C3906A
:100E80000A09E06F603B12000A12071EEF600512AC
:100E9000000F80F5F105600B900A0512023B7810F7
:100EA000120624900A05120620900A05F134900AD1
:100EB00009E0FF1206271207B79000AF7401F0D3C4
:100EC00022C322900A0012025312000A12071EEFD8
:100ED000600512000F80F51207E47F03F11E600B1E
:100EE000900A0012023B7810120624900A001206A3
:100EF00020900A00F1341206BC900A041207B59043
:100F00000A04E0FF227F011207BCD2021207E87F29
:100F10000612062711491207E89000AEE0FF1206FC
:100F2000279000B1E06402229000870202539000F3
:100F30008702023B12023BE4020627A3F07F0F7EEA
:100F40001D22900A187408F0A3E4F022F1429000E8
:100F5000F312025F00000000E4902004F0A3F0A36D
:100F6000F0A3F07B017A2079089020011202B0E40E
:100F7000902000F0227F0F7E1D11D09000D8120229
:100F8000909000DB01CEAB07E4FF9000AAE0600781
:100F9000F1D8D16CE433FF2275FF03E4F59712100A
:100FA00021E59720E1FB75FF03AF9922E4900A1A2F
:100FB000F09000AAE0601B90008F12023BE4FBFA65
:100FC0007902F8D31202045009F1D8D1C3900A1A59
:100FD000EFF0900A1AE0FF229000A612023BEF24E5
:100FE000FFFFEE34FFFEED34FFFDEC34FFFC22E4A6
:100FF000FCFDC1C31207E87F05020627E4FFFEFDE2
:10100000FC900083120E137F0040027F012275FFC7
:10101000037597011121E59720E1FB75FF03AF9957
:101020002275FF038F9875FF0322113675FF03E5C4
:10103000D5F45402FF2275FF0375D4022275FF0315
:10104000EF543F4480F5D1E5D520E20AE5D520E014
:1010500005E5D530E1F1E5D55403FF75FF0375D5FE
:101060000580D375FF03ACD5EC20E13C75FF03EDA3
:10107000543FF5D175FF03E9F5D375FF03EA540F2B
:10108000FF9000FBE0C4547044804FF5D2E5D520BA
:10109000E205E5D530E0F6E5D55401FC75FF0343E4
:1010A000D40275FF0375D505AF042212000A12079A
:1010B0001EEF600512000F80F57F011207BCD202FF
:1010C0001207E87F061208461207E87F011206277A
:1010D0007F03120846E4FF0207BC7B017A0079B067
:1010E0007F0351E47A0079B97F0851E47A0079B638
:1010F0007D027F0951847B017A0079B47D027F0BE8
:1011000051849000B471716006BEFF16BFFF135189
:10111000F35002800451FC80099000B4E4F0A37401
:1011200040F051F3500280089000B17403F0800643
:101130009000B17402F09000B0E01202B9115904AD
:10114000116414116C15117417118A301192341135
:101150009A3611A2370000117F75FF015316EF85F3
:1011600016FD804775FF015317EF800E75FF015381
:1011700017DF800675FF0153177F8517C9802C750F
:10118000FF015318DF8518CA802175FF015319FE2E
:10119000801675FF015319EF800E75FF015319BFBB
:1011A000800675FF0153197F8519CB1208497F11FD
:1011B00051DEE4FF710612062F9000AE7402F0902B
:1011C00000B2E0247F600904701651EB740A8007B6
:1011D0001207C851EB7458F09000B17403F051FC41
:1011E0009000B3E0F4600241829000B6E0FEA3E01C
:1011F000FF64104E70069000B3740EF0EF64204E42
:1012000070069000B3740FF0EF64404E70069000CB
:10121000B37410F0EF64804E70069000B37411F058
:10122000E4B5070AEEB401069000B37412F0E4B519
:10123000070AEEB402069000B37413F0E4B5070A8F
:10124000EEB404069000B37414F0E4B5070AEEB4EB
:1012500008069000B37415F0E4B5070AEEB4100662
:101260009000B37416F0E4B5070AEEB420069000BF
:10127000B37417F0E4B5070AEEB440069000B374F7
:1012800018F001AB900A0AEFF0A3EDF0A31202B040
:10129000900A0BE06047901218E06013900A0AE091
:1012A0002410FF120F98900A0C120290EF801790F2
:1012B0000A0AE06401900A0C7007120290748080A0
:1012C0000512029074FF1200BC900A0D1204879060
:1012D0000A0BE014F0900A0AE004F080B322EF4415
:1012E00020F5FE227D0151847B01227F1051DE908A
:1012F00000AE229000B9E024FE24FD229000B474D8
:1013000001F0A3E4F022900A14EFF0E4A3F09000BF
:10131000B9E0FFB40209740F716974B9F0800CEF81
:1013200064047044743D71697479F01207E4900AA2
:1013300014E060079000B8E0FF80027FAB12062740
:10134000120849900A14E09000B8F07016900A153F
:10135000E0D39400400D7FFF120627900A15E01499
:10136000F080EAE4FF1207BC22900A15F09000B862
:1013700022E0FEA3E0FF4E229000ADE01200BC9000
:1013800000B2E09000011200CE9000B3E0900002A5
:101390000200CEAB05E4FCFD020E6C9000ED1202E3
:1013A000B0E4FCFDC0079000ED1202909000F0E068
:1013B000FF120DD8EFF0D007020761F09000ABE00C
:1013C000FFF42212000A12071EEF600512000F80C0
:1013D000F5229000AFE0FF22E49000AFF0229012DF
:1013E00018E024FF22901218E060057F10020F9889
:1013F0007FFF22902004E0FEA3E0FF24089116FD69
:10140000EF2401FFE43E541F902004F0A3EFF0A36B
:1014100012044DAF0522F58274203EF583E0229040
:101420002006E0FEA3E0FF22902000E0045403F039
:101430007F0033333354F8FEEF2408F974203EFA6A
:101440007B01A30202B0900054741DF0A3740FF04E
:10145000120DDFE490004FF012051C90006BE0FECF
:10146000A3E0FF900054E06E7003A3E06F7F006084
:10147000027FFF22EFB40109D2AD75FF0143AE40F8
:1014800022C2AD75FF0153AEBF221206C89000DC28
:10149000E4F0A3EFF022E5C85402FF75C80222E58C
:1014A000C85404FF22E5C85401FF22900A18E0FE48
:1014B000A3E0FFC3E49FFF74089EFE22120253E4E0
:1014C000FB7A08F9F890005012023B1201658F0C6C
:0114D00022F9
:1017FA00060AFFFCFFFF02184E0271E819C17FB802
:10180A00822D1C16131110100102720C5A2D5761E9
:10181A00766520362E313000FF026C8064216467C1
:10182A00FF024990EF90183793901900730A2036F7
:10183A004CE573FF22EFF5732255C4401954441B3B
:10184A00D8025A8F75819F75FF03759E021219205F
:10185A0002334F022FCE902A16E47E019360F4A33E
:10186A00FF543F30E509541FFEE493A360010ECFF5
:10187A0054E0B4E00EEFFAEEF9A3A3A3A3DAFDD97C
:10188A00FB80D654C025E0604B5026E493A3F8545D
:10189A0007240CC8C333C4540F4420C8834004F43B
:1018AA0056800146F6DFE480B001020408102040A9
:1018BA0080E493A3FAE493A3F8E493A3C8C582C887
:1018CA00CAC583CAF0A3C8C582C8CAC583CADFE924
:1018DA00DEE78085E493A3F8E493A34003F680014E
:1018EA00F208DFF40218631958195D197B19801977
:1018FA00851A521A57FFC0737419C0E0C082C08398
:10190A0075730AE5FF54CF4490F5FF22C07374192A
:10191A00C0E0C082C083757320E5FF54CF4490F5C0
:10192A00FF22C0737419C0E0C082C083757336E5A4
:10193A00FF54CF44A0F5FF22C0737419C0E0C082DF
:10194A00C08375734CE5FF54CF44B0F5FF229081F4
:10195A00AA21169081BE211690B011211690C7F5C2
:10196A00211690C82F211690C3752116908405213F
:10197A001690E7FA211690E812211690865B211636
:10198A0090E89F2116908A9B211690EC442116908C
:10199A00F01F2116909A8A211690F150211690F183
:1019AA006C211690F172211690F1A5211690837E72
:1019BA00211690F1BF211690F1F5211690F34521D9
:1019CA001690F383211690B652211690DA08211642
:1019DA0090D2DD211690D2B7211690F410211690DC
:1019EA00F449211690F51A211690F485211690F5DE
:1019FA0040211690C500211690C5B5211690DADA55
:101A0A00211690DA4F211690D5E7211690F57D21FF
:101A1A001690DB22211690B423211690D18F21161D
:101A2A0090D2F2211690F747211690F77E21169050
:101A3A00F7C3211690F7F7211690F844211690F96A
:101A4A0067211690F88B211690F98E2116908C76C4
:101A5A00211690F9B121169081F3211690F9C92126
:101A6A001690F9F4211690FA1E211690D58A21169D
:101A7A0090D57D211690FA29211690D74F211690DC
:101A8A00FA53211690D356211690D54A211690D38F
:101A9A0049211690D58D211690FA65211690DD4FB1
:101AAA00211690D5A0211690FA87211690FAE721DF
:101ABA001690F611211690F53F211690FA2F21164D
:101ACA0090ECBA211690D78E211690FB0021169021
:101ADA00D77D211690D84A211690ED2B211690CE4B
:101AEA00B2211690C936211690CCBA211690EE640E
:101AFA00211690EEB7211690EDAF211690D68921C6
:101B0A001690ECCB211690D6D5211690FB292116DA
:101B1A0090CF37211690E8E8211690FB882116907D
:101B2A00DC72211690DD29211690DB73211690C4F0
:101B3A0056211690E446211690E1BF211690FC2802
:101B4A00211690FD10211690DE88211690DF1721AC
:101B5A001690DEBA211690FC93211690FDD121161B
:101B6A0090EBA9211690809721169080FB21169060
:101B7A008000211690815F211690C1C32142908274
:101B8A006E214290C4282142908A76214290C42B29
:101B9A00214290B87D2142908A6F214290B8372124
:101BAA004290B8E3214290812421429080E8214268
:101BBA0090BA57214290C915214290C942214290B8
:101BCA00CBAC214290B97F2142908A9F214290CD8D
:101BDA00BB214290A7E4214290D1B721429083B61B
:101BEA00214290D71D214290D7A2214290825121B1
:061BFA004290D7D6214203
:101C000090D81C214290D894214290D8C121429072
:101C1000CFE4214290CF8F214290D8EA214290B95F
:101C2000062142908B77214290D96A214290D9B106
:101C3000214290B880214290DAAC214290DB0A2107
:101C40004290B8D621429081B521429081AA21428A
:101C500090DB11214290DBC4214290DC2B21429089
:101C60009FED214290C0EE214290D01C214290DE97
:101C700036214290DE3B214290DE5D214290DE869D
:101C8000214290DEAC214290D4A221429083442193
:101C90004290DFA5214290D0AB21429087BC2142E7
:101CA00090B851214290BFD6214290DC3121429020
:101CB000DCD9214290DB22214290E16A214290DD71
:101CC000A2214290E208214290E1E7214290ADBB7F
:101CD000214290E090214290ADBD214290C6E82182
:101CE0004290903C2142908E202142908C7A214259
:101CF00090C0A32142908BBD214290D4F621429006
:101D0000D4FE214290E278214290D0272142909047
:101D1000A2214290E2A4214290E2C0214290D01739
:101D20002142908BB7214290D151214290D09421F1
:101D30004290D01A214290D145214290C0E82142E0
:101D400090D021214290B2DE214290B74A214290A8
:101D5000B0EE214290B10E214290E36D214290CA33
:101D600015214290E420214290E46C214290BA3A3D
:101D70002142908155214290BA7E214290E9DF2193
:101D80004290D467214290D158214290EB82214267
:101D9000908B78214290EBCD214290D9EC2142905A
:101DA00096FC214290EBDE2142909D382142909E8C
:101DB000F4214290CB89214290EBF8214290BABDA8
:101DC000214290EC34214290AFD9214290AF58216A
:101DD0004290AC1A214290AF52214290B842214227
:101DE00090B2C9214290B062214290AD74214290DC
:101DF000B073214290ADD02142909C19212C909C2F
:101E00001A212C909EF1212C90A27A212C90A27B59
:101E1000212C908000212C90A281212C90A7FD21C3
:101E20002C90A80C212C90A899212C90A9E7212C6A
:101E300090A39D212C90B81D212C9098A6212C9028
:101E400098A9212C90BBD2212C908485212C90BC68
:101E50001D212C90BD82212C90BDF9212C90BB3BE3
:101E6000212C90B905212C90C9DC212C90CACF21BE
:101E70002C90A2CC212C90CF96212C90D090212C6C
:101E800090D0FF212C908CD3212C90D1ED212C903F
:101E9000C707212C90C75A212C90D52B212C90D5E7
:101EA0003F212C90AB7A212C90AB7E212C90D65FD9
:101EB000212C90D683212C90D6CC212C90ABBF2105
:101EC0002C90D877212C90D895212C90803B212CD8
:101ED00090909D212C908CF5212C90B133212C00D9
:101EE000E709F608DFFA8046E709F208DFFA803EE4
:101EF00088828C83E709F0A3DFFA8032E309F608D1
:101F0000DFFA8078E309F208DFFA807088828C8338
:101F1000E309F0A3DFFA806489828A83E0A3F608EC
:101F2000DFFA805889828A83E0A3F208DFFA804CC6
:101F300080D280FA80C680D4806980F2803380109D
:101F400080A680EA809A80A880DA80E280CA803306
:101F500089828A83ECFAE493A3C8C582C8CCC5837E
:101F6000CCF0A3C8C582C8CCC583CCDFE9DEE7804E
:101F70000D89828A83E493A3F608DFF9ECFAA9F0CD
:101F8000EDFB2289828A83ECFAE0A3C8C582C8CC23
:101F9000C583CCF0A3C8C582C8CCC583CCDFEADE3C
:101FA000E880DB89828A83E493A3F208DFF980CC9E
:101FB00088F0EF60010E4E60C388F0ED2402B40497
:101FC0000050B9F582EB2402B4040050AF2323453E
:101FD0008223901F3073BB010689828A83E02250DE
:101FE00002E722BBFE02E32289828A83E49322BBBA
:101FF000010B89828A83F8E0C828F0E82250032781
:10200000C722BBFE07F8E3C828F3E8228A83898247
:10201000E49322BB010CE58229F582E5833AF5833E
:10202000E0225006E92582F8E622BBFE06E9258279
:10203000F8E222E58229F582E5833AF583E49322EA
:10204000BB010989828A83F8E028F022500327F730
:1020500022BBFE05F8E328F3228A838982F8E49301
:102060002822BB010FF8E58229F582E5833AF58342
:10207000E028F0225009C58229F8E58226F622BB25
:10208000FE09C58229F8E22582F222F8EA2583F5C5
:1020900083E9932822BB010689828A83F0225002B9
:1020A000F722BBFE01F322F8BB010DE58229F58280
:1020B000E5833AF583E8F0225006E92582C8F62246
:1020C000BBFE05E92582C8F222EF8DF0A4A8F0CF6F
:1020D0008CF0A428CE8DF0A42EFE22BC000BBE00F6
:1020E00029EF8DF084FFADF022E4CCF875F008EF15
:1020F0002FFFEE33FEEC33FCEE9DEC984005FCEE3A
:102100009DFE0FD5F0E9E4CEFD22EDF8F5F0EE846A
:1021100020D21CFEADF075F008EF2FFFED33FD402F
:1021200007985006D5F0F222C398FD0FD5F0EA22A9
:10213000C2D5EC30E709B2D5E4C39DFDE49CFCEECA
:1021400030E715B2D5E4C39FFFE49EFE1220DBC347
:10215000E49DFDE49CFC80031220DB30D507C3E442
:102160009FFFE49EFE22C5F0F8A3E028F0C5F0F83A
:10217000E582158270021583E038F022A3F8E0C5ED
:10218000F025F0F0E582158270021583E0C838F082
:10219000E822BB010A89828A83E0F5F0A3E022509D
:1021A0000687F009E71922BBFE07E3F5F009E319FA
:1021B0002289828A83E493F5F074019322BB011093
:1021C000E58229F582E5833AF583E0F5F0A3E02284
:1021D0005009E92582F886F008E622BBFE0AE925C7
:1021E00082F8E2F5F008E222E5832AF583E993F527
:1021F000F0A3E99322BB010DC58229C582C5833AAC
:10220000C5830221665011C58229F808E5F026F63B
:1022100018F5F0E58236F622BBFE11C58229F808D2
:10222000E225F0F5F0F218E23582F222F8E5822993
:10223000F582E5832AF58374019325F0F5F0E493A4
:102240003822BB010A89828A83F0E5F0A3F022508C
:1022500006F709A7F01922BBFE06F3E5F009F3190A
:1022600022F8BB0111E58229F582E5833AF583E87E
:10227000F0E5F0A3F0225009E92582C8F608A6F09F
:1022800022BBFE09E92582C8F2E5F008F222EF2B15
:10229000FFEE3AFEED39FDEC38FC22C3EF9BFFEE7A
:1022A0009AFEED99FDEC98FC22E88FF0A4CC8BF01F
:1022B000A42CFCE98EF0A42CFC8AF0EDA42CFCEA02
:1022C0008EF0A4CDA8F08BF0A42DCC3825F0FDE93C
:1022D0008FF0A42CCD35F0FCEB8EF0A4FEA9F0EB32
:1022E0008FF0A4CFC5F02ECD39FEE43CFCEAA42D3E
:1022F000CE35F0FDE43CFC2275F008758200EF2F2E
:10230000FFEE33FECD33CDCC33CCC58233C5829BBB
:10231000ED9AEC99E58298400CF582EE9BFEED9AE1
:10232000FDEC99FC0FD5F0D6E4CEFBE4CDFAE4CC7D
:10233000F9A88222B800C1B90059BA002DEC8BF07F
:1023400084CFCECDFCE5F0CBF97818EF2FFFEE333C
:10235000FEED33FDEC33FCEB33FB10D70399400467
:10236000EB99FB0FD8E5E4F9FA227818EF2FFFEE8E
:1023700033FEED33FDEC33FCC933C910D7059BE9BF
:102380009A4007EC9BFCE99AF90FD8E0E4C9FAE41B
:10239000CCFB2275F010EF2FFFEE33FEED33FDCCBA
:1023A00033CCC833C810D7079BEC9AE899400AEDA4
:1023B0009BFDEC9AFCE899F80FD5F0DAE4CDFBE44C
:1023C000CCFAE4C8F922EF5BFFEE5AFEED59FDECC2
:1023D00058FC22C3E49FFFE49EFEE49DFDE49CFCC8
:1023E00022EB9FF5F0EA9E42F0E99D42F0EC64801A
:1023F000C864809845F022EB9FF5F0EA9E42F0E930
:102400009D42F0E89C45F022E8600FECC313FCED20
:1024100013FDEE13FEEF13FFD8F122E8600FEFC3B8
:1024200033FFEE33FEED33FDEC33FCD8F122BB017C
:102430000789828A830224BC5005E9F8022966BB19
:10244000FE05E9F802297289828A830224C8BB0149
:102450000DE58229F582E5833AF5830224BC500715
:10246000E92582F8022966BBFE07E92582F80229E0
:1024700072E58229F582E5833AF5830224C8BB011F
:102480000789828A830225145005E9F80229A8BB2E
:10249000FE05E9F80229B422BB010DE58229F58287
:1024A000E5833AF5830225145007E92582F80229CD
:1024B000A8BBFE07E92582F80229B422E0FCA3E0CC
:1024C000FDA3E0FEA3E0FF22E493FC740193FD74FE
:1024D0000293FE740393FF22E0F8A3E0F9A3E0FA6D
:1024E000A3E0FB22BB010DE58229F582E5833AF5E5
:1024F000830224D85007E92582F802297EBBFE0713
:10250000E92582F802298BE58229F582E5833AF5EF
:1025100083022998ECF0A3EDF0A3EEF0A3EFF022F4
:10252000A8828583F0D083D08212253712253712F6
:102530002537122537E473E493A3C583C5F0C5831B
:10254000C8C582C8F0A3C583C5F0C583C8C582C805
:1025500022BB010789828A830225205005E9F802FF
:1025600029C0BBFE05E9F80229D922BB010DE5828D
:1025700029F582E5833AF5830225205007E9258273
:10258000F80229C0BBFE07E92582F80229D922F505
:10259000F0C582A4C582C5F0C583A42583F5832236
:1025A000A42582F582E5F03583F58322E0FBA3E0E4
:1025B000FAA3E0F922F8E0FBA3A3E0F925F0F0E5A7
:1025C00082158270021583E0FA38F022EBF0A3EA5C
:1025D000F0A3E9F022E493FB740193FA740293F9F7
:1025E00022BB010789828A830225AC5005E9F802E3
:1025F00029F2BBFE05E9F8022A0489828A830225B2
:10260000D5BB011A89828A83D0F0D0E0F8D0E0F9F6
:10261000D0E0FAD0E0FBE8C0E0C0F00225CC5016D4
:10262000E9F8D083D082D0E0F9D0E0FAD0E0FBC066
:1026300082C0830229FBBBFE16E9F8D083D082D08A
:10264000E0F9D0E0FAD0E0FBC082C083022A0D227C
:10265000BB010DE58229F582E5833AF5830225ACBD
:102660005007E92582F80229F2BBFE07E92582F826
:10267000022A04E58229F582E5833AF5830225D50D
:10268000BB0120E58229F582E5833AF583D0F0D0BD
:10269000E0F8D0E0F9D0E0FAD0E0FBE8C0E0C0F02C
:1026A0000225CC5018E92582F8D083D082D0E0F9F9
:1026B000D0E0FAD0E0FBC082C0830229FBBBFE1849
:1026C000E92582F8D083D082D0E0F9D0E0FAD0E0DA
:1026D000FBC082C083022A0D22D083D082F8E4930B
:1026E0007012740193700DA3A393F8740193F58293
:1026F0008883E4737402936860EFA3A3A380DFD0A0
:1027000083D082E4937012740193700DA3A393F8A5
:10271000740193F5828883E4737402936C7012746D
:1027200003936D700C7404936E70067405936F6060
:10273000DDA3A3A3A3A3A380CA8A838982E473E54C
:102740006F2582F582E56E3583F583B56E0485824B
:102750006F2210AF0685826FF56E2285826FF56E4F
:10276000D2AF22EC8EF0A4CCC5F0CCCDF8EFA4CE45
:10277000C5F02DFDE43CFCE8A42EC8C5F03DFDE409
:102780003CFCEFA4FFE5F028FEE43DFDE43CFC2228
:10279000E3F5F009E208B5F06BDFF58067E3F5F0EB
:1027A00009E608B5F05EDFF5805A87F009E608B55E
:1027B000F052DFF6804E87F009E208B5F046DFF60A
:1027C000804288828C8387F009E0A3B5F036DFF67B
:1027D000803288828C8387F009E493A3B5F025DFEB
:1027E000F5802188828C83E3F5F009E0A3B5F0142D
:1027F000DFF5801088828C83E3F5F009E493A3B5BC
:10280000F002DFF40228BF808780E9809080D480C6
:102810003E8015806E807E809D80B7808D80A380F5
:10282000518074803C0228CB89828A83ECFAE4933D
:10283000F5F0A3C8C582C8CCC583CCE493A3C8C5B2
:1028400082C8CCC583CCB5F076DFE3DEE180708949
:10285000828A83E493F5F0A3E208B5F062DFF480A6
:102860005E89828A83E0F5F0A3E608B5F051DFF5D2
:10287000804D89828A83E0F5F0A3E208B5F040DF5D
:10288000F5803C89828A83E493F5F0A3E608B5F0ED
:102890002EDFF4802A8002805789828A83ECFAE452
:1028A00093F5F0A3C8C582C8CCC583CCE0A3C8C546
:1028B00082C8CCC583CCB5F006DFE4DEE280007FC1
:1028C000FFB5F0020F2240027F012289828A83EC49
:1028D000FAE0F5F0A3C8C582C8CCC583CCE0A3C894
:1028E000C582C8CCC583CCB5F0D5DFE5DEE380CFAB
:1028F00089828A83ECFAE0F5F0A3C8C582C8CCC50A
:1029000083CCE493A3C8C582C8CCC583CCB5F0AF53
:10291000DFE4DEE280A988F0EF60010E4E60ABEDEF
:102920002402B404005098F582EB2402B404005051
:102930008E232345822390280773EF4E6012EF60A9
:10294000010EEDBB010B89828A83F0A3DFFCDEFA66
:102950002289F05007F709DFFCA9F022BBFEFCF347
:1029600009DFFCA9F022E6FC08E6FD08E6FE08E621
:10297000FF22E2FC08E2FD08E2FE08E2FF22E6FB9D
:1029800008E6F908E6FA08E6CBF822E2FB08E2F9E5
:1029900008E2FA08E2CBF822E493F8740193F974A0
:1029A0000293FA740393FB22ECF608EDF608EEF6B8
:1029B00008EFF622ECF208EDF208EEF208EFF22250
:1029C000D083D082E493F608740193F608740293DE
:1029D000F608740393F6740473D083D082E493F200
:1029E00008740193F208740293F208740393F2746A
:1029F0000473E6FB08E6FA08E6F922EBF608EAF6C5
:102A000008E9F622E2FB08E2FA08E2F922EBF20812
:102A1000EAF208E9F2224107740041077300E0027C
:102A20000200001413E002020002120FE001020093
:102A30000954E00102000AA5E00102120B00E005C2
:102A400002120C120F02060A410A4D060113004140
:102A50000A4C01410A4A01C115011800011600C1C2
:102A60002A413D4100413D3600413D3F00413D404E
:102A700000413D3DFF413C0900C118C108412B24E4
:102A800000412BB2FF412BA900C106412BB30041ED
:102A90002BB400412BAA01C10B412B2300414393CE
:102AA00000C1364339A30000004139A2004139A6D4
:102AB000004303E70000004303E40103E7422D85E0
:102AC00098074340ED0000004340EA0140EDE0027A
:102AD00002121101B0E00102121300E0010212948F
:102AE00000E0050213BC01B006060A4142C10241E2
:102AF00042C00D4142C2086020349842DB01000010
:102B000000000000000000000000000000000000C5
:102B10000000000000000000000000602034B80940
:102B200000000000000000000000000000000000A5
:102B30000000000000000000000000000000005045
:102B400037DB000000000000000000000000000073
:102B50000000C10F015000C10CC10D41423A05C136
:102B600019C11BC11E42238C984041238E0043355E
:102B70000B00000042350900006020234B000000DC
:102B80000000000000000000000000000000000045
:102B900000000000000000000000000000432000D2
:102BA0009F01005020030000000000000000000012
:102BB0000000000000016127260E0002010501014E
:102BC000020E0601010004070401020300000400D4
:102BD0000608050402080314040004001405010893
:102BE0000908050208031405000400140500060086
:102BF000140802020A0A0802030100080004001473
:102C0000080006001408010800140A020D000A0A50
:102C1000020C000A0A02080B0A0A01050C0E0A003F
:102C20000400140A000600140A010800140E000A29
:102C30000D110E020804140E000400140E0006000C
:102C4000140E010800140E010500140E020F0E12DE
:102C500011000C0C0E1102080414110004001411D0
:102C600000060014110108001411010500141100E0
:102C70000A00141102050E12120208041412020CAA
:102C80000F001200040014120006001412010800C4
:102C900014120105001412000A0014120205001497
:102CA00012000C001413020C0100000209000000C5
:102CB00002100000140209010014020B001314009A
:102CC00007100014020A0100140204001414020C7C
:102CD000001414020D010014020E0014140210015D
:102CE000006024281E0200FFFF0602FF000602FF0C
:102CF000000301FF002300FFFF030000001300009A
:102D000000020001010300000046277501000201D6
:102D100004024227FB1D7C41288200412A300141E8
:102D20002888004328850128434328790128434106
:102D30000C460060200ABBEDFFFFFFFFFFFFFFFF17
:102D4000FFFFFFFFFFFFFFFFFFFFFFFFFFFFFFFF93
:102D5000FFFFFFFFFFFF7F4F382AFF31BE0EFF311D
:102D6000CC05FF31D10903100149381F4C69666554
:102D70006C696E65004238285A0141383A00413882
:102D80001E01C13A42381B0000E0020213C1003E9E
:102D9000E0050213FA003E040405E0020213FF00FE
:102DA00013E00C02140100000302000300020405FA
:102DB000060AE00502140D0013FF0405E0020214E8
:102DC000120000433C20000000423C270000443C2D
:102DD0002307102232463C1A40464A4E5256C12022
:102DE00041385C004138590042431B000041431AFE
:102DF00000C14143399F0000004139880041323F02
:102E000001423938000041392F00453E5100000091
:102E10000000453E4C0000000000413DE500413D02
:102E2000E100413DDB00413DE400413DDC00413E2D
:102E3000E900413EE80044427C0000000041389433
:102E4000005B387800000000000000000000000077
:102E50000000000000000000000000000000004131
:102E60003877FFC14B4136A3005035FE000000000B
:102E700000000000000000000000000045360E00C9
:102E80000102048047361E000000000000004336A7
:102E90001B000000413DA300413DA900413DA800A9
:102EA000423DA40000413DAD00413DAC00423DAA81
:102EB0000000423DA60000413DA20041376E00C126
:102EC000504C3DAE1000000000001100000000005A
:102ED000C153410AF720C1550072657365740063E0
:102EE000736100476F7420697421006C6D73006C0E
:102EF0006D6500776472005A57005A5720617070F0
:102F00003A0D0A00204669726D7761726520494466
:102F10003A20000D0A2056657273696F6E3A2000E0
:102F20005479706520276120637361203C31302023
:102F30006469676974206B65793E2720616E64203F
:102F4000707265737320456E7465722E003E2000AA
:102F50001E441E49C2D5E830E70FB2D5E4C39BFB3F
:102F6000E49AFAE499F9E498F8EC30E717B2D5124C
:102F70002F8A122334E4C39BFBE49AFAE499F9E420
:102F800098F8800312233430D50DE4C39FFFE49EEC
:102F9000FEE49DFDE49CFC22789FE4F6D8FD9000C1
:102FA000007F007E10E4F0A3DFFCDEFA9043C7A3AD
:102FB000E583C394204011FEAF829020000E0FE401
:102FC0008002F0A3DFFCDEFA121920021860223220
:102FD0005A43425F746573745F696E7465726661AB
:102FE00063655F706F6C6C000D0A4368616E6E659F
:102FF0006C73206172653A000D0A09203E001EDAEA
:1030000041707045765363686564756C6572001E27
:10301000711E76000001000000001706000000008D
:10302000180600000006180600000001180600003F
:103030000008180600000001010100000001150051
:10304000000000010204000000010B040000000663
:103050000B04000000080B04000000010D0000003C
:1030600000010E04000000011000000000010F002C
:103070000000000405010000000406060000000432
:103080000708000000020500000000030501000021
:1030900000010805000000000800000000010C010C
:1030A00000000001120500000008030200000001FA
:1030B00022000000000816080000000808000000B8
:1030C00000011601000000061601000000050903BA
:1030D000000000050A0000000005030200000005D2
:1030E0000400000000061B06000000011B06000093
:1030F00000061C07000000061D0700000007050869
:10310000000000081E070000000820000000000862
:103110001F00000000082100000000081106000048
:103120000001110600000008220000000006190638
:10313000000000061E00000000062000000000063F
:103140001A08000000061401000000071401000026
:1031500000081B06000000072400000000081401FE
:10316000000000555555555555555555555555550E
:1031700055553333333333333333333333333333DB
:103180003333888888888888888888888888888869
:10319000883F241E16110E0B09070504030201F0D7
:1031A000C8A7917767604638353230242220140052
:1031B00001010202030304040505060607075E2554
:1031C000858E595586725A73989F6C7A5E6C5598A5
:1031D0009F8625858E59725A737A1E1C1E21000106
:1031E0001E261E2B1E300000000000000000000004
:1031F00000000000000000000000000000000000CF
:1032000000000000008788888888888888888888E7
:103210008888888888262626262626262626262664
:103220002626262626000E0D44000E1064000E15DC
:10323000DC020202063F3F3F0404044040400532E6
:103240000FA04C6966656C696E6500496E76616CAD
:1032500069642067726F75700019DA19DF19E41953
:10326000E919F31A071A0C1A111D951D9F1DA41DAB
:10327000A91DAE1DB31DB81DC21C5F1C6E1C731CA6
:10328000781C7D1E941E991E9E1EA31EA81A9D1AB0
:10329000A21AD91CAF1CB91CD21E4E1E531E581E9A
:1032A0007B1E801E851CD71CDC1E8A1E8F1EAD1E39
:1032B000B21EB71EBC1EC11EC6FF02011BEC1D8B39
:1032C0005A0120032503661FE4FD7C0CAB050DEBC2
:1032D000901816938F828E83F00FBF00010EDCECE6
:1032E0007F03228F828E83E4F0A374067105740A33
:1032F0007105A3E4F0EF2404F582E43EF583E4F0E5
:10330000A3746DF022F08F828E83A3A322AD079069
:103310001217E054FCF0E0FFED54307E0060027EB6
:1033200002EF4E901217F0E0FFED7E0030E0027EDB
:1033300001EF4E901217F02290077C7402F0900774
:1033400073E0FF121E03710D90077C7405F0227567
:10335000FF0275E404E4F5E4F1C6C330E001D340B4
:1033600017E5E630E012901217E0540C600A121CC8
:1033700014901217E054F7F0C214F1C630E039E5AA
:10338000E6540364017031121A3E1261CD401F9061
:10339000123EE0600BE014F07006122F98D1A4F0FA
:1033A000901215E020E002814A1248B4814A122F9F
:1033B00098D214D1A4F0814A122F981266BD9007BA
:1033C00075EFF0901200E0B47A14901214E0B49CFF
:1033D0000D900775E0FF64056004EFB40330E490DE
:1033E000077BF090077BE0FFC394805013E42FF538
:1033F00082E43412F583E4F090077BE004F080E38C
:10340000901200747AF0901214749CF0D210121C76
:103410003C4003121C377B017A1279107D017F0139
:10342000121C327B017A1279117D017F21121C322C
:103430007B017A1279127D017F22121C327B017A84
:103440001279287D017F02121C32901228E0B4010B
:10345000057F01126C6B121A431266BD121A399065
:103460000775EFF01219B2121A34900775E0FFB425
:103470000602800C3014047F028005900775E0FF7F
:10348000121DFEEF24FFB3923675FF0253E6BF1202
:103490003F3A6003D1A4F012496D121A4D12382C34
:1034A00030100A7B017A12792A7D10F16E121A8E81
:1034B000901215E0C330E001D3400E20360B713876
:1034C0007B017A2B79BB1219F8901229E030E002C7
:1034D00080033014047F01D1D9D2AF301403121904
:1034E000B7203602A168121C5512506C121E081229
:1034F0001C2D40F2900774E06041121A6BEF7006C9
:10350000F1E694004035E51370FCE51420E502F186
:1035100045121B8DEF70FAD1B35004D1C550057F11
:1035200001123CD7900774E0B40204E4FF800990D4
:103530000774E0B403057F011248B9121A61E5145B
:1035400030E1A31274234002E4F0E51420E505D134
:10355000861259C6127447C0E0D194900777E0FDF7
:10356000D0E0FF12199E81E612490C1248DD50028C
:10357000D1F5D1ABEF7006900774E06052902B2428
:10358000E0704C121A6BEF7006F1E694004040E5D3
:103590001370FCE51420E502F145121CC3121B8DCB
:1035A000EF70FAD1B35004D1C550057F01123CD75A
:1035B000900774E07011D1ABEF600C12381D9012BF
:1035C00017E04408F08008900774E0FF121C0F1207
:1035D0001C5512506C121C1E9040C0E07048F1F750
:1035E000123805EF7022F1CEEF6005121C14803600
:1035F000D1ABEF70311264C9EF702B1247F4EF6456
:10360000017023123816801E901217E020E217F185
:10361000CEEF600DD1B35004D1C55005E4FF123C8C
:10362000D7E490077AF0201105121A61802212580F
:103630003D90076DE0FEEFC39E4005EF9EFF8008C2
:1036400090076DE0F4042FFF7403D39F5002C21162
:10365000E51430E1231274234002E4F0E51420E580
:1036600005D1861259C6127447C0E0D194900777ED
:10367000E0FDD0E0FF12199E121BDD121A7A1264CF
:103680003A124958A168900776E0FD75F0AA9007B4
:10369000801225A0ED75F002A4246FF9740735F0AF
:1036A000FA7B0122901215E054FE22F1D6B40102F9
:1036B0007F0122900001740193B40007E493B418D1
:1036C00002C322D3227F017E009017FCE4935EFEAA
:1036D0007401935F4E24FFB322EF600DD186AF8259
:1036E000AE83E4FD1259CC8009121A70F145E4331F
:1036F000FF227F0122E4FFD1D9EF6041F13E124465
:10370000D65009901222E0C394C040F07B017A1297
:1037100079241244D6500F1248F55FFFA3E05FFFF3
:10372000A3E05FF460E6901229E030E0047F01D16D
:10373000D9E4901220F0F13EE0FD121B97227B01AC
:103740007A12792222E51370231244C65005C23240
:10375000124F33F1BE125F16E5D120E0FB43142077
:103760005314FEE4F510A21392EDD322C322900B62
:10377000E01225CC900BE3EDF0E4A3F0ED54FE90C5
:103780000BE3F0602FE4FFD1D9BF0128900BE012CA
:1037900025AC1244D6501D900BE1E475F0021221C5
:1037A00066900BE4E02402F0900BE4E0FF900BE362
:1037B000E06F70D87F01D1D9900BE4E0FF22124F67
:1037C000C57F08021DF975FF02901215E022F1D69F
:1037D000B402027F012290077AE07F0022C2AFEF9D
:1037E000F45214D2AF2290077DE0FEA3E0FF1258FE
:1037F0004CD3EF94C8EE2290077AE0FF121E0D9092
:10380000077FEFF02290077FE07F0070027F0122A8
:10381000E490077AF02290077A7401F02290077AF8
:103820007402F0221237D670027F0122B135121ACB
:103830005C121B2E1219A3121C5AF13A70022112AB
:103840007FFF121AE8900B811225CC7E007F093190
:1038500070BF540D7E007F0A3170BFA5047F0180C8
:10386000027F00900773EFF0900B811225ACE94ABC
:103870004B701D7F04FE3170EF2401FFE433FEC363
:1038800074011259647F0050027F01900773EFF0BA
:10389000900773E064017050900B811225ACF1EF3A
:1038A0007A0B7987F169900B87E0FEA3E0900B819A
:1038B00012737FFAE92407F9E43AFA900B8412258F
:1038C000CCE92408F9E43AFEAF017B017A0B798751
:1038D000F169900B87E064047004A3E0640560085C
:1038E000121AED900773EFF0900773E0701C7E00E2
:1038F0007F04C006C374139404FE74141247D6D018
:1039000006126FD7E4FFFE121AF2900773E0FF125F
:103910001B15F13A7F0060027F01121A1B121A2553
:1039200012196C12640C1273AE7A127922121B9265
:103930001248F5FE4FFDA3E0FC4DFDA3E0FB4D60FA
:103940000BEE5FFFEC5FFFEB5FF470031236F59058
:103950001220E0FF901224E06F90076EF0021C2806
:1039600075F002A42485F9740F35F07B02FEAF01D7
:10397000E4FCFD90417F122514D1E25151EF600427
:10398000D1F180F751D87F0391B4600790417FF166
:103990002A31B290417FF12031B290417F31AE5156
:1039A00045904183EFF0713D904183E0FF22122466
:1039B000BCE4E5C820E2FB8FEB227F01714190431C
:1039C0008C7401F090438CE0602EF11A51459043C5
:1039D0008CEFF071B05134903BFDEFF071B090433B
:1039E0008CE05401F1A860DCA3E0F460D7EF30E78D
:1039F000D3E490438CF080CC51DC7F9F31B25145B1
:103A0000903BFE5143903C035143903C04EFF071D6
:103A10003D903BFCE0F4601BA3E0F46016903C0397
:103A2000E0FD541F240FA3F0EDC41354074480900D
:103A30003C03F02251DC7FD731B27FFF31B25149D4
:103A4000903BFCEFF07FFF31B2E5C820E2FBAFEB2B
:103A5000227F017141303414F11A514590438DEFAA
:103A6000F071B090438DE020E002C2343034175141
:103A700034903BFDEFF1A8600BA3E0F46006EF305B
:103A8000E702C23471B0E4FF7141A234E433FF2293
:103A90009041841225149041841224BC31739041CA
:103AA00088E06F6031D1E25151EF6004D1F180F7CD
:103AB000919F6007904184F12A31B2904184F120B6
:103AC00031B290418431AE904188E0FF713B903C2F
:103AD000007401F0D322C3227F017141903C01E0C8
:103AE0001226D93AFF043B07143B0C153B11173B38
:103AF00021303B26343B2B363B303700003B1953FB
:103B00006AEF856A80802F536BEF8008536BDF80EC
:103B100003536B7F856B90801D536CDF856CA08099
:103B200015536DFE800D536DEF8008536DBF8003FC
:103B3000536D7F856DB07F0CDFFE2231B271B0E432
:103B4000FFEFB4010443FE202253FEDF22903E6AC1
:103B5000122514903E6E1225CCD1E25151EF600433
:103B6000D1F180F7919F6007903E6AF12A31B290BF
:103B70003E6AF12031B2903E6A1224BCE480229069
:103B80003E71F19145F0601D903E6E1225ACE94A00
:103B9000600D121FD6FF31B2903E6FF18A80E0E4D3
:103BA000FF31B280DA713D903C007401F02231B2F5
:103BB000F1E9EF70FB903C03E0F4600A90438B74F2
:103BC00006F0F14970FC903C01E01226D93BE90473
:103BD0003BF1143BF6153BFB173C0B303C10343CDF
:103BE00015363C1A3700003C03436A10856A808012
:103BF0002F436B108008436B208003436B80856BE1
:103C000090801D436C20856CA08015436D01800D54
:103C1000436D108008436D408003436D80856DB017
:103C200090438B740CF0F14970FC22903E73122586
:103C300014903E771225CCD1E25151EF6004D1F1BE
:103C400080F751D87F0391B46007903E73F12A3119
:103C5000B2903E73F12031B2903E7331AE903E7A15
:103C6000F19145F0600E5145903E77F199903E7884
:103C7000F18A80E971B0E4FF6141D1E25151EF6016
:103C800004D1F180F77F017141D23451DC7F06719C
:103C9000AE51DC7F0131B27F0371AEE4FF61417F41
:103CA000017141D23451DC7F0631B271B051DC90E8
:103CB0003BFFE0FF31B2903C02E0640222903BFC0B
:103CC000E020E01251D87F3D31B27F2A31B27F80AF
:103CD00031B27FA6713B2290434DEFF0E4A3F09008
:103CE0003C0AE0FFB40209740FF14174B9F0800C92
:103CF000EF6404703F743DF1417479F051D8904302
:103D00004DE06007903C09E0FF80027FAB31B2716B
:103D1000B090434DE0903C09F0701590434EE0D3D5
:103D20009400400C7FFF31B290434EE014F080EBE2
:103D3000E4FF7141227B017A3C79017F03F1A07A93
:103D40003C790A7F08F1A07A3C79077D027F09124D
:103D50001C327B017A3C79057D027F0B121C32906C
:103D60003C05E0FEA3E0FF4E6006BEFF16BFFF135A
:103D7000F1B050028004F1B98009903C05E4F0A351
:103D80007440F0F1B050028008903C027403F0805F
:103D900006903C027402F0903C01E01226D93DBA34
:103DA000043DC5143DCD153DD5173DEB303DF334F5
:103DB0003DFB363E033700003DE075FF015366EFE3
:103DC0008566FD804775FF015367EF800E75FF0123
:103DD0005367DF800675FF0153677F8567C9802CB5
:103DE00075FF015368DF8568CA802175FF0153693B
:103DF000FE801675FF015369EF800E75FF01536950
:103E0000BF800675FF0153697F8569CB71B07F1153
:103E1000F134E4FF91D731BA903BFF7402F0903C4B
:103E200003E0247F6009047015F151740A80069143
:103E3000BDF1517458F0903C027403F0F1B9903C1C
:103E400004E0F46002C1E0903C07E0FEA3E0FF6400
:103E5000104E7006903C04740EF0EF64204E700615
:103E6000903C04740FF0EF64404E7006903C047474
:103E700010F0EF64804E7006903C047411F0E4B5CD
:103E8000070AEEB40106903C047412F0E4B5070A88
:103E9000EEB40206903C047413F0E4B5070AEEB4E5
:103EA0000406903C047414F0E4B5070AEEB4080666
:103EB000903C047415F0E4B5070AEEB41006903C8B
:103EC000047416F0E4B5070AEEB42006903C0474BE
:103ED00017F0E4B5070AEEB44006903C047418F0FD
:103EE000817A75FF02E5E430E10675E40675E403C6
:103EF00022E51430E20FE51420E50AE51430E00570
:103F00007F011236D9227E127F0BE4FDF1D9D1E276
:103F10005151EF6004D1F180F72251DC7F0521B2CD
:103F20001224BC7808122408E4221224BC7810124F
:103F30002408E422EF4420F5FE22900775E0640196
:103F40002290434EF0903C092290438BE014F0E025
:103F5000227F10F134903BFF229039BB1225ACAE8A
:103F600002AF017B017A3979CA9040CB7402F0909C
:103F700040C81225CCE4FCFDC0079040C81225AC17
:103F80009040CB127374D007812BE475F0010221AD
:103F90006674FFF5F002217CFF1225ACEF0220953C
:103FA0007D01121C327B0122F0903BFCE0FFF422E9
:103FB000903C0AE024FE24FD22903C057401F0A30D
:103FC000E4F022E075F002A42484F9740F35F07B4C
:103FD00002FEAF01902BABE0FDAB05E4FCFD904190
:103FE00088EBF04190E4FF6141E5C85404FF22AE44
:103FF00002AF017B012275FF0275E40475E40175CF
:10400000E4022275FF0275E404E4F5E42212583D4F
:1040100090077DEEF0A3EFF0221264ACEF70087F02
:10402000A07E0FFDFC01BA1264E3903D37EFF074FF
:1040300006D39F4067E0605A91B37E00903D37E021
:1040400014FDE5F0A805088005C333CE33CED8F9BA
:10405000FF91A5311C903D381224D8C000C001C08A
:1040600002C003903D37E014FF74107E00A80708DB
:104070008005C333CE33CED8F9FFEE3395E0FDFC97
:1040800031281222A9D003D002D001D00012228EF2
:10409000802891B3AFF07E0091A5801E903D3FE057
:1040A000FF600FE4FCFDFEFB7AF47901F81222A90F
:1040B00080087F007ED07D077C00311C1264777EF3
:1040C000547F44C006C0073114125722D007D006CF
:1040D00012564D1264BDEF703A3122D31223F740CD
:1040E00007E47F01FEFD80223122122334311C318E
:1040F00014E47B01F1ED50143114C3EF9401FFEE91
:104100009400FEED9400FDEC9400311B3114121C60
:1041100019110D22903D380224BCFDFC903D38025F
:104120002514903D381224BCE47BE87A03F9F82288
:104130009040C5E024FC70024145147002413E14D9
:104140007002412D1470024164240660024179E539
:104150001360024179C2EB517A1219AD904349EFD5
:10416000F0E51430E002412A125F0160057F011280
:1041700036D99043497A43794A125E264004D2EBFD
:104180008192904349E024D3F1ADE0FF90434AE0AF
:10419000D39F400281AC9040C4E0640F70259043EF
:1041A00049E0FF9040C15183FD517A1251C79043BD
:1041B0004AEFF0E0FF7005D2EBD20022EFB4020329
:1041C000D2EB2212610E517AE924E25189FF90402C
:1041D000C19185FDACF0E4FB1260EDC2259043492E
:1041E000E0900C0CF0E4FFFE12596D503AD2EB90C7
:1041F00040C57402F01262917E00E4FCFD7BD07A2F
:10420000127913F81222A93128122F54AB07AA06EB
:10421000904349E0FF7D031262A47E647F217D14F8
:104220007C001219678003D2EB22D2EB22E5142026
:10423000E52BE51430E0267F011236D9801F90402F
:10424000C57401F022517AE924EF5189600774FFA7
:104250001220407008121962517A021A759040C5F6
:104260007403F02212611FD200517AF192F1DFF152
:1042700098E49040C5F0121976229040C10225AC16
:10428000900BDB1225ACE924B9F9E43AFA021FD607
:10429000900BDB1225CCD226C2EBE51360028171B4
:1042A000E51430E202C322917A24ECF9E43AFAE40C
:1042B000122095126248A2ED9213C2ED91825460D1
:1042C0006031917A2403518920E1289040C5E0644F
:1042D0000460209040C4740FF0900BDB1225ACF109
:1042E00098F1DFF1929040C57405F03130A213923D
:1042F000EDD322900BDB1225AC121FD6540FFFBF5B
:104300000111E924ED5189700A901221E0900BDE31
:10431000F0800E900BDB1225AC1219AD900BDEEF86
:10432000F0E51420E05E91CE40057F011236D99071
:104330000BDE7A0B79DF125E26E433917924ED12DD
:10434000758F122040EF70028036900BDEE0FF2464
:10435000D3F1ADE0FE900BDFE0D39E400491ACC3FF
:10436000225180FD900BDB1225AC1251C7900BDF60
:10437000EFF0E0FF7006D2EBD2008159EFB40204F7
:10438000D2EB815991825460600E917A2403518955
:1043900020E105E49040C5F091CE5005C232124FA5
:1043A00033125F16E5D120E0FBE4F510C214917AD8
:1043B0002408F9E43ACFE9CFF5118F12917A24B1AC
:1043C0005189F515AE11127176917A24B151899106
:1043D0007924E151892FFFE433FE1275A3FE518049
:1043E000D312596450057401122040917A24B2F915
:1043F000E43A8B1AF51B891C917A24E15189F51D49
:1044000091825407900A4CF0751308917AF1E612E4
:104410007169917A24E15189FFAD151271957B0183
:10442000E4FDFF127135E4F5FFE5D25480440CF54C
:10443000D2900BDEE0FF51802418FBE433FA7D03B9
:104440001262A49182FFAEF0A2269225900BDEE0CC
:10445000900C0CF012596D4006A21392EDC32290FD
:104460000BDEE0917924F1F1A5A21392EDD2EBD30A
:1044700022A21392EDD2EBC322FF900BDB1225ACEC
:10448000E922900BDB1225ACE92404F9E43AFA02A4
:104490002192C3900A57E094FF900A56E094FF508F
:1044A00003123F8A227C007D64022763D2EB919243
:1044B000D2002291BBEF75F0A0842290076EE064D9
:1044C000AA2411FFF022C2EBA2ED9213C2EDE5F493
:1044D000C330E701D322903DBA125EB0903DC012C6
:1044E000252000000001903DC47401F0F5FFE5D5E2
:1044F00054C0700491CE5002C322E4F5FF53967F5E
:1045000075FF0175D504124D7E75FF0143D508E492
:10451000F5FF5394FBF5FF53847FF5FF7598FF90EB
:104520003DBEE5F4F075F49C75FF01A3E5E4F0757C
:10453000E4257B017A3D79C4125ED0903DC4E064ED
:10454000016002A1FDF5FF903DBD7414F0903DC0E7
:10455000D13FFF780112241B903DC0122514E5A71E
:1045600030E1FB43A702903DC0D13FFFE5A730E01B
:1045700005E47B018002E4FBFAF9F8EF4BFFEE4A19
:10458000FEED49FDEC48FC903DC0122514903DBD68
:10459000E014F070B8903DC0D13FFF7810122408AD
:1045A0007B6D7A4E79C678411222A9EF2439FFEE4D
:1045B0003430F1CDFBFA7901F8122334EE547FFE4A
:1045C000E4FDFC126BEC903DC0D13FFFEB6FFFEAC6
:1045D0006EFEE8CDEFCDCCEECCECFFF1B5A3E0F96B
:1045E000EF122095F1B5A3E0F9900001ED1220A79C
:1045F00090120FE030E606E4F5FF75968075FF0136
:10460000E4F5D5903DBEE0F5F475FF01A3E0F5E4D7
:10461000126866903DC4E0B40103D38001C322E078
:10462000FB25E025E02401F582E43412F583122510
:1046300014EB25E025E02401F582E43412F583E053
:10464000FCA3E0FDA3E0FEA3E02290393A1225147A
:10465000124EC690394F122520002DC6C0E4F5FF3A
:10466000F5A490120EF0A3F090394A7402F075FF91
:104670000390394AE0FFF595EF14601314601C2491
:1046800002702790393AD13FF18B903946801690CD
:10469000393ED13FF18B903947800A903942D13F62
:1046A000F18B903948E0903953F012699790395363
:1046B000E0700812756A75F418805790120EE004C5
:1046C000F090394A125FB190394FD13F90394B1277
:1046D0006A48FBC31223F7500A90394BD13FFFA31E
:1046E000122514903953E0FF126818903949E0FF01
:1046F000A3E0FDA22F922D126945A3D13F12763C73
:1047000090394AE0FF1269A490394AE0D132FF1291
:104710006784F1BE6002C16E7402F075FF039039C8
:104720004A1276997016FF7E04FDFC90394F124AAA
:1047300004F19E90394AD11FFF126784F1BE70DBED
:10474000127415400343F420A22F922E1268779022
:10475000394FD13FF1C7FB7A04F9F8124A0FF19EA5
:10476000C22C1274C09012137401F07E127F01E407
:10477000FD8F828E83EF2DF582E43EF583E0FC9081
:104780001213E02CF00DEDB412E722FF90394B022A
:1047900025149039A30225CC9040C10225CC3CFCC5
:1047A0007801022408F9E43AFAEF022095F582E450
:1047B0003409F58322903DBAE0FBA3E0FA22903958
:1047C0004AE0FF14F0EF222420FFEE344EFEE43DD9
:1047D000FDE43CFCE4229400904040F0A3CEF07B4A
:1047E000007A0079002224B2F9E43AFA22FAF9F8C0
:1047F000C30223F720082C901217E030E10B124877
:104800002650067E007F0180047E007F00EF4E7000
:1048100012121C91EF700C121CC8EF700612400DA2
:104820007F01227F0022A21422900C04EFF0900C52
:1048300006EBF0900C05EDF0540290123FF0124799
:10484000F4EF7002C322900C04E0B40411A3E0FB67
:104850007D017F011187900C047403F08017900C88
:1048600004E0B40505121C0A800B900C05E0FB7DEA
:1048700001E4FF1187900C04E0900774F0900C069F
:10488000E090123EF0D322EB600875FF0153CDFD9E
:10489000800675FF0143CD02ED600553FBDF800309
:1048A00043FB20EF600775FF0243E1402275FF02E2
:1048B00053E1BF22121C0A7F0143FB1075FF024324
:1048C000E640EF600D75FF02E5E120E7FB43FB0DDD
:1048D000800343FB0E80FE75FF028FE322901220BF
:1048E000E0701011F54FFFA3E04FFFA3E04F7003FE
:1048F000D38001C322901222E0FFA3E022AE071270
:1049000044BBEE04FEEF8EF084AFF02230120C9028
:104910002B24E07006FF1219D5C212301423AF1FEA
:10492000900A73E0FEEFC39E400AEF9ED3940240CC
:1049300010C21422900A73E0F42FD394014002C2F3
:104940001422900778E0FCA3E04C700A900778EE00
:10495000F0A3EFF0D322C322900778E0FEA3E0FF9C
:104960004E6009CAEECAC9EFC912273922D2ADD2A8
:10497000BD75FF02758E7175700975FF02E58E5465
:104980006F4480F58E9041FC12252000000000222B
:10499000C0E0C0F0C083C082C0D075D008C0FF7531
:1049A000FF02E58E30E43B75FF02E58E54EF4410C4
:1049B000F58E9041FC1224BC511B3CFC9041FC1232
:1049C0002514900000123F8AE57030E0020551E5A1
:1049D00070700D757009051FE51F7002051E8002BD
:1049E000157075FF02E58530E40875FF02438510F8
:1049F0000572D0FFD0D0D082D083D0F0D0E032FF8B
:104A00007E04FDFCE0F8A3E0F9A3E0FAA3E0FB12CA
:104A100022A9E47B7DFAF9F8122334EF2401FFE4A4
:104A20003EFEE43DFDE4229037BB1225149037CBC7
:104A30007401F0E4A3F0D1C675FF02E5E630E00EA4
:104A40009037CC7401F0FB7A3779CC125ED0903776
:104A5000D6122520002DC6C0E4F5FFF5A490120F54
:104A6000F09037CD7402F075FF039037CDE0FFF57D
:104A700095EF14601414601E2402702A9037BB1244
:104A8000463F71CB9037C780189037BF12463F71B1
:104A9000CB9037C8800B9037C312463F71CB90370D
:104AA000C9E09037DAF01269979037DAE0700812AF
:104AB000756A75F418806B90120EE004F09037CD93
:104AC000125FB19037CCE0701E9037D612463F90FF
:104AD00037D2126A48FBC31223F7500B9037D21219
:104AE000463FFFA31225149037DAE0FF12681890B2
:104AF00037CAE0FF9037CDE0FDA230922D12694514
:104B00009037CCE070119037D212463F12763C902D
:104B100037CDE0FF1269A49037CDE0124632FF1284
:104B20006784127623600241679037CCE0703FA320
:104B30007402F075FF039037CD127699701290379A
:104B4000D631FF12479E9037CD12461FFF12678461
:104B500012762370DE9037D612463F1247C7FB7A93
:104B600004F9F8510F12479E9037CE122514127493
:104B700015400343F420A230922E1268779037CC70
:104B8000E024FF922C9037CE12463FFF1274C0E40F
:104B9000F5FF75E5081274E3E59B30E7FB71D2D1B0
:104BA000F443D5047FC871E4124765B1857B017A6F
:104BB0003779CB1267C090120EE0B40102F17C90FD
:104BC00037CBE0B40103D38001C322FF9037D20278
:104BD0002514E4F5FF758EC8D16875FF0153D5FB28
:104BE00091C67F147E0091A975FF0343918022C274
:104BF0001CE490428AF0C21DA3F0A3F075FF01E50A
:104C0000D520E702C322C233F112201C02819A533D
:104C1000F4DF90428AE0FF125A51F17C301D0543C7
:104C2000F440800353F4BFE4F5FF53F5F090428B5A
:104C3000E0FAA3E0FBEA42F5EBF5F6D233F1127F9E
:104C4000C871E4E4F5FFE59320E604D1FA40F430BE
:104C50001D55E5F430E3047D288010E5F430E204CE
:104C60007D288007E5F430E1027D2891C67F287118
:104C7000E4D1FA40FC7F7871E4D1FA502AF1755002
:104C8000F8125FE0EFC39D50F0F17550ECE5F720AE
:104C9000E5E7C233F11291C680DF53F4BF12741BF3
:104CA000400543F420F1E8D32275FF03D3EF9402CB
:104CB000EE9400400874FE2FFF74FF3EFEEFF59265
:104CC000EE540FF5912275FF03E4F59122E4904232
:104CD00008F0A304F0E490420BF0E5FA30E1FB7534
:104CE000FF01E5D530E7037F0022E4F5FF75E50815
:104CF000F1E8E5D530E61A75FF0190420AE5DAF0F1
:104D0000E4F5DA75FF01E5D630E3FB90420B740160
:104D1000F01274E3E59B30E7FBE4FB75FF038B9532
:104D2000124631FF1267840BEBB403EF75FF037576
:104D3000958071D2D1F443D50490420BE070089174
:104D4000C67FC871E4B1857B017A4279091267C0D8
:104D5000904209E09042087006E04404FF8002E0BF
:104D6000FF904208EFF090120EE0B40102F17C7562
:104D7000FF0190420AE0F5DA904208E0FF227F3F0F
:104D8000FE91A971E875FF03E59120E7FB22903AB7
:104D900064122514E4F5FF75BB0575BB8575FF012D
:104DA00075D502202C04B17ED16875FF0143D52052
:104DB000302C02C14EE4F5FF538EF7438E077D047D
:104DC000E4F5FF8DBCF5FF43B102E5B130E2FBE451
:104DD000F5FFAFDFEFFEACDEECFBEBFFED25E024F3
:104DE00062F582E4343AF583F1E1F5FFF5FF53B162
:104DF000FD0DEDB40CCA903A6412463FFF780912DB
:104E00002408A3F1E1FDED25E0246CF582E4343AB9
:104E1000F583E0C313FAA3E013FBF1051275342BFD
:104E2000FFEE3AFEF105EEF0A3EFF0ED2404901250
:104E30000DF0EDC394075016CFEDCF0DEFF1061234
:104E40006F93903A69E09F903A68E09E50B8E4F51D
:104E5000FF758EC8F5FF90120DE0F5BCE4F5FF7507
:104E6000BB8075FF01F5D522E4F5FF75C2E17F1E19
:104E7000F1EF30E707E4F5FF75C2A122E4F5FF7515
:104E8000C28122CDEFCDCCEECCF1B9AB94EF4B1279
:104E90005FA9CBEFCBFAE59130E71DF1BCA994E90E
:104EA000F582EF4582FFEB2DF582EA3CF583C3EFF7
:104EB0009582E5F0958340DEE59120E708CEECCEC3
:104EC000CFEDCFB1812275FF0243E180F1C575FFBF
:104ED00001438E1075FF0153DB7F75FF0175D5020D
:104EE00071E2D1F4438E1075FF0143DB8075FF0141
:104EF000E4F5D522B18575FF012275FF03E591C365
:104F000030E701D322ED25E0246AF582E4343AF556
:104F10008322AFF4EF547FF5F4303305EF4480F58E
:104F2000F475FF01E5D520E702C322E5F4D330E6AE
:104F300001C32290438AE5F4F0E0547FF5F47F82C8
:104F40007E00F187D1FA5005E5FC20E6F730320803
:104F500090438AE04480F5F4F183D1FA5005E5FCF2
:104F600020E6F775FF01E5D520E702C322E5F4D37B
:104F700030E601C32275FF01E5E4332275FF0143EA
:104F8000D810227FE87E03F18B61E8904200127313
:104F9000A67A427902125F365014904202E0FEA3D4
:104FA000E0FF904201E09F904200E09E400A904264
:104FB00000E0FEA3E0FF91A92275FF03AF93EF7518
:104FC000F010A4FF22E5FA30E1FB75FC8075FF01CB
:104FD00053D5EFE4F5FC75FC4091C6E5FC20E6FBFB
:104FE00022EEF0A3EFF0E42275FF0153D8EF22FE8A
:104FF000D18390120FE022903F28ECF0A3EDF090C7
:105000003F27EFF0FB903F2A1224BC12533F12259A
:1050100014EB115E122514EB115EC083C0821224C2
:10502000D8900000E0FEA3E0FFF1DCD082D0831234
:105030002514903F2EE0FF903F27E0FE31ADEFF0CA
:10504000903F28E0FCA3E0FDEE75F00CA42412F5DF
:1050500082E4342CF583ECF0A3EDF022E57175F0D9
:105060000CA4240AF582E4342CF58322D3900001A9
:10507000E09400900000E094005002219CC2ADE05A
:10508000FFA3E0904347F1E9900000F0A3F0D2AD18
:10509000F571319DE0FEA3E0FF4E6048C3904348A8
:1050A000E09F904347E09E402131BBE0B4010F31C7
:1050B000BB7402F0900A63E0FF319DE4802231BBB3
:1050C000E4F0319DE4F0A3F0801A319DC083C082EA
:1050D000E0FEA3E0FF5165EF9DFFEE9CD082D08300
:1050E000F0A3EFF00571E571640370A6902CB8E0B1
:1050F000FF601DF4601A7E0051659FEC9E40087AA7
:10510000007B007F008004C3EF9DFF902CB8EFF080
:10511000E4F571E571516FE06072515CE4FCFD11E2
:105120005C1224D8D31223F7504231ABE0FF600861
:10513000F4600531ABE014F031ABE0600EE5717165
:10514000401224BC115C122514800FE571516FE4EC
:10515000F0115C1225200000000071054E600871FE
:1051600005AA06F9122739123EF18020115CC0838E
:10517000C0821224BCC006C007904347D178D00734
:10518000D00612229BD082D0831225140571E571BE
:10519000C3940E50022113515C121B2922E5712584
:1051A000E024B2F582E4342CF58322E57175F00C2D
:1051B000A42414F582E4342CF5832274072571F5B8
:1051C00082E4342CF58322121FD6FB900C31EFF0D1
:1051D000A3EBF0900C31E0240731BFE0FEB40203F2
:1051E0007F0022EE701E900C31E0FF240731BF7467
:1051F00001F0900A60E0FCA3E0FDEF319FECF0A32A
:10520000EDF0802AED241BFFE433FEE4FCFD7B0C73
:10521000FAF9F8122F54EF2405FF900C31E0319F7A
:10522000E0FCA3E0C39FEC940050037F0022902C8D
:10523000B8E0B4FF15900C32E0540FFFBF0103E457
:105240008004900A74E0902CB8F0902CB8E06003D1
:105250007F0222902CB874FFF07F0122904347E038
:10526000FEA3E0FF22904347E0FCA3E0FDC32275CC
:10527000F00CA42415F582E4342CF5832290401F11
:10528000F101EBF090402474FFF0904023E0904057
:1052900025F0904025E0FFC3940E5063EF115E129D
:1052A00024BCE4FB1247ED704E904023E07E017079
:1052B000027E02904025E0FF516FEEF0C007904063
:1052C00021E0FF7E00600512767B80027F0AE4FC0D
:1052D000FD903F2A122514904022E0903F2EF0903E
:1052E000401FE0FCA3E0FDD007124FF7904025E0FF
:1052F00004FF904024F022904025E004F080939039
:105300004024E0FF22E57175F00CA42412F582E43C
:10531000342CF583E0FEA3E022AB07E4FF1BEBC3D4
:10532000940E501A713F12252000000000EB115E10
:1053300012252000000000EB516FE4F07F0122EB0A
:1053400075F00CA4240EF582E4342CF58322AB070F
:10535000E4FA1BEBC3940E500E713F127691600776
:10536000EB115E1225140AAF0222903F2FEEF0A33C
:10537000EFF07FFFA31224D8E8494A4B6053903FD7
:10538000367403F0903F36E0FEC3940E5043EE5166
:105390006FE07035903F36E0FF516F7405F0C00745
:1053A000903F311224BC903F2A122514903F35E0E3
:1053B000903F2EF0903F2FE0FCA3E0FDD007124F6E
:1053C000F7903F36E004FF8008903F36E004F0801D
:1053D000B3227401F0903D3CE0640270227C557D64
:1053E000C47F01121A16E4FBFAFD7FFF121A027E37
:1053F000547F44C006C007F11BD007D006C14D90B2
:105400003D3CE064037018FFFE12411A903D40E0FD
:105410007C557DC4B402047F0380117F02800D900F
:105420003D3CE0B4040B7C557DC47F04121A168009
:1054300013903D3CE0B4010BD16ED155B1BCE4906A
:105440003D3CF022D155903D3CE0B4020AD16E9033
:105450003D3C7403F061D5903D3CE06403706A907C
:105460003D3EE06057903D40E0B40105121C0080D5
:105470000A903D40E0B40203121C05903D3EE0144A
:10548000F0E060201244BBEF75F04684E5F075F063
:1054900064A4FFEF24A0FFE5F0340FFEE433FDE445
:1054A00033FC8007E47FA07E0FFDFC903F31122586
:1054B000147E547F44E4903F35F0C14D903D3C74E0
:1054C00001F071D57FFD021E17903D3CE0B4041140
:1054D00012646FEF60081247DFE4FF024019121CEC
:1054E0000022904389EFF0C22A901220E060207ED3
:1054F000127F0B123970BF01087FFF121E177F0049
:1055000022903D3CE06008901220E0FF121E17122E
:105510003F06904389E07002A19CE4903D40F090EA
:105520003D3CE0600271D2904389E0FFB4010790F6
:105530003D4074018009EFB40310903D407402F0C7
:10554000B1BC903D3E7404F0804AEF640470379023
:105550001220E07020D22AD162EF7011B1BC126427
:10556000A47E127F0B7D01123FD9123F0E903D3C6D
:105570007404F0803A900775E0B40505E4F0121B5E
:10558000FBB1BC7F0022904389E064027021903D12
:105590003EF0B1BC903D3C7402F08013E4903D407D
:1055A000F0D162EF6003123F06903D3C7401F07150
:1055B000D5903D3CE07F0060027F0122901217E011
:1055C0005403F02290434BEFF0A3EDF0D1559043FC
:1055D0004BE0B40112A3E0903D3DF0B1BC903D3CE6
:1055E0007405F07FFE805F90434BE0640270229070
:1055F0003D40E064027055903D37F0903D3C7403AF
:10560000F07E547F44C006C007F11BD007D006804F
:105610003C90434BE07035121A7FEF6401602A30F2
:105620002A14121E3AEF600C121A7FEF60069043A4
:105630004C74FFF0C22A123F06903D3CE0600271BC
:10564000D290434CE0FF021E17121A8922716A9011
:105650003D41EFF022903D41E0FF7119E4903D4162
:10566000F022901217E07F0030E2027F0122E4FD79
:10567000FCFF021A16904214E0FEA3E0FBAA06E427
:10568000F9F822904214F101EBF0D175D1F71275BF
:10569000D7C006C007904214127534D17CD007D011
:1056A00006D31223E17E0050047F0180027F00C0F8
:1056B00006C007D175D1F7D0E02FFFD0E03E904271
:1056C00014F0A3EFF053ECFC904214F1E2540342C7
:1056D000EC75FF02EDF5AF75ED0275ED04A3E0602A
:1056E0000543EC08800353ECF7904217E060044355
:1056F000EC042253ECFB227F807E387D01FC022FDC
:1057000054EEF0A3EFF0A3EDF0A3227E1E7F947B76
:10571000017D0A9040237403F0417DE47FD07E0731
:10572000FDFC903F31122514E4903F35F022F0A3A8
:10573000EFF07E1C7FD2E4FB7D01E4904023F0413A
:105740007D9042841225CC904284F1587119904288
:10575000841225ACE40220951225AC121FD6FF223C
:10576000904029ECF0A3EDF09040261225CCF141B9
:10577000904029F190904026123F999040261225A2
:10578000AC121FD6B4FF04E412209590402680C8C6
:10579000E0FEA3E0FFA3E0FDA3E0FB809D7B017D95
:1057A000017F807E04D1837A0A79E31273E4741452
:1057B000F07A0A79DB121E6CD2ACE4FF12730F7E12
:1057C000077F2D7B057D201272B37F0D75FF02438D
:1057D000B2C075FF028FB322614E6119E4FCFD0275
:1057E000228EE0FCA3E0FDEC22CFF0A3EFF0E42258
:1057F0001FEFC3940E5008EF115E1224BC8005E425
:10580000FFFEFDFC22E4FEEFC3940E5013EF125294
:105810006FE05D7C00B505027C01EC2EFE0F80E799
:10582000AF06227D02E4FF80DC7D017F031105AB22
:10583000071123EF2BFF22E4FD7F0380C8A2AD9266
:1058400024C2ADAF1FAE1EA22492AD22AD07AC069E
:10585000113DC3EF9DEE9C4008EF9DFFEE9CFE8046
:1058600013EDF4FDECF4FCED2401FDE43CFCED2F24
:10587000FFEC3EFE221244CE500411864003301449
:1058800003D38001C322E5F754E024FF22AF13EFD6
:10589000C36001D322EFC3940E5005900A4DEFF080
:1058A00022E516540FFF22E516C394F0501F53163D
:1058B000F011D0FE740FC39F4005EE940E400543D7
:1058C000160D8003EF4216E516540FFF227F0022CB
:1058D000E516C4540FFEEF9031AF932E2211D0FF86
:1058E000C3940E40027F0DEF90319193FF22EF3071
:1058F000E30D74512DF582E4340AF583E0FF227440
:10590000642DF1BAFD201504EE30E00BE516C394CA
:10591000F0502031368018E5186006FDE4F5188057
:1059200012E516C394F0500BE516540FFF600411F6
:10593000DDAD07AF0522900A4DE0FDFFC3740E9F59
:10594000FFE49400FEEFC4F8540FC868FFEEC4549F
:10595000F048FEE51654F031637F005002AF052297
:1059600033FEE0C39FEE6480F874809822431401F4
:105970005314DF900C0CE0FD11EE900C0CE0FDF1E7
:105980006D4004E4F5132243FA045314FB3025045C
:1059900031BC800A7F5531A07F5531A0D2EBD32294
:1059A00075FF01E5D520E602C322E5FA540360FA4B
:1059B00075FF018FC3D322515143FA04E4F5FF531D
:1059C000D1FD43D10122AF82AE837D01900BA5EEC4
:1059D000F0A3F195E51370781244C65005C2321257
:1059E0004F33900BA5E0FEA3E08E11F512A3122514
:1059F000AC900A4E1225CCAE11AF127DAAF14CE448
:105A0000F5FF75D901F510E5145421602BE514302C
:105A1000E504E4FF5151E4900BAAF0900BAAE004D6
:105A2000F0124CCDEF6009900BAAE0C3941040EB4C
:105A30007F02121DF95314DEF1225005E004FF80AD
:105A4000027F0031B7D232124F33D2EBA21392ED64
:105A50002275FF01E5D530E602C322E4F5FF439A43
:105A600080EFF1B2E4F5FF539A7FD322F111E5D133
:105A700020E0FBE4F5FF75D901F1225005E004FFB9
:105A800080027F0031B7D232124F33E4F51022C0CA
:105A9000E0C0F0C083C082C0D075D008C0FF75FFE1
:105AA00001E5D530E6047F028009E5D57F0030E7C7
:105AB000027F018F17E517640260026151E513123E
:105AC00026D95ADB015AEE025B3C085AF9095B04FD
:105AD0000A5B120B5B310C00005C9F75FF0175C304
:105AE000551519E5196002819F751302819F75FF95
:105AF0000175C3F0751309819F75FF0175C3557555
:105B0000130A819F75FF01900A62E0F5C375130BBC
:105B1000819F75FF01900A4BE0F5C375130175195C
:105B200008900A75F1A245F06002819F75130C81FF
:105B30009F9040C57406F0751300819FC2EB7513EA
:105B400000431404F1E594FF4002819F123F8A81D3
:105B50009FE51764016002819FF19B4002819FE5F0
:105B600010702291B3E0FF64556004EFB4540B75DC
:105B7000100575FF0075D901819F75100275FF0032
:105B800075D908819FE5106402704975FF01F5EA37
:105B900075EAFF900A4E1225ACE5D9122095126CD9
:105BA000231260D9900A4AEFF091D6E090072CF0CA
:105BB000E0FFD394094006EFD394AA400491BA8041
:105BC0006990072CE0F51591C375FF008515D9750F
:105BD0001003819FE5106405701F91B3A3E0FF904F
:105BE0001220E0FEEF6E700C900A4904F091C3E0C1
:105BF000FF1219A87510008031E51064036002815E
:105C00009F900A4E125758F1CFFAEF12209591BA91
:105C100075FF00E5D330E016C3900A5DE094FF9075
:105C20000A5CE094FF5003123F8A516C8071C232CB
:105C3000124F3375FF00F119E5D120E0FBC2EB43B1
:105C4000140291B3A3E0FF901223E0FEEF6E91B235
:105C5000E090122291ACA3A3E090122491ACA3A3F4
:105C6000A3E0FE901225E0FDEE6D4F6012C3900A96
:105C70005FE094FF900A5EE094FF5003123F8AC3F6
:105C8000900A59E094FF900A58E094FF5003123FA5
:105C90008A751000151591D6E515F0900777F0D0AC
:105CA000FFD0D0D082D083D0F0D0E032FEE0FDEE45
:105CB0006D4FFF85128285118322301405C21412A4
:105CC0004BEF2291CB901221EFF022E5F454181300
:105CD0001313541FFF22E5122407F582E43511F552
:105CE0008322904034125704EBF090403A7401F054
:105CF000C231124F83124EFA5005E5FC20E6F6B190
:105D0000FABF0108E4F5FC75FC408007B1FABF0258
:105D100002D322124FE8904035E0FF126BF975FF75
:105D20000153D5DF53FAFB904034E0FF51519040CE
:105D300035E0904034B4080DE01246322452124A45
:105D40001E3CFC8005E0124632FF1267849040360C
:105D5000E0FFF18F75FF0175FF03759B04124F8300
:105D600075FC42E5FC20E105124EFA40F390403705
:105D7000E0F075FF03E59B20E705124EFA40F3E5DE
:105D80009B20E70D75FF03759B1F124FC5D2318015
:105D90004EB1F3D1D0904035E0FD90120FE05D7030
:105DA0001D904034E0FFB1F3126A5490120FE0FFEF
:105DB000904035E0FEEF4E90120FF0124765124E04
:105DC000687B017A407938F136500FC3904039E052
:105DD0009420904038E0940340E7B1F31267C0127A
:105DE0004D8530310281EA90403AE0B40103D3801E
:105DF00001C3227B017A40793A227FFA124BE4E513
:105E0000FC30E605124EFA40F6E5FC30E6037F036F
