:020000040000FA
:1018000002184E026FF919A37FB8822D1C1613110E
:1018100010100002701D5A2D5761766520362E314A
:02182000300096
:07182300026A961A341A391B
:10182B0002508AEF90183793901900730A20364CA8
:10183B00E577FF22EFF5772243CB401641701BB5BE
:10184B00025A4C75819F75FF03759E021219200277
:10185B0033A90230229029F3E47E019360F4A3FFB5
:10186B00543F30E509541FFEE493A360010ECF549F
:10187B00E0B4E00EEFFAEEF9A3A3A3A3DAFDD9FBD4
:10188B0080D654C025E0604B5026E493A3F8540750
:10189B00240CC8C333C4540F4420C8834004F456EB
:1018AB00800146F6DFE480B001020408102040807E
:1018BB00E493A3FAE493A3F8E493A3C8C582C8CA3C
:1018CB00C583CAF0A3C8C582C8CAC583CADFE9DE0F
:1018DB00E78085E493A3F8E493A34003F68001F239
:1018EB0008DFF40218631958195D196C1971197610
:0418FB001CB41CB944
:10190000C0777419C0E0C082C08375770AE5FF54C0
:10191000CF4490F5FF22C0777419C0E0C082C08325
:10192000757720E5FF54CF4490F5FF22C0777419F6
:10193000C0E0C082C083757736E5FF54CF44A0F580
:10194000FF22C0777419C0E0C082C08375774CE570
:10195000FF54CF44B0F5FF229081AA21169081BE9A
:10196000211690C034211690C7E3211690D9BB21CF
:101970001690D9D321169083BA211690DA1B21161E
:101980009095E3211690DA7C211690DE7F21169047
:10199000A5C0211690E063211690E07F211690E00B
:1019A000DC211690CC94211690CBB3211690E0DF69
:1019B000211690AEC4211690E117211690F018213F
:1019C0001690F031211690CF4E211690AFAD211612
:1019D00090CF40211690EF25211690F07621169099
:1019E000F093211690CD20211690E22D211690E142
:1019F000A0211690F172211690F210211690E27536
:101A0000211690C17F211690C736211690D15621FC
:101A10001690F64A211690F684211690F762211648
:101A200090F796211690F7E2211690F87121169002
:101A3000F82A211690CC862116908E59211690D91D
:101A40002D21169081F321169097BC211690F8F461
:101A5000211690F91E211690F2B2211690F6FE2161
:101A60001690F33E211690F704211690D2182116F5
:101A700090F29A211690D20B211690F2CF21169057
:101A8000F748211690F95A211690F2C0211690F9C4
:101A90007A211690FA2D211690F679211690FA8E59
:101AA000211690F6DA211690FA9E211690FA2E2130
:101AB0001690F5F4211690F366211690FA9F2116E0
:101AC00090FB0C211690E840211690BA58211690F0
:101AD000BD1D211690F414211690F439211690D7CB
:101AE0009E211690D257211690F550211690D2A320
:101AF000211690F473211690F4EC211690DA7621D9
:101B00001690FB12211690D84E211690D906211658
:101B100090D7DD21169098DB211690E43D21169098
:101B2000E2D1211690EF9A211690E9C9211690EE84
:101B3000C3211690DF1D211690EEF4211690EF2D93
:101B4000211690FD3E211690DD7F21169080972171
:101B5000169080FB2116908000211690815F21163F
:101B600090C93C2142909FAE214290CA742142907C
:101B7000CA77214290CAA6214290BF5E214290843A
:101B80006E214290BC84214290897321429080A2B0
:101B900021429081C2214290C373214290CC722194
:101BA0004290CD8F214290CD9F214290C867214223
:101BB0009092AD214290CDF5214290C46A2142908D
:101BC000CF9E214290853A214290D0A8214290D0C8
:101BD000B8214290B8BB214290ABC7214290CD04BE
:101BE000214290AB4A214290D0C5214290D0EA21B7
:101BF0004290D11D214290D175214290D2162142AE
:101C0000908923214290D286214290D49F214290F4
:101C100089E6214290D58B214290D6C3214290BAC9
:101C200021214290800021429080D4214290D6CA46
:101C3000214290D6DC214290D795214290D65B215B
:101C40004290C07F214290D2AB214290DA5E214285
:101C500090DA63214290DA74214290DA9121429025
:101C6000DAC3214290D8972142909F37214290A118
:101C7000E8214290D7E621429082002142909FDEE7
:101C8000214290AF7F214290DBD0214290DD5B2149
:101C9000429098D3214290DDF9214290DE512142B9
:101CA00090E056214290E023214290E07A21429038
:101CB000DCD1214290E0FB214290B7F0214290B06C
:101CC000FD2142908953214290B167214290C8A4DE
:101CD000214290B733214290C894214290C89C2160
:101CE0004290E154214290B8B3214290BA19214266
:101CF00090E180214290E19C214290C925214290AF
:101D0000B0F7214290D53B214290E1DF214290C9BA
:101D100028214290E1E5214290C92E214290D535FB
:101D20002142908BF0214290E2B52142908C7B21A0
:101D300042908AC7214290E3C0214290BC8F214249
:101D400090E47B214290E4D6214290D5D821429064
:101D50008993214290AB82214290EADD214290ACEE
:101D60001E214290AC17214290EAE721429089243B
:101D7000214290EB42214290DEDD214290B8E921E0
:101D80004290D7AF214290D6F5214290BCE5214246
:101D900090EB53214290EB56214290AF8621429026
:101DA000ECD62142909C6E2142909BEC214290996E
:101DB000A82142909BE6214290A8092142909D8350
:101DC000214290848A214290A14F2142909D42213C
:101DD00042909A642142909BDF212C909BE0212C21
:101DE00090A13F212C90A4C7212C90A4C8212C9015
:101DF0008044212C90A3C3212C90AE09212C90AFBC
:101E0000FC212C90B079212C90B09B212C90B0A873
:101E1000212C9089A8212C909493212C908B7C21AB
:101E20002C90B851212C908467212C90B90A212C38
:101E300090BD90212C90C091212C90C0A9212C9074
:101E4000A008212C90D069212C90CCDE212C90A1CF
:101E5000F1212C90D23A212C90D2F5212C90D37FD5
:101E6000212C908B7F212C90C8A8212C90D3C821A5
:101E70002C90D551212C90D5A4212C90D5B8212C73
:101E800090D608212C90D659212C90B7B3212C90B4
:101E9000D681212C90BC40212C90BC42212C90D981
:101EA00093212C90D9B1212C90893D212C9090B870
:101EB000212C90D8D0212C90BB10212C00E709F6C2
:101EC00008DFFA8046E709F208DFFA803E88828C54
:101ED00083E709F0A3DFFA8032E309F608DFFA802E
:101EE00078E309F208DFFA807088828C83E309F0D6
:101EF000A3DFFA806489828A83E0A3F608DFFA8090
:101F00005889828A83E0A3F208DFFA804C80D2806D
:101F1000FA80C680D4806980F28033801080A680E9
:101F2000EA809A80A880DA80E280CA803389828A37
:101F300083ECFAE493A3C8C582C8CCC583CCF0A3D4
:101F4000C8C582C8CCC583CCDFE9DEE7800D8982B5
:101F50008A83E493A3F608DFF9ECFAA9F0EDFB22FB
:101F600089828A83ECFAE0A3C8C582C8CCC583CC39
:101F7000F0A3C8C582C8CCC583CCDFEADEE880DB2D
:101F800089828A83E493A3F208DFF980CC88F0EF9A
:101F900060010E4E60C388F0ED2402B4040050B915
:101FA000F582EB2402B4040050AF23234582239032
:101FB0001F0D73BB010689828A83E0225002E7224B
:101FC000BBFE02E32289828A83E49322BB010B8950
:101FD000828A83F8E0C828F0E822500327C722BB92
:101FE000FE07F8E3C828F3E8228A838982E4932273
:101FF000BB010CE58229F582E5833AF583E02250A6
:1020000006E92582F8E622BBFE06E92582F8E222EF
:10201000E58229F582E5833AF583E49322BB010941
:1020200089828A83F8E028F022500327F722BBFE3A
:1020300005F8E328F3228A838982F8E4932822BBF7
:10204000010FF8E58229F582E5833AF583E028F06F
:10205000225009C58229F8E58226F622BBFE09C571
:102060008229F8E22582F222F8EA2583F583E993B2
:102070002822BB010689828A83F0225002F722BB04
:10208000FE01F322F8BB010DE58229F582E5833AD2
:10209000F583E8F0225006E92582C8F622BBFE054A
:1020A000E92582C8F222EF8DF0A4A8F0CF8CF0A42D
:1020B00028CE8DF0A42EFE22BC000BBE0029EF8D91
:1020C000F084FFADF022E4CCF875F008EF2FFFEEBE
:1020D00033FEEC33FCEE9DEC984005FCEE9DFE0FCC
:1020E000D5F0E9E4CEFD22EDF8F5F0EE8420D21C27
:1020F000FEADF075F008EF2FFFED33FD400798506F
:1021000006D5F0F222C398FD0FD5F0EA22C2D5EC35
:1021100030E709B2D5E4C39DFDE49CFCEE30E71541
:10212000B2D5E4C39FFFE49EFE1220B8C3E49DFD38
:10213000E49CFC80031220B830D507C3E49FFFE481
:102140009EFE22C5F0F8A3E028F0C5F0F8E5821560
:102150008270021583E038F022A3F8E0C5F025F084
:10216000F0E582158270021583E0C838F0E822BBE2
:10217000010A89828A83E0F5F0A3E022500687F005
:1021800009E71922BBFE07E3F5F009E3192289826A
:102190008A83E493F5F074019322BB0110E5822950
:1021A000F582E5833AF583E0F5F0A3E0225009E9F2
:1021B0002582F886F008E622BBFE0AE92582F8E2CD
:1021C000F5F008E222E5832AF583E993F5F0A3E927
:1021D0009322BB010DC58229C582C5833AC58302FE
:1021E00021435011C58229F808E5F026F618F5F0CC
:1021F000E58236F622BBFE11C58229F808E225F0F9
:10220000F5F0F218E23582F222F8E58229F582E54E
:10221000832AF58374019325F0F5F0E4933822BB0B
:10222000010A89828A83F0E5F0A3F0225006F709BB
:10223000A7F01922BBFE06F3E5F009F31922F8BB5B
:102240000111E58229F582E5833AF583E8F0E5F0AE
:10225000A3F0225009E92582C8F608A6F022BBFEA9
:1022600009E92582C8F2E5F008F222EF2BFFEE3AE9
:10227000FEED39FDEC38FC22C3EF9BFFEE9AFEED3C
:1022800099FDEC98FC22E88FF0A4CC8BF0A42CFCF8
:10229000E98EF0A42CFC8AF0EDA42CFCEA8EF0A4CC
:1022A000CDA8F08BF0A42DCC3825F0FDE98FF0A45B
:1022B0002CCD35F0FCEB8EF0A4FEA9F0EB8FF0A452
:1022C000CFC5F02ECD39FEE43CFCEAA42DCE35F08E
:1022D000FDE43CFC2275F008758200EF2FFFEE3321
:1022E000FECD33CDCC33CCC58233C5829BED9AEC89
:1022F00099E58298400CF582EE9BFEED9AFDEC99F3
:10230000FC0FD5F0D6E4CEFBE4CDFAE4CCF9A882FC
:1023100022B800C1B90059BA002DEC8BF084CFCEA1
:10232000CDFCE5F0CBF97818EF2FFFEE33FEED335F
:10233000FDEC33FCEB33FB10D703994004EB99FB26
:102340000FD8E5E4F9FA227818EF2FFFEE33FEED0F
:1023500033FDEC33FCC933C910D7059BE99A40071C
:10236000EC9BFCE99AF90FD8E0E4C9FAE4CCFB2233
:1023700075F010EF2FFFEE33FEED33FDCC33CCC8FC
:1023800033C810D7079BEC9AE899400AED9BFDEC07
:102390009AFCE899F80FD5F0DAE4CDFBE4CCFAE446
:1023A000C8F922EF5BFFEE5AFEED59FDEC58FC2216
:1023B000C3E49FFFE49EFEE49DFDE49CFC22EB9FB2
:1023C000F5F0EA9E42F0E99D42F0EC6480C864803A
:1023D0009845F022EB9FF5F0EA9E42F0E99D42F02D
:1023E000E89C45F022E8600FECC313FCED13FDEE12
:1023F00013FEEF13FFD8F122E8600FEFC333FFEEB7
:1024000033FEED33FDEC33FCD8F122BB01078982AA
:102410008A830224995005E9F8022943BBFE05E9A5
:10242000F802294F89828A830224A5BB010DE58227
:1024300029F582E5833AF5830224995007E925823C
:10244000F8022943BBFE07E92582F802294FE582FD
:1024500029F582E5833AF5830224A5BB0107898229
:102460008A830224F15005E9F8022985BBFE05E9BB
:10247000F802299122BB010DE58229F582E5833A14
:10248000F5830224F15007E92582F8022985BBFE75
:1024900007E92582F802299122E0FCA3E0FDA3E0F0
:1024A000FEA3E0FF22E493FC740193FD740293FE0B
:1024B000740393FF22E0F8A3E0F9A3E0FAA3E0FBA2
:1024C00022BB010DE58229F582E5833AF5830224DA
:1024D000B55007E92582F802295BBBFE07E9258292
:1024E000F8022968E58229F582E5833AF583022915
:1024F00075ECF0A3EDF0A3EEF0A3EFF022A8828537
:1025000083F0D083D08212251412251412251412C0
:102510002514E473E493A3C583C5F0C583C8C582BD
:10252000C8F0A3C583C5F0C583C8C582C822BB0156
:102530000789828A830224FD5005E9F802299DBBA0
:10254000FE05E9F80229B622BB010DE58229F582D4
:10255000E5833AF5830224FD5007E92582F8022934
:102560009DBBFE07E92582F80229B622F5F0C58257
:10257000A4C582C5F0C583A42583F58322A4258242
:10258000F582E5F03583F58322E0FBA3E0FAA3E0D2
:10259000F922F8E0FBA3A3E0F925F0F0E58215822B
:1025A00070021583E0FA38F022EBF0A3EAF0A3E919
:1025B000F022E493FB740193FA740293F922BB01B5
:1025C0000789828A830225895005E9F80229CFBB51
:1025D000FE05E9F80229E189828A830225B2BB015E
:1025E0001A89828A83D0F0D0E0F8D0E0F9D0E0FAFE
:1025F000D0E0FBE8C0E0C0F00225A95016E9F8D011
:1026000083D082D0E0F9D0E0FAD0E0FBC082C08372
:102610000229D8BBFE16E9F8D083D082D0E0F9D0E9
:10262000E0FAD0E0FBC082C0830229EA22BB010DA0
:10263000E58229F582E5833AF5830225895007E989
:102640002582F80229CFBBFE07E92582F80229E19D
:10265000E58229F582E5833AF5830225B2BB0120A4
:10266000E58229F582E5833AF583D0F0D0E0F8D011
:10267000E0F9D0E0FAD0E0FBE8C0E0C0F00225A924
:102680005018E92582F8D083D082D0E0F9D0E0FA62
:10269000D0E0FBC082C0830229D8BBFE18E92582A6
:1026A000F8D083D082D0E0F9D0E0FAD0E0FBC0824D
:1026B000C0830229EA22D083D082F8E49370127496
:1026C0000193700DA3A393F8740193F5828883E4BA
:1026D000737402936860EFA3A3A380DFD083D082DA
:1026E000E4937012740193700DA3A393F874019393
:1026F000F5828883E4737402936C70127403936D93
:10270000700C7404936E70067405936F60DDA3A360
:10271000A3A3A3A380CA8A838982E473E573258275
:10272000F582E5723583F583B572048582732210D4
:10273000AF06858273F57222858273F572D2AF225D
:10274000EC8EF0A4CCC5F0CCCDF8EFA4CEC5F02D26
:10275000FDE43CFCE8A42EC8C5F03DFDE43CFCEFE4
:10276000A4FFE5F028FEE43DFDE43CFC22E3F5F0A7
:1027700009E208B5F06BDFF58067E3F5F009E608DC
:10278000B5F05EDFF5805A87F009E608B5F052DF54
:10279000F6804E87F009E208B5F046DFF680428801
:1027A000828C8387F009E0A3B5F036DFF6803288AB
:1027B000828C8387F009E493A3B5F025DFF58021AF
:1027C00088828C83E3F5F009E0A3B5F014DFF5808F
:1027D0001088828C83E3F5F009E493A3B5F002DF5F
:1027E000F402289C808780E9809080D4803E801508
:1027F000806E807E809D80B7808D80A380518074A4
:10280000803C0228A889828A83ECFAE493F5F0A33D
:10281000C8C582C8CCC583CCE493A3C8C582C8CC44
:10282000C583CCB5F076DFE3DEE1807089828A83F0
:10283000E493F5F0A3E208B5F062DFF4805E8982EC
:102840008A83E0F5F0A3E608B5F051DFF5804D8905
:10285000828A83E0F5F0A3E208B5F040DFF5803C22
:1028600089828A83E493F5F0A3E608B5F02EDFF4BD
:10287000802A8002805789828A83ECFAE493F5F0FB
:10288000A3C8C582C8CCC583CCE0A3C8C582C8CCC8
:10289000C583CCB5F006DFE4DEE280007FFFB5F053
:1028A000020F2240027F012289828A83ECFAE0F53E
:1028B000F0A3C8C582C8CCC583CCE0A3C8C582C874
:1028C000CCC583CCB5F0D5DFE5DEE380CF89828A45
:1028D00083ECFAE0F5F0A3C8C582C8CCC583CCE48C
:1028E00093A3C8C582C8CCC583CCB5F0AFDFE4DE06
:1028F000E280A988F0EF60010E4E60ABED2402B4D7
:1029000004005098F582EB2402B40400508E232377
:102910004582239027E473EF4E6012EF60010EEDC5
:10292000BB010B89828A83F0A3DFFCDEFA2289F0E7
:102930005007F709DFFCA9F022BBFEFCF309DFFC1E
:10294000A9F022E6FC08E6FD08E6FE08E6FF22E222
:10295000FC08E2FD08E2FE08E2FF22E6FB08E6F9D9
:1029600008E6FA08E6CBF822E2FB08E2F908E2FA08
:1029700008E2CBF822E493F8740193F9740293FA15
:10298000740393FB22ECF608EDF608EEF608EFF67A
:1029900022ECF208EDF208EEF208EFF222D083D03A
:1029A00082E493F608740193F608740293F60874AF
:1029B0000393F6740473D083D082E493F208740115
:1029C00093F208740293F208740393F2740473E6AA
:1029D000FB08E6FA08E6F922EBF608EAF608E9F65B
:1029E00022E2FB08E2FA08E2F922EBF208EAF20836
:1029F000E9F2224103C1004103C000E002020000ED
:102A000014B5E002020002120FE00102000954E0D6
:102A10000102000AA5E00102120B00E00502120CFF
:102A2000120F02060A4106B1060114004106B00168
:102A30004106AE01C114011900011700C12B413E2E
:102A40002300413E1800413E2100413E2200413E0C
:102A50001FFF413CEB00C117C102412B2400412B59
:102A6000B2FF412BA900C100412BB300412BB400A0
:102A7000412BAA01C105412B230041447800C137F5
:102A8000433A85000000413A8400413A88004303FC
:102A9000B70000004303B40103B7422E4298074336
:102AA00041C70000004341C40141C7E002021211C6
:102AB00001B0E00102121300E00102129400E005EF
:102AC0000213BC01B006060A4143A00241439F0D18
:102AD0004143A108602035B442DB01000000000042
:102AE00000000000000000000000000000000000E6
:102AF0000000000000000000602035D40900000044
:102B000000000000000000000000000000000000C5
:102B10000000000000000000000000005038F70036
:102B2000000000000000000000000000000000C1E4
:102B30000E015000C10BC10C41431505C118C11A4B
:102B4000C11F42238C984041238E0043362700004A
:102B50000042362500006020234B000000000000EA
:102B60000000000000000000000000000000000065
:102B7000000000000000000000004320009F010052
:102B800050200300000000000000000000000000D2
:102B90000000016127260E000201050101020E0658
:102BA00001010004070401020300000400060805F7
:102BB00004020803140400040014050108090805B0
:102BC000020803140500040014050006001408029E
:102BD000020A0A08020301000800040014080006A3
:102BE000001408010800140A020D000A0A020C0071
:102BF0000A0A02080B0A0A01050C0E0A0004001456
:102C00000A000600140A010800140E000A0D110E35
:102C1000020804140E000400140E000600140E0135
:102C20000800140E010500140E020F0E1211000C04
:102C30000C0E110208041411000400141100060007
:102C4000141101080014110105001411000A0014E8
:102C50001102050E12120208041412020C0F0012C7
:102C600000040014120006001412010800141201DE
:102C700005001412000A0014120205001412000CC0
:102C8000001413020C0100000209000000021000F1
:102C900000140209010014020B00131400071000B5
:102CA00014020A0100140204001414020C0014148B
:102CB000020D010014020E00141402100100602421
:102CC000281E0200FFFF0602FF000602FF000301AC
:102CD000FF002300FFFF03000000130000000200BC
:102CE00001010300000046277501000201040242B1
:102CF00027FB1D5941288200412A300141288800C4
:102D0000432885012843432879012843410B0F00BC
:102D1000602009B7EDFFFFFFFFFFFFFFFFFFFFFF91
:102D2000FFFFFFFFFFFFFFFFFFFFFFFFFFFFFFFFB3
:102D3000FFFFFF7F4F3174FF31B70FFF31C601FF37
:102D400031C7090310015C314F1001FF31D007FF7B
:102D500031D701FF31D8051001FF31D007FF31D73E
:102D600001FF31D80543316B0200004631475A015B
:102D70002003250346316E20032503600D602E31AC
:102D8000170000000000000000000000000000002C
:102D90000000000000000000000000000000000033
:102DA00000000000000000000000000000000048DB
:102DB0003183070007000700070042314500014248
:102DC000318B200142318F200241318E004131167A
:102DD00001C13B42311100004231130000E0020208
:102DE00013C100E0E00502149C00E0040405E002C9
:102DF0000214A10013E00C0214A30000030200035C
:102E000000020405060AE0050214AF0013FF0405E2
:102E1000E0020214B40000433D02000000423D09FC
:102E20000000443D0507102232463CFC40464A4E15
:102E30005256C12141395800413955004243FA00E8
:102E4000004143F900C14243357000000041353173
:102E500000412C3601423A340000413A2B00453FF4
:102E6000330000000000453F2E0000000000413EFE
:102E7000C700413EC300413EBD00413EC600413E49
:102E8000BE00413FC200413FC10044435B0000001F
:102E900000413990005B3974000000000000000020
:102EA0000000000000000000000000000000000022
:102EB000000000413973FFC14C4137BF0050371A41
:102EC0000000000000000000000000000000000002
:102ED00045372A000102048047373A00000000000D
:102EE0000000433737000000413E8500413E8B0023
:102EF000413E8A00423E860000413E8F00413E8EA8
:102F000000423E8C0000423E880000413E84004169
:102F1000388A00C1514C3E901000000000001100A2
:102F200000000000C1544109F320C15600726573CE
:102F300065740063736100476F7420697421006CCD
:102F40006D73006C6D6500776472005A57005A57B4
:102F5000206170703A0D0A00204669726D776172C7
:102F6000652049443A20000D0A2056657273696F46
:102F70006E3A2000547970652027612063736120C8
:102F80003C3130206469676974206B65793E272085
:102F9000616E6420707265737320456E7465722E65
:102FA000003E20001E211E26C2D5E830E70FB2D514
:102FB000E4C39BFBE49AFAE499F9E498F8EC30E76F
:102FC00017B2D5122FDE122311E4C39BFBE49AFA49
:102FD000E499F9E498F8800312231130D50DE4C385
:102FE0009FFFE49EFEE49DFDE49CFC22789FE4F6B6
:102FF000D8FD9000007F007E10E4F0A3DFFCDEFA35
:103000009044ACA3E583C394204011FEAF8290208E
:10301000000E0FE48002F0A3DFFCDEFA121920029A
:10302000186022325A43425F746573745F696E742C
:103030006572666163655F706F6C6C000D0A436852
:10304000616E6E656C73206172653A000D0A09202D
:103050003E001EB741707045765363686564756CB9
:103060006572001E4E1E530000010000000017068E
:10307000000000001806000000061806000000010D
:1030800018060000000818060000000101010000F9
:1030900000011500000000010204000000010B0403
:1030A000000000060B04000000080B0400000001F3
:1030B0000D00000000010E040000000110000000DF
:1030C00000010F00000000040501000000040606D6
:1030D00000000004070800000002050000000003D3
:1030E00005010000000108050000000008000000C4
:1030F00000010C010000000112050000000803029D
:10310000000000012200000000081608000000086E
:103110000800000000011601000000061601000072
:1031200000050903000000050A0000000005030275
:10313000000000050400000000061B06000000015E
:103140001B06000000061C07000000061D0700000B
:1031500000070508000000081E0700000008200006
:10316000000000081F000000000821000000000807
:1031700011060000000111060000000822000000F6
:1031800000061906000000061E00000000062000D0
:10319000000000061A0800000006140100000007E5
:1031A0001401000000081B060000000724000000B6
:1031B000000814010000005E25858E605955867256
:1031C0005A73989F6C7A5E8625858E59725A607AFA
:1031D0005E252085598E605E2585598E601DF91DFE
:1031E000FE00011E031E081E0D555555555555551B
:1031F000555555555555555533333333333333338F
:1032000033333333333333338888888888888888E6
:10321000888888888888883F241E16110E0B090725
:103220000504030201F0C8A791776760463835327C
:1032300030242220140001010202030304040505C6
:103240000606070700000000000000000000000064
:10325000000000000000000000000000000000006E
:103260000000008788888888888888888888888877
:1032700088888826262626262626262626262626C8
:10328000262626000DFA20000DDC7000000000024A
:103290000C00013F3F3F0404044040400000000098
:1032A0004C6966656C696E6500496E76616C69642F
:1032B0002067726F75700019BC19C119C619CB1936
:1032C000D519E919EE19F31D721D7C1D811D861D8E
:1032D0008B1D901D951D9F1C3C1C4B1C501C551C90
:1032E0005A1E711E761E7B1E801E851A7A1A7F1A40
:1032F000B61C8C1C961CAF1E2B1E301E351E581E75
:103300005D1E621E671E6C1E8A1E8F1E941E991EF5
:103310009E1EA3FF02011BC91D685A01200325033D
:1033200051D0E4FD7C0CAB050DEB901816938F8209
:103330008E83F00FBF00010EDCEC7F03228F828EA4
:1033400083E4F0A37406715F740A715FA3E4F0EF85
:103350002404F582E43EF583E4F0A3746DF022F0DA
:103360008F828E83A3A322AD07901217E054FCF046
:10337000E0FFED54307E0060027E02EF4E901217A7
:10338000F0E0FFED7E0030E0027E01EF4E9012177C
:10339000F0229003C97402F09003C0E0FF121DE018
:1033A00071679003C97405F02275FF0275E404E4A7
:1033B000F5E4F1E0C330E001D34017E5E630E01278
:1033C000901217E0540C600A121BF1901217E0548F
:1033D000F7F0C213F1E030E039E5E6540364017020
:1033E00031121A20126131401F90123FE0600BE051
:1033F00014F07006122FECD1F2F0901215E020E0DC
:103400000281A412488081A4122FECD213D1F2F0D1
:1034100081A4122FEC1263C59003C2EFF09012004A
:10342000E0B47A14901214E0B49C0D9003C2E0FF53
:1034300064056004EFB40330E49003C8F09003C85F
:10344000E0FFC394805013E42FF582E43412F58337
:10345000E4F09003C8E004F080E3901200747AF086
:10346000901214749CF0D20F121C194003121C14F9
:103470007B017A1279107D017F01121C0F7B017A8A
:103480001279117D017F21121C0F7B017A127912B2
:103490007D017F22121C0F7B017A1279297D017F29
:1034A00002121C0F901229E0B401057F01126A81FB
:1034B000121A251263C5121A1B9003C2EFF01219DB
:1034C00099121A169003C2E0FFB40602800C301362
:1034D000047F0280059003C2E0FF121DDBEF24FF92
:1034E000B3923775FF0253E6BF123F2D6003D1F24E
:1034F000F0125067121A2F12382C300F0A7B017A03
:1035000012792B7D10F16C121A6B901215E0C330FA
:10351000E001D3400E20370B71927B017A2B79BBEF
:103520001219DA90122AE030E00280033013047F8F
:1035300001F127D2AF203702A1BD121C32124497ED
:10354000121DE5121C0A40F29003C1E06042121AFB
:103550004DEF700712532694004035E51470FCE5DA
:103560001520E502F143121B6AEF70FAF1015004D5
:10357000F11350057F01123CC99003C1E0B402046D
:10358000E4FF80099003C1E0B403057F0112488580
:10359000121A43E51530E1A21260B14002E4F0E5F1
:1035A0001520E505D1D412593F127292C0E0D1E244
:1035B0009003C4E0FDD0E0FF12198FA13A1250062B
:1035C0001248A950031248C2D1F9EF70069003C106
:1035D000E06053902B24E0704D121A4DEF700712EB
:1035E000532694004040E51470FCE51520E502F1F7
:1035F00043121CA0121B6AEF70FAF1015004F11380
:1036000050057F01123CC99003C1E07011D1F9EF60
:10361000600C12381D901217E04408F080089003E7
:10362000C1E0FF121BEC121C32124497121BFBF17B
:10363000F7123805EF7022F1E8EF6005121BF180F8
:1036400036D1F9EF7031126360EF702B124780EFC3
:1036500064017023123816801E901217E020E217C2
:10366000F1E8EF600DF1015004F1135005E4FF1291
:103670003CC9E49003C7F0201005121A43802212BF
:1036800052EE9003BAE0FEEFC39E4005EF9EFF802E
:10369000089003BAE0F4042FFF7406D39F5002C2CF
:1036A00010E51530E1231260B14002E4F0E5152089
:1036B000E505D1D412593F127292C0E0D1E29003D5
:1036C000C4E0FDD0E0FF12198F121BBA121A571274
:1036D0005052A1BD9003C3E0FD75F0AA9003CD1236
:1036E000257DED75F002A424BCF9740335F0FA7B56
:1036F0000122901215E054FE22F1F0B401027F0184
:1037000022900001740193B40007E493B41802C33B
:1037100022D3227F017E009017FCE4935EFE7401A9
:10372000935F4E24FFB322EF600DD1D4AF82AE83FE
:10373000E4FD1259458009121A52F143E433FF2285
:103740007F0122E51470231256805005C2331259AE
:10375000E3F1BC127234E5D120E0FB431520531590
:10376000FEE4F510A21292EDD322C322900AAC120D
:1037700025A9900AAFEDF0E4A3F0ED54FE900AAF56
:10378000F0602FE4FFF127BF0128900AAC122589D1
:10379000124913501D900AADE475F00212214390B6
:1037A0000AB0E02402F0900AB0E0FF900AAFE06FA8
:1037B00070D87F01F127900AB0E0FF22F1C37F08A3
:1037C000021DD6E5FA30E1FB75FC8075FF0153D58B
:1037D000EFE4F5FC75FC40125FE2E5FC20E6FB221D
:1037E00075FF02901215E022F1F0B402027F01226F
:1037F0009003C7E07F00229003C7E0FF121DEA900C
:1038000003CCEFF0229003CCE07F0070027F012216
:10381000E49003C7F0229003C77401F0229003C71D
:103820007402F0221237F070027F0122B127121ABF
:103830003E121B0B121994121C37F12D7002210D30
:103840007FFF121AC5900A731225A97E007F0931E5
:1038500063BF540D7E007F0A3163BFA5047F0180E2
:10386000027F009003C0EFF0900A73122589E94AA5
:103870004B701D7F04FE3163EF2401FFE433FEC370
:10388000740112566F7F0050027F019003C0EFF069
:103890009003C0E06401704C900A73122589F1888E
:1038A0007A0A7979F164900A79E0FEA3E0900A73CC
:1038B0001272F3F9E43AFA900A761225A9E924087B
:1038C000F9E43AFEAF017B017A0A7979F164900A52
:1038D00079E064047004A3E064056008121ACA90D9
:1038E00003C0EFF09003C0E0701B7E007F04C006B1
:1038F000C374B59404FE7414127166D006F1EBE43F
:10390000FFFE121ACF9003C0E0FF121AF2F12D7FD2
:103910000060027F011219FD121A07121962127259
:10392000157923121B6FF1E3FE4FFDA3E0FC4DFD63
:10393000A3E0FB4D600BEE5FFFEC5FFFEB5FF4700D
:10394000031248C2901221E0FF901225E06F90030D
:10395000BBF0021C0575F011A4240BF9740035F0BE
:10396000FEAF01E4FCFD9042591224F1D1E351482D
:10397000EF6004D1F280F7D1D46402600A9042591A
:10398000122499781031A590425931A0904259F1F2
:103990001B513C90425DEFF071E090425DE0FF22F0
:1039A00012249978081223E5E4E5C820E2FB8FEBA6
:1039B000227F0171E49044717401F0904471E060E1
:1039C0002EF121513C904471EFF07163512B903CEA
:1039D000DFEFF07163904471E05401F1A660DCA365
:1039E000E0F460D7EF30E7D3E4904471F080CC513D
:1039F0008B7F9F31A9513C903CE0513A903CE5517E
:103A00003A903CE6EFF071E0903CDEE0F4601BA3FE
:103A1000E0F46016903CE5E0FD541F240FA3F0EDA8
:103A2000C41354074480903CE5F022518B7FD7317A
:103A3000A97FFF31A95140903CDEEFF07FFF31A913
:103A4000E5C820E2FBAFEB227F0171E4303514F1D1
:103A500021513C904472EFF07163904472E020E099
:103A600002C235303517512B903CDFEFF1A6600BC9
:103A7000A3E0F46006EF30E702C2357163E4FF7142
:103A8000E4A235E433FF227F0171E4903CE3E012CD
:103A900026B63AAE043AB6143ABB153AC0173AD035
:103AA000303AD5343ADA363ADF3700003AC8536C48
:103AB000EF856C80802F536DEF8008536DDF80039E
:103AC000536D7F856D90801D536EDF856EA08015D0
:103AD000536FFE800D536FEF8008536FBF80035309
:103AE0006F7F856FB07F0CDFFE22903F4C1224F178
:103AF000903F501225A9D1E35148EF6004D1F280E4
:103B0000F77157F144D1DC6402600A903F4C1224F3
:103B100099781031A5903F4C31A0903F4C122499D8
:103B2000E48027903F53F18F45F06022903F501280
:103B30002589E94A6012121FB3FF31A9903F51E471
:103B400075F00112214380DBE4FF31A980D571E0DB
:103B5000903CE27401F0227F0171E4D235518B7FF9
:103B60000631A9F1D6EF70FB903CE5E0F4600A90D5
:103B700044707406F0F13C70FC903CE3E01226B611
:103B80003B9C043BA4143BA9153BAE173BBE303B0A
:103B9000C3343BC8363BCD3700003BB6436C108581
:103BA0006C80802F436D108008436D208003436D2F
:103BB00080856D90801D436E20856EA08015436FBB
:103BC00001800D436F108008436F408003436F8076
:103BD000856FB0904470740CF0F13C70FC2231A9F8
:103BE0007163E4FFEFB4010443FE202253FEDF22A1
:103BF00090425E1224F190425E1224993166904206
:103C000062E06F6038D1E35148EF6004D1F280F791
:103C10007157F144D1DC6402600A90425E1224992B
:103C2000781031A590425E31A090425EF11B904227
:103C300062E0FF71DE903CE27401F0D322C322D136
:103C4000E35148EF6004D1F280F77157518B7F0147
:103C500031A97F0331A97163E4FF8088903F551239
:103C600024F1903F591225A9D1E35148EF6004D1C6
:103C7000F280F7D1D46402600A903F5512249978FB
:103C80001031A5903F5531A0903F55F11B903F5CFE
:103C9000F18F45F06013513C903F59F197903F5A96
:103CA000E475F00112214380E47163E4FF61E49064
:103CB0003CDEE020E01251877F3D31A97F2A31A907
:103CC0007F8031A97FA671DE2290442AEFF0E4A321
:103CD000F0903CECE0FFB40209740FF13474B9F0D9
:103CE000800CEF6404703F743DF1347479F05187B7
:103CF00090442AE06007903CEBE0FF80027FAB310C
:103D0000A9716390442AE0903CEBF0701590442B2D
:103D1000E0D39400400C7FFF31A990442BE014F0D5
:103D200080EBE4FF71E4227B017A3C79E37F03F1CD
:103D30009E7A3C79EC7F08F19E7A3C79E97D027F9E
:103D400009121C0F7B017A3C79E77D027F0B121C64
:103D50000F903CE7E0FEA3E0FF4E6006BEFF16BFFB
:103D6000FF13F1AE50028004F1B78009903CE7E404
:103D7000F0A37440F0F1AE50028008903CE474036C
:103D8000F08006903CE47402F0903CE3E01226B62A
:103D90003DAC043DB7143DBF153DC7173DDD303D7B
:103DA000E5343DED363DF53700003DD275FF01535A
:103DB00068EF8568FD804775FF015369EF800E75D8
:103DC000FF015369DF800675FF0153697F8569C96B
:103DD000802C75FF01536ADF856ACA802175FF0157
:103DE000536BFE801675FF01536BEF800E75FF015C
:103DF000536BBF800675FF01536B7F856BCB71637F
:103E00007F11F127E4FF91C931B1903CE17402F0D8
:103E1000903CE5E0247F6009047015F14C740A8041
:103E20000691AFF14C7458F0903CE47403F0F1B794
:103E3000903CE6E0F46002C1D2903CE9E0FEA3E0F1
:103E4000FF64104E7006903CE6740EF0EF64204E56
:103E50007006903CE6740FF0EF64404E7006903CA4
:103E6000E67410F0EF64804E7006903CE67411F03A
:103E7000E4B5070AEEB40106903CE67412F0E4B52E
:103E8000070AEEB40206903CE67413F0E4B5070AA4
:103E9000EEB40406903CE67414F0E4B5070AEEB400
:103EA0000806903CE67415F0E4B5070AEEB4100677
:103EB000903CE67416F0E4B5070AEEB42006903C98
:103EC000E67417F0E4B5070AEEB44006903CE674D9
:103ED00018F0813F7F0171E4518B7F0331A9903C41
:103EE000E4E02275FF02E5E430E10675E40675E4DE
:103EF0000322E51530E20FE51520E50AE51530E06F
:103F0000057F01123727227E127F0BE4FDF1C6D117
:103F1000E35148EF6004D1F280F722122499E421A2
:103F2000A9518B7F0521A9EF4420F5FE229003C201
:103F3000E064012290442BF0903CEB22904470E02E
:103F400014F0E022518B903CE1E0FF227F10F1273A
:103F5000903CE122903A9D122589AE02AF017B018F
:103F60007A3A79AC9041A57402F09041A21225A949
:103F7000E4FCFDC0079041A21225899041A5E09084
:103F80003F5CF1DCD007815CAE02AF017B012274A3
:103F9000FFF5F0022159FF122589EF0220727D0101
:103FA000121C0F7B0122F0903CDEE0FFF422903CDB
:103FB000ECE024FE24FD22903CE77401F0A3E4F041
:103FC00022FEAF01E4FDAB05E4FCFD904262EBF0A4
:103FD00061F0E4FF61E4E5C85404FF22FFE4F0A3CC
:103FE000EFF022901223E0FFA3E022126D7774FF1E
:103FF000FDFC2275FF0275E40475E40175E40222FC
:1040000075FF0275E404E4F5E4221252EE9003CA4F
:10401000EEF0A3EFF022126343EF70087FA07E0F53
:10402000FDFC01B712637A903E19EFF07406D39F3E
:104030004067E0605A31317E00903E19E014FDE5A2
:10404000F0A805088005C333CE33CED8F9FF312A56
:104050003116903E1A1224B5C000C001C002C00340
:10406000903E19E014FF74107E00A807088005C375
:1040700033CE33CED8F9FFEE3395E0FDFC3122127A
:104080002286D003D002D001D00012226B802831CA
:1040900031AFF07E00312A801E903E21E0FF600F9C
:1040A000E4FCFDFEFB7AF47901F812228680087F99
:1040B000007ED07D077C00311631447E417F70C088
:1040C00006C007310ED17ED007D006715E12635450
:1040D000EF703A311CD31223D44007E47F01FEFD78
:1040E0008022311C1223113116310EE47B01D1C123
:1040F0005014310EC3EF9401FFEE9400FEED9400D6
:10410000FDEC94003115310E121BF6110A22903E7F
:104110001A022499FDFC903E1A0224F1903E1A12D4
:104120002499E47BE87A03F9F8227C007D64022775
:10413000403139EF75F0A084229003BBE064AA24DB
:1041400011FFF022D1CFEF600FE47FA07E0F31147A
:10415000901217E054E7F022901217E0FF74E0D3BA
:104160009F4005E02410F022EF6410901217F02217
:104170009154903E1EE0B4020AD1C8903E1E7403D2
:10418000F0410E903E1EE064037069903E20E060B6
:1041900056903E22E0B40105121BDD800A903E22BB
:1041A000E0B40203121BE2903E20E014F0E0601F36
:1041B0003139EF75F04684E5F075F064A4FFEF2423
:1041C000A0FFE5F0340FFEE433FDE433FC8007E4A8
:1041D0007FA07E0FFDFC90400A1224F17E417F708B
:1041E000E490400EF0615E903E1E7401F0510E7F2F
:1041F000FD021DF4903E1EE0B4040FD1CFEF600726
:1042000012716FE4FF0116121BDD227401F0903E63
:104210001EE0640270227C437DCB7F011219F8E41A
:10422000FBFAFD7FFF1219E47E417F70C006C007D4
:10423000D177D007D006615E903E1EE06403701710
:10424000FFFE3114903E22E07C437DCBB402047F1C
:104250000380117F02800D903E1EE0B4040B7C436E
:104260007DCB7F041219F82170903E1EE0B4010B43
:10427000D1C891547156E4903E1EF02290446EEFE6
:10428000F0C22B901221E060207E127F0B12396366
:10429000BF01087FFF121DF47F0022903E1EE060E8
:1042A00008901221E0FF121DF4123F0790446EE0C7
:1042B00070026136E4903E22F0903E1EE0600251B2
:1042C0000B90446EE0FFB40107903E227401800918
:1042D000EFB40310903E227402F07156903E2074A9
:1042E00004F0804AEF64047037901221E07020D20D
:1042F0002BD15CEF7011715612633B7E127F0B7DE8
:1043000001123FC6123F0F903E1E7404F0803A9097
:1043100003C2E0B40505E4F0121BD871567F0022F9
:1043200090446EE064027021903E20F07156903E01
:104330001E7402F08013E4903E22F0D15CEF600323
:10434000123F07903E1E7401F0510E903E1EE07F1A
:104350000060027F0122901217E05403F022716680
:10436000903E23EFF022904008EEF0A3EFF07FFFA5
:10437000A31224B5E8494A4B605090400F7403F0F3
:1043800090400FE0FEC3940E5040EE9189E07032F1
:1043900090400F91877405F0C00790400A1224994D
:1043A0009040031224F190400EE0904007F09040BE
:1043B00008E0FCA3E0FDD007B17190400FE004FFDE
:1043C000800890400FE004F080B622904428EFF07F
:1043D000A3EDF09154904428E0B40112A3E0903E84
:1043E0001FF07156903E1E7405F07FFE805F904472
:1043F00028E064027022903E22E064027055903EF4
:1044000019F0903E1E7403F07E417F70C006C00715
:10441000D177D007D006615E904428E07035121A3B
:104420005CEF6401602A302B14121E17EF600C122F
:104430001A5CEF600690442974FFF0C22B123F070C
:10444000903E1EE06002510B904429E0FF021DF4F3
:10445000121A6622903E23E0FF9161E4903E23F021
:1044600022AB07E4FF1BEBC3940E501AD168122451
:10447000FD00000000EBB1531224FD00000000EB32
:104480009189E4F07F0122E0FF75F00CA42487F508
:1044900082E4342DF58322D3900001E09400900053
:1044A00000E094005002A150C2ADE0FFA3E09044B0
:1044B00026127418900000F0A3F0D2ADF575E575E2
:1044C0009189E06075904426D1BAFCFDB151122467
:1044D000B5D31223D45042B161E0FF6008F4600507
:1044E000B161E014F0B161E0600EE575D1691224AC
:1044F00099B1511224F1800FE5759189E4F0B15121
:104500001224FD00000000D18A4E6008D18AAA065C
:10451000F9122716123EF28021B151C083C08212D7
:104520002499C006C007904426D1DAF8D007D006F7
:10453000122278D082D0831224F10575E575C394D8
:104540000E500281BE904426E0FEA3E0FF121B063F
:1045500022E57575F00CA4247CF582E4342DF583F6
:1045600022E57575F00CA42486F582E4342DF583DC
:1045700022904001ECF0A3EDF0904000EFF0FB90B2
:104580004003122499D1681224F1EBB1531224F1A3
:10459000EBB153C083C0821224B5900000D1BAFCA5
:1045A000FD12226BD082D0831224F1904007E0FFED
:1045B000904000E0FEB163EFF0904001E0FCA3E02A
:1045C000FDEE75F00CA42484F582E4342DF583EC23
:1045D000F0A3EDF0229040F8EEF0A3F166EBF0903E
:1045E00040FD74FFF09040FCE09040FEF09040FEF3
:1045F000E0FFC3940E505FEFB153122499E4FBD156
:10460000C1704B9040FCE07E0170027E029040FE43
:104610009187EEF0C0079040FAE0FF7E006005123F
:1046200074C780027F0AE4FCFD9040031224F190DD
:1046300040FBE0904007F09040F8E0FCA3E0FDD0A4
:1046400007B1719040FEE004FF9040FDF0229040E1
:10465000FEE004F080979040FDE0FF22901217E00A
:104660007F0030E2027F0122EB75F00CA42480F57C
:1046700082E4342DF58322E47FD07E07FDFC904058
:104680000A1224F1E490400EF022E57575F00CA4B6
:104690002484F582E4342DF583E0FEA3E022AB0709
:1046A000E4FA1BEBC3940E500ED1681274D6600767
:1046B000EBB1531224F10AAF0222E0FEA3E0FFE4C3
:1046C00022FAF9F8C30223D4E4FDFCFF0219F890A2
:1046D0001217E05408FF229042F3E0FEA3E0FBAA89
:1046E00006E4F9229042F3EEF0A3F166EBF0D1D7A5
:1046F000F15B127430C006C0079042F3127357F892
:10470000D007D006D31223BE7E0050047F01800262
:104710007F00C006C007D1D7F15BD0E02FFFD0E00B
:104720003E9042F3F0A3EFF053ECFC9042F3127290
:1047300067540342EC75FF02EDF5AF75ED0275EDC0
:1047400004A3E0600543EC08800353ECF79042F6C5
:10475000E0600443EC042253ECFB22F87F807E38B7
:104760007D01FC022FA8EFF0A3EDF0A322F0A3EF50
:10477000F07E1C7FAFE4FB7D01E49040FCF0A1D50E
:1047800020022A901217E030E10AF1EF50067E0075
:104790007F0180047E007F00EF4E7011121C6EEFCF
:1047A000700B121CA5EF7005110A7F01227F0022F9
:1047B0007B017D017F807E04D1E47A0979DF12716B
:1047C000F27414F07A0979D7121E49D2ACE4FF12C0
:1047D00071207E077F2D7B057D201270C47F0D75B3
:1047E000FF0243B2C075FF028FB322C19E8161A256
:1047F000132290072AEFF090072CEBF090072BED97
:10480000F05402901240F0124780EF7002C32290E1
:10481000072AE0B40411A3E0FB7D017F01114C9055
:10482000072A7403F0801390072AE0B40505121BD1
:10483000E7800790072B1179114C90072AE090032D
:10484000C1F090072CE090123FF0D322EB60087586
:10485000FF0153CDFD800675FF0143CD02ED6005DC
:1048600053FBDF800343FB20EF600775FF0243E14A
:10487000402275FF0253E1BF22E0FB7D01E4FF22ED
:10488000121BE77F0143FB1075FF0243E640EF6018
:104890000D75FF02E5E120E7FB43FB0D800343FBC1
:1048A0000E80FE75FF028FE322901221E07011123C
:1048B0003FE34FFFA3E04FFFA3E04F7003D380011E
:1048C000C322E4FF123727EF60487B017A12792375
:1048D00031135009901223E0C394C040ED7B017A5C
:1048E0001279253113500F123FE35FFFA3E05FFF02
:1048F000A3E05FF460E790122AE030E0057F011248
:104900003727E4901221F07B017A127923E0FD121F
:104910001B7422903E9C125D68903EA21224FD0002
:10492000000001903EA67401F0F5FFE5D554C0707B
:10493000051256885002C322E4F5FF53967F75FF97
:104940000175D504F15475FF0143D508E4F5FF5313
:1049500094FBF5FF53847FF5FF7598FF903EA0E52B
:10496000F4F075F49C75FF01A3E5E4F075E4257B94
:10497000017A3E79A61264B5903EA6E06401600219
:104980004134F5FF903E9F7414F0903EA25176782A
:10499000011223F8903EA21224F1E5A730E1FB4377
:1049A000A702903EA25176E5A730E005E47B0180A6
:1049B00002E4FBFAF9F8EF4BFFEE4AFEED49FDEC9D
:1049C00048FC903EA21224F1903E9FE014F070BA91
:1049D000903EA2517678101223E57B6D7A4E79C60F
:1049E0007841122286EF2439FFEE3430B19CFCE48A
:1049F000FBFA7901F8122311EE547FFEE4FDFC125C
:104A00006974903EA25176EB6FFFEA6EFEE8CDEF3F
:104A1000CDCCEECCECFF1264EBEF1220721264EB03
:104A2000900001ED12208490120FE030E606E4F5CC
:104A3000FF75968075FF01E4F5D5903EA0E0F5F492
:104A400075FF01A3E0F5E41266A0903EA6E0B40174
:104A500003D38001C322E0FB25E025E02401F58299
:104A6000E43412F5831224F1EB25E025E02401F56E
:104A700082E43412F583E0FCA3E0FDA3E0FEA3E0B2
:104A8000FF229038D71224F19038E77401F0E4A3A4
:104A9000F0F16475FF02E5E630E00E9038E874014D
:104AA000F0FB7A3879E81264B59038F21224FD00F0
:104AB0002DC6C0E4F5FFF5A490120FF09038E9740C
:104AC00002F075FF039038E9E0FFF595EF146017E9
:104AD000146024240270339038D751769038EE1247
:104AE00024F19038E3801E9038DB51769038EE1236
:104AF00024F19038E4800E9038DF51769038EE1231
:104B000024F19038E5E09038F6F01267D19038F64D
:104B1000E0700512732D806690120EE004F090385C
:104B2000E91273649038E8E0701A9038F251769088
:104B300038EEF1B5FBC31223D450099038EE51760C
:104B4000A31224F19038F6E0FF1266529038E6E0A6
:104B5000FF9038E9E0FDA231922E12677F9038E88D
:104B6000E070129038EE51769042551224F1903850
:104B7000E9E0FFB1A39038E9E051691264F71274DB
:104B80006C600241C29038E8E07044A37402F07592
:104B9000FF039038E9F1EF70139038F2B17AFC78A6
:104BA000011223E59038E951561264F712746C70C3
:104BB000DE9038F21272CE2420FFEE344EB19CF11A
:104BC000E7B18AFC78011223E59038EA1224F11249
:104BD0007275400343F420A231922F1266B19038CF
:104BE000E8E024FF922D9038EA5176F1D9E4F5FF00
:104BF00075E5081265EDE59B30E7FBD13BF1AF436E
:104C0000D5047FC8D14EB154F15B7B017A3879E786
:104C10001265FA90120EE0B401031265E69038E7CF
:104C2000E0B40103D38001C322903A361224F1F19B
:104C300064903A4B1224FD002DC6C0E4F5FFF5A4A4
:104C400090120EF0A3F0903A467402F075FF0390B4
:104C50003A46E0FFF595EF146017146024240270C3
:104C600033903A365176903A471224F1903A428086
:104C70001E903A3A5176903A471224F1903A438086
:104C80000E903A3E5176903A471224F1903A44E021
:104C9000903A4FF01267D1903A4FE0700512732DA1
:104CA000805690120EE004F0903A46127364903AE7
:104CB0004B5176903A47F1B5FBC31223D45009907B
:104CC0003A475176A31224F1903A4FE0FF12665210
:104CD000903A45E0FFA3E0FDA230922E12677FA339
:104CE00051769042551224F1903A46E0FFB1A390DC
:104CF0003A46E051691264F71274756002814C748F
:104D000002F075FF03903A46F1EF7018FF7E04FD44
:104D1000FC903A4BB17FFC78011223E5903A465162
:104D2000561264F712747570D9127275400343F409
:104D300020A230922F1266B1903A4B1272CE2420EC
:104D4000FFEE344EB19CF1E7B18AFC78011223E505
:104D5000C22DF1D99012137401F07E127F01E4FD8F
:104D60008F828E83EF2DF582E43EF583E0FC901276
:104D700013E02CF00DEDB412E722FF7E04FDFCE001
:104D8000F8A3E0F9A3E0FAA3E0FB122286E47B7D1E
:104D9000FAF9F8122311EF2401FFE43EFEE43DFD91
:104DA000E43C22904254EFF0E4A3B17AFC78011283
:104DB00023E5904254E0FBF1C0F5831224F19012F8
:104DC00010E064806074E0C3947F5039EBF1C0F56B
:104DD00083C083C0825176EEC0E0EFC0E090121035
:104DE000E075F004A4AEF0FBCAEECAEA3395E0F930
:104DF000F8D0E0FFD0E0FEC3EF9BFFEE9AFEED9906
:104E0000FDEC98802D904254E0F1C0F583C083C042
:104E100082F1B5FB901210E0F40475F004A4FFAE2B
:104E2000F0EE3395E0FDFCEB2FFFEA3EFEE93DFDA1
:104E3000E83CFCD082D0831224F122E4F5FF758E89
:104E4000C8F19375FF0153D5FB125FE27F147E001A
:104E5000F13775FF0343918022903B461224F1E421
:104E6000F5FF75BB0575BB8575FF0175D502202D56
:104E700004F154F19375FF0143D520302D02E11D5B
:104E8000E4F5FF538EF7438E077D04E4F5FF8DBCF8
:104E9000F5FF43B102E5B130E2FBE4F5FFAFDFEF30
:104EA000FEACDEECFBEBFFED25E02444F582E434C0
:104EB0003BF58312733BF5FFF5FF53B1FD0DEDB4E8
:104EC0000CC9903B46517678091223E5A312733B37
:104ED000FDED25E0244EF582E4343BF583E0C31379
:104EE000FAA3E013FBF1CCE0C313FEA3E0132BFF06
:104EF000EE3AFEF1CCEEF0A3EFF0ED240490120DAB
:104F0000F0EDC394075016CFEDCF0DEFF1CD126E3B
:104F10007F903B4BE09F903B4AE09E50B4E4F5FF0E
:104F2000758EC8F5FF90120DE0F5BCE4F5FF75BB7A
:104F30008075FF01F5D52275FF03D3EF9402EE943F
:104F400000400874FE2FFF74FF3EFEEFF592EE5412
:104F50000FF591227F3FFEF137D15275FF03E591A6
:104F600020E7FB2275FF0243E1801237C375FF0182
:104F7000438E1075FF0153DB7F75FF0175D502D19C
:104F80004CF1AF438E1075FF0143DB8075FF01E4E8
:104F9000F5D522E4F5FF75C2E17F1E12746330E798
:104FA00007E4F5FF75C2A122E4F5FF75C28122F185
:104FB0005B75FF0122E0F8A3E0F9A3E0FAA3E02289
:104FC00025E025E02401F582E4341222ED25E024D9
:104FD0004CF582E4343BF58322D159E4F5FFE5BD7D
:104FE00054F84404F5BD22FCE4FB7A04F9F822E00D
:104FF000F595E5F4540722AE07124139EE04FEEFB1
:105000008EF084AFF02230110C902B24E07006FF5C
:105010001219B7C211301323AF719006CFE0FEEF23
:10502000C39E400AEF9ED394024010C21322900602
:10503000CFE0F42FD394014002C213229003C5E0C5
:10504000FCA3E04C700A9003C5EEF0A3EFF0D3226E
:10505000C3229003C5E0FEA3E0FF4E6009CAEECA7A
:10506000C9EFC912271622D2ADD2BD75FF02758EC7
:105070007175740975FF02E58E546F4480F58E904A
:1050800042DB1224FD0000000022C0E0C0F0C0831B
:10509000C082C0D075D008C0FF75FF02E58E30E435
:1050A0003F75FF02E58E54EF4410F58E9042DB12FF
:1050B0002499124D96FC9042DB1224F1900000E4FA
:1050C00075F001122143E57430E0020551E574707A
:1050D0000D7574090571E571700205708002157413
:1050E00075FF02E58530E40875FF024385100576FB
:1050F000D0FFD0D0D082D083D0F0D0E0327E1E7FDF
:10510000717B017D0A9040FC7403F00245D5904408
:1051100024ECF0A3EDF0904423EFF05151FFD24086
:10512000121E3F904423E0FFE4FD3159904423E0F8
:10513000FF5144124A7B904423E031C4F583EEF0E2
:10514000A3EFF0205411D2547E517FD07BFF7D011C
:105150003105BFFF02C322D32241739042D71225EB
:10516000A99042D6EFF0C2535151FF7B017A4279A8
:10517000DA121E3A4003A2532231B1E0FE9042DA25
:10518000E0FDEE6D7028EF31B6E0FF9042D7123FA0
:105190009731B1E07008EF31B67401F080089042A9
:1051A000D6E031B6E4F031B1E0FD3159D253A2532B
:1051B000229042D6E0FF75F006A42495F582E434EF
:1051C0003EF5832275F006A42493F582E4343E2252
:1051D000E490446AF090446AE0FFC394025056EFB2
:1051E0005136E06401704690446AE05136E4F07B49
:1051F000017A44796B315B501D90446AE0FE31C402
:10520000F583E0FCA3E04C600D90446BE0FFEE31D1
:10521000C4516012271A90446AE0FF75F006A42476
:1052200092F582E4343EF5837401F0514490446A6F
:10523000E004F080A02275F006A42491F582E43405
:105240003EF58322EF146006047005D2A822D2AA8C
:105250002275F006A42490F582E4343EF583E02222
:10526000F583E0FCA3E0FDF5828C8322901249E0F7
:10527000FD7F01EF7011ED600775FF0143AE012264
:1052800075FF0153AEFE22EFB40114901249EDF008
:10529000600775FF0143AE022275FF0153AEFD2288
:1052A0001FEFC3940E5009EF124553122499800545
:1052B000E4FFFEFDFC22E4FEEFC3940E5013EF1258
:1052C0004489E05D7C00B505027C01EC2EFE0F8078
:1052D000E7AF06227D02E4FF80DC7D017F0351B64B
:1052E000AB0751D4EF2BFF22E4FD7F0380C8A2ADB2
:1052F0009225C2ADAF71AE70A22592AD22AD07ACC2
:105300000651EEC3EF9DEE9C4008EF9DFFEE9CFE24
:105310008013EDF4FDECF4FCED2401FDE43CFCED28
:105320002FFFEC3EFE229003CAE0FEA3E0FF51FDFA
:10533000D3EF94C8EE22E49006C1F07B017A06799F
:10534000D09043631225A9904363122589121FB39D
:10535000FF124461904363122589E4022072900A8F
:10536000A71225A9D227C2EBE5146002A1CDE5154D
:1053700030E202C322B1D524E3F9E4F1A312617F44
:10538000D12412216F5407FF9006B0F012603A90BA
:105390000AAAEFF0E51520E071D18840057F0112DF
:1053A0003727900AAAE0FF7B017A0A79AB125CE109
:1053B000E4337004D2EBA1AC900AAAE0246BF1E3D1
:1053C000E0FF900AABE0D39F4040D2EB12611AA2FB
:1053D0001292ED9006C1E06014B1D524E3F9E43AED
:1053E000FA74011220724315047136D3229006D04C
:1053F000E070157B017A0679D07C587D30904104AD
:105400007464F0E4A3F0F1EBC322D1885005C233F9
:105410001259E3127234E5D120E0FBE4F510C21317
:10542000D12412216F5407C39403E49400502FB188
:10543000D524B1D11DFFB1D524D8D11D2FFFE43320
:10544000FED3EF9440EE648094804012B1D524E303
:10545000F1DC122072431504A21292EDD322B1D5D1
:105460002408F9E43ACFE9CFF5118F12B1D524B170
:10547000D11DF516AE11126F87B1D524B2F9E43AF9
:105480008B1CF51D891EB1D524D8D11DF51FD12443
:1054900012216FFDACF05460602CB1D524D9D11D20
:1054A000FF1260DAC227D10DFB7A009006D17D1879
:1054B000127193EF2BFFEA3EFEEF2414FBE43EFA59
:1054C0007D027F01A19CD12412216F54079006B068
:1054D000F0751408B1D524B2F9E43AFA126F7BB131
:1054E000D524D8D11DFFAD16126FA69006B0E0648A
:1054F0000370247B01FDB1DDD3D16F50057401121F
:10550000201DE4F5FF12747E121FB32428FBE43340
:10551000FA7D03E4FFA19C9006B0E06402702BB119
:10552000E0D3D16F400574FF12201DE4F5FFE5D2F2
:105530005480440AF5D2121FB32414FBE433FA7DDD
:10554000027F011261C7D1328055E4FB7D01B1DDDC
:10555000D3D16F400574FF12201DE4F5FFD124D193
:10556000787F0560027F0AEF547FFFE5D254804FB9
:10557000F5D2E4F5FF43D280D10DFD7C00D124D1DA
:10558000787E0060047F0A80027F05EF25E0FFEE51
:1055900033FEEF2DFBEE3CFA7D017F011261C7D196
:1055A00024F1D5A22792261258EF4006A21292EDBE
:1055B000C3227136900AAAE0FFB1D524E5F9E43A96
:1055C000FAEF122072A21292EDD2EBD322A2129223
:1055D000EDD2EBC322900AA7122589E922FFD13729
:1055E000900AA7122589E924B1F9E43AFA121FB307
:1055F000FF900AA7122589E924D8F9E43AFA121F84
:10560000B32FFFE433FEEF2401FFE43EFE900AA730
:10561000122589E924B2F9E43AFAE92407F9E43ACF
:10562000FA021FB3900AA7122589E92404F9E43A83
:10563000FA22E4FB7D01FFE4F5FF75D102E5D120FC
:10564000E0FBE4F5FFF5D1EF6008E4F5FF43D2801D
:105650008006E4F5FF53D27FEB6006E4F5FF43D10B
:1056600004ED6006E4F5FF43D1082233FEE0C39F5A
:10567000EE6480F87480982212216F441045F02265
:10568000C2EBA2ED9212C2EDE5F4C330E701D322E2
:10569000900AF4EFF0C2341269B6D21B900AF4E01B
:1056A000904369F0D21CA3E4F0A3740DF0125DCC1A
:1056B000E4900AF5F0D1885076900AF5E07070E534
:1056C000F754C060F0F146F1596455704EF15990AD
:1056D0001221E06F600E900AF5E0F4703990121517
:1056E000E030E132F15964556018E0FF644A60121D
:1056F000EF640A600D901221E0FF900AF5E0FE6F62
:105700007005900AF5800A9006AFE06E900AF57079
:10571000197402F0809F900AF5800F900AF5E0B4AA
:1057200054057433F0808E900AF57401F0808690F1
:105730000AF5E0B40207C2331259E38000125DBFDC
:10574000900AF5E0FF22E5F720E008E5F754C07085
:10575000F5FF2243F701AFF922F146900AF5EFF089
:1057600022900AD91225A9900AD9122589E51BF1A0
:105770009C125CD6F19B122589E92402F9E4F1A37D
:10578000900AD9F1C7F9E43AFAE513F19CD127F16F
:105790009BF1CEF9E43AFAE4022072E4122072900E
:1057A0000AD9223AFAE40220729006B1E0FDFFC362
:1057B000740E9FFFE494001271E2E51754F0D16E6D
:1057C0007F005002AF0522122589E9240322122509
:1057D00089E924052212216FFFAEF022F9E43AFA9A
:1057E000740222F582E43408F58322904102ECF041
:1057F000A3EDF09040FF1225A9714190410212588B
:10580000229040FF123F979040FF122589121FB34C
:10581000B4FF04E41220729040FF122589121FB3D6
:10582000FF22E0FEA3E0FFA3E0FDA3E0FB02477937
:10583000E49006D0F09006C104F02212568850047D
:10584000114C4003301303D38001C322E5F754E029
:1058500024FF22AF14EFC36001D322EFC3940E5094
:10586000059006B1EFF022E517540FFF22E517C3AC
:1058700094F0501F5317F01196FE740FC39F40050C
:10588000EE940E400543170D8003EF4217E51754C1
:105890000FFF227F0022E517C4540FFEEF90323530
:1058A000932E221196FFC3940E40027F0DEF90328B
:1058B0001793FF22EF30E303AF1322AD1B20140434
:1058C000EE30E00CE517C394F050211257A9801870
:1058D000E5196006FDE4F5198012E517C394F05050
:1058E0000BE517540FFF600411A3AD07AF0522436A
:1058F00015015315DF11B412604A4004E4F5142277
:1059000043FA045315FB3026043135800A7F5531A4
:10591000197F553119D2EBD32275FF01E5D520E669
:1059200002C322E5FA540360FA75FF018FC3D32244
:1059300031C743FA04E4F5FF53D1FD43D10122AF4F
:1059400082AE837D01900A8F12717DE5147077120B
:1059500056805004C23331E3900A8FE0FEA3E08EFC
:1059600011F512A31225899006B21225A9AE11AF26
:10597000127DAA126F51E4F5FF75D901F510E515F6
:105980005421602BE51530E504E4FF31C7E4900AAB
:1059900094F0900A94E004F0126533EF6009900AE5
:1059A00094E0C3941040EB7F02121DD65315DE9095
:1059B00006AEE07F00B403027F013130D23331E321
:1059C000D2EBA21292ED2275FF01E5D530E602C3BB
:1059D00022E4F5FF439A80EF127365E4F5FF539AD2
:1059E0007FD32290446FE5F4F0E0547FF5F47F829A
:1059F0007E00F1A3D1815005E5FC20E6F7303308A5
:105A000090446FE04480F5F4F19FD1815005E5FCAE
:105A100020E6F775FF01E5D520E702C322E5F4D3C0
:105A200030E601C322C23331E3127234E5D120E003
:105A3000FBE4F5FF75D9019006AEE07F00B40302E8
:105A40007F013130D23331E3E4F51022C0E0C0F001
:105A5000C083C082C0D075D008C0FF75FF01E5D5F6
:105A600030E6047F028009E5D57F0030E7027F0140
:105A70008F18E51864026002612DE5141226B65AEB
:105A800098015AAB025B15085AB6095AC10A5ACF97
:105A90000B5AEF0C00005CBB75FF0175C355151A5E
:105AA000E51A600281BB75140281BB75FF0175C3E5
:105AB000F075140981BB75FF0175C35575140A8112
:105AC000BB75FF019006C2E0F5C375140B81BB7571
:105AD000FF019006AFE0F5C3751401751A14900626
:105AE000D112739A45F0600281BB75140C81BBAB77
:105AF0001CAA1DA91E126F7BAD16AF1F126FA61236
:105B0000563275FF0012747E43FA0475FF00313877
:105B100075140881BBC2EB75140043150412610CA7
:105B2000400281BBE475F00112214381BBE518649A
:105B300001600281BB126A7A400281BBE5107022CB
:105B400091CFE0FF64556004EFB4540BD213AF71F2
:105B50009006CFEFF0813475100275FF0075D908FB
:105B600081BBE5106402706F75FF01F5EA75EAFF0D
:105B70009006B2122589E5D9122072126A031260CA
:105B8000C69006AEEFF01273A1E0900B06F0E0FFB6
:105B9000D3940940259006AEE0D39402400CEFD395
:105BA00094AA7F0040027F01800D900B06E0D39401
:105BB000407F0040027F01EF6004B1B78076900B18
:105BC00006E0F5161269AB901222EFF075FF008522
:105BD00016D975100381BBE5106403600281BB9088
:105BE00006B2122589121FB3FF91D9EF122072B1AC
:105BF000B775FF009006AEE0C39403E5D35005549B
:105C000002FF80035401FFEF602E30E111C39006C4
:105C1000BCE094FF9006BBE094FF5018800FC39047
:105C200006BEE094FF9006BDE094FF5007E475F0D7
:105C300001122143512581BBC23331E375FF0012AC
:105C40007237E5D120E0FBC2EB43150291CFA3E010
:105C5000FF901224E0FEEF6E91CEE090122391C8E7
:105C6000A3A3E090122591C8A3A3A3E0FE9012265F
:105C7000E0FDEE6D4F6016C39006C0E094FF900605
:105C8000BFE094FF5007E475F001122143C3900672
:105C9000BAE094FF9006B9E094FF5007E475F00174
:105CA0001221437510009006AEE0B40308151612D9
:105CB00073A1E516F09003C4E516F0D0FFD0D0D064
:105CC00082D083D0F0D0E032FEE0FDEE6D4FFF8554
:105CD000128285118322122589E92401F9E43AFA16
:105CE000229042EFEFF0A3B16875FF011269D7EF80
:105CF00064016002C322E5F430E602C3227FE87E3D
:105D000003124F37124E52126A63400122C23331DE
:105D1000E39042EFE0FF31C753F4DFD23331E37F4A
:105D2000787E00B17175FF0153E4BFE5E430E7FB15
:105D3000126A597F8A12746330E6099042F0126445
:105D4000EEE4800B75FF019042F01264EEE5D9128B
:105D5000207275FF0143E44012727B400343F4203C
:105D6000126A63400122D322EBF0A3EAF0A3E9F028
:105D700022CDEFCDCCEECC1264A1AB94EF4B1264EC
:105D8000ADCBEFCBFAE59130E71E1264A4A994E9FC
:105D9000F582EF4582FFEB2DF582EA3CF583C3EFF8
:105DA0009582E5F0958340DDE59120E709CEECCEC4
:105DB000CFEDCF124F5722301304C213B1BF22C20E
:105DC0001BE4904369F0C21CA3F0A3F075FF01E54A
:105DD000D520E702C322C2341269B6201B02C17269
:105DE00053F4DF904369E0FF31C71265E6301C05CC
:105DF00043F440800353F4BFE4F5FF53F5F09043C0
:105E00006AE0FAA3E0FBEA42F5EBF5F6D234126958
:105E1000B67FC8124E4EE4F5FFE59320E604D1812B
:105E200040F4301C5AE5F430E3047D288010E5F49A
:105E300030E2047D288007E5F430E1027D28F1E2BC
:105E40007F28124E4ED18140FC7F78124E4ED18178
:105E5000502D126A5250F7126A2DEFC39D50EF1267
:105E60006A5250EAE5F720E5E5C2341269B6F1E27C
:105E700080DC53F4BF12727B400543F420F1E9D378
:105E80002275FF03E591C330E701D32290410D1243
:105E90004766EBF09041137401F0C232F19FD1815B
:105EA0005005E5FC20E6F71269D7BF0108E4F5FCD0
:105EB00075FC4080081269D7BF0202D322F1E99035
:105EC000410EE0FF12698175FF0153D5DF53FAFBE4
:105ED00090410DE0FF31C790410EE090410DB408B4
:105EE00011E0124FC0F5831272CE2452124D99FC6C
:105EF0008004E0124A691264F790410FE0FF126AD1
:105F00002775FF0175FF03759B04F19F75FC42E542
:105F1000FC20E104D18140F4904110E0F075FF03D2
:105F2000E59B20E704D18140F4E59B20E70D75FF58
:105F300003759B1F1237C3D2328050F1DB1264B558
:105F400090410EE0FD90120FE05D701D90410DE05C
:105F5000FFF1DB1267DE90120FE0FF90410EE0FED2
:105F6000EF4E90120FF0124D54124F937B017A4175
:105F7000791112648C500FC3904112E0942090412B
:105F800011E0940340E6F1DB1265FA124F5B303208
:105F900002C194904113E0B40103D38001C3227F76
:105FA000E87E03F1A8024E529042DFEEF0A3EFF03C
:105FB0007B017A4279E112648C50149042E1E0FE58
:105FC000A3E0FF9042E0E09F9042DFE09E400B9014
:105FD00042DFE0FEA3E0FF124F37227B017A4179D6
:105FE000132275FF03E4F5912275FF0153D8EF22C8
:105FF0009003C9E0B4020D8F1B900A8CE0F51312D8
:106000001A2AD322C322E51754F0C4540F2FFFC31A
:10601000941040027F0FEF90322593FF227E10EE06
:1060200060091EEE90322593B507F4EEC3940E403E
:10603000027E0DEE90321793FF22EF24FD60068062
:10604000007E018002E4FEAF0622900ADDEFF090B0
:1060500006B0E0FF113A900ADEEFF09006B0E024BF
:10606000FD6013047008900ADC7404F0800E900A3E
:10607000DC7408F08006900ADC7402F07F01121DC7
:10608000D6900ADEE0FF900ADCE0FDA3E0FBE4909E
:106090004110F0125E8C50E9D322E4F5140237432C
:1060A000C2AFEF4215D2AF22C2AFEFF45215D2AF5A
:1060B000227F0211A89003C3E09003C8F09003C3AD
:1060C00004F0C3940222EF24FE600C24FE600580DD
:1060D000007F01227F02227F0322751401751A13AB
:1060E0009006C2EFF09006B07402F0ED9006D13049
:1060F000E507E4F0A3743AF022E4F0A374E6F0229A
:10610000310C5007E475F00112214322C39006B60A
:10611000E094FF9006B5E094FF22C39006B8E094A7
:10612000FF9006B7E094FF5007E475F00112214399
:1061300022317F7F02121DD67F01125690900B07ED
:10614000EFF0BF02028014900B07E0B43312E4F0CA
:106150007F01125690BF020D900B077401F080056D
:10616000E4900B07F0900B07E0700D125688500575
:10617000C2331259E31237BC900B07E024FF229080
:106180001223E0F4FFA3E06FFFA3E06FFFA3E06F33
:10619000FF64556009EF644A6004EFB40A010F9090
:1061A00006AFEFF022901215E03028044402F022EE
:1061B00054FDF0229006D1E0A3E0FF227D021237C9
:1061C0006CEFC36001D322900ADFEFF0ED24FE6094
:1061D000191460262402703BEB2402FFE43AFE7C93
:1061E000007D501220A67D60801E5135C333CE3312
:1061F000CED8F9FF7C007D28800E5135C333CE33D5
:10620000CED8F9FF7C007D641220B8900AE0EEF051
:10621000A3EFF0900ADFE05149C083C0821224B599
:10622000900AE1E02401900AE0514012226BD082F2
:10623000D0830224F1EB2401FFE43AFEEF7803223D
:10624000FFE03400FEE4FCFD2225E025E024C3F558
:1062500082E43406F58322EF514912249902245B2B
:10626000E49006C351759006C75175FFFEFDFC9082
:1062700006CB0224F1FFFEFDFC1224F1E422A2EB86
:106280009229C2EB7A0679B57B017D0CE4FF121BE3
:1062900065A22992EB22A2EB922AC2EBEBC0E0EAC4
:1062A000C0E0E9C0E07B017A0679B551C7D0E0F9DA
:1062B000D0E0FAD0E0FB7F0C121B8DA22A92EB22D9
:1062C000E92401F9E43AFA9041490225A9900A82A9
:1062D0001225A9C255C2AC30565CE4900A88F090F1
:1062E0000A88E0FFC3942050279009F3E02F242D63
:1062F000F582E43407F583E0B40D0D900A88E004DC
:10630000900A85123F968008900A88E004F080CFBA
:10631000C256900A85122589121FB3FF9009F3E037
:10632000242DF9E43407FA7B0151C7900A82122523
:1063300089121B8DD255D2ACA25522901217E0447F
:1063400004F022901217E05414FFBF14047F018060
:10635000027F0022901217E07F0030E0027F0122CE
:10636000903E1EE0B4040D903E23E060077154EFB0
:106370007002FF22903E1EE0FF22901217E0C4132D
:106380005407FF22902B43E070097B017A2B793B65
:10639000121AD4902B43E044C0F0902B46E054FEF8
:1063A000F0A3E044C0F0902B4AE054FEF0227405C4
:1063B000D39F500B7463C39F4005903E21EFF09034
:1063C0003E21E0FF2275FF02E5E630E2037F032273
:1063D000E5E630E3037F0022E5E630E1037F0422B7
:1063E000E5E67F0530E0027F0122EF600775FF02DE
:1063F00053E6BF2275FF0243E64022EF14600F14FC
:106400006014240270188B8075FF018DFD228B9023
:1064100075FF018DC9228BA075FF018DCA22AF03C4
:106420008FB075FF01AF058FCB229041071225A9D0
:10643000EF14601414601E240270279170E580919F
:1064400076122589E5FD80259170E59091761225DB
:1064500089E5C980189170E5A09176122589E5CA71
:10646000800B9170E5B09176122589E5CB02207200
:1064700090410A02258912207275FF01904107227E
:10648000E4F5FFAF9122E4F5FFAF922291A1AD9424
:10649000EF4D91AD8FF012221FE591C330E701D38C
:1064A0002275FF03AF93EF75F010A4FF2224FBFFCA
:1064B000E5F034FF22904366125D687F017C127D17
:1064C00001E4FE8D828C83ED2E91E4E02FFF0EEE31
:1064D000B412F0901213E06F600990436691EEE4FD
:1064E00012207222F582E43CF58322903E9CE0FB70
:1064F000A3E0FAA3E0F9229042E31224F175FF0130
:106500009042E3A3E0FDA3A3E4FFFEE4FC781012B5
:1065100023E58FE19042E3A3A3E0FEA3E4FFE4FDC3
:10652000FC78081223E58FE29042E3A3A3A3E0FFE7
:106530008FE322E49042E7F0A304F0E49042EAF013
:10654000E5FA30E1FB75FF01E5D530E7037F002276
:10655000E4F5FF75E508125FE9E5D530E61A75FF49
:10656000019042E9E5DAF0E4F5DA75FF01E5D630AD
:10657000E3FB9042EA7401F0B1EDE59B30E7FBE408
:10658000FB75FF038B95124A6891F70BEBB403F18F
:1065900075FF03759580124E3B124FAF43D50490A3
:1065A00042EAE0700B125FE27FC8124E4E124F5B60
:1065B0007B017A4279E8B1FA9042E8E09042E770D4
:1065C00006E04404FF8002E0FF9042E7EFF0901203
:1065D0000EE0B40102B1E675FF019042E9E0F5DAA0
:1065E0009042E7E0FF2275FF0143D8102275FF03B8
:1065F000759B0475FC4175FF0322C22C75FF037562
:106600009B1F75FF0390120FE020E71BE59A540FC4
:10661000C394024012E04480F0E4F5FF75C2A14348
:10662000FC0475FF03D22CE5FC30E609E59A540F13
:10663000C3940540CDE5FC30E611E412207275FCF0
:1066400080F5FC75FC40E5FC20E6FB302C03124D88
:106650005422EF30E00E43F401E4F5FF43A404F5C7
:10666000FF759624EF30E10E43F401E4F5FF43A4F7
:1066700008F5FF759624EF30E20943F402E4F5FFD4
:1066800075961EEF30E30943F404E4F5FF759610A8
:1066900075FF01EF5403600475D7122275D72D22C0
:1066A000E4F5FF7584E6F5FF439404F5FF7598144F
:1066B00022E4F5FF75933F75FF03759A40D1A0E47E
:1066C000F5FF759C93F5FF75A1A3F5FF758531F571
:1066D000FF758628E5FA54304480F5FA75FF017598
:1066E000E74A75FF0275DF4975FF0143D30475FF63
:1066F0000153D367E4F5FF53E6BF75FF0175D82555
:10670000F5FF75B503F5FF75B215F5FF75BA02F51E
:10671000FF75AFB3F5FF75CD0AF5FF75CB08F5FF33
:1067200075CA12F5FF75BF0EF5FF75CC96F5FFF52E
:10673000BDF5FF75C281F5FF75AEE1F5FF75DA5560
:10674000F5FF75F580F5FF75E903F5FF75E933F59C
:10675000FF75972A75FF01759B42759CA4759D294D
:10676000759E48759F2475A11275A312759AF8201D
:106770002F0CF5FF43968090120FE04440F022CC9E
:10678000EFCCCFEDCF74017E00C8EFC8088005C301
:1067900033CE33CED8F9FFCDECCDEF5D601B302E7C
:1067A0001875FF0175DCAD75FF0175DDCDE4F5FFF2
:1067B000759A74F5FF7594842275FF0175DC537525
:1067C000FF0175DD33E4F5FF759A14F5FF75940448
:1067D0002275FF0175E46575FF0175D64722904269
:1067E000EBEDF0901211E0F46005A3E0B4FF0C9023
:1067F00042ED7418F0A37413F08010901211E09021
:1068000042EDF0901212E09042EEF0121FB36401DC
:10681000600221479042EBE0FE64086004EEB4049D
:10682000089042EC7428F080069042EC743AF0EF45
:10683000124A691223B0E4314FEF24D8FFEE343FFF
:10684000FEED3493FDEC3416FC7B007A80790378FE
:1068500000122FA831749042EEE0FF9042EDE0C3A9
:106860003148E4FCFD122286ECC0E0EDC0E0EEC051
:10687000E0EFC0E09042EEE0FFE4FCFDFE314FD0DF
:10688000E0FBD0E0FAD0E0F9D0E0F8EB2FFBEA3EF5
:10689000FAE93DF9E83CF89042ECE0FFE4FCFDFE4B
:1068A000122286EF2454FFEE340B124D9CFCE47B45
:1068B000A87A16F9F8122FA8CBEFCB9042EBE01490
:1068C000605D14601B24FE600C24FC707AE4F5FF0C
:1068D00075CE318006E4F5FF75CE21F5FF8BCF2212
:1068E000E4FAE4F5FFEA2440F5CEE4F5FFEAFFC35D
:1068F00074073148740A2FF58274183EF583E43129
:1069000057C39DF5CFE4F5FFEA2448F5CEE4F5FF43
:10691000EA90180A31572DF5CF0AEAB408C422E4E8
:10692000F5FF75CE01F5FF8BCFF5FF75CE0EF5FFA8
:10693000EB25E0F5CFE4F5FF75CE0FF5FFCFEBCFFC
:10694000EB75F003A4F5CF229FFFE49400FE227BB9
:1069500064FAF9F80222869325E0FDE433FCEB7536
:10696000F010A4FFAEF01220B8CDEFCDEBFFE4C3E2
:1069700013EF1322C8ECC8C9EDC9CAEECACBEFCBDE
:106980002275FF01E5D530E602C32253FACFEFB4FA
:10699000080543FA308012EFB4040543FA20800959
:1069A000EFB4020543FA108000D322E5F454181323
:1069B0001313541FFF22AFF4EF547FF5F430340566
:1069C000EF4480F5F475FF01E5D520E702C322E529
:1069D000F4D330E601C3227FFA124E4EE5FC30E6D6
:1069E00005125E8140F6E5FC30E6037F032275FF69
:1069F00001E5D530E6037F0222E5D57F0030E702CE
:106A00007F0122E5F75406FFBF06037F0822E5F762
:106A10005406FFBF04037F0422E5F75406FFBF02BC
:106A2000037F02227F012275FF018FDA225159AFC5
:106A3000D922E4FFE5F754C0600280F175FF01E55B
:106A4000D530E30D515250F4512DEF60EF515250BB
:106A5000EB2275FF01E5E4332275FF01E4F5EA75E9
:106A6000EAFF22E5F730E510E5F754C07005125E45
:106A70008140F0125FE2C322D322E5F754C024FF25
:106A800022EF600775FF0243E6102275FF0253E60E
:106A9000EF2275ED0422C0E0C0F0C083C082C0D0F8
:106AA00075D000C000C001C002C003C004C005C052
:106AB00006C007C0FF51EDEF601651F3EF7F2030A5
:106AC000E1027F009009F3EFF0D256121E4451927A
:106AD000D0FFD007D006D005D004D003D002D0011B
:106AE000D000D0D0D082D083D0F0D0E032E5ED54C9
:106AF00004FF2275FF02E5B25402FFE5B454E0FD45
:106B0000ED4FFFE5B25410FDEF4DFF43B4E02275A9
:106B1000ED0222E5ED30E2FB75ED04AFEF22AFEFC1
:106B2000228FEF22E5ED20E0FB8FEF22EF600443A0
:106B3000EC042253ECFB22EF600443EC082253ECFC
:106B4000F722E5ED5402FF22E5ED5401FF22903CCF
:106B5000E0E0122072903CE5E09000011220849069
:106B60003CE6E0900002022084E4FEEF70037FFF29
:106B700022EFD3940F4009EFC4540FFFEE4404FEFC
:106B8000EFD39403400AEF1313543FFFEE4402FE89
:106B9000EF30E1010EAF0622EFF4045FFF80CA90F0
:106BA0003D291224F1903D2D1225A9903D29122452
:106BB00099903CE8E024FFFD903CE7E034FF5EFE66
:106BC000ED5FFF903D32F1116058903D32D17FF181
:106BD0002B903D32F0A3EFF0903D30D14F9FEC9ED3
:106BE0005002F12491BFD1326028B134C004C005F5
:106BF000C006C00791BFE94A6005B127FF80027F48
:106C0000007E0091BFD169D007D006D005D0041214
:106C10003AEA9198E94A6004D156806F7E007F007D
:106C20008069903D30E0FEA3E0FF4E6069903CE754
:106C3000D14FEF9DEE9C400A903D32ECF0A3EDF079
:106C4000800D903D30E0FFA3E0A3CFF0A3EFF091E3
:106C5000BFD1326028B134C004C005C006C007915E
:106C6000BFE94A6005B127FF80027F007E0091BF27
:106C7000D169D007D006D005D004123AEA9198E93C
:106C80004A6004D15680047E007F00903D2EEE8F36
:106C9000F0122143808CD322903D32E0FEA3E0FF2E
:106CA000C3903D31E09FF0903D30E09EF0903D2953
:106CB0001224B5E4FCFD12226B903D291224F190C0
:106CC0003D2D022589AB07AA06EB241FFFE43AFEFF
:106CD000EF7805CEC313CE13D8F9F9EB541F9044C7
:106CE00073F0AF05B12CFCAF057169AE01EE14C3B2
:106CF0009FC43354E0F9AF04C3EB9FFFEA9400FE56
:106D0000E9FDC3EF9DFFEE9400FEED600FE0FD6036
:106D100007C374209DFD80067D0080027D007C00FD
:106D2000EF2DFFEC3EFE22903D36E0FF7198EFC460
:106D30003354E022903D32E0FEA3E0FF903D36E088
:106D4000FD91C5903D34EEF0A3EFF0A3E0FF719804
:106D5000EF75F020A4FFAEF0E4FCFD903D29122475
:106D6000B502226BAE02AF017B017A3A79AE904157
:106D700019E4F0A37402F09041161225A9E4FCFD79
:106D8000C007904116122589904119F138D007614A
:106D90009FD15F1225A9E4903E2EF0A304F0903E0F
:106DA0002BE0FEA3E0FF4E7002C12CD3EF9420EE47
:106DB000940040047F208006903E2BA3E0FF903E8D
:106DC0002DEFF0903E28122589903E2DE0FF90385F
:106DD0001DE4F0A3EFF0903E24122499D186400EDA
:106DE000903E2EE0FFA3E0FEEF4E903E2EF0903E50
:106DF0002DE0FFC3903E2CE09FF0903E2BE09400EE
:106E0000F0903E241224B5903E2DF118D15F12254A
:106E100089E94A6007903E2DE0FF80027F00903EA6
:106E200029F10B903E2FE025E0F0A19E903E2EE050
:106E3000FF22903D32E0FFA3E0903E2BCFF0A3EF86
:106E4000F0903D29122499B191903D36EFF022E067
:106E5000FCA3E0FDD322903D32E0FEA3E0FF2290B0
:106E60003E241224F1903E2822E92FF9EE3AFA90BE
:106E70003D34E0FFA3E0903F53CFF0A3EFF022E0DA
:106E8000FEA3E0FFC3229038161224F190381A12A4
:106E900025A9E490383FF0D390381EE09420903834
:106EA0001DE094004001227B017A38791F90381D43
:106EB000E0FFA3E0903F5CCFF0A3EFF09038161214
:106EC0002499123C5C90381A122589E94A6009908D
:106ED000383FE0F103FF80027F0090383FE0241F3D
:106EE000F582E43438F583E06F6002C32290383FC6
:106EF000E004FFF0D390381EE09F90381DE094002E
:106F000050C322F582758300021FF0E48FF0022146
:106F100043EEF0A3EFF04E22E4FCFDFE02226BEE06
:106F2000F0A3EFF0A3ECF0A3EDF022903CE8E09F9B
:106F3000FF903CE7E09EFE22E0FFA3E0903D30CFD3
:106F4000F0A3EFF022903CE2E0FF22E4903CE2F07C
:106F500022E4F5FF75D102E5D120E0FBE4F5D1F59F
:106F6000FFEFF172EE540F42D6E4F5FFCFEDCF8F75
:106F7000D422F5D7E4F5FF53D6F022E4F5FFE9F18A
:106F800072EA540F42D622E4F5FFEFF5D8E4F5FF9C
:106F900053D60FEE540FF19B42D622C4F854F0C8DA
:106FA000E4C4540F4822E4F5FF8FD4F5FFCFEDCFB2
:106FB0008FD522E4F5FF8FD422E4F5FFE5D154010B
:106FC00033333354F8FFE4F5FFE5D354074FFF2282
:106FD000EFB40109D2AD75FF0143AE4022C2AD75D9
:106FE000FF0153AEBF2275C80122E5C85402FF75E8
:106FF000C80222E5C85401FF22C0E0C083C082C09D
:10700000D0903E92E0B40104E4F08008903E917488
:1070100001F0C2A8D0D0D082D083D0E032C0E0C08E
:1070200083C082C0D0903E98E0B40104E4F08008B0
:10703000903E977401F0C2AAD0D0D082D083D0E025
:10704000321150E5B6540F4EF5B675FF028FB722D8
:1070500075FF02E5B65420FE221150EF540F4EF595
:10706000B62275FF0275BA4075FF02EFF5BB75FFDA
:1070700002EE540FF5BA118A4440F5B675FF02AF1F
:10708000058FB7118A4450F5B62275FF02E5B65454
:1070900020FFE5B6540F4F22118A4480F5B675FFE4
:1070A00002AFB72275FF02E5B65410FFE5BA54806F
:1070B000FDED4FFF43BA802275FF02E5BA540F443D
:1070C00040F5BA2290446CEEF0A3EFF0310675FF64
:1070D0000290446CA3E0F5B575FF0290446CE0FEAD
:1070E000EE540FF5B411FE4440F5B275FF02CFED3A
:1070F000CF8FB375FF02EB542D4410F5B22275FF0C
:1071000002E5B2542D2275FF02E5B4540F4410F588
:10711000B42280F211FE4480F5B275FF02AFB322B3
:1071200075FF0253B22D75FF028FB322EF60077512
:10713000FF0243B2082275FF0253B2F722FF900903
:107140005B122589E922E0FD7B01900A500225A906
:107150007D017B017E00021F8D122589E924DCF967
:10716000E43AFA02216F9400904119F0A3CEF07B2B
:10717000007A00790022122589E9240722EEF0A383
:10718000EFF0A30225A9FF122589A801AC02AD03E7
:107190007B0122E0FEA3E0FF7C000220A6900A71A2
:1071A000F0A3EFF022900004021FF029F9EA3CA8B6
:1071B00001FCAD03122589021F8D75F002A4F58232
:1071C00085F08322E475F001122143C3227B018FF5
:1071D000828E8322122589E4022072FFE0FCA3E064
:1071E000FD22FEEFC4F8540FC868FFEEC454F04807
:1071F000FE227B019040E31225A99040E67401F045
:10720000A322FDEDFFEEF0A3EFF022E0FEA3E029C4
:10721000F9EA3EFA227B017A1279219041E51225A2
:10722000A97A1222EFC4131313540122F9EA34FF8E
:10723000FA0225A9E4F5FFE5D154FE4402F5D12276
:10724000E475F0100221438E837F0102271A90001B
:1072500003022084E0FF7E00EEF0A3EFF022A3F013
:107260007F0F7E1D021B60E0FCA3E0FDEC227B0192
:107270007D06E4FF2275FF0375958090120EE0D322
:10728000940122900005EF022084E4FF121B657B2D
:1072900001229003C8E0FD75F0AA9003CD12257D70
:1072A000AF82AE83EF22900003022084E0F5827566
:1072B0008300EF022084122589E92FF9EA3EFA22A1
:1072C0001225A90225BE9000017402022084E0FC70
