:020000040000FA
:1000000002180002180308F308F80102180B0ABFCF
:0A0010000AC922021813166744D72C
:07001B0002181B0A7E4C02D3
:060023000218237F0222F7
:0F002B0002182BE4FF021DC502183312206422B5
:06003B0002183B0223EA5B
:0E004300021843A244922B2202184B0230EF07
:0600530002185302311CEB
:0F005B0002185BA245922E2202186375ED042253
:07006B0002186B75ED022283
:1000730002187341093700C12BC12E41093600E034
:100083000202000031A0E002020002294AE0040259
:10009300000446524545E00102001554E001020008
:1000A30016A5E00102200528E001022918FFE0015E
:1000B30002294600E005022947294A02060A4104AB
:1000C3001C0601360041041B0141041901C137011B
:1000D3003B00013900C14A412B3800412B2D00411F
:1000E3002B3600412B3700412B34FF412B6D004150
:1000F300284C004127ED055D2A8200000000000026
:1001030000000000000000000000000000000000EC
:1001130000000000000000C13D41271100C10EC1D5
:1001230032011800C12FC130412EF900C15E432AAC
:10013300D3000000412AD200412AD600412C8BFF74
:10014300C133C135C140412AFA00015200C12441E3
:100153002AEC00412AF900602825F6060A0000006F
:10016300030008FE877F88CF7FC04FFBD7FDE06782
:100173000000800C8082000100E87300800F000003
:100183006000004121640041217600412167004164
:10019300216100412169014121620141239A00C18A
:1001A30042C14341285D964128590FE00202294C80
:1001B3000039E005022980003904060AE002022919
:1001C300850807E005023187080705060AE00202F1
:1001D300318C0013E00C02318E0000030800030091
:1001E30008060A060AE00502319A0013FF060AE030
:1001F3000202319F00000075819075FF03759E0216
:10020300120820022494020317900076E47E0193DF
:1002130060F4A3FF543F30E509541FFEE493A36049
:10022300010ECF54E0B4E00EEFFAEEF9A3A3A3A3BB
:10023300DAFDD9FB80D654C025E0604B5026E49309
:10024300A3F85407240CC8C333C4540F4420C883F1
:100253004004F456800146F6DFE480B0010204084E
:1002630010204080E493A3FAE493A3F8E493A3C893
:10027300C582C8CAC583CAF0A3C8C582C8CAC58314
:10028300CADFE9DEE78085E493A3F8E493A34003A0
:10029300F68001F208DFF402020FC2D5E830E70F5F
:1002A300B2D5E4C39BFBE49AFAE499F9E498F8EC39
:1002B30030E717B2D51202D31210B1E4C39BFBE4AB
:1002C3009AFAE499F9E498F880031210B130D50D45
:1002D300E4C39FFFE49EFEE49DFDE49CFC22789032
:1002E300E4F6D8FD9000007F007E10E4F0A3DFFC6D
:1002F300DEFA902F06A3E583C394204011FEAF825C
:100303009020000E0FE48002F0A3DFFCDEFA120857
:100313002002020C2232EF90032293900800730A0A
:1003230020364CE553FF22EFF55322090400000267
:100333000A000000070582022000000705020220D0
:10034300000009040100010202010005240010015C
:100353000524010001042402000524060001070509
:1003630081030800200C3B0C400C450C4A0C4F0C3D
:10037300540C590C5E0C630C680C6D0C720C770CEE
:100383007C0C810C860C8B0C900C950C9A0C9F0C9E
:10039300A40000000000001201000202000008583F
:1003A3000600020000000000010902000000010035
:1003B300803204030409A280CACF0998445CAD5576
:1003C3000641469503860B0500000000000500006A
:1003D3000600000010000024288000002420800074
:1003E30000113821000044288000004420800000D0
:1003F30034382100003F241E16110E0B0907050493
:10040300030201F0C8A7917767604638353230247C
:100413002220140001010202030304040505060659
:100423000707092A092F09340939093E094D0952D9
:100433000961096B09C509CA09CF09DE09E809FC85
:100443000A010A060A1A0A1F0A560A5B0A60000E04
:100453001384000E18FC000E225C020202003F3FD0
:100463003F040404323232000201900BBE0BC80B6E
:10047300CD0BD20BD70BDC0BE60BF00BF50C130CEF
:10048300185A2D5761766520362E31300041952E4E
:10049300C3426044B7822D1C1613111010000301D0
:1004A300020604050B500B820B87E4FD7C0CAB05A5
:1004B3000DEB900484938F828E83F00FBF00010EA7
:1004C300DCEC01268F828E83E4F0A3740691E97439
:1004D3000A91E9A3E4F0EF2404F582E43EF583E412
:1004E300F0A3746DF022F08F828E83A3A3227B018D
:0B04F3001212327A2B797022AFEF2238
:10050800902EDCEFF0902B6FE0B40110C2ED7A2E44
:1005180079DC902C0A91F1120B2DD2ED227A0B7B0B
:100528000512B81E902B6F7401F0FBB14F7E167F39
:100538006790093FE0FCA3E04C700A90093FEEF099
:10054800A3EFF0D322C3227A2B7978902CA712122A
:1005580032902CAA7401F0A37405F07A2B797002FA
:100568000B287F01B17A902B6FE0B401047B01B1B5
:100578004F22EF600DB19DAF82AE83E4FD123AB811
:100588008010302B037F0022120AEC123DC0E433A6
:10059800FF227F0122900939E0FD75F0AA900947F2
:1005A80012121DED75F002A42432F9740935F0FA1F
:1005B8007B012290051912123290051CEDF0E4A37C
:1005C800F0ED54FE90051CF0602EE4FFB17ABF01F7
:1005D80027900519121229D10A501D90051AE475A1
:1005E800F002120F5D90051DE02402F090051DE059
:1005F800FF90051CE06F70D97F01B17A90051DE06E
:10060800FF22902BC71213D4902BCD1211EC0000AF
:100618000001902BD17401F0F5FFE5D554C07005A9
:100628001217EC5002C322E4F5FF53967F75FF01C1
:1006380075D5047F3FFE12176375FF0143D508E4A3
:10064800F5FF5394FBF5FF53847FF5FF7598FF90F2
:100658002BCBE5F4F075F49C75FF01A3E5E4F07588
:10066800E4257B017A2B79D1F1C4902BD1E0640188
:100678006002E136F5FF902BCA7414F0902BCDF18F
:1006880066FF780112118B902BCD1211E0E5A7308F
:10069800E1FB43A702902BCDF166FFE5A730E0050B
:1006A800E47B018002E4FBFAF9F8EF4BFFEE4AFE27
:1006B800ED49FDEC48FC902BCD1211E0902BCAE0DF
:1006C80014F070B8902BCDF166FF78101211787B7A
:1006D8006D7A4E79C67841121026EF2439FFEE3430
:1006E80030123231E4FBFA7901F81210B1EE547F7E
:1006F800FEE4FDFC123E3B902BCDF166FFEB6FFF55
:10070800EA6EFEE8CDEFCDCCEECCECFF902BC7F136
:10071800BBEF120E8C902BC7F1BB900001ED120EAF
:100728009E90120FE030E606E4F5FF75968075FF9F
:1007380001E4F5D5902BCBE0F5F475FF01A3E0F5C6
:10074800E41246F6902BD1E0B40103D38001C32212
:10075800E025E025E02401F582E43412F583E0FC8D
:10076800A3E0FDA3E0FEA3E022E4FFB17AEF603549
:10077800F1AED10A5005124F3C40F57B017A097958
:100788003DD10A500F124F545FFFA3E05FFFA3E073
:100798005FF460E7754B017E007F08F1AE902CD6C0
:1007A800E4F0A3F1B5227B017A09793B227404F0C5
:1007B800022952E0FBA3E0FAA3E0F922902E4912A5
:1007C80013D47F017C127D01E4FE8D828C83ED2E93
:1007D800F582E43CF583E02FFF0EEEB412EC9012A4
:1007E80013E06F6009902E49F1BBE4120E8C22FFD2
:0607F80090051402122915
:10080000C0537408C0E0C082C08375530AE5FF542A
:10081000CF4490F5FF22C0537408C0E0C082C0836B
:10082000755320E5FF54CF4490F5FF22C053740860
:10083000C0E0C082C083755336E5FF54CF44A0F5B5
:10084000FF22C0537408C0E0C082C08375534CE5DA
:10085000FF54CF44B0F5FF22908004011690980811
:10086000011690893B0116909F6701169080140134
:1008700016909FD70116909FEA011690A3E20116E9
:1008800090A42B0116908907011690980B011690E1
:10089000A525011690A651011690A0EA011690A573
:1008A0004C011690A9F4011690B043011690AB7D4F
:1008B000011690B060011690B12D011690B15D0146
:1008C000169097C00116908896011690A9120116ED
:1008D00090B488011690B8DF011690B98A0116907D
:1008E0008984011690A42401169087BA011690AF4E
:1008F00065011690CFF6011690D011011690D0FE2A
:10090000011690C954011690C0A2011690C56E013F
:100910001690C4880116909803011690D19701167D
:1009200090D19A011690D20F011690D69A01169086
:10093000D6A9011690B8B5011690BA98011690D4B0
:100940003C011690BBF601169088D8011690D6E6A9
:10095000011690CBAF0116909FF5011690BA0A01CF
:100960001690D79B011690DAD5011690D7C70116BD
:1009700090DAE5011690D872011690D417011690FE
:10098000D37E011690B18B011690B191011690D4CF
:1009900021011690D407011690877B011690D63D51
:1009A000011690DB21011690DBE7011690DBDC01DC
:1009B0001690DBDE011690DBF4011690DC100116B8
:1009C00090A441011690B909011690BD92011690AC
:1009D000BE46011690A04A0116908A000116909713
:1009E000DA011690C602011690D96B011690851097
:1009F000011690CB8A011690D591011690DA680104
:100A00001690BE17011690B4A4011690CB8F011654
:100A100090A78F011690CE510116909F97011690C6
:100A2000CD72011690CF52011690CECE011690CF06
:100A30009F011690D8C9011690DC69011690BB2A57
:100A4000011690DC6C011690DCA5011690DAA3016A
:100A50001690A3D6011690D4BE011690D57101163A
:100A600090D53A011690C790011690C619011690BC
:100A7000D2E2011690CAB801169096AD011690DD2B
:100A8000360116909E01011690A80401169098B6A2
:100A9000011690CA7D011690CAEC011690CA480151
:100AA0001690DECC011690B04C011690DEEE0116C9
:100AB00090DF22011690E01F011690DF760116905C
:100AC000E0460116908017011690835A011690E0B7
:100AD000A90116909841011690810E011690E0BD73
:100AE00001169097F7011690832A011690E0EF0106
:100AF0001690E0FA011690B3B5014290B7F80142A2
:100B000090B6D7014290B941014290BC1101429088
:100B1000B2CA014290B4AF014290BDDC014290BD27
:100B2000E3014290BF83014290BFE5014290AEF2E3
:100B3000014290B03A014290AFE9014290A99D0173
:100B40004290C033014290AA18014290AA57014234
:100B500090C0CC014290C0CD014290BB4A0142906E
:100B60009063014290C13F014290C179014290924D
:100B7000F8014290A89E014290927201429085DD58
:100B8000014290BC6A014290C1CE014290C1CF01A6
:100B90004290C1E7014290C29A014290B857014287
:100BA000908000014290C3A1014290C3B4014290E1
:100BB000C3E7014290C3F3014290C3F9014290ABF5
:100BC00094014290BB03014290B01D014290A710D6
:100BD000014290A6E1014290AFF5014290A4B70115
:100BE0004290B004014290BB1A014290A4560142C7
:100BF00090A77D014290C3FC014290BC9A014290B3
:100C0000BAA1014290A087014290BD7D014290C2ED
:100C100039014290C45B014290A14F014290A35719
:100C2000014290A691014290C4BC014290C28D0144
:100C30004290B49C014290BA28014290A061012CDC
:100C4000909EBE012C90A06B012C90A075012C9061
:100C5000A090012C90A09A012C90A0AC012C90A007
:100C6000B6012C909930012C90A0E3012C909F1795
:100C7000012C90A0ED012C90A14D012C90A15701C9
:100C80002C90A1D3012C90A1DD012C90A1FB012C73
:100C900090A1F1012C90A26C012C909C73012C90DE
:100CA0009E3D012C90A2BB012C9083C2012C90A3ED
:100CB00093012C90A394012C908000012C90A3D23E
:100CC000012C909A18012C9098DD012C90988001AD
:100CD0002C90A417012C00E709F608DFFA8046E7FC
:100CE00009F208DFFA803E88828C83E709F0A3DFEF
:100CF000FA8032E309F608DFFA8078E309F208DFC8
:100D0000FA807088828C83E309F0A3DFFA8064891B
:100D1000828A83E0A3F608DFFA805889828A83E01A
:100D2000A3F208DFFA804C80D280FA80C680D4809B
:100D30006980F28033801080A680EA809A80A88043
:100D4000DA80E280CA803389828A83ECFAE493A352
:100D5000C8C582C8CCC583CCF0A3C8C582C8CCC5E1
:100D600083CCDFE9DEE7800D89828A83E493A3F6F2
:100D700008DFF9ECFAA9F0EDFB2289828A83ECFA0C
:100D8000E0A3C8C582C8CCC583CCF0A3C8C582C8BF
:100D9000CCC583CCDFEADEE880DB89828A83E493FA
:100DA000A3F208DFF980CC88F0EF60010E4E60C33B
:100DB00088F0ED2402B4040050B9F582EB2402B4AB
:100DC000040050AF2323458223900D2773BB0106F7
:100DD00089828A83E0225002E722BBFE02E3228955
:100DE000828A83E49322BB010B89828A83F8E0C85C
:100DF00028F0E822500327C722BBFE07F8E3C828E3
:100E0000F3E8228A838982E49322BB010CE58229DC
:100E1000F582E5833AF583E0225006E92582F8E67B
:100E200022BBFE06E92582F8E222E58229F582E569
:100E3000833AF583E49322BB010989828A83F8E02F
:100E400028F022500327F722BBFE05F8E328F322FF
:100E50008A838982F8E4932822BB010FF8E582296E
:100E6000F582E5833AF583E028F0225009C582290E
:100E7000F8E58226F622BBFE09C58229F8E2258222
:100E8000F222F8EA2583F583E9932822BB0106893B
:100E9000828A83F0225002F722BBFE01F322F8BBC4
:100EA000010DE58229F582E5833AF583E8F02250C9
:100EB00006E92582C8F622BBFE05E92582C8F22292
:100EC000EF8DF0A4A8F0CF8CF0A428CE8DF0A42E46
:100ED000FE22BC000BBE0029EF8DF084FFADF02296
:100EE000E4CCF875F008EF2FFFEE33FEEC33FCEEA8
:100EF0009DEC984005FCEE9DFE0FD5F0E9E4CEFD9B
:100F000022EDF8F5F0EE8420D21CFEADF075F0086D
:100F1000EF2FFFED33FD4007985006D5F0F222C3C6
:100F200098FD0FD5F0EA22C2D5EC30E709B2D5E43E
:100F3000C39DFDE49CFCEE30E715B2D5E4C39FFFF2
:100F4000E49EFE120ED2C3E49DFDE49CFC800312DD
:100F50000ED230D507C3E49FFFE49EFE22C5F0F811
:100F6000A3E028F0C5F0F8E582158270021583E051
:100F700038F022A3F8E0C5F025F0F0E58215827084
:100F8000021583E0C838F0E822BB010A89828A830F
:100F9000E0F5F0A3E022500687F009E71922BBFE36
:100FA00007E3F5F009E3192289828A83E493F5F0D7
:100FB00074019322BB010789828A83020F5D500B63
:100FC00009C5F027F7C5F01937F722BBFE0D09F860
:100FD000E325F0F3C5F019E338F322F889828A8318
:100FE00074019325F0C5F0F8E4933822BB010A8917
:100FF000828A83F0E5F0A3F0225006F709A7F019E2
:1010000022BBFE06F3E5F009F31922EF2BFFEE3ABF
:10101000FEED39FDEC38FC22C3EF9BFFEE9AFEEDAE
:1010200099FDEC98FC22E88FF0A4CC8BF0A42CFC6A
:10103000E98EF0A42CFC8AF0EDA42CFCEA8EF0A43E
:10104000CDA8F08BF0A42DCC3825F0FDE98FF0A4CD
:101050002CCD35F0FCEB8EF0A4FEA9F0EB8FF0A4C4
:10106000CFC5F02ECD39FEE43CFCEAA42DCE35F000
:10107000FDE43CFC2275F008758200EF2FFFEE3393
:10108000FECD33CDCC33CCC58233C5829BED9AECFB
:1010900099E58298400CF582EE9BFEED9AFDEC9965
:1010A000FC0FD5F0D6E4CEFBE4CDFAE4CCF9A8826F
:1010B00022B800C1B90059BA002DEC8BF084CFCE14
:1010C000CDFCE5F0CBF97818EF2FFFEE33FEED33D2
:1010D000FDEC33FCEB33FB10D703994004EB99FB99
:1010E0000FD8E5E4F9FA227818EF2FFFEE33FEED82
:1010F00033FDEC33FCC933C910D7059BE99A40078F
:10110000EC9BFCE99AF90FD8E0E4C9FAE4CCFB22A5
:1011100075F010EF2FFFEE33FEED33FDCC33CCC86E
:1011200033C810D7079BEC9AE899400AED9BFDEC79
:101130009AFCE899F80FD5F0DAE4CDFBE4CCFAE4B8
:10114000C8F922C3E49FFFE49EFEE49DFDE49CFCFD
:1011500022EB9FF5F0EA9E42F0E99D42F0EC6480BC
:10116000C864809845F022EB9FF5F0EA9E42F0E9D2
:101170009D42F0E89C45F022E8600FECC313FCEDC3
:1011800013FDEE13FEEF13FFD8F122E8600FEFC35B
:1011900033FFEE33FEED33FDEC33FCD8F122BB011F
:1011A0000789828A830211E05005E9F8021398BB8F
:1011B000FE05E9F80213A422E0FCA3E0FDA3E0FE93
:1011C000A3E0FF22E493FC740193FD740293FE7488
:1011D0000393FF22E0F8A3E0F9A3E0FAA3E0FB22E7
:1011E000ECF0A3EDF0A3EEF0A3EFF022A88285834C
:1011F000F0D083D0821212031212031212031212C1
:1012000003E473E493A3C583C5F0C583C8C582C84E
:10121000F0A3C583C5F0C583C8C582C822A42582B2
:10122000F582E5F03583F58322E0FBA3E0FAA3E045
:10123000F922EBF0A3EAF0A3E9F022E493FB7401B6
:1012400093FA740293F922BB010789828A830212FE
:10125000295005E9F80213B0BBFE05E9F80213C2F4
:1012600089828A8302123BBB011A89828A83D0F069
:10127000D0E0F8D0E0F9D0E0FAD0E0FBE8C0E0C080
:10128000F00212325016E9F8D083D082D0E0F9D0C3
:10129000E0FAD0E0FBC082C0830213B9BBFE16E9BE
:1012A000F8D083D082D0E0F9D0E0FAD0E0FBC08261
:1012B000C0830213CB22BB010DE58229F582E583B1
:1012C0003AF5830212295007E92582F80213B0BBD0
:1012D000FE07E92582F80213C2E58229F582E5833B
:1012E0003AF58302123BBB0120E58229F582E583B2
:1012F0003AF583D0F0D0E0F8D0E0F9D0E0FAD0E0D1
:10130000FBE8C0E0C0F00212325018E92582F8D0A4
:1013100083D082D0E0F9D0E0FAD0E0FBC082C08375
:101320000213B9BBFE18E92582F8D083D082D0E041
:10133000F9D0E0FAD0E0FBC082C0830213CB22D008
:1013400083D082F8E4937012740193700DA3A39379
:10135000F8740193F5828883E4737402936860EFF4
:10136000A3A3A380DF8A838982E473EC8EF0A4CCEC
:10137000C5F0CCCDF8EFA4CEC5F02DFDE43CFCE8E3
:10138000A42EC8C5F03DFDE43CFCEFA4FFE5F02829
:10139000FEE43DFDE43CFC22ECF608EDF608EEF63A
:1013A00008EFF622ECF208EDF208EEF208EFF22276
:1013B000E6FB08E6FA08E6F922EBF608EAF608E9A1
:1013C000F622E2FB08E2FA08E2F922EBF208EAF27E
:1013D00008E9F222EBF0A3EAF0A3E9F022E0FF7BB8
:1013E00001902E05EFF0A371D475FF01122CD0608F
:1013F00002C322E5F430E602C3227FE87E03F191C6
:10140000D1FFF170400122C251D1B5902E05E0FF0D
:10141000123B3F53F4DFD251D1B57F787E00F10605
:1014200075FF0153E4BFE5E430E7FB12488A7F8A89
:10143000F1DC30E609902E061207BBE4800B75FF45
:1014400001902E061207BBE5D9120E8C75FF0143E1
:10145000E4401237C1400343F420F170400122D32D
:10146000229005145132D247C2EBE5366002C15FCB
:10147000E53730E202C3221207F8E924EC124D8965
:10148000124110A2ED9236C2EDD1A8120F8954601C
:1014900060361207F8E92403D1A120E12B902D3703
:1014A000E064046023902D36740FF01207F8902D3D
:1014B000335132122926122FED902D377405F01278
:1014C000296EA23692EDD3221207F8120DCD540FD9
:1014D000FFBF0111E924EDD1A1700A90121AE0902A
:1014E0000517F0800B1207F8120BAA900517EFF002
:1014F000E53720E05CF1EC40057F0112057A9005AC
:10150000177A05791871DDE4331207F7E924ED1233
:101510004EAE120E37EF70028033900517E0FF12C7
:101520004E25E0FE900518E0D39E4005122EA1C383
:1015300022D199FD1207F8123FBC900518EFF0E098
:10154000FF7006D2EBD21CC145EFB40204D2EBC14E
:1015500045D1A8120F89546060101207F8E92403DE
:10156000D1A120E105E4902D37F0F1EC5004C251F7
:10157000D1B5123D93E5D120E0FBE4F5301207F838
:10158000E92408F9E43ACFE9CFF5318F321207F8B0
:10159000E924B1D1A1F538AE3112499A1207F8E920
:1015A00024B1D1A11207F7E924E1D1A12FFFE4333F
:1015B000FEEF2401FFE43EFED199D3123E08500510
:1015C0007401120E371207F8E924B2F9E43A8B409D
:1015D000F54189421207F8E924E1D1A1F543D1A8E8
:1015E000120F89540790041BF07536081207F8E9AA
:1015F00024B2F9E43AFA123E2F1207F8E924E1D1B5
:10160000A1FFAD381249B67B01E4FDFF124966E443
:10161000F5FFE5D25480440CF5D2900517E0FFD1D8
:10162000992418FBE433FA7D0312405CD1A8120F11
:1016300089FFAEF0A2479246900517E0900AB6F0F7
:10164000123A5F4006A23692EDC322900517E012CF
:1016500007F7E924F1F14BA23692EDD2EBD322A2A7
:101660003692EDD2EBC322902B6FE0640170297BA0
:10167000017A2B7970120B37EF701D902EDDF0C2BE
:10168000ED7A2E79DD902BEB1204F1120B32D2EDB4
:10169000902EDDE0FF120B00229005145129E92461
:1016A000B9F9E43AFA020DCD9005145129E9240460
:1016B000F9E43AFA22902EE0E5F4F0E0547FF5F4F4
:1016C0007F827E00F1AED1FFF1865005E5FC20E679
:1016D000F7305108902EE0E04480F5F4D1F9F1861E
:1016E0005005E5FC20E6F775FF01E5D520E702C3CC
:1016F00022E5F4D330E601C3227FE87E03F1AE7524
:10170000FF0343918022CDEFCDCCEECCF153AB94CF
:10171000EF4B1246A0CBEFCBFAE59130E719F1562B
:10172000A994E9F582EF4582FFEB124F0DC3EF95C7
:1017300082E5F0958340E2E59120E708CEECCECF3C
:10174000EDCFF16322FF5129E92402F9E43AFAEFDF
:10175000020E8C75FF03AF93EF75F010A4FF227F8C
:10176000147E00F191D1FF75FF03E59120E7FB2284
:10177000E5F730E50FE5F754C07004F18640F1124B
:1017800035D5C322D32275FF03E591C330E701D3DA
:101790002275FF03D3EF9402EE9400400874FE2FED
:1017A000FF74FF3EFEEFF592EE540FF59122902D5F
:1017B000F5124F057A2D79F712468A5014902DF7BD
:1017C000E0FEA3E0FF902DF6E09F902DF5E09E4017
:1017D0000A902DF5E0FEA3E0FFF19122FEF10690C4
:1017E000120FE022C2EBA2ED9236C2EDE5F4C33057
:0A17F000E701D322E4900941F02242
:061800000201FA8FEF2245
:101808007FB8902D30E0FEA3E0FF4E228F828E83BA
:101818007F010213698F828E83E4FF02136975C802
:0218280001229B
:10182B0002319E75FF028FD675FF02AF058FD77FF2
:0C183B0001EFC36001D392ED220208EE21
:10184B00023B85EFF4045FFF6115902D33021229E3
:10185B008000C0E0C0F0C083C082C0D075D000C093
:10186B0000C001C002C003C004C005C006C0079081
:10187B002EDEE5FFF075FF02E5D430E60C75D440A3
:10188B00902D2C110D6002111475FF02E5D430E57B
:10189B000C75D420902D2E110D6002111475FF02C2
:1018AB00E5D430E40A75D410110A6003124ED375D7
:1018BB00FF02E5D430E30C75D408902D2C110D608C
:1018CB0002111D75FF02E5D430E20C75D404902D86
:1018DB002E110D6002111D75FF02E5D430E1187554
:1018EB00D402122444EF600F110A6005124EC3801C
:1018FB000612241212243C75FF02E5D430E0107559
:10190B00D401110A60098F828E837F0712136975C8
:10191B00FF02E5D530E41075D510110A60098F82EE
:10192B008E837F0312136975FF02E5D530E10A75CB
:10193B00D502110A6003124DBA75FF02E5D530E0EE
:10194B001075D501110A60098F828E837F041213E3
:10195B006975FF02E5D530E21075D504110A6009EF
:10196B008F828E837F0A12136975FF02E5D530E7EC
:10197B001075D580110A60098F828E837F08121330
:10198B006975FF02E5D530E61075D540110A60097F
:10199B008F828E837F09121369902EDEE0F5FFD0C4
:1019AB0007D006D005D004D003D002D001D000D090
:1019BB00D0D082D083D0F0D0E032E475FF02AFD428
:1019CB00CDEFCD75FF02AFD5EFFCEDCEECCEFF2208
:1019DB00902B7D1211E0902B81121232902B7D12E5
:1019EB0011B8902B6AE024FFFD902B69E034FF5E69
:1019FB00FEED5FFF902B86124EBC606B902B861218
:101A0B003721902B6AE09FFF902B69E09EFE902B75
:101A1B0086F0A3EFF0902B84124EB59FEC9E5006F0
:101A2B00A3ECF0A3EDF0710F1223796028F1BEC087
:101A3B0004C005C006C007710FE94A6005F14FFFEE
:101A4B0080027F007E00710F124D91D007D006D01F
:101A5B0005D004714451E8E94A6006124EFDFF803F
:101A6B006F7E007F008069902B84110D606D902B31
:101A7B0069124EB5EF9DEE9C400A902B86ECF0A3BD
:101A8B00EDF0800D902B84E0FFA3E0A3CFF0A3EF4C
:101A9B00F0710F1223796028F1BEC004C005C00697
:101AAB00C007710FE94A6005F14FFF80027F007E8E
:101ABB0000710F124D91D007D006D005D0047144A0
:101ACB0051E8E94A6006124EFDFF80047E007F005C
:101ADB00902B82EE8FF0120F5D808CD322902B8691
:101AEB00E0FEA3E0FFC3902B85E09FF0902B84E0FA
:101AFB009EF0902B7D1211D4E4FCFD12100B902B59
:101B0B007D1211E0902B81021229E4FEEF70037F0E
:101B1B00FF22EFD3940F4009EFC4540FFFEE4404A0
:101B2B00FEEFD39403400AEF1313543FFFEE44022E
:101B3B00FEEF30E1010EAF0622902C2E1211E09039
:101B4B002C32121232F11F9151EF6004F12E80F7FB
:101B5B00D185600A902C2E1211B8781071AF902C91
:101B6B002E71AA902C2E1211B8E48026902C3512CF
:101B7B0048B76022902C32121229E94A6012120DDA
:101B8B00CDFF71B3902C33E475F001120F5D80DC47
:101B9B00E4FF71B380D6B1C1902B647401F02212B3
:101BAB0011B87808121178E4E5C820E2FB8FEB221C
:101BBB007F01B1C5902EE27401F0902EE2E0602F10
:101BCB00F1499145902EE2EFF091F69134902B6113
:101BDB00EFF091F6902EE2E05401122AC660DBA3DF
:101BEB00E0F460D6EF30E7D2E4902EE2F080CB91B8
:101BFB00957F9F71B39145902B629143902B679189
:101C0B0043902B68B1BF902B60E0F4601BA3E0F412
:101C1B006016902B67E0FD541F240FA3F0EDC41347
:101C2B0054074480902B67F02291957FD771B37F37
:101C3B00FF71B39149902B60EFF07FFF71B3E5C853
:101C4B0020E2FBAFEB227F01B1C5305214F1499179
:101C5B0045902EE3EFF091F6902EE3E020E002C2E8
:101C6B00523052189134902B61EF122AC6600BA39D
:101C7B00E0F46006EF30E702C25291F6E4FFB1C523
:101C8B00A252E433FF227F01B1C5902B65E0121302
:101C9B003F1CB8041CC0141CC5151CCA171CDA3019
:101CAB001CDF341CE4361CE93700001CD25314EF44
:101CBB00851480802F5315EF80085315DF80035355
:101CCB00157F851590801D5316DF8516A080155343
:101CDB0017FE800D5317EF80085317BF8003531760
:101CEB007F8517B07F0CDFFE2271B31249FFEF70B7
:101CFB00FA902B67E0F4600B902EE17406F0124F14
:101D0B004C70FB902B65E012133F1D31041D3914F1
:101D1B001D3E151D43171D53301D58341D5D361DBB
:101D2B00623700001D4B431410851480802F431520
:101D3B001080084315208003431580851590801D66
:101D4B004316208516A08015431701800D431710ED
:101D5B00800843174080034317808517B0902EE10E
:101D6B00740CF0124F4C70FB22902DAC1211E090C2
:101D7B002DAC1211B8B1D1902DB0E06F6034F11FC2
:101D8B009151EF6004F12E80F7D185600A902DAC54
:101D9B001211B8781071AF902DAC71AA902DACF1D7
:101DAB0043902DB0E0FF71B3B1C1902B647401F07F
:101DBB00D322C322EFF091F6E4FFEFB4010443FE0C
:101DCB00202253FEDF22902DA71211E0F11F91511B
:101DDB00EF6004F12E80F791917F03D19A600A9006
:101DEB002DA71211B8781071AF902DA771AA902D55
:101DFB00A7F1439145902DABB1BF902DABE0FF22E6
:101E0B00F11F9151EF6004F12E80F77F01B1C5D224
:101E1B005291957F0691F491957F0171B37F039158
:101E2B00F4E4FF8095902C371211E0902C3B1212AA
:101E3B0032F11F9151EF6004F12E80F791917F03E6
:101E4B00D19A600A902C371211B8781071AF902C80
:101E5B003771AA902C37F143902C3E1248B760147F
:101E6B009145902C3B124D60902C3CE475F0011287
:101E7B000F5D80E491F6E4FFA1C57F01B1C5D2529D
:101E8B0091957F0671B391F69195902B63E0FF715D
:101E9B00B3902B66E0640222902B60E020E014915B
:101EAB00917F3D71B37F2A71B37F8071B37FA67130
:101EBB00B3B1C122902EAAEFF0E4A3F0902B6EE009
:101ECB00FFB4020A740F124F4474B9F0800DEF6423
:101EDB00047040743D124F447479F09191902EAA86
:101EEB00E06007902B6DE0FF80027FAB71B391F642
:101EFB00902EAAE0902B6DF07015902EABE0D39442
:101F0B0000400C7FFF71B3902EABE014F080EBE43C
:101F1B00FFB1C52275FF02E5E430E10675E40675F5
:101F2B00E40322E53730E20FE53720E50AE53730E9
:101F3B00E0057F0112057A221211B8E461B3919585
:101F4B007F0561B3902B8AE0FF114EEFC43354E051
:101F5B0022AB07AA06EB241FFFE43AFEEF7805CE6F
:101F6B00C313CE13D8F9F9EB541F902EE4F0AF0541
:101F7B00F154FCAF057115AE01EE14C39FC433547D
:101F8B00E0F9AF04C3EB9FFFEA9400FEE9FDC3EF5A
:101F9B009DFFEE9400FEED600FE0FD6007C3742023
:101FAB009DFD80067D0080027D007C00EF2DFFEC07
:101FBB003EFE22902B86E0FEA3E0FF902B8AE0FDF5
:101FCB00F15C902B88EEF0A3EFF0A3E0FF114EEF46
:101FDB0075F020A4FFAEF0E4FCFD902B7D1211D424
:101FEB0002100BF11F9151EF6004F12E80F7227557
:101FFB00FF02EFF452D475FF02EDF452D522902D6F
:10200B00D9121232902DDC31E4943F4003743FF02F
:10201B0075FF02E5CD20E13EE5FD254A04543FFF67
:10202B00E5DD543F6F6027902DDC11E55020902D9E
:10203B00D9121229854A8211DFAEFD11EC543F24CF
:10204B008EF582EC3406F583EFF0054A80CAE5FD88
:10205B00254A543FF5FDAF4A22902F05EFF07B0147
:10206B007A2F79057D0111097F0122902DDD121246
:10207B0032902DE0EDF0E4F54A75FF02EDD3941F9D
:10208B004003741FF075FF02E5CD20E23EE5C92544
:10209B004A04541FFFE5DE541F6F6027902DE0119B
:1020AB00E55020902DDD121229854A8211DFAEC931
:1020BB0011EC541F24EEF582EC3406F583EFF0059A
:1020CB004A80CAE5C9254A541FF5C9AF4A221212E4
:1020DB00291E8E82758300020E0AE0FFE54AC39F1C
:1020EB0022FFE54AFDEE2DFD7C00ED22902D923175
:1020FB0068E58F20E0FB316FE4FF902D92121229DF
:10210B008F8211DFF5930FEFB410EFE4FF902D9555
:10211B001212298F8211DFF5940FEFB410EF22907A
:10212B002C5B3168E58F20E0FB316F7E10902C5ECD
:10213B0011D9F593EE70F67E10902C5B11D9F594B6
:10214B00EE70F67F01317F71C4EF70FB7E10902C27
:10215B00611212291E8E827196EE70F222121232C9
:10216B0075FF012275FF01538F0675FF01538FF029
:10217B0075FF0122EFB4010771B54401F58F22758C
:10218B00FF01E58F54F04406F58F22902DE11212DA
:10219B0032902DE431E4943F4003743FF075FF021D
:1021AB00E5CB254A543FFFE5DB543F6F601E902D76
:1021BB00E411E55017ADCB513A543F244EF582EE66
:1021CB003406F583E0902DE1514280D4E54A600658
:1021DB0025CB543FF5CBAF4A22EDF0E4F54AEDD3D6
:1021EB0022902DE5121232902DE831E4941F40031A
:1021FB00741FF075FF02E5CC254A541FFFE5DC5434
:10220B001F6F601E902DE811E55017ADCC513A545D
:10221B001F24CEF582EE3406F583E0902DE5514276
:10222B0080D4E54A600625CC541FF5CCAF4A22ED8D
:10223B00254AFF7E00EF22FF121229854A82758301
:10224B0000EF120E9E054A22902A4D1211E0902AA1
:10225B0051121232E4902A76F0D3902A55E0942052
:10226B00902A54E094004001227B017A2A795690FF
:10227B002A5471CD902A4D1211B8121E30902A514A
:10228B00121229E94A600B902A76E0F58211DFFFE2
:10229B0080027F00902A76E02456F582E4342AF5FA
:1022AB0083E06F6002C322902A76E004FFF0D390A4
:1022BB002A55E09F902A54E0940050C122716F126E
:1022CB001232E4902B95F0A304F0902B9212180D80
:1022DB0070026169D3EF9420EE940040047F20805C
:1022EB0006902B92A3E0FF902B94EFF0902B8F1284
:1022FB001229902B94E0FF902A54E4F0A3EFF09076
:10230B002B8B1211B85153400E902B95E0FFA3E08D
:10231B00FEEF4E902B95F0902B94E0FFC3902B93F8
:10232B00E09FF0902B92E09400F0902B8B1211D445
:10233B00902B94E4FCFDFE12100B716F121229E925
:10234B004A6007902B94E0FF80027F00902B90E473
:10235B008FF0120F5D902B96E025E0F041D5902B7E
:10236B0095E0FF22902B8B1211E0902B8F22902B5C
:10237B0086E0FFA3E0902B92CFF0A3EFF0902B7DA4
:10238B001211B851C8902B8AEFF022758300E59398
:10239B00020E9E902EA33168E4FF902EA3121229F9
:1023AB008F8271960FEFB410F12275FF01E58F54F8
:1023BB00F62271B54408F58F2275FF01E58F5401A4
:1023CB00FF22E0FFA3E0902C3ECFF0A3EFF0227BA7
:1023DB00017A2E79DA7D013196902EDAE0FF2275A3
:1023EB00FF02E5DB543FFFE5CB543F6F7F006002FC
:1023FB007F012275FF02E5DC541FFFE5CC541F6FF4
:10240B007F0060027F012275FF0153CCFD43FB402F
:10241B009132759E0143FB0975FF03859E9E75FFE7
:10242B0003859E9E7F012275FF0243D20175FF0338
:10243B00229132E4F59E7F012275FF02AFD3EF7F2D
:10244B000030E6027F0122AD07901215E054FCF03C
:10245B00E0FFED54307E0060027E02EF4E901215CD
:10246B00F0E0FFED7E0030E0027E01EF4E901215A2
:10247B00F0229009437402F0900936E0FF120CB879
:10248B0091529009437405F02275FF0275E404E440
:10249B00F5E475FF02E5E630E012901215E0540CFE
:1024AB00600A123082901215E054F7F01202E1F13B
:1024BB00C7900938EFF0901200E0B47A1490121420
:1024CB00E0B49C0D900938E0FF64056004EFB403A1
:1024DB002EE4900942F0900942E0FFC39480501320
:1024EB00E42FF582E43412F583E4F0900942E00422
:1024FB00F080E3901200747AF0901214749CF01236
:10250B000B194003120B147B017A1279107D017F9A
:10251B0001120B0F7B017A1279117D017F21120BB6
:10252B000F7B017A1279127D017F22120B0F7A1227
:10253B00791D7F02124E7C90121DE0B401057F01C4
:10254B0012489B120AB0F1C7120AAB900938EFF090
:10255B00120BAF120AA1900938E0FF120CB3EF2453
:10256B00FFB3925E75FF0253E6BF12317B120ABABC
:10257B0012281B205E0B917D7B017A27792512098E
:10258B0070D2AF205E02C11A120B1E1208A3120CDE
:10259B00AE120B0A40F2900937E06040120ADDEFF1
:1025AB007004F1A04036E53670FCE53720E50312E8
:1025BB003DC012085DEF70FAF1415004F153500524
:1025CB007F01121EBF900937E0B40204E4FF8009BB
:1025DB00900937E0B403057F011230D1120AD8E518
:1025EB003730E1A4F17F4002E4F0E53720E50C122F
:1025FB00059DAF82AE837D01123AB8F1B3C0E012F4
:10260B0005AB90093AE0FDD0E0FF120BA0A19312AD
:10261B003158F139EF7006900937E0604D201903FE
:10262B00200647120ADDEF7004F1A0403DE536703D
:10263B00FCE53720E503123DC012085DEF70FAF19F
:10264B00415004F15350057F01121EBF900937E032
:10265B007010F139EF600BF1F3901215E04408F0B4
:10266B008008900937E0FF123104900937E0600CC5
:10267B00201909300606200103120943120B1E1202
:10268B0008A3122E1FF1FA122808EF7020F167EF42
:10269B0060051230828034F139EF702F124527EF2D
:1026AB007029F194EF64017022F1EC801E901215E9
:1026BB00E020E217F167EF600DF1415004F1535048
:1026CB0005E4FF121EBFE4900941F0202C05120A0D
:1026DB00D880221208B7900930E0FEEFC39E400568
:1026EB00EF9EFF8008900930E0F4042FFF7403D3B2
:1026FB009F5002C22CE53730E129F17F4002E4F014
:10270B00E53720E50C12059DAF82AE837D01123AB1
:10271B00B8F1B3C0E01205AB90093AE0FDD0E0FF91
:10272B00120BA0120A831244F0123169C11AF16F15
:10273B00B401027F0122900001740193B40007E4FD
:10274B0093B41802C322D3227F017E009017FCE4BE
:10275B00935EFE7401935F4E24FFB322F16FB402BC
:10276B00027F0122900941E07F0022C2AFEFF452B9
:10277B0037D2AF227F02F176900939E0900942F00F
:10278B0090093904F0C3940222200A061230047F08
:10279B0001227F0022900944E0FEA3E0FF1208BC57
:1027AB00D3EF94C8EE940022900942E0FD75F0AA95
:1027BB0090094712121DAF82AE83EF2275FF02E51F
:1027CB00E630E2037F0322E5E630E3037F0022E5F8
:1027DB00E630E1037F0422E5E67F0530E0027F016E
:1027EB00229009417401F0229009417402F0229069
:1027FB000941E0FF120CA9900946EFF0229009461F
:10280B00E07F0070027F012212276F70027F01228E
:10281B0051FD120ACE120BA5120B23900938E0645E
:10282B0001700201BF7FFF1208949004B1121232A3
:10283B007E007F1551F7BF540D7E007F1651F7BFF9
:10284B00A5047F0180027F00900936EFF0640170D0
:10285B00439004B1121229AE02312D9004B7E0FE61
:10286B00A3E09004B1124DE8E92407F9E43AFA9099
:10287B0004B4121232E92408F9E43AFE312D900423
:10288B00B7E064067004A3E0640A6008120899902C
:10289B000936EFF0900936E0701A7E007F10C00603
:1028AB00C374A09410FE7431311DD006D19AE4FF8D
:1028BB00FE12089E1209F212095C1209021244C997
:1028CB00305E05754B01802F124D33120862124F8B
:1028DB0054FE4FFDA3E0FC4DFDA3E0FB4D600BEE62
:1028EB005FFFEC5FFFEB5FF4700312077190093D24
:1028FB00E0654B900931F0E4902C2DF0902C2BF0EF
:10290B00A3F002001275FF0275E40475E40175E48F
:10291B0002229400902CD6F0A3CEF07B007A0079A3
:10292B000022AF017B017A0479B7902D3D7402F040
:10293B0002493735F0FEAF017B017A2A7978902C6A
:10294B00D6E4F0A37405F0902CD3121232E4FCFD04
:10295B00C007902CD3121229902CD6124DADD00754
:10296B000219DB902D37E024FC7002418A147002AF
:10297B004183147002417214700241AC2406600250
:10298B0041C5E536600241C5C2EB121855120BAAC0
:10299B00902EA6EFF0E53730E002416F91D0600545
:1029AB007F0112057A902EA67A2E79A71213DD409D
:1029BB0004D2EB41CE902EA6E0124E25E0FF902ED6
:1029CB00A7E0D39F4002C1A1902D36E0640F702782
:1029DB00902EA6E0FF902D3312169CFD1218551267
:1029EB003FBC902EA7EFF0E0FF7005D2EBD21C227C
:1029FB00EFB40203D2EB22123E6A121855E924E21D
:102A0B001216A1FF902D331216AB120F89FDACF0ED
:102A1B00E4FB123F88C246902EA6E0900AB6F0E483
:102A2B00FFFE123A5F503AD2EB902D377402F01240
:102A3B003FA97E00E4FCFD7BD07A127913F81210CB
:102A4B0026D1BB12029DAB07AA06902EA6E0FF7DF6
:102A5B000312405C7E447FD77D147C00120B648094
:102A6B0003D2EB22D2EB22E53720E52EE53730E01F
:102A7B00297F0112057A8022902D377401F02212E2
:102A8B001855E924EF1216A1600774FF120E377068
:102A9B0009120B5A121855020AF1902D377403F0D4
:102AAB0022D1A8D21C121855F1ED3126902D3312DC
:102ABB001232E4902D37F0120B7D22F0902B60E058
:102ACB00FFF422C3900423E094FF900422E094FFD0
:102ADB005007E475F001120F5D22F0E0131313544D
:102AEB001F7E002419F9EE3429FEAF01E4FCFD0230
:102AFB001DD17B017A2B79657D017F03120B0F7A38
:102B0B002B796E7F08124E7C7A2B796B7F0991B6ED
:102B1B007A2B79697F0B91B6902B6912180D600691
:102B2B00BEFF16BFFF1391BD5002800491C68009F2
:102B3B00902B69E4F0A37440F091BD500280089093
:102B4B002B667403F08006902B667402F0902B6555
:102B5B00E012133F2B7B042B86142B8E152B961711
:102B6B002BAC302BB4342BBC362BC43700002BA131
:102B7B0075FF015310EF8510FD804775FF01531151
:102B8B00EF800E75FF015311DF800675FF015311A6
:102B9B007F8511C9802C75FF015312DF8512CA8006
:102BAB002175FF015313FE801675FF015313EF8040
:102BBB000E75FF015313BF800675FF0153137F85FD
:102BCB0013CB121CF67F1191A8E4FF121EBF121B30
:102BDB00BB902B637402F0902B67E0247F60090499
:102BEB00701691AE740A8007121EA391AE7458F042
:102BFB00902B667403F091C6902B68E0F460028111
:102C0B00A5902B6BE0FEA3E0FF64104E7006902B9B
:102C1B0068740EF0EF64204E7006902B68740FF002
:102C2B00EF64404E7006902B687410F0EF64804E8A
:102C3B007006902B687411F0E4B5070AEEB4010628
:102C4B00902B687412F0E4B5070AEEB40206902BD1
:102C5B00687413F0E4B5070AEEB40406902B68749D
:102C6B0014F0E4B5070AEEB40806902B687415F05F
:102C7B00E4B5070AEEB41006902B687416F0E4B5B1
:102C8B00070AEEB42006902B687417F0E4B5070A18
:102C9B00EEB44006902B687418F0021E0BEF442024
:102CAB00F5FE227F1091A8902B63227B017D0202FF
:102CBB000B0F902B6EE024FE24FD22902B697401E8
:102CCB00F0A3E4F02291D6EF6401227FFA7E00128A
:102CDB0017911216FFE5FC30E60512178640F6E554
:102CEB00FC30E6037F032275FF01E5D530E6037F59
:102CFB000222E5D57F0030E7027F0122902CCA1219
:102D0B0037E8902CD07401F0C2501216F9121786C6
:102D1B005005E5FC20E6F691D6BF0108E4F5FC75FD
:102D2B00FC40800791D6BF0202D32275FF0153D816
:102D3B00EF902CCBE0FF12483475FF0153D5DF53D6
:102D4B00FAFB902CCAE0FF123B3F902CCBE0902C6F
:102D5B00CAB4080A120758245212322E80041207E2
:102D6B0058FF12346D902CCCE0FFF1E775FF017525
:102D7B00FF03759B041216F975FC42E5FC20E10577
:102D8B0012178640F3902CCDE0F075FF03E59B20E6
:102D9B00E70512178640F3E59B20E70D75FF0375DA
:102DAB009B1F1235B9D2508050D1181207C4902CEA
:102DBB00CBE0FD90120FE05D701D902CCAE0FFD1AF
:102DCB00181238D090120FE0FF902CCBE0FEEF4E94
:102DDB0090120FF01233921236AE7B017A2C79CE11
:102DEB0012468A500FC3902CCFE09420902CCEE04B
:102DFB00940340E6D1181236CA121767305002A15D
:102E0B000D902CD0E0B40103D38001C3227B017A57
:102E1B002C79D02291D07076123E24902EA8EFF010
:102E2B00D394035069902C2DE0FF902EA8E06F7087
:102E3B005D124863902EA9EFF07B017A2E79A97D64
:102E4B0001120B9B902EA8E02428F582E4342CF57C
:102E5B0083EFF0902C2D123D8B7C007D03120ED254
:102E6B00AF05EFF07028902C2BE07002A3E0601EF2
:102E7B007B017A2C79251244357B017A2C792590AC
:102E8B002C2BE0FEA3E0FFF5828E83121369223117
:102E9B005274FFFDFC22D2EB51CED21C22123E48C3
:102EAB005007E475F001120F5D22902B2F1211B811
:102EBB00E47BE87A03F9F82212450AEF70087FA049
:102ECB007E0FFDFCE164124541902B2EEFF0740652
:102EDB00D39F4067E0605AF1D47E00902B2EE01414
:102EEB00FDE5F0A805088005C333CE33CED8F9FF36
:102EFB00F1CDF1C7902B2F1211D4C000C001C0022D
:102F0B00C003902B2EE014FF74107E00A8070880DE
:102F1B0005C333CE33CED8F9FFEE3395E0FDFCD1AC
:102F2B00BB121026D003D002D001D00012100B80A0
:102F3B0028F1D4AFF07E00F1CD801E902B36E0FF50
:102F4B00600FE4FCFDFEFB7AF47901F81210268089
:102F5B00087F007ED07D077C00F1C712444E7E4275
:102F6B007F60C006C007F1BF124429D007D00612FC
:102F7B0043FB12451BEF703BD1B5D31211674007D2
:102F8B00E47F01FEFD8022D1B51210B1F1C7F1BF74
:102F9B00E47B01F1F35014F1BFC3EF9401FFEE9406
:102FAB0000FEED9400FDEC9400F1C6F1BF124595C7
:102FBB0012300422902B2F0211B8FDFC902B2F0204
:102FCB0011E07C007D6402136BF1DCEF75F0A084E3
:102FDB0022900931E064AA2411FFF02275FF018FC2
:102FEB00DA22902AD3021232FAF9F8C3021167756A
:102FFB00FF0275E404E4F5E422D2061208B7900947
:10300B0044EEF0A3EFF02290051EEFF0A3EDF05489
:10301B0002901234F0122794EF7002C32290051E17
:10302B00E0B40411A3E0FB7D017F01115590051E57
:10303B007403F0800590051F114F90051EE0900959
:10304B0037F0D322E0FB7D01E4FFEB600875FF0155
:10305B0053CDFD800675FF0143CD02ED600553FB9B
:10306B00DF800343FB20EF600775FF0243E1402243
:10307B0075FF0253E1BF2211F5700790121CE0702F
:10308B00012211F560237FFF12004E9012161211D0
:10309B00B8EF24FFFFEE34FFFEED34FFFDEC34FF01
:1030AB00FC9012161211E0800D90121CE0FF120022
:1030BB004EE490121CF0901235E0FD7F01311C9014
:1030CB001234114F7F0143FB1075FF0243E640EFB3
:1030DB00600D75FF02E5E120E7FB43FB0D80034329
:1030EB00FB0E80FE75FF028FE322E4FFFEFDFC90DA
:1030FB0012161211D4C3021167902EDFEFF0BF022C
:10310B0004E4FF8009902EDFE0B403047F0111D1AA
:10311B0022EF7011ED600775FF0143AE012275FFC1
:10312B000153AEFE22EFB40114901235EDF060079F
:10313B0075FF0143AE022275FF0153AEFD22AE07B0
:10314B00122FDCEE04FEEF8EF084AFF022302D0D4B
:10315B00120925EF6007C258120916C22D229009D9
:10316B003F12180D6009CAEECAC9EFC912136522C6
:10317B00D2ADD2BD75FF02758E71754C0975FF020C
:10318B00E58E546F4480F58E902DE91211EC000002
:10319B00000022C0E0C0F0C083C082C0D075D00850
:1031AB00C0FF75FF02E58E30E43D75FF02E58E54DE
:1031BB00EF4410F58E902DE91211B8512B902DE99B
:1031CB001211E0900000E475F001120F5DE54C3038
:1031DB00E0020519E54C700D754C09051FE51F70D4
:1031EB0002051E8002154C75FF02E58530E408755B
:1031FB00FF024385100550D0FFD0D0D082D083D0B2
:10320B00F0D0E032FF7E04FDFCE0F8A3E0F9A3E090
:10321B00FAA3E0FB121026E47B7DFAF9F81210B149
:10322B00EF2401FFE43EFEE43DFDE43CFC22902A4A
:10323B009F1211E075FF0243E180B1B9B195902A5D
:10324B00B41211EC002DC6C0E4F5FFF5A490120EDC
:10325B00F0A3F0902AAF7402F0915CFFF595EF1498
:10326B00601914602824027039902A9F120766FF98
:10327B00902AB01211E0902AAB8022902AA3120759
:10328B0066FF902AB01211E0902AAC8010902AA70A
:10329B00120766FF902AB01211E0902AADE0902A37
:1032AB00B8F0124827902AB8E0700FF5FFF5967525
:1032BB00FF0175D70975F418805B90120EE004F0CE
:1032CB00902AAFE0F1C9902AB4120766FF902AB09A
:1032DB00B189C3121167500B902AB0120766FFA376
:1032EB001211E0902AB8E0FF1246A8902AAEE0FF38
:1032FB00A3E0FDA24F924D1247D5A3120766FF9094
:10330B002DA31211E0902AAFE0FF71B8902AAF12F3
:10331B000758FF916D9164600241647402F0915CF7
:10332B00F595E5F45407701D902AB4510F780112EE
:10333B001178902AAFE0FB9150F5831211E0EB125C
:10334B000759FF916D916470D575FF03759580F1E9
:10335B00C1400343F420A24F924E124707902AB468
:10336B001207662420FFEE344E5131E4FB7A04F948
:10337B00F8511F7801121178C24C9199E4F5FFE5D1
:10338B00BD54F84404F5BD9012137401F07E127F06
:10339B0001E4FD8F828E83EF2DF582E43EF583E011
:1033AB00FC901213E02CF00DEDB412E722902DA23D
:1033BB00EFF0E4A3510F7801121178902DA2E0FBEE
:1033CB009150F5831211E0901210E064806075E06B
:1033DB00C3947F503BEB9150F583C083C08212079F
:1033EB0066FFEEC0E0EFC0E0901210E075F004A4B1
:1033FB00AEF0FBCAEECAEA3395E0F9F8D0E0FFD0A5
:10340B00E0FEC3EF9BFFEE9AFEED99FDEC98802C4E
:10341B00902DA2E09150F583C083C082B1899012A8
:10342B0010E0F40475F004A4FFAEF0EE3395E0FD6C
:10343B00FCEB2FFFEA3EFEE93DFDE83CFCD082D0E1
:10344B00831211E02225E025E02401F582E43412F9
:10345B002275FF03902AAFE022902AAFE0FF14F011
:10346B00EF22902DF91211E075FF01902DF9A3E0D9
:10347B00FDA3A3F1DB8FE1902DF9A3A3E0FEA3F154
:10348B00D18FE2902DF9A3A3A3E0FF8FE322902B22
:10349B00031211E0E4F5FF75BB0575BB8575FF01E4
:1034AB0075D502204C087F3FFE121763D1AE75FF16
:1034BB000143D520304C02A15BE4F5FF538EF7435B
:1034CB008E077D04E4F5FF8DBCF5FF43B102E5B13A
:1034DB0030E2FBE4F5FFAFDFEFFEACDEECFBEBFF26
:1034EB00ED25E02401F582E4342BF583B182F5FF61
:1034FB00F5FF53B1FD0DEDB40CCA902B031207660B
:10350B00FF7809121178A3B182FDED25E0240BF5AC
:10351B0082E4342BF583E0C313FAA3E013FBB175FC
:10352B00F1282BFFEE3AFEB175EEF0A3EFF0ED2490
:10353B000490120DF0EDC394075015CFEDCF0DEFA6
:10354B00B176F121902B08E09F902B07E09E50BAAB
:10355B00E4F5FF758EC8F5FF90120DE0F5BCE4F5B0
:10356B00FF75BB8075FF01F5D522ED25E02409F52C
:10357B0082E4342BF58322EEF0A3EFF0E422E0F8A3
:10358B00A3E0F9A3E0FAA3E0FB22B1AF53DB7F7515
:10359B00FF0175D50212175FB1AF43DB8075FF01D9
:1035AB00E4F5D52275FF01438E1075FF0122E5FA74
:1035BB0030E1FB75FC8075FF0153D5EFE4F5FC752D
:1035CB00FC40B1D5E5FC20E6FB2275FF03E4F59149
:1035DB0022E4902DFDF0A304F0E4902E00F0E5FA28
:1035EB0030E1FB75FF01E5D530E7037F0022E4F501
:1035FB00FF75E50875FF0153D8EFE5D530E61A7571
:10360B00FF01902DFFE5DAF0E4F5DA75FF01E5D661
:10361B0030E3FB902E007401F075FF03759B04756E
:10362B00FC4175FF03E59B30E7FBE4FB75FF038B68
:10363B0095EB120759FF916D0BEBB403EF75FF037D
:10364B00759580E4F5FF758EC8D1AE75FF0153D526
:10365B00FBB1D512175F75FF0143D504902E00E027
:10366B007007B1D57FC81217617B017A2D79FED116
:10367B00CA902DFEE0902DFD7006E04404FF800201
:10368B00E0FF902DFDEFF090120EE0B4010675FFF8
:10369B000143D81075FF01902DFFE0F5DA902DFD59
:1036AB00E0FF22E4F5FF75C2E17F1E1217DC30E765
:1036BB0007E4F5FF75C2A122E4F5FF75C28122C2B2
:1036CB004B75FF03759B1F75FF0390120FE020E7EF
:1036DB001BE59A540FC394024012E04480F0E4F5CA
:1036EB00FF75C2A143FC0475FF03D24BE5FC30E62A
:1036FB0009E59A540FC3940540CDE5FC30E611E47F
:10370B00120E8C75FC80F5FC75FC40E5FC20E6FB8D
:10371B00304B02719222E0FEA3E0FFC322E0C31301
:10372B00FEA3E01322902E09F1E5F1AAAC00AD0146
:10373B00AE02AF03C006C007902E09F128FBAA0604
:10374B00E4F9F8D007D006D31211517E0050047F54
:10375B000180027F00C006C007F1AAD0E02FFFD086
:10376B00E03E902E09F0A3EFF053ECFC902E09E015
:10377B00FCA3E0FDEC540342EC75FF02EDF5AF75D5
:10378B00ED0275ED04A3E0600543EC08800353ECF8
:10379B00F7902E0CE0600443EC042253ECFB2290D8
:1037AB002E09E0FEA3E0FBAA06E4F9F87F807E3841
:1037BB007D01FC02029D90120EE0D3940122333363
:1037CB003354F8F5F422E4FFE4FDFC780802117899
:1037DB00E4FFFEE4FC7810021178EEF0A3EFF0A307
:1037EB00EDF0A3EBF0221217EC50071248945002A5
:1037FB008001C322AF36EFC36001D322EFC3940E17
:10380B00500590041CEFF022E539540FFF22E539E7
:10381B00C394F0501F5339F01142FE740FC39F40F5
:10382B0005EE940E400543390D8003EF4239E5391F
:10383B00540FFF227F0022E539C4540FFEEF900492
:10384B0016932E221142FFC3940E40027F0DEF9070
:10385B0003F893FF22EF30E30774332DF8E6FF22D2
:10386B00743D2DF8E6FD203704EE30E00BE539C34F
:10387B0094F0502011A28018E53B6006FDE4F53B67
:10388B008012E539C394F0500BE539540FFF6004F7
:10389B00114FAD07AF052290041CE0FDFFC3740E62
:1038AB0011C9EFC4F8540FC868FFEEC454F048FEBA
:1038BB00E53954F0C3D1087F005002AF05229FFFBA
:1038CB00E49400FE22902E01EDF0901211E0F460D2
:1038DB0005A3E0B4FF0C902E037418F0A37413F03F
:1038EB008010901211E0902E03F0901212E0902EA7
:1038FB0004F0120DCD640160024139902E01E0FEFF
:10390B0064086004EEB40408902E027428F080065C
:10391B00902E02743AF0EF120759FF121143E45143
:10392B003AEF24D8FFEE343FFEED3493FDEC341622
:10393B00FC7B007A807903780012029DD13B902E9C
:10394B0004E0FF902E03E0C311C9E4FCFD12102626
:10395B00ECC0E0EDC0E0EEC0E0EFC0E0902E04E084
:10396B00FFE4FCFDFE513AD0E0FBD0E0FAD0E0F9E9
:10397B00D0E0F8EB2FFBEA3EFAE93DF9E83CF89092
:10398B002E02E0FFE4FCFDFE121026EF2454FFEEA6
:10399B00340B123231E47BA87A16F9F812029DCB64
:1039AB00EFCB902E01E014605D14601B24FE600CC5
:1039BB0024FC707AE4F5FF75CE318006E4F5FF75D3
:1039CB00CE21F5FF8BCF22E4FAE4F5FFEA2440F594
:1039DB00CEE4F5FFEAFFC3740711C974982FF58283
:1039EB0074043EF583E45142C39DF5CFE4F5FFEA41
:1039FB002448F5CEE4F5FFEA90049851422DF5CF1B
:103A0B000AEAB408C422E4F5FF75CE01F5FF8BCFAB
:103A1B00F5FF75CE0EF5FFEB25E0F5CFE4F5FF7561
:103A2B00CE0FF5FFCFEBCFEB75F003A4F5CF227BD9
:103A3B0064FAF9F80210269325E0FDE433FCEB75EC
:103A4B00F010A4FFAEF0120ED2CDEFCDEBFFE4C31E
:103A5B0013EF13224337015337DF900AB6E0FD1102
:103A6B0060900AB6E0FDD17F4004E4F5362243FABC
:103A7B00045337FB30460451AE800A7F5551927F79
:103A8B00555192D2EBD32275FF01E5D520E602C347
:103A9B0022E5FA540360FA75FF018FC3D322713FFD
:103AAB0043FA04E4F5FF53D1FD43D101229004CF37
:103ABB00EEF0A3B1F3E536707A1217E45005C2515C
:103ACB001216B59004CFE0FEA3E08E31F532A312AF
:103ADB00122990041D121232AE31AF327DAAB19F62
:103AEB00E4F5FF75D908F530E5375421602BE53740
:103AFB0030E504E4FF713FE49004D4F09004D4E08B
:103B0B0004F01235DCEF60099004D4E0C39410404C
:103B1B00EB7F02120CD15337DEB188B17E5005E03A
:103B2B0004FF80027F0051A9D2511216B5D2EBA22D
:103B3B003692ED2275FF01E5D530E602C322E4F59E
:103B4B00FF439A80EF1237C9E4F5FF539A7FD322D4
:103B5B00C2511216B5B193E5D120E0FBE4F5FF7528
:103B6B00D908B188B17E5005E004FF80027F005177
:103B7B00A9D2511216B5E4F53022C0E0C0F0C083D3
:103B8B00C082C0D075D008C0FF75FF01E5D530E607
:103B9B00047F028009E5D57F0030E7027F018F3A71
:103BAB00E53A640260028147E53612133F3BD101CF
:103BBB003BE4023C30083BEF093BFA0A3C080B3C68
:103BCB00250C00003D5775FF0175C355153CE53CB1
:103BDB006002A157753602A15775FF0175C3F075C9
:103BEB003609A15775FF0175C35575360AA157756F
:103BFB00FF0190042EE0F5C375360BA15775FF013D
:103C0B0090041AE0F5C3753601753C0890043DD15C
:103C1B001A6002A15775360CA157902D377406F018
:103C2B00753600A157C2EB753600433704D14840B7
:103C3B0002A157E475F001120F5DA157E53A64013B
:103C4B006002A157B1F94002A157E530705075FFE2
:103C5B0001F5EA75EAFF90041D121229E5D9120E3F
:103C6B008CB172E09004FFF0D1A2D156900419EF01
:103C7B00F09004FFE0FFD394094054EFD394AA4093
:103C8B0002804C9004FFE0F538D12490121AEFF02B
:103C9B0075FF009004FFE0F5D9753003A157E530AF
:103CAB0064036002A15790041DD100E9240112178F
:103CBB004B75FF00E5D330E01AC3900429E094FF65
:103CCB00900428E094FF5007E475F001120F5D712A
:103CDB005B8079C2511216B575FF00B196E5D12004
:103CEB00E0FBC2EB433702B16BA3E0FF90093CE072
:103CFB00FEEF6EB16AE090093BB164A3A3E09009BB
:103D0B003DB164A3A3A3E0FE90093EE0FDEE6D4F31
:103D1B006016C390042BE094FF90042AE094FF50AC
:103D2B0007E475F001120F5DC3900425E094FF903A
:103D3B000424E094FF5007E475F001120F5D753019
:103D4B00001538B172E538F090093AF0D0FFD0D0B9
:103D5B00D082D083D0F0D0E032FEE0FDEE6D4FFF8D
:103D6B0085328285318322E5322407F582E43531B1
:103D7B00F58322C3EF9403EE648094802290121A91
:103D8B00E02401FFE433FE22E4F5FFE5D154FE44C9
:103D9B0002F5D122E4F5FF75D102E5D120E0FBE479
:103DAB00F5D1F5FFEFD111EE540F42D6E4F5FFCF6D
:103DBB00EDCF8FD422E53670281217E45005C2518F
:103DCB001216B51235B97F08120CD1B193E5D1207B
:103DDB00E0FB4337205337FEE4F530A23692EDD3A8
:103DEB0022C322E4F53680CDEFF0A3021232E5F7C1
:103DFB0054C024FF22121229120DCDFF229FEE6414
:103E0B0080F874809822F5D7E4F5FF53D6F022742E
:103E1B00FFF5F0120F5D45F022E5F4541813131360
:103E2B00541FFF22E4F5FFE9D111EA540F42D622C9
:103E3B00C8ECC8C9EDC9CAEECACBEFCB22C39004FC
:103E4B0021E094FF900420E094FF22EF24FE600C0D
:103E5B0024FE600580007F01227F02227F0322E582
:103E6B003720E50CC2511216B5B193E5D120E0FB1A
:103E7B00E4F53022900AC9EDF0A3EFF07F01120CAC
:103E8B00D1900AC9E0FFA3E0FBE4902CCDF07D02BA
:103E9B00122D0750ECD322E5F75406FFBF06037F24
:103EAB000822E5F75406FFBF04037F0422E5F7540D
:103EBB0006FFBF02037F02227F0122900943E064C9
:103ECB0002701F8F3DAF058F3EAF038F3F9004CC29
:103EDB00E0F533A3E0F534A3E0F535AF3D120AB5B9
:103EEB00D322C322900AB1121232F12CE53D120EED
:103EFB008C900AB1F141E53EF129F132FAE53FF13F
:103F0B0029E92403F9E43AFAE533120E8C900AB14D
:103F1B001216ABE534F129F139E535020E8C120E90
:103F2B008C900AB1021229E92402F9E43A22E9241D
:103F3B0005F9E43AFA22121229E92401F9E43AFAD2
:103F4B0022E53954F0C4540F2FFFC3941040027F65
:103F5B000FEF90040693FF227E10EE60091EEE9089
:103F6B00040693B507F4EEC3940E40027E0DEE905B
:103F7B0003F893FF22C2AFEF4237D2AF227536015F
:103F8B00753C0790042EEFF090041B7403F0C37480
:103F9B00799B90043EF0E4940090043DF022900451
:103FAB003DE0A3E0FF227D021205BBEFC36001D30E
:103FBB0022120DCDFB900ACBEFF0A3EBF0900ACBC6
:103FCB00E0124E9DE0FEB402037F0022EE701E90C5
:103FDB000ACBE0FF124E9D7401F090042CE0FCA381
:103FEB00E0FDEF124050ECF0A3EDF0802AED241B26
:103FFB00FFE433FEE4FCFD7B0CFAF9F812029DEFB3
:10400B002405FF900ACBE01150E0FCA3E0C39FEC2A
:10401B00940050037F00229029C5E0B4FF15900A4D
:10402B00CCE0540FFFBF0103E4800490043CE0900C
:10403B0029C5F09029C5E060037F02229029C57441
:10404B00FFF07F012225E024BFF582E43429F583BC
:10405B0022900AB7EFF0ED24FE60191460262402BB
:10406B00703BEB2402FFE43AFE7C007D50120EC045
:10407B007D60801E11D0C333CE33CED8F9FF7C00C8
:10408B007D28800E11D0C333CE33CED8F9FF7C0000
:10409B007D64120ED2900AB8EEF0A3EFF0900AB73F
:1040AB00E011DBC083C0821211D4900AB9E0240165
:1040BB00FF900AB8E03400FEE4FCFD12100BD08236
:1040CB00D0830211E0EB2401FFE43AFEEF780322E8
:1040DB0025E025E02430F582E43404F58322EF114A
:1040EB00DB1211B802119EE49004303107900434B6
:1040FB003107FFFEFDFC9004380211E0FFFEFDFCD2
:10410B001211E0E42290093BE0F4FFA3E06FFFA360
:10411B00E06FFFA3E06FFF6455601DEF640560184F
:10412B00EF64256013EF6445600EEF64656009EF83
:10413B00644A6004EFB40A010F90041AEFF022A254
:10414B00EB9248C2EB7A0479207B017D0CE4FF12E1
:10415B000858A24892EB22A2EB9249C2EBEBC0E0CB
:10416B00EAC0E0E9C0E07B017A047920318FD0E02E
:10417B00F9D0E0FAD0E0FB7F0C120885A24992EB54
:10418B0022121229902CE3021232902DED121232D0
:10419B0071E631EA120DCD902DF0F0902DED318CB2
:1041AB007B019104902DF0E0B4011931EAE924016F
:1041BB001216A1902B34F074FE120E8C902B3374CC
:1041CB0005F08015902DF0E0FF64066004EFB40756
:1041DB000D902B33E0600231F031EA120CBD2290CE
:1041EB002DED0212297401F0902B33E06402702044
:1041FB007C417D957F0112097F7E427F60C006C0A6
:10420B0007E47FD07E07FDFC9129D007D00661FB28
:10421B00902B33E064037018FFFE122FC5902B37E1
:10422B00E07C417D95B402047F0380117F02800DF9
:10423B00902B33E0B4040B7C417D957F0412097FF6
:10424B008013902B33E0B4010B71F471E6710DE424
:10425B00902B33F02271E6902B33E0B4020A71F409
:10426B00902B337403F08080902B33E06403707ACF
:10427B00902B35E06057902B37E0B40105120A976D
:10428B00800A902B37E0B40203120A9C902B35E086
:10429B0014F0E06020122FDCEF75F04684E5F0752A
:1042AB00F064A4FFEF24A0FFE5F0340FFEE433FD30
:1042BB00E433FC8007E47FA07E0FFDFC902C76128C
:1042CB0011E07E427F60E4902C7AF061FB902B33FF
:1042DB007401F031F3902B3A74FDF0902B39740785
:1042EB00F07B017A2B7939020CBD902B33E0B404AF
:1042FB0010910DEF6008122926E4FF022EC3120A5B
:10430B009722901215E05403F022902CBCEFF0C2D0
:10431B004A120A42EF542364206023902B33E0604F
:10432B001D7B017A2C79BD318F9104902CBD7406C5
:10433B00F0A3E54BF07B017A2C79BD120CBD902CD0
:10434B00BCE0607D71DDE0600231F0902CBCE0FFE1
:10435B00B40107902B3774018009EFB40310902B35
:10436B00377402F0710D902B357404F0804BEF64B1
:10437B00047038120A42EF5423FFBF2013D24A9124
:10438B001DEF7004710D9115902B337404F0803573
:10439B00120A42EF5432FFBF020C900938E0B40509
:1043AB0005E4F0120A92710D7F0022902CBCE0B450
:1043BB000213E4902B35F0710D902B337402F080C7
:1043CB000471DD04F031F3902B33E07F0060027F4A
:1043DB000122E4902B37F0902B3322902B38E0FF07
:1043EB001208ADE4902B38F022E4FDFCFF02097FAC
:1043FB001208B2902B38EFF0227A2B79397F060214
:10440B000885901215E05408FF22901215E0440421
:10441B00F022901215E07F0030E2027F0122902CF7
:10442B00761211E0E4902C7AF022C003C002C00196
:10443B007B017A2C7928318FD001D002D0037F03F6
:10444B00020885910DEF6010E47FA07E0F122FC53F
:10445B00901215E054E7F022901215E0FF74E0D3B0
:10446B009F4005E02410F022EF6410901215F0220B
:10447B00E51864066006E5186407702F902B2DE095
:10448B006003F47026E4FDFC7F01120A747E447F06
:10449B00B7C006C0077F587E807D047C009129D071
:1044AB0007D0061208B2902B2DEFF02291BB80C0E3
:1044BB00902B2DE0FF1208ADE4902B2DF022E49011
:1044CB002D37F0FBFAF9902D33021232120B5A9062
:1044DB002D36E014F06005A374058005902D37741C
:1044EB0007F002296E902D37E0FF64066004EFB4ED
:1044FB00010312296E22902C2BEEF0A3EFF02290E9
:10450B001215E05414FFBF14047F0180027F0022B8
:10451B00901215E07F0030E0027F0122902B33E0F8
:10452B00B4040D902B38E06007B11BEF7002FF2233
:10453B00902B33E0FF22901215E0C4135407FF2297
:10454B009026A1E070087B017A267999B16D9026AF
:10455B00A1E044C0F09026A4B1749026A8E054FECC
:10456B00F0227D107F23020B0FE054FEF0A3E044FA
:10457B00C0F0227405D39F500B7463C39F4005900A
:10458B002B36EFF0902B36E0FF22902DF11211E03D
:10459B00B1D4E47BFF122FF3501CE4B1D31210B152
:1045AB009012161211E0E47BFFFAF9B1D31210B19D
:1045BB0090121CEBF0229012161211EC000000006E
:1045CB00B1D490121CEFF022F8902DF10211B8909B
:1045DB002D9D1211E0902DA1E05402901234F09019
:1045EB002D9D1211B880A3EF600775FF0253E6BF34
:1045FB002275FF0243E64022EF14600F146014246F
:10460B000270188B8075FF018DFD228B9075FF0159
:10461B008DC9228BA075FF018DCA22AF038FB07598
:10462B00FF01AF058FCB22902CC4121232EF146016
:10463B00111460182402701ED16CE580D172E5FD57
:10464B00801CD16CE590D172E5C98012D16CE5A0CC
:10465B00D172E5CA8008D16CE5B0D172E5CB020E00
:10466B008C902CC7021229120E8C75FF01902CC452
:10467B00021229E4F5FFAF9122E4F5FFAF9222126B
:10468B001753AD94EF4DD1A08FF0120FECE591C302
:10469B0030E701D32224FBFFE5F034FF22EF30E0BB
:1046AB000E43F401E4F5FF43A404F5FF759624EFE4
:1046BB0030E10E43F401E4F5FF43A408F5FF7596D2
:1046CB0024EF30E20943F402E4F5FF75961EEF3058
:1046DB00E30943F404E4F5FF75961075FF01EF54FD
:1046EB0003600475D7122275D72D22E4F5FF75846C
:1046FB00E6F5FF439404F5FF75981422E4F5FF7576
:10470B00933F75FF03759A40D1F6E4F5FF759C93C3
:10471B00F5FF75A1A3F5FF758531F5FF758628E5C6
:10472B00FA54304480F5FA75FF0175E74A75FF02BC
:10473B0075DF4975FF0143D30475FF0153D367E45C
:10474B00F5FF53E6BF75FF0175D825F5FF75B5036A
:10475B00F5FF75B215F5FF75BA02F5FF75AFB3F539
:10476B00FF75CD0AF5FF75CB08F5FF75CA12F5FF7E
:10477B0075BF0EF5FF75CC96F5FFF5BDF5FF75C250
:10478B0081F5FF75AEE1F5FF75DA55F5FF75F5802F
:10479B00F5FF75E903F5FF75E933F5FF75972A7595
:1047AB00FF01759B42759CA4759D29759E48759F4D
:1047BB002475A11275A312759AF8204E0CF5FF43C0
:1047CB00968090120FE04440F022CCEFCCCFEDCF8F
:1047DB0074017E00C8EFC8088005C333CE33CED832
:1047EB00F9FFCDECCDEF5D601B304D1875FF0175FA
:1047FB00DCAD75FF0175DDCDE4F5FF759A74F5FF42
:10480B007594842275FF0175DC5375FF0175DD33DB
:10481B00E4F5FF759A14F5FF7594042275FF017585
:10482B00E46575FF0175D6472275FF01E5D530E6C6
:10483B0002C32253FACFEFB4080543FA308012EFCC
:10484B00B4040543FA208009EFB4020543FA108043
:10485B0000D322118AAFD922E4FFE5F754C06002DE
:10486B0080F175FF01E5D530E30D118350F4115E36
:10487B00EF60EF118350EB2275FF01E5E4332275F6
:10488B00FF01E4F5EA75EAFF22E5F754E024FF2285
:10489B00EF600775FF0243E6102275FF0253E6EF48
:1048AB0022E5ED30E2FB75ED04AFEF2274FFF5F07E
:1048BB00120F7345F022E5ED20E0FB8FEF22EF6046
:1048CB000443EC042253ECFB22EF600443EC08227C
:1048DB0053ECF722E5ED5402FF22E5ED5404FF22E1
:1048EB00E5ED5401FF22902B62E0120E8C902B67AA
:1048FB00E0900001120E9E902B68E0900002020ED9
:10490B009EAB05E4FCFD902DB0EBF0021D74902ED8
:10491B0052E075F005A4248BF9742435F0FEAF0139
:10492B007B017A2A797D902D3D7405F0902D3A12FA
:10493B001232E4FCFDC007902D3A121229902D3D46
:10494B00E0FF902C3EE4F0A3EFF0D007021E309076
:10495B002B64E0FF22E4902B64F022E4F5FF75D189
:10496B0002E5D120E0FBE4F5FFF5D1EF6008E4F5BB
:10497B00FF43D2808006E4F5FF53D27FEB6006E461
:10498B00F5FF43D104ED6006E4F5FF43D10822E4C3
:10499B00F5FFEFF5D8E4F5FF53D60FEE540FC4F83F
:1049AB0054F0C8E4C4540F4842D622E4F5FF8FD428
:1049BB00F5FFCFEDCF8FD522E4F5FF8FD422E4F5B1
:1049CB00FFE5D1540133333354F8FFE4F5FFE5D35E
:1049DB0054074FFF22EFB40109D2AD75FF0143AE6F
:1049EB004022C2AD75FF0153AEBF22E5C85402FF92
:1049FB0075C80222E5C85404FF22E5C85401FF2202
:104A0B00902DD4121232E4902DD7F0A3F0902DD725
:104A1B00E0902DD471F1902DD7EFF06010E0FFC234
:104A2B005C1209EDEF6006902DD8E004F0902DD7C5
:104A3B00E070DAA3E0FF22902BAF1237E87F02126F
:104A4B000AD3902BB8121232EA494B606B902BB001
:104A5B00E0FF51E5E924B612174BE49003F8F09010
:104A6B0003E6121229510B51E5E924EF12174B60A3
:104A7B000D902BAFE0444251E4E924E251EB902B33
:104A8B00B1E0FF30E11E51E5E924BB51EBEF54FCE3
:104A9B00902BB1F0FE902C1DE054FDF051C651F45B
:104AAB007D01800E902BB1E054FEF0FE51C651F407
:104ABB007D02120B6E7F01227F0022902BAFE0FF55
:104ACB00902BB5E090048EF0A3EEF0902BB6E0FDAA
:104ADB00A3E0900490CDF0A3EDF0902BB802122937
:104AEB00F9E43AFA74FF020E8C900492121232908F
:104AFB002BB2021229902BBC121232902BBBEFF06F
:104B0B00FE902BC67403F0902BC3E05437F0E0FFFC
:104B1B005420902C1FF0902C1EEEF0902BC4E0FD37
:104B2B00A3E0902C1BCDF0A3EDF0902BBF1212291C
:104B3B00902C22121232902BC2E0902C20F0902B52
:104B4B00BC1212299003E6121232EF4420902C1D56
:104B5B00F0E4902C21F0C21DF551902BBC121229C0
:104B6B00AF511208D58F51EF601E7D03120A6A40B8
:104B7B00E9AF51120A655008902BC67401F08008FA
:104B8B00902BC67402F080D2902BC2E0FED394819E
:104B9B0040037F0022902BC3E0FB902BC630E0102C
:104BAB0071DDC00371E5902BB5EE71F8D003802059
:104BBB0071DD71E5902BC2E0902BB5F0902C1BE0D2
:104BCB00FBA3E0902BB6CBF0A3EBF0902BC3E0FB59
:104BDB004142E0FF902BBBE0FD22902BBF1212292C
:104BEB00902BB2021232FF1212290208D5F0A374D5
:104BFB004CF0A37402F022EF6004902C21F0900390
:104C0B00F8E09003E671F19003F8EFF06052201D8D
:104C1B004F902C1FE0C330E501D39220902C1EE067
:104C2B00FD902C22121229917F902C20E09004747D
:104C3B00F0902C1DE0900475F0A3748071F8900334
:104C4B00F8E0FBE4FF120B78EF7021902C2174023B
:104C5B00F0902C1BE0FEA3E0F5828E837F0280098F
:104C6B00902C21E0902C1B918512136922F07B0173
:104C7B007A277925900471021232FFE0FCA3E0FD44
:104C8B00F5828C8322C003C002C001902C14121237
:104C9B0029902BBF121232902C17E0902BC2F09060
:104CAB002C18E0902BC3F0902C19E0FFA3E0902B75
:104CBB00C4CFF0A3EFF0D001D002D003AF4B610013
:104CCB00E4FF302B037402FF22200005D2130209EC
:104CDB00B6C322902F06E0701C7BFF7A0379457DCB
:104CEB0023120AF67BFF7A03792E7D17120AF690B0
:104CFB002F067401F022020AFB75FF01E58F5408A1
:104D0B00FF22EFB4010775FF0143AE202275FF01AF
:104D1B0053AEDF22EFB4010775FF014391202275DB
:104D2B00FF015391DF22C2077B007A00794B902D54
:104D3B00411212320B7A09793B2275F005A424F348
:104D4B00F9740035F0FEAF0122FDEF4DFFE5F08F5A
:104D5B00F0020FECFF121229EF020E8CF0A3F0A35E
:104D6B00F0A3F02275F01DA42463F9740535F0FE51
:104D7B00AF0122F0A3EDF0A3EAF0A3EBF022F9E4EC
:104D8B003AFAE4020E8CE92FF9EE3AFA902B88E00E
:104D9B00FFA3E0902C35CFF0A3EFF022902CEA028A
:104DAB001232E0FFA3E0902B84CFF0A3EFF0228F21
:104DBB00828E837F06021369902AFAE0540F6406F1
:104DCB0022E4120E8C0429F9E43AFA227B017A03CD
:104DDB0079E022121229E92FF9EA3EFA22FF121288
:104DEB0029C3E99FF9EA9EFA227A0479157F040216
:104DFB000885EFC454F0FF0212292FF9EA3EFA029C
:104E0B000DCD7B01902CF9F0A374FFF022242EF929
:104E1B00E43AFA7D04E4FF02085824F3F582E43403
:104E2B0003F58322A3F0E4A3F0A322E0FCA3E0FDAF
:104E3B004C22E99582EA958322242DF9E43AFA74FF
:104E4B0040020E8C7B017A2D79987F030208857BBB
:104E5B00017A2D799B7F020208858D828C83021348
:104E6B00699004A6F0A3EFF022AF03EAF0A3EFF0F2
:104E7B00227B017D01020B0FAF05ECF0A3EFF022BB
:104E8B00EEF0A3EFF0AA06F97B0122121229E92416
:104E9B00B7222414F582E43429F583229004747428
:104EAB0003F022F9E43AFA740122E0FCA3E0FDD30B
:104EBB0022EEF0A3EFF04E228F828E837F0202133D
:104ECB00697B017A277929228F828E837F050213D2
:104EDB006974FF120E37020DCD902D66ECF0A3ED29
:104EEB00F022F9EA34FFFA020DCDF0A3EDF0E4A3C2
:104EFB00F022902B86E0FEA3E022EEF0A3EFF07BF6
:104F0B0001222DF582EA3CF583227431F0A374A0C3
:104F1B00F022FF54F0C4540FFE227401F0AE04AF24
:104F2B000522AA06A907021365E0FFA3E0FEC39FB3
:104F3B002290093BE0C394C022902EABF0902B6DD6
:104F4B0022902EE1E014F0E02290093BE0FFA3E079
:014F5B002233
:107F7E000200022490294A02060A02294C29800096
:107F8E003904060A0229853187080705060A0231D7
:087F9E008C319A0013FF060A62
:107FB000FFFFFFFFFFFFFFFF7FC600000000000084
:067FC000000003080000B0
:108000007B01E4FFAE051DEE6009EF120E8C12E35A
:108010007480F122022AF7902E29123DF312E09388
:1080200031064AC36001D34002210412E088501592
:10803000E0FF9404500280027F04310612C7DE1272
:10804000955E12E2DE902AD31216AB12E3183105C8
:1080500024E87153902AE1310524F27153902AE704
:10806000310524F37153902AE8310524F4715390BB
:108070002AE9310524F07153902ADF310524F1718A
:1080800053902AE0310524F5129D8D12E287EFF01E
:10809000902AD31212291297F7E4902AD6310512AA
:1080A0009D8B45F0604F902E29E0602BA312122982
:1080B00012955E7A2A79DA12E12912E2CDC003C064
:1080C00002C0013106129D8BF58285F083D001D06C
:1080D00002D003E4FF801B12E2CDC003C002C00146
:1080E0003106129D8BF58285F083D001D002D0033A
:1080F0007F01121369902D37E0B40402E4F01229D5
:1081000026122FED22F0902AD3121229E922E490B0
:108110000ABB12E34C1298ABE054F0644070024189
:1081200043E4900ABAF0900ABAE0FEC39404503EC9
:1081300075F0F7EE1298B0E0FEB4010712E32AE4FE
:10814000FF802BEEB4020C900ABCE0B4FF0512E3F2
:108150002A8013900ABAE075F0F71298B0E054F054
:10816000FEBE80027F01900ABAE004F080B8EF60A2
:1081700006900ABC74FFF0900ABCE0F47002414320
:108180001237F150024143E53730E1024143900A92
:10819000BA7405F0900ABCE090000512E252E0309B
:1081A000E40990000712E268549FF0900ABCE09046
:1081B00000B912E252E0540FFEBE05099000BE1253
:1081C000E26830E125900ABCE0FF75F0F79000040A
:1081D00012121DE020E53375F0F7EF9000BD12128A
:1081E0001DE0B4FF25EE64036020900ABCE075F04A
:1081F000F790000612121DC083C082E04401FFA365
:10820000E0D082D083CFF0A3EFF0900ABCE0129EC2
:10821000D81214615021900ABCE0F54F75F0F712A6
:1082200098B0E04440F0900ABB7401F09003E9F08C
:10823000E4900ABAF08006900ABAE014F0900ABA04
:10824000E070C7E53730E2327F041227761298AB30
:10825000E0FF54F0644070181298ABEF540FF01226
:1082600098ABE04480F0E54F129ED8120B55800A7F
:10827000E53730E0057F0112057A900ABBE024FF64
:1082800022122FEDE924EC71536017E4902AEA31B1
:1082900005123F457401120E8C7E0A7FBFFD7C00E3
:1082A0006127310624017153D394014041120B69B7
:1082B000902AEAEFF0E004F07E0A7FBF310624B78F
:1082C0007153540F64087019310624BC715320E0B7
:1082D00010310624BD715312E321B504047D0780DB
:1082E00009310624B1715312E3447C008039E490D3
:1082F0002AEAF07E0A7FBF310624B77153540F6417
:10830000087019310624BC715320E010310624BDD9
:10831000715312E321B504047D078009310624B1AD
:10832000715312E3447C00020B5F900ABD121232BB
:10833000900ABD129F91540F120E8C900ABD12121A
:1083400029E924F2124EAE020E37902B9712122911
:10835000E92402F9E43AFA020DCD902E2D121232E0
:10836000E94AC36001D340028140902E2D714D3007
:10837000E01A914224B77153540FFFBF0503D38015
:1083800001C34008902E2D121229418112E09390D2
:108390002E2D12122912E0885015E0FF940450028D
:1083A00080027F04914212C7DE12955E12E2DE90D7
:1083B0002E2D1216AB12E318914124E87153902A26
:1083C000E1914124F27153902AE7914124F37153D2
:1083D000902AE8914124F47153902AE9914124F0C4
:1083E0007153902ADF914124F17153902AE0914119
:1083F00024F5129D8D12E287EF914124EC71539088
:108400002E307003F080037401F09142129D8B4571
:10841000F06024902E30E0FF12E2CDC003C002C015
:10842000019142129D8BFDACF0F58285F083D00165
:10843000D002D003121369902E2D1212291297F731
:1084400022F0902E2D121229E922E51B6002A104D0
:10845000B10AE92404715330E617B10A129ED0E440
:1084600075F064120FECB10A7406120E8CC21E80F5
:1084700042B10AE9240571534420B109E9242A12C2
:10848000174BB10AE9124E44B10AE9124E18B10A6B
:108490007405120E8CB10AE92404715330E3067E90
:1084A000037FE880047E077FD0B10AE9240712CC5D
:1084B00034D21E9008C2714DFF9008C212956871A7
:1084C00053FDB10AE92420F9E43AFAC003C002C01E
:1084D00001B10AE924067153900481F0B10AE9243C
:1084E00004715354F7900482F0A3740AF0A3747ECD
:1084F000F0D001D002D003120B73EF7007B10A74F1
:1085000007120E8C2290121AE0FF9008C202122964
:10851000902EF1EFF0305C1A90275DE0FFD39400CD
:108520004010EF940A500B9026A9E0640260037F8C
:108530000022902EF112C7D7600B902EF112D9C3F2
:108540005460FF80027F0022E4902757F0C25B90C6
:1085500026AAE0FFC3940450079026A9E0B40108BE
:10856000EFC394014002E1209027127401F07F0CC8
:108570003013027F14902713EFF0300C02C1DB9010
:1085800026AAE07034902722E0FF12CFF650179011
:108590002723E0FF12CFF6500D902722E0FFA3E043
:1085A000FD12D011501312E13AC215E4902EED12D3
:1085B000E218E4A312E29CC17E9026AAE07005D2E4
:1085C0001512E13A90263CE06401706F9026AAE013
:1085D000600690262CE06063E4902EEDF0902EED86
:1085E000E0FFC394045015742C2FF582E43426F573
:1085F00083E06008902EEDE004F080E17B017A26B4
:10860000792C12955E7A2779167F0412890712E277
:10861000199026AAE0FF12E24A902EEDE0FE902784
:1086200015E02EF090263C7402F090262CEFF0908E
:1086300026AA04F0902630E0FF80437B017A2E7951
:10864000ED902D5F121232A25B925A7A27791612A0
:10865000D73A50607B017A277916902EEDE012E32D
:108660000212D0A0404A12E21912E246902EEDE02A
:10867000FF902715E02F12E29C9027EBE0FF12D726
:108680007E90271AEFF0E0FFC00790272312D9C38E
:10869000546025E0FFC00790272212D9C35460C45C
:1086A000540FFED0E04EFED0E04E90271AF0802B03
:1086B000D25B80229027EBE0FF7B017A277957126B
:1086C000D036902723E0FF902722E0FD12C7B39217
:1086D0005B205B02D20C305B02C13B300C15E49096
:1086E0002EEDF0902714F012E24612E29D90271A28
:1086F0007408F090271AE0FF902EEDE0FE2416F5A6
:1087000082E43427F583EF12E36C124C7FEE2405EC
:1087100090047412CF4812E27A12BBED705C803E76
:1087200090263CE06402703E90271204F07F2430D3
:1087300013027F25902713EF12E21890262CE09069
:108740002715F0E490263C12E36C124C7F12DA7588
:1087500004F0E4A3F0A312E27A12BBED701CFBFA62
:10876000F97F0202CBAF12CBCF12180D600C122989
:10877000268F828E83E4FF12136922200805E4907D
:10878000275EF090270AECF0A3EDF0301605EF64B9
:1087900001600302D51930080E90275EE0B5460748
:1087A000122926E4FF800F7E0A7F5612BB2AEF7043
:1087B00008FBFAF97F0112D4BE22E4902EB3F090A8
:1087C0002EB2E0FF7003028895D394E8400302883C
:1087D0009512C9474003028895E4F54EE54E12AD67
:1087E000F0E0603DE54E12B037E0541F9027EAF00C
:1087F000E54E12ADF0E0FF902EB2E0FEEF6E70217C
:1088000030560E9027EAE0C3941F500DE004F0802C
:10881000089027EAE0600214F09027EAE0448080A4
:108820004D054EE54E640A70B3902EB2E0FF12C7BC
:1088300090E4339027EAF06005754E058003E4F577
:108840004E7F0AE54EC3940A5031E54E12B037E030
:10885000541F7002AF4EE54E12ADF0E07019902E2D
:10886000B2E0FFE54E12ADF0EFF0A256E433FFE5C3
:108870004E12B037EFF022054E80C8EFC3940A5075
:1088800014902EB2E0FE12ADEFEEF0A256E433FEED
:1088900012B036EEF022902CF7ECF0A3EDF0902C15
:1088A000F41212321297C0902CF7E0FEA3E0FFA35F
:1088B000E0FDA3E0FB12AC03902CF4124D60902C71
:1088C000F4129F91B4FF04E4120E8C902CF4129FCA
:1088D00091FF2290275EE0FFAD07E546600E30096C
:1088E0000B7E1F7FCAD25912CCC5C21990271EE039
:1088F000700E9027200412DCEA12D717F012B8622B
:10890000227A09793B7F04902CE0121232AE071FC5
:10891000EE6027902CE3129F91FE902CE01212291A
:10892000EE120E8C902CE1E475F001120F5D902C8C
:10893000E4E475F001120F5D80D322902D3E1212F7
:10894000327E007F14122AF7902D41124D60902D37
:1089500041129F91701104120E8C12E312E94A60C9
:108960001D7E007F08800B12E312E94A60107E0032
:108970007F1012E312902D3D7404F012493722E467
:10898000902D4EF0902D4A123DF3902D4EE054075D
:10899000A3F0902D4AE0124D6FA312122912E2713A
:1089A000902D4EE030E72E902D4AE0FF9027EEE02C
:1089B000B5070B12E30C9027EFE0FD12B424902DC5
:1089C0004AE0FF9027EFE0B5070B12E30C9027EE8B
:1089D000E0FD12B424902D4EE030E623E4FF12E3D4
:1089E0000CE92F128353FE740E2FF582E43428F520
:1089F00083E0F45E120E8C0FEFB41DE2121F2E22E4
:108A0000902B97121232902B9AEDF07401C39D4077
:108A100003029559902B9B129F91902B9EF0E92475
:108A200001128353902BA0F0902B9B12834D902B1F
:108A30009FF01237FF40FB121F2E902B97129F9131
:108A4000FFC394204032EFD394FF502C902B9AE038
:108A5000FD949E5023902B9EE030E703029559121F
:108A60008350902AFDF0902B9B121229902D1B12FF
:108A7000123212979B020CC2902B97129F916401A5
:108A80006003029559902B9EE030E603029559E968
:108A9000240112835312133F8B9901903C02904D95
:108AA00003919A049245058ED7068E8A0790D408C2
:108AB000912109913A0A91460B92B30D93F90E91C7
:108AC0008E0F945C1194C11391521A8ADE1F8B8D04
:108AD000238B5A268B86278B99280000955912BC28
:108AE000E47420F012834A7054902727F0A304F016
:108AF000129565128353FF33333354F8902BA1F052
:108B0000902B971216AB902BA112AE537025902B81
:108B1000A112C7D7601D902BA1E0FF12292612A732
:108B20008F902BA1E0FD122926E4902D91F07F205B
:108B3000120CCC902BA1E014F070C58005E49027B6
