:020000040000FA
:1000000002180002180308F308F80002180B0AC4CB
:0A0010000ACE220218130A8845A543
:10001B0002181B7F0222D322021823A2439226220C
:06002B0002182B02183937
:0E003300021833A24492292202183B02399689
:0700430002184375ED0422D1
:07004B0002184B75ED0222C3
:06005300021853AFEF227A
:06005B0002185B8FEF228A
:07006300021863E4FFE1B3A2
:07006B0002186B75C80122A9
:100073000218734103B500C126C1294103B400E04E
:100083000202000031A0E002020002294AE0040259
:10009300000446524545E00102001554E001020008
:1000A30016A5E00102200528E001022918FFE0015E
:1000B30002294600E005022947294A02060A4106A9
:1000C300C2060114004106C1014106BF01C1360148
:1000D3001900011700C149412C6E00412C630041F6
:1000E3002C6C00412C6D00412C6AFF412C92004185
:1000F30029A000412941055D2BCC00000000000030
:1001030000000000000000000000000000000000EC
:1001130000000000000000C13C41286500C10EC181
:100123002D013800C12AC12B412FBB00C15D432CD7
:100133001D000000412C1C00412C2000C132C134A1
:10014300C13D412C4400015500C11F412C360041E3
:100153002C43006028274A060A000000030008FE1B
:10016300877F88CF7FC04FFBD7FDE0670000800CFF
:100173008082000100E87300800F000060000041EE
:100183002164004121760041216700412161004142
:100193002169014121620141244400C141C142411D
:1001A30029B1964129AD0FE00202294C0039E0053F
:1001B300022980003904060AE0020229850807E0C3
:1001C30005023187080705060AE00202318C001395
:1001D300E00C02318E0000030800030008060A0643
:1001E3000AE00502319A0013FF060AE00202319F7A
:1001F30000000075819075FF03759E0212082002AE
:10020300280A020313900076E47E019360F4A3FFAF
:10021300543F30E509541FFEE493A360010ECF540D
:10022300E0B4E00EEFFAEEF9A3A3A3A3DAFDD9FB42
:1002330080D654C025E0604B5026E493A3F85407BE
:10024300240CC8C333C4540F4420C8834004F45659
:10025300800146F6DFE480B00102040810204080EC
:10026300E493A3FAE493A3F8E493A3C8C582C8CAAA
:10027300C583CAF0A3C8C582C8CAC583CADFE9DE7D
:10028300E78085E493A3F8E493A34003F68001F2A7
:1002930008DFF402020BC2D5E830E70FB2D5E4C39E
:1002A3009BFBE49AFAE499F9E498F8EC30E717B287
:1002B300D51202CF12105BE4C39BFBE49AFAE499D4
:1002C300F9E498F8800312105B30D50DE4C39FFF67
:1002D300E49EFEE49DFDE49CFC227890E4F6D8FDC8
:1002E3009000007F007E10E4F0A3DFFCDEFA902F85
:1002F300C2A3E583C394204011FEAF829020000E79
:100303000FE48002F0A3DFFCDEFA120820020208E9
:100313002232EF90031E93900800730A20364CE5B7
:1003230056FF22EFF556220C090C0E0C130C180C79
:100333001D0C220C270C2C0C310C360C3B0C400CE6
:10034300450C4A0C4F0C540C590C5E0C630C680C96
:100353006D0C720000000000003F241E16110E0BEE
:1003630009070504030201F0C8A7917767604638BF
:100373003532302422201400010102020303040455
:10038300050506060707092F09340939093E0943FC
:10039300095209570966097009CA09CF09D409E343
:1003A30009ED0A010A060A0B0A1F0A240A5B0A60FE
:1003B3000A65000DFA20000DDC7000000000020C3D
:1003C30000013F3F3F040404404040000000000B95
:1003D3008C0B960B9B0BA00BA50BAA0BB40BBE0BA4
:1003E300C30BE10BE65A2D5761766520362E31306B
:1003F30000383A188C36E938AA822D1C16131110CE
:10040300100B280B550B5AE4FD7C0CAB050DEB9040
:1004130003E8938F828E83F00FBF00010EDCEC01A3
:100423001E8F828E83E4F0A374069146740A91466C
:10043300A3E4F0EF2404F582E43EF583E4F0A3742F
:100443006DF022F08F828E83A3A322AD0790121545
:10045300E054FCF0E0FFED54307E0060027E02EFDA
:100463004E901215F0E0FFED7E0030E0027E01EFCA
:100473004E901215F0229003C17402F09003B4E081
:10048300FF120C86914E9003C17405F0229003BFB6
:10049300E0FF120C779003C4EFF0229003C4E07FD7
:1004A3000070027F0122E49003BFF0229003BF7427
:1004B30001F0229003BF7402F02291C470027F0105
:1004C300229003BFE07F002291C4B401027F012286
:1004D30091C4B402027F0122E4902DC1F0902DBF9C
:1004E300F0A3F0011275FF0275E40475E40175E4ED
:0D04F3000222C3E99FF9EA9EFA220208EEF8
:10050800121551120AD3120B78120B0F9003B6E092
:1005180064017002A1BE7FFF120894900756121161
:10052800DC7E007F15D12DBF540D7E007F16D12DA6
:10053800BFA5047F0180027F009003B4EFF064013F
:1005480070469007561211D3AE02D10A90075CE0AC
:10055800FEA3E0FF9007561211D391F5E92407F99D
:10056800E43AFA9007591211DCE92408F9E43AFE52
:10057800D10A90075CE064067004A3E0640A60088E
:100588001208999003B4EFF09003B4E070287E004D
:100598007F10C006C374A09410FE74319400902D8F
:1005A800DCF0A3CEF07B007A007900D0061244D1AB
:1005B800E4FFFE12089E1209F712096112090230BF
:1005C8005D05754F01802F1248171208621249A75E
:1005D800FE4FFDA3E0FC4DFDA3E0FB4D600BEE5F7D
:1005E800FFEC5FFFEB5FF4700312198C9003BBE024
:1005F800654F9003AFF081DB75FF0275E404E4F505
:10060800E422AF017B017A07795C902E307402F006
:1006180002402EF0E0131313541F7E002419F9EE44
:100628003429FEAF01E4FCFD902E8E12118A1217B8
:1006380071F11BEF600512178080F612137E7F039D
:10064800F1F264026008902E8E1217B7D176902EC0
:100658008E1217AFD176902E8ED172F10F902E9206
:10066800EFF0F1AE902E92E0FF22121162E4E5C89D
:1006780020E2FB8FEB227F01F1B3902FA47401F0ED
:10068800902FA4E060321217EAF10F902FA4EFF038
:1006980012144DD1FD902C86EFF012144D902FA41A
:1006A800E054011217F160D8A3E0F460D3EF30E70B
:1006B800CFE4902FA4F080C81213837F9FD176F1E6
:1006C8000F902C87F10D902C8CF10D902C8DEFF064
:1006D800F1AE902C85E0F4601BA3E0F46016902C3A
:1006E8008CE0FD541F240FA3F0EDC413540744807D
:1006F800902C8CF0221213837FD7D1767FFFD1768E
:10070800F113902C85EFF07FFFD176E5C820E2FB4E
:10071800AFEB227F01F1B33051161217EAF10F90B7
:100728002FA5EFF012144D902FA5E020E002C25142
:10073800305119D1FD902C86EF1217F1600BA3E010
:10074800F46006EF30E702C25112144DE4FFF1B332
:10075800A251E433FF22902E9312118A902E931205
:100768001162D130902E97E06F6037121771F11B2C
:10077800EF600512178080F6F1DA64026008902EA7
:10078800931217B7D176902E931217AFD176902E79
:1007980093D172902E97E0FFF1AC902C897401F000
:1007A800D322C322D17612144DE4FFEFB4010443DF
:1007B800FE202253FEDF22902C85E020E013121346
:1007C8007E7F3DD1767F2AD1767F80D1767FA6F154
:1007D800AC227F01F1B3D2511213837F06D1761276
:1007E800144D121383902C88E0FFD176902C8BE067
:0407F80022AF4222C8
:10080000C0567408C0E0C082C08375560AE5FF5424
:10081000CF4490F5FF22C0567408C0E0C082C08368
:10082000755620E5FF54CF4490F5FF22C05674085A
:10083000C0E0C082C083755636E5FF54CF44A0F5B2
:10084000FF22C0567408C0E0C082C08375564CE5D4
:10085000FF54CF44B0F5FF2290800401169085121A
:1008600001169085150116908648011690866B0139
:100870001690A1AF011690B7F0011690BFED0116CA
:1008800090BFF0011690933A0116909A8A01169043
:10089000B81B011690AB3B011690A71A011690AA3F
:1008A00004011690B8E8011690BFF3011690BA3211
:1008B000011690BA6F011690B64D011690B4300132
:1008C0001690A57E011690A178011690B6670116C4
:1008D00090C868011690C89C011690C8CE01169069
:1008E000B098011690A43C011690A026011690AF76
:1008F000A2011690C277011690B727011690CA85FB
:10090000011690A45F011690D0A5011690BEA40117
:100910001690D271011690D03F0116909A8501165B
:10092000908668011690D2F1011690D3C0011690FE
:100930009599011690D7D1011690D869011690D8D3
:1009400016011690D725011690C672011690A1BE09
:10095000011690A552011690C292011690D9FF017E
:100960001690A4C1011690BB7A011690CF7501169E
:1009700090BB75011690CD1D011690CE9901169071
:10098000D6F3011690D54A011690A5E0011690A560
:10099000E6011690D70A011690D5D90116909FE767
:1009A000011690CE2D011690DA2E011690DA8601EE
:1009B0001690CFC6011690CFC8011690DAA6011680
:1009C00090ADB1011690ADB7011690C970011690A7
:1009D000C7A4011690C7AC011690A1E50116908638
:1009E0006E011690A3DD0116909B2E011690C25F3A
:1009F0000116909A4D011690DBDD011690D75A0131
:100A00001690DCCF011690C7780116909C54011601
:100A100090DC61011690A28501169099EF01169065
:100A2000A597011690A2FD011690DCDC011690C37B
:100A3000FC011690DCF0011690C504011690DD074C
:100A4000011690C3B9011690AE20011690A1B6010F
:100A50001690C484011690ADA6011690D5E9011632
:100A600090D67E011690D64D011690DD0A011690A3
:100A70009AEC0116909B49011690D490011690CDE6
:100A8000F9011690936E011690DD95011690857C04
:100A9000011690DF4301169095A7011690CC5F01D7
:100AA0001690CC9A011690CC2B011690DFF6011609
:100AB00090E03B011690E06F011690E10A0116905C
:100AC000E0C3011690E13101169080140116908167
:100AD000C7011690E1780116909BE601169091D817
:100AE000011690E18C011690850E01169085560135
:100AF0001690E1BE011690AC54014290AD760142D1
:100B000090AE7D014290AF56014290B014014290E8
:100B1000B02C01429096F4014290B1DE01429097D0
:100B20006F014290B277014290B388014290B3893D
:100B300001429087EA014290866C014290B45F01C5
:100B400042908D2F014290A1E20142909C9A014275
:100B500090880E014290B525014290B53D0142902A
:100B6000B5F7014290B60F014290B65D014290B2D6
:100B7000BE0142908000014290B7F8014290B80552
:100B8000014290A8F4014290B811014290AF400197
:100B90004290A8FA014290AA61014290ADCB014275
:100BA00090AE39014290AA3D014290A83B0142908B
:100BB000AA49014290A8CB014290A6CF014290B829
:100BC00014014290B854014290AEE2014290AC8FC1
:100BD000014290A472014290ACF0014290B66F01C4
:100BE0004290B8C7014290A544014290A72B014210
:100BF00090AD4E014290AC31014290B6C501429099
:100C0000AECF014290B9A80142909FEE012C90A076
:100C100005012C90A05D012C90A067012C90A0E50F
:100C2000012C90A16D012C90A244012C90A267018F
:100C30002C909DAF012C90A27B012C90A083012CC5
:100C400090A10D012C90A29E012C90A1DE012C9070
:100C5000A2AA012C90A2B6012C90A182012C90A2F4
:100C6000C2012C90A271012C909B8C012C909BEEC8
:100C7000012C909EB1012C908067012C90A3B501AE
:100C80002C90A3B6012C909728012C909F38012C12
:100C90009094D6012C909A74012C908008012C908D
:100CA000A3D9012C00E709F608DFFA8046E709F22C
:100CB00008DFFA803E88828C83E709F0A3DFFA80A0
:100CC00032E309F608DFFA8078E309F208DFFA80F8
:100CD0007088828C83E309F0A3DFFA806489828ABA
:100CE00083E0A3F608DFFA805889828A83E0A3F2C2
:100CF00008DFFA804C80D280FA80C680D480698078
:100D0000F28033801080A680EA809A80A880DA8002
:100D1000E280CA803389828A83ECFAE493A3C8C54F
:100D200082C8CCC583CCF0A3C8C582C8CCC583CC4F
:100D3000DFE9DEE7800D89828A83E493A3F608DF8A
:100D4000F9ECFAA9F0EDFB2289828A83ECFAE0A3A0
:100D5000C8C582C8CCC583CCF0A3C8C582C8CCC5E1
:100D600083CCDFEADEE880DB89828A83E493A3F226
:100D700008DFF980CC88F0EF60010E4E60C388F088
:100D8000ED2402B4040050B9F582EB2402B404004F
:100D900050AF2323458223900CF573BB0106898253
:100DA0008A83E0225002E722BBFE02E32289828A84
:100DB00083E49322BB010CE58229F582E5833AF5B1
:100DC00083E0225006E92582F8E622BBFE06E925EB
:100DD00082F8E222E58229F582E5833AF583E493FD
:100DE00022BB010989828A83F8E028F02250032778
:100DF000F722BBFE05F8E328F3228A838982F8E410
:100E0000932822BB010FF8E58229F582E5833AF5A4
:100E100083E028F0225009C58229F8E58226F622CF
:100E2000BBFE09C58229F8E22582F222F8EA258371
:100E3000F583E9932822BB010689828A83F0225038
:100E400002F722BBFE01F322F8BB010DE58229F572
:100E500082E5833AF583E8F0225006E92582C8F658
:100E600022BBFE05E92582C8F222EF8DF0A4A8F08E
:100E7000CF8CF0A428CE8DF0A42EFE22BC000BBE99
:100E80000029EF8DF084FFADF022E4CCF875F00876
:100E9000EF2FFFEE33FEEC33FCEE9DEC984005FCAB
:100EA000EE9DFE0FD5F0E9E4CEFD22EDF8F5F0EE73
:100EB0008420D21CFEADF075F008EF2FFFED33FD5E
:100EC0004007985006D5F0F222C398FD0FD5F0EAFE
:100ED00022C2D5EC30E709B2D5E4C39DFDE49CFC09
:100EE000EE30E715B2D5E4C39FFFE49EFE120E7C00
:100EF000C3E49DFDE49CFC8003120E7C30D507C347
:100F0000E49FFFE49EFE22C5F0F8A3E028F0C5F0C0
:100F1000F8E582158270021583E038F022A3F8E02C
:100F2000C5F025F0F0E582158270021583E0C8381F
:100F3000F0E822BB010A89828A83E0F5F0A3E0226F
:100F4000500687F009E71922BBFE07E3F5F009E335
:100F5000192289828A83E493F5F074019322BB01FC
:100F60000789828A83020F07500B09C5F027F7C54E
:100F7000F01937F722BBFE0D09F8E325F0F3C5F0B1
:100F800019E338F322F889828A8374019325F0C526
:100F9000F0F8E4933822BB010A89828A83F0E5F0F5
:100FA000A3F0225006F709A7F01922BBFE06F3E5CD
:100FB000F009F31922EF2BFFEE3AFEED39FDEC3884
:100FC000FC22C3EF9BFFEE9AFEED99FDEC98FC220C
:100FD000E88FF0A4CC8BF0A42CFCE98EF0A42CFCC0
:100FE0008AF0EDA42CFCEA8EF0A4CDA8F08BF0A43E
:100FF0002DCC3825F0FDE98FF0A42CCD35F0FCEB9D
:101000008EF0A4FEA9F0EB8FF0A4CFC5F02ECD3961
:10101000FEE43CFCEAA42DCE35F0FDE43CFC227558
:10102000F008758200EF2FFFEE33FECD33CDCC33C9
:10103000CCC58233C5829BED9AEC99E58298400C31
:10104000F582EE9BFEED9AFDEC99FC0FD5F0D6E40F
:10105000CEFBE4CDFAE4CCF9A88222B800C1B900F5
:1010600059BA002DEC8BF084CFCECDFCE5F0CBF956
:101070007818EF2FFFEE33FEED33FDEC33FCEB334E
:10108000FB10D703994004EB99FB0FD8E5E4F9FA7C
:10109000227818EF2FFFEE33FEED33FDEC33FCC961
:1010A00033C910D7059BE99A4007EC9BFCE99AF9F4
:1010B0000FD8E0E4C9FAE4CCFB2275F010EF2FFF63
:1010C000EE33FEED33FDCC33CCC833C810D7079BCD
:1010D000EC9AE899400AED9BFDEC9AFCE899F80F30
:1010E000D5F0DAE4CDFBE4CCFAE4C8F922C3E49FFE
:1010F000FFE49EFEE49DFDE49CFC22EB9FF5F0EAFC
:101100009E42F0E99D42F0EC6480C864809845F00E
:1011100022EB9FF5F0EA9E42F0E99D42F0E89C4503
:10112000F022E8600FECC313FCED13FDEE13FEEFAD
:1011300013FFD8F122E8600FEFC333FFEE33FEED6B
:1011400033FDEC33FCD8F122BB010789828A83028C
:10115000118A5005E9F8021342BBFE05E9F80213B3
:101160004E22E0FCA3E0FDA3E0FEA3E0FF22E49317
:10117000FC740193FD740293FE740393FF22E0F864
:10118000A3E0F9A3E0FAA3E0FB22ECF0A3EDF0A3C7
:10119000EEF0A3EFF022A8828583F0D083D08212F4
:1011A00011AD1211AD1211AD1211ADE473E493A3A0
:1011B000C583C5F0C583C8C582C8F0A3C583C5F083
:1011C000C583C8C582C822A42582F582E5F035838F
:1011D000F58322E0FBA3E0FAA3E0F922EBF0A3EA17
:1011E000F0A3E9F022E493FB740193FA740293F9FB
:1011F00022BB010789828A830211D35005E9F802D4
:10120000135ABBFE05E9F802136C89828A83021126
:10121000E5BB011A89828A83D0F0D0E0F8D0E0F9EA
:10122000D0E0FAD0E0FBE8C0E0C0F00211DC5016DC
:10123000E9F8D083D082D0E0F9D0E0FAD0E0FBC06A
:1012400082C083021363BBFE16E9F8D083D082D03C
:10125000E0F9D0E0FAD0E0FBC082C083021375222F
:10126000BB010DE58229F582E5833AF5830211D3AE
:101270005007E92582F802135ABBFE07E92582F8D8
:1012800002136CE58229F582E5833AF5830211E5C4
:10129000BB0120E58229F582E5833AF583D0F0D0C1
:1012A000E0F8D0E0F9D0E0FAD0E0FBE8C0E0C0F030
:1012B0000211DC5018E92582F8D083D082D0E0F901
:1012C000D0E0FAD0E0FBC082C083021363BBFE18FB
:1012D000E92582F8D083D082D0E0F9D0E0FAD0E0DE
:1012E000FBC082C08302137522D083D082F8E493BE
:1012F0007012740193700DA3A393F8740193F58297
:101300008883E4737402936860EFA3A3A380DF8AE9
:10131000838982E473EC8EF0A4CCC5F0CCCDF8EFD9
:10132000A4CEC5F02DFDE43CFCE8A42EC8C5F03DDC
:10133000FDE43CFCEFA4FFE5F028FEE43DFDE43CC9
:10134000FC22ECF608EDF608EEF608EFF622ECF2D9
:1013500008EDF208EEF208EFF222E6FB08E6FA08E2
:10136000E6F922EBF608EAF608E9F622E2FB08E2E3
:10137000FA08E2F922EBF208EAF208E9F2227F0128
:101380001207B3902C8AE051E913A50413AD14138E
:10139000B21513B71713C73013CC3413D13613D685
:1013A00037000013BF5334EF853480802F5335EF5F
:1013B00080085335DF800353357F853590801D537A
:1013C00036DF8536A080155337FE800D5337EF800A
:1013D000085337BF800353377F8537B07F0CDFFE5C
:1013E00022902D3D318A902D4131DCF17112071B85
:1013F000EF6004F18080F61207DA64026008902D35
:101400003DF1B7120676902D3DF1AF120676902D84
:101410003D3162E48025902D44F1A56023902D415B
:1014200031D3E94A6013120D9BFF120676902D42CC
:10143000E475F001120F0780DDE4FF12067680D616
:101440001207AE902C897401F022120676F1D6EFC5
:1014500070FB902C8CE0F4600A902FA37406F0F1DE
:101460001070FC902C8AE051E9148504148D14143A
:10147000921514971714A73014AC3414B13614B65F
:10148000370000149F433410853480802F4335107B
:1014900080084335208003433580853590801D4387
:1014A00036208536A08015433701800D43371080E4
:1014B0000843374080034337808537B0902FA374AB
:1014C0000CF0F11070FC22F17112071BEF6004F1B7
:1014D0008080F67F011207B3D25171837F06914A53
:1014E00071837F011206767F03914AE4FF0207B3FE
:1014F000902F79EFF0E4A3F0902C93E0FFB4020971
:10150000740FF10874B9F0800CEF64047042743DFC
:10151000F1087479F0717E902F79E06007902C9239
:10152000E0FF80027FAB120676914D902F79E0901C
:101530002C92F07016902F7AE0D39400400D7FFF2C
:10154000120676902F7AE014F080EAE4FF1207B3D7
:10155000227B017A2C798A7D017F03120AFB7A2C87
:1015600079937F08F1DC7A2C79907F09F1957A2CB8
:10157000798E7F0BF195902C8EE0FEA3E0FF4E60FC
:1015800006BEFF16BFFF13F19C50028004F1BF801E
:1015900009902C8EE4F0A37440F0F19C5002800876
:1015A000902C8B7403F08006902C8B7402F0902C9E
:1015B0008AE051E915D00415DB1415E31515EB1776
:1015C000160130160934161136161937000015F6B3
:1015D00075FF015330EF8530FD804775FF015331B2
:1015E000EF800E75FF015331DF800675FF01533127
:1015F0007F8531C9802C75FF015332DF8532CA8067
:101600002175FF015333FE801675FF015333EF80C0
:101610000E75FF015333BF800675FF0153337F857D
:1016200033CB914D7F11D1FAE4FF91F012067E90F9
:101630002C887402F0902C8CE0247F6009047016D2
:10164000F100740A80071207BFF1007458F0902C63
:101650008B7403F0F1BF902C8DE0F46002C1F89020
:101660002C90E0FEA3E0FF64104E7006902C8D7469
:101670000EF0EF64204E7006902C8D740FF0EF6426
:10168000404E7006902C8D7410F0EF64804E700602
:10169000902C8D7411F0E4B5070AEEB40106902C7D
:1016A0008D7412F0E4B5070AEEB40206902C8D7426
:1016B00013F0E4B5070AEEB40406902C8D7414F010
:1016C000E4B5070AEEB40806902C8D7415F0E4B565
:1016D000070AEEB41006902C8D7416F0E4B5070AD4
:1016E000EEB42006902C8D7417F0E4B5070AEEB422
:1016F0004006902C8D7418F081C7EF4420F5FE222F
:101700007F10D1FA902C8822902F7AF0902C922280
:10171000902FA3E014F0E022902D46318A902D4ABC
:1017200031DCF17112071BEF6004F18080F6717EED
:101730007F031207F264026008902D46F1B712068B
:1017400076902D46F1AF120676902D4612067290D5
:101750002D4DF1A5601412070F902D4AF1E4902D44
:101760004BE475F001120F0780E5914DE4FF02078D
:10177000B375FF02E5E430E10675E40675E4032283
:10178000E51530E20FE51520E50AE51530E0057FA7
:1017900001122015227B017D02020AFB902C93E0AE
:1017A00024FE24FD2274FFF5F0120F1D45F02231B6
:1017B0006278083122E422316278103122E42290EA
:1017C0002C8E7401F0A3E4F022F17112071BEF607C
:1017D00004F18080F622E5C85404FF227B017D01DC
:1017E000020AFBFF31D3EF020E3671837F0502063A
:0917F00076F0902C85E0FFF42254
:071800000201F612478322EA
:101808007FB8D2061208B79003C2EEF0A3EFF02219
:06181800902C6502116234
:03182300023F037E
:10182B00023043200A05110A7F01227F002275FF37
:0C183B00028FE322FDFC902C6502118A54
:10184B000223CA9007C6EFF0A3EDF05402901234B6
:10185B00F0112EEF7002C3229007C6E0B40412A35E
:10186B00E0FB7D017F01122CC69007C67403F0804C
:10187B00069007C7122CC09007C6E09003B5F0D3B3
:10188B00221237F1EF70087FA07E0FFDFC212D1285
:10189B003830902C64EFF07406D39F4067E0605AA9
:1018AB00F1E77E00902C64E014FDE5F0A8050880BC
:1018BB0005C333CE33CED8F9FFF1CF1141902C6550
:1018CB0012117EC000C001C002C003902C64E01452
:1018DB00FF74107E00A807088005C333CE33CED823
:1018EB00F9FFEE3395E0FDFCD184120FD0D003D07D
:1018FB0002D001D000120FB58028F1E7AFF07E00C7
:10190B00F1CF801E902C6CE0FF600FE4FCFDFEFB22
:10191B007AF47901F8120FD080087F007ED07D0712
:10192B007C0011411238027E367FE9C006C00711D8
:10193B00181237E5D007D0061237A0122FE9EF7037
:10194B003F1118D184D31211114007E47F01FEFD22
:10195B0080251118D18412105B11411118E47B0101
:10196B0012397750141118C3EF9401FFEE9400FE57
:10197B00ED9400FDEC940011401118123933110A4B
:10198B0022E4FF122015EF6036F18A31CB5005129D
:10199B00499F40F57B017A0379BB31CB500F12493C
:1019AB00A75FFFA3E05FFFA3E05FF460E7754F0164
:1019BB007E007F08F18A902DDCE4F0A312449E2276
:1019CB00902CEA122FCC902CF012119600000001F3
:1019DB00902CF47401F0F5FFE5D554C07005122678
:1019EB005A5002C322E4F5FF53967F75FF0175D55C
:1019FB00047F3FFEF14775FF0143D508E4F5FF5324
:101A0B0094FBF5FF53847FF5FF7598FF902CEEE563
:101A1B00F4F075F49C75FF01A3E5E4F075E4257B08
:101A2B00017A2C79F4123A5B902CF4E06401600299
:101A3B0041F8F5FF902CED7414F0902CF07128FF09
:101A4B007801121135902CF012118AE5A730E1FBC9
:101A5B0043A702902CF07128FFE5A730E005E47B4B
:101A6B00018002E4FBFAF9F8EF4BFFEE4AFEED4979
:101A7B00FDEC48FC902CF012118A902CEDE014F048
:101A8B0070B8902CF07128FF78101211227B6D7AB0
:101A9B004E79C67841120FD0EF2439FFEE343091D6
:101AAB00CCE4FBFA7901F812105BEE547FFEE4FDF7
:101ABB00FC1233C3902CF07128FFEB6FFFEA6EFE24
:101ACB00E8CDEFCDCCEECCECFF902CEA122E6CEFE8
:101ADB00120E36902CEA122E6C900001ED120E486D
:101AEB0090120FE030E606E4F5FF75968075FF0166
:101AFB00E4F5D5902CEEE0F5F475FF01A3E0F5E4E9
:101B0B00123D2A902CF4E0B40103D38001C322EBE5
:101B1B0025E025E02401F582E43412F583E0FCA3F3
:101B2B00E0FDA3E0FEA3E022902BE912118A75FFE2
:101B3B000243E180F1B2F171902BFE121196002D50
:101B4B00C6C0E4F5FFF5A490120EF0A3F0902BF9AC
:101B5B007402F0F1D6FFF595EF146018146026248B
:101B6B00027036902BE97128FF902BFA12118A9094
:101B7B002BF58020902BED7128FF902BFA12118AF8
:101B8B00902BF6800F902BF17128FF902BFA1211EE
:101B9B008A902BF7E0902C02F0123E5B902C02E027
:101BAB00700FF5FFF59675FF0175D70975F4188061
:101BBB005A90120EE004F0902BF9E0122FBC902BF0
:101BCB00FE7128FF902BFAF1FAC3121111500A90F3
:101BDB002BFA7128FFA312118A902C02E0FF123C02
:101BEB00DC902BF8E0FFA3E0FDA24E924C123E09D5
:101BFB00A37128FF902E8A12118A902BF9E0FFB166
:101C0B00DE902BF9E0711BFF123A8FF1DE6002615F
:101C1B005E7402F0F1D6F595E5F454077018902B2D
:101C2B00FE91AA7801121122902BF9D16D12118A13
:101C3B00711AFF123A8FF1DE70DA75FF037595801A
:101C4B00122FB4400343F420A24E924D123D3B9011
:101C5B002BFE71282420FFEE344E91CCE4FB7A044A
:101C6B00F9F891BA7801121122C24B123B27E4F515
:101C7B00FFE5BD54F84404F5BD9012137401F07EDA
:101C8B00127F01E4FD8F828E83EF2DF582E43EF50A
:101C9B0083E0FC901213E02CF00DEDB412E722FF61
:101CAB007E04FDFCE0F8A3E0F9A3E0FAA3E0FB124D
:101CBB000FD0E47B7DFAF9F812105BEF2401FFE4FF
:101CCB003EFEE43DFDE43CFC22902DD0123CBDEBEE
:101CDB00F0902DD67401F0C24FD197D18C5005E501
:101CEB00FC20E6F7F115BF0108E4F5FC75FC40801C
:101CFB0007F115BF0202D32275FF0153D8EF902DC8
:101D0B00D1E0FF123E6875FF0153D5DF53FAFB900C
:101D1B002DD0E0FF122C2D902DD1E0902DD0B408BA
:101D2B0009E0711B245291C98004E0711BFF123A28
:101D3B008F902DD2E0FF123EB675FF0175FF037534
:101D4B009B04D19775FC42E5FC20E104D18C40F457
:101D5B00902DD3E0F075FF03E59B20E704D18C4079
:101D6B00F4E59B20E70C75FF03759B1FF1B2D24F77
:101D7B00804ED17D123A5B902DD1E0FD90120FE099
:101D8B005D701C902DD0E0FFD17D1231A090120F11
:101D9B00E0FF902DD1E0FEEF4E90120FF0918412E8
:101DAB002F797B017A2D79D4F19B500FC3902DD5D0
:101DBB00E09420902DD4E0940340E7D17D123ACFEC
:101DCB00F14B304F0281DC902DD6E0B40103D38070
:101DDB0001C322902E89EFF0E4A391AA780112118E
:101DEB0022902E89D16D12118A901210E0648060BE
:101DFB0070E0C3947F5038EBD16FC083C0827128E1
:101E0B00FFEEC0E0EFC0E0901210E075F004A4AE5E
:101E1B00F0FBCAEECAEA3395E0F9F8D0E0FFD0E068
:101E2B00FEC3EF9BFFEE9AFEED99FDEC98802A9096
:101E3B002E89E0D16FC083C082F1FA901210E0F4CA
:101E4B000475F004A4FFAEF0EE3395E0FDFCEB2F30
:101E5B00FFEA3EFEE93DFDE83CFCD082D083121147
:101E6B008A22E0FB25E025E02401F582E43412F51B
:101E7B0083227B017A2D79D622E47BE87A03F9F869
:101E8B002275FF03E591C330E701D3227FE87E0380
:101E9B00D1E875FF0343918022902FA2E5F4F0E087
:101EAB00547FF5F47F827E00D1E8D19DD18C500513
:101EBB00E5FC20E6F7305008902FA2E04480F5F4C3
:101ECB00D197D18C5005E5FC20E6F775FF01E5D5E0
:101EDB0020E702C322E5F4D330E601C322902ECCD7
:101EEB001249587A2E79CEF19B5014902ECEE0FEEB
:101EFB00A3E0FF902ECDE09F902ECCE09E400A9069
:101F0B002ECCE0FEA3E0FFF154227FFA7E00F154C9
:101F1B00D19DE5FC30E604D18C40F7E5FC30E603BF
:101F2B007F032275FF01E5D530E6037F0222E5D55D
:101F3B007F0030E7027F01227F147E00F154D19D98
:101F4B0075FF03E59120E7FB2275FF03D3EF9402A6
:101F5B00EE9400400874FE2FFF74FF3EFEEFF592E7
:101F6B00EE540FF59122F19153DB7F75FF0175D57F
:101F7B0002F143F19143DB8075FF01E4F5D5227B40
:101F8B00017A0379B92275FF01438E1075FF012287
:101F9B00122E75AD94EF4D122FC48FF0120F96E5E4
:101FAB0091C330E701D322E5FA30E1FB75FC807574
:101FBB00FF0153D5EFE4F5FC75FC40122E97E5FCC1
:101FCB0020E6FB227C007D6402131575FF03902B2A
:101FDB00F9E022902BF9E0FF14F0EF22F1EFEF750F
:101FEB00F0A084229003AFE064AA2411FFF022E05A
:101FFB00F8A3E0F9A3E0FAA3E0FB22AE07121FEF70
:10200B00EE04FEEF8EF084AFF022EF600E122A9CEE
:10201B00AF82AE83E4FD122B54800F3026037F007A
:10202B0022120AF1F132E433FF227F012290078B57
:10203B001211DCD246C2EBE5146002419DE515306E
:10204B00E202C32251EDE924E3F17212353651F36A
:10205B005407FF9006C1F01233D090078EEFF0E5D6
:10206B001520E06AD15A40047F01111590078EE0CC
:10207B00FF7B017A07798F122DAFE4337004D2EB1B
:10208B00418290078EE0249A124978E0FF90078FE7
:10209B00E0D39F4039D2EB123486A23592ED9006F5
:1020AB00D2E0601251EDE924E31248B0120E364330
:1020BB001504D144D3229006E0E070107A0679E043
:1020CB007C307DB5746412491D1208C6C322D15AE7
:1020DB005005C250121EA4F126E5D120E0FBE4F519
:1020EB001051F35407C39403E49400503551EDE9B8
:1020FB0024B151E551ECE924D851E52FFFE433FE2F
:10210B00D3EF9440EE64809480401751EDE924E3C3
:10211B00F9E43AFA7402120E36431504A23592ED25
:10212B00D32251EDE92408F9E43ACFE9CFF5118F29
:10213B001251EDE924B151E5F516AE1112450751D7
:10214B00EDE924B2F9E43A8B1CF51D891E51EDE93A
:10215B0024D851E5F51F51F3FDACF05460603051BC
:10216B00EDE924D951E5FF123446C24651D5FB7A2D
:10217B00009006E11249707D18120E6AEF2BFFEAF0
:10218B003EFEEF2414FBE43EFA7D027F01417251C7
:10219B00F354079006C1F075140851EDE91248BECF
:1021AB00D13751EDE924D851E5FFAD16F15F90061B
:1021BB00C1E0640370257B01FD51A5D39FEE713FF8
:1021CB0050057401120DE1E4F5FFF11D120D9B2476
:1021DB0028FBE433FA7D03E4FF41729006C1E0640F
:1021EB0002702C51A8D39FEE713F400574FF120D66
:1021FB00E1E4F5FFE5D25480440AF5D2120D9B249D
:10220B0014FBE433FA7D027F0171557103805AE4AC
:10221B00FB7D0151A5D39FEE713F400574FF120D5D
:10222B00E1E4F5FF51F3441045F07F0560027F0AAE
:10223B00EF547FFFE5D254804FF5D2E4F5FF43D244
:10224B008051D5FD7C0051F3441045F07E006004B5
:10225B007F0A80027F05EF25E0FFEE33FEEF2DFBBB
:10226B00EE3CFA7D017F01715551F3FFAEF0A246B2
:10227B00924512332F4006A23592EDC322D14490E2
:10228B00078EE051ECE924E5714DA23592EDD2EBCE
:10229B00D322A23592EDD2EBC322FF710890078BAC
:1022AB001211D3E924B1F9E43AFA120D9BFF90070E
:1022BB008B1211D3E924D8F9E43AFA120D9B2FFFB4
:1022CB00E433FEEF2401FFE43EFE90078B1211D3A3
:1022DB00E924B2F9E43AFAE92407F9E43AFA020DEF
:1022EB009BFF90078B0211D390078B1211D3E9241C
:1022FB0004F9E43AFA020F33E4FB7D01FFE4F5FF46
:10230B0075D102E5D120E0FBE4F5FFF5D1EF6008D4
:10231B00E4F5FF43D2808006E4F5FF53D27FEB60F8
:10232B0006E4F5FF43D104ED6006E4F5FF43D10865
:10233B0022D39DEC6480F874809822FF1211D3E9AC
:10234B002401F9E43AFAEF020E369007BAEFF0EDFA
:10235B0024FE60191460262402703BEB2402FFE478
:10236B003AFE7C007D50120E6A7D60801ED120C328
:10237B0033CE33CED8F9FF7C007D28800ED120C31D
:10238B0033CE33CED8F9FF7C007D64120E7C9007E0
:10239B00BBEEF0A3EFF09007BAE0123528C083C074
:1023AB008212117E9007BCE02401FF9007BBE03442
:1023BB0000FEE4FCFD120FB5D082D08302118AC05F
:1023CB00E0C0F0C083C082C0D075D008C0FF75FFDD
:1023DB0001E5D530E6047F028009E5D57F0030E7C3
:1023EB00027F018F18E5186402600281A5E51412C3
:1023FB0012E9241601242902248D08243409243FD0
:10240B000A244D0B246B0C0000260575FF0175C3C8
:10241B0055151AE51A6002C105751402C10575FF41
:10242B000175C3F0751409C10575FF0175C35575A9
:10243B00140AC10575FF019006D3E0F5C375140BA3
:10244B00C10575FF019006C0E0F5C3751401751A3F
:10245B00149006E11248C56002C10575140CC10544
:10246B00AB1CAA1DA91ED137AD16AF1FF15F7103AF
:10247B0075FF00F11D43FA0475FF00F1E7751408B1
:10248B00C105C2EB7514004315041234784002C128
:10249B0005E475F001120F07C105E5186401600230
:1024AB00C105123EBC4002C105E510707475FF01F9
:1024BB00F5EA75EAFF9006C31211D3E5D9120E3671
:1024CB00D12BE09007D6F0123E921234329006BF19
:1024DB00EFF09007D6E0FFD394095002A17F90064E
:1024EB00BFE0D39402400CEFD394AA7F0040027F4D
:1024FB0001800D9007D6E0D394407F0040027F010E
:10250B00EF6002806F9007D6E0F516122FDE901267
:10251B001AEFF075FF009007D6E0F5D9751003C1DF
:10252B0005E51064036002C1059006C3F1F3FF716A
:10253B004A75FF009006BFE0C39403E5D3500554E2
:10254B0002FF80035401FFEF602E30E111C39006B0
:10255B00CDE094FF9006CCE094FF5018800FC39011
:10256B0006CFE094FF9006CEE094FF5007E475F0A1
:10257B0001120F07F1B6C105C250121EA475FF0060
:10258B00F129E5D120E0FBC2EB431502D119A3E001
:10259B00FF9003BAE0FEEF6ED118E09003B9D112B1
:1025AB00A3A3E09003BBD112A3A3A3E0FE9003BCB3
:1025BB00E0FDEE6D4F6016C39006D1E094FF9006E0
:1025CB00D0E094FF5007E475F001120F07C390069B
:1025DB00CBE094FF9006CAE094FF5007E475F0013E
:1025EB00120F077510009006BFE0B403071516D144
:1025FB002BE516F09003B8E516F0D0FFD0D0D082C3
:10260B00D083D0F0D0E032FEE0FDEE6D4FFF8512AF
:10261B008285118322EB2401FFE43AFEEF7803223B
:10262B00E5122407F582E43511F58322E4F5FFE981
:10263B00122FD5EA540F42D622E49006D2F07B013A
:10264B007A0679E00208C1C2EBA2ED9235C2EDE544
:10265B00F4C330E701D322902CD2123CBDEBF07FB8
:10266B0002120AD8902CDB1211DCEA494B605E9007
:10267B002CD3E0FFD1DB24B6714DE490069FF09094
:10268B00068E1211D3124565EF600D902CD2E044EB
:10269B0042F0D1DB24D9D1E3902CD4E0FF30E11B05
:1026AB00D1DB24BAD1E3EF54FC902CD4F0FE902D67
:1026BB0035E054FDF0D1EC7D01800C902CD4E0542E
:1026CB00FEF0FED1EC7D02120B417F01227F002236
:1026DB00902CDB1211D3E922F9E43AFA74FF020EC3
:1026EB0036902CD2E0FF902CD8E0900725F0A3EE8B
:1026FB00F0902CD9E0FDA3E0900727CDF0A3EDF0EF
:10270B00902CDB1211D39007291211DC902CD502DF
:10271B0011D3E5D254804414F5D222E4F5FFE5D170
:10272B0054FE4402F5D122E5147027D1525005C254
:10273B0050121EA4121FB27F08120C9FF126E5D176
:10274B0020E0FB4315205315FEE4F510A23592ED66
:10275B00D322C322E4F5FF8FD4F5FFCFEDCF8FD576
:10276B00221211D3E92404F9E43AFAE4020E36906A
:10277B0007B41211DCF1B0E51B120E36F1B0E924EF
:10278B0001F1729007B412483CF172F1B012487823
:10279B00E513120E369007B4F16C9007B412488013
:1027AB00FAE4020E369007B40211D3C250121EA4E3
:1027BB00F126E5D120E0FBE4F5FF75D9089006BFC3
:1027CB00E07F00B403027F01F1DED250121EA4E4BD
:1027DB00F51022122C2D43FA04E4F5FF53D1FD43DF
:1027EB00D10122E4F514E1321211D3020D9B3028F2
:1027FB000D12092AEF6007C25712091BC228227556
:10280B00FF0275E404E4F5E475FF02E5E630E01140
:10281B00901215E0540C600951E0901215E054F73A
:10282B00F01202DD91489003B6EFF0901200E0B485
:10283B007A14901214E0B49C0D9003B6E0FF64057B
:10284B006004EFB4032EE49003C0F09003C0E0FFEC
:10285B00C394805013E42FF582E43412F583E4F033
:10286B009003C0E004F080E3901200747AF09012B1
:10287B0014749CF0120B054003120B007B017A12AF
:10288B0079107D017F01120AFB7B017A1279117D90
:10289B00017F21120AFB7B017A1279127D017F22C3
:1028AB00120AFB7A12791D7F021217DC90121DE0BF
:1028BB00B401057F01123EC3120AB59148120AB04A
:1028CB009003B6EFF0120B7D120AAB9003B6E0FF4C
:1028DB00120C81EF24FFB3925D75FF0253E6BF121A
:1028EB003020120ABF120508205D0C1204797B01FF
:1028FB007A287979120975D2AF305D7D120B0A12E5
:10290B0008A3120C7C120AF640F29003B5E0603F6C
:10291B00120AE2EF700491064035E51470FCE515E0
:10292B0020E50312273212085DEF70FA51BA5004FA
:10293B0051CC50057F011214F09003B5E0B40204A2
:10294B00E4FF80099003B5E0B403047F01713012FA
:10295B000ADDE51530E1A571E24002E4F0E5152052
:10296B00E504519C714E9119C0E051AA9003B8E057
:10297B00FDD0E0FF120B7380831227F91204CBEF0B
:10298B0070069003B5E0604E201903200648120A2A
:10299B00E2EF70049106403EE51470FCE51520E56E
:1029AB000312273212085DEF70FA51BA500451CC62
:1029BB0050057F011214F09003B5E070121204CB96
:1029CB00EF600C1204B6901215E04408F0800790EB
:1029DB0003B5E0FF916D9003B5E0600C2019093051
:1029EB000606200103120948120B0A1208A391F3E1
:1029FB0012049012049EEF70221204D3EF60045164
:102A0B00E080371204CBEF70319185EF702C1218E8
:102A1B002EEF640170241204AF801F901215E0207A
:102A2B00E2181204D3EF600D51BA500451CC50058B
:102A3B00E4FF1214F0E49003BFF0202705120ADD27
:102A4B0080221208B79003AEE0FEEFC39E4005EF65
:102A5B009EFF80089003AEE0F4042FFF7406D39F13
:102A6B005002C227E51530E12071E24002E4F0E5A7
:102A7B001520E504519C714E9119C0E051AA9003A9
:102A8B00B8E0FDD0E0FF120B73120A8D12300B2150
:102A9B00849003B7E0FD75F0AA9003C51211C7ED42
:102AAB0075F002A424B0F9740335F0FA7B0122907F
:102ABB000001740193B40007E493B41802C322D34A
:102ACB00227F017E009017FCE4935EFE7401935FFE
:102ADB004E24FFB32271F7700790121CE070012295
:102AEB0071F760237FFF12002E901216121162EF06
:102AFB0024FFFFEE34FFFEED34FFFDEC34FFFC90C2
:102B0B00121612118A800D90121CE0FF12002EE497
:102B1B0090121CF0901235E0FD7F01123996901245
:102B2B003491C07F0143FB1075FF0243E640EF6019
:102B3B000D75FF02E5E120E7FB43FB0D800343FB33
:102B4B000E80FEAF82AE837D01900773EEF0A3F192
:102B5B009EE51470781226525005C250121EA49096
:102B6B000773E0FEA3E08E11F512A31211D39006AA
:102B7B00C31211DCAE11AF127DAA919FE4F5FF7564
:102B8B00D908F510E5155421602AE51530E504E464
:102B9B00FF912DE4900778F0900778E004F0D19E38
:102BAB00EF6009900778E0C3941040EC7F02120CA1
:102BBB009F5315DE9006BFE07F00B403027F011226
:102BCB0027DED250121EA4D2EBA23592ED22C2AF59
:102BDB00EFF45215D2AF227F0271D99003B7E09078
:102BEB0003C0F09003B704F0C3940222E4FFFEFD90
:102BFB00FC90121612117EC30211119003C2E0FE5B
:102C0B00A3E0FF1208BCD3EF94C8EE94002290030C
:102C1B00C0E0FD75F0AA9003C51211C7AF82AE8359
:102C2B00EF2275FF01E5D530E602C322E4F5FF4341
:102C3B009A80EFF1BCE4F5FF539A7FD32275FF0224
:102C4B00E5E630E2037F0322E5E630E3037F002273
:102C5B00E5E630E1037F0422E5E67F0530E0027F05
:102C6B000122902FA1EFF0BF0204E4FF8009902F07
:102C7B00A1E0B403047F01713022902C69E0B4040D
:102C8B000D902C6EE06007F1E9EF7002FF22902CA3
:102C9B0069E0FF22E4F5FF75D102E5D120E0FBE40A
:102CAB00F5D1F5FFEFF1D5EE540F42D6E4F5FFCF9A
:102CBB00EDCF8FD422E0FB7D01E4FFEB600875FFC5
:102CCB000153CDFD800675FF0143CD02ED60055329
:102CDB00FBDF800343FB20EF600775FF0243E140FE
:102CEB002275FF0253E1BF22121F15EF64017065BD
:102CFB00F1DE902F77EFF0D394025059902DC1E075
:102D0B00FF902F77E06F704DB183902F78EFF07BB2
:102D1B00017A2F79787D01120B6E902F77E024BD0D
:102D2B00F582E4342DF583EFF0902DC1E0045401CE
:102D3B00F07022902DBFE07002A3E060187B017A47
:102D4B002D79BBB1617B017A2D79BB902DBFF1A49D
:102D5B008E8312131322C003C002C0017B017A2D94
:102D6B0079BDB17DD001D002D0037F02020885125C
:102D7B0011D3902DE90211DCE4FFE5F754C060029A
:102D8B00801675FF01E5D530E30DB1A850F4B1A362
:102D9B00EF60EFB1A850EB22F194AFD92275FF0190
:102DAB00E5E43322902EDCEFF0A3F1CC75FF01129A
:102DBB001F15EF64016002C322E5F430E602C32263
:102DCB007FE87E03121F54121E9DD181400122C247
:102DDB0050121EA4902EDCE0FF912D53F4DFD25045
:102DEB00121EA47F787E00D12B75FF0153E4BFE543
:102DFB00E430E7FBF1947F8AF17130E605D169E4A9
:102E0B00800775FF01D169E5D9120E3675FF0143B5
:102E1B00E440F1B4400343F420D181400122D3229A
:102E2B00CDEFCDCCEECCD175AB94EF4BF1C4CBEF5A
:102E3B00CBFAE59130E718D178A994E9F582EF4503
:102E4B0082FFEBF1ACC3EF9582E5F0958340E3E5B0
:102E5B009120E709CEECCECFEDCF121F4722902E5B
:102E6B00DDE0FBA3E0FAA3E0F92275FF03AF93EFDC
:102E7B0075F010A4FF22E5F730E50FE5F754C070AD
:102E8B0005121E8C40F0D197C322D32275FF03E4A9
:102E9B00F59122E4902ED4F0A304F0E4902ED7F019
:102EAB00E5FA30E1FB75FF01E5D530E7037F002242
:102EBB00E4F5FF75E50875FF0153D8EFE5D530E66E
:102ECB001A75FF01902ED6E5DAF0E4F5DA75FF01FD
:102EDB00E5D630E3FB902ED77401F075FF03759B9D
:102EEB000475FC4175FF03E59B30E7FBE4FB75FFC5
:102EFB00038B95121B1AFF123A8F0BEBB403EF7572
:102F0B00FF03759580E4F5FF758EC8F17975FF01A8
:102F1B0053D5FBD197121F4375FF0143D504902E58
:102F2B00D7E07007D1977FC8121F457B017A2E79A6
:102F3B00D5123ACF902ED5E0902ED47006E04404F3
:102F4B00FF8002E0FF902ED4EFF090120EE0B40160
:102F5B000675FF0143D81075FF01902ED6E0F5DA08
:102F6B00902ED4E0FF22FED12B90120FE022E4F53D
:102F7B00FF75C2E17F1EF17130E707E4F5FF75C203
:102F8B00A122E4F5FF75C2812275FF01E4F5EA7514
:102F9B00EAFF22EFF0A30211DCE0FEA3E0FFF582D3
:102FAB00222DF582EA3CF5832290120EE0D3940198
:102FBB002233333354F8F5F42224FBFFE5F034FFCE
:102FCB0022EBF0A3EAF0A3E9F022F5D7E4F5FF53E7
:102FDB00D6F022E5F45418131313541FFF2290124A
:102FEB0015E07F0030E0027F01229003BDE0FCA3DF
:102FFB00E04C700A9003BDEEF0A3EFF0D322C32296
:10300B009003BDE0FEA3E0FF4E6009CAEECAC9EF14
:10301B00C912130F22D2ADD2BD75FF02758E717519
:10302B00500975FF02E58E546F4480F58E902EC0CB
:10303B001211960000000022C0E0C0F0C083C082D5
:10304B00C0D075D008C0FF75FF02E58E30E43E7529
:10305B00FF02E58E54EF4410F58E902EC0121162D4
:10306B00121CC6902EC012118A900000E475F0015C
:10307B00120F07E55030E0020539E550700D755021
:10308B0009054CE54C7002054B8002155075FF028B
:10309B00E58530E40875FF024385100554D0FFD059
:1030AB00D0D082D083D0F0D0E032E49006E0F09024
:1030BB0006D204F02212265A500611CD500280017E
:1030CB00C322E5F754E024FF22AF14EFC36001D312
:1030DB0022EFC3940E50059006C2EFF022E5175471
:1030EB000FFF22E517C394F0501F5317F03117FE53
:1030FB00740FC39F4005EE940E400543170D8003DC
:10310B00EF4217E517540FFF227F0022E517C45437
:10311B000FFEEF90037A932E223117FFC3940E40CC
:10312B00027F0DEF90035C93FF22EF30E303AF13AD
:10313B0022AD1B203604EE30E00BE517C394F050A4
:10314B0020316F8018E5196006FDE4F5198012E552
:10315B0017C394F0500BE517540FFF60043124ADE7
:10316B0007AF05229006C2E0FDFFC3740E3199EF45
:10317B00C4F8540FC868FFEEC454F048FEE517546A
:10318B00F0C39FEE12233F7F005002AF05229FFF3B
:10319B00E49400FE22902ED8EDF0901211E0F46032
:1031AB0005A3E0B4FF0C902EDA7418F0A37413F09F
:1031BB008010901211E0902EDAF0901212E0902E07
:1031CB00DBF0120D9B640160026109902ED8E0FECA
:1031DB0064086004EEB40408902ED97428F08006BD
:1031EB00902ED9743AF0EF121B1BFF1210EDE47105
:1031FB000AEF24D8FFEE343FFEED3493FDEC34168A
:10320B00FC7B007A807903780012029971C3902EAF
:10321B00DBE0FF902EDAE0C33199E4FCFD120FD016
:10322B00ECC0E0EDC0E0EEC0E0EFC0E0902EDBE0E4
:10323B00FFE4FCFDFE710AD0E0FBD0E0FAD0E0F930
:10324B00D0E0F8EB2FFBEA3EFAE93DF9E83CF890C9
:10325B002ED9E0FFE4FCFDFE120FD0EF2454FFEE5D
:10326B00340B121CCCE47BA87A16F9F8120299CB1A
:10327B00EFCB902ED8E014605D14601B24FE600C25
:10328B0024FC707AE4F5FF75CE318006E4F5FF750A
:10329B00CE21F5FF8BCF22E4FAE4F5FFEA2440F5CB
:1032AB00CEE4F5FFEAFFC37407319974FC2FF58266
:1032BB0074033EF583E47112C39DF5CFE4F5FFEA89
:1032CB002448F5CEE4F5FFEA9003FC71122DF5CFFF
:1032DB000AEAB408C422E4F5FF75CE01F5FF8BCFE3
:1032EB00F5FF75CE0EF5FFEB25E0F5CFE4F5FF7599
:1032FB00CE0FF5FFCFEBCFEB75F003A4F5CF227B11
:10330B0064FAF9F8020FD09325E0FDE433FCEB757A
:10331B00F010A4FFAEF0120E7CCDEFCDEBFFE4C3AB
:10332B0013EF13224315015315DF31357170400430
:10333B00E4F5142243FA045315FB3045051227E438
:10334B00800A7F5571597F557159D2EBD32275FF86
:10335B0001E5D520E602C322E5FA540360FA75FFB6
:10336B00018FC3D3229007B8EFF09006C1E0FF7135
:10337B00D09007B9EFF09006C1E024FD6013047004
:10338B00089007B77404F0800E9007B77408F080AC
:10339B00069007B77402F07F01120C9F9007B9E0FB
:1033AB009007B771BCE4902DD3F0121CD450EDD321
:1033BB0022FFE0FDA3E0FB22C8ECC8C9EDC9CAEEB1
:1033CB00CACBEFCB22EF24FD600680007E0180028A
:1033DB00E4FEAF06229003C1E0B4020D8F1B9007F1
:1033EB0070E0F513120ABAD322C322E51754F0C4C6
:1033FB00540F2FFFC3941040027F0FEF90036A937B
:10340B00FF227E10EE60091EEE90036A93B507F45F
:10341B00EEC3940E40027E0DEE90035C93FF22C22E
:10342B00AFEF4215D2AF22EF24FE600C24FE6005F5
:10343B0080007F01227F02227F0322751401751AFF
:10344B00139006D3EFF09006C17402F0ED9006E1F5
:10345B0030E507E4F0A3743AF022E4F0A374E6F04D
:10346B002291785007E475F001120F0722C39006E2
:10347B00C7E094FF9006C6E094FF22C39006C9E014
:10348B0094FF9006C8E094FF5007E475F001120F0B
:10349B0007229006E1E0A3E0FF229007901211DCD7
:1034AB00900793EDF0E4A3F0ED54FE900793F060DA
:1034BB0030E4FF122015BF01289007901211D31290
:1034CB0019CB501D900791E475F002120F0790076E
:1034DB0094E02402F0900794E0FF900793E06F7064
:1034EB00D87F01122015900794E0FF227D0291A551
:1034FB00EFC36001D322E49006D4B1169006D8B185
:10350B0016FFFEFDFC9006DC02118AFFFEFDFC128D
:10351B00118AE422EFB12812116202114825E0252D
:10352B00E024D4F582E43406F583229003B9E0F469
:10353B00FFA3E06FFFA3E06FFFA3E06FFF64556095
:10354B0009EF644A6004EFB40A010F9006C0EFF074
:10355B0022A2EB9247C2EB7A0679C67B017D0CE483
:10356B00FF120858A24792EB22A2EB9248C2EBEB58
:10357B00C0E0EAC0E0E9C0E07B017A0679C6122D13
:10358B007DD0E0F9D0E0FAD0E0FB7F0C120885A2E9
:10359B004892EB22902DBFEEF0A3EFF02290121584
:1035AB00E05403F022902DC2EFF0C249120A47EF0C
:1035BB00542364206024902C69E0601E7B017A2DDB
:1035CB0079C3122D7DF1D0902DC37406F0A3E54F76
:1035DB00F07B017A2D79C3120C8B902DC2E0607DAC
:1035EB00F1A9E06002D179902DC2E0FFB401079000
:1035FB002C6D74018009EFB40310902C6D7402F0E4
:10360B00B1A8902C6B7404F0804BEF6404703812EB
:10361B000A47EF5423FFBF2013D249F1D9EF7004AF
:10362B00B1A8F1C8902C697404F08035120A47EFE9
:10363B005432FFBF020C9003B6E0B40505E4F01260
:10364B000A9CB1A87F0022902DC2E0B40213E49033
:10365B002C6BF0B1A8902C697402F08004F1A904D2
:10366B00F0D17C902C69E07F0060027F0122740115
:10367B00F0902C69E0640270207C387D3A7F011257
:10368B0009847E367FE9C006C007E47FD07E07FD44
:10369B00FCF1E5D007D006E1A0902C69E064037043
:1036AB0018FFFE12183F902C6DE07C387D3AB40267
:1036BB00047F0380117F02800D902C69E0B4040B12
:1036CB007C387D3A7F041209848013902C69E0B416
:1036DB00010BF199F1B2B1A8E4902C69F022F1B28F
:1036EB00902C69E0B4020AF199902C697403F08074
:1036FB0080902C69E06403707A902C6BE06057909B
:10370B002C6DE0B40105120AA1800A902C6DE0B477
:10371B000203120AA6902C6BE014F0E06020121F3B
:10372B00EFEF75F04684E5F075F064A4FFEF24A08D
:10373B00FFE5F0340FFEE433FDE433FC8007E47F58
:10374B00A07E0FFDFC902D8512118A7E367FE9E459
:10375B00902D89F0803F902C697401F0D17C902CD6
:10376B007074FDF0902C6F7407F07B017A2C796FDD
:10377B00020C8B902C69E0B40413F1C0EF600B7B4F
:10378B00007A007900E4FF02188C120AA122E4FDF2
:10379B00FCFF0209841208B2902C6EEFF022E49029
:1037AB002C6DF0902C6922902C6EE0FF1208ADE48A
:1037BB00902C6EF022901215E05408FF22901215F7
:1037CB00E04404F0227A2C796F7F06020885901270
:1037DB0015E07F0030E2027F0122902D8512118AC5
:1037EB00E4902D89F022901215E05414FFBF1404BD
:1037FB007F0180027F00221237C0EF6010E47FA0B0
:10380B007E0F12183F901215E054E7F0229012151C
:10381B00E0FF74E0D39F4005E02410F022EF64102A
:10382B00901215F022901215E0C4135407FF22904A
:10383B002EC41211DC1237B2902EC41227F3902E25
:10384B00C7F0902EC4122D7A7B011237D0902EC761
:10385B00E0B4011D902EC41211D3E924011222E50C
:10386B00902C6AF074FE120E36902C697405F08061
:10387B0016902EC7E0FF64066004EFB40712902C7D
:10388B0069E06003123679902EC41211D3120C8B9F
:10389B0022902C63E0FF1208ADE4902C63F0221110
:1038AB009CE53864066006E53864077030902C633D
:1038BB00E06003F47027E4FDFC7F01120A7E7E3882
:1038CB007FAAC006C0077F587E807D047C0012371C
:1038DB00E5D007D0061208B2902C63EFF0229027A8
:1038EB00F5E070087B017A2779ED310B9027F5E035
:1038FB0044C0F09027F831129027FCE054FEF022E0
:10390B007D107F23020AFBE054FEF0A3E044C0F0DD
:10391B00227405D39F500B7463C39F4005902C6C8E
:10392B00EFF0902C6CE0FF22902EC812118A3171AF
:10393B00E47BFF3177501CE4317012105B90121650
:10394B0012118AE47BFFFAF9317012105B90121C92
:10395B00EBF02290121612119600000000317190BC
:10396B00121CEFF022F8902EC8021162FAF9F8C37C
:10397B00021111902E8412118A902E88E05402901D
:10398B001234F0902E84121162809DEF7011ED6055
:10399B000775FF0143AE012275FF0153AEFE22EF07
:1039AB00B40114901235EDF0600775FF0143AE02C0
:1039BB002275FF0153AEFD22EF600775FF0253E640
:1039CB00BF2275FF0243E64022EF14600F14601410
:1039DB00240270188B8075FF018DFD228B9075FF73
:1039EB00018DC9228BA075FF018DCA22AF038FB049
:1039FB0075FF01AF058FCB22902DCA1211DCEF148E
:103A0B0060111460182402701E513DE5805143E58E
:103A1B00FD801C513DE5905143E5C98012513DE5B8
:103A2B00A05143E5CA8008513DE5B05143E5CB02B7
:103A3B000E36902DCD0211D3120E3675FF01902D3F
:103A4B00CA0211D3E4F5FFAF9122E4F5FFAF922246
:103A5B00902F20122FCC7F017C127D01E4FE8D82F2
:103A6B008C83ED2EF582E43CF583E02FFF0EEEB454
:103A7B0012EC901213E06F600A902F20122E6CE460
:103A8B00120E3622902ED012118A75FF01902ED075
:103A9B00A3E0FDA3A351C58FE1902ED0A3A3E0FE1D
:103AAB00A351BB8FE2902ED0A3A3A3E0FF8FE32201
:103ABB00E4FFE4FDFC7808021122E4FFFEE4FC784D
:103ACB0010021122C24A75FF03759B1F75FF0390ED
:103ADB00120FE020E71BE59A540FC394024012E04B
:103AEB004480F0E4F5FF75C2A143FC0475FF03D2DB
:103AFB004AE5FC30E609E59A540FC3940540CDE541
:103B0B00FC30E611E4120E3675FC80F5FC75FC40BA
:103B1B00E5FC20E6FB304A03121C8422902C4D124C
:103B2B00118AE4F5FF75BB0575BB8575FF0175D56E
:103B3B0002204B097F3FFE121F47122F7975FF01A1
:103B4B0043D520304B0261EAE4F5FF538EF7438EE9
:103B5B00077D04E4F5FF8DBCF5FF43B102E5B13001
:103B6B00E2FBE4F5FFAFDFEFFEACDEECFBEBFFEDD2
:103B7B0025E0244BF582E4342CF5839111F5FFF508
:103B8B00FF53B1FD0DEDB40CCA902C4D121B28FF49
:103B9B007809121122A39111FDED25E02455F58230
:103BAB00E4342CF583E0C313FAA3E013FB910491E7
:103BBB001F2BFFEE3AFE9104EEF0A3EFF0ED240481
:103BCB0090120DF0EDC394075015CFEDCF0DEF9183
:103BDB00059118902C52E09F902C51E09E50BAE426
:103BEB00F5FF758EC8F5FF90120DE0F5BCE4F5FFFF
:103BFB0075BB8075FF01F5D522ED25E02453F582C9
:103C0B00E4342CF58322EEF0A3EFF0E422E0FEA3E4
:103C1B00E0FFC322E0C313FEA3E01322902EE0913A
:103C2B00BAEBF091A3AC00AD01AE02AF03C006C07E
:103C3B0007902EE0911FFBAA06E4F9F8D007D006F7
:103C4B00D31210FB7E0050047F0180027F00C00660
:103C5B00C00791A3D0E02FFFD0E03E902EE0F0A361
:103C6B00EFF053ECFC902EE0E0FCA3E0FDEC5403F2
:103C7B0042EC75FF02EDF5AF75ED0275ED04A3E0B7
:103C8B00600543EC08800353ECF7902EE3E06004EF
:103C9B0043EC042253ECFB22902EE0E0FEA3E0FB6E
:103CAB00AA06E4F9F87F807E387D01FC020299EECA
:103CBB00F0A3EFF0A3EDF0A322C2ACE4F543F54281
:103CCB00F541F53FF540F53E7B017D019127D2ACE7
:103CDB0022EF30E00E43F401E4F5FF43A404F5FFBB
:103CEB00759624EF30E10E43F401E4F5FF43A4088D
:103CFB00F5FF759624EF30E20943F402E4F5FF7506
:103D0B00961EEF30E30943F404E4F5FF7596107546
:103D1B00FF01EF5403600475D7122275D72D22E4EF
:103D2B00F5FF7584E6F5FF439404F5FF75981422AF
:103D3B00E4F5FF75933F75FF03759A40B12AE4F5DF
:103D4B00FF759C93F5FF75A1A3F5FF758531F5FF05
:103D5B00758628E5FA54304480F5FA75FF0175E74E
:103D6B004A75FF0275DF4975FF0143D30475FF01E7
:103D7B0053D367E4F5FF53E6BF75FF0175D825F5FF
:103D8B00FF75B503F5FF75B215F5FF75BA02F5FFB3
:103D9B0075AFB3F5FF75CD0AF5FF75CB08F5FF755C
:103DAB00CA12F5FF75BF0EF5FF75CC96F5FFF5BD85
:103DBB00F5FF75C281F5FF75AEE1F5FF75DA55F5C7
:103DCB00FF75F580F5FF75E903F5FF75E933F5FF31
:103DDB0075972A75FF01759B42759CA4759D297576
:103DEB009E48759F2475A11275A312759AF8204DE4
:103DFB000CF5FF43968090120FE04440F022CCEF7D
:103E0B00CCCFEDCF74017E00C8EFC8088005C3335B
:103E1B00CE33CED8F9FFCDECCDEF5D601B304C1817
:103E2B0075FF0175DCAD75FF0175DDCDE4F5FF7533
:103E3B009A74F5FF7594842275FF0175DC5375FF39
:103E4B000175DD33E4F5FF759A14F5FF75940422C3
:103E5B0075FF0175E46575FF0175D6472275FF0186
:103E6B00E5D530E602C32253FACFEFB4080543FA87
:103E7B00308012EFB4040543FA208009EFB4020539
:103E8B0043FA108000D322E5F75406FFBF06037FE9
:103E9B000822E5F75406FFBF04037F0422E5F7541D
:103EAB0006FFBF02037F02227F012275FF018FDA1B
:103EBB0022E5F754C024FF22EF600775FF0243E6AB
:103ECB00102275FF0253E6EF22E5ED30E2FB75EDB4
:103EDB0004AFEF22E5ED20E0FB8FEF22EF60044310
:103EEB00EC042253ECFB22EF600443EC082253EC6E
:103EFB00F722E5ED5402FF22C0E0C0F0C083C08280
:103F0B00C0D075D000C000C001C002C003C004C047
:103F1B0005C006C007C0FFF195EF602912004612DD
:103F2B000056E53EC394204003753E00E542C39422
:103F3B0020500FAE3E053E74462EF1A3EFF0054226
:103F4B008003754220D1FDEF602312004EE543D371
:103F5B0094004019E54194204003754100AF4105A1
:103F6B004174662FF19BE0FF12005E1543D0FFD02A
:103F7B0007D006D005D004D003D002D001D000D09A
:103F8B00D0D082D083D0F0D0E032E5ED5404FF22C4
:103F9B00F582E43406F58322F582E43406F58322B8
:103FAB00E540C394204003E4F540AF400540744620
:103FBB002FF1A3E0FFC2ACE542D3940040021542BF
:103FCB00D2AC22E5ED5401FF22C2ACF1CEEF70046E
:103FDB00E54360047F0180027F00D2AC22902C87E6
:103FEB00E0120E36902C8CE0900001120E48902CB3
:103FFB008DE0900002020E48AB05E4FCFD902E977D
:10400B00EBF002075E902F29E075F005A4248BF9E5
:10401B00742435F0FEAF017B017A2B79C7902E30DB
:10402B007405F0902E2D1211DCE4FCFDC007902ED0
:10403B002D1211D3902E30E0FF902D4DE4F0A3EF15
:10404B00F0D007021718E4FEEF70037FFF22EFD3C7
:10405B00940F4009EFC4540FFFEE4404FEEFD394CA
:10406B0003400AEF1313543FFFEE4402FEEF30E11F
:10407B00010EAF0622EFF4045FFF80CA514E902C65
:10408B00981211DC902C94121162902C8FE024FF6B
:10409B00FD902C8EE034FF5EFEED5FFF902C9DEECD
:1040AB00F0A3EFF04E605C5124C3902C8FE09FFF88
:1040BB00902C8EE09EFE902C9DF0A3EFF0902C9B0D
:1040CB0071219FEC9E5006A3ECF0A3EDF051FE6026
:1040DB002231F4C004C005C006C007317C60053135
:1040EB00E7FF80027F007132D007D006D005D004E5
:1040FB001213E1512D317C6004512480677E007FC7
:10410B00008061902C9BE0FEA3E0FF4E6061902C41
:10411B008E7121EF9DEE9C400A902C9DECF0A3ED4F
:10412B00F0800D902C9BE0FFA3E0A3CFF0A3EFF06A
:10413B0051FE602231F4C004C005C006C007317CBB
:10414B00600531E7FF80027F007132D007D006D0C7
:10415B0005D0041213E1512D317C600451248004ED
:10416B007E007F00902C99EE8FF0120F078094D376
:10417B0022902C981211D3E94A22AB07AA06EB2402
:10418B001FFFE43AFEEF7805CEC313CE13D8F9F92F
:10419B00EB541F902FA6F0AF0531ECFCAF0511517E
:1041AB00AE01EE14C39FC43354E0F9AF04C3EB9FCD
:1041BB00FFEA9400FEE9FDC3EF9DFFEE9400FEEDD8
:1041CB00600FE0FD6007C374209DFD80067D0080BD
:1041DB00027D007C00EF2DFFEC3EFE22902CA1E037
:1041EB00FF1180EFC43354E022902C9DE0FEA3E03E
:1041FB00FF902CA1E0FD3185902C9FEEF0A3EFF00A
:10420B00A3E0FF1180EF75F020A4FFAEF0E4FCFDFE
:10421B00902C9412117E020FB5902C9DE0FEA3E022
:10422B00FF22902C9DE0FEA3E0FFC3902C9CE09F0F
:10423B00F0902C9BE09EF0902C9412117EE4FCFDF0
:10424B00120FB5902C9402118A71281211DCE49094
:10425B002CACF0A304F0902CA9E0FEA3E0FF4E7071
:10426B000241F8D3EF9420EE940040047F208006A7
:10427B00902CA9A3E0FF902CABEFF0902CA6121181
:10428B00D3902CABE0FF902B9EE4F0A3EFF0902C9F
:10429B00A2121162717E400E902CACE0FFA3E0FEE7
:1042AB00EF4E902CACF0902CABE0FFC3902CAAE01F
:1042BB009FF0902CA9E09400F0902CA212117E900C
:1042CB002CABE4FCFDFE120FB571281211D3E94A99
:1042DB006007902CABE0FF80027F00902CA7E48F4F
:1042EB00F0120F07902CADE025E0F04161902CAC63
:1042FB00E0FF22902C981211D3902C9DE0FFA3E0AD
:10430B00902CA9CFF0A3EFF0902C94121162515482
:10431B00902CA1EFF022E0FCA3E0FDD322902CA285
:10432B0012118A902CA6227E00902C981211D3E9A0
:10433B002FF9EE3AFA902C9FE0FFA3E0902D44CF9B
:10434B00F0A3EFF02235F0FEAF017B017A2B79C29F
:10435B00902DDCE4F0A37405F0902DD91211DCE460
:10436B00FCFDC007902DD91211D3902DDC91E1D01B
:10437B00070187902B9712118A902B9B1211DCE46B
:10438B00902BC0F0D3902B9FE09420902B9EE09429
:10439B00004001227B017A2B79A0902B9E91EE900D
:1043AB002B97121162121718902B9B1211D3E94AFB
:1043BB00600B902BC0E0F58271F9FF80027F0090BB
:1043CB002BC0E024A0F582E4342BF583E06F600270
:1043DB00C322902BC0E004FFF0D3902B9FE09F9063
:1043EB002B9EE0940050C1221211D31E8E82758336
:1043FB0000020DB4902E799170E58F20E0FB917740
:10440B00E4FF902E791211D38F8271F9F5930FEF90
:10441B00B410EFE4FF902E7C1211D38F8271F9F55B
:10442B00940FEFB410EF22902D6A9170E58F20E07E
:10443B00FB91777E10902D6D71F3F593EE70F67EF8
:10444B0010902D6A71F3F594EE70F67F01918791C0
:10445B00D8EF70FB7E10902D701211D31E8E8291AF
:10446B00A3EE70F2221211DC75FF012275FF0153CE
:10447B008F0675FF01538FF075FF0122EFB4010713
:10448B0091C24401F58F2275FF01E58F54F044066C
:10449B00F58F227404F06164758300E593020E4876
:1044AB00902F749170E4FF902F741211D38F82911F
:1044BB00A30FEFB410F12275FF01E58F54F6229193
:1044CB00C24408F58F22716474FFFDFC2275FF0155
:1044DB00E58F5401FF22E0FFA3E0902C9BCFF0A3CC
:1044EB00EFF022E0FFA3E0902D4DCFF0A3EFF022F1
:1044FB00902C89E0FF22E4902C89F022E4F5FFEF69
:10450B00F5D8E4F5FF53D60FEE540FC4F854F0C8AA
:10451B00E4C4540F4842D622E4F5FF8FD422E4F5CD
:10452B00FFE5D1540133333354F8FFE4F5FFE5D302
:10453B0054074FFF22EFB40109D2AD75FF0143AE13
:10454B004022C2AD75FF0153AEBF22E5C85402FF36
:10455B0075C80222E5C85401FF22902EBB1211DC54
:10456B00E4902EBEF0A3F0902EBEE0902EBBB19E39
:10457B00902EBEEFF0600BB197EF6006902EBFE070
:10458B0004F0902EBEE070DFA3E0FF22E0FFC25BE1
:10459B000209F2FF1211D30208D5EF6004902D39F6
:1045AB00F090069FE090068EB19E90069FEFF06014
:1045BB0052202E4F902D37E0C330E501D39231902E
:1045CB002D36E0FD902D3AD11B1211DC902D38E0E9
:1045DB00900718F0902D35E0900719F0A37480D157
:1045EB002290069FE0FBE4FF120B4BEF7021902D06
:1045FB00397402F0902D33E0FEA3E0F5828E837FB9
:10460B00028009902D39E0902D33F12A12131322D9
:10461B001211D390071522F0A37445F0A374A5F0E3
:10462B0022902CDF1211DC902CDEEFF0FE902CE9A7
:10463B007403F0902CE6E05437F0E0FF5420902DFB
:10464B0037F0902D36EEF0902CE7E0FDA3E0902DA7
:10465B0033CDF0A3EDF0902CE21211D3902D3A1242
:10466B0011DC902CE5E0902D38F0902CDF1211D35B
:10467B0090068E1211DCEF4420902D35F0E4902D36
:10468B0039F0C22EF548902CDF1211D3AF48120827
:10469B00D58F48EF602A7D03120A6F40E9902CE515
:1046AB00E0D3941940037F0022AF48120A6A5008E6
:1046BB00902CE97401F08008902CE97402F080C60C
:1046CB00902CE5E0FED3948240037F0022902CE6F1
:1046DB00E0FB902CE930E010F116C003F11E902C9A
:1046EB00D8EED122D0038020F116F11E902CE5E0FC
:1046FB00902CD8F0902D33E0FBA3E0902CD9CBF08D
:10470B00A3EBF0902CE6E0FB022662E0FF902CDEA0
:10471B00E0FD22902CE21211D3902CD50211DCFF7C
:10472B00E0FCA3E0FDF5828C8322C003C002C00134
:10473B00902D2C1211D3902CE21211DC902D2FE026
:10474B00902CE5F0902D30E0902CE6F0902D31E0A0
:10475B00FFA3E0902CE7CFF0A3EFF0D001D002D075
:10476B0003AF4FC12CE4FF3026037402FF2220005D
:10477B0005D2130209BBC3229007DAEFF0E543C35E
:10478B009420400512178080F4E53FC3942040032A
:10479B00E4F53FC2AC123FCEEF700EE543700A90CA
:1047AB0007DAE0FF12005E80139007DAE0FFAE3FFE
:1047BB00053F74662E123F9BEFF00543D2AC7F0191
:1047CB0022C2ACC374209543FFD2AC2275FF01E526
:1047DB008F5408FF22EFB4010775FF0143AE20226F
:1047EB0075FF0153AEDF22EFB4010775FF01439153
:1047FB00202275FF015391DF22F07B017A28797912
:10480B009007151211DC90071822C2077B007A0063
:10481B00794F902E341211DC0B7A0379B9221211D5
:10482B00D3E92407F9E43AFA22E92401F9E43AFA44
:10483B00221211D3E9240222FDEF4DFFE5F08FF098
:10484B00020F962409F9E43AFA2275F005A424F331
:10485B00F9740035F0FE221211D3E92408F9E43A79
:10486B00FA221211D3E924BDF9E43AFA22E924031E
:10487B00F9E43AFA221211D3E92405F9E43A22E9D0
:10488B002404F9E43A22902C44E0540F6406227B72
:10489B0001902DFFF0A374FFF022E924FFF9EA3415
:1048AB00FFFA020D9BF9E43AFA740122F9E43AFAA1
:1048BB000211F124B2F9E43AFA2274FFF5F0120F67
:1048CB000745F022AF017B017A2E797F22242DF947
:1048DB00E43AFA7D04E4FF0208587B017A067988F2
:1048EB0022E0FCA3E0FD4C22F0A3EDF0E4A3F022C8
:1048FB008D828C8302131390074BF0A3EFF022F001
:10490B00A3F0A3F0A3F022EEF0A3EFF0AA06F97B3D
:10491B0001227B01902DFFF0E4A3F0227B017A288A
:10492B00797D227A0679BB7F0422242CF9E43AFAAA
:10493B007440227B017A2E79827F0222902E53ECD7
:10494B00F0A3EDF022FAEF54F84402FF22EEF0A3AD
:10495B00EFF07B0122FFAEF054076403227431F0B9
:10496B00A374A0F022E0FEA3E0FF7C0022F582E41A
:10497B003406F58322FF54F0C4540FFE227401F069
:10498B00AE04AF0522AA06A90702130FAF03EAF084
:10499B00A3EFF0229003B9E0C394C0229003B9E0D7
:0449AB00FFA3E02264
:107F7E000200022490294A02060A02294C29800096
:107F8E003904060A0229853187080705060A0231D7
:087F9E008C319A0013FF060A62
:107FB000FFFFFFFFFFFFFFFF7FC600000000000084
:067FC000000003080000B0
:108000007B01E4FFAE051DEE6009EF120E3612C8CB
:108010009480F122902F00122F9E91F3310AE94AA9
:10802000C36001D34002210812E16D501AE0FF94B1
:1080300004500280027F04310A12487091ED7B01E6
:108040007A2C792C12933A902C1D1222F6546790B8
:108050002C303109E924DF31C0902C2B3109E9247F
:10806000E631C0902C313109E924E731C0902C323F
:108070003109E924E831C0902C333109E924E43195
:10808000C0902C293109E924E531C0902C2A31090E
:10809000E924E91222FC12E1E73109B10EE4902C47
:1080A000203109E924DC1222FC45F06052902F00B7
:1080B000E0602CA31211D391ED7A2C792412E26A9C
:1080C000B107C003C002C001310AE924DC1222FC5E
:1080D000F58285F083D001D002D003E4FF801DB18A
:1080E00007C003C002C001310AE924DC1222FCF5FA
:1080F0008285F083D001D002D0037F0112131312C6
:10810000932D902C1D1211DC22F0902C1D0211D306
:10811000902C1D1211DCE924E331C06012E4902C94
:1081200034310912CC1F7E0A7FC4FD7C0021B4319A
:108130000AE9240131C0D39401403F120B3C902C3A
:1081400034EFF07E0A7FC4310AE924B731C030E74A
:108150001B310AE924BB31C020E011310AE924BCFB
:1081600031C012E32FB504047D07800A310AE924E7
:10817000B131C012E3617C00803AE4902C34F07E8F
:108180000A7FC4310AE924B731C030E71B310AE95C
:1081900024BB31C020E011310AE924BC31C012E314
:1081A0002FB504047D07800A310AE924B131C012D9
:1081B000E3617C00020B37902CBA1211D3E9240240
:1081C000F9E43AFA020D9B902F041211DCE94AC33C
:1081D0006001D3400241B3902F0431BA30E017510F
:1081E000B5E924B731C0540FFFBF0503D38001C3E5
:1081F000400451B5211091F351B512E16D501AE0D0
:10820000FF9404500280027F0451B512487091ED32
:108210007B017A2C792C12933A902F041222F65477
:1082200067902C3051B4E924DF31C0902C2B51B42D
:10823000E924E631C0902C3151B4E924E731C090F3
:108240002C3251B4E924E831C0902C3351B4E924E4
:10825000E431C0902C2951B4E924E531C0902C2A96
:1082600051B4E924E91222FC12E1E751B4E924E314
:1082700031C0902F077003F080037401F051B5E90D
:1082800024DC1222FC45F06026902F07E0FFB107A6
:10829000C003C002C00151B5E924DC1222FCFDACD0
:1082A000F0F58285F083D001D002D0031213135170
:1082B000B5B10E22F0902F040211D3310AE94AC35E
:1082C0006001D3507A310A12483474FF120DE11262
:1082D0000D9BFFD394014007EF940350028054316B
:1082E0000AE9240131C06401704D902C1D1222F660
:1082F000124960703E310AE924B631C0654F7033CF
:10830000310AE924B731C020E729310AE924B9311B
:10831000C0D39440501D200A1A310A12488A1249CB
:1083200050EE8FF0120F96310AE924B731C0441095
:10833000120E36310AA156E4902C20F0120B502276
:10834000E53B600261FD9101E9240431C030E6178C
:10835000910112482CE475F064120F969101740695
:10836000120E36C22F80459101E9240531C0442008
:10837000FF9101E92429F9E43AFAEF71FEE9124983
:108380003571FEE91248D89101740571FEE92404A3
:1083900031C030E3067E037FE880047E077FD09102
:1083A0000112482CEE8FF0120F96D22F9005D93182
:1083B000BAFF9005D912945F31C0FD9101E92420E4
:1083C000F9E43AFAC003C002C0019101E924063180
:1083D000C0900732F09101E9240431C054F79007AE
:1083E00033F0A3740AF0A37488F0D001D002D00354
:1083F000120B46EF700791017407120E3622120E0F
:10840000369005D90211D39101E471FEE9240531BA
:10841000C01460030470509101E9242C31C0540F42
:108420009007D7F09005D9602E1211D3E9242B3193
:10843000C0FF122006EFFD9007D7E014F075F0643E
:10844000A42419FFE435F0CF2DCF3400FE910112A2
:10845000482CEE8FF08006124829E4F5F0120F96B2
:1084600091017402120E3622E53B24FD6056146021
:10847000142403707312DDF9506EC22C910112485E
:1084800034740180599101E9240BF9E43AFAC003EC
:10849000C002C0017B017A06792691EDD001D0029D
:1084A000D0037F1312933A9101E9240431C0540997
:1084B0007002802D90121AE0FF9101E9241312231B
:1084C0004DD22C229005D912945F31C0B53C199041
:1084D000121AE0FF9101E92413F9E43AFAEF120EBF
:1084E0003691017407120E36227A287979902DE997
:1084F0000211DC7A2C79217D1311007B017A2C7911
:10850000247D057F7F01047B017A2C792122E402FE
:108510000E3602071B902E311211DC7E007F1412E2
:10852000062D902E341217E4902E3412A4467010AB
:1085300004120E36B176E94A601B7E007F08800A7D
:10854000B176E94A600F7E007F10B176902E3074CC
:1085500004F012402E229007BD1211DC9007BD12CC
:10856000A446540F120E369007BD1211D3E924E62B
:108570001248B0020DE1902E310211D37F3B7D3CB9
:1085800012DDB8E53B14700312DE60E4F53AE53A1B
:108590009005D912E2A6120D9B24FE601724FE60FE
:1085A0001814601914601A14601C24066002C12F8C
:1085B0009107807B12DE2D807671408072916880F9
:1085C0006E12DE4480699101E9241E1222FC45F0FE
:1085D0006055E53B640460099101E9240131C0F56F
:1085E0003C9101E924091222FCFFAEF012B4309153
:1085F00001E9240B12E351120F96C003C002C0011F
:108600009101E9241E1222FCF58285F083D001D06D
:1086100002D003AF3C1213139101E9241EF9E43A8E
:10862000FAE4F5F0120F969101E4120E36C22D0510
:108630003AE53AC394025002A18EE5396009FD7F04
:108640000112DD62E4F53922902F231211DC7E0045
:108650007F141240037E007F10902F231211D3123B
:10866000AB0812449E7F0122C23B2202062D902CB1
:10867000BA1211DC902CBDEDF07401C39D400302D1
:1086800091D7902CBE12A446902CC1F0E924013160
:10869000C0902CC3F0902CBE31BA902CC2F0123096
:1086A000D440FB121780902CBA12A446FFC394202A
:1086B0004031EFD394FF502B902CBDE0FD949F50A0
:1086C00022902CC1E030E7030291D731BD902C47B6
:1086D000F0902CBE1211D3902E1A1211DC12E2A0CF
:1086E000020C90902CBA12A446640160030291D748
:1086F000902CC1E030E6030291D7E9240131C01289
:1087000012E987FD018C96028CA7038E18048EC196
:10871000058B2A068ADD078D39088D8C098DAD0AF7
:108720008DC00B8F230D907A0E8E0B0F90DD119163
:1087300041138DCC1A87481F87F12387C02687EA0B
:108740002787FD28000091D712C47C7420F031B730
:10875000705490287BF0A304F012945C31C0FF3376
:10876000333354F8902CC4F012E2A012488AFA90E5
:108770002CC412B3217025902CC412B7DF601D9059
:108780002CC4E0FF12932D12A285902CC4E0FD12A0
:10879000932DE4902E78F07F20120C9A902CC4E058
:1087A00014F070C48005E490287CF012480512E3B0
:1087B0005912CB79902CC3E0FBAD4FE4FF020B4B79
:1087C000902CBDE0FF7406D39F40030291D7902CFC
:1087D000C1E054DF902CBA122346902CC3E0FD90E8
:1087E0002E787405F07F86028ADAE5386406600D1B
:1087F00022E53864046006E49028AAF022902CBD9B
:10880000E0C39406E4940050030291D79028AAE0B4
:10881000FF60209027FDE0B40314902CC1E030E706
:10882000030291D7902CC3E0FEEF6E600622E49025
:1088300028AAF01281B75407C394035006902CBAAB
:1088400012276C12D5E07016301F1312945C12813F
:10885000C05406FFBF020712E338C21F4132300B7B
:10886000030291D79028B1E060030291D7902CBD0C
:10887000E09028B412E29F1294BC902CC3E0FC90CC
:1088800028B3F0902CC1E09028B7F07F1030E402BC
:108890007F00EF4401FF902CC1E0FE54024F90286E
:1088A000B6F012E21C704912E2A0E924011281C064
:1088B000B4230EEE7F0070027F01EF30E4030291DB
:1088C000D7200F0A902802E030E1030291D720055B
:1088D0000A902802E020E1030291D7E49028B2F048
:1088E000902802E07F0030E102AF04902C4821BEC6
:1088F00012E2A0E924011281C0B4230122E5386408
:10890000067002416712E3716007EF640260024182
:108910006730141812D3A96001227B017A2879BE2E
:108920001284ED7A0679887F0412933AA2145002D9
:108930008001C3401A200F0A902802E030E10302B0
:1089400091D720050A902802E020E1030291D790F8
:108950002791E020E00ED2301248E51284ED124952
:108960002E12933A902CC3E0FF7002413A30080A6D
:10897000902802E020E1030291D7902CC1E020E78B
:10898000679027FDE0B40204C20F803512E31C504B
:108990002312D5E0702B902802E030E124201F053F
:1089A000EF64EF701C301F047FEF800312D68F90AE
:1089B00028B2800A902CC3E0B4EF0612D6DCEF8018
:1089C0006B902CC3E09028B2F012E21312DB5560DA
:1089D000119028B17402F012932DE4FF129C54D22E
:1089E0001C22E49028B1F02212D5E060030291D756
:1089F000902802E020E1030291D7301F0D12E31C02
:108A00005008902CC474EFF080189028B2E0700ADF
:108A100012D68F902CC4EFF080089028B2E0902CF2
:108A2000C4F0902CC4E0FF60069028B2F0803012B1
:108A3000E33812932D7F01020B9B902802E030E176
:108A4000030291D79028B2E0FF600912A3DDEF6026
:108A50000820080512D6DCEFF09028B2E06003028F
:108A6000DAD5E4FBFD819212E2A0E924011281C073
:108A70006427704A902CC1E030E5437B017A067987
:108A8000BB1284ED7A2779967F0412933A9028B42A
:108A9000E0FE24F890279AF0EE24FBFF12E2251264
:108AA00084ED7A27799B12933A12E3497A277996D3
:108AB00090279AE02408902E78F07F85801C902CD7
:108AC000C1E030E7030291D7902CC312E223902833
:108AD000B4E024FB902E78F07F84020C9A9028B1A9
:108AE000E0FF64036004EFB4080302C4A7902C44C1
:108AF000E0FF20E5030291D71281B7FE902C47E0FA
:108B00006E60030291D7300B0F902CC3E0FE9028CB
:108B1000B2E06E60030291D7EF54DF902C44F03046
:108B2000E7030291D7E4FF020BAF9028B1E0FF64A6
:108B3000046008EF640960030291D712C9D712815B
:108B4000B7FD2403F544902CBDE0C3954450028149
:108B50008F300B0F12945CF9E43AFA12C868EF6098
:108B600002C2129028B1E0B40911902CC3E0FF12A8
:108B7000E2A0AC02AD0112AFE88018902CC3129BAA
:108B80004330E70F902CC3E0FF12E2A0AC02AD012E
:108B900012B680E4F5441281B7FFE544C39F502C20
:108BA00074C82544F582E43428F583C083C082E08C
:108BB000FF12945CF9E43AFAE54412B7D4120D9B23
:108BC000FEEF4ED082D083F0054480CA1281B7FFF9
:108BD000902940E0FEEFD39E4002EFF0E4FF12DC6C
:108BE00088EF600122300B0320123312E3497A2808
:108BF00079C87F1D12C9138F44EF7022902CC312C5
:108C0000C9EB600B300908902CC3E0FF12A1BE7FB6
:108C100022300B027F2312E2E212BAD9C20BE49097
:108C200028B1F0300925E5466021902CC3E090285A
:108C30007BF0902940E0FF90287CF07B017A287936
:108C4000C81284ED7A28797D12933A300B083012DD
:108C50000512E2E2803C902CC3E0FF12C95290283A
:108C6000B17410F0E546601F902CC3E0FF12DB8E5C
:108C7000BF0414902CC3E0FF7C0A7D0B12CFC850B8
:108C8000030291D702C7A412932DE4FF029C541251
:108C9000E2E27F23C108902CC3E0FF12E2F6440514
:108CA000FDE4FBFA02CE99902CBDE0C3940740038B
:108CB000D38001C340030291D7902C44E020E40309
:108CC0000291D72004030291D7E4F546C216129A06
:108CD000C2300715C2077B007A00794F902E3412FC
:108CE00011DC7A0079001285151281B77007FBFA42
:108CF000F9AF4F800512932D7F0112A285C2041295
:108D0000E2471281B7F54F12945CF9E43AFA128403
:108D1000ED121F8A7F0412933A121F8AAD4F1286FA
:108D20004812E2FD120BC8E54F60030291D712CE44
:108D3000821295927F0102A285902C44E020E403E8
:108D40000291D72004030291D73011030291D790EA
:108D50002CBDE0FFC3940350062018030291D7EF07
:108D6000C3940340211281B7FF30E01AE538B40103
:108D700007EF30E1030291D7E538B40207EF30E2A4
:108D8000030291D7D21B12E2FD020BCDC204129452
:108D90005C1281C0FFE4FD12DBE212489160030225
:108DA00091D7902CBDE0FF12E2A0020BD2124891A5
:108DB00060030291D7902CBDE0FF12E2A0020BD716
:108DC000902CC3E0FF1281B7FD02A1E512D6E2604C
:108DD00008EF641460030291D71281B7540F602327
:108DE00012945C1281C09028B2F0FD7E207F0712A1
:108DF00040039028B1E0641460030291D7F07F0132
:108E000002D62CE4FBFD7F2402BAD9902C44E0204A
:108E1000E4030291D7D21F22902CC3E0FF12DB5F44
:108E2000EF70030291D7300B030291D712D5E07097
:108E3000030291D7C204300A030291D7902CBDE0FF
:108E4000FFD3942240030291D7D20A12E2A01284E7
:108E5000ED7B017A2779C212933A12CFD112E379CE
:108E60002403FDE433FC902CBDE0FB7A0012233C8C
:108E7000400B74C52F12BC46E090282AF012E3790B
:108E80002404FDE433FCD3EB9DEC6480F8EA6480B9
:108E900098400F74C62FF582E43427F583E09028BC
:108EA00073F0902CC3E09027E312E2F54401902781
:108EB000E4F0D236900686E0902864F0E4FF02BB2E
:108EC000A5300B030291D712D5E070030291D79021
:108ED00027C27401F0A3740612E2F54401FC902746
:108EE000C4E0700204F090282AE0FE9027C4E0FD60
:108EF00012BC44EEF07A2779C212E2BE70027E0103
:108F0000ED2404C39E900718F0A3EC12E24F902CBE
:108F1000C3E0FB12C2DB60030291D7FBFAF97F01C9
:108F200002BB7A1281B7902CC5F070030291D790E2
:108F30002CBDE0FFC39407E4940050030291D7EFE7
:108F4000D3942C4003742CF012945560030291D7F3
:108F500012E2A0E924061281C07003029041902819
:108F60000774FF12E29FE924041281C0FF20E2503F
:108F70004404120E3612945CF9E43AFA1284ED12AB
:108F8000D7CA7F047E0012D7C112E326902CBDE021
:108F9000FF24F9FDE434FFFCD3ED9400EC94004091
:108FA00016EF24F9FF12E2A012482C1284ED7B0187
:108FB0007A28790712933A902CBDE02402F0803F82
:108FC000902CBDE024FDFF12945CF9E43AFA12847F
:108FD000ED12D7CA12E34120E12512D7CA129466D6
:108FE000902CBDE024FAFF12E2A012B7C21284ED69
:108FF0007B017A28790512933A902CBDE004F09019
:109000002CBDE024F7F544C374239544FD74072573
:1090100044F9E43428FA128000902CC5B19012A2D1
:109020008591557041902CC512E223902CBDE0240F
:10903000FA902E78F07F40120C9A7F0112D893801C
:1090400025902CC512B7DF700A9155600221D77F99
:109050000501DA902860E0B4030312E27C902CC58D
:10906000E0F54712D8B7902860E0600221D712E1FE
:10907000D490282B741FF002A5521281B7700221E0
:10908000D79155600221D7915C1281C0FF902CBD11
:10909000E024FC6F600221D712E2A012C88C128477
:1090A000ED7B017A28797B7F21713A90287CE0FF63
:1090B00090287BE0FD12492712C9138F44EF9028B6
:1090C0007B7007E0FF12C9218005E0FF12C95291B1
:1090D00055600221D712E27C7F0202D893902CBD0A
:1090E000E0FFD39404400221D7EFC3940350022140
