:020000040000FA
:1000000002180002180308F308F80102180B0ABAD4
:0A0010000AC42202181338080A7E01
:10001B0002181B46E17F0222021823A242922B22D6
:10002B0002182BE4FF02138A0218330217F3D322B0
:0E003B0002183BA243922E22021843023923E0
:07004B0002184B75ED0422C1
:0700530002185375ED0222B3
:06005B0002185BAFEF226A
:060063000218638FEF227A
:07006B0002186B123E38225F
:100073000218734105E700C12BC12E4105E600E0DC
:100083000202000031A0E002020002294AE0040259
:10009300000446524545E00102001554E001020008
:1000A30016A5E00102200528E001022918FFE0015E
:1000B30002294600E005022947294A02060A4107A8
:1000C300C9060136004107C8014107C601C137010E
:1000D3003B00013900C148412C7800412C6D00419F
:1000E3002C7600412C7700412C74FF412C9C00415D
:1000F30029A000412941055D2BD600000000000026
:1001030000000000000000000000000000000000EC
:1001130000000000000000C13D41286500C10EC180
:1001230032011800C12FC130412FC600C15C432CDE
:1001330027000000412C2600412C2A00C133C13581
:10014300C13E412C4E00015700C124412C400041C7
:100153002C4D006028274A060A000000030008FE11
:10016300877F88CF7FC04FFBD7FDE0670000800CFF
:100173008082000100E87300800F000060000041EE
:100183002164004121760041216700412161004142
:100193002169014121620141244400C140C141411F
:1001A30029B1964129AD0FE00202294C0039E0053F
:1001B300022980003904060AE0020229850807E0C3
:1001C30005023187080705060AE00202318C001395
:1001D300E00C02318E0000030800030008060A0643
:1001E3000AE00502319A0013FF060AE00202319F7A
:1001F30000000075819075FF03759E0212082002AE
:1002030013F9020313900076E47E019360F4A3FFD5
:10021300543F30E509541FFEE493A360010ECF540D
:10022300E0B4E00EEFFAEEF9A3A3A3A3DAFDD9FB42
:1002330080D654C025E0604B5026E493A3F85407BE
:10024300240CC8C333C4540F4420C8834004F45659
:10025300800146F6DFE480B00102040810204080EC
:10026300E493A3FAE493A3F8E493A3C8C582C8CAAA
:10027300C583CAF0A3C8C582C8CAC583CADFE9DE7D
:10028300E78085E493A3F8E493A34003F68001F2A7
:1002930008DFF402020BC2D5E830E70FB2D5E4C39E
:1002A3009BFBE49AFAE499F9E498F8EC30E717B287
:1002B300D51202CF121060E4C39BFBE49AFAE499CF
:1002C300F9E498F8800312106030D50DE4C39FFF62
:1002D300E49EFEE49DFDE49CFC227890E4F6D8FDC8
:1002E3009000007F007E10E4F0A3DFFCDEFA902F85
:1002F300CDA3E583C394204011FEAF829020000E6E
:100303000FE48002F0A3DFFCDEFA120820020208E9
:100313002232EF90031E93900800730A20364CE5B7
:1003230058FF22EFF558220C0E0C130C180C1D0C61
:10033300220C270C2C0C310C360C3B0C400C450CBE
:100343004A0C4F0C540C590C5E0C630C680C6D0C6E
:10035300720C770000000000003F241E16110E0BE4
:1003630009070504030201F0C8A7917767604638BF
:100373003532302422201400010102020303040455
:10038300050506060707092A092F09340939093E15
:10039300094D09520961096B09C509CA09CF09DE6B
:1003A30009E809FC0A010A060A1A0A1F0A560A5B27
:1003B3000A60000E0D44000E1064000E15DC0202EC
:1003C30002063F3F3F04040440404005320FA00BA8
:1003D300910B9B0BA00BA50BAA0BAF0BB90BC30B7C
:1003E300C80BE60BEB5A2D5761766520362E31305C
:1003F300002DFD280E2B0B384C822D1C16131110CB
:10040300100B230B550B5AE4FD7C0CAB050DEB9045
:1004130003E8938F828E83F00FBF00010EDCEC01A3
:10042300208F828E83E4F0A374069146740A91466A
:10043300A3E4F0EF2404F582E43EF583E4F0A3742F
:100443006DF022F08F828E83A3A322AD0790121545
:10045300E054FCF0E0FFED54307E0060027E02EFDA
:100463004E901215F0E0FFED7E0030E0027E01EFCA
:100473004E901215F0229005F37402F09005E6E019
:10048300FF120C8B914E9005F37405F0229005F149
:10049300E0FF120C7C9005F6EFF0229005F6E07F6A
:1004A3000070027F0122E49005F1F0229005F174BF
:1004B30001F0229005F17402F02291C470027F01D1
:1004C300229005F1E07F002291C4B401027F012252
:1004D30091C4B402027F0122E4902D4EF0902D4C82
:1004E300F0A3F0011275FF0275E40475E40175E4ED
:0D04F3000222C3E99FF9EA9E2275C801228A
:10050800123EFE120AC9120B78120B0A9005E8E097
:1005180064017002A1B57FFF12089490085E121161
:10052800E17E007F15D109BF540D7E007F16D109E9
:10053800BFA5047F0180027F009005E6EFF064010B
:10054800704990085E1211D8AE0212411B900864DF
:10055800E0FEA3E0FF90085E1211D891F5FAE924B5
:1005680007F9E43AFA9008611211E1E92408F9E47C
:100578003AFE12411B900864E064067004A3E0642C
:100588000A60081208999005E6EFF09005E6E07019
:100598001C7E007F10C006C374A09410FE74311234
:1005A8002E61D0061245B9E4FFFE12089E1209F228
:1005B80012095C1209021237FA305C057550018085
:1005C8002F1248FF120862124AAEFE4FFDA3E0FC4C
:1005D8004DFDA3E0FB4D600BEE5FFFEC5FFFEB5FB3
:1005E800F47003121FFA9005EDE065509005E1F0F4
:1005F80081DB75FF0275E404E4F5E42235F0FEAF13
:1006080001E4FCFD902E9712118F12180AD1FAEF0F
:100618006005122FDA80F6F13E7F0312195A600A3C
:10062800902E971211677810D152902E97D14D9035
:100638002E971217EDD1EE902E9BEFF012138690A5
:100648002E9BE0FF221211677808121127E4E5C8F3
:1006580020E2FB8FEB227F0112138A902FAF7401E7
:10066800F0902FAFE06031F1F0D1EE902FAFEFF0C6
:10067800121733D1DD902C90EFF0121733902FAF73
:10068800E0540112181960D9A3E0F460D4EF30E700
:10069800D0E4902FAFF080C9F1437F9FD156D1EEBF
:1006A800902C91D1EC902C96D1EC902C97EFF012E5
:1006B8001386902C8FE0F4601BA3E0F46016902C56
:1006C80096E0FD541F240FA3F0EDC4135407448093
:1006D800902C96F022F1437FD7D1567FFFD156D187
:1006E800F2902C8FEFF07FFFD156E5C820E2FBAFE8
:1006F800EB227F0112138A305015F1F0D1EE902FC2
:10070800B0EFF0121733902FB0E020E002C2503063
:100718005019D1DD902C90EF121819600BA3E0F45A
:100728006006EF30E702C250121733E4FF12138A53
:10073800A250E433FF227F0112138A902C94E01216
:1007480012EE076604076E140773150778170788F3
:1007580030078D3407923607973700000780531407
:10076800EF851480802F5315EF80085315DF800321
:1007780053157F851590801D5316DF8516A08015AB
:100788005317FE800D5317EF80085317BF8003538C
:10079800177F8517B07F0CDFFE22902E9C12118FD9
:1007A800902E9C121167D10C902EA0E06F6037122A
:1007B800180AD1FAEF6005122FDA80F61219406094
:1007C8000A902E9C1211677810D152902E9CD14D10
:1007D800902E9C1217ED902EA0E0FF121383902C00
:1007E800937401F0D322C322F1437F05C156902FA1
:0607F80085F0902C9C220C
:10080000C0587408C0E0C082C08375580AE5FF5420
:10081000CF4490F5FF22C0587408C0E0C082C08366
:10082000755820E5FF54CF4490F5FF22C058740856
:10083000C0E0C082C083755836E5FF54CF44A0F5B0
:10084000FF22C0587408C0E0C082C08375584CE5D0
:10085000FF54CF44B0F5FF22908004011690898E9A
:10086000011690892F011690971C01169080140193
:100870001690984C0116909EA80116909F5D011647
:10088000909F68011690876C0116909F6B011690DF
:10089000A5B7011690A40A011690A0D0011690A445
:1008A000A9011690B094011690BFFD011690B22BCD
:1008B000011690B282011690BFC9011690C05C016A
:1008C0001690897501169088AC011690C3F1011637
:1008D00090CFF3011690D017011690D0FB0116901F
:1008E000B6E5011690A62701169087D7011690D776
:1008F00003011690D756011690D771011690D7E7CD
:10090000011690C5B1011690B2F5011690BBB30166
:100910001690BAB1011690A4A4011690D8800116C1
:1009200090D883011690C8C7011690D8F60116908A
:10093000CE8D011690CED6011690CE6A011690D9B2
:100940004A011690AE6E01169088EB011690D9AF51
:10095000011690D9F4011690DB3F011690C61801DC
:100960001690D456011690D5A6011690D48401167F
:1009700090DB5C0116909754011690CC10011690F4
:10098000CAD2011690C785011690C78B011690CD6B
:10099000FA011690CB5B0116908798011690DBC187
:1009A000011690D6A0011690D693011690D5FF019E
:1009B0001690D676011690D6B5011690D21701166C
:1009C00090D21D011690D37F011690D3120116907C
:1009D000D2D8011690A0310116908A430116909743
:1009E0003C011690C514011690CF96011690B42ABA
:1009F000011690DAD9011690CB6A011690DC4501F8
:100A00001690DB8F011690A7B5011690DA22011619
:100A100090A740011690AC1E011690DC5201169072
:100A2000AC9D011690CDCE011690C8ED011690CD6B
:100A3000E4011690CEF5011690DC97011690CD5288
:100A4000011690DC9A011690DCD3011690D6D101E4
:100A50001690A498011690CCAD011690CC7B01168F
:100A600090CC4C011690C5A0011690C4CA011690F6
:100A7000CA37011690BF4F011690BDE3011690DDF5
:100A8000560116909D77011690C0860116909853D6
:100A9000011690BF15011690D22C011690BEE101EF
:100AA0001690DF1D011690DF62011690DF96011689
:100AB00090E092011690DFEA011690E0B9011690DD
:100AC0008017011690836E011690D2C40116909E75
:100AD000E40116908112011690E11B011690E15875
:100AE000011690833E011690E14D011690E15C01E4
:100AF0001690AFC8014290B003014290B059014234
:100B000090B166014290B1B0014290B1C8014290EB
:100B1000A976014290B362014290A9F1014290AAE4
:100B200030014290B47D014290B47E014290AD7F8D
:100B30000142909055014290B4DA014290B51401FF
:100B4000429092EE014290AC8A014290926301423F
:100B50009085DC014290B592014290B5AA01429085
:100B6000B5AB014290ABB5014290B5C3014290B61E
:100B7000390142908000014290B7F6014290B809D5
:100B8000014290B83C014290ABFB014290B8480151
:100B90004290AAEF014290A867014290B8B5014285
:100BA00090A6D4014290A6A7014290B8E9014290D4
:100BB000A4B8014290B8D0014290AC01014290A388
:100BC00052014290A73F014290B8F7014290A7B866
:100BD000014290AC2B014290A05E014290A8080116
:100BE0004290AB44014290B959014290A142014266
:100BF00090A3BA014290A68A014290B9BA014290EC
:100C0000ABA8014290B0AB014290BA97014290A0CC
:100C100052012C90A05C012C90A0B8012C90A0C493
:100C2000012C90A0D0012C90A0E9012C90A10201F0
:100C30002C90A10C012C909B74012C90A139012CBB
:100C400090A143012C90A218012C90A27C012C9021
:100C50009F97012C90A286012C90A29A012C90A122
:100C6000B8012C90A2A4012C90A2C9012C909AFF4B
:100C7000012C909A8F012C909B32012C9084B8010A
:100C80002C90A368012C90A369012C908000012C6A
:100C900090A39C012C909C6D012C909A2D012C907E
:100CA00099D0012C90A43D012C00E709F608DFFA49
:100CB0008046E709F208DFFA803E88828C83E709E4
:100CC000F0A3DFFA8032E309F608DFFA8078E3095F
:100CD000F208DFFA807088828C83E309F0A3DFFAE0
:100CE000806489828A83E0A3F608DFFA80588982CB
:100CF0008A83E0A3F208DFFA804C80D280FA80C6B3
:100D000080D4806980F28033801080A680EA809A47
:100D100080A880DA80E280CA803389828A83ECFAF4
:100D2000E493A3C8C582C8CCC583CCF0A3C8C58250
:100D3000C8CCC583CCDFE9DEE7800D89828A83E4F5
:100D400093A3F608DFF9ECFAA9F0EDFB2289828A79
:100D500083ECFAE0A3C8C582C8CCC583CCF0A3C895
:100D6000C582C8CCC583CCDFEADEE880DB89828A15
:100D700083E493A3F208DFF980CC88F0EF60010EE2
:100D80004E60C388F0ED2402B4040050B9F582EB44
:100D90002402B4040050AF2323458223900CFA733D
:100DA000BB010689828A83E0225002E722BBFE0251
:100DB000E32289828A83E49322BB010CE58229F530
:100DC00082E5833AF583E0225006E92582F8E6229F
:100DD000BBFE06E92582F8E222E58229F582E58359
:100DE0003AF583E49322BB010989828A83F8E028DB
:100DF000F022500327F722BBFE05F8E328F3228AEE
:100E0000838982F8E4932822BB010FF8E58229F553
:100E100082E5833AF583E028F0225009C58229F85B
:100E2000E58226F622BBFE09C58229F8E22582F278
:100E300022F8EA2583F583E9932822BB01068982FB
:100E40008A83F0225002F722BBFE01F322F8BB0195
:100E50000DE58229F582E5833AF583E8F022500614
:100E6000E92582C8F622BBFE05E92582C8F222EFF9
:100E70008DF0A4A8F0CF8CF0A428CE8DF0A42EFE87
:100E800022BC000BBE0029EF8DF084FFADF022E400
:100E9000CCF875F008EF2FFFEE33FEEC33FCEE9D3F
:100EA000EC984005FCEE9DFE0FD5F0E9E4CEFD2266
:100EB000EDF8F5F0EE8420D21CFEADF075F008EFF1
:100EC0002FFFED33FD4007985006D5F0F222C3986E
:100ED000FD0FD5F0EA22C2D5EC30E709B2D5E4C364
:100EE0009DFDE49CFCEE30E715B2D5E4C39FFFE422
:100EF0009EFE120E81C3E49DFDE49CFC8003120E55
:100F00008130D507C3E49FFFE49EFE22C5F0F8A31D
:100F1000E028F0C5F0F8E582158270021583E0380C
:100F2000F022A3F8E0C5F025F0F0E582158270020A
:100F30001583E0C838F0E822BB010A89828A83E081
:100F4000F5F0A3E022500687F009E71922BBFE075F
:100F5000E3F5F009E3192289828A83E493F5F074BA
:100F6000019322BB010789828A83020F0C500B096F
:100F7000C5F027F7C5F01937F722BBFE0D09F8E3D6
:100F800025F0F3C5F019E338F322F889828A8374D7
:100F9000019325F0C5F0F8E4933822BB010A898259
:100FA0008A83F0E5F0A3F0225006F709A7F0192292
:100FB000BBFE06F3E5F009F31922EF2BFFEE3AFE34
:100FC000ED39FDEC38FC22C3EF9BFFEE9AFEED9964
:100FD000FDEC98FC22E88FF0A4CC8BF0A42CFCE96B
:100FE0008EF0A42CFC8AF0EDA42CFCEA8EF0A4CDAB
:100FF000A8F08BF0A42DCC3825F0FDE98FF0A42CBF
:10100000CD35F0FCEB8EF0A4FEA9F0EB8FF0A4CF71
:10101000C5F02ECD39FEE43CFCEAA42DCE35F0FD22
:10102000E43CFC2275F008758200EF2FFFEE33FEE2
:10103000CD33CDCC33CCC58233C5829BED9AEC99B0
:10104000E58298400CF582EE9BFEED9AFDEC99FC52
:101050000FD5F0D6E4CEFBE4CDFAE4CCF9A8822299
:10106000B800C1B90059BA002DEC8BF084CFCECDB9
:10107000FCE5F0CBF97818EF2FFFEE33FEED33FDF2
:10108000EC33FCEB33FB10D703994004EB99FB0FD7
:10109000D8E5E4F9FA227818EF2FFFEE33FEED33AE
:1010A000FDEC33FCC933C910D7059BE99A4007EC26
:1010B0009BFCE99AF90FD8E0E4C9FAE4CCFB22756D
:1010C000F010EF2FFFEE33FEED33FDCC33CCC83301
:1010D000C810D7079BEC9AE899400AED9BFDEC9A63
:1010E000FCE899F80FD5F0DAE4CDFBE4CCFAE4C8DB
:1010F000F922C3E49FFFE49EFEE49DFDE49CFC22F4
:10110000EB9FF5F0EA9E42F0E99D42F0EC6480C866
:1011100064809845F022EB9FF5F0EA9E42F0E99D4D
:1011200042F0E89C45F022E8600FECC313FCED139D
:10113000FDEE13FEEF13FFD8F122E8600FEFC3338B
:10114000FFEE33FEED33FDEC33FCD8F122BB01079B
:1011500089828A8302118F5005E9F8021347BBFE8A
:1011600005E9F802135322E0FCA3E0FDA3E0FEA38F
:10117000E0FF22E493FC740193FD740293FE740378
:1011800093FF22E0F8A3E0F9A3E0FAA3E0FB22EC4E
:10119000F0A3EDF0A3EEF0A3EFF022A8828583F098
:1011A000D083D0821211B21211B21211B21211B246
:1011B000E473E493A3C583C5F0C583C8C582C8F0B2
:1011C000A3C583C5F0C583C8C582C822A42582F5FE
:1011D00082E5F03583F58322E0FBA3E0FAA3E0F992
:1011E00022EBF0A3EAF0A3E9F022E493FB7401936D
:1011F000FA740293F922BB010789828A830211D80B
:101200005005E9F802135FBBFE05E9F80213718986
:10121000828A830211EABB011A89828A83D0F0D0C4
:10122000E0F8D0E0F9D0E0FAD0E0FBE8C0E0C0F0B0
:101230000211E15016E9F8D083D082D0E0F9D0E075
:10124000FAD0E0FBC082C083021368BBFE16E9F847
:10125000D083D082D0E0F9D0E0FAD0E0FBC082C0E9
:101260008302137A22BB010DE58229F582E5833AD8
:10127000F5830211D85007E92582F802135FBBFEFF
:1012800007E92582F8021371E58229F582E5833AA0
:10129000F5830211EABB0120E58229F582E5833A54
:1012A000F583D0F0D0E0F8D0E0F9D0E0FAD0E0FB60
:1012B000E8C0E0C0F00211E15018E92582F8D083BF
:1012C000D082D0E0F9D0E0FAD0E0FBC082C0830247
:1012D0001368BBFE18E92582F8D083D082D0E0F9EC
:1012E000D0E0FAD0E0FBC082C08302137A22D08320
:1012F000D082F8E4937012740193700DA3A393F855
:10130000740193F5828883E4737402936860EFA399
:10131000A3A380DF8A838982E473EC8EF0A4CCC51A
:10132000F0CCCDF8EFA4CEC5F02DFDE43CFCE8A454
:101330002EC8C5F03DFDE43CFCEFA4FFE5F028FE1F
:10134000E43DFDE43CFC22ECF608EDF608EEF60880
:10135000EFF622ECF208EDF208EEF208EFF222E6E8
:10136000FB08E6FA08E6F922EBF608EAF608E9F6E1
:1013700022E2FB08E2FA08E2F922EBF208EAF208BC
:10138000E9F222120656F133E4FFEFB4010443FE02
:10139000202253FEDF22902F84EFF0E4A3F0902C64
:1013A0009DE0FFB4020A740F1207F674B9F0800DC5
:1013B000EF64047043743D1207F67479F012073E2F
:1013C000902F84E06007902C9CE0FF80027FAB129E
:1013D0000656F133902F84E0902C9CF07016902FDD
:1013E00085E0D39400400D7FFF120656902F85E0D4
:1013F00014F080EAE4FF718A2275FF0275E404E4C8
:10140000F5E475FF02E5E630E012901215E0540CA9
:10141000600A1218BC901215E054F7F01202DD12A7
:1014200039509005E8EFF0901200E0B47A14901271
:1014300014E0B49C0D9005E8E0FF64056004EFB48F
:10144000032EE49005F2F09005F2E0FFC394805083
:1014500013E42FF582E43412F583E4F09005F2E012
:1014600004F080E3901200747AF0901214749CF0EF
:10147000120B004003120AFB7B017A1279107D01E6
:101480007F01120AF67B017A1279117D017F211208
:101490000AF67B017A1279127D017F22120AF67A0E
:1014A00012791D7F021249D290121DE0B401057F0E
:1014B00001123D58120AAB123950120AA69005E8E3
:1014C000EFF0120B82120AA19005E8E0FF120C86E1
:1014D000EF24FFB3925C75FF0253E6BF12302A126D
:1014E0000AB5120508205C0C1204797B017A287970
:1014F00079120970D2AF205C02A184120B05120888
:10150000A3120C81120AF140F29005E7E06041124B
:101510000AD8EF70051249544036E53670FCE537BD
:1015200020E5031231AE12085DEF70FAF1DB5005D1
:1015300012382150047F0171969005E7E0B402044F
:10154000E4FF80099005E7E0B403057F011219224A
:10155000120AD3E53730E1A31235C64002E4F0E5C4
:101560003720E50BD1AEAF82AE837D011230DA12A7
:101570004941EFC0E0D1BB9005EAE0FDD0E0FF12A9
:101580000B7381FB122FEE1204CBEF70069005E770
:10159000E0605020190320064A120AD8EF700512A5
:1015A0004954403FE53670FCE53720E5031231AE83
:1015B00012085DEF70FAF1DB500512382150047FFC
:1015C0000171969005E7E070121204CBEF600C12E7
:1015D00004B6901215E04408F080089005E7E0FF9B
:1015E0001238F19005E7E0600C201909300606205A
:1015F0000103120943120B051208A3122D50120405
:101600009012049EEF70241204D3EF60051218BCF0
:1016100080381204CBEF70321238BFEF702C1218E2
:101620003CEF640170241204AF801F901215E0207B
:10163000E2181204D3EF600DF1DB5005123821508F
:1016400004E4FF7196E49005F1F0202C05120AD312
:1016500080221208B79005E0E0FEEFC39E4005EF40
:101660009EFF80089005E0E0F4042FFF7403D39FF1
:101670005002C22CE53730E12A1235C64002E4F0B0
:10168000E53720E50BD1AEAF82AE837D011230DAB3
:10169000124941EFC0E0D1BB9005EAE0FDD0E0FF88
:1016A000120B73120A83122FB9123015A184900500
:1016B000E9E0FD75F0AA9005F731CCED75F002A4D4
:1016C00024E2F9740535F0FA7B0122902D4F318F19
:1016D000902D5331E112180A1206FAEF6005122F0D
:1016E000DA80F5121940600A902D4F316778101298
:1016F0000652902D4F12064D902D4F3167E48022F7
:10170000902D56124930601F902D5331D8E94A6010
:101710000F120DA0FF120656902D541219BD80E035
:10172000E4FF12065680D97186902C937401F02242
:10173000120656124697EF70FA902C96E0F4600B62
:10174000902FAE7406F0124A9E70FB902C94E051DC
:10175000EE176D04177514177A15177F17178F304A
:10176000179434179936179E3700001787431410C3
:10177000851480802F431510800843152080034373
:101780001580851590801D4316208516A080154371
:101790001701800D4317108008431740800343173B
:1017A000808517B0902FAE740CF0124A9E70FB2209
:1017B00012180A1206FAEF6005122FDA80F57F017F
:1017C000718AD2501207437F06F1301207437F011E
:1017D0001206567F03F130E4FF618A900001740124
:1017E00093B40007E493B41802C322D3223167E410
:0917F00002065675FF028FE32288
:061800000201F60208EEF1
:101808007FB875FF02E5E430E10675E40675E40388
:0918180022F0902C8FE0FFF42275
:06182300023D98AF4822CF
:10182B0002304DD2061208B79005F4EEF0A3EFF09C
:0C183B0022200A05112E7F01227F0022CE
:10184B0021C49008F0EFF0A3EDF05402901234F0A5
:10185B00113CEF7002C3229008F0E0B40411A3E036
:10186B00FB7D017F01118F9008F07403F0800590D0
:10187B0008F111899008F0E09005E7F0D322E0FB26
:10188B007D01E4FFEB600875FF0153CDFD8006750C
:10189B00FF0143CD02ED600553FBDF800343FB20CB
:1018AB00EF600775FF0243E1402275FF0253E1BF72
:1018BB0022E490121612493AC312111670079012B5
:1018CB001CE0700122E4FFFEFDFC90121612118346
:1018DB00C312111660237FFF1200369012161211DD
:1018EB0067EF24FFFFEE34FFFEED34FFFDEC34FF1A
:1018FB00FC90121612118F800D90121CE0FF12003B
:10190B0036E490121CF0901235E0FD7F0112392362
:10191B0090123411897F0143FB1075FF0243E6409F
:10192B00EF600D75FF02E5E120E7FB43FB0D800344
:10193B0043FB0E80FE7F0112138AD2501207437FA6
:10194B0006120656121733120743902C92E0FF1221
:10195B000656902C95E0640222902D5812118F9010
:10196B002D5C1211E1110A1206FAEF6005122FDA43
:10197B0080F512073E7F03315A600B902D581211E0
:10198B00677810120652902D5812064D902D581252
:10199B0017ED902D5F12493060101206EE902D5C02
:1019AB00124921902D5D31BD80E8121733E4FF02FF
:1019BB00138AE475F001020F0CC0E0C0F0C083C0C5
:1019CB0082C0D075D008C0FF75FF01E5D530E604A5
:1019DB007F028009E5D57F0030E7027F018F3AE572
:1019EB003A640260024183E5361212EE1A10011AB4
:1019FB0023021A70081A2E091A390A1A470B1A658C
:101A0B000C00001B8975FF0175C355153CE53C6047
:101A1B00026189753602618975FF0175C3F07536F0
:101A2B0009618975FF0175C35575360A618975FFA3
:101A3B00019007DBE0F5C375360B618975FF0190EB
:101A4B0007C7E0F5C3753601753C089007EA1249E4
:101A5B00676002618975360C6189902E2D7406F0D2
:101A6B007536006189C2EB753600433704122F9D22
:101A7B004002618931BD6189E53A64016002618987
:101A8B00123C8C40026189E530705475FF01F5EA18
:101A9B0075EAFF9007CA1211D8E5D9120E3B12490D
:101AAB00D9E0900900F0123C621235DB9007C6EFCB
:101ABB00F0900900E0FFD394094050EFD394AA4073
:101ACB00028048900900E0F538122F6F90121AEF40
:101ADB00F075FF00900900E0F5D97530036189E5D9
:101AEB00306403600261899007CAF1F4FFE92401B5
:101AFB0071AB75FF00E5D330E015C39007D6E094CA
:101B0B00FF9007D5E094FF500231BDD1C7806FC263
:101B1B004FD18375FF00F10BE5D120E0FBC2EB4306
:101B2B003702719DA3E0FF9005ECE0FEEF6E719C18
:101B3B00E09005EB7196A3A3E09005ED7196A3A33E
:101B4B00A3E0FE9005EEE0FDEE6D4F6011C3900734
:101B5B00D8E094FF9007D7E094FF500231BDC390BB
:101B6B0007D2E094FF9007D1E094FF500231BD758E
:101B7B00300015381249D9E538F09005EAF0D0FF5E
:101B8B00D0D0D082D083D0F0D0E032FEE0FDEE6D2D
:101B9B004FFF85328285318322FF1211D8E924024F
:101BAB00F9E43AFAEF020E3B9008B81211E1D24574
:101BBB00C2EBE5366002A1AEE53730E202C322B1DB
:101BCB00B7E924ECF9E43AFAE4120E3B12377DA2A2
:101BDB00ED9236C2EDB1CD120F3854606035B1B70E
:101BEB00E92403B1C620E12B902E2DE06404602381
:101BFB00902E2C740FF0B1B7902E291211E1122EEA
:101C0B006A122F2A902E2D7405F0122928A23692D3
:101C1B00EDD322B1B7120DA0540FFFBF0111E92470
:101C2B00EDB1C6700A90121AE09008BBF0800AB1B1
:101C3B00B7120B7D9008BBEFF0E53720E05F123059
:101C4B00D240057F01122E8A9008BB7A0879BCF12D
:101C5B005CE433B1B6E924ED124997120DE6EF704F
:101C6B000280369008BBE0FF122F51E0FE9008BCBB
:101C7B00E0D39E4005122DD6C322B1BDFDB1B712E4
:101C8B000DA0FB1236269008BCEFF0E0FF7006D2D9
:101C9B00EBD21CA195EFB40204D2EBA195B1CD12FE
:101CAB000F385460600FB1B7E92403B1C620E105CA
:101CBB00E4902E2DF01230D25004C24FD183F10894
:101CCB00E5D120E0FBE4F530B1B7E92408F9E43ABB
:101CDB00CFE9CFF5318F32B1B7E924B1B1C6F538C1
:101CEB00AE31124632B1B7E924B1B1C6B1B6E9246F
:101CFB00E1B1C62FFFE433FEEF2401FFE43EFEB15A
:101D0B00BDD39FEE12345C50057401120DE6B1B7D2
:101D1B00E924B2F9E43A8B40F5418942B1B7E924A1
:101D2B00E1B1C6F543B1CD120F3854079007C8F097
:101D3B00753608B1B7E924B2F9E43AFA12346CB14A
:101D4B00B7E924E1B1C6FFAD3812464E7B01E4FD85
:101D5B00FF1245FEE4F5FFE5D25480440CF5D2901A
:101D6B0008BBE0FFB1BD2418FBE433FA7D03123648
:101D7B00C9B1CD120F38FFAEF0A24592449008BB0B
:101D8B00E09008DDF01231DC4006A23692EDC32262
:101D9B009008BBE0B1B6E924F171ABA23692EDD25B
:101DAB00EBD322A23692EDD2EBC322FF9008B802FE
:101DBB0011D89008B81211D8E924B9F9E43AFA020B
:101DCB000DA09008B81211D8E92404F9E43AFA22CC
:101DDB00902CD0123D377F02120ACE902CD91211C3
:101DEB00E1EA494B606A902CD1E0FFD17DE924B642
:101DFB0071ABE49007A5F09007931211D81246A38C
:101E0B00D17DE924EF71AB600D902CD0E04442D131
:101E1B007CE924E2D1F4902CD2E0FF30E11ED17D9D
:101E2B00E924BBD1F4EF54FC902CD2F0FE902D3E64
:101E3B00E054FDF0D15EF1147D01800E902CD2E0C8
:101E4B0054FEF0FED15EF1147D02120B417F012294
:101E5B007F0022902CD0E0FF902CD6E090083BF036
:101E6B00A3EEF0902CD7E0FDA3E090083DCDF0A3BE
:101E7B00EDF0902CD90211D8902FADE5F4F0E05491
:101E8B007FF5F47F827E00F12DF126D1FD5005E523
:101E9B00FC20E6F7304F08902FADE04480F5F4F1CD
:101EAB0020D1FD5005E5FC20E6F775FF01E5D520B7
:101EBB00E702C322E5F4D330E601C322C24FD1833C
:101ECB00F108E5D120E0FBE4F5FF75D908122F7A74
:101EDB0012344A94805005E004FF80027F001231D7
:101EEB007ED24FD183E4F53022F9E43AFA74FF0243
:101EFB000E3B75FF03E591C330E701D322E4F5FFF9
:101F0B00E5D154FE4402F5D12290083F1211E19025
:101F1B002CD30211D87FE87E03F12D75FF0343917B
:101F2B008022902ED5124A587A2E79D712278250BA
:101F3B0014902ED7E0FEA3E0FF902ED6E09F902EBC
:101F4B00D5E09E400B902ED5E0FEA3E0FF1226F2CB
:101F5B0022E0FF7B01902EE5EFF0A3123A4B75FFC9
:101F6B0001122D196002C322E5F430E602C3227F71
:101F7B00E87E031226F2F126F1DE400122C24FD198
:101F8B0083902EE5E0FF12316353F4DFD24FD18300
:101F9B007F787E0012272A75FF0153E4BFE5E430FA
:101FAB00E7FB122F5B7F8A1227E630E606123A3FD9
:101FBB00E4800875FF01123A3FE5D9120E3B75FF1D
:101FCB000143E440124AA6400343F420F1DE4001F2
:101FDB0022D322E5F730E50FE5F754C07004D1FDAD
:101FEB0040F1122768C322D3221211D8020DA0E4AC
:101FFB00FF122E8AEF603F7B017A0579EB122042AC
:10200B005005124A8F40F07B017A0579ED11425051
:10201B000F124AAE5FFFA3E05FFFA3E05FF460E740
:10202B007550017E007F087B017A0579EB902DE7D7
:10203B00E4F0A312457F22902CE8123A4B902CEE41
:10204B0012119B00000001902CF27401F0F5FFE5DA
:10205B00D554C070051230D25002C322E4F5FF53A1
:10206B00967F75FF0175D5047F3FFED11475FF0177
:10207B0043D508E4F5FF5394FBF5FF53847FF5FF3D
:10208B007598FF902CECE5F4F075F49C75FF01A3AB
:10209B00E5E4F075E4257B017A2C79F2123A0D9088
:1020AB002CF2E064016002216FF5FF902CEB7414AD
:1020BB00F0902CEE319FFF780112113A902CEE121A
:1020CB00118FE5A730E1FB43A702902CEE319FFF68
:1020DB00E5A730E005E47B018002E4FBFAF9F8EFB9
:1020EB004BFFEE4AFEED49FDEC48FC902CEE121135
:1020FB008F902CEBE014F070B8902CEE319FFF78A2
:10210B00101211277B6D7A4E79C67841120FD5EFDD
:10211B002439FFEE34307135E4FBFA7901F81210F3
:10212B0060EE547FFEE4FDFC123478902CEE319F70
:10213B00FFEB6FFFEA6EFEE8CDEFCDCCEECCECFF04
:10214B00902CE8123A42EF120E3B902CE8123A42D6
:10215B00900001ED120E4D90120FE030E606E4F503
:10216B00FF75968075FF01E4F5D5902CECE0F5F446
:10217B0075FF01A3E0F5E4123AFA902CF2E0B401FA
:10218B0003D38001C322E025E025E02401F582E49E
:10219B003412F583E0FCA3E0FDA3E0FEA3E0229064
:1021AB002BF312118F75FF0243E180F1BAF1979077
:1021BB002C0812119B002DC6C0E4F5FFF5A490125C
:1021CB000EF0A3F0902C037402F0F1D6FFF595EF0F
:1021DB0014601314601C24027027902BF3319F9111
:1021EB00EB902BFF8016902BF7319F91EB902C00EF
:1021FB00800A902BFB319F91EB902C01E0902C0CE3
:10220B00F0123C2B902C0CE0700FF5FFF59675FF40
:10221B000175D70975F418805890120EE004F090F0
:10222B002C03E0123452902C08319FFF902C04F1B8
:10223B00F7C3121116500A902C04319FFFA31211F1
:10224B008F902C0CE0FF123AAC902C02E0FFA3E035
:10225B00FDA24D924B123BD9A3319FFF902E9312AF
:10226B00118F902C03E0FF9148902C033191FF913B
:10227B00F9F1EE600221D57402F0F1D6F595E5F493
:10228B005407701C902C0871137801121127902C95
:10229B0003E0FB91DFF58312118FEB3192FF91F984
:1022AB00F1EE70D675FF03759580124AA640034375
:1022BB00F420A24D924C123B0B902C08319F242002
:1022CB00FFEE344E7135E4FB7A04F9F87123780193
:1022DB00121127C24AB127E4F5FFE5BD54F84404B7
:1022EB00F5BD9012137401F07E127F01E4FD8F8215
:1022FB008E83EF2DF582E43EF583E0FC901213E024
:10230B002CF00DEDB412E722FF7E04FDFCE0F8A3E8
:10231B00E0F9A3E0FAA3E0FB120FD5E47B7DFAF919
:10232B00F8121060EF2401FFE43EFEE43DFDE43CB7
:10233B00FC22902DDB123D37902DE17401F0C24E43
:10234B00121F20121EFD5005E5FC20E6F6122D1F74
:10235B00BF0108E4F5FC75FC408008122D1FBF027D
:10236B0002D32275FF0153D8EF902DDCE0FF123C16
:10237B003875FF0153D5DF53FAFB902DDBE0FF12CD
:10238B003163902DDCE0902DDBB4080831912452A1
:10239B00713280033191FF91F9902DDDE0FF123CFA
:1023AB008675FF0175FF03759B04121F2075FC4298
:1023BB00E5FC20E105121EFD40F3902DDEE0F075EB
:1023CB00FF03E59B20E705121EFD40F3E59B20E78D
:1023DB000C75FF03759B1FF1BAD24E804D91F21213
:1023EB003A0D902DDCE0FD90120FE05D701C902DEE
:1023FB00DBE0FF91F21232A990120FE0FF902DDC7F
:10240B00E0FEEF4E90120FF051EDF10F7B017A2DA4
:10241B0079DFF182500FC3902DE0E09420902DDFF7
:10242B00E0940340E791F2123A54D119304E026115
:10243B0043902DE1E0B40103D38001C322902E928F
:10244B00EFF0E4A371137801121127902E92E0FBA9
:10245B0091DFF58312118F901210E064806074E0AD
:10246B00C3947F503AEB91DFF583C083C082319FD9
:10247B00FFEEC0E0EFC0E0901210E075F004A4AEE8
:10248B00F0FBCAEECAEA3395E0F9F8D0E0FFD0E0F2
:10249B00FEC3EF9BFFEE9AFEED99FDEC98802C901E
:1024AB002E92E091DFF583C083C082F1F79012107A
:1024BB00E0F40475F004A4FFAEF0EE3395E0FDFC00
:1024CB00EB2FFFEA3EFEE93DFDE83CFCD082D083DA
:1024DB0012118F2225E025E02401F582E43412222B
:1024EB00FF902C0402118F7B017A2D79E122902E23
:1024FB00D912118F75FF01902ED9A3E0FDA3A31262
:10250B0049F78FE1902ED9A3A3E0FEA31249ED8FDB
:10251B00E2902ED9A3A3A3E0FF8FE322902C5712B6
:10252B00118FE4F5FF75BB0575BB8575FF0175D57F
:10253B0002204A077F3FFED114F10F75FF0143D5EF
:10254B0020304A02A1E9E4F5FF538EF7438E077D55
:10255B0004E4F5FF8DBCF5FF43B102E5B130E2FBBE
:10256B00E4F5FFAFDFEFFEACDEECFBEBFFED25E0C0
:10257B002455F582E4342CF583F16FF5FFF5FF5309
:10258B00B1FD0DEDB40CCA902C57319FFF78091299
:10259B001127A3F16FFDED25E0245FF582E4342CC8
:1025AB00F583E0C313FAA3E013FBD103123D2C2BED
:1025BB00FFEE3AFED103EEF0A3EFF0ED2404901200
:1025CB000DF0EDC394075016CFEDCF0DEFD10412E4
:1025DB004584902C5CE09F902C5BE09E50B8E4F51A
:1025EB00FF758EC8F5FF90120DE0F5BCE4F5FF7595
:1025FB00BB8075FF01F5D522ED25E0245DF582E466
:10260B00342CF583227F147E00D1F2121F2675FF26
:10261B0003E59120E7FB22E4902EDDF0A304F0E428
:10262B00902EE0F0E5FA30E1FB75FF01E5D530E7E0
:10263B00037F0022E4F5FF75E50875FF0153D8EF22
:10264B00E5D530E61A75FF01902EDFE5DAF0E4F5FB
:10265B00DA75FF01E5D630E3FB902EE07401F075DF
:10266B00FF03759B0475FC4175FF03E59B30E7FB8E
:10267B00E4FB75FF038B95EB3192FF91F90BEBB4F8
:10268B0003F075FF03759580E4F5FF758EC8F10FA8
:10269B0075FF0153D5FBF168D11075FF0143D504CC
:1026AB00902EE0E07006F1687FC8D1127B017A2E84
:1026BB0079DE123A54902EDEE0902EDD7006E04467
:1026CB0004FF8002E0FF902EDDEFF090120EE0B4DD
:1026DB00010675FF0143D81075FF01902EDFE0F561
:1026EB00DA902EDDE0FF2275FF03D3EF9402EE9418
:1026FB0000400874FE2FFF74FF3EFEEFF592EE5480
:10270B000FF59122E4F5FF75C2E17F1EF1E630E78C
:10271B0007E4F5FF75C2A122E4F5FF75C28122CD56
:10272B00EFCDCCEECCF176AB94EF4BF1DECBEFCB28
:10273B00FAE59130E719F179A994E9F582EF458231
:10274B00FFEB124A60C3EF9582E5F0958340E2E51B
:10275B009120E708CEECCECFEDCFD1142275FF033D
:10276B00E4F59122EEF0A3EFF0E42275FF03AF93B3
:10277B00EF75F010A4FF22F176AD94EF4DF1DE8FE3
:10278B00F0120F9BE591C330E701D322F1B053DB7D
:10279B007F75FF0175D502D110F1B043DB8075FF5A
:1027AB0001E4F5D52275FF01438E1075FF0122E57B
:1027BB00FA30E1FB75FC8075FF0153D5EFE4F5FCB6
:1027CB0075FC40F168E5FC20E6FB2275FF03902CBD
:1027DB0003E02224FBFFE5F034FF22FEF12A9012E6
:1027EB000FE022902C03E0FF14F0EF22E0F8A3E0BF
:1027FB00F9A3E0FAA3E0FB229005E1E064AA24111F
:10280B00FFF022F1C9EF70087FA07E0FFDFC01AD38
:10281B00F147902C6EEFF07406D39F4067E0605A3F
:10282B0031127E00902C6EE014FDE5F0A8050880B7
:10283B0005C333CE33CED8F9FF5181310C902C6FB9
:10284B00121183C000C001C002C003902C6EE014B3
:10285B00FF74107E00A807088005C333CE33CED893
:10286B00F9FFEE3395E0FDFC3120120FD5D003D0EC
:10287B0002D001D000120FBA80283112AFF07E00C7
:10288B005181801E902C76E0FF600FE4FCFDFEFB77
:10289B007AF47901F8120FD580087F007ED07D077E
:1028AB007C00310C519B7E2B7F0BC006C007310483
:1028BB00B1E5F0D007D006B100F191EF703A311AC3
:1028CB00D31211164007E47F01FEFD8022311A124C
:1028DB001060310C3104E47B01B11250143104C38C
:1028EB00EF9401FFEE9400FEED9400FDEC940031AB
:1028FB000B310451C712182E22902C6F021167FD59
:10290B00FC902C6F02118F1103EF75F0A0842290B5
:10291B002C6F121167E47BE87A03F9F822902E2DC5
:10292B00E024FC70024142147002413B14700241DE
:10293B002B147002416224066002417AE536600274
:10294B00417AC2EB517B120B7D902F80EFF0E53774
:10295B0030E0024128B11960047F01D18A902F80A9
:10296B007A2F7981121F5C4004D2EB4188902F8023
:10297B00E0F151E0FF902F81E0D39F4002A1D69070
:10298B002E2CE0640F702B902F80E0FF902E2912DD
:10299B001DC0FD902E29121FF4FB123626902F819D
:1029AB00EFF0E0FF7005D2EBD21C22EFB40203D2A2
:1029BB00EB22123610517BE924E2121DC6FF902E3A
:1029CB0029121DD0120F38FDACF0E4FB1235EFC20B
:1029DB0044902F80E09008DDF0E4FFFE1231DC50D4
:1029EB0039D2EB902E2D7402F0F1377E00E4FCFD12
:1029FB007BD07A127913F8120FD53120120299ABD2
:102A0B0007AA06902F80E0FF7D031236C97E387F20
:102A1B00087D147C00120B378003D2EB22D2EB2201
:102A2B00E53720E52BE53730E0267F01D18A802082
:102A3B00902E2D7401F022517BE924EF121DC660FC
:102A4B000774FF120DE67008120B2D517B020AEC76
:102A5B00902E2D7403F022B1DDD21C517BF12AD1C3
:102A6B006A902E291211E1E4902E2DF0120B5022B8
:102A7B00902E290211D87C007D6402131AC3900793
:102A8B00D0E094FF9007CFE094FF50031219BD22C2
:102A9B00B1CEEF600FE47FA07E0F310A901215E0EC
:102AAB0054E7F022901215E0FF74E0D39F4005E04D
:102ABB002410F022EF6410901215F022902ED112F8
:102ACB00118F7105E47BFFB112501CE471041210DD
:102ADB006090121612118FE47BFFFAF97104121039
:102AEB006090121CEBF02290121612119B0000004A
:102AFB0000710590121CEFF022F8902ED102116795
:102B0B00B1F0F0902C73E0B4020AB1C7902C73743F
:102B1B0003F061B9902C73E064037079902C75E02D
:102B2B006056902C77E0B40105120A97800A902C1E
:102B3B0077E0B40203120A9C902C75E014F0E0606D
:102B4B001F1103EF75F04684E5F075F064A4FFEFF9
:102B5B0024A0FFE5F0340FFEE433FDE433FC8007E3
:102B6B00E47FA07E0FFDFC902D9712118F7E2B7FA3
:102B7B000BE4902D9BF0A100902C737401F071B9B4
:102B8B00902C7A74FDF0902C797407F07B017A2CE1
:102B9B007979020C90902C73E0B4040EB1CEEF60F7
:102BAB0006D16AE4FF010E120A97227401F0902CF1
:102BBB0073E0640270217C2D7DFD7F0112097F7E05
:102BCB002B7F0BC006C007E47FD07E07FDFCB1E571
:102BDB00F0D007D006A100902C73E064037017FFB0
:102BEB00FE310A902C77E07C2D7DFDB402047F032F
:102BFB0080117F02800D902C73E0B4040B7C2D7D33
:102C0B00FD7F0412097F610B902C73E0B4010CB1B2
:102C1B00C7B1F0F09127E4902C73F022901215E0DD
:102C2B005403F022902DCDEFF0C248120A42EF541C
:102C3B002364206023902C73E0601D7B017A2D7937
:102C4B00CE91FAD158902DCE7406F0A3E550F07BBF
:102C5B00017A2D79CE120C90902DCDE0607DB109CB
:102C6B00E0600271B6902DCDE0FFB40107902C7798
:102C7B0074018009EFB40310902C777402F0912744
:102C8B00902C757404F0804BEF64047038120A4278
:102C9B00EF5423FFBF2013D248F185EF7004912727
:102CAB00F13F902C737404F08035120A42EF5432CA
:102CBB00FFBF020C9005E8E0B40505E4F0120A92A0
:102CCB0091277F0022902DCDE0B40213E4902C7558
:102CDB00F09127902C737402F08004B10904F07109
:102CEB00B9902C73E07F0060027F01221211D89003
:102CFB002DF40211E11208B2902C78EFF022E4903F
:102D0B002C77F0902C7322FAF9F8C3021116B11F2D
:102D1B00EF6401227FFA7E001226F2121F26E5FCD9
:102D2B0030E605121EFD40F6E5FC30E6037F03227C
:102D3B0075FF01E5D530E6037F0222E5D57F003034
:102D4B00E7027F0122B1197072F16F902F82EFF0C1
:102D5B00D394035066902D4EE0FF902F82E06F705E
:102D6B005AD1AE902F83EFF07B017A2F79837D01BF
:102D7B00120B6E902F82E02449F582E4342DF583FB
:102D8B00EFF0902D4EF17D7C007D03120E81AF058F
:102D9B00EFF07027902D4CE07002A3E0601D7B01DB
:102DAB007A2D7946D1717B017A2D7946902D4CE0A5
:102DBB00FEA3E0FFF5828E8312131822E4FDFCFFC5
:102DCB0002097F901215E05408FF22D2EB5188D2F2
:102DDB001C22F19D50031219BD22902D9712118FB9
:102DEB00E4902D9B22902C78E0FF1208ADE4902C00
:102DFB007822902ECD1211E1B1F0F0902ECD121F52
:102E0B00F4902ED0F0902ECD91F77B01D158902ECF
:102E1B00D0E0B40119902ECDF130121DC6902C7458
:102E2B00F074FE120E3B902C737405F08015902EEF
:102E3B00D0E0FF64066004EFB40711902C73E060E0
:102E4B000271B6902ECD1211D8120C90227A2C79D9
:102E5B00797F060208859400902DE7F0A3CEF07BD6
:102E6B00007A00790022C003C002C0017B017A2DD9
:102E7B00794991FAD001D002D0037F03020885EF84
:102E8B00600E1216AEAF82AE83E4FD1230DA801004
:102E9B00302B037F0022120AE71231AEE433FF22FC
:102EAB007F0122E4FFE5F754C06002801675FF0135
:102EBB00E5D530E30DD1D350F4D1CEEF60EFD1D3C4
:102ECB0050EB22F15BAFD92275FF01E5E433229081
:102EDB0008BD1211E19008C0EDF0E4A3F0ED54FE33
:102EEB009008C0F0602FE4FFD18ABF01289008BD85
:102EFB001211D8122042501D9008BEE475F0021238
:102F0B000F0C9008C1E02402F09008C1E0FF90087C
:102F1B00C0E06F70D87F01D18A9008C1E0FF22908A
:102F2B002C270211E11211D8E92401229007EAE0C3
:102F3B00A3E0FF22901215E04404F022901215E05A
:102F4B00C4135407FF2224A0F582E43407F583222F
:102F5B0075FF01E4F5EA75EAFF227D02D1DAEFC3D2
:102F6B006001D322E5F45418131313541FFF22905E
:102F7B00121AE02401FFE433FE22901215E07F00C9
:102F8B0030E2027F0122901215E07F0030E0027FD9
:102F9B000122C39007CEE094FF9007CDE094FF226F
:102FAB00AE071103EE04FEEF8EF084AFF022902EED
:102FBB002DE0FF64066004EFB40102312822901269
:102FCB0015E05414FFBF14047F0180027F0022E53B
:102FDB003730E20EE53720E509E53730E0047F01B5
:102FEB00D18A22302D0D120925EF6007C256120926
:102FFB0016C22D229005EFE0FCA3E04C700A900561
:10300B00EFEEF0A3EFF0D322C3229005EFE0FEA387
:10301B00E0FF4E6009CAEECAC9EFC912131422D2DF
:10302B00ADD2BD75FF02758E7175510975FF02E545
:10303B008E546F4480F58E902EC912119B000000A8
:10304B000022C0E0C0F0C083C082C0D075D008C0E1
:10305B00FF75FF02E58E30E43A75FF02E58E54EF03
:10306B004410F58E902EC912116712232F902EC982
:10307B0012118F9000001219BDE55130E0020519B5
:10308B00E551700D755109051FE51F7002051E8076
:10309B0002155175FF02E58530E40411B70555D0D3
:1030AB00FFD0D0D082D083D0F0D0E03275FF024376
:1030BB0085102211D25006914350028001C322C2C7
:1030CB00EBA2ED9236C2EDE5F4C330E701D32290CB
:1030DB00087CEEF0A3913DE536707C11CA5005C219
:1030EB004F121E8390087CE0FEA3E08E31F532A3D5
:1030FB001211D89007CA1211E1AE31AF327DAA314D
:10310B008DE4F5FF75D908F530E5375421602BE5D3
:10311B003730E504E4FF3163E4900881F0900881D7
:10312B00E004F0122622EF6009900881E0C39410AE
:10313B0040EB7F02120CA45337DE122F7A914A9484
:10314B00805005E004FF80027F00317ED24F121EBB
:10315B0083D2EBA23692ED2275FF01E5D530E60264
:10316B00C322E4F5FF439A80EF9152E4F5FF539AA3
:10317B007FD322316343FA04E4F5FF53D1FD43D1EE
:10318B000122E4F5FF75D102E5D120E0FBE4F5D196
:10319B00F5FFEF9163EE540F42D6E4F5FFCFEDCF81
:1031AB008FD422E536702811CA5005C24F121E83E8
:1031BB001227BA7F08120CA4121F08E5D120E0FBDE
:1031CB004337205337FEE4F530A23692EDD322C3BA
:1031DB00224337015337DF9008DDE0FD512690087D
:1031EB00DDE0FD91924004E4F5362243FA045337B7
:1031FB00FB3044043183800A7F55510F7F55510FAB
:10320B00D2EBD32275FF01E5D520E602C322E5FA06
:10321B00540360FA75FF018FC3D322EF30E30774B9
:10322B00332DF8E6FF22743D2DF8E6FD203704EE32
:10323B0030E00BE539C394F0502051798018E53B11
:10324B006006FDE4F53B8012E539C394F0500BE5C5
:10325B0039540FFF60045168AD07AF05229185FF0C
:10326B00C3940E40027F0DEF90035C93FF229007F7
:10327B00C9E0FDFFC3740E51A2EFC4F8540FC86828
:10328B00FFEEC454F048FEE53954F0C39FEE915C59
:10329B007F005002AF05229FFFE49400FE22902E88
:1032AB00E1EDF0901211E0F46005A3E0B4FF0C9097
:1032BB002EE37418F0A37413F08010901211E090A9
:1032CB002EE3F0901212E0902EE4F0120DA06401A8
:1032DB0060028112902EE1E0FE64086004EEB404FB
:1032EB0008902EE27428F08006902EE2743AF0EFEC
:1032FB00122192FF1210F2E49113EF24D8FFEE3457
:10330B003FFEED3493FDEC3416FC7B007A807903A1
:10331B0078001202999178902EE4E0FF902EE3E072
:10332B00C351A2E4FCFD120FD5ECC0E0EDC0E0EE02
:10333B00C0E0EFC0E0902EE4E0FFE4FCFDFE911353
:10334B00D0E0FBD0E0FAD0E0F9D0E0F8EB2FFBEACD
:10335B003EFAE93DF9E83CF8902EE2E0FFE4FCFD93
:10336B00FE120FD5EF2454FFEE340B122335E47B02
:10337B00A87A16F9F8120299CBEFCB902EE1E01454
:10338B00605D14601B24FE600C24FC707AE4F5FF76
:10339B0075CE318006E4F5FF75CE21F5FF8BCF227C
:1033AB00E4FAE4F5FFEA2440F5CEE4F5FFEAFFC3C7
:1033BB00740751A274FC2FF58274033EF583E491DC
:1033CB001BC39DF5CFE4F5FFEA2448F5CEE4F5FFEA
:1033DB00EA9003FC911B2DF5CF0AEAB408C422E452
:1033EB00F5FF75CE01F5FF8BCFF5FF75CE0EF5FF13
:1033FB00EB25E0F5CFE4F5FF75CE0FF5FFCFEBCF67
:10340B00EB75F003A4F5CF227B64FAF9F8020FD524
:10341B009325E0FDE433FCEB75F010A4FFAEF01246
:10342B000E81CDEFCDEBFFE4C313EF1322E4F536A2
:10343B0021AEEFF0A30211E1E5F754E024FF22C324
:10344B00EF9403EE64802233333354F8F5F4229D6A
:10345B00EC6480F874809822F5D7E4F5FF53D6F02E
:10346B0022E4F5FFE99163EA540F42D622C8ECC877
:10347B00C9EDC9CAEECACBEFCB22E539C4540FFE56
:10348B00EF90037A932E229008F2EDF0A3EFF07FEA
:10349B0001120CA49008F2E0FFA3E0FBE4902DDEF8
:1034AB00F07D0212233D50ECD322E539C394F0504A
:1034BB001F5339F09185FE740FC39F4005EE940E98
:1034CB00400543390D8003EF4239E539540FFF2294
:1034DB007F0022AF36EFC36001D322EFC3940E50AF
:1034EB00059007C9EFF022E539540FFF229005F341
:1034FB00E06402701F8F3DAF058F3EAF038F3F908F
:10350B000879E0F533A3E0F534A3E0F535AF3D12D0
:10351B000AB0D322C3229008D81211E19008D81216
:10352B0011D8E53DB161B168E53EB1611211D8B179
:10353B007AFAE53FB1611211D8E92403F9E43AFABA
:10354B00E533B161121DD0E534B161B173F9E43AE1
:10355B00FAE535020E3B120E3B9008D8221211D819
:10356B00E92401F9E43AFA221211D8E9240522E9F7
:10357B002402F9E43A22E53954F0C4540F2FFFC367
:10358B00941040027F0FEF90036A93FF227E10EEA0
:10359B0060091EEE90036A93B507F4EEC3940E40D8
:1035AB00027E0DEE90035C93FF22C2AFEF4237D247
:1035BB00AF22C2AFEFF45237D2AF227F02B1BD9030
:1035CB0005E9E09005F2F09005E904F0C3940222BE
:1035DB00EF24FE600C24FE600580007F01227F0239
:1035EB00227F0322753601753C079007DBEFF090C5
:1035FB0007C87403F0C374799B9007EBF0E4940055
:10360B009007EAF022E53720E50DC24F121E831218
:10361B001F08E5D120E0FBE4F530229008F4EFF031
:10362B00A3EBF09008F4E0D1B3E0FEB402037F000B
:10363B0022EE701C9008F4E0FFD1B37401F09007F8
:10364B00D9E0FCA3E0FDEFD1BDECF0A3EDF0802AB7
:10365B00ED241BFFE433FEE4FCFD7B0CFAF9F812BE
:10366B000299EF2405FF9008F4E0D1BDE0FCA3E044
:10367B00C39FEC940050037F0022902B19E0B4FF02
:10368B00159008F5E0540FFFBF0103E48004900789
:10369B00E9E0902B19F0902B19E060037F02229048
:1036AB002B1974FFF07F01222468F582E4342AF58C
:1036BB00832225E02413F582E4342BF58322900832
:1036CB00DEEFF0ED24FE60191460262402703BEB54
:1036DB002402FFE43AFE7C007D50120E6F7D608069
:1036EB001EF13DC333CE33CED8F9FF7C007D28804D
:1036FB000EF13DC333CE33CED8F9FF7C007D64127F
:10370B000E819008DFEEF0A3EFF09008DEE0F148B9
:10371B00C083C0821211839008E0E02401FF90085F
:10372B00DFE03400FEE4FCFD120FBAD082D083023E
:10373B00118FEB2401FFE43AFEEF78032225E025FD
:10374B00E024DDF582E43407F58322EFF148121112
:10375B006702114DE49007DDF1749007E1F174FFFE
:10376B00FEFDFC9007E502118FFFFEFDFC12118F91
:10377B00E4229005EBE0F4FFA3E06FFFA3E06FFF03
:10378B00A3E06FFF6455601DEF64056018EF6425BF
:10379B006013EF6445600EEF64656009EF644A6087
:1037AB0004EFB40A010F9007C7EFF022A2EB924689
:1037BB00C2EB7A0779CD7B017D0CE4FF120858A28E
:1037CB004692EB22A2EB9247C2EBEBC0E0EAC0E0E1
:1037DB00E9C0E07B017A0779CD122CFAD0E0F9D061
:1037EB00E0FAD0E0FB7F0C120885A24792EB22E4B3
:1037FB00902E2DF0FBFAF9902E290211E1120B2DD0
:10380B00902E2CE014F06005A374058005902E2DEE
:10381B007407F00229287F017E009017FCE4935E69
:10382B00FE7401935F4E24FFB322902D4CEEF0A358
:10383B00EFF022902C6DE0FF1208ADE4902C6DF0B0
:10384B0022113EE51864066006E518640770319096
:10385B002C6DE06003F47028E4FDFC7F01120A7408
:10386B007E387F4CC006C0077F587E807D047C006D
:10387B00122DE5F0D007D0061208B2902C6DEFF0A8
:10388B00229027F5E070087B017A2779ED11AE9035
:10389B0027F5E044C0F09027F811B59027FCE054D1
:1038AB00FEF0227D107F23020AF6E054FEF0A3E027
:1038BB0044C0F022902C73E0B4040E902C78E0609E
:1038CB0008122F91EF7002FF22902C73E0FF2274ED
:1038DB0005D39F500B7463C39F4005902C76EFF07C
:1038EB00902C76E0FF22902FACEFF0BF0204E4FFA8
:1038FB008009902FACE0B403057F011219222290AE
:10390B002E8D12118F902E91E05402901234F09064
:10391B002E8D121167022AC7EF7011ED600775FF2C
:10392B000143AE012275FF0153AEFE22EFB4011429
:10393B00901235EDF0600775FF0143AE022275FF63
:10394B000153AEFD2275FF02E5E630E2037F032251
:10395B00E5E630E3037F0022E5E630E1037F042256
:10396B00E5E67F0530E0027F0122EF600775FF027D
:10397B0053E6BF2275FF0243E64022EF14600F149B
:10398B006014240270188B8075FF018DFD228B90C3
:10399B0075FF018DC9228BA075FF018DCA22AF0364
:1039AB008FB075FF01AF058FCB22902DD51211E192
:1039BB00EF1460111460182402701E31EFE5803192
:1039CB00F5E5FD801C31EFE59031F5E5C98012314D
:1039DB00EFE5A031F5E5CA800831EFE5B031F5E54B
:1039EB00CB020E3B902DD80211D8120E3B75FF0166
:1039FB00902DD50211D8E4F5FFAF9122E4F5FFAF7E
:103A0B009222902F29514B7F017C127D01E4FE8D78
:103A1B00828C83ED2EF582E43CF583E02FFF0EEED6
:103A2B00B412EC901213E06F6009902F295142E40D
:103A3B00120E3B22902EE6E0FBA3E0FAA3E0F92264
:103A4B00EBF0A3EAF0A3E9F022C24975FF03759BE3
:103A5B001F75FF0390120FE020E71BE59A540FC36D
:103A6B0094024012E04480F0E4F5FF75C2A143FCE0
:103A7B000475FF03D249E5FC30E609E59A540FC300
:103A8B00940540CDE5FC30E611E4120E3B75FC804D
:103A9B00F5FC75FC40E5FC20E6FB3049031222EDFA
:103AAB0022EF30E00E43F401E4F5FF43A404F5FFED
:103ABB00759624EF30E10E43F401E4F5FF43A408BF
:103ACB00F5FF759624EF30E20943F402E4F5FF7538
:103ADB00961EEF30E30943F404E4F5FF7596107579
:103AEB00FF01EF5403600475D7122275D72D22E422
:103AFB00F5FF7584E6F5FF439404F5FF75981422E2
:103B0B00E4F5FF75933F75FF03759A4051FAE4F5A1
:103B1B00FF759C93F5FF75A1A3F5FF758531F5FF37
:103B2B00758628E5FA54304480F5FA75FF0175E780
:103B3B004A75FF0275DF4975FF0143D30475FF0119
:103B4B0053D367E4F5FF53E6BF75FF0175D825F531
:103B5B00FF75B503F5FF75B215F5FF75BA02F5FFE5
:103B6B0075AFB3F5FF75CD0AF5FF75CB08F5FF758E
:103B7B00CA12F5FF75BF0EF5FF75CC96F5FFF5BDB7
:103B8B00F5FF75C281F5FF75AEE1F5FF75DA55F5F9
:103B9B00FF75F580F5FF75E903F5FF75E933F5FF63
:103BAB0075972A75FF01759B42759CA4759D2975A8
:103BBB009E48759F2475A11275A312759AF8204C17
:103BCB000CF5FF43968090120FE04440F022CCEFAF
:103BDB00CCCFEDCF74017E00C8EFC8088005C3338E
:103BEB00CE33CED8F9FFCDECCDEF5D601B304B184B
:103BFB0075FF0175DCAD75FF0175DDCDE4F5FF7566
:103C0B009A74F5FF7594842275FF0175DC5375FF6B
:103C1B000175DD33E4F5FF759A14F5FF75940422F5
:103C2B0075FF0175E46575FF0175D6472275FF01B8
:103C3B00E5D530E602C32253FACFEFB4080543FAB9
:103C4B00308012EFB4040543FA208009EFB402056B
:103C5B0043FA108000D322E5F75406FFBF06037F1B
:103C6B000822E5F75406FFBF04037F0422E5F7544F
:103C7B0006FFBF02037F02227F012275FF018FDA4D
:103C8B0022E5F754C024FF22902EE9B134902EE99F
:103C9B00B119B124120299AC00AD01AE02AF03C051
:103CAB0006C007902EE9B12CB11DD007D006D31258
:103CBB0011007E0050047F0180027F00C006C00708
:103CCB00902EE9B119B124120299D0E02FFFD0E068
:103CDB003E902EE9F0A3EFF053ECFC902EE9E0FCC4
:103CEB00A3E0FDEC540342EC75FF02EDF5AF75ED6F
:103CFB000275ED04A3E0600543EC08800353ECF779
:103D0B00902EECE0600443EC042253ECFB22E0FE2B
:103D1B00A3E0FBAA06E4F9F8227F807E387D01FC44
:103D2B0022E0C313FEA3E01322EEF0A3EFF0A3ED0A
:103D3B00F0A3EBF022C2ACE4F549F548F547F545A5
:103D4B00F546F5447B017D019193D2AC22EF6007E0
:103D5B0075FF0243E6102275FF0253E6EF22E5EDF5
:103D6B0030E2FB75ED04AFEF22E5ED20E0FB8FEFCA
:103D7B0022EF600443EC042253ECFB22EF6004437C
:103D8B00EC082253ECF722E5ED5402FF22C0E0C011
:103D9B00F0C083C082C0D075D000C000C001C0028B
:103DAB00C003C004C005C006C007C0FFD12AEF6026
:103DBB002912004E12005EE544C394204003754463
:103DCB0000E548C39420500FAE440544744B2ED1EC
:103DDB0085EFF005488003754820B192EF60231200
:103DEB000056E549D394004019E5479420400375EC
:103DFB004700AF470547746B2FD130E0FF120066C9
:103E0B001549D0FFD007D006D005D004D003D0027F
:103E1B00D001D000D0D0D082D083D0F0D0E032E52A
:103E2B00ED5404FF22F582E43407F5832290090454
:103E3B00EFF0E549C394204005122FDA80F4E545F5
:103E4B00C394204003E4F545C2ACD17FEF700EE57F
:103E5B0049700A900904E0FF120066801290090471
:103E6B00E0FFAE450545746B2ED130EFF00549D21E
:103E7B00AC7F0122E5ED5401FF22F582E43407F516
:103E8B008322C2ACD17FEF7004E54960047F0180CF
:103E9B00027F00D2AC22E546C394204003E4F546F2
:103EAB00AF460546744B2FD185E0FFC2ACE548D336
:103EBB00940040021548D2AC22902C8FE020E017E2
:103ECB0012073E7F3D1206567F2A1206567F80123E
:103EDB0006567FA612138322902C91E0120E3B9074
:103EEB002C96E0900001120E4D902C97E090000262
:103EFB00020E4D7B017A2C79947D017F03120AF619
:103F0B007A2C799D7F081249D27A2C799A7F0912E3
:103F1B004A977A2C79987F0B124A97902C98E0FE4F
:103F2B00A3E0FF4E6006BEFF18BFFF15124A4F50AD
:103F3B000280051240C38009902C98E4F0A37440D2
:103F4B00F0124A4F50028008902C957403F08006B3
:103F5B00902C957402F0902C94E01212EE3F840496
:103F6B003F8F143F97153F9F173FB5303FBD343FF1
:103F7B00C5363FCD3700003FAA75FF015310EF85C3
:103F8B0010FD804775FF015311EF800E75FF015334
:103F9B0011DF800675FF0153117F8511C9802C75C8
:103FAB00FF015312DF8512CA802175FF015313FEE7
:103FBB00801675FF015313EF800E75FF015313BF6E
:103FCB00800675FF0153137F8513CB1217337F11B7
:103FDB001240B5E4FF12139612065E902C927402F7
:103FEB00F0902C96E0247F600A0470191240BB7489
:103FFB000A8008123EC41240BB7458F0902C957482
:10400B0003F01240C3902C97E0F4600201B2902CA5
:10401B009AE0FEA3E0FF64104E7006902C97740E8E
:10402B00F0EF64204E7006902C97740FF0EF644005
:10403B004E7006902C977410F0EF64804E700690C3
:10404B002C977411F0E4B5070AEEB40106902C9787
:10405B007412F0E4B5070AEEB40206902C977413B1
:10406B00F0E4B5070AEEB40406902C977414F0E450
:10407B00B5070AEEB40806902C977415F0E4B50753
:10408B000AEEB41006902C977416F0E4B5070AEEFE
:10409B00B42006902C977417F0E4B5070AEEB440E1
:1040AB0006902C977418F00217B0EF4420F5FE22FF
:1040BB007F1011B5902C9222902C987401F0A3E4F0
:1040CB00F022AB05E4FCFD902EA0EBF00207A290D2
:1040DB002F32E075F005A4248BF9742435F0FEAF74
:1040EB00017B017A2B79D1902E337405F0902E3011
:1040FB001211E1E4FCFDC007902E301211D8902E66
:10410B0033E0FF902D5FE4F0A3EFF0D007021964CA
:10411B00AF017B017A087964902E337402F080CD65
:10412B00E4FEEF70037FFF22EFD3940F4009EFC43F
:10413B00540FFFEE4404FEEFD39403400AEF131326
:10414B00543FFFEE4402FEEF30E1010EAF0622EFCB
:10415B00F4045FFF80CA902C9E12118F902CA21238
:10416B0011E1902C9E121167902C99E024FFFD9089
:10417B002C98E034FF5EFEED5FFF902CA7EEF0A3D2
:10418B00EFF04E6068902CA7B184902C99E09FFFC4
:10419B00902C98E09EFE902CA7F0A3EFF0902CA50E
:1041AB0091309FEC9E5006A3ECF0A3EDF05197914C
:1041BB0014F06028710CC004C005C006C0075197ED
:1041CB00E94A600551FFFF80027F007E0051979105
:1041DB0049D007D006D005D0041216CB5170E94A4E
:1041EB0060059137FF80717E007F00806B902CA55E
:1041FB00E0FEA3E0FF4E606B902C989130EF9DEEAC
:10420B009C400A902CA7ECF0A3EDF0800D902CA510
:10421B00E0FFA3E0A3CFF0A3EFF051979114F06070
:10422B0028710CC004C005C006C0075197E94A604D
:10423B000551FFFF80027F007E0051979149D00707
:10424B00D006D005D0041216CB5170E94A60059107
:10425B0037FF80047E007F00902CA3EE8FF0120FAF
:10426B000C808AD322902CA7E0FEA3E0FFC3902CF6
:10427B00A6E09FF0902CA5E09EF0902C9E1211834F
:10428B00E4FCFD120FBA902C9E12118F902CA202FF
:10429B0011D8AB07AA06EB241FFFE43AFEEF780513
:1042AB00CEC313CE13D8F9F9EB541F902FB1F0AF47
:1042BB00057104FCAF05312BAE01EE14C39FC43363
:1042CB0054E0F9AF04C3EB9FFFEA9400FEE9FDC392
:1042DB00EF9DFFEE9400FEED600FE0FD6007C374F1
:1042EB00209DFD80067D0080027D007C00EF2DFF70
:1042FB00EC3EFE22902CABE0FF315AEFC43354E07E
:10430B0022902CA7E0FEA3E0FF902CABE0FD519D8B
:10431B00902CA9EEF0A3EFF0A3E0FF315AEF75F06C
:10432B0020A4FFAEF0E4FCFD902C9E121183020F33
:10433B00BA35F0FEAF017B017A2B79CC902DE7E4F7
:10434B00F0A37405F0902DE41211E1E4FCFDC0071D
:10435B00902DE41211D8902DE7B1C9D007216191AE
:10436B003F1211E1E4902CB6F0A304F0902CB3E0D3
:10437B00FEA3E0FF4E7002810ED3EF9420EE94006B
:10438B0040047F208006902CB3A3E0FF902CB5EF68
:10439B00F0902CB01211D8902CB5E0FF902BA8E424
:1043AB00F0A3EFF0902CAC121167915F400E902CA4
:1043BB00B6E0FFA3E0FEEF4E902CB6F0902CB5E0EC
:1043CB00FFC3902CB4E09FF0902CB3E09400F090DE
:1043DB002CAC121183902CB5E4FCFDFE120FBA919C
:1043EB003F1211D8E94A6007902CB5E0FF80027F9D
:1043FB0000902CB1E48FF0120F0C902CB7E025E05D
:10440B00F06177902CB6E0FF22902CA7E0FFA3E0A1
:10441B00902CB3CFF0A3EFF0902C9E121167716A22
:10442B00902CABEF22E0FCA3E0FDD322902CA7E075
:10443B00FEA3E022902CAC12118F902CB022E92F0E
:10444B00F9EE3AFA902CA9E0FFA3E0902D56CFF0AD
:10445B00A3EFF022902BA112118F902BA51211E13B
:10446B00E4902BCAF0D3902BA9E09420902BA8E0DA
:10447B0094004001227B017A2B79AA902BA8B1D60C
:10448B00902BA1121167121964902BA51211D8E968
:10449B004A600B902BCAE0F58291DAFF80027F0015
:1044AB00902BCAE024AAF582E4342BF583E06F60ED
:1044BB0002C322902BCAE004FFF0D3902BA9E09FFC
:1044CB00902BA8E0940050C1221211D81E8E827539
:1044DB008300020DB9902E82B151E58F20E0FBB124
:1044EB0058E4FF902E821211D88F8291DAF5930F38
:1044FB00EFB410EFE4FF902E851211D88F8291DA72
:10450B00F5940FEFB410EF22902D7CB151E58F2075
:10451B00E0FBB1587E10902D7F91D4F593EE70F6A1
:10452B007E10902D7C91D4F594EE70F67F01B168DE
:10453B00B1C0EF70FB7E10902D821211D81E8E82AF
:10454B00B18BEE70F2221211E175FF012275FF01A2
:10455B00538F0675FF01538FF075FF0122EFB401E6
:10456B0007B1AA4401F58F2275FF01E58F54F04482
:10457B0006F58F227404F06150E0FEA3E0FFC32226
:10458B00758300E593020E4D902F7DB151E4FF90A2
:10459B002F7D1211D88F82B18B0FEFB410F12275D2
:1045AB00FF01E58F54F622B1AA4408F58F22715012
:1045BB0074FFFDFC2275FF01E58F5401FF22E0FF24
:1045CB00A3E0902CA5CFF0A3EFF022E0FFA3E090A7
:1045DB002D5FCFF0A3EFF02212180A1206FAEF604C
:1045EB0005122FDA80F522902C93E0FF22E4902C19
:1045FB0093F022E4F5FF75D102E5D120E0FBE4F561
:10460B00FFF5D1EF6008E4F5FF43D2808006E4F5B7
:10461B00FF53D27FEB6006E4F5FF43D104ED600658
:10462B00E4F5FF43D10822E4F5FFEFF5D8E4F5FFFD
:10463B0053D60FEE540FC4F854F0C8E4C4540F48CB
:10464B0042D622E4F5FF8FD4F5FFCFEDCF8FD522E5
:10465B00E4F5FF8FD422E4F5FFE5D1540133333376
:10466B0054F8FFE4F5FFE5D354074FFF22EFB401F5
:10467B0009D2AD75FF0143AE4022C2AD75FF0153A8
:10468B00AEBF22E5C85402FF75C80222E5C8540428
:10469B00FF22E5C85401FF22902EC41211E1E490D1
:1046AB002EC7F0A3F0902EC7E0902EC4D1DA902E37
:1046BB00C7EFF06010E0FFC25A1209EDEF600690F1
:1046CB002EC8E004F0902EC7E070DAA3E0FF22FFC3
:1046DB001211D80208D5EF6004902D42F09007A577
:1046EB00E0900793D1DA9007A5EFF06052201D4FB1
:1046FB00902D40E0C330E501D39220902D3FE0FD9B
:10470B00902D431211D8F173902D41E0900821F0B8
:10471B00902D3EE0900822F0A37480F1579007A5EE
:10472B00E0FBE4FF120B4BEF7021902D427402F073
:10473B00902D3CE0FEA3E0F5828E837F02800990F2
:10474B002D42E0902D3CF16112131822F0A3744618
:10475B00F0A374E1F022FFE0FCA3E0FDF5828C8373
:10476B0022F07B017A28797990081E0211E1902CB6
:10477B00DD1211E1902CDCEFF0FE902CE77403F0CE
:10478B00902CE4E05437F0E0FF5420902D40F09053
:10479B002D3FEEF0902CE5E0FDA3E0902D3CCDF00D
:1047AB00A3EDF0902CE01211D8902D431211E19053
:1047BB002CE3E0902D41F0902CDD1211D890079353
:1047CB001211E1EF4420902D3EF0E4902D42F0C207
:1047DB001DF556902CDD1211D8AF561208D58F56F9
:1047EB00EF601E7D03120A6A40E9AF56120A65504C
:1047FB0008902CE77401F08008902CE77402F0808D
:10480B00D2902CE3E0FED3948140037F0022902CC6
:10481B00E4E0FB902CE730E0111158C003116090DD
:10482B002CD6EE124757D003802011581160902CD4
:10483B00E3E0902CD6F0902D3CE0FBA3E0902CD73E
:10484B00CBF0A3EBF0902CE4E0FB021DDBE0FF9040
:10485B002CDCE0FD22902CE01211D8902CD302110D
:10486B00E1C003C002C001902D351211D8902CE08D
:10487B001211E1902D38E0902CE3F0902D39E0905F
:10488B002CE4F0902D3AE0FFA3E0902CE5CFF0A3C1
:10489B00EFF0D001D002D003AF50024779E4FF30E4
:1048AB002B037402FF22200005D2130209B6C32288
:1048BB00C2ACC374209549FFD2AC2275FF01E58FC2
:1048CB005408FF22EFB4010775FF0143AE20227598
:1048DB00FF0153AEDF22EFB4010775FF01439120B7
:1048EB002275FF015391DF221211E1902C4EE054FF
:1048FB000F22C2077B007A007950902E371211E1FC
:10490B000B7A0579EB2275F005A424F3F9740035C5
:10491B00F0FEAF0122FF1211D8EF020E3BFF121176
:10492B00D8E924042274FFF5F0120F2245F022FF80
:10493B00FEFDFC0211839005F2E0FD75F0AA9005D7
:10494B00F71211CCAF82AE83229005F4E0FEA3E008
:10495B00FF1208BCD3EF94C8EE94002274FFF5F05D
:10496B00120F0C45F0227A0779C27F04020885EFFB
:10497B00C454F0FF0211D82FF9EA3EFA020DA0241D
:10498B002EF9E43AFA7D04E4FF020858F9E43AFA06
:10499B00740122E0FCA3E0FD4C22242DF9E43AFA49
:1049AB007440020E3B7B017A2E798B7F02020885C5
:1049BB00F0A3EDF0E4A3F0228D828C830213189008
:1049CB000853F0A3EFF0227B017D01020AF6E532DA
:1049DB002407F582E43531F58322F0A3F0A3F0A38D
:1049EB00F022E4FFE4FDFC7808021127E4FFFEE46B
:1049FB00FC7810021127EEF0A3EFF0AA06F97B0169
:104A0B00221211D8E924B722EFF0A3EDF0A32290E4
:104A1B002DFB0211E12409F9E43AFA227B017A28F1
:104A2B00797D22F9E43AFAEE020E3B74FF120DE6A1
:104A3B00020DA0902E5CECF0A3EDF022F9EA34FF0E
:104A4B00FA020DA0902C9DE024FE24FD22EEF0A393
:104A5B00EFF07B01222DF582EA3CF583227431F0D5
:104A6B00A374A0F022FF54F0C4540FFE227401F083
:104A7B00AE04AF0522AA06A907021314AF03EAF08E
:104A8B00A3EFF0229005EBE0C394C0227B017D02E3
:104A9B00020AF6902FAEE014F0E02290120EE0D353
:0B4AAB009401229005EBE0FFA3E02245
:107F7E000200022490294A02060A02294C29800096
:107F8E003904060A0229853187080705060A0231D7
:087F9E008C319A0013FF060A62
:107FB000FFFFFFFFFFFFFFFF7FC600000000000084
:067FC000000003080000B0
:108000007B01E4FFAE051DEE6009EF120E3B12D0BE
:108010000F80F122020609902F0912343D12E1056A
:10802000310A4AC36001D34002210812E0FA501A13
:10803000E0FF9404500280027F04310A12BF9012C4
:10804000959E7B017A2C7936F16C902C27121DD0ED
:1080500012E360310924E87167902C35310924F26C
:108060007167902C3B310924F37167902C3C3109E6
:1080700024F47167902C3D310924F07167902C3302
:10808000310924F17167902C34310924F5129C8D4B
:1080900012E2D1F0902C271211D812E158E4902C62
:1080A0002A3109129C8B45F0604F902F09E0602B1C
:1080B000A31211D812959E7A2C792E12E19D12E30B
:1080C0003BC003C002C001310A129C8BF58285F0CF
:1080D00083D001D002D003E4FF801B12E33BC00336
:1080E000C002C001310A129C8BF58285F083D00159
:1080F000D002D0037F01121318902E2DE0B4040299
:10810000E4F0122E6A122F2A22F0902C271211D896
:10811000E922E49008E212E38B129D03E054F0643C
:108120004070024145E49008E1F09008E1E0FEC3B0
:108130009404503E75F0F7EE129D08E0FEB401077E
:1081400012E369E4FF802BEEB4020C9008E3E0B484
:10815000FF0512E36980139008E1E075F0F7129DC6
:1081600008E054F0FEBE80027F019008E1E004F0D8
:1081700080B8EF60069008E374FFF09008E3E0F445
:10818000700241451230BE50024145E53730E102F0
:1081900041459008E17405F09008E3E09000051275
:1081A000E2C830E40990000712E2DF549FF0900823
:1081B000E3E09000B912E2C8540FFEBE050990003A
:1081C000BE12E2DF30E1259008E3E0FF75F0F790A2
:1081D00000041211CCE020E53375F0F7EF9000BDFC
:1081E0001211CCE0B4FF25EE640360209008E3E0B8
:1081F00075F0F79000061211CCC083C082E04401F4
:10820000FFA3E0D082D083CFF0A3EFF09008E3E0AB
:10821000129F4E121BB350219008E3E0F55475F005
:10822000F7129D08E04440F09008E27401F09007D6
:1082300096F0E49008E1F080069008E1E014F090F8
:1082400008E1E070C7E53730E2327F041235BD1235
:108250009D03E0FF54F064407018129D03EF540F2B
:10826000F0129D03E04480F0E554129F4E120B285B
:10827000800AE53730E0057F01122E8A9008E2E09F
:1082800024FF22122F2AE924EC71676017E4902C56
:108290003E310912356C7401120E3B7E0A7FBAFD25
:1082A0007C00613B310A24017167D39401404A127A
:1082B0000B3C902C3EEFF0E004F07E0A7FBA310ACE
:1082C00024B77167540F6408701E310A24BC7167AB
:1082D00020E015310A24BD7167FDC4540FFCED5434
:1082E0000FB504047D07800D310A24B1716775F064
:1082F0000A842406FD7C008042E4902C3EF07E0A35
:108300007FBA310A24B77167540F6408701E310AAE
:1083100024BC716720E015310A24BD7167FDC45487
:108320000FFCED540FB504047D07800D310A24B114
:10833000716775F00A842406FD7C00020B329008F8
:10834000E41211E19008E4128994540F120E3B904C
:1083500008E41211D8E924F2124997020DE6902C94
:10836000B81211D8E92402F9E43AFA020DA0902FCC
:108370000D1211E1E94AC36001D340028158902FE8
:108380000D716130E01A915A24B77167540FFFBF25
:108390000503D38001C34008902F0D1211D84183EB
:1083A00012E105902F0D1211D812E0FA501AE0FFD9
:1083B0009404500280027F04915A12BF9012959E3D
:1083C0007B017A2C7936F16C902F0D121DD012E3BF
:1083D00060915924E87167902C35915924F27167A6
:1083E000902C3B915924F37167902C3C915924F4C3
:1083F0007167902C3D915924F07167902C339159FD
:1084000024F17167902C34915924F5129C8D12E25D
:10841000D1915924EC7167902F107003F080037490
:1084200001F0915A129C8B45F06024902F10E0FFD0
:1084300012E33BC003C002C001915A129C8BFDACF9
:10844000F0F58285F083D001D002D003121318908A
:108450002F0D1211D812E15822F0902F0D1211D8C1
:10846000E922E51B6002A121B127E92404716730EC
:10847000E618B127129E50FAE475F064120F9BB112
:10848000277406120E3BC21E8046B127E9240571EF
:10849000674420B126E9242A121BABB127E912490F
:1084A000A5B127E912498AB1277405120E3BB127FD
:1084B000E92404716730E3067E037FE880047E07C9
:1084C0007FD0B127129E50FAEE8FF0120F9BD21E72
:1084D0009005727161FF9005721295A87167FDB1E8
:1084E00027E92420F9E43AFAC003C002C001B12709
:1084F000E92406716790082EF0B127E9240471671A
:1085000054F790082FF0A3740AF0A3747EF0D00102
:10851000D002D003120B46EF7007B1277407120E7A
:108520003B2290121AE0FF9005720211D8E49028C5
:10853000ABF0C2599027FEE0FFC394045007902788
:10854000FDE0B40108EFC394014002E10790286602
:108550007401F07F0C3013027F14902867EFF03025
:108560000C02C1C29027FEE07035902876E0FF1221
:10857000D7565017902877E0FF12D756500D902805
:1085800076E0FFA3E0FD12D771501412E2A1C215EC
:10859000E4902FBAF012E298E4A312E30AC16590C6
:1085A00027FEE07005D21512E2A1902790E0640149
:1085B000706F9027FEE06006902780E06063E49093
:1085C0002FBAF0902FBAE0FFC39404501574802F97
:1085D000F582E43427F583E06008902FBAE004F0D8
:1085E00080E17B017A27798012959E7A28796A7FCB
:1085F00004F16C12E2989027FEE0FF12E2C1F090C5
:108600002FBAE0FE902869E02EF09027907402F0D7
:10861000902780EFF09027FE04F0902784E0FF8001
:10862000447B017A2F79BA902E551211E1A259920A
:10863000587A28796A12DADE50617B017A28796AE1
:10864000902FBAE012E35612C427404B12E2981260
:10865000E2BDF0902FBAE0FF902869E02F12E30A04
:1086600090293FE0FF12DB2290286EEFF0E0FFC080
:108670000790287712B7E9546025E0FFC0079028DB
:108680007612B7E95460C4540FFED0E04EFED0E03D
:108690004E90286EF0802BD259802290293FE0FF27
:1086A0007B017A2879AB12D796902877E0FF902843
:1086B00076E0FD12D7C19259205902D20C305902EE
:1086C000C121300C15E4902FBAF0902868F012E226
:1086D000BD12E30A90286E7408F090286EE0FF90B7
:1086E0002FBAE0FE246AF582E43428F583EF12E322
:1086F000B3124773EE240590082112CC1F12E2E852
:1087000012ADA77060803F902790E06402703F90A8
:10871000286604F07F243013027F25902867EFF04D
:1087200012E298902780E0902869F0E49027901258
:10873000E3B312477312D5AC04F0E4A3F0A312E242
:10874000E812ADA7701FFBFAF97F0202D9F412DA22
:108750001AE0FEA3E0FF4E600C122E6A8F828E8319
:10876000E4FF121318227A0579EB7F04902DF112A1
:1087700011E1AE071FEE601F902DF4128994FE9058
:108780002DF11211D8EE120E3B902DF21219BD9060
:108790002DF51219BD80DB22200805E49028B2F0E7
:1087A00090285EECF0A3EDF0301605EF6401600355
:1087B00002CC8C30080E9028B2E0B54C07122E6A1D
:1087C000E4FF800F7E0A7F5612CD52EF7008FBFA4D
:1087D000F97F0112CCAD22E4902F8DF0902F8CE028
:1087E000FF70030288ABD394E840030288AB12C742
:1087F0007440030288ABE4F553E553128923E0602B
:108800003CE553128915E0541F90293EF0E55331A1
:1088100023E0FF902F8CE0FEEF6E702130540E901D
:10882000293EE0C3941F500DE004F0800890293EDB
:10883000E0600214F090293EE04480804A0553E550
:1088400053640A70B4902F8CE0FF12C5A0E43390FB
:10885000293EF060057553058003E4F5537F0AE572
:1088600053C3940A502DE5533115E0541F7002AFE5
:1088700053E5533123E07017902F8CE0FFE553311F
:1088800023EFF0A254E433FFE5533115EFF0220556
:108890005380CCEFC3940A5012902F8CE0FE31220B
:1088A000EEF0A254E433FE3114EEF022902E08ECE8
:1088B000F0A3EDF0902E051211E13175902E08E035
:1088C000FEA3E0FFA3E0FDA3E0FB12BFF5902E05A1
:1088D000124921902E053194B4FF04E4120E3B900E
:1088E0002E053194FF229028B2E0FFAD07E54C60E1
:1088F0000E30090B7E1F7FCAD25712BCA3C219903B
:108900002872E0700E9028740412DD1812D9E0F07D
:1089100012AFA122EF25E0241FF582E43412F58383
:1089200022F0EF25E0241EF582E43412F583229034
:108930002E341211E17E007F14120609902E371298
:108940004921902E373194701004120E3B319AE970
:108950004A601B7E007F08800A319AE94A600F7ED8
:10896000007F10319A902E337404F01240F8227B6D
:10897000017A287978902F2F1211E1902F2F3194BE
:10898000FF12B22B902F2F1211D8E4020E3B0206D9
:10899000FA902F5C1211D8020DA0902E340211D83B
:1089A0009027C4E0FE33333354F8902FBCF0200AF4
:1089B0000241408F4A902FBCE0FFE54AC39F5049D7
:1089C000902C4EE030E403120B96AF4A12DB42EFDC
:1089D0007033E54A12D48BF583E0FFE54A12C76B8A
:1089E0008002C333D8FC5F601C902863E54AF01214
:1089F0003279AD07E54A04FF7A097B6112D526EF8B
:108A0000704002D498054A80ACC237C20A12D5B46D
:108A10007407F0E4A3F0902864E0FF7B017A2779E3
:108A2000921247739008217403F09027E4E09008B5
:108A30002212E2F59027E312D51FEF700502D484CD
:108A4000C23722902CB81211E1902CBBEDF07401CA
:108A5000C39D4003029599902CBC3194902CBFF09B
:108A6000E92401128367902CC1F0902CBC12836121
:108A7000902CC0F01234DE40FB122FDA902CB8316B
:108A800094FFC394204032EFD394FF502C902CBB22
:108A9000E0FD949E5023902CBFE030E703029599AF
:108AA000128364902C51F0902CBC1211D8902E1788
:108AB0001211E11296F5020C95902CB831946401D4
:108AC0006003029599902CBFE030E603029599E986
:108AD00024011283671212EE8BD9019076029086E0
:108AE0000391D004927C058F11068EC4079106086D
:108AF000915309916E0A917C0B92E70D94350E917A
:108B0000C40F94981194FD1391881A8B1E1F8BCD5E
:108B1000238B9A268BC6278BD9280000959912AFF4
:108B2000527420F012835E705490287BF0A304F0FE
:108B30001295A5128367FF33333354F8902CC2F09B
:108B4000902CB8121DD0902CC212B7F27025902C28
:108B5000C212AFD1601D902CC2E0FF122E6A12A784
:108B600040902CC2E0FD122E6AE4902E81F07F200E
:108B7000120C9F902CC2E014F070C58005E4902880
:108B80007CF012476D12D5AC04F0E412BF98902C23
:108B9000C1E0FBAD50E4FF020B4B902CBBE0FF7437
:108BA00006D39F4003029599902CBFE054DF1296A4
:108BB000F4E92401121BAB902CC1E0FD902E8174CE
:108BC00005F07F86C1C1E5186406600D22E51864D2
:108BD000046006E49028AAF022902CBBE0C394061F
:108BE000E4940050030295999028AAE0FF60209039
:108BF00027FDE0B40314902CBFE030E70302959901
:108C0000902CC1E0FEEF6E600622E49028AAF012DC
:108C1000835E5407C39403500A902CB8121DD0E40D
:108C2000120E3B1248F6640170163024131295A5FB
:108C30001283675406FFBF020712E372C224C118F1
:108C4000300B030295999028B1E06003029599904A
:108C50002CBBE09028B4F01296F5129615902CC11A
:108C6000E0FC9028B3F0902CBFE09028B7F07F1084
:108C700030E4027F00EF4401FF902CBFE0FE54027D
:108C80004F9028B6F012AFD870491296F5E924013A
:108C9000128367B4230EEE7F0070027F01EF30E491
:108CA00003029599200F0A902802E030E103029513
:108CB0009920050A902802E020E103029599E490AA
:108CC00028B2F0902802E07F0030E102AF04902C3F
:108CD00052A1A31296F5E92401128367B42301225D
:108CE000E51864067002C14E12E3936007EF640258
:108CF0006002C14E30141812C6DC6001227B017A7A
:108D00002879BE12959E7A07798D7F0412876CA20E
:108D10001450028001C3401A200F0A902802E0304C
:108D2000E10302959920050A902802E020E1030260
:108D30009599902791E020E00ED21F7B017A077968
:108D40008D12959E124971902CC1E0FF7002C120D6
:108D500030080A902802E020E103029599902CBF88
:108D6000E020E7689027FDE0B40204C20F803712CC
:108D7000E34C50251248F66401702B902802E03035
:108D8000E124202405EF64EF701C3024047FEF8081
:108D90000312CCFF9028B2800A902CC1E0B4EF06F9
:108DA00012CD4CEF806C902CC1E09028B2F012AC48
:108DB0001112D68960109028B17402122E69E4FF56
:108DC00012A7B5D22122E49028B1F0221248F6640D
:108DD000016003029599902802E020E10302959931
:108DE00030240D12E34C5008902CC274EFF0801820
:108DF0009028B2E0700A12CCFF902CC2EFF08008ED
:108E00009028B2E0902CC2F0902CC2E0FF60069057
:108E100028B2F0803012E372122E6A7F01020BA09A
:108E2000902802E030E1030295999028B2E0FF60BB
:108E30000912973CEF600820080512CD4CEFF09026
:108E400028B2E0600302D4A5E4FBFD029072129602
:108E5000F5E924011283676427704A902CBFE03043
:108E6000E5437B017A0779C212959E7A2779967F2E
:108E70000412876C9028B4E0FE24F890279AF0EE54
:108E800024FBFF12E2B612959E7A27799B12876C1B
:108E900012E3837A27799690279AE02408902E810E
:108EA000F07F85801C902CBFE030E70302959990FD
:108EB0002CC112E2B49028B4E024FB902E81F07F04
:108EC00084020C9F9028B1E0FF64036004EFB408B3
:108ED0000302D31A902C4EE0FF20E503029599126D
:108EE000835EFE902C51E06E6003029599300B0F6B
:108EF000902CC1E0FE9028B2E06E6003029599EFDD
:108F000054DF902C4EF030E703029599E4FF020BFA
:108F1000B49028B1E0FF64046008EF6409600302C4
:108F2000959912D37612835EFD2403F54A902CBBEB
:108F3000E0C3954A500302906F300B0F1295A5F9CC
:108F4000E43AFA12CFF3EF6002C2129028B1E0B413
:108F5000090F902CC11296F3AC02AD0112B76C80D0
:108F600016902CC112C50E30E70D902CC11296F34D
:108F7000AC02AD0112D03CE4F54A12835EFFE54A33
:108F8000C39F502B74C8254AF582E43428F583C06A
:108F900083C082E01295A4F9E43AFAE54A12BFA828
:108FA000120DA0FEEF4ED082D083F0054A80CB1286
:108FB000835EFF902940E0FEEFD39E4002EFF0E495
:108FC000FF12CBC9EF600122300B0320123212E3F3
:108FD000837A2879C87F1D12BFBC8F4AEF70219019
:108FE0002CC112D40E600A300907902CC1E0FF1189
