:020000040000FA
:100000000202DF0218034100B8002202180B22226C
:0100100022CD
:07001300021813E4FFE1BC39
:07001B0002181B75C8012249
:030023000218239D
:03002B0002182B8D
:030033000218337D
:03003B0002183B6D
:030043000218435D
:03004B0002184B4D
:030053000218533D
:03005B0002185B2D
:030063000218631D
:03006B0002186B0D
:10007300021873BB010689828A83E0225002E722B9
:10008300BBFE02E32289828A83E49322BB010CE54F
:100093008229F582E5833AF583E0225006E9258239
:1000A300F8E622BBFE06E92582F8E222E58229F57D
:1000B30082E5833AF583E49322BB010689828A832E
:1000C300F0225002F722BBFE01F322F8BB010DE53B
:1000D3008229F582E5833AF583E8F0225006E92583
:1000E30082C8F622BBFE05E92582C8F222C5F0F8D4
:1000F300A3E028F0C5F0F8E582158270021583E0CD
:1001030038F022A3F8E0C5F025F0F0E582158270FF
:10011300021583E0C838F0E822EF2BFFEE3AFEED3C
:1001230039FDEC38FC2275F008758200EF2FFFEEE5
:1001330033FECD33CDCC33CCC58233C5829BED9A10
:10014300EC99E58298400CF582EE9BFEED9AFDEC6E
:1001530099FC0FD5F0D6E4CEFBE4CDFAE4CCF9A8B4
:100163008222B800C1B90059BA002DEC8BF084CFBC
:10017300CECDFCE5F0CBF97818EF2FFFEE33FEED93
:1001830033FDEC33FCEB33FB10D703994004EB99BD
:10019300FB0FD8E5E4F9FA227818EF2FFFEE33FED0
:1001A300ED33FDEC33FCC933C910D7059BE99A4005
:1001B30007EC9BFCE99AF90FD8E0E4C9FAE4CCFB1D
:1001C3002275F010EF2FFFEE33FEED33FDCC33CC71
:1001D300C833C810D7079BEC9AE899400AED9BFDFA
:1001E300EC9AFCE899F80FD5F0DAE4CDFBE4CCFA0D
:1001F300E4C8F922EF5BFFEE5AFEED59FDEC58FC23
:1002030022EB9FF5F0EA9E42F0E99D42F0E89C451F
:10021300F022E8600FECC313FCED13FDEE13FEEFC9
:1002230013FFD8F122E8600FEFC333FFEE33FEED87
:1002330033FDEC33FCD8F122E0FCA3E0FDA3E0FEA8
:10024300A3E0FF22E0F8A3E0F9A3E0FAA3E0FB2296
:10025300ECF0A3EDF0A3EEF0A3EFF022A8828583E8
:10026300F0D083D082120276120276120276120244
:1002730076E473E493A3C583C5F0C583C8C582C878
:10028300F0A3C583C5F0C583C8C582C822E0FBA31C
:10029300E0FAA3E0F922F8E0FBA3A3E0F925F0F0EC
:1002A300E582158270021583E0FA38F022EBF0A3A1
:1002B300EAF0A3E9F022D083D082F8E493701274B9
:1002C3000193700DA3A393F8740193F5828883E4DB
:1002D300737402936860EFA3A3A380DF75812F0279
:1002E300094A9000E551B0AE071FEE60129000E896
:1002F30071031176FE9000E57103EE11BC80E822D4
:10030300E475F0018090900A12EEF0A3EFF09000F4
:100313004FE064016002619CC3900A12E0940850AC
:100323000BE4FF9153900A12918780ECE4F50DFBE7
:1003330071C5AF0C12103DE50DC39408504771C34E
:10034300E50D7F0071BDEF29F9EA3EFA9000E8510F
:10035300B07B017A0979007FFF51E5E50DFEE424C6
:10036300FFFFE43E71BD8F828E83118F9009FFF0F2
:100373007B017A0979009000FBE50DF0AD0C1210BA
:1003830063050D80B2900050513BE42FFFEE34081B
:10039300120D139000500214BC900054E0FEA3E031
:1003A300FF71BE900A12E0FDA3E09000D1CD1208C8
:1003B300D4900054EEF0A3EFF022FE902001419080
:1003C3007B007A00791012103675FF031176F5D38E
:1003D30075FF0390000171F190000271F190000329
:1003E30071F175D40175FF03E5D55402FF22118F16
:1003F300F5D375FF03229000F1E0FEA3E0FF9130F7
:1004030091539000F3513BEF2401120D109000F330
:100413005153900A18914D900A18E07002A3E070AE
:100423000BFF7E087109120F4212142822B108CD66
:1004330024FFCD34FFFCC3ED9FFFEC9E541FFE74DD
:10044300082F121416FF229000DF74FFF5F001F05D
:10045300B108541FFC74082DF58274203CF583EF1A
:10046300F0902006E0B42019A3E0B4001490200516
:10047300E02401FF902004E03400541FF0A3EFF0C8
:1004830022902006E475F00101F09000BA515390D8
:1004930000BE51B0110AF11EEF6004110F80F71274
:1004A3000F0560099000BA513B7810D1249000BA2F
:1004B300D1209000BA513BE480219000C11208C7BB
:1004C30045F0601B9000BE5190E94A600C1176FF25
:1004D300D1279000BF918780E1E4FFD12780DBF132
:1004E300B79000AF7401F0229000E3E0FF81039026
:0704F3000A1BE014F0E022F7
:10050800902006E0FCA3E0FD902005E02DFD902062
:1005180004E03C22D1C8EF541FFF12148DA37401CC
:10052800F0120F4C9000DCE0FCA3E0FDAE0478056F
:10053800CEC313CE13D8F9FF9000DFEEF0A3EFF08F
:10054800ED541FA3F0A3E4F09000F1F0A3F0C390E2
:1005580000DDE094209000DCE09400407D914A901A
:1005680000E1E0FEA3E0FF9000F1EE8FF011F090C3
:1005780000DFE07004A3E06406700AD1C89000DFD1
:10058800E48FF011F0D1C89000F1E48FF011F0126F
:100598000FFCEF600512148A8005E49000DEF090ED
:1005A80000F1121371701D91309000E3EFF0910388
:1005B80091EB91EB9000DFE07002A3E0604891EBD3
:1005C800914A80F071F971F971F99000DFE07002D9
:1005D800A3E0603271F9914A80F09000DC91878045
:1005E8000A9000DCE07002A3E0600BD1C891039090
:1005F80000DC914D80EB120FFCEF600512148A802D
:1006080005E49000DEF09000DEE06002A12C1214F8
:10061800AB71099000F3413B513B78085115E4E573
:10062800C820E2FB8FEB227F01F1BC900A1C740109
:10063800F0900A1CE06032120FF4D1BC900A1CEF53
:10064800F0120849D1AB9000ACEFF0120849900ABB
:100658001CE054011213BB60D8A3E0F460D3EF3060
:10066800E7CFE4900A1CF080C8F1E87F9FD127D13A
:10067800BC9000ADD1BA9000B2D1BA9000B3F1B538
:100688009000ABE0F4601BA3E0F460169000B2E0C9
:10069800FD541F240FA3F0EDC413540744809000A9
:1006A800B2F022F1E87FD7D1277FFFD127D1C090C0
:1006B80000ABEFF07FFFD127E5C820E2FBAFEB22CC
:1006C800900081E0B4082CA3E0B40027120F2E7B21
:1006D800017A0179009000CA120F45F161120F2EBC
:1006E800E42FFFEE3408120D13120F28E490008156
:0806F800F0A3F0900083120F43
:10070000DB9000835153900081E475F0013106FEC7
:10071000740025F0F58274013EF583E0FF227F012D
:10072000F1BC300216120FF4D1BC900A1DEFF0128A
:100730000849900A1DE020E002C202300219D1AB44
:100740009000ACEF1213BB600BA3E0F46006EF3037
:10075000E702C202120849E4FFF1BCA202E433FF3F
:10076000229000C351539000C751B0110AF11EEFFF
:100770006004110F80F7F1E47F03120F1E600990EF
:1007800000C3513B7810D1249000C3D1209000C306
:10079000120F349000CA1208C745F06011D1BC9006
:1007A00000C75190EF11BC9000C8918780E51208F6
:1007B00049E4FF8007EFF0120849E4FFEFB40104B9
:1007C00043FE202253FEDF229000ABE020E014F134
:1007D000E47F3DD1277F2AD1277F80D1277FA6D1F3
:1007E00027F1B7227F01F1BC9000B0E051B9080AAF
:1007F00004081214081715081C17082C3008313487
:10080000083636083B3700000824531AEF851A8053
:10081000802F531BEF8008531BDF8003531B7F8502
:100820001B90801D531CDF851CA08015531DFE806E
:100830000D531DEF8008531DBF8003531D7F851D81
:10084000B07F0CDFFE2212062712149FEF70FA9081
:1008500000B2E0F4600B900A1B7406F01204F27010
:10086000FB9000B0E01202B9088404088C140891CF
:100870001508961708A63008AB3408B03608B53707
:100880000000089E431A10851A80802F431B108099
:1008900008431B208003431B80851B90801D431C45
:1008A00020851CA08015431D01800D431D1080086C
:1008B000431D408003431D80851DB0900A1B740CAE
:1008C000F01204F270FB2274FFF5F0020106E0FD65
:1008D0009000D1E4F0A3EDF09000CCEEF0A3EFF0A7
:1008E000A31202B09000D111C745F060549000CE21
:1008F0001202901200769000D3F09000CF1204877D
:100900007D80ED60DF3141EE7C0030E7027C0190BC
:1009100000D3E05D7B0060027B01EB6CFCEF25E027
:10092000FFEE339000CCF0A3EFF0AF04EF600C903B
:1009300000CCE06410F0A3E06421F0EDC313FD806F
:10094000C19000CCE0FEA3E0FF2275FF03759E027C
:100950009017FAE493900A0FF075FF02E5E654034E
:100960006002618B7510DE7511AD7512BE7513EFE7
:10097000C2AF75FF0275E404F5E4751AFF751BFF3D
:10098000751CFF751DFF7516FF7517FF7518FF7530
:1009900019FF75FF0253E6BFD11A1210DAB11BEF2F
:1009A00064016002618290180893FE740193FF90C5
:1009B000007FEEF0A3EFF0F5828E83E493FE7401E6
:1009C00093FFC3EE9480500280047E807F008E14DB
:1009D0008F15B1F7FFF5828E83740293F51E7403B1
:1009E00093F51F740493F508740593F50974069341
:1009F000F50A740793F50BC201EF4E700241E4EF64
:100A0000F4FFEEF44F700241E4E514451EFEE515D7
:100A1000451FFFE5084EFEE5094FFFE50A4EFEE5DE
:100A20000B4F4E700241E4E51FF4FFE51EF4FEE5B6
:100A300015F4FDE514F44EFEED4FFFE509F4FDE578
:100A400008F44EFEEF4DFFE50BF4FDE50AF44EFE13
:100A5000EF4D4E700241E47F03718EE50B24FFFFE2
:100A6000E50A71BC640370227F02718EE50924FFE0
:100A7000FFE50871BCB402127F01718EE51F24FFEF
:100A8000FFE51E71BCB40102D2012001577F017144
:100A90008E71B59000D1E51EF0E51FF13B71A07F8E
:100AA0000271AB9000D1E508F0E509719E7F0371FA
:100AB000AB9000D1E50AF0E50B719E7F01718E903D
:100AC0000A10E0FEA3E0FF7BFF7A187900E4251509
:100AD0009000D2F0E51434E89000D1719F4EC370BD
:100AE00001D39201300109F1ACEF6401600261822F
:100AF000D20091FB7B017A007964B1D8741BF012AB
:100B00000761900064E0B4800B9153EF70061214FB
:100B100046EF6002C20030006530011AB1F7F5827D
:100B20008E83740C93FE740D93FF90007DE06E70C5
:100B300003A3E06F604890005012025F00001800AD
:100B400091FBF128F12EEF2401B110B1D27404F021
:100B5000120761900087B10A9000871214BC9000C0
:100B600081F14590004F04F012051C7440D3950CA0
:100B7000400C1203C3AF0C12103D050C80EDE4FFD6
:100B8000F186E4F510F511F512F513021800AEFF29
:100B9000EE54CFFEEFC454F024804EF5FF22A3F0B4
:100BA00011D8900A10EEF0A3EFF022718E900A1087
:100BB000E0FEA3E0FF7BFF7A80790022347F8F8202
:100BC000F583E49322900000EEF0A3EFF0A312026D
:100BD0003B900008120253900006E0FFA3E0900053
:100BE0000CCF806090000C121371605EC3EF9440D4
:100BF000EE94004006A37440F0800590000EEFF0E4
:100C0000B1FFE0FFB1D8EFF090000812023B1207ED
:100C10006190000EE0FFC390000DE09FF090000C8B
:100C2000E09400F090000812024790000EE4FCFDF2
:100C3000FE12011C900008120253914AB1FF11CE1E
:100C4000900000EEF0A3EFF0809A900000E0FEA389
:100C5000E0FF2291FBB101900006E4F07405F13B46
:100C600091F0C006C00791FBEF2407B110B10190CD
:100C70000006E4F0A37414F0D007D00691F0C0068B
:100C8000C007B107B101D10940067EFF7FFF800692
:100C900090006512023B900006EEF0A3EFF0D00743
:100CA000D00691F0D109402F91FBEF241AFFE43ECA
:100CB000FEED3401FDE43CFCB10190006512023B05
:100CC000EF2401FFE43E900006F0A3EFF0900A1637
:100CD000E0FEA3E0FF91F0900069E0FEA3E0FF904A
:100CE0000A16E06E7003A3E06F7F0060027FFF22B0
:100CF00071C5900A16EEF0A3EFF0229000A6020252
:100D00003B9000020202539000A612023BEF241B0C
:100D1000FFE43EFEE43DFDE43CFC22E49000AAF04A
:100D20007B017A007995121378900097E0FF741197
:100D3000D39F5077E4FFFEFDFC7B017A0079FE90A3
:100D400000CAF0A37402F01207619000FEE0FEA357
:100D5000E0FFE4FCFDB1CC91FBEF2402B110B1CC7B
:100D60009000B5E024FFFF9000B4E034FFFEE4FC07
:100D7000FD9000A61202471201F79000FCEEF0A3CE
:100D8000EFF09000A61202479000FCE0FEA3E0FF07
:100D9000C39000B5E09FFF9000B4E09EFEE4FCFD30
:100DA00012011CB1CC9000AA7401F09000AAE0FBE3
:100DB0006017E4FFFE7D02FC900097E024EFF9F855
:100DC00012022890008F120253AF03229000A60255
:100DD00002537B017A0079839000CAE4F0A3229148
:100DE000FBEF2401B110B1D27404F0120761B10716
:100DF000F128900081E14590007FE0FEA3E0227B96
:100E0000017A00790F90000E22E47FFF7EFFFDFC47
:100E1000900065120247D3020204E4900A1EF0908B
:100E20000A1EE0FFD3946F501EEF2410FFF198903C
:100E30000A1EE0FEE42EF582E4344FF583EFF090D5
:100E40000A1EE004F080D87B017A4F79009000D12F
:100E5000E4F0A37470F07F0F7E1D11D8EF4E7F0079
:100E600070027F01901218EFF024FF22900A09EB24
:100E7000F0900A05120253900A0512023BD1C3906A
:100E80000A09E06F603B12000A12071EEF600512AC
:100E9000000F80F5F105600B900A0512023B7810F7
:100EA000120624900A05120620900A05F134900AD1
:100EB00009E0FF1206271207B79000AF7401F0D3C4
:100EC00022C322900A0012025312000A12071EEFD8
:100ED000600512000F80F51207E47F03F11E600B1E
:100EE000900A0012023B7810120624900A001206A3
:100EF00020900A00F1341206BC900A041207B59043
:100F00000A04E0FF227F011207BCD2021207E87F29
:100F10000612062711491207E89000AEE0FF1206FC
:100F2000279000B1E06402229000870202539000F3
:100F30008702023B12023BE4020627A3F07F0F7EEA
:100F40001D22900A187408F0A3E4F022F1429000E8
:100F5000F312025F00000000E4902004F0A3F0A36D
:100F6000F0A3F07B017A2079089020011202B0E40E
:100F7000902000F0227F0F7E1D11D09000D8120229
:100F8000909000DB01CEAB07E4FF9000AAE0600781
:100F9000F1D8D16CE433FF2275FF03E4F59712100A
:100FA00021E59720E1FB75FF03AF9922E4900A1A2F
:100FB000F09000AAE0601B90008F12023BE4FBFA65
:100FC0007902F8D31202045009F1D8D1C3900A1A59
:100FD000EFF0900A1AE0FF229000A612023BEF24E5
:100FE000FFFFEE34FFFEED34FFFDEC34FFFC22E4A6
:100FF000FCFDC1C31207E87F05020627E4FFFEFDE2
:10100000FC900083120E137F0040027F012275FFC7
:10101000037597011121E59720E1FB75FF03AF9957
:101020002275FF038F9875FF0322113675FF03E5C4
:10103000D5F45402FF2275FF0375D4022275FF0315
:10104000EF543F4480F5D1E5D520E20AE5D520E014
:1010500005E5D530E1F1E5D55403FF75FF0375D5FE
:101060000580D375FF03ACD5EC20E13C75FF03EDA3
:10107000543FF5D175FF03E9F5D375FF03EA540F2B
:10108000FF9000FBE0C4547044804FF5D2E5D520BA
:10109000E205E5D530E0F6E5D55401FC75FF0343E4
:1010A000D40275FF0375D505AF042212000A12079A
:1010B0001EEF600512000F80F57F011207BCD202FF
:1010C0001207E87F061208461207E87F011206277A
:1010D0007F03120846E4FF0207BC7B017A0079B067
:1010E0007F0351E47A0079B97F0851E47A0079B638
:1010F0007D027F0951847B017A0079B47D027F0BE8
:1011000051849000B471716006BEFF16BFFF135189
:10111000F35002800451FC80099000B4E4F0A37401
:1011200040F051F3500280089000B17403F0800643
:101130009000B17402F09000B0E01202B9115904AD
:10114000116414116C15117417118A301192341135
:101150009A3611A2370000117F75FF015316EF85F3
:1011600016FD804775FF015317EF800E75FF015381
:1011700017DF800675FF0153177F8517C9802C750F
:10118000FF015318DF8518CA802175FF015319FE2E
:10119000801675FF015319EF800E75FF015319BFBB
:1011A000800675FF0153197F8519CB1208497F11FD
:1011B00051DEE4FF710612062F9000AE7402F0902B
:1011C00000B2E0247F600904701651EB740A8007B6
:1011D0001207C851EB7458F09000B17403F051FC41
:1011E0009000B3E0F4600241829000B6E0FEA3E01C
:1011F000FF64104E70069000B3740EF0EF64204E42
:1012000070069000B3740FF0EF64404E70069000CB
:10121000B37410F0EF64804E70069000B37411F058
:10122000E4B5070AEEB401069000B37412F0E4B519
:10123000070AEEB402069000B37413F0E4B5070A8F
:10124000EEB404069000B37414F0E4B5070AEEB4EB
:1012500008069000B37415F0E4B5070AEEB4100662
:101260009000B37416F0E4B5070AEEB420069000BF
:10127000B37417F0E4B5070AEEB440069000B374F7
:1012800018F001AB900A0AEFF0A3EDF0A31202B040
:10129000900A0BE06047901218E06013900A0AE091
:1012A0002410FF120F98900A0C120290EF801790F2
:1012B0000A0AE06401900A0C7007120290748080A0
:1012C0000512029074FF1200BC900A0D1204879060
:1012D0000A0BE014F0900A0AE004F080B322EF4415
:1012E00020F5FE227D0151847B01227F1051DE908A
:1012F00000AE229000B9E024FE24FD229000B474D8
:1013000001F0A3E4F022900A14EFF0E4A3F09000BF
:10131000B9E0FFB40209740F716974B9F0800CEF81
:1013200064047044743D71697479F01207E4900AA2
:1013300014E060079000B8E0FF80027FAB12062740
:10134000120849900A14E09000B8F07016900A153F
:10135000E0D39400400D7FFF120627900A15E01499
:10136000F080EAE4FF1207BC22900A15F09000B862
:1013700022E0FEA3E0FF4E229000ADE01200BC9000
:1013800000B2E09000011200CE9000B3E0900002A5
:101390000200CEAB05E4FCFD020E6C9000ED1202E3
:1013A000B0E4FCFDC0079000ED1202909000F0E068
:1013B000FF120DD8EFF0D007020761F09000ABE00C
:1013C000FFF42212000A12071EEF600512000F80C0
:1013D000F5229000AFE0FF22E49000AFF0229012DF
:1013E00018E024FF22901218E060057F10020F9889
:1013F0007FFF22902004E0FEA3E0FF24089116FD69
:10140000EF2401FFE43E541F902004F0A3EFF0A36B
:1014100012044DAF0522F58274203EF583E0229040
:101420002006E0FEA3E0FF22902000E0045403F039
:101430007F0033333354F8FEEF2408F974203EFA6A
:101440007B01A30202B0900054741DF0A3740FF04E
:10145000120DDFE490004FF012051C90006BE0FECF
:10146000A3E0FF900054E06E7003A3E06F7F006084
:10147000027FFF22EFB40109D2AD75FF0143AE40F8
:1014800022C2AD75FF0153AEBF221206C89000DC28
:10149000E4F0A3EFF022E5C85402FF75C80222E58C
:1014A000C85404FF22E5C85401FF22900A18E0FE48
:1014B000A3E0FFC3E49FFF74089EFE22120253E4E0
:1014C000FB7A08F9F890005012023B1201658F0C6C
:0114D00022F9
:1017FA00060AFFFCFFFF02268319F319F8017FB8D6
:10180A00EF90181393901900730A20364CE553FF92
:10181A0022EFF553225A2D5761766520362E313044
:10182A000002515C000E0D44000E1064000E15DC1F
:10183A00020202063F3F3F04040440404005320FC3
:10184A00A00252FF4C4948A04A4458051BBF1BC975
:10185A0022022FFFC2D5E830E70FB2D5E4C39BFBC3
:10186A00E49AFAE499F9E498F8EC30E717B2D51259
:10187A0018941221CFE4C39BFBE49AFAE499F9E4A1
:10188A0098F880031221CF30D50DE4C39FFFE49E60
:10189A00FEE49DFDE49CFC227890E4F6D8FD9000DD
:1018AA00007F007E10E4F0A3DFFCDEFA902F9DA3F8
:1018BA00E583C394204011FEAF829020000E0FE40E
:1018CA008002F0A3DFFCDEFA1219200226952232EA
:1018DA001CBE1CC81CCD1CD21CD71CDC1CE61CF070
:1018EA001CF51D131D18822D1C1613111010000350
:1018FA000102060405FFC0537419C0E0C082C08308
:10190A0075530AE5FF54CF4490F5FF22C05374196A
:10191A00C0E0C082C083755320E5FF54CF4490F5E0
:10192A00FF22C0537419C0E0C082C083755336E5E4
:10193A00FF54CF44A0F5FF22C0537419C0E0C082FF
:10194A00C08375534CE5FF54CF44B0F5FF22908015
:10195A0004211690989C211690894E21169098A7DA
:10196A002116908014211690A01F211690A02621DE
:10197A001690A46A211690A951211690891A211647
:10198A009098CD211690AAF6211690A515211690A9
:10199A00A0D0211690A59C211690ABF1211690AFEC
:1019AA005F211690AEC3211690AEE9211690B2605F
:1019BA00211690B2E521169097D621169088A92172
:1019CA001690B713211690BCC6211690C001211695
:1019DA0090C02B2116908992211690A4432116902B
:1019EA0087CD211690BAB4211690CFB5211690BB97
:1019FA0015211690D0C2211690BD7D211690D27065
:101A0A00211690AF67211690AD72211690A43E213F
:101A1A001690D4D8211690D4DB211690CC91211699
:101A2A0090D54E211690C6BE211690C32F2116902E
:101A3A00C26B211690CF80211690C3DA21169088A6
:101A4A00EB211690C685211690D68E211690D71BAB
:101A5A00211690C290211690CA43211690D4AF2124
:101A6A001690CA73211690D71E211690D7542116A4
:101A7A0090CF30211690CE97211690C4F42116905B
:101A8A00C4FA211690CF65211690CF20211690878F
:101A9A008E211690D7CB211690D829211690D8EFEF
:101AAA00211690D8E4211690D8E6211690D8FC2168
:101ABA001690C7EC211690D251211690C86A2116A9
:101ACA0090C948211690CA7A211690A03121169001
:101ADA008A0E211690B6AF211690BF8A211690D988
:101AEA00902116908523211690DA5E211690CC2E2D
:101AFA00211690C4E4211690DB0B211690B30E2117
:101B0A001690DAE4211690A6B8211690B07C211618
:101B1A0090C63C211690B168211690CF3A211690B2
:101B2A00CCBD211690CF4F211690D9A6211690DB55
:101B3A003F211690C388211690DB42211690D75177
:101B4A00211690DB7B211690A3D4211690D5D6219D
:101B5A001690D5A5211690D576211690BFCD2116BF
:101B6A0090BF49211690CDDC211690D1A52116905F
:101B7A0096BD211690DBDA2116909E13211690DE6F
:101B8A0011211690997A211690D165211690D1D9F2
:101B9A00211690D130211690DEC4211690AB1D215A
:101BAA001690DEE6211690DF1A211690E01721160C
:101BBA0090DF6E211690B0FB2116908017211690A7
:101BCA008369211690E08821169099052116908143
:101BDA0013211690E09C211690E0D92116908339A2
:101BEA00211690E0CE211690E0DD211690B417213F
:061BFA004290B9D0214227
:101C000090B866214290BA8A214290BFA4214290A6
:101C1000B331214290BD17214290C024214290C08F
:101C20002B214290C06A214290C070214290AEE0C8
:101C3000214290B08E214290AFE4214290A9A72189
:101C40004290C0BE214290AA22214290AA61214224
:101C500090C173214290C174214290BA7821429080
:101C60009068214290C1D0214290C20A21429092B4
:101C7000FA214290A8A8214290927421429085DDD9
:101C8000214290BBEE214290C285214290C2862122
:101C90004290C29E214290C2E5214290C34C214213
:101CA000908000214290C508214290C51B2142909E
:101CB000C54E214290BD7D214290C55A214290AB34
:101CC000B4214290B023214290C55D214290A71AD1
:101CD000214290A6EA214290C591214290A4C721B9
:101CE0004290C578214290C040214290A45F214299
:101CF00090A788214290C59F214290AFF021429049
:101D0000BD83214290A08A214290B034214290C6E6
:101D100001214290C663214290A158214290A360C4
:101D2000214290A699214290C6C4214290C65621D4
:101D30004290BC39214290C6EF214290B5E3214246
:101D400090C71E214290C73F214290C76D2142900B
:101D5000B774214290BB7F214290A0A7212C90A074
:101D6000B1212C90A10D212C90A117212C90A12301
:101D7000212C90A13C212C90A14E212C90A15821E6
:101D80002C909BD2212C90A179212C90A183212CE5
:101D900090A200212C90A273212C90A27D212C9046
:101DA000A2DE212C90A2E8212C90A2F2212C90A35B
:101DB00059212C90A36C212C909D70212C909F1662
:101DC000212C90A3BD212C9084A4212C90A495219A
:101DD0002C90A496212C908000212C90A4D4212C0E
:101DE0009099DE212C909CD8212C90995E212C90EA
:101DF000A504212C00E709F608DFFA8046E709F27E
:101E000008DFFA803E88828C83E709F0A3DFFA803E
:101E100032E309F608DFFA8078E309F208DFFA8096
:101E20007088828C83E309F0A3DFFA806489828A58
:101E300083E0A3F608DFFA805889828A83E0A3F260
:101E400008DFFA804C80D280FA80C680D480698016
:101E5000F28033801080A680EA809A80A880DA80A1
:101E6000E280CA803389828A83ECFAE493A3C8C5EE
:101E700082C8CCC583CCF0A3C8C582C8CCC583CCEE
:101E8000DFE9DEE7800D89828A83E493A3F608DF29
:101E9000F9ECFAA9F0EDFB2289828A83ECFAE0A33F
:101EA000C8C582C8CCC583CCF0A3C8C582C8CCC580
:101EB00083CCDFEADEE880DB89828A83E493A3F2C5
:101EC00008DFF980CC88F0EF60010E4E60C388F027
:101ED000ED2402B4040050B9F582EB2402B40400EE
:101EE00050AF2323458223901E4573BB0106898290
:101EF0008A83E0225002E722BBFE02E32289828A23
:101F000083E49322BB010B89828A83F8E0C828F01E
:101F1000E822500327C722BBFE07F8E3C828F3E8EE
:101F2000228A838982E49322BB010CE58229F5820F
:101F3000E5833AF583E0225006E92582F8E622BBE4
:101F4000FE06E92582F8E222E58229F582E5833A58
:101F5000F583E49322BB010989828A83F8E028F0A3
:101F600022500327F722BBFE05F8E328F3228A83D9
:101F70008982F8E4932822BB010FF8E58229F582D3
:101F8000E5833AF583E028F0225009C58229F8E577
:101F90008226F622BBFE09C58229F8E22582F222BA
:101FA000F8EA2583F583E9932822BB010689828A12
:101FB00083F0225002F722BBFE01F322F8BB010D91
:101FC000E58229F582E5833AF583E8F0225006E9B7
:101FD0002582C8F622BBFE05E92582C8F222EF8DD4
:101FE000F0A4A8F0CF8CF0A428CE8DF0A42EFE2271
:101FF000BC000BBE0029EF8DF084FFADF022E4CCD5
:10200000F875F008EF2FFFEE33FEEC33FCEE9DEC9D
:10201000984005FCEE9DFE0FD5F0E9E4CEFD22EDE3
:10202000F8F5F0EE8420D21CFEADF075F008EF2F2D
:10203000FFED33FD4007985006D5F0F222C398FD1E
:102040000FD5F0EA22C2D5EC30E709B2D5E4C39D42
:10205000FDE49CFCEE30E715B2D5E4C39FFFE49E9F
:10206000FE121FF0C3E49DFDE49CFC8003121FF0F0
:1020700030D507C3E49FFFE49EFE22C5F0F8A3E03D
:1020800028F0C5F0F8E582158270021583E038F07B
:1020900022A3F8E0C5F025F0F0E582158270021564
:1020A00083E0C838F0E822BB010A89828A83E0F520
:1020B000F0A3E022500687F009E71922BBFE07E3F0
:1020C000F5F009E3192289828A83E493F5F074011B
:1020D0009322BB010789828A8302207B500B09C5AA
:1020E000F027F7C5F01937F722BBFE0D09F8E325F5
:1020F000F0F3C5F019E338F322F889828A8374017A
:102100009325F0C5F0F8E4933822BB010A89828A4E
:1021100083F0E5F0A3F0225006F709A7F01922BBDF
:10212000FE06F3E5F009F31922EF2BFFEE3AFEED80
:1021300039FDEC38FC22C3EF9BFFEE9AFEED99FDD2
:10214000EC98FC22E88FF0A4CC8BF0A42CFCE98E58
:10215000F0A42CFC8AF0EDA42CFCEA8EF0A4CDA80F
:10216000F08BF0A42DCC3825F0FDE98FF0A42CCD18
:1021700035F0FCEB8EF0A4FEA9F0EB8FF0A4CFC5F8
:10218000F02ECD39FEE43CFCEAA42DCE35F0FDE482
:102190003CFC2275F008758200EF2FFFEE33FECD78
:1021A00033CDCC33CCC58233C5829BED9AEC99E517
:1021B0008298400CF582EE9BFEED9AFDEC99FC0FA7
:1021C000D5F0D6E4CEFBE4CDFAE4CCF9A88222B86F
:1021D00000C1B90059BA002DEC8BF084CFCECDFCF4
:1021E000E5F0CBF97818EF2FFFEE33FEED33FDEC81
:1021F00033FCEB33FB10D703994004EB99FB0FD86A
:10220000E5E4F9FA227818EF2FFFEE33FEED33FD07
:10221000EC33FCC933C910D7059BE99A4007EC9B06
:10222000FCE99AF90FD8E0E4C9FAE4CCFB2275F096
:1022300010EF2FFFEE33FEED33FDCC33CCC833C8A7
:1022400010D7079BEC9AE899400AED9BFDEC9AFCAD
:10225000E899F80FD5F0DAE4CDFBE4CCFAE4C8F95C
:1022600022EF5BFFEE5AFEED59FDEC58FC22C3E471
:102270009FFFE49EFEE49DFDE49CFC22EB9FF5F0B5
:10228000EA9E42F0E99D42F0EC6480C86480984583
:10229000F022EB9FF5F0EA9E42F0E99D42F0E89CC7
:1022A00045F022E8600FECC313FCED13FDEE13FEC6
:1022B000EF13FFD8F122E8600FEFC333FFEE33FED8
:1022C000ED33FDEC33FCD8F122BB010789828A8310
:1022D00002230B5005E9F80224C3BBFE05E9F8020E
:1022E00024CF22E0FCA3E0FDA3E0FEA3E0FF22E474
:1022F00093FC740193FD740293FE740393FF22E038
:10230000F8A3E0F9A3E0FAA3E0FB22ECF0A3EDF0E0
:10231000A3EEF0A3EFF022A8828583F0D083D082D1
:1023200012232E12232E12232E12232EE473E49353
:10233000A3C583C5F0C583C8C582C8F0A3C583C53E
:10234000F0C583C8C582C822A42582F582E5F03590
:1023500083F58322E0FBA3E0FAA3E0F922EBF0A3EC
:10236000EAF0A3E9F022E493FB740193FA74029378
:10237000F922BB010789828A830223545005E9F8B8
:102380000224DBBBFE05E9F80224ED89828A830280
:102390002366BB011A89828A83D0F0D0E0F8D0E0AE
:1023A000F9D0E0FAD0E0FBE8C0E0C0F002235D50D5
:1023B00016E9F8D083D082D0E0F9D0E0FAD0E0FB83
:1023C000C082C0830224E4BBFE16E9F8D083D08229
:1023D000D0E0F9D0E0FAD0E0FBC082C0830224F65E
:1023E00022BB010DE58229F582E5833AF5830223BC
:1023F000545007E92582F80224DBBBFE07E9258259
:10240000F80224EDE58229F582E5833AF58302237B
:1024100066BB0120E58229F582E5833AF583D0F099
:10242000D0E0F8D0E0F9D0E0FAD0E0FBE8C0E0C0BE
:10243000F002235D5018E92582F8D083D082D0E0E5
:10244000F9D0E0FAD0E0FBC082C0830224E4BBFEF6
:1024500018E92582F8D083D082D0E0F9D0E0FAD014
:10246000E0FBC082C0830224F622D083D082F8E44D
:10247000937012740193700DA3A393F8740193F5F4
:10248000828883E4737402936860EFA3A3A380DF60
:102490008A838982E473EC8EF0A4CCC5F0CCCDF8AD
:1024A000EFA4CEC5F02DFDE43CFCE8A42EC8C5F099
:1024B0003DFDE43CFCEFA4FFE5F028FEE43DFDE437
:1024C0003CFC22ECF608EDF608EEF608EFF622ECFE
:1024D000F208EDF208EEF208EFF222E6FB08E6FA67
:1024E00008E6F922EBF608EAF608E9F622E2FB082C
:1024F000E2FA08E2F922EBF208EAF208E9F22241F4
:10250000093700C12BC12E41093600E0020200004C
:1025100031A0E002020002294AE00402000446520F
:102520004545E00102001554E001020016A5E00156
:1025300002200528E001022918FFE00102294600D7
:10254000E005022947294A02060A41041C06013611
:102550000041041B0141041901C137013B0001394D
:1025600000C14A412BBE00412BB300412BBC0041AE
:102570002BBD00412BBAFF412BF30041284C0041F9
:1025800027ED055D2B0800000000000000000000A2
:10259000000000000000000000000000000000003B
:1025A000000000C13D41271100C10EC132011800D9
:1025B000C12FC130412F8F00C15E432B5900000055
:1025C000412B5800412B5C00412D1BFFC133C1350D
:1025D000C140412B8000015200C124412B720041B7
:1025E0002B7F00602825F6060A000000030008FE85
:1025F000877F88CF7FC04FFBD7FDE0670080800CCE
:102600008082000100E87300800F0000600000413C
:102610002164004121760041216700412161004190
:102620002169014121620141239A00C142C1434114
:10263000285D964128590FE00202294C0039E00537
:10264000022980003904060AE0020229850807E011
:1026500005023187080705060AE00202318C0013E3
:10266000E00C02318E0000030800030008060A0691
:102670000AE00502319A0013FF060AE00202319FC8
:1026800000000075819075FF03759E0212192002EB
:102690003CC00218D89024FFE47E019360F4A3FFAD
:1026A000543F30E509541FFEE493A360010ECF545C
:1026B000E0B4E00EEFFAEEF9A3A3A3A3DAFDD9FB91
:1026C00080D654C025E0604B5026E493A3F854070D
:1026D000240CC8C333C4540F4420C8834004F456A8
:1026E000800146F6DFE480B001020408102040803B
:1026F000E493A3FAE493A3F8E493A3C8C582C8CAF9
:10270000C583CAF0A3C8C582C8CAC583CADFE9DECB
:10271000E78085E493A3F8E493A34003F68001F2F5
:1027200008DFF402269809040000020A00000007EE
:1027300005820220000007050202200000090401B2
:10274000000102020100052400100105240100011E
:102750000424020005240600010705810308002067
:102760001D591D5E1D631D681D6D1D721D771D7C2D
:102770001D811D861D8B1D901D951D9A1D9F1DA4DD
:102780001DA91DAE1DB31DB81DBD1DC2000000005A
:1027900000001201000202000008580600020000BA
:1027A000000000010902000000010080320403045F
:1027B00009A280CACF0998445CAD550641469503ED
:1027C000861C050000000000050000060000001047
:1027D00000002428800000242080000011382100FF
:1027E000004428800000442080000034382100008C
:1027F0003F241E16110E0B09070504030201F0C841
:10280000A7917767604638353230242220140001C2
:10281000010202030304040505060607071A2A1A23
:102820002F1A341A391A3E1A4D1A521A611A6B1A93
:10283000C51ACA1ACF1ADE1AE81AFC1B011B061B9E
:102840001A1B1F1B561B5B1B601C501C821C8728FD
:10285000C357C41B7E62C4E4FD7C0CAB050DEB903A
:10286000181F938F828E83F00FBF00010EDCEC7F68
:1028700002228F828E83E4F0A374061194740A11ED
:1028800094A3E4F0EF2404F582E43EF583E4F0A39E
:10289000746DF022F08F828E83A3A322902F72EFAB
:1028A000F0902BF5E0B40110C2ED7A2F7972902CE4
:1028B0009011B9121C2DD2ED227B0112235D7A2BCF
:1028C00079F622902BF5E0640170287B017A2B7950
:1028D000F6121C37EF701C902F73F0C2ED7A2F792F
:1028E00073902C7111B9121C32D2ED902F73E0FF4E
:1028F000121C00227A1C7B0512B998902BF57401EA
:10290000F0FB311E7E287FC390093FE0FCA3E04C22
:10291000700A90093FEEF0A3EFF0D322C3227A2B86
:1029200079FE902D3712235D902D3A7401F0A37437
:1029300005F07A2B79F6021C287F013149902BF59E
:10294000E0B401047B01311E22EF600D123F6CAF39
:1029500082AE83E4FDB1A88010302B037F002212E9
:102960001BEC124E66E433FF227F01229005141205
:10297000235DD247C2EBE53660026157E53730E2AE
:1029800002C3227160E924EC126578125739A2ED76
:102990009236C2ED91CA1220A7546060337160E98B
:1029A0002403716F20E129902DC7E0640460219019
:1029B0002DC6740FF07160902DC312235D12412259
:1029C000F1F1902DC77405F07176A23692EDD32205
:1029D0007160121EEB540FFFBF0111E924ED716FFE
:1029E000700A90121AE0900517F0800A7160121CAC
:1029F000AA900517EFF0E53720E058B1A040047F1A
:102A00000131499005177A057918D176E433715F61
:102A1000E924ED12668F121F55EF70028031900588
:102A200017E0FF126622E0FE900518E0D39E4004F6
:102A3000B191C3227166FD71601255D7900518EFF0
:102A4000F0E0FF7006D2EBD21C613EEFB40204D27C
:102A5000EB613E91CA1220A75460600F7160E924B7
:102A600003716F20E105E4902DC7F0B1A05004C2BE
:102A700051D131124E5AE5D120E0FBE4F5307160BE
:102A8000E92408F9E43ACFE9CFF5318F327160E9F2
:102A900024B1716FF538AE311262177160E924B15B
:102AA000716F715FE924E1716F2FFFE433FEEF2452
:102AB00001FFE43EFE7166D3124F9450057401127B
:102AC0001F557160E924B2F9E43A8B40F54189421F
:102AD0007160E924E1716FF54391CA1220A7540790
:102AE00090041BF07536087160E924B2F9E43AFAF3
:102AF00012620B7160E924E1716FFFAD381262332D
:102B00007B01E4FDFF1261ADE4F5FFE5D2548044A2
:102B10000CF5D2900517E0FF71662418FBE433FA38
:102B20007D0312567E91CA1220A7FFAEF0A24792F3
:102B300046900517E0900AB6F0124EA94006A2365C
:102B400092EDC322900517E0715FE924F191DFA2B5
:102B50003692EDD2EBD322A23692EDD2EBC322FF16
:102B6000900514022354900514122354E924B9F952
:102B7000E43AFA021EEB902DC7E024FC7002818A31
:102B80001470028183147002817314700281A9246D
:102B900006600281C3E536600281C3C2EB91C412B4
:102BA0001CAA902F3AEFF0E53730E0028170F1EB8C
:102BB00060047F013149902F3A7A2F793BD17640DA
:102BC00004D2EB81E7902F3AE0126622E0FF902FCB
:102BD0003BE0D39F4002A191902DC6E0640F702589
:102BE000902F3AE0FF902DC37169FD91C41255D723
:102BF000902F3BEFF0E0FF7005D2EBD21C22EFB438
:102C00000203D2EB22124FAA91C4E924E2716FFFB2
:102C1000902DC391CD1220A7FDACF0E4FB125552CC
:102C2000C246902F3AE0900AB6F0E4FFFE124EA999
:102C3000503BD2EB902DC77402F01255737E00E426
:102C4000FCFD7BD07A127913F81221441249B2129A
:102C5000185EAB07AA06902F3AE0FF7D0312567E5E
:102C60007E577FC47D147C00121C648003D2EB224B
:102C7000D2EB22E53720E52AE53730E0257F013128
:102C800049801F902DC77401F02291C4E924EF718F
:102C90006F600774FF121F557008121C5A91C4020E
:102CA0001BF1902DC77403F022125522D21C91C43F
:102CB000F1F1124122902DC312235DE4902DC7F053
:102CC000121C7D22902DC30223549005141223540C
:102CD000E92404F9E43AFA22FF122354E92402F920
:102CE000E43AFAEF021FAAC3900423E094FF900491
:102CF00022E094FF5007E475F00112207B22902C13
:102D000035125C557F02121BD3902C3E12235DEAD4
:102D1000494B606B902C36E0FFB18224B691DFE422
:102D20009003F8F09003E6122354126286B18224D5
:102D3000EF91DF6010902C35E04442F0B18224E244
:102D4000B18A121FAA902C37E0FF30E11FB1822414
:102D5000BBB18A121FAAEF54FC902C37F0FE902CC6
:102D6000ADE054FDF01265067D01800D902C37E03A
:102D700054FEF0FE1265067D02121C6E7F01227F5A
:102D80000022902C3E122354E922F9E43AFA74FF0F
:102D900022D2EB91E7D21C22C2EBA2ED9236C2ED19
:102DA000E5F4C330E701D3229004CFEEF0A312651F
:102DB0006AE536707BB1985004C251D1319004CF8E
:102DC000E0FEA3E08E31F532A312235490041D12CD
:102DD000235DAE31AF327DAA1261E1E4F5FF75D912
:102DE00008F530E5375421602BE53730E504E4FF82
:102DF000F146E49004D4F09004D4E004F0125E03B1
:102E0000EF60099004D4E0C3941040EB7F02121DE0
:102E1000EF5337DE124E1B124E505005E004FF8078
:102E2000027F00124E99D251D131D2EBA23692EDEF
:102E300022902F76E5F4F0E0547FF5F47F827E0057
:102E400012594CF100F1955005E5FC20E6F73051A0
:102E500008902F76E04480F5F4D1F9F1955005E51E
:102E6000FC20E6F775FF01E5D520E702C322E5F473
:102E7000D330E601C322E0FF7B01902E95EFF0A353
:102E800012475D75FF01F1EB6002C322E5F430E605
:102E900002C3227FE87E03F1CEF100F17F400122E0
:102EA000C251D131902E95E0FFF14653F4DFD2515B
:102EB000D1317F787E00F10775FF0153E4BFE5E46F
:102EC00030E7FB124E067F8AF1F730E609902E9626
:102ED0001246E0E4800B75FF01902E961246E0E565
:102EE000D9121FAA75FF0143E4401247A4400343CF
:102EF000F420F17F400122D3227FE87E0312594C57
:102F000075FF0343918022CDEFCDCCEECCF162ABC7
:102F100094EF4B125C4ACBEFCBFAE59130E719F115
:102F200065A994E9F582EF4582FFEB1266EDC3EFE8
:102F30009582E5F0958340E2E59120E708CEECCE5E
:102F4000CFEDCFF1722275FF01E5D530E602C32245
:102F5000E4F5FF439A80EF1247ACE4F5FF539A7F04
:102F6000D32275FF03AF93EF75F010A4FF227F14F7
:102F70007E00F1CEF10075FF03E59120E7FB22E52D
:102F8000F730E50FE5F754C07004F19540F11247B2
:102F90008EC322D32275FF03E591C330E701D3220C
:102FA0007FFA7E00F1CEF100E5FC30E604F19540B9
:102FB000F7E5FC30E6037F032275FF01E5D530E637
:102FC000037F0222E5D57F0030E7027F012275FFF3
:102FD00003D3EF9402EE9400400874FE2FFF74FFB9
:102FE0003EFEEFF592EE540FF59122F1A0EF640151
:102FF00022902B5902235DFEF10790120FE022C0B0
:10300000E0C0F0C083C082C0D075D000C000C00155
:10301000C002C003C004C005C006C007902F74E5FD
:10302000FFF075FF02E5D430E60C75D440902DBC5E
:10303000316A6002F1B175FF02E5D430E50C75D458
:1030400020902DBE316A6002F1B175FF02E5D430E7
:10305000E40A75D410316760031266A975FF02E5B2
:10306000D430E30C75D408902DBC316A6002F1BAFB
:1030700075FF02E5D430E20C75D404902DBE316AA0
:103080006002F1BA75FF02E5D430E11875D402127E
:103090003C70EF600F316760051266A08006123C3D
:1030A0003E123C6875FF02E5D430E01075D4013162
:1030B0006760098F828E837F0712249475FF02E573
:1030C000D530E41075D510316760098F828E837F0B
:1030D0000312249475FF02E5D530E10A75D502315B
:1030E0006760031265A075FF02E5D530E01075D565
:1030F00001316760098F828E837F0412249475FFEB
:1031000002E5D530E21075D504316760098F828EF3
:10311000837F0A12249475FF02E5D530E71075D538
:1031200080316760098F828E837F0812249475FF37
:1031300002E5D530E61075D540316760098F828E83
:10314000837F09122494902F74E0F5FFD007D006F6
:10315000D005D004D003D002D001D000D0D0D0828E
:10316000D083D0F0D0E032902DC0E0FEA3E0FF4E3F
:1031700022902C0312230B902C0712235D902C031A
:103180001222E3902BF0E024FFFD902BEFE034FFC0
:103190005EFEED5FFF902C0CEEF0A3EFF04E605C56
:1031A000902C0C1265BDFE902C0CF0A3EFF0902C2F
:1031B0000AF19A9FEC9E5006A3ECF0A3EDF0519516
:1031C000123A716026F14EC004C005C006C0075116
:1031D00095E94A6004F14080027F007E005195F13C
:1031E000CDD007D006D005D00451CF516EE94A604A
:1031F00005F1A1FF806B7E007F008065902C0A3175
:103200006A6069902BEFF19AEF9DEE9C400A902C3A
:103210000CECF0A3EDF0800D902C0AE0FFA3E0A3EE
:10322000CFF0A3EFF05195123A716026F14EC00431
:10323000C005C006C0075195E94A6004F14080020C
:103240007F007E005195F1CDD007D006D005D00487
:1032500051CF516EE94A6005F1A1FF80047E007FE5
:1032600000902C08EE8FF012207B8090D322902CBF
:103270000CE0FEA3E0FFC3902C0BE09FF0902C0A23
:10328000E09EF0902C031222FFE4FCFD1221299015
:103290002C0312230B902C07022354EFF4045FFF3E
:1032A000E4FEEF70037FFF22EFD3940F4009EFC4D9
:1032B000540FFFEE4404FEEFD39403400AEF1313C0
:1032C000543FFFEE4402FEEF30E1010EAF062290C4
:1032D0002CBE12230B902CC212235DD1A071DAEF09
:1032E0006004D1AF80F7D100600A902CBE1222E3B7
:1032F00078107139902CBE7134902CBE1222E3E408
:103300008025902CC5F1C36022902CC2122354E971
:103310004A6012121EEBFF713D902CC3E475F00160
:1033200012207B80DDE4FF713D80D7B142902BEA13
:103330007401F0221222E378081222A3E4E5C820E7
:10334000E2FB8FEB227F01B146902F787401F09061
:103350002F78E0602EF13171CE902F78EFF0911B35
:1033600071BD902BE7EFF0911B902F78E05401F1A5
:10337000A960DCA3E0F460D7EF30E7D3E4902F78C6
:10338000F080CC91E17F9F713D71CE902BE871CCA4
:10339000902BED71CC902BEEB140902BE6E0F460D9
:1033A0001BA3E0F46016902BEDE0FD541F240FA347
:1033B000F0EDC41354074480902BEDF02291E17F8F
:1033C000D7713D7FFF713D71D2902BE6EFF07FFF0B
:1033D000713DE5C820E2FBAFEB227F01B1463052E0
:1033E00014F13171CE902F79EFF0911B902F79E08D
:1033F00020E002C25230521771BD902BE7EFF1A9C5
:10340000600BA3E0F46006EF30E702C252911BE4C8
:10341000FFB146A252E433FF22713DF1E7EF70FBAA
:10342000902BEDE0F4600A902F777406F0F186702F
:10343000FC902BEBE012246A345404345C143461A5
:1034400015346617347630347B343480363485371F
:103450000000346E431410851480802F43151080B3
:10346000084315208003431580851590801D431661
:10347000208516A08015431701800D431710800882
:1034800043174080034317808517B0902F77740C43
:10349000F0F18670FC22902E3C12230B902E3C12F1
:1034A00022E3B152902E40E06F6034D1A071DAEF88
:1034B0006004D1AF80F7D100600A902E3C1222E365
:1034C00078107139902E3C7134902E3CF12B902E57
:1034D00040E0FF713DB142902BEA7401F0D322C36A
:1034E00022902BEBE012246A350404350C143511BC
:1034F00015351617352630352B34353036353537FA
:103500000000351E5314EF851480802F5315EF8073
:10351000085315DF800353157F851590801D5316C2
:10352000DF8516A080155317FE800D5317EF800816
:103530005317BF800353177F8517B07F0CDFFE2220
:10354000EFF0911BE4FFEFB4010443FE202253FE91
:10355000DF22902E3712230BD1A071DAEF6004D155
:10356000AF80F7F137D115600A902E371222E37839
:10357000107139902E377134902E37F12B71CE9017
:103580002E3BB140902E3BE0FF22D1A071DAEF60DC
:1035900004D1AF80F77F01B146D25291E17F06910D
:1035A0001991E17F01713D7F039119E4FF809790AC
:1035B0002CC712230B902CCB12235DD1A071DAEF14
:1035C0006004D1AF80F7F137D115600A902CC71293
:1035D00022E378107139902CC77134902CC7F12BED
:1035E000902CCEF1C3601371CE902CCBF1EE902CC9
:1035F000CCE475F00112207B80E6911BE4FFA1462C
:103600007F01B146D25291E17F06713D911B91E15C
:10361000902BE9E0FF713D902BECE0640222902BAF
:10362000E6E020E0187F01B14691E17F3D713D7FEA
:103630002A713D7F80713D7FA6713DB14222902F5E
:103640003EEFF0E4A3F0902BF4E0FFB40209740F16
:10365000F17E74B9F0800CEF64047043743DF17E28
:103660007479F07F01B14691E1902F3EE0600790C0
:103670002BF3E0FF80027FAB713D911B902F3EE06A
:10368000902BF3F07015902F3FE0D39400400C7F07
:10369000FF713D902F3FE014F080EBE4FFB1462234
:1036A00075FF02E5E430E10675E40675E40322E502
:1036B0003730E20FE53720E50AE53730E0057F01D6
:1036C00012294922AB07AA06EB241FFFE43AFEEFBA
:1036D0007805CEC313CE13D8F9F9EB541F902F7A87
:1036E000F0AF05519BEFC43354E0FCAF0551A0AEE1
:1036F00001EE14C39FC43354E0F9AF04C3EB9FFF42
:10370000EA9400FEE9FDC3EF9DFFEE9400FEED603C
:103710000FE0FD6007C374209DFD80067D008002E0
:103720007D007C00EF2DFFEC3EFE221222E3E461DF
:103730003D91E17F05613D7F01B14691E17F03222B
:10374000902C10E0FF519BEFC43354E0FF22902CEB
:103750000CE0FEA3E0FF902C10E0FDD1C4902C0EF5
:10376000EEF0A3EFF0A3E0FF519BEF75F020A4FF74
:10377000AEF0E4FCFD902C031222FF022129902FD1
:103780003FF0902BF322902F77E014F0E022D1A0AD
:1037900071DAEF6004D1AF80F722E0FCA3E0FDD343
:1037A00022902C0CE0FEA3E022F0902BE6E0FFF448
:1037B000228F828E837F010224948F828E83E4FF86
:1037C00002249474FFF5F012209145F022E92FF9BC
:1037D000EE3AFA902C0EE0FFA3E0902CC5CFF0A3B8
:1037E000EFF022E4FFA146E5C85404FF22FF1223B4
:1037F00054EF021FAA75FF028FD675FF02AF058F27
:10380000D77F01EFC36001D392ED22E475FF02AFD1
:10381000D4CDEFCD75FF02AFD5EFFCEDCEECCEFFF2
:103820002275FF02EFF452D475FF02EDF452D52257
:10383000902E6912235D902E6C51E3943F400374E7
:103840003FF075FF02E5CD20E13EE5FD254A045439
:103850003FFFE5DD543F6F6027902E6C518E502066
:10386000902E69122354854A8211A6AEFD71B5547B
:103870003F248EF582EC3406F583EFF0054A80CACA
:10388000E5FD254A543FF5FDAF4A22902F9CEFF00D
:103890007B017A2F799C7D0111307F0122118B22CF
:1038A0001223541E8E82758300021F28902E22310F
:1038B0001DE58F20E0FB3124E4FF902E22122354DB
:1038C0008F8211A6F5930FEFB410EFE4FF902E2531
:1038D0001223548F8211A6F5940FEFB410EF2290AB
:1038E0002CEB311DE58F20E0FB31247E10902CEE77
:1038F00011A0F593EE70F67E10902CEB11A0F594CC
:10390000EE70F67F01313471EEEF70FB7E10902C7B
:10391000F11223541E8E8271C0EE70F22212235DCA
:1039200075FF012275FF01538F0675FF01538FF05C
:1039300075FF0122EFB4010771DF4401F58F227595
:10394000FF01E58F54F04406F58F22902AD312230D
:103950000B902AD712235DE4902AFCF0D3902ADB47
:10396000E09420902ADAE094004001227B017A2A38
:1039700079DC902ADA71F7902AD31222E31235AF5C
:10398000902AD7122354E94A600B902AFCE0F58272
:1039900011A6FF80027F00902AFCE024DCF582E47F
:1039A000342AF583E06F6002C322902AFCE004FF12
:1039B000F0D3902ADBE09F902ADAE0940050C122F5
:1039C000516712235DE4902C1BF0A304F0902C1897
:1039D00012316A70024161D3EF9420EE94004004EA
:1039E0007F208006902C18A3E0FF902C1AEFF09017
:1039F0002C15122354902C1AE0FF902ADAE4F0A33D
:103A0000EFF0902C111222E3314B400E902C1BE072
:103A1000FFA3E0FEEF4E902C1BF0902C1AE0FFC3AA
:103A2000902C19E09FF0902C18E09400F0902C114D
:103A30001222FF902C1AE4FCFDFE1221295167127C
:103A40002354E94A6007902C1AE0FF80027F00901F
:103A50002C16E48FF012207B902C1CE025E0F02146
:103A6000CD902C1BE0FF22902C1112230B902C15D3
:103A700022902C0CE0FFA3E0902C18CFF0A3EFF0E5
:103A8000902C031222E331C0902C10EFF022E0FFC3
:103A9000E54AC39F22902E7112235D902E7451E34C
:103AA000943F4003743FF075FF02E5CB254A543F35
:103AB000FFE5DB543F6F601E902E74518E5017ADA2
:103AC000CB7139543F244EF582EE3406F583E090F5
:103AD0002E71714180D4E54A600625CB543FF5CB69
:103AE000AF4A22EDF0E4F54AEDD322902E75122371
:103AF0005D902E7851E3941F4003741FF075FF0210
:103B0000E5CC254A541FFFE5DC541F6F601E902E44
:103B100078518E5017ADCC7139541F24CEF582EEFA
:103B20003406F583E0902E75714180D4E54A600635
:103B300025CC541FF5CCAF4A22ED254AFF7E00EF7D
:103B400022FF122354854A82758300EF121FBC05A1
:103B50004A22902E6D12235D902E70EDF0E4F54A0E
:103B600075FF02EDD3941F4003741FF075FF02E54B
:103B7000CD20E23EE5C9254A04541FFFE5DE541F6F
:103B80006F6027902E70518E5020902E6D1223540E
:103B9000854A8211A6AEC971B5541F24EEF582EC98
:103BA0003406F583EFF0054A80CAE5C9254A541F5B
:103BB000F5C9AF4A22FFE54AFDEE2DFD7C00ED225E
:103BC000758300E593021FBC902F37311DE4FF90F1
:103BD0002F371223548F8271C00FEFB410F122756A
:103BE000FF01E58F54F62271DF4408F58F2275FF3F
:103BF00001E58F5401FF22E0FFA3E0902CCECFF02F
:103C0000A3EFF0227B017A2F79707D015195902FDF
:103C100070E0FF2275FF02E5DB543FFFE5CB543F28
:103C20006F7F0060027F012280EA75FF02E5DC54AD
:103C30001FFFE5CC541F6F7F0060027F012275FFDC
:103C40000153CCFD43FB40915E759E0143FB09751A
:103C5000FF03859E9E75FF03859E9E7F012275FF53
:103C60000243D20175FF0322915EE4F59E7F01229B
:103C700075FF02AFD3EF7F0030E6027F0122AD0770
:103C8000901215E054FCF0E0FFED54307E0060022D
:103C90007E02EF4E901215F0E0FFED7E0030E00264
:103CA0007E01EF4E901215F0229009437402F090BD
:103CB0000936E0FF121DD6917E9009437405F0226B
:103CC00075FF0275E404E4F5E475FF02E5E630E013
:103CD00012901215E0540C600A12504A901215E02E
:103CE00054F7F01218A212588F900938EFF0901282
:103CF00000E0B47A14901214E0B49C0D900938E0FE
:103D0000FF64056004EFB4032EE4900942F09009CB
:103D100042E0FFC394805013E42FF582E43412F59F
:103D200083E4F0900942E004F080E3901200747A9A
:103D3000F0901214749CF0121C194003121C147B96
:103D4000017A1279107D017F01121C0F7B017A121A
:103D500079117D017F21121C0F7B017A1279127D6E
:103D6000017F22121C0F7A12791D7F021247959053
:103D7000121DE0B401057F0112611F121BB0125821
:103D80008F121BAB900938EFF0121CAF121BA190E1
:103D90000938E0FF121DD1EF24FFB3925E75FF02D8
:103DA00053E6BF125139121BBA12401A205E0B9112
:103DB000A97B017A277925121A70D2AF205E02C141
:103DC0004A121C1E1219A3121DCC121C0A40F2909A
:103DD0000937E06043121BDDEF70071265DA9400CB
:103DE0004036E53670FCE53720E503124E661219C1
:103DF0005DEF70FAF1925004F1A450057F01123684
:103E00003E900937E0B40204E4FF8009900937E0EE
:103E1000B403057F01125097121BD8E53730E1A19A
:103E2000F1D04002E4F0E53720E50BF16CAF82AE53
:103E3000837D01122DA81265A9C0E0F17A90093A9C
:103E4000E0FDD0E0FF121CA0A1C1125116F18AEFD3
:103E50007006900937E0605020190320064A121BB3
:103E6000DDEF70071265DA9400403DE53670FCE541
:103E70003720E503124E6612195DEF70FAF1925089
:103E800004F1A450057F0112363E900937E070100E
:103E9000F18AEF600BF1EC901215E04408F0800815
:103EA000900937E0FF1250CA900937E0600C2019E2
:103EB00009300606200103121A43121C1E1219A310
:103EC000124D62F1F3124001EF7021F1B8EF60057D
:103ED00012504A8035F18AEF7030124FBFEF702ACE
:103EE000124CEFEF64017022F1E5801E901215E094
:103EF00020E217F1B8EF600DF1925004F1A45005E3
:103F0000E4FF12363EE4900941F0202C05121BD844
:103F100080221219B7900930E0FEEFC39E4005EFF2
:103F20009EFF8008900930E0F4042FFF7403D39FB4
:103F30005002C22CE53730E128F1D04002E4F0E530
:103F40003720E50BF16CAF82AE837D01122DA812F4
:103F500065A9C0E0F17A90093AE0FDD0E0FF121CBB
:103F6000A0121B831257DD125127C14A900939E074
:103F7000FD75F0AA900947122348ED75F002A424BC
:103F800032F9740935F0FA7B0122F1C0B401027FE5
:103F90000122900001740193B40007E493B4180265
:103FA000C322D3227F017E009017FCE4935EFE744F
:103FB00001935F4E24FFB322F1C0B402027F0122BD
:103FC000900941E07F0022C2AFEFF45237D2AF2216
:103FD0007F02F1C7900939E0900942F09009390455
:103FE000F0C39402229009417401F02290094174B7
:103FF00002F022900941E0FF121DC7900946EFF040
:1040000022900946E07F0070027F0122E49009417E
:10401000F022123FC070027F012231A9121BCE1282
:104020001CA5121C23900938E06401700201BD7FB9
:10403000FF1219949004B112235D7E007F15316A3E
:10404000BF540D7E007F16316ABFA5047F01800238
:104050007F00900936EFF0640170429004B11223A2
:1040600054AE0231299004B7E0FEA3E09004B17190
:1040700087E92407F9E43AFA9004B412235DE924AD
:1040800008F9E43AFE31299004B7E064067004A30D
:10409000E0640A6008121999900936EFF090093629
:1040A000E0701A7E007F10C006C374A09410FE74E6
:1040B000313119D0067180E4FFFE12199E121AF2F6
:1040C000121A5C121A021257B6305E05754B018047
:1040D0002D1264F4121962F155FE4FFDA3E0FC4D60
:1040E000FDA3E0FB4D600BEE5FFFEC5FFFEB5FF4C9
:1040F0007002719390093DE0654B900931F0E490B6
:104100002CBDF0902CBBF0A3F002185A75FF02757D
:10411000E40475E40175E402229400902D66F0A396
:10412000CEF07B007A00790022AF017B017A04791E
:10413000B7902DCD7402F080557405F0902D631268
:10414000235DE4FCFDC007902D63122354902D667F
:1041500012655DD007023171F0E0131313541F7E16
:10416000002419F9EE3429FEAF01E4FCFD023552BA
:10417000902EE6E075F005A4248BF9742435F0FE4A
:10418000AF017B017A2B7903902DCD7405F0902D32
:10419000CA12235DE4FCFDC007902DCA122354907F
:1041A0002DCDF1D1D0070235AF7B017A2B79EB7D94
:1041B000017F03121C0F7A2B79F47F08F1957A2B7B
:1041C00079F17F0971617A2B79EF7F0B7161902B07
:1041D000EF12316A6006BEFF16BFFF13716850020E
:1041E000800471718009902BEFE4F0A37440F071AA
:1041F0006850028008902BEC7403F08006902BEC42
:104200007402F0902BEBE012246A4226044231142F
:10421000423915424117425730425F3442673642B5
:104220006F370000424C75FF015310EF8510FD8081
:104230004775FF015311EF800E75FF015311DF80A9
:104240000675FF0153117F8511C9802C75FF01533D
:1042500012DF8512CA802175FF015313FE80167587
:10426000FF015313EF800E75FF015313BF800675D6
:10427000FF0153137F8513CB12341B7F117153E45D
:10428000FF12363E123345902BE97402F0902BED6D
:10429000E0247F60090470167159740A8007123691
:1042A0001E71597458F0902BEC7403F07171902BBF
:1042B000EEE0F460026150902BF1E0FEA3E0FF64B9
:1042C000104E7006902BEE740EF0EF64204E7006C8
:1042D000902BEE740FF0EF64404E7006902BEE744E
:1042E00010F0EF64804E7006902BEE7411F0E4B580
:1042F000070AEEB40106902BEE7412F0E4B5070A3B
:10430000EEB40206902BEE7413F0E4B5070AEEB497
:104310000406902BEE7414F0E4B5070AEEB4080618
:10432000902BEE7415F0E4B5070AEEB41006902B4E
:10433000EE7416F0E4B5070AEEB42006902BEE7486
:1043400017F0E4B5070AEEB44006902BEE7418F0AF
:1043500002358AEF4420F5FE227F107153902BE93D
:10436000227B017D02021C0F902BF4E024FE24FD31
:1043700022902BEF7401F0A3E4F0227405F0213CAD
:10438000313C74FFFDFC22FF122354C3E99FF9EA7C
:104390009EFA22E4FF122949EF60357B017A097900
:1043A0003B71D15004F19C40F27B017A09793D7157
:1043B000D1500EF1555FFFA3E05FFFA3E05FF46013
:1043C000E8754B017E007F087A09793BF1B4F15022
:1043D00022902C4DF15D902C531223170000000108
:1043E000902C577401F0F5FFE5D554C07005122DDF
:1043F000A05002C322E4F5FF53967F75FF0175D5E7
:10440000047F3FFE122F7275FF0143D508E4F5FFCC
:104410005394FBF5FF53847FF5FF7598FF902C5163
:10442000E5F4F075F49C75FF01A3E5E4F075E4256F
:104430007B017A2C7957F11E902C57E064016002C1
:1044400081FBF5FF902C507414F0902C53B12BFF8E
:1044500078011222B6902C5312230BE5A730E1FB12
:1044600043A702902C53B12BFFE5A730E005E47B76
:10447000018002E4FBFAF9F8EF4BFFEE4AFEED494A
:10448000FDEC48FC902C5312230B902C50E014F0C0
:1044900070B8902C53B12BFF78101222A37B6D7A49
:1044A0004E79C67841122144EF2439FFEE3430D1E1
:1044B000D0E4FBFA7901F81221CFEE547FFEE4FD3F
:1044C000FC125F37902C53B12BFFEB6FFFEA6EFEAF
:1044D000E8CDEFCDCCEECCECFF902C4DD1E0EF123F
:1044E0001FAA902C4DD1E0900001ED121FBC90123C
:1044F0000FE030E606E4F5FF75968075FF01E4F500
:10450000D5902C51E0F5F475FF01A3E0F5E4125FBE
:10451000BC902C57E0B40103D38001C322E025E016
:1045200025E02401F582E43412F583E0FCA3E0FDEC
:10453000A3E0FEA3E022902B2512230B75FF02437C
:10454000E180F17212601F902B3A122317002DC6E2
:10455000C0E4F5FFF5A490120EF0A3F0902B357493
:1045600002F0D1D8FFF595EF1460181460262402EC
:104570007036902B25B12BFF902B3612230B902BEE
:10458000318020902B29B12BFF902B3612230B90DA
:104590002B32800F902B2DB12BFF902B3612230B3B
:1045A000902B33E0902B3EF0126112902B3EE07086
:1045B0000FF5FFF59675FF0175D70975F41880574B
:1045C00090120EE004F0902B35E0F1AC902B3AB154
:1045D0002BFF902B36F1DCC3122292500A902B361F
:1045E000B12BFFA312230B902B3EE0FF125F6E90C6
:1045F0002B34E0FFA3E0FDA24F924D125FCDA3B19B
:104600002BFF902E3312230B902B35E0FFF1E89017
:104610002B35B11DFFD1F2D1E96002A1627402F025
:10462000D1D8F595E5F45407701C902B3AD1AE78AB
:10463000011222A3902B35E0FBF166F58312230BC8
:10464000EBB11EFFD1F2D1E970D675FF03759580ED
:10465000F1A4400343F420A24F924E126043902BEA
:104660003AB12B2420FFEE344ED1D0E4FB7A04F98A
:10467000F8D1BE78011222A3C24C125CF7E4F5FF18
:10468000E5BD54F84404F5BD9012137401F07E1298
:104690007F01E4FD8F828E83EF2DF582E43EF5836A
:1046A000E0FC901213E02CF00DEDB412E722FF7E37
:1046B00004FDFCE0F8A3E0F9A3E0FAA3E0FB12217B
:1046C00044E47B7DFAF9F81221CFEF2401FFE43EA8
:1046D000FEE43DFDE43CFC2275FF03902B35E02217
:1046E000E0FBA3E0FAA3E0F922902B35E0FF14F001
:1046F000EF22902E8912230B75FF01902E89A3E0E3
:10470000FDA3A3F1C78FE1902E89A3A3E0FEA3F13F
:10471000BD8FE2902E89A3A3A3E0FF8FE322902E0A
:10472000DDF15D7F017C127D01E4FE8D828C83EDE5
:104730002EF582E43CF583E02FFF0EEEB412EC90F0
:104740001213E06F6009902EDDD1E0E4121FAA225F
:104750007404F0213C90093BE0FFA3E022EBF0A3BE
:10476000EAF0A3E9F02225E025E02401F582E43413
:104770001222E5FA30E1FB75FC8075FF0153D5EF9D
:10478000E4F5FC75FC40F18EE5FC20E6FB2275FFAC
:1047900003E4F591227B017D01021C0F90093BE0AF
:1047A000C394C02290120EE0D394012233333354C9
:1047B000F8F5F4227B01902D66E4F0A322E4FFE4F7
:1047C000FDFC78080222A3E4FFFEE4FC781002223C
:1047D000A3E0FF902CCEE4F0A3EFF022E0F8A3E0FA
:1047E000F9A3E0FAA3E0FB22902E32EFF0E4A3D18C
:1047F000AE78011222A3902E32E0FBF166F583120F
:10480000230B901210E064806078E0C3947F503CEA
:10481000EB124766F583C083C08212452BFFEEC0C2
:10482000E0EFC0E0901210E075F004A4AEF0FBCA17
:10483000EECAEA3395E0F9F8D0E0FFD0E0FEC3EF2E
:104840009BFFEE9AFEED99FDEC98802E902E32E0C3
:10485000124766F583C083C0821247DC901210E0D5
:10486000F40475F004A4FFAEF0EE3395E0FDFCEB2C
:104870002FFFEA3EFEE93DFDE83CFCD082D08312EA
:10488000230B2275FF0275E404E4F5E422A24492AE
:104890002B22D2061219B7900944EEF0A3EFF022B2
:1048A000B120EF70087FA07E0FFDFC213F91E590C5
:1048B0002BB4EFF07406D39F4067E0605A31C17E9D
:1048C00000902BB4E014FDE5F0A805088005C33383
:1048D000CE33CED8F9FF31BA31A6902BB51222FFD4
:1048E000C000C001C002C003902BB4E014FF7410DC
:1048F0007E00A807088005C333CE33CED8F9FFEE7B
:104900003395E0FDFC31B2122144D003D002D00136
:10491000D000122129802831C1AFF07E0031BA8049
:104920001E902BBCE0FF600FE4FCFDFEFB7AF479E7
:1049300001F812214480087F007ED07D077C003181
:10494000A631D47E4A7F44C006C007902BB5122200
:10495000E391D1D007D0069137B106EF704531AC65
:10496000D31222924007E47F01FEFD802A31AC126F
:1049700021CF31A6902BB51222E3E47B0191B250F6
:1049800018902BB51222E3C3EF9401FFEE9400FEC2
:10499000ED9400FDEC940031A5902BB51222E3516B
:1049A00000119222FDFC902BB502230B902BB51227
:1049B00022E3E47BE87A03F9F8227C007D64022498
:1049C0009631C9EF75F0A08422900931E064AA24E1
:1049D00011FFF02291C0EF600FE47FA07E0F31A4A1
:1049E000901215E054E7F022901215E0FF74E0D326
:1049F0009F4005E02410F022EF6410901215F02281
:104A0000902E8112230B513EE47BFF91B2501CE4A7
:104A1000513D1221CF90121612230BE47BFFFAF9BD
:104A2000513D1221CF90121CEBF02290121612234E
:104A30001700000000513E90121CEFF022F8902E5B
:104A4000810222E391A4902BB9E0B4020A91B990BB
:104A50002BB97403F041F2902BB9E06403707990A4
:104A60002BBBE06056902BBDE0B40105121B978074
:104A70000A902BBDE0B40203121B9C902BBBE014E8
:104A8000F0E0601F31C9EF75F04684E5F075F06421
:104A9000A4FFEF24A0FFE5F0340FFEE433FDE43380
:104AA000FC8007E47FA07E0FFDFC902D0612230BF7
:104AB0007E4A7F44E4902D0AF08137902BB974012F
:104AC000F051F2902BC074FDF0902BBF7407F07B77
:104AD000017A2B79BF021DDB902BB9E0B4040F9152
:104AE000C0EF6007124122E4FF01A0121B9722745D
:104AF00001F0902BB9E0640270207C4C7D497F016D
:104B0000121A7F7E4A7F44C006C007E47FD07E072A
:104B1000FDFC91D1D007D0068137902BB9E064031A
:104B20007017FFFE31A4902BBDE07C4C7D49B40290
:104B3000047F0380117F02800D902BB9E0B4040B39
:104B40007C4C7D497F04121A7F4144902BB9E0B41C
:104B5000010B91B991A4715EE4902BB9F0229012EF
:104B600015E05403F022902D4CEFF0C24A121B4284
:104B7000EF542364206023902BB9E0601D7B017A01
:104B80002D794D913191C8902D4D7406F0A3E54BD0
:104B9000F07B017A2D794D121DDB902D4CE0607D6C
:104BA0009140E0600251EF902D4CE0FFB40107907E
:104BB0002BBD74018009EFB40310902BBD7402F07B
:104BC000715E902BBB7404F0804BEF64047038125C
:104BD0001B42EF5423FFBF2013D24A91FAEF700417
:104BE000715E91DD902BB97404F08035121B42EF99
:104BF0005432FFBF020C900938E0B40505E4F0120E
:104C00001B92715E7F0022902D4CE0B40213E49061
:104C10002BBBF0715E902BB97402F08004914004BC
:104C2000F051F2902BB9E07F0060027F0122122345
:104C300054902D7302235D1219B2902BBEEFF02217
:104C4000E4902BBDF0902BB922902E7D12235D9124
:104C5000A4919E121EEB902E80F0902E7D912E7BC3
:104C60000191C8902E80E0B40119919EE9240112AF
:104C70002B6F902BBAF074FE121FAA902BB97405FB
:104C8000F08015902E80E0FF64066004EFB4070DFD
:104C9000902BB9E0600251EF919E121DDB22902E05
:104CA0007D022354902BBEE0FF1219ADE4902BBE81
:104CB000F022FAF9F8C3022292E4FDFCFF021A7F07
:104CC000901215E05408FF227A2B79BF7F06021953
:104CD00085902D0612230BE4902D0AF022901215D8
:104CE000E04404F022901215E0C4135407FF222080
:104CF0000A0511927F01227F0022901215E07F00A9
:104D000030E2027F0122901215E07F0030E0027F46
:104D10000122AE0731C9EE04FEEF8EF084AFF0221F
:104D2000901215E05414FFBF14047F0180027F002D
:104D300022902E2D12230B902E31E054029012342B
:104D4000F0902E2D1222E34100C003C002C0017B6F
:104D5000017A2C79B89131D001D002D0037F0302BF
:104D60001985122FEB7072D110902F3CEFF0D39475
:104D7000035066902CBDE0FF902F3CE06F705AB15D
:104D8000DA902F3DEFF07B017A2F793D7D01121CE7
:104D90009B902F3CE024B8F582E4342CF583EFF0AF
:104DA000902CBDD11E7C007D03121FF0AF05EFF0EB
:104DB0007027902CBBE07002A3E0601D7B017A2C71
:104DC00079B5B1497B017A2C79B5902CBBE0FEA373
:104DD000E0FFF5828E8312249422E4FFE5F754C0AD
:104DE0006002801675FF01E5D530E30DB1FF50F488
:104DF000B1FAEF60EFB1FF50EB22D106AFD92275C7
:104E0000FF01E5E4332275FF01E4F5EA75EAFF22CC
:104E1000E5F45418131313541FFF2290121AE024C0
:104E200001FFE433FE22C251122E31D15AE5D120C6
:104E3000E0FBE4F5FF75D908D11BD1505005E00423
:104E4000FF80027F00D199D251122E31E4F5302239
:104E5000C3EF9403EE6480948022E4F5FFE5D1541F
:104E6000FE4402F5D122E5367028122D985005C275
:104E700051122E311247727F08121DEFD15AE5D11F
:104E800020E0FB4337205337FEE4F530A23692EDA5
:104E9000D322C322E4F53680CD122F4643FA04E430
:104EA000F5FF53D1FD43D101224337015337DF9042
:104EB0000AB6E0FDF116900AB6E0FDD1F34004E435
:104EC000F5362243FA045337FB304604D19F800A5B
:104ED0007F55D1DC7F55D1DCD2EBD32275FF01E5C4
:104EE000D520E602C322E5FA540360FA75FF018F6C
:104EF000C3D322900AC9EDF0A3EFF07F01121DEF9A
:104F0000900AC9E0FFA3E0FBE4902D5DF07D021262
:104F1000597950ECD322EF30E30774332DF8E6FFD4
:104F200022743D2DF8E6FD203704EE30E00BE53924
:104F3000C394F05020F1698018E53B6006FDE4F56C
:104F40003B8012E539C394F0500BE539540FFF60F4
:104F500004F158AD07AF0522F19DFFC3940E400246
:104F60007F0DEF9027F093FF2290041CE0FDFFC31C
:104F7000740E9FFFE49400FEEFC4F8540FC868FF5E
:104F8000EEC454F048FEE53954F0C3F1947F00506C
:104F900002AF05229FEE6480F874809822E539C440
:104FA000540FFEEF90280E932E22E53720E50CC219
:104FB00051122E31D15AE5D120E0FBE4F530229098
:104FC0002BB9E0B4040D902BBEE06007B106EF7082
:104FD00002FF22902BB9E0FF2290051EEFF0A3ED17
:104FE000F05402901234F091EFEF7002C32290055A
:104FF0001EE0B40412A3E0FB7D017F0112501D905E
:10500000051E7403F0800690051F12501790051EB0
:10501000E0900937F0D322E0FB7D01E4FFEB60086C
:1050200075FF0153CDFD800675FF0143CD02ED6094
:105030000553FBDF800343FB20EF600775FF02434E
:10504000E1402275FF0253E1BF2211BB70079012AD
:105050001CE070012211BB60227FFF11B590121677
:105060001222E3EF24FFFFEE34FFFEED34FFFDECF0
:1050700034FFFC90121612230B800C90121CE0FFE0
:1050800011B5E490121CF0901235E0FD7F0111E2A1
:1050900090123411177F0143FB1075FF0243E64065
:1050A000EF600D75FF02E5E120E7FB43FB0D800398
:1050B00043FB0E80FE75FF028FE322E4FFFEFDFC42
:1050C0009012161222FFC3022292902F75EFF0BFAA
:1050D0000204E4FF8009902F75E0B403047F0111FE
:1050E0009722EF7011ED600775FF0143AE01227545
:1050F000FF0153AEFE22EFB40114901235EDF060C3
:105100000775FF0143AE022275FF0153AEFD2280F9
:10511000D1A245922E22302D0D121A25EF6007C222
:1051200058121A16C22D2290093F12316A6009CA1C
:10513000EECAC9EFC912249022D2ADD2BD75FF02CA
:10514000758E71754C0975FF02E58E546F4480F5BC
:105150008E902E791223170000000022C0E0C0F0CC
:10516000C083C082C0D075D008C0FF75FF02E58E35
:1051700030E43E75FF02E58E54EF4410F58E902E1C
:10518000791222E31246CA902E7912230B90000066
:10519000E475F00112207BE54C30E0020519E54C86
:1051A000700D754C09051FE51F7002051E80021564
:1051B0004C75FF02E58530E40875FF024385100554
:1051C00050D0FFD0D0D082D083D0F0D0E032122D9A
:1051D000A0500631DB50028001C322E5F754E024E1
:1051E000FF22AF36EFC36001D322EFC3940E500508
:1051F00090041CEFF022E539540FFF22E539C394E7
:10520000F050205339F0124F9DFE740FC39F40059C
:10521000EE940E400543390D8003EF4239E53954D1
:105220000FFF227F0022900943E06402701F8F3D30
:10523000AF058F3EAF038F3F9004CCE0F533A3E082
:10524000F534A3E0F535AF3D121BB5D322C3229050
:105250000AB112235D900AB1122354E53D518B51DE
:1052600092E53E518B122354519DFAE53F518B122A
:105270002354E92403F9E43AFAE533518B122CCD97
:10528000E534518B51A4E535021FAA121FAA900ADA
:10529000B122122354E92401F9E43AFA22E9240262
:1052A000F9E43A22122354E92405F9E43AFA22E512
:1052B0003954F0C4540F2FFFC3941040027F0FEFF6
:1052C0009027FE93FF227E10EE60091EEE9027FECF
:1052D00093B507F4EEC3940E40027E0DEE9027F0D6
:1052E00093FF22C2AFEF4237D2AF22EF24FE600C11
:1052F00024FE600580007F01227F02227F0322C0FE
:10530000E0C0F0C083C082C0D075D008C0FF75FF78
:1053100001E5D530E6047F028009E5D57F0030E75E
:10532000027F018F3AE53A6402600261C1E53612FC
:10533000246A534B01535E0253AA085369095374FC
:105340000A53820B539F0C000054D475FF0175C3A0
:1053500055153CE53C600281D475360281D475FF59
:105360000175C3F075360981D475FF0175C3557594
:10537000360A81D475FF0190042EE0F5C375360B13
:1053800081D475FF0190041AE0F5C3753601753CB0
:105390000890043DB10A600281D475360C81D49026
:1053A0002DC77406F075360081D4C2EB7536004304
:1053B0003704B114400281D4E475F00112207B81DE
:1053C000D4E53A6401600281D491FB400281D4E5C6
:1053D00030705175FF01F5EA75EAFF90041D122344
:1053E00054E5D9121FAA91EFE09004FFF0B12E51BD
:1053F000EB900419EFF09004FFE0FFD394094055BF
:10540000EFD394AA4002804D9004FFE0F538124E8D
:105410001090121AEFF075FF009004FFE0F5D975B7
:10542000300381D4E5306403600281D490041DB15F
:1054300002E92401122CDF75FF00E5D330E01BC325
:10544000900429E094FF900428E094FF5007E4754D
:10545000F00112207B124E26807AC251122E317535
:10546000FF00124E5DE5D120E0FBC2EB4337029115
:10547000E8A3E0FF90093CE0FEEF6E91E7E09009C1
:105480003B91E1A3A3E090093D91E1A3A3A3E0FE3A
:1054900090093EE0FDEE6D4F6016C390042BE09442
:1054A000FF90042AE094FF5007E475F00112207B7E
:1054B000C3900425E094FF900424E094FF5007E497
:1054C00075F00112207B753000153891EFE538F04A
:1054D00090093AF0D0FFD0D0D082D083D0F0D0E085
:1054E00032FEE0FDEE6D4FFF85328285318322E58D
:1054F000322407F582E43531F58322E5F754C024E0
:10550000FF22122354121EEBFF2274FFF5F012202B
:105510007B45F022C3900421E094FF900420E094A6
:10552000FF22B1145007E475F00112207B22E5F749
:105530005406FFBF06037F0822E5F75406FFBF04A9
:10554000037F0422E5F75406FFBF02037F02227F98
:105550000122753601753C0790042EEFF090041B74
:105560007403F0C374799B90043EF0E494009004BB
:105570003DF02290043DE0A3E0FF229005191223A4
:105580005D90051CEDF0E4A3F0ED54FE90051CF0D9
:105590006030E4FF122949BF0128900519122354F5
:1055A0001243D1501D90051AE475F00212207B9031
:1055B000051DE02402F090051DE0FF90051CE06F42
:1055C00070D87F0112294990051DE0FF227D02B1AC
:1055D0007BEFC36001D322121EEBFB900ACBEFF0EE
:1055E000A3EBF0900ACBE0D168E0FEB402037F00A9
:1055F00022EE701C900ACBE0FFD1687401F0900499
:105600002CE0FCA3E0FDEFD172ECF0A3EDF0802ADA
:10561000ED241BFFE433FEE4FCFD7B0CFAF9F812E9
:10562000185EEF2405FF900ACBE0D172E0FCA3E006
:10563000C39FEC940050037F00229029C5E0B4FF83
:1056400015900ACCE0540FFFBF0103E480049004DE
:105650003CE09029C5F09029C5E060037F022290CC
:1056600029C574FFF07F01222414F582E43429F562
:10567000832225E024BFF582E43429F58322900AB1
:10568000B7EFF0ED24FE60191460262402703BEBA6
:105690002402FFE43AFE7C007D50121FDE7D608014
:1056A0001ED1EEC333CE33CED8F9FF7C007D2880E7
:1056B0000ED1EEC333CE33CED8F9FF7C007D641219
:1056C0001FF0900AB8EEF0A3EFF0900AB7E0F104F3
:1056D000C083C0821222FF900AB9E02401FF900A21
:1056E000B8E03400FED1FED082D08302230BEB243D
:1056F00001FFE43AFEEF780322E0FEA3E0FFE4FCC2
:10570000FD02212925E025E02430F582E43404F56A
:105710008322EFF1041222E30222C9E4900430F163
:1057200030900434F130FFFEFDFC90043802230B6E
:10573000FFFEFDFC12230BE42290093BE0F4FFA3E3
:10574000E06FFFA3E06FFFA3E06FFF6455601DEF04
:1057500064056018EF64256013EF6445600EEF6424
:10576000656009EF644A6004EFB40A010F90041AFF
:10577000EFF022A2EB9248C2EB7A0479207B017D04
:105780000CE4FF121958A24892EB22A2EB9249C2F4
:10579000EBEBC0E0EAC0E0E9C0E07B017A047920ED
:1057A000124C31D0E0F9D0E0FAD0E0FB7F0C1219B6
:1057B00085A24992EB22E4902DC7F0FBFAF9902DD7
:1057C000C302235D121C5A902DC6E014F06005A39D
:1057D00074058005902DC77407F0022B76902DC7B5
:1057E000E0FF64066004EFB40103122B7622902CD4
:1057F000BBEEF0A3EFF022902BB3E0FF1219ADE463
:10580000902BB3F0221257F7E51864066006E518EE
:1058100064077030902BB3E06003F47027E4FDFC64
:105820007F01121B747E587F05C006C0077F587E1B
:10583000807D047C00124CD1D007D0061219B290A2
:105840002BB3EFF0229026A1E070087B017A267935
:105850009911679026A1E044C0F09026A4116E90A3
:1058600026A8E054FEF0227D107F23021C0FE05496
:10587000FEF0A3E044C0F0227405D39F500B746384
:10588000C39F4005902BBCEFF0902BBCE0FF22752E
:10589000FF02E5E630E2037F0322E5E630E3037F23
:1058A0000022E5E630E1037F0422E5E67F0530E0F3
:1058B000027F0122EF600775FF0253E6BF2275FFEA
:1058C0000243E64022EF14600F14601424027018A3
:1058D0008B8075FF018DFD228B9075FF018DC92294
:1058E0008BA075FF018DCA22AF038FB075FF01AF8A
:1058F000058FCB22902D5412235DEF14601114609C
:10590000182402701E312EE5803134E5FD801C31F3
:105910002EE5903134E5C98012312EE5A03134E511
:10592000CA8008312EE5B03134E5CB021FAA902D94
:1059300057022354121FAA75FF01902D54022354BD
:10594000E4F5FFAF9122E4F5FFAF9222902E85910E
:10595000427A2E7987518D5014902E87E0FEA3E075
:10596000FF902E86E09F902E85E09E400B902E8526
:10597000E0FEA3E0FF122FCE22902D5A9155902DDC
:10598000607401F0C250122EF9122F955005E5FCFB
:1059900020E6F6122FA0BF0108E4F5FC75FC40805C
:1059A00008122FA0BF0202D32275FF0153D8EF9037
:1059B0002D5BE0FFF14475FF0153D5DF53FAFB90F7
:1059C0002D5AE0FF122F46902D5BE0902D5AB4081F
:1059D0000A12451D24521246CD800412451DFF12A5
:1059E00046F2902D5CE0FF913C75FF0175FF037559
:1059F0009B04122EF975FC42E5FC20E105122F955F
:105A000040F3902D5DE0F075FF03E59B20E7051264
:105A10002F9540F3E59B20E70D75FF03759B1F1243
:105A20004772D250804C518612471E902D5BE0FD8C
:105A300090120FE05D701C902D5AE0FF518651A32B
:105A400090120FE0FF902D5BE0FEEF4E90120FF0F2
:105A5000124688B1E77B017A2D795E518D500FC3D4
:105A6000902D5FE09420902D5EE0940340E75186F6
:105A7000D1D8122F76305002217E902D60E0B401F3
:105A800003D38001C3227B017A2D796022122F6219
:105A9000AD94EF4D914A8FF012210AE591C330E7A2
:105AA00001D322902E91EDF0901211E0F46005A345
:105AB000E0B4FF0C902E937418F0A37413F08010D0
:105AC000901211E0902E93F0901212E0902E94F02C
:105AD000121EEB640160028116902E91E0FE6408B4
:105AE0006004EEB40408902E927428F08006902E84
:105AF00092743AF0EF12451EFF12226EE49117EFF6
:105B000024D8FFEE343FFEED3493FDEC3416FC7BDD
:105B1000007A807903780012185EF137902E94E0B5
:105B2000FF902E93E0C39FFFE49400FEE4FCFD127F
:105B30002144ECC0E0EDC0E0EEC0E0EFC0E0902E0C
:105B400094E0FFE4FCFDFE9117D0E0FBD0E0FAD03A
:105B5000E0F9D0E0F8EB2FFBEA3EFAE93DF9E83C4A
:105B6000F8902E92E0FFE4FCFDFE122144EF245455
:105B7000FFEE340B1246D0E47BA87A16F9F812181F
:105B80005ECBEFCB902E91E014606314601D24FE79
:105B9000600E24FC60028116E4F5FF75CE318006AC
:105BA000E4F5FF75CE21F5FF8BCF22E4FAE4F5FF93
:105BB000EA2440F5CEE4F5FFEAFFC374079FFFE453
:105BC0009400FE74F02FF58274183EF583E4911F63
:105BD000C39DF5CFE4F5FFEA2448F5CEE4F5FFEAEE
:105BE0009018F0911F2DF5CF0AEAB408C022E4F511
:105BF000FF75CE01F5FF8BCFF5FF75CE0EF5FFEBF0
:105C000025E0F5CFE4F5FF75CE0FF5FFCFEBCFEB39
:105C100075F003A4F5CF227B64FAF9F802214493CE
:105C200025E0FDE433FCEB75F010A4FFAEF0121F8D
:105C3000F0CDEFCDEBFFE4C313EF132275FF018F1F
:105C4000DA22EEF0A3EFF07B012224FBFFE5F03433
:105C5000FF22EEF0A3EFF0A3EDF0A3EBF022902EE5
:105C600099915291D8AC00AD01AE02AF03C006C00D
:105C700007902E9991EFFBAA06E4F9F8D007D00619
:105C8000D312227C7E0050047F0180027F00C00678
:105C9000C00791D8D0E02FFFD0E03E902E99F0A31E
:105CA000EFF053ECFC902E99E0FCA3E0FDEC5403E4
:105CB00042EC75FF02EDF5AF75ED0275ED04A3E062
:105CC000600543EC08800353ECF7902E9CE06004E1
:105CD00043EC042253ECFB22902E99E0FEA3E0FB60
:105CE000AA06E4F9F87F807E387D01FC02185EE0A8
:105CF000C313FEA3E01322902B8912230BE4F5FFBC
:105D000075BB0575BB8575FF0175D502204C087FF5
:105D10003FFE122F72B1E775FF0143D520304C02D0
:105D2000A1B9E4F5FF538EF7438E077D04E4F5FF38
:105D30008DBCF5FF43B102E5B130E2FBE4F5FFAF06
:105D4000DFEFFEACDEECFBEBFFED25E02487F58218
:105D5000E4342BF583B1E0F5FFF5FF53B1FD0DED14
:105D6000B40CCA902B8912452BFF78091222A3A3E9
:105D7000B1E0FDED25E02491F582E4342BF583E0DC
:105D8000C313FAA3E013FBB1D391EF2BFFEE3AFE5E
:105D9000B1D3EEF0A3EFF0ED240490120DF0EDC3BB
:105DA00094075015CFEDCF0DEFB1D4F130902B8E7D
:105DB000E09F902B8DE09E50BAE4F5FF758EC8F5FC
:105DC000FF90120DE0F5BCE4F5FF75BB8075FF0197
:105DD000F5D522ED25E0248FF582E4342BF58322DE
:105DE000EEF0A3EFF0E422E4F5FF75C2E17F1E12AE
:105DF0002FF730E707E4F5FF75C2A122E4F5FF7540
:105E0000C28122E4902E8DF0A304F0E4902E90F055
