:020000040000FA
:10000000021800021803539953DF0102180B0970FC
:02001000097570
:070013000218130C130C1876
:07001B0002181B239408C624
:070023000218230AF10B058E
:0E002B0002182B0CA97F03220218330228B8FA
:0E003B0002183BE4FF022EBE021843023FB73C
:06004B0002184BA219226D
:060053000218530240DD1B
:06005B0002185B023C529A
:060063000218630254D8EC
:07006B0002186B75ED042281
:100073000218734109290041092800E00202000027
:100083001C84E002020002120FE00102000954E0A6
:100093000102000AA5E00102120B00E00502120CA6
:1000A300120F02060A41043606011300410435010A
:1000B30041043301C11A011800011600C12F414048
:1000C300460041403B00414044004140450041401F
:1000D30042FF413FB000C11DC1084131C10041325F
:1000E3004FFF41324600C1064132500041325100B8
:1000F30041324701C10B4131C00041456200C13B60
:10010300433E44000000413E4300413E4700430359
:10011300E70000004303E40103E74234E5980743A3
:100123004335000000434332014335E0020212111C
:1001330001B0E00102121300E00102129400E00595
:100143000213BC01B006060A4144B3024144B20D96
:100153004144B40860203AA842DB010000000000DB
:10016300000000000000000000000000000000008C
:10017300000000000000000060203AC809000000F1
:10018300000000000000000000000000000000006C
:10019300000000000000000000000000503D0D00C2
:1001A300000000000000000000000000000000C18B
:1001B30014015000C111C11241443005414200FFF6
:1001C300C11EC120C125422A299840412A2B004340
:1001D3003B1B000000423B190000602029E800009F
:1001E300000000000000000000000000000000000C
:1001F3000000000000000000000000000000432693
:100203009D9F01005026A000000000000000000098
:100213000000000000000161272CAB000201050172
:1002230001020E0601010004070401020300000499
:100233000006080504020803140400040014050161
:100243000809080502080314050004001405000644
:1002530000140802020A0A0802030100080004004D
:1002630014080006001408010800140A020D000A0D
:100273000A020C000A0A02080B0A0A01050C0E0AFC
:10028300000400140A000600140A010800140E00FA
:100293000A0D110E020804140E000400140E0006C9
:1002A30000140E010800140E010500140E020F0EB7
:1002B3001211000C0C0E1102080414110004001496
:1002C3001100060014110108001411010500141196
:1002D300000A00141102050E12120208041412027D
:1002E3000C0F00120004001412000600141201087F
:1002F3000014120105001412000A00141202050072
:100303001412000C001413020C0100000209000077
:100313000002100000140209010014020B00131460
:100323000007100014020A0100140204001414024E
:100333000C001414020D010014020E001414021018
:10034300010060242EBB0200FFFF0602FF0006022D
:10035300FF000301FF002300FFFF03000000130061
:1003630000000200010103000000462E12010002FA
:10037300010402422E980C9A412F1F004130CD01F7
:10038300412F2500432F22012EE0432F16012EE09B
:10039300410DF800602004A4EDFFFFFFFFFFFFFF06
:1003A300FFFFFFFFFFFFFFFFFFFFFFFFFFFFFFFF5A
:1003B300FFFFFFFFFFFFFF7F60282622060A0000E2
:1003C30000030008EEEF7F88CF7FC00F028124E097
:1003D30040000000008080180100E83300000600A0
:1003E300006000004121620041217200412160014F
:1003F3004121651141216100412395004123B5004D
:10040300412392004123C1004F23A601265100013D
:1004130023D50001267A000000004223D38700C1C0
:1004230027C1284132B0964132AC0FE0020213C11A
:1004330000A8E00502146400A804060AE0020214FE
:10044300690807E005021C6B080705060A473BC657
:1004530000000000000000433BC3000000E0020274
:100463001C700013E00C021C720000030800030060
:1004730008060A060AE005021C7E0013FF060AE0CE
:1004830002021C83000000C2D5E830E70FB2D5E4B6
:10049300C39BFBE49AFAE499F9E498F8EC30E71784
:1004A300B2D51204C0121CB2E4C39BFBE49AFAE473
:1004B30099F9E498F88003121CB230D50DE4C39F78
:1004C300FFE49EFEE49DFDE49CFC22EF9004D793A1
:1004D300900800730A20364CE576FF22EFF576226A
:1004E300000E1384000E18FC000E225C02020200B0
:0D04F3003F3F3F040404323232000201900A
:1005080075819F75FF03759E02120820022930022B
:1005180005E1900076E47E019360F4A3FF543F3038
:10052800E509541FFEE493A360010ECF54E0B4E044
:100538000EEFFAEEF9A3A3A3A3DAFDD9FB80D654F4
:10054800C025E0604B5026E493A3F85407240CC858
:10055800C333C4540F4420C8834004F45680014672
:10056800F6DFE480B00102040810204080E493A381
:10057800FAE493A3F8E493A3C8C582C8CAC583CA9A
:10058800F0A3C8C582C8CAC583CADFE9DEE780858B
:10059800E493A3F8E493A34003F68001F208DFF4A0
:1005A80002051D789FE4F6D8FD9000007F007E10BC
:1005B800E4F0A3DFFCDEFA904586A3E583C394202C
:1005C8004011FEAF829020000E0FE48002F0A3DFFE
:1005D800FCDEFA12082002051A223200000100008F
:1005E80000001706000000001806000000061806A4
:1005F80000000001180600000008180600000001AD
:1006080001010000000115000000000102040000C3
:1006180000010B04000000060B04000000080B0496
:10062800000000010D00000000010E0400000001A0
:100638001000000000010F00000000040501000088
:100648000004060600000004070800000002050078
:10065800000000030501000000010805000000007B
:100668000800000000010C01000000011205000054
:10067800000803020000000122000000000816081C
:100688000000000808000000000116010000000634
:100698001601000000050903000000050A0000001B
:1006A80000050302000000050400000000061B0608
:1006B800000000011B06000000061C0700000006E1
:1006C8001D07000000070508000000081E070000BD
:1006D80000082000000000081F000000000821009A
:1006E80000000008110600000001110600000008C3
:1006F8002200000000061906000000061E00000087
:1007080000062000000000061A0800000006140178
:10071800000000071401000000081B060000000785
:100728002400000000081401000000090400000271
:100738000A000000070582022000000705020220C7
:100748000000090401000102020100052400100153
:100758000524010001042402000524060001070500
:100768008103080020120100020200000858060058
:1007780002000000000001090200000001008032B0
:1007880004030409A280CACF0998445CAD55064108
:10079800469503860B5F5555555555555555555531
:1007A8005555555555333333333333333333333367
:1007B800333333333388888888888888888888885A
:1007C80088888888000000000005000006000000F6
:1007D8001000002428800000242080000011382107
:1007E80000004428800000442080000034382100A4
:1007F8000000030102060405C0767408C0E0C08248
:10080800C08375760AE5FF54CF4490F5FF22C07681
:100818007408C0E0C082C083757620E5FF54CF44D9
:1008280090F5FF22C0767408C0E0C082C083757658
:1008380036E5FF54CF44A0F5FF22C0767408C0E027
:10084800C082C08375764CE5FF54CF44B0F5FF22D3
:100858009081AA0116908604011690941C011690A6
:100868009424011690A011011690C12601169090AB
:1008780046011690C8A4011690C8BC0116908E2B8C
:10088800011690C95D011690ACE4011690C9B60135
:100898001690CAC8011690CB00011690860501165D
:1008A80090CFED011690D009011690D00F01169047
:1008B800D042011690BC5E011690D0A0011690C6D9
:1008C80062011690D1A3011690D1E1011690A6D22B
:1008D800011690CD70011690DE87011690D2BA01EC
:1008E8001690C5F3011690C5A7011690C7C9011641
:1008F80090C5A2011690E041011690CF1F011690F5
:10090800C328011690E0F7011690E085011690E1E2
:1009180050011690E361011690E369011690ED8E7F
:10092800011690CDB7011690A0CD011690D21F01E7
:100938001690EE0D011690CE09011690C6210116EB
:1009480090EE25011690EE5D011690EE8E01169040
:10095800EEAA011690EEDE011690EF2A011690F02D
:1009680046011690EF72011690F06D011690ABF7E4
:10097800011690F08E011690BAD8011690BFB001FA
:100988001690F0AA011690BF75011690C7AD011612
:1009980090F0BF011690F38C011690F35701169052
:1009A800F3B6011690CEEC011690F2EB011690CE3C
:1009B800DE011690F0CD011690F3C4011690E342C3
:1009C800011690EDA0011690F424011690EE540142
:1009D8001690F37E011690ED94011690F39201168D
:1009E80090EDBC011690F4DC011690F5C801169044
:1009F800F2C6011690F56A011690F2A8011690D475
:100A08006B011690830001169081D2011690ED2794
:100A1800011690ED66011690DEAA011690DF7A01A4
:100A28001690F726011690DF67011690F7C2011697
:100A3800908FD6011690F828011690E27D01169045
:100A4800BFCF011690E1DC011690BF7F011690DB45
:100A580098011690B2F8011690D80F011690DAA0F6
:100A6800011690F8C1011690F94A011690F8FC0198
:100A78001690DA1D011690FC07011690FC4C011621
:100A880090809701169080FB0116908000011690C7
:100A9800815F0116908060014290C05C01429082A3
:100AA8000B014290C05F0142908059014290800042
:100AB800014290A2BA01429092C0014290C08A01BC
:100AC8004290C08D014290824C014290B86301422D
:100AD80090C0C4014290C0F6014290AAE901429038
:100AE80085BF0142908A7C014290C1CC014290842A
:100AF800AF014290C51601429085EC014290C7951E
:100B0800014290A0BF0142909AF2014290C91E0191
:100B18004290C9A6014290C964014290CAB70142F5
:100B280090CB22014290CACE01429081CD014290E1
:100B380081B7014290CB7501429089F40142908BB4
:100B480057014290CCC7014290CA16014290AB7639
:100B5800014290C22D014290C3B0014290D1A00140
:100B6800429092F9014290D2BD014290D3260142AF
:100B780090A0B10142908120014290827801429078
:100B8800D3CE014290D680014290D7D70142909BA4
:100B980027014290856E014290B1EB014290E056E8
:100BA800014290E31E014290E469014290E6BF01D0
:100BB8004290E77C014290B1080142909A8001423C
:100BC80090E88A014290AC5E014290AE3D014290AD
:100BD800C82B014290B0C3014290E8E2014290E97B
:100BE8006F014290897A014290E9E9014290E1035C
:100BF800014290C8CB014290E9F1014290EA140108
:100C08004290A0D6014290E629014290EA92014220
:100C1800908070014290EAD0014290B15301429015
:100C2800B0E3014290A95A014290B20B014290AC44
:100C3800F7014290B203014290B25C014290B28047
:100C4800014290B0CA014290B0D2014290B2640110
:100C58004290B272014290B39A014290AC5801425C
:100C680090C86F014290B1F0014290B39D0142904B
:100C7800B1F7014290B3A3014290B1FD014290D374
:100C880013014290ED28014290800701429096B7E7
:100C9800014290EFA60142909B090142909AE4011B
:100CA8004290EFDB0142908B6E014290F178014255
:100CB80090E526014290E4B1014290F20C01429085
:100CC800E05B014290E33C014290E2F5014290F280
:100CD8001B014290CE58014290F1BF014290B7D714
:100CE800014290B688014290B421014290B3D001EC
:100CF8004290C017014290BA17014290B3A901422D
:100D080090C024014290B79F014290B4DB01429009
:100D1800A2F9012C909FF7012C90A064012C90A3BC
:100D280003012C90A30D012C90A326012C90A3382D
:100D3800012C90A0CF012C909E90012C90A34201F1
:100D48002C90A34C012C90A37E012C90A3BD012CC8
:100D580090A4D0012C90819A012C90A6A1012C90EE
:100D6800A6A2012C909813012C909EA7012C909C70
:100D7800F9012C909BD8012C90A6C9012C90A19226
:100D8800012C90A1CD012C909F07012C90A13C0132
:100D98002C90A1D3012C003F241E16110E0B09071D
:100DA8000504030201F0C8A7917767604638353219
:100DB8003024222014000101020203030404050563
:100DC8000606070700000000000000000000000001
:100DD800000000000000000000000000000000000B
:100DE8000000008788888888888888888888888814
:100DF8008888882626262626262626262626262665
:100E08002626260D170D1C0D210D260D2B0D300D38
:100E1800350D3A0D3F0D440D490D4E0D530D580833
:100E2800DF08E408E908EE08F8090C091109160CAE
:100E3800B30CBD0CC20CC70CCC0CD10CD60CE05AB0
:100E48002D5761766520362E3130000858085D0828
:100E58007B088008850B960BA50BAA0BAF0BB482F9
:100E68002D1C1613111010399A3B2B3A2209BB0975
:100E7800C009F70BE60BF00C0EE4FD7C0CAB050D7E
:100E8800EB900E47938F828E83F00FBF00010EDC2C
:100E9800EC0200308F828E83E4F0A37406D1BE7416
:100EA8000AD1BEA3E4F0EF2404F582E43EF583E41E
:100EB800F0A3746DF022F08F828E83A3A322904555
:100EC80055EFF0903FD0E0B40110C2ED7A45795566
:100ED8009040C9122695D1E3D2ED229040C6121F48
:100EE8004A9040C6F1E5121991FFF1DFC39F400116
:100EF800229040C9121F2A9040CD121F4AE4904008
:100F0800CCF09040C6121F2A1226849040CCE0FEF6
:100F1800C39F5033A3121F2A8E82F17CFDF16F12FA
:100F280019918FF0A4FF9040CCE07A002FFFEA35AA
:100F3800F0FE9040C6121F2A1227C8ED121A2590FB
:100F480040CCE004F080BBF16F1219911226A390F7
:100F58000003121991FD7C00121A59F16FEDF1F39B
:100F680074011219E0D3229040C6121F2A90000182
:100F780022E0F5827583000219919043E2121F4A1C
:100F88009043E5122849943F4003743FF075FF02EF
:100F9800E5CD20E13FE5FD257204543FFFE5DD5432
:100FA8003F6F60289043E5F1EC50219043E2121F17
:100FB8002A857282F17CAEFD1227D3543F248EF528
:100FC80082EC3406F583EFF0057280C9E5FD2572E1
:100FD800543FF5FDAF7222900002021991121F2AA8
:100FE80090000322E0FFE572C39F22121A259000A9
:100FF80002227A0B7B5F12C37B903FD07401F0FB17
:101008001210207E237F9490092DE0FCA3E04C7001
:101018000590092D8077C3227A3F79D990418412AF
:101028001F4A9041877401F0A37405F07A3F79D183
:10103800904181121F4A904181118E904181120F77
:1010480072E4121A25904188E0900003120FF3E42D
:10105800121A25904187E0900004121A25904184C5
:10106800121F2AC003C002C001904181121F2A909A
:101078000005121FFE227F01119C903FD0E0B401B1
:10108800047B01112022121F2AE4021A13EEF0A396
:10109800EFF0D322EF600E122C7DAF82AE83E4FD19
:1010A8001226FE800A12098E124C67E433FF227F53
:1010B8000122900D91121F4AD22BC2EBE513600258
:1010C80041CCE51430E202C32251D524EC125E4330
:1010D800124D17A2ED9218C2ED51DD121B1054608B
:1010E800603751D52403F9E43AFA12195420E1295A
:1010F80090430DE06404602190430C740FF0900D50
:1011080091121F2AF1DE125E23F1D890430D740567
:10111800F051EBA21892EDD322900D91915A540FF1
:10112800FFBF0116E924EDF9E43AFA121954700ADE
:10113800901221E0900D94F0800E900D91121F2ACC
:101148001208B2900D94EFF0E51420E064124C5FA1
:1011580040047F01119C900D947A0D7995D1F7E4A4
:101168003351D424EDF9E43AFA74011219BEEF7040
:1011780002803A900D94E0FF12180AE0FE900D9557
:10118800E0D39E4004F17FC32251D5914C121954EB
:10119800FD900D91915AFB123F06900D95EFF0E0EE
:1011A800FF7006D2EBD20041AEEFB40204D2EB419D
:1011B800AE51DD121B105460601351D52403F9E4BD
:1011C8003AFA12195420E105E490430DF0124C5FED
:1011D8005004C237D1B31227DEE5D120E0FBE4F595
:1011E80010C21951D52408F9E43ACFE9CFF5118F87
:1011F8001251D5F1E4121954F515AE11125BA5512F
:10120800D5F1E412195451D491531219542FFFE413
:1012180033FEEF2401FFE43EFE51D5914C121954E0
:10122800D3125EFC500574011219BE51D524B2F9CF
:10123800E43A8B1AF51B891C51D59153121954F5B0
:101248001D51DD121B105407900435F07513085119
:10125800D524B2F9E43AFA125B9851D59153121990
:1012680054FFAD15125BC47B01E4FDFF125B64E41F
:10127800F5FFE5D25480440CF5D2900D94E051D49A
:10128800914C1219542418FBE433FA7D0312528549
:1012980051DD126026A22B922A900D94E0900DBF8A
:1012A800F0124E294006A21892EDC322900D94E048
:1012B80051D424F1F9E43AFAEF121A13A21892ED74
:1012C800D2EBD322A21892EDD2EBC322FF900D915C
:1012D800121F2AE922900D91121F2AE92404F9E429
:1012E8003AFA2290430DE024FC7002810B1470023C
:1012F800810414700261F4147002812F24066002C4
:101308008145E51360028145C2EB91461208B2900F
:101318004523EFF0E51430E00261F1F1D260047F7B
:1013280001119C9045237A457924D1F74004D2EBEA
:101338008160904523E012180AE0FF904524E0D32D
:101348009F4002E17F90430CE0640F702C9045238E
:10135800E0FF9146E9914C121954FD904309915AC6
:10136800FB123F06904524EFF0E0FF7005D2EBD268
:101378000022EFB40203D2EB221251E29146E92493
:10138800E2F9E43AFA121954FF90430951E0121BAA
:1013980010FDACF0E4FB1251C1C22A904523E09045
:1013A8000DBFF0E4FFFE124E29503BD2EB90430DE7
:1013B8007402F01252217E00E4FCFD7BD07A12798F
:1013C80013F8121C27123C7F12048AAB07AA069056
:1013D8004523E0FF7D031252857E537F997D147C5F
:1013E800001208678003D2EB22D2EB22E51420E535
:1013F8002FE51430E02A7F01119C802490430D745E
:1014080001F0229146E924EFF9E43AFA12195460FE
:101418000774FF1219BE70081208629146020993F8
:1014280090430D7403F0221251F8D2009146F1D87E
:10143800125E23F1DEE490430DF012087622904309
:1014480009021F2A24B9F9E43AFA2224E1F9E43A14
:10145800FA22121F2A021954C3900440E094FF9004
:10146800043FE094FF5007E475F001121AE422C02B
:10147800E0C0F0C083C082C0D075D008C0FF75FF3F
:1014880001E5D530E6047F028009E5D57F0030E725
:10149800027F018F17E51764026002A13BE5131272
:1014A800205714C30114D60215230814E10914ECBB
:1014B8000A14FA0B15180C0000169875FF0175C36D
:1014C800551519E5196002C198751302C19875FF81
:1014D8000175C3F0751309C19875FF0175C355757A
:1014E800130AC19875FF0190044BE0F5C375130BFF
:1014F800C19875FF01900434E0F5C375130175199F
:101508000890045E125F996002C19875130CC19827
:1015180090430D7406F0751300C198C2EB75130063
:101528004314041252044002C198E475F001121ADF
:10153800E4C198E51764016002C198125AEA4002B2
:10154800C198E5107022D1ACE0FF64556004EFB497
:10155800540B75100575FF0075D901C198751002F7
:1015680075FF0075D908C198E5106402704B75FFC6
:1015780001F5EA75EAFF900437121F2AE5D9121A15
:1015880013125A951251AD900433EFF0126068E0CF
:10159800900DF0F0E0FFD394094006EFD394AA40F1
:1015A80004F1EB806C900DF0E0F515125A8D75FF83
:1015B800008515D9751003C198E5106405701DD113
:1015C800ACA3125E87FEEF6E700D90043204F01229
:1015D8005A8DE0FF1208AD7510008035E5106403E0
:1015E8006002C198900437915AFF12512BEF121ADA
:1015F80013F1EB75FF00E5D330E01BC3900446E020
:1016080094FF900445E094FF5007E475F001121A26
:10161800E41226AA807AC237D1B375FF001227E1F7
:10162800E5D120E0FBC2EB431402D1ACA3E0FF906C
:101638001223E0FEEF6ED1ABE0901222D1A5A3A356
:10164800E0901224D1A5A3A3A3E0FE901225E0FD0B
:10165800EE6D4F6016C3900448E094FF900447E095
:1016680094FF5007E475F001121AE4C3900442E0B5
:1016780094FF900441E094FF5007E475F001121ABA
:10168800E47510001515126068E515F090092CF046
:10169800D0FFD0D0D082D083D0F0D0E032FEE0FDB1
:1016A800EE6D4FFF85128285118322904559E5F42E
:1016B800F0E0547FF5F47F827E00124FB2F19C5027
:1016C80005E5FC20E6F7303708904559E04480F5F9
:1016D800F4124FAEF19C5005E5FC20E6F775FF01CA
:1016E800E5D520E702C322E5F4D330E601C322E0C2
:1016F800FF7B01904406EFF0A312428D75FF01F1C4
:10170800D26002C322E5F430E602C3227FE87E03FA
:101718001243831242BFF186400122C237D1B390EF
:101728004406E0FF1226E353F4DFD237D1B37F78C3
:101738007E0012466675FF0153E4BFE5E430E7FB1F
:10174800125AE07F8A1260DF30E60990440712429D
:10175800A0E4800B75FF019044071242A0E5D9125E
:101768001A1375FF0143E440125EE6400343F42078
:10177800F186400122D322D2EB9160D20022E5F714
:1017880030E50FE5F754C07004F19C40F1124607AC
:10179800C322D32275FF03E591C330E701D3227F2B
:1017A800FA1242BBE5FC30E604F19C40F7E5FC3058
:1017B800E6037F032275FF01E5D530E6037F0222A9
:1017C800E5D57F0030E7027F0122F1A7EF6401220F
:1017D800903E44021F4A904309021F4A24B1F9E48B
:1017E8003AFA22301905C2191242C62275ED0222B0
:06180000020508AFEF2213
:101808007FB824CDF582E4340CF5832290408FE133
:101818002A904306E0FEA3E0FF4E22EFC36001D307
:1018280092ED22024AB475FF028FD675FF02AF050A
:101838008FD77F0180E58F828E837F010220BB8F47
:02184800EF228D
:10184B000214778F828E83E4FF0220BB75C80122BE
:10185B00022448E709F608DFFA8046E709F208DFB9
:10186B00FA803E88828C83E709F0A3DFFA8032E3AB
:10187B0009F608DFFA8078E309F208DFFA8070884E
:10188B00828C83E309F0A3DFFA806489828A83E088
:10189B00A3F608DFFA805889828A83E0A3F208DF77
:1018AB00FA804C80D280FA80C680D4806980F28026
:1018BB0033801080A680EA809A80A880DA80E2804C
:1018CB00CA803389828A83ECFAE493A3C8C582C8A1
:1018DB00CCC583CCF0A3C8C582C8CCC583CCDFE90B
:1018EB00DEE7800D89828A83E493A3F608DFF9ECA7
:1018FB00FAA9F0EDFB2289828A83ECFAE0A3C8C532
:10190B0082C8CCC583CCF0A3C8C582C8CCC583CC58
:10191B00DFEADEE880DB89828A83E493A3F208DFC7
:10192B00F980CC88F0EF60010E4E60C388F0ED2497
:10193B0002B4040050B9F582EB2402B4040050AF9A
:10194B0023234582239018AE73BB010689828A83B9
:10195B00E0225002E722BBFE02E32289828A83E463
:10196B009322BB010B89828A83F8E0C828F0E82216
:10197B00500327C722BBFE07F8E3C828F3E8228AE7
:10198B00838982E49322BB010CE58229F582E583EE
:10199B003AF583E0225006E92582F8E622BBFE06E3
:1019AB00E92582F8E222E58229F582E5833AF5837F
:1019BB00E49322BB010989828A83F8E028F0225044
:1019CB000327F722BBFE05F8E328F3228A838982DB
:1019DB00F8E4932822BB010FF8E58229F582E58311
:1019EB003AF583E028F0225009C58229F8E58226D2
:1019FB00F622BBFE09C58229F8E22582F222F8EA1B
:101A0B002583F583E9932822BB010689828A83F01B
:101A1B00225002F722BBFE01F322F8BB010DE58237
:101A2B0029F582E5833AF583E8F0225006E9258211
:101A3B00C8F622BBFE05E92582C8F222EF8DF0A481
:101A4B00A8F0CF8CF0A428CE8DF0A42EFE22BC00E3
:101A5B000BBE0029EF8DF084FFADF022E4CCF875BE
:101A6B00F008EF2FFFEE33FEEC33FCEE9DEC9840CD
:101A7B0005FCEE9DFE0FD5F0E9E4CEFD22EDF8F569
:101A8B00F0EE8420D21CFEADF075F008EF2FFFEDC9
:101A9B0033FD4007985006D5F0F222C398FD0FD5C1
:101AAB00F0EA22C2D5EC30E709B2D5E4C39DFDE4E0
:101ABB009CFCEE30E715B2D5E4C39FFFE49EFE120B
:101ACB001A59C3E49DFDE49CFC8003121A5930D5CE
:101ADB0007C3E49FFFE49EFE22C5F0F8A3E028F0C5
:101AEB00C5F0F8E582158270021583E038F022A369
:101AFB00F8E0C5F025F0F0E582158270021583E061
:101B0B00C838F0E822BB010A89828A83E0F5F0A38A
:101B1B00E022500687F009E71922BBFE07E3F5F038
:101B2B0009E3192289828A83E493F5F074019322E5
:101B3B00BB0110E58229F582E5833AF583E0F5F0E8
:101B4B00A3E0225009E92582F886F008E622BBFEC5
:101B5B000AE92582F8E2F5F008E222E5832AF5830B
:101B6B00E993F5F0A3E99322BB010DC58229C58248
:101B7B00C5833AC583021AE45011C58229F808E5DA
:101B8B00F026F618F5F0E58236F622BBFE11C5827B
:101B9B0029F808E225F0F5F0F218E23582F222F886
:101BAB00E58229F582E5832AF58374019325F0F507
:101BBB00F0E4933822BB010A89828A83F0E5F0A313
:101BCB00F0225006F709A7F01922BBFE06F3E5F049
:101BDB0009F31922F8BB0111E58229F582E5833A55
:101BEB00F583E8F0E5F0A3F0225009E92582C8F669
:101BFB0008A6F022BBFE09E92582C8F2E5F008F23F
:101C0B0022EF2BFFEE3AFEED39FDEC38FC22C3EF51
:101C1B009BFFEE9AFEED99FDEC98FC22E88FF0A469
:101C2B00CC8BF0A42CFCE98EF0A42CFC8AF0EDA458
:101C3B002CFCEA8EF0A4CDA8F08BF0A42DCC38258B
:101C4B00F0FDE98FF0A42CCD35F0FCEB8EF0A4FE6B
:101C5B00A9F0EB8FF0A4CFC5F02ECD39FEE43CFC00
:101C6B00EAA42DCE35F0FDE43CFC2275F00875821C
:101C7B0000EF2FFFEE33FECD33CDCC33CCC582330B
:101C8B00C5829BED9AEC99E58298400CF582EE9B10
:101C9B00FEED9AFDEC99FC0FD5F0D6E4CEFBE4CD2E
:101CAB00FAE4CCF9A88222B800C1B90059BA002DC8
:101CBB00EC8BF084CFCECDFCE5F0CBF97818EF2F81
:101CCB00FFEE33FEED33FDEC33FCEB33FB10D703B0
:101CDB00994004EB99FB0FD8E5E4F9FA227818EF59
:101CEB002FFFEE33FEED33FDEC33FCC933C910D7B8
:101CFB00059BE99A4007EC9BFCE99AF90FD8E0E4C5
:101D0B00C9FAE4CCFB2275F010EF2FFFEE33FEED9A
:101D1B0033FDCC33CCC833C810D7079BEC9AE8996A
:101D2B00400AED9BFDEC9AFCE899F80FD5F0DAE44C
:101D3B00CDFBE4CCFAE4C8F922EF5BFFEE5AFEEDE3
:101D4B0059FDEC58FC22C3E49FFFE49EFEE49DFD8D
:101D5B00E49CFC22EB9FF5F0EA9E42F0E99D42F0F9
:101D6B00EC6480C864809845F022EB9FF5F0EA9E06
:101D7B0042F0E99D42F0E89C45F022E8600FECC38D
:101D8B0013FCED13FDEE13FEEF13FFD8F122E86009
:101D9B000FEFC333FFEE33FEED33FDEC33FCD8F125
:101DAB0022BB010789828A83021E3A5005E9F80299
:101DBB0022E4BBFE05E9F80222F089828A83021E27
:101DCB0046BB010DE58229F582E5833AF583021EB8
:101DDB003A5007E92582F80222E4BBFE07E9258287
:101DEB00F80222F0E58229F582E5833AF583021E9B
:101DFB0046BB010789828A83021E925005E9F802CD
:101E0B002326BBFE05E9F802233222BB010DE58236
:101E1B0029F582E5833AF583021E925007E9258264
:101E2B00F8022326BBFE07E92582F802233222E0C3
:101E3B00FCA3E0FDA3E0FEA3E0FF22E493FC74010E
:101E4B0093FD740293FE740393FF22E0F8A3E0F971
:101E5B00A3E0FAA3E0FB22BB010DE58229F582E5A5
:101E6B00833AF583021E565007E92582F80222FCBD
:101E7B00BBFE07E92582F8022309E58229F582E5F5
:101E8B00833AF583022316ECF0A3EDF0A3EEF0A357
:101E9B00EFF022A8828583F0D083D082121EB51278
:101EAB001EB5121EB5121EB5E473E493A3C583C50C
:101EBB00F0C583C8C582C8F0A3C583C5F0C583C868
:101ECB00C582C822BB010789828A83021E9E5005E8
:101EDB00E9F802233EBBFE05E9F802235722BB01BA
:101EEB000DE58229F582E5833AF583021E9E5007A4
:101EFB00E92582F802233EBBFE07E92582F802237F
:101F0B005722F5F0C582A4C582C5F0C583A42583ED
:101F1B00F58322A42582F582E5F03583F58322E053
:101F2B00FBA3E0FAA3E0F922F8E0FBA3A3E0F92579
:101F3B00F0F0E582158270021583E0FA38F022EB9F
:101F4B00F0A3EAF0A3E9F022E493FB740193FA7493
:101F5B000293F922BB010789828A83021F2A50054B
:101F6B00E9F8022370BBFE05E9F802238289828A15
:101F7B0083021F53BB011A89828A83D0F0D0E0F809
:101F8B00D0E0F9D0E0FAD0E0FBE8C0E0C0F0021FEF
:101F9B004A5016E9F8D083D082D0E0F9D0E0FAD0DD
:101FAB00E0FBC082C083022379BBFE16E9F8D08325
:101FBB00D082D0E0F9D0E0FAD0E0FBC082C083023F
:101FCB00238B22BB010DE58229F582E5833AF5834C
:101FDB00021F2A5007E92582F8022370BBFE07E98E
:101FEB002582F8022382E58229F582E5833AF5837F
:101FFB00021F53BB0120E58229F582E5833AF58365
:10200B00D0F0D0E0F8D0E0F9D0E0FAD0E0FBE8C0B7
:10201B00E0C0F0021F4A5018E92582F8D083D08225
:10202B00D0E0F9D0E0FAD0E0FBC082C08302237984
:10203B00BBFE18E92582F8D083D082D0E0F9D0E03E
:10204B00FAD0E0FBC082C08302238B22D083D082E4
:10205B00F8E4937012740193700DA3A393F87401B9
:10206B0093F5828883E4737402936860EFA3A3A350
:10207B0080DFD083D082E4937012740193700DA330
:10208B00A393F8740193F5828883E4737402936CC1
:10209B0070127403936D700C7404936E7006740558
:1020AB00936F60DDA3A3A3A3A3A380CA8A838982B2
:1020BB00E473E5712582F582E5703583F583B570A0
:1020CB00048582712210AF06858271F5702285829C
:1020DB0071F570D2AF22EC8EF0A4CCC5F0CCCDF85C
:1020EB00EFA4CEC5F02DFDE43CFCE8A42EC8C5F052
:1020FB003DFDE43CFCEFA4FFE5F028FEE43DFDE4F0
:10210B003CFC22E3F5F009E208B5F06BDFF58067E4
:10211B00E3F5F009E608B5F05EDFF5805A87F009C4
:10212B00E608B5F052DFF6804E87F009E208B5F00D
:10213B0046DFF6804288828C8387F009E0A3B5F0F6
:10214B0036DFF6803288828C8387F009E493A3B55F
:10215B00F025DFF5802188828C83E3F5F009E0A37D
:10216B00B5F014DFF5801088828C83E3F5F009E479
:10217B0093A3B5F002DFF402223D808780E98090C3
:10218B0080D4803E8015806E807E809D80B7808D50
:10219B0080A380518074803C02224989828A83EC1F
:1021AB00FAE493F5F0A3C8C582C8CCC583CCE493FD
:1021BB00A3C8C582C8CCC583CCB5F076DFE3DEE11E
:1021CB00807089828A83E493F5F0A3E208B5F0620C
:1021DB00DFF4805E89828A83E0F5F0A3E608B5F030
:1021EB0051DFF5804D89828A83E0F5F0A3E208B5D3
:1021FB00F040DFF5803C89828A83E493F5F0A3E617
:10220B0008B5F02EDFF4802A8002805789828A83FA
:10221B00ECFAE493F5F0A3C8C582C8CCC583CCE037
:10222B00A3C8C582C8CCC583CCB5F006DFE4DEE21B
:10223B0080007FFFB5F0020F2240027F01228982CE
:10224B008A83ECFAE0F5F0A3C8C582C8CCC583CC71
:10225B00E0A3C8C582C8CCC583CCB5F0D5DFE5DE1D
:10226B00E380CF89828A83ECFAE0F5F0A3C8C582BC
:10227B00C8CCC583CCE493A3C8C582C8CCC583CCDA
:10228B00B5F0AFDFE4DEE280A988F0EF60010E4E1F
:10229B0060ABED2402B404005098F582EB2402B439
:1022AB000400508E232345822390218573EF4E60CB
:1022BB0012EF60010EEDBB010B89828A83F0A3DF65
:1022CB00FCDEFA2289F05007F709DFFCA9F022BBEC
:1022DB00FEFCF309DFFCA9F022E6FC08E6FD08E6AC
:1022EB00FE08E6FF22E2FC08E2FD08E2FE08E2FF40
:1022FB0022E6FB08E6F908E6FA08E6CBF822E2FB51
:10230B0008E2F908E2FA08E2CBF822E493F8740148
:10231B0093F9740293FA740393FB22ECF608EDF62F
:10232B0008EEF608EFF622ECF208EDF208EEF208F2
:10233B00EFF222D083D082E493F608740193F6086F
:10234B00740293F608740393F6740473D083D082EB
:10235B00E493F208740193F208740293F208740385
:10236B0093F2740473E6FB08E6FA08E6F922EBF63F
:10237B0008EAF608E9F622E2FB08E2FA08E2F9229B
:10238B00EBF208EAF208E9F222903FD0E064017028
:10239B00267B017A3F79D1F1EAEF701B904556F01D
:1023AB00C2ED7A457956904092D19571C3D2ED909A
:1023BB004556E0FF120B5A2290408F121F4AE490B1
:1023CB004095F0121814120FDFD39400406E90401A
:1023DB0092121F2A904097121F4AE4904096F012D7
:1023EB001814D184904096E0C39F502A1219548F31
:1023FB00F0A4FF904096E0D18CF1C8121991FF9098
:10240B004097121F2A904096E0F5821228B1904017
:10241B0096E004F080C990408F120FE5121991FDE0
:10242B007C00121954D1A3121A59121814ED121A56
:10243B001312181490000274FF1219E022C0E0C0AE
:10244B00F0C083C082C0D075D000C000C001C002F4
:10245B00C003C004C005C006C007904557E5FFF098
:10246B0075FF02E5D430E60E75D440904302121886
:10247B001C600312183E75FF02E5D430E50E75D4CF
:10248B002090430412181C600312183E75FF02E5DE
:10249B00D430E41075D41012181960088F828E8313
:1024AB007F0511BB75FF02E5D430E30E75D40890A0
:1024BB00430212181C600312184E75FF02E5D4304C
:1024CB00E20E75D40490430412181C600312184ECC
:1024DB0075FF02E5D430E11C75D4021228E0EF60E1
:1024EB0013121819600A8F828E837F0211BB80042E
:1024FB00D15AD15275FF02E5D430E01075D40112D8
:10250B00181960088F828E837F0711BB75FF02E558
:10251B00D530E41075D51012181960088F828E8390
:10252B007F0311BB75FF02E5D530E11075D50212A3
:10253B00181960088F828E837F0611BB75FF02E529
:10254B00D530E01075D50112181960088F828E8373
:10255B007F0411BB75FF02E5D530E21075D504126F
:10256B00181960088F828E837F0A11BB75FF02E5F5
:10257B00D530E71075D58012181960088F828E83BD
:10258B007F0811BB75FF02E5D530E61075D54012FB
:10259B00181960088F828E837F0911BB904557E015
:1025AB00F5FFD007D006D005D004D003D002D00160
:1025BB00D000D0D0D082D083D0F0D0E032E475FF01
:1025CB0002AFD4CDEFCD75FF02AFD5EFFCEDCEEC66
:1025DB00CEFF2275FF02EFF452D475FF02EDF452D9
:1025EB00D5229043E6121F4A9043E9EDF0E4F572D1
:1025FB0075FF02EDD3941F4003741FF075FF02E5C6
:10260B00CD20E240E5C9257204541FFFE5DE541FBF
:10261B006F60299043E9120FEC50219043E6121F93
:10262B002A857282120F7CAEC9F1D3541F24EEF5AA
:10263B0082EC3406F583EFF0057280C8E5C925728C
:10264B00541FF5C9AF7222D17AE4F59E7F01227532
:10265B00FF0153CCFD43FB40D17A759E0143FB092F
:10266B0075FF03859E9E75FF03859E9E7F012275D8
:10267B00FF0243D20175FF0322900004121991FF50
:10268B00227C002FFFEC35F0FE227B01121F4A7AD1
:10269B003F79D122901221E02401FFE433FE22C2C4
:1026AB00371216B3F1DEE5D120E0FBE4F5FF75D967
:1026BB0001D19FF1825005E004FF80027F00D1D44D
:1026CB00D2371216B3E4F51022D1E343FA04E4F542
:1026DB00FF53D1FD43D1012275FF01E5D530E60251
:1026EB00C322E4F5FF439A80EFF1B7E4F5FF539A69
:1026FB007FD322900D5BF1ADE513707A124C5750DE
:10270B0005C2371216B3900D5BE0FEA3E08E11F5F8
:10271B0012A3121F2A900437121F4AAE11AF127D5B
:10272B00AAF18CE4F5FF75D901F510E5145421607D
:10273B002BE51430E504E4FFD1E3E4900D60F09059
:10274B000D60E004F0124558EF6009900D60E0C396
:10275B00941040EB7F02120D805314DED19FF18257
:10276B005005E004FF80027F00D1D4D2371216B39C
:10277B00D2EBA21892ED22C3EF9403EE6480948007
:10278B0022E4F5FF75D102E5D120E0FBE4F5D1F5AC
:10279B00FFEFF1BFEE540F42D6E4F5FFCFEDCF8F35
:1027AB00D422EEF0A3EFF0A3021F4AE033333354ED
:1027BB00F8F5F422F5D7E4F5FF53D6F02290000597
:1027CB00121FCE8F828E8322FFE572FDEE2DFD7CD4
:1027DB0000ED22E4F5FFE5D154FE4402F5D12212BF
:1027EB000FDFD394007F0050027F01229043EA1247
:1027FB001F4A9043ED122849943F4003743FF075F4
:10280B00FF02E5CB2572543FFFE5DB543F6F6021A0
:10281B009043ED120FEC5019ADCB1151543F244E98
:10282B00F582EE3406F583E09043EA11AA05728037
:10283B00D1E572600625CB543FF5CBAF7222EDF09C
:10284B00E4F572EDD322ED2572FF7E00EF2290436B
:10285B00EE121F4A9043F11149941F4003741FF06D
:10286B0075FF02E5CC2572541FFFE5DC541F6F602A
:10287B00219043F1120FEC5019ADCC1151541F2480
:10288B00CEF582EE3406F583E09043EE11AA057285
:10289B0080D1E572600625CC541FF5CCAF7222FFB8
:1028AB00121F2A857282758300EF021A2575FF02AB
:1028BB00E5DB543FFFE5CB543F6F7F0060027F01A8
:1028CB002275FF02E5DC541FFFE5CC541F6F7F0020
:1028DB0060027F012275FF02AFD3EF7F0030E6026B
:1028EB007F0122AD07901217E054FCF0E0FFED548E
:1028FB00307E0060027E02EF4E901217F0E0FFED8B
:10290B007E0030E0027E01EF4E901217F02290090C
:10291B00317402F0900928E0FF120D6C11EE900952
:10292B00317405F02275FF0275E404E4F5E41261DD
:10293B0060C330E001D34017E5E630E01290121788
:10294B00E0540C600A120B2D901217E054F7F0C2F2
:10295B001912616030E039E5E654036401703112FD
:10296B00095C124C8F401F90123EE0600BE014F09C
:10297B0070061205AB125FB4901215E020E0024115
:10298B00291240BA41291205ABD219125FB4412961
:10299B001205AB12550590092AEFF0901200E0B426
:1029AB007A14901214E0B49C0D90092AE0FF640590
:1029BB006004EFB40330E4900930F0900930E0FF8D
:1029CB00C394805013E42FF582E43412F583E4F0C2
:1029DB00900930E004F080E3901200747AF09012CA
:1029EB0014749CF0D215120B734003120B6E7B0107
:1029FB007A1279107D017F01120B697B017A1279B2
:102A0B00117D017F21120B697B017A1279127D01F5
:102A1B007F22120B697A1279287F02124A239012B5
:102A2B0028E0B401057F01125AF112096112550514
:102A3B0012095790092AEFF01208B712094D9009A5
:102A4B002AE0FFB40602800C3019047F0280059047
:102A5B00092AE0FF120D67EF24FFB3923B75FF02CB
:102A6B0053E6BF1234E26003125FB4124A911209AB
:102A7B006B12303C30150B7B017A12792A7D1012C8
:102A8B0052291209AC901215E0C330E001D3400E6D
:102A9B00203B0B31197B017A3279581208FD9012C9
:102AAB0029E030E00280033019057F0112109CD21F
:102ABB00AF3019031208BC203B026152120B8C126F
:102ACB003C97120D62120B6440F2900929E06044AE
:102ADB00120989EF7007124C3794004037E51370D9
:102AEB00FCE51420E503124C67120AA1EF70FA12F1
:102AFB0053FB50051253E750047F0191A490092911
:102B0B00E0B40204E4FF8009900929E0B403057FD7
:102B1B00011240BF12097FE51430E1A01251984019
:102B2B0002E4F0E51420E50B917DAF82AE837D01CD
:102B3B001226FE125F14C0E0918B90092CE0FDD0A1
:102B4B00E0FF1208A341C7124A491240E350031297
:102B5B004103919BEF7006900929E060559031C1BC
:102B6B00E0704F120989EF7007124C379400404206
:102B7B00E51370FCE51420E503124C67120BFA12F7
:102B8B000AA1EF70FA1253FB50051253E750047F62
:102B9B000191A4900929E07011919BEF600C123008
:102BAB001F901217E04408F08008900929E0FF12EB
:102BBB000B28120B8C123C97120B41904308E070C0
:102BCB004BF1F9123007EF7023123034EF6005121E
:102BDB000B2D8038919BEF7033125473EF702D12C5
:102BEB003FFDEF640170251230188020901217E022
:102BFB0020E219123034EF600E1253FB50051253C2
:102C0B00E75004E4FF91A4E490092FF0201605127D
:102C1B00097F8022124BF3900922E0FEEFC39E4006
:102C2B0005EF9EFF8008900922E0F4042FFF740348
:102C3B00D39F5002C216E51430E12912519840027D
:102C4B00E4F0E51420E50B917DAF82AE837D01129C
:102C5B0026FE125F14C0E0918B90092CE0FDD0E0B2
:102C6B00FF1208A3120AF61209981253B2124A7FE6
:102C7B00615290092BE0FD75F0AA900935121F1EC9
:102C8B00ED75F002A42424F9740935F0FA7B0122C6
:102C9B0012302DB401027F0122904527EFF0E4A3FF
:102CAB00F0903FB1E0FFB4020A740F12614874B99F
:102CBB00F0800DEF64047040743D1261487479F03C
:102CCB00B1ED904527E06007903FB0E0FF80027FB9
:102CDB00ABB10DD1CC904527E0903FB0F070159083
:102CEB004528E0D39400400C7FFFB10D904528E0C0
:102CFB0014F080EBE4FFD1BE22121E3A7808121DAD
:102D0B0086E4E5C820E2FB8FEB227F01D1BE904524
:102D1B005B7401F090455BE0602FF1F3B1A190453E
:102D2B005BEFF0D1CCB190903FA4EFF0D1CC9045BC
:102D3B005BE0540112614060DBA3E0F460D6EF303E
:102D4B00E7D2E490455BF080CBB1F17F9FB10DB141
:102D5B00A1903FA5B19F903FAAB19F903FABEFF0E1
:102D6B00D1BA903FA3E0F4601BA3E0F46016903F50
:102D7B00AAE0FD541F240FA3F0EDC41354074480A5
:102D8B00903FAAF022B1F17FD7B10D7FFFB10DB10A
:102D9B00A5903FA3EFF07FFFB10DE5C820E2FBAF9D
:102DAB00EB227F01D1BE303914F1F3B1A190455C18
:102DBB00EFF0D1CC90455CE020E002C239303918FD
:102DCB00B190903FA4EF126140600BA3E0F460065A
:102DDB00EF30E702C239D1CCE4FFD1BEA239E433E4
:102DEB00FF227F01D1BE903FA8E01220572E140482
:102DFB002E1C142E21152E26172E36302E3B342E3C
:102E0B0040362E453700002E2E536AEF856A8080A0
:102E1B002F536BEF8008536BDF8003536B7F856BF6
:102E2B0090801D536CDF856CA08015536DFE800D5B
:102E3B00536DEF8008536DBF8003536D7F856DB06D
:102E4B007F0CDFFE2290410C121E92904110121F3C
:102E5B004A123817B1ADEF600512481080F6F1D564
:102E6B00600A90410C121E3A7810B10990410CB1D6
:102E7B000490410C121E3AE48026904113125FBC61
:102E8B006022904110121F2AE94A6012121954FF56
:102E9B00B10D904111E475F001121AE480DCE4FFEE
:102EAB00B10D80D6D1BA903FA77401F022B10DD1EC
:102EBB00CCE4FFEFB4010443FE202253FEDF22B12A
:102ECB000D125C0DEF70FA903FAAE0F4600B904589
:102EDB005A7406F012615070FB903FA8E012205715
:102EEB002F07042F0F142F14152F19172F29302FDD
:102EFB002E342F33362F383700002F21436A10859D
:102F0B006A80802F436B108008436B208003436BD8
:102F1B0080856B90801D436C20856CA08015436D64
:102F2B0001800D436D108008436D408003436D801D
:102F3B00856DB090455A740CF012615070FB229065
:102F4B00439C121E9290439C121E3AF1969043A002
:102F5B00E06F6035123817B1ADEF60051248108085
:102F6B00F6F1D5600A90439C121E3A7810B1099085
:102F7B00439CB10490439C1260619043A0E0FFD14D
:102F8B00B8903FA77401F0D322C322904397121E2F
:102F9B0092123817B1ADEF600512481080F6B1ED03
:102FAB007F03F1EA600A904397121E3A7810B10939
:102FBB00904397B104904397126061B1A190439BEA
:102FCB00EFF0D1BA90439BE0FF227F01D1BED23903
:102FDB00B1F17F06B10DD1CCB1F1903FA6E0FFB1BD
:102FEB000D903FA9E0640222B1F17F05A10D90097C
:102FFB002FE0FF120D5D900934EFF022900934E0C1
:10300B007F0070027F0122E490092FF02290092F9C
:10301B007401F02290092F7402F022112D70027F9F
:10302B00012290092FE07F0022112DB402027F01B3
:10303B002212485312097A120A471208A8120B914E
:10304B0091E2700221127FFF120A06900D3E121FB1
:10305B004A7E007F093168BF540D7E007F0A3168BC
:10306B00BFA5047F0180027F00900928EFF0900D2F
:10307B003E121F2AE94A4B701D7F04FE3168EF2474
:10308B0001FFE433FEC37401125EFC7F0050027F2C
:10309B0001900928EFF0900928E06401703C900D35
:1030AB003E121F2AAE02910DFEA3E0FF900D3E12C1
:1030BB00607CE92407F9E43AFA900D41121F4AE9C2
:1030CB002408F9E43AFE910D64067004A3E0640A47
:1030DB006008120A0B900928EFF0900928E0701F86
:1030EB007E007F04C006C374849404FE741C125EBD
:1030FB001AD006316E74FFFDFCE4FFFE120A10902D
:10310B000928E0FF120A3391E27F0060027F01126F
:10311B00092A12093412086C125384125E527A1265
:10312B007922120AA61240FBFE4FFDA3E0FC4DFDD7
:10313B00A3E0FB4D600BEE5FFFEC5FFFEB5FF4700A
:10314B0003124103901220E0FF901224E06F9009CC
:10315B0023F0020B4BE92DF9EA3CFEAF01E4FCFD39
:10316B00022F9690427F121F4AE4FCFDC00790424B
:10317B007F121F2A90428212602DD007903FDE12E1
:10318B001E92903FE2121F4A903FDE121E3A903F72
:10319B00ADE024FFFD903FACE034FF5EFEED5FFF42
:1031AB00903FE7125FA36064903FE7B184903FAD1F
:1031BB00E09FFF903FACE09EFE903FE7F0A3EFF067
:1031CB00903FE5125FCF9E5003125E3C51B791C604
:1031DB00F060287160C004C005C006C00751B7E994
:1031EB004A60057153FF80027F007E0051B791FB4F
:1031FB00D007D006D005D004122E505190E94A606A
:10320B000591E9FF80727E007F00806C903FE51294
:10321B00181C606F903FACE0FCA3E0FDD3EF9DEE7C
:10322B009C400A903FE7ECF0A3EDF0800D903FE55A
:10323B00E0FFA3E0A3CFF0A3EFF051B791C6F0608E
:10324B00287160C004C005C006C00751B7E94A60C9
:10325B00057153FF80027F007E0051B791FBD007B1
:10326B00D006D005D004122E505190E94A6005913A
:10327B00E9FF80047E007F00903FE3EE8FF0121A8F
:10328B00E48089D322903FE7E0FEA3E0FFC3903FA9
:10329B00E6E09FF0903FE5E09EF0903FDE121E5679
:1032AB00E4FCFD121C0C903FDE121E92903FE202DA
:1032BB001F2AEFF4045FFFE4FEEF70037FFF22EFA2
:1032CB00D3940F4009EFC4540FFFEE4404FEEFD329
:1032DB009403400AEF1313543FFFEE4402FEEF300A
:1032EB00E1010EAF0622AB07AA06EB241FFFE43A5F
:1032FB00FEEF7805CEC313CE13D8F9F9EB541F901C
:10330B00455DF0AF057158FCAF0551C2AE01EE142F
:10331B00C39FC43354E0F9AF04C3EB9FFFEA94009F
:10332B00FEE9FDC3EF9DFFEE9400FEED600FE0FDA7
:10333B006007C374209DFD80067D0080027D007CAC
:10334B0000EF2DFFEC3EFE22903FEBE0FF51BDEF77
:10335B00C43354E022903FE7E0FEA3E0FF903FEB45
:10336B00E0FD51F1903FE9EEF0A3EFF0A3E0FF5148
:10337B00BDEF75F020A4FFAEF0E4FCFD903FDE1234
:10338B001E56021C0C904310121F4AE4FCFDC00792
:10339B00904310121F2A904313E090411C125EC8F9
:1033AB00D007904115121E92904119121F4A1238E4
:1033BB0017122DADEF600512481080F5122DED7F21
:1033CB0003122FEA600B904115121E3A7810122D42
:1033DB0009904115122D0490411512606190411C0A
:1033EB00125FBC6015122DA1904119124B779041C1
:1033FB001AE475F001121AE480E3122ECCE4FF02FA
:10340B002EBEAF017B017A0D79449043137402F009
:10341B007190900D44E02291F1121F4AE4904051BB
:10342B00F0A304F090404E12181C700281C0D3EF31
:10343B009420EE940040047F20800690404EA3E041
:10344B00FF904050EFF090404B121F2A904050E0FD
:10345B00903C7C125F82904047121E3AB111400E95
:10346B00904051E0FFA3E0FEEF4E904051F09040B2
:10347B0050E0FFC390404FE09FF090404EE094002F
:10348B00F0904047121E56904050E4FCFDFE121C7B
:10349B000C91F1121F2AE94A6007904050E0FF801F
:1034AB00027F0090404CE48FF0121AE4904052E0FF
:1034BB0025E0F0812F904051E0FF22903FE7E0FFA5
:1034CB00A3E090404ECFF0A3EFF0903FDE121E3AF8
:1034DB009122903FEBEF2290092AE0640122903F6A
:1034EB00E7E0FEA3E022904047121E9290404B2251
:1034FB00E92FF9EE3AFA903FE9E0FFA3E090411390
:10350B00CFF0A3EFF022903C75121E92903C7912F3
:10351B001F4AE4903C9EF0D3903C7DE09420903C7D
:10352B007CE094004001227B017A3C797E903C7CCC
:10353B00126004903C75121E3A71AD903C79121FCB
:10354B002AE94A6009903C9E120F79FF80027F00A6
:10355B00903C9EE0247EF582E4343CF583E06F6082
:10356B0002C322903C9EE004FFF0D3903C7DE09F91
:10357B00903C7CE0940050C322E0FEA3E0FFC3220A
:10358B00903E8E121E92E4F5FF75BB0575BB8575DB
:10359B00FF0175D5022031061245481246A775FF6B
:1035AB000143D520303102C151E4F5FF538EF7436F
:1035BB008E077D04E4F5FF8DBCF5FF43B102E5B149
:1035CB0030E2FBE4F5FFAFDFEFFEACDEECFBEBFF35
:1035DB00ED25E0248CF582E4343EF583F1EBF5FF29
:1035EB00F5FF53B1FD0DEDB40CCA903E8ED18B7827
:1035FB0009121D86A3F1EBFDED25E02496F582E47F
:10360B00343EF583E0C313FAA3E013FB125EEEE046
:10361B00C313FEA3E0132BFFEE3AFE125EEEEEF0A9
:10362B00A3EFF0ED240490120DF0EDC394075016A8
:10363B00CFEDCF0DEF125EEFB184903E93E09F90F4
:10364B003E92E09E50B2E4F5FF758EC8F5FF9012E6
:10365B000DE0F5BCE4F5FF75BB8075FF01F5D522D8
:10366B00E0FB25E025E02401F582E43412F583121A
:10367B001E92EB25E025E02401F582E43412F5835C
:10368B00E0FCA3E0FDA3E0FEA3E0FF22903DF512DA
:10369B001E92124638903E0A121E9E002DC6C0E4A2
:1036AB00F5FFF5A490120EF0A3F0903E057402F016
:1036BB0075FF03903E05E0FFF595EF146013146062
:1036CB001C24027027903DF5D18BF1E5903E0180D3
:1036DB0016903DF9D18BF1E5903E02800A903DFDAD
:1036EB00D18BF1E5903E03E0903E0EF01258029024
:1036FB003E0EE07005125FF6805890120EE004F05B
:10370B00903E051227B6903E0AD18B903E0612587A
:10371B00B0FBC3121D755009903E06D18BA3121E30
:10372B0092903E0EE0FF125683903E04E0FFA3E022
:10373B00FDA23492321257B0A3D18B904393121E39
:10374B0092903E05E0FF12580F903E05E0D17E129D
:10375B0055EB1260F16002C1BB7402F075FF039070
:10376B003E051261587018FF7E04FDFC903E0A1254
:10377B0046137801121D86903E05D16B1255EB1244
:10378B0060F170D8125EE0400343F420A234923310
:10379B001256E2903E0A125F512420FFEE344E1275
:1037AB004630E4FB7A04F9F812461E7801121D86A6
:1037BB00C231F1F29012137401F07E127F01E4FD1D
:1037CB008F828E83EF2DF582E43EF583E0FC901221
:1037DB0013E02CF00DEDB412E722903E06021E9280
:1037EB00EEF0A3EFF0E422B18BE4F5FFE5BD54F866
:1037FB004404F5BD2275FF0275E40475E40175E41C
:10380B00022275FF0275E404E4F5E42275FF02E57C
:10381B00E430E10675E40675E403227E127F0BE4C7
:10382B00FD113C1117122DADEF600512481080F5FC
:10383B0022AB05E4FCFD9043A0EBF0022F4A904530
:10384B0058EFF0C22F901220E060207E127F0B12F7
:10385B003168BF01087FFF120D717F00229040413C
:10386B00E06008901220E0FF120D71112690455870
:10387B00E070022101E4904045F0904041E060028D
:10388B003129904558E0FFB4010790404574018001
:10389B0009EFB403109040457402F031219040437E
:1038AB007404F08049EF64047036901220E0701FAE
:1038BB00D22F12544AEF700F31211254427E127FD5
:1038CB000B7D01113C112E9040417404F0803A9015
:1038DB00092AE0B40505E4F0120B1431217F002214
:1038EB00904558E064027021904043F031219040A4
:1038FB00417402F08013E4904045F012544AEF609B
:10390B000211269040417401F0312C904041E07F30
:10391B000060027F0122901217E05403F022740121
:10392B00F0904041E0640270227C397D9A7F011255
:10393B000920E4FBFAFD7FFF1209077E3A7F22C0C4
:10394B0006C007F1A4D007D00641BE904041E06409
:10395B00037017FFFE9124904045E07C397D9AB4AB
:10396B0002047F0380117F02800D904041E0B4047C
:10397B000B7C397D9A7F041209204122904041E053
:10398B00B4010BF1DB91453121E4904041F02290E1
:10399B004525EFF0A3EDF09145904525E0B40112DC
:1039AB00A3E0904042F031219040417405F07FFE3E
:1039BB00805E904525E064027022904045E06402F1
:1039CB00705490403CF09040417403F07E3A7F225B
:1039DB00C006C007F1A4D007D00641BE904525E034
:1039EB00703412099DEF64016029302F14120D857C
:1039FB00EF600C12099DEF600690452674FFF0C234
:103A0B002F1126904041E060023129904526E0FFBE
:103A1B00020D711209A7229145904041E0B4020AB0
:103A2B00F1DB9040417403F0212C904041E06403A2
:103A3B007069904043E06056904045E0B401051238
:103A4B000B19800A904045E0B40203120B1E904004
:103A5B0043E014F0E0601F9132EF75F04684E5F01F
:103A6B0075F064A4FFEF24A0FFE5F0340FFEE43300
:103A7B00FDE433FC8007E47FA07E0FFDFC904193B7
:103A8B00121E927E3A7F22E4904197F0802590405F
:103A9B00417401F0312C7FFD020D71904041E0B477
:103AAB00041012540DEF6007125E23E4FF807112B5
:103ABB000B192251C6904046EFF022904191EEF047
:103ACB00A3EFF07FFFA3121E56E8494A4B605090BC
:103ADB0041987403F0904198E0FEC3940E5040EE71
:103AEB009189E0703290419891877405F0C00790EE
:103AFB004193121E3A90418C121E92904197E09086
:103B0B004190F0904191E0FCA3E0FDD007D11990DA
:103B1B004198E004FF8008904198E004F080B622C1
:103B2B00125456EF70087FA07E0FFDFC61CC12542F
:103B3B008D90403CEFF07406D39F4067E0605A9144
:103B4B003D7E0090403CE014FDE5F0A805088005A3
:103B5B00C333CE33CED8F9FFF1E2912690403D121C
:103B6B001E56C000C001C002C00390403CE014FFD1
:103B7B0074107E00A807088005C333CE33CED8F966
:103B8B00FFEE3395E0FDFC917F121C27D003D00292
:103B9B00D001D000121C0C8028913DAFF07E00F1BB
:103BAB00E2801E904044E0FF600FE4FCFDFEFB7AD8
:103BBB00F47901F8121C2780087F007ED07D077CEA
:103BCB000091261254157E3A7F22C006C007912C15
:103BDB00F1ABD007D00651BE125467EF703A917912
:103BEB00D3121D754007E47F01FEFD8022917912EF
:103BFB001CB29126912CE47B01F1D45014912CC36F
:103C0B00EF9401FFEE9400FEED9400FDEC94009117
:103C1B0025912C120B32F1F122FDFC90403D021E3E
:103C2B009290403D021E3A900923E064AA2411FFB2
:103C3B00F0229132EF75F0A08422904046E0FF9184
:103C4B0052E4904046F022AB07E4FF1BEBC3940E0B
:103C5B00501BF197F583121E9E00000000B1E2127B
:103C6B001E9E00000000EB9189E4F07F0122904042
:103C7B003D121E3AE47BE87A03F9F822E0FF75F077
:103C8B000CA42475F582E43433F58322D390000120
:103C9B00E09400900000E094005002A1E1C2ADE07E
:103CAB00FFA3E09045211260BD900000F0A3F0D27D
:103CBB00ADF574B1F112181C604AC3904522E09F18
:103CCB00904521E09E4021B1FFE0B4010FB1FF749C
:103CDB0002F090044CE0FFB1F1E48024B1FFE4F07A
:103CEB00B1F1E4F0A3F0801CB1F1C083C082E0FE1F
:103CFB00A3E0FF125E6DC3EF9DFFEE9CD082D083DD
:103D0B00F0A3EFF00574E574640370A7903418E02A
:103D1B00FF601FF4601C7E00125E6DC39FEC9E4023
:103D2B00087A007B007F008004C3EF9DFF9034185E
:103D3B00EFF0E4F574E5749189E07002A1D0904541
:103D4B0021125F2FE574B1E31260FA5056D10BF5D7
:103D5B0083E0FF600AF46007D10BF583E014F0D128
:103D6B000BF583E06012E574F198F583121E3AE5CA
:103D7B0074B1E3121E928011E5749189E4F0E5743D
:103D8B00B1E3121E9E00000000D173E0FEA3E04ED3
:103D9B00600CD173E0FEA3E0AA06F91220B712481B
:103DAB00108022E574B1E3C083C082121E3AC006B4
:103DBB00C007F1E91250AAD007D006121C19D08205
:103DCB00D083121E920574E574C3940E5002A14069
:103DDB00F1E9FF120A4222EB75F00CA4246AF5827A
:103DEB00E43433F58322E57425E02412F582E434C0
:103DFB0034F5832274672574F582E43433F583221A
:103E0B00E57475F00CA42474F582E43433229041EC
:103E1B008AECF0A3EDF0904189EFF0FB90418C120E
:103E2B001E3AF197F583121E92B1E2121E92B1E285
:103E3B00C083C082121E56900000125F2F121C0C02
:103E4B00D082D083121E92904190E0FF904189E086
:103E5B00FED10DF583EFF090418AE0FCA3E0FDEE7F
:103E6B00D175ECF0A3EDF022E57475F00CA424727F
:103E7B00F582E43433F5832290426112502590424F
:103E8B006674FFF0904265E0904267F0904267E005
:103E9B00FFC3940E505FEFB1E3121E3AE4FBF1D473
:103EAB00704B904265E07E0170027E0290426791FA
:103EBB0087EEF0C007904263E0FF7E006005126161
:103ECB002180027F0AE4FCFD90418C121E929042ED
:103EDB0064E0904190F0904261E0FCA3E0FDD007DC
:103EEB00D119904267E004FF904266F0229042673E
:103EFB00E004F08097904266E0FF22900DE2EFF035
:103F0B00A3EBF0900DE2E02467D103E0FEB40203D3
:103F1B007F0022EE701E900DE2E0FF2467D1037448
:103F2B0001F0900449E0FCA3E0FDEFB1F3ECF0A34A
:103F3B00EDF0802AED241BFFE433FEE4FCFD7B0C4B
:103F4B00FAF9F812048AEF2405FF900DE2E0B1F3C1
:103F5B00E0FCA3E0C39FEC940050037F002290345D
:103F6B0018E0B4FF15900DE3E0540FFFBF0103E41D
:103F7B00800490045DE0903418F0903418E06003F6
:103F8B007F022290341874FFF07F0122EB75F00C46
:103F9B00A4246EF582E4343322E47FD07E07FDFC4B
:103FAB00904193121E92E4904197F022AB07E4FAF2
:103FBB001BEBC3940E500FF197F58312613860061B
:103FCB00B1E2121E920AAF0222FAF9F8C3021D7572
:103FDB00E4FDFCFF0209207C007D640220E190459A
:103FEB0021E0FEA3E022124BF3900932EEF0A3EF97
:103FFB00F02220082C901217E030E10B12004E50EB
:10400B00067E007F0180047E007F00EF4E7012124F
:10401B000BC8EF700C120BFFEF7006123FF17F0114
:10402B00227F00229004FDEFF09004FFEBF0900450
:10403B00FEEDF0540290123FF0123FFDEF7002C301
:10404B00229004FDE0B40411A3E0FB7D017F01117C
:10405B008D9004FD7403F080179004FDE0B405050A
:10406B00120B23800B9004FEE0FB7D01E4FF118D0E
:10407B009004FDE0900929F09004FFE090123EF0CF
:10408B00D322EB600875FF0153CDFD800675FF0150
:10409B0043CD02ED600553FBDF800343FB20EF6054
:1040AB000775FF0243E1402275FF0253E1BF221265
:1040BB000B237F0143FB1075FF0243E640EF600DBE
:1040CB0075FF02E5E120E7FB43FB0D800343FB0E8D
:1040DB0080FE75FF028FE322901220E0701011FB1F
:1040EB004FFFA3E04FFFA3E04F7003D38001C32228
:1040FB00901222E0FFA3E022E4FF12109CEF603F3E
:10410B005196314B5009901222E0C394C040F17B81
:10411B00017A127924314B500E11FB5FFFA3E05F44
:10412B00FFA3E05FF460E8901229E030E0057F0127
:10413B0012109CE4901220F05196E0FD120AAB2273
:10414B0090409A518D9040A0121E9E00000001904D
:10415B0040A47401F0F5FFE5D554C07005124C5F17
:10416B005002C322E4F5FF53967F75FF0175D5040A
:10417B00B14875FF0143D508E4F5FF5394FBF5FFF8
:10418B0053847FF5FF7598FF90409EE5F4F075F42E
:10419B009C75FF01A3E5E4F075E4257B017A40797A
:1041AB00A4F1919040A4E064016002416BF5FF9093
:1041BB00409D7414F09040A012368B7801121D991B
:1041CB009040A0121E92E5A730E1FB43A70290405E
:1041DB00A012368BE5A730E005E47B018002E4FBFF
:1041EB00FAF9F8EF4BFFEE4AFEED49FDEC48FC9077
:1041FB0040A0121E9290409DE014F070B89040A029
:10420B0012368B7810121D867B6D7A4E79C67841EB
:10421B00121C27EF2439FFEE3430D130E4FBFA794E
:10422B0001F8121CB2EE547FFEE4FDFC125A4B90C7
:10423B0040A012368BEB6FFFEA6EFEE8CDEFCDCCD4
:10424B00EECCECFF519DEF121A13519D900001ED36
:10425B00121A2590120FE030E606E4F5FF759680F2
:10426B0075FF01E4F5D590409EE0F5F475FF01A3D1
:10427B00E0F5E41256D19040A4E0B40103D38001E1
:10428B00C322EBF0A3EAF0A3E9F0227B017A1279C7
:10429B00222290409AE0FBA3E0FAA3E0F922E4F596
:1042AB00FF758EC8D1A775FF0153D5FBD1077F14BE
:1042BB007E00718375FF0343918022C221E49044F9
:1042CB007CF0C222A3F0A3F075FF01E5D520E70235
:1042DB00C322C238D1CF202102617453F4DF904442
:1042EB007CE0FF1226E3F1CA30220543F440800341
:1042FB0053F4BFE4F5FF53F5F090447DE0FAA3E0EF
:10430B00FBEA42F5EBF5F6D238D1CF7FC851BBE4CF
:10431B00F5FFE59320E60512179C40F3302257E595
:10432B00F430E3047D288010E5F430E2047D28802E
:10433B0007E5F430E1027D28D1077F2851BB121726
:10434B009C40FB7F7851BB12179C502AF1C350F74E
:10435B00125AB9EFC39D50EFF1C350EBE5F720E5CF
:10436B00E6C238D1CFD10780DE53F4BF125EE640F0
:10437B000543F420F1EDD32275FF03D3EF9402EE46
:10438B009400400874FE2FFF74FF3EFEEFF592EE93
:10439B00540FF59122903CED121E92903CFD74014E
:1043AB00F0E4A3F0D13875FF02E5E630E00D903C68
:1043BB00FE7401F0FB7A3C79FEF191903D08121EE0
:1043CB009E002DC6C0E4F5FFF5A490120FF0903CB3
:1043DB00FF7402F075FF03903CFFE0FFF595EF14BF
:1043EB00601414601E2402702A903CED12368BD19F
:1043FB00C3903CF98018903CF112368BD1C3903CA2
:10440B00FA800B903CF512368BD1C3903CFBE090BD
:10441B003D0CF0125802903D0CE07005125FF680D7
:10442B006C90120EE004F0903CFF1227B6903CFE0D
:10443B00E0701D903D0812368B903D041258B0FB76
:10444B00C3121D75500A903D0412368BA3121E9297
:10445B00903D0CE0FF125683903CFCE0FF903CFF3C
:10446B00E0FDA23592321257B0903CFEE0701490F2
:10447B003D0412368B904393121E92903CFFE0FF4B
:10448B0012580F903CFFE012367E1255EB1260E88B
:10449B00600261DF903CFEE07048A37402F075FF90
:1044AB0003903CFF1261587013903D08D10E7801B8
:1044BB00121D86903CFF12366B1255EB1260E870A2
:1044CB00DD903D08125F512420FFEE344ED130E4D5
:1044DB00FB7A04F9F8D11E7801121D86903D00126B
:1044EB001E92125EE0400343F420A2359233125623
:1044FB00E2903CFEE024FF9231903D0012368B128D
:10450B0037F2E4F5FF75E508F1F4E59B30E7FB5175
:10451B00A9D1C943D5047FC851BB1237BFB14F7B5B
:10452B00017A3C79FD12562B90120EE0B40102F188
:10453B00CA903CFDE0B40103D38001C3227F3FFE50
:10454B00718351BF75FF03E59120E7FB22E4904394
:10455B00FEF0A304F0E4904401F0E5FA30E1FB75C2
:10456B00FF01E5D530E7037F0022E4F5FF75E50891
:10457B00F1EDE5D530E61A75FF01904400E5DAF070
:10458B00E4F5DA75FF01E5D630E3FB9044017401E5
:10459B00F0F1F4E59B30E7FBE4FB75FF038B951221
:1045AB00367D1255EB0BEBB403F075FF037595805D
:1045BB0051A9D1C943D504904401E07008D1077FBC
:1045CB00C851BBB14F7B017A4379FF12562B9043F5
:1045DB00FFE09043FE7006E04404FF8002E0FF9092
:1045EB0043FEEFF090120EE0B40102F1CA75FF0129
:1045FB00904400E0F5DA9043FEE0FF2275FF03E400
:10460B00F59122FF7E04FDFCE0F8A3E0F9A3E0FAAC
:10461B00A3E0FB121C27E47B7DFAF9F8121CB2EF26
:10462B002401FFE43EFEE43DFDE43CFC2275FF0269
:10463B0043E180F1D175FF01438E1075FF0153DB10
:10464B007F75FF0175D50251B9D1C9438E1075FF26
:10465B000143DB8075FF01E4F5D522CDEFCDCCEE28
:10466B00CC1255D7AB94EF4B1255E3CBEFCBFAE50E
:10467B009130E71A1255DAA994E9F582EF4582FFDA
:10468B00EB126111C3EF9582E5F0958340E1E59163
:10469B0020E708CEECCECFEDCFB14B22E4F5FF7582
:1046AB00C2E17F1E1260DF30E707E4F5FF75C2A1A0
:1046BB0022E4F5FF75C28122903D04021E92B14F98
:1046CB0075FF0122AFF4EF547FF5F4303805EF445A
:1046DB0080F5F475FF01E5D520E702C322E5F4D39D
:1046EB0030E601C322900DDEEFF0C238D1CFD221DC
:1046FB00900DDEE090447CF0D222A3E4F0A374345E
:10470B00F051D3E4900DDFF0124C5F5050900DDF61
:10471B00E0704AE5F754C060EFF17EF17E900DDF5B
:10472B00EFF064557023F17E900DDF12603A6F60ED
:10473B000E900DDFE0B4FF0F901215E030E11690F4
:10474B000DDF7402F080C1800C900DDFE0B45405D6
:10475B007433F080B3900DDF7401F080AB900DDFFC
:10476B00E0B40207C2371216B3800051C6900DDFBA
:10477B00E0FF22E5F720E008E5F754C070F5FF22D3
:10478B0043F701AFF922904479518D7F017C127D63
:10479B0001E4FE8D828C83ED2EF582E43CF583E003
:1047AB002FFF0EEEB412EC901213E06F60099044E1
:1047BB007951A0E4121A132275FF01E5E433227537
:1047CB00FF0143D81022E5FA30E1FB75FC8075FF41
:1047DB000153D5EFE4F5FC75FC40D107E5FC20E671
:1047EB00FB2275FF0153D8EF2275FF03759B0475F0
:1047FB00FC4175FF0322AE07123C32EE04FEEF8E36
:10480B00F084AFF022E51430E20FE51420E50AE561
:10481B001430E0057F0112109C22123817122DADB7
:10482B00EF6004111080F67F01122EBED239122DCB
:10483B00F17F06122ECA122DF17F01122D0D7F036F
:10484B00122ECAE4FF022EBE7B017A3F79A87D01AE
:10485B007F03120B697A3F79B17F0851237A3F7935
:10486B00AE7F0951097A3F79AC7F0B5109903FAC70
:10487B0012181C6006BEFF16BFFF135110500280AA
:10488B000451198009903FACE4F0A37440F051102F
:10489B0050028008903FA97403F08006903FA974E2
:1048AB0002F0903FA8E012205748D00448DB144890
:1048BB00E31548EB174901304909344911364919B9
:1048CB0037000048F675FF015366EF8566FD80479C
:1048DB0075FF015367EF800E75FF015367DF80068D
:1048EB0075FF0153677F8567C9802C75FF0153687E
:1048FB00DF8568CA802175FF015369FE801675FF3D
:10490B00015369EF800E75FF015369BF800675FF78
:10491B000153697F8569CB122ECC7F1131FBE4FFEC
:10492B00122CA4122D15903FA67402F0903FAAE012
:10493B00247F60090470155101740A8006512A51B5
:10494B00017458F0903FA97403F05119903FABE0FC
:10495B00F4600221F9903FAEE0FEA3E0FF64104E3D
:10496B007006903FAB740EF0EF64204E7006903FD4
:10497B00AB740FF0EF64404E7006903FAB7410F0C9
:10498B00EF64804E7006903FAB7411F0E4B5070AEC
:10499B00EEB40106903FAB7412F0E4B5070AEEB427
:1049AB000206903FAB7413F0E4B5070AEEB40406AD
:1049BB00903FAB7414F0E4B5070AEEB40806903FD1
:1049CB00AB7415F0E4B5070AEEB41006903FAB7468
:1049DB0016F0E4B5070AEEB42006903FAB7417F05F
:1049EB00E4B5070AEEB44006903FAB7418F001250E
:1049FB00EF4420F5FE227F1031FB903FA6227B0176
:104A0B007D02020B69903FB1E024FE24FD22903F12
:104A1B00AC7401F0A3E4F0227B017D01020B6990E1
:104A2B003FA3E020E017122DED7F3D122D0D7F2AC5
:104A3B00122D0D7F80122D0D7FA6122EB82230174E
:104A4B000C9031C1E07006FF1208DAC2173019233F
:104A5B00AF1F90045CE0FEEFC39E400AEF9ED39421
:104A6B00024010C2192290045CE0F42FD394014051
:104A7B0002C2192290092D12181C6009CAEECAC96C
:104A8B00EFC91220B722D2ADD2BD75FF02758E7160
:104A9B0075730975FF02E58E546F4480F58E904354
:104AAB00F2121E9E0000000022C0E0C0F0C083C0C6
:104ABB0082C0D075D008C0FF75FF02E58E30E43E92
:104ACB0075FF02E58E54EF4410F58E9043F2121EE3
:104ADB003A12462A9043F2121E92900000E475F0AF
:104AEB0001121AE4E57330E0020551E573700D75A0
:104AFB007309051FE51F7002051E8002157375FFF4
:104B0B0002E58530E40875FF024385100575D0FF7B
:104B1B00D0D0D082D083D0F0D0E032F0A3EFF07EB3
:104B2B000C7F0EE4FB7D01E4904265F0023E83E0D6
:104B3B00FEA3E0FFA3E0FDA3E0FB80EB90426BEC58
:104B4B00F0A3EDF0904268121F4A717E90426B7198
:104B5B003A904268717790426812145AB4FF04E499
:104B6B00121A1390426812145AFF22FF121F2AEFD7
:104B7B00021A13904476121F4A90447612145AFF6D
:104B8B00123C52904476121F2AE4021A137BFF7DCB
:104B9B00019042657403F0023E831FEFC3940E50E5
:104BAB0009EF123DE3121E3A8005E4FFFEFDFC22E5
:104BBB00E4FEEFC3940E5013EF123C89E05D7C00D2
:104BCB00B505027C01EC2EFE0F80E7AF06227D02BD
:104BDB00E4FF80DC7D017F0371BBAB0771D9EF2B49
:104BEB00FF22E4FD7F0380C8A2AD9229C2ADAF1FA7
:104BFB00AE1EA22992AD2224F5F9E43AFA121B104B
:104C0B00FFAEF0AD07AC0671F3C3EF9DEE9C400811
:104C1B00EF9DFFEE9CFE8013EDF4FDECF4FCED2418
:104C2B0001FDE43CFCED2FFFEC3EFE22900932E04F
:104C3B00FEA3E0FF910ED3EF94C8EE22915F5004D8
:104C4B00B1104003301903D38001C322C2EBA2ED94
:104C5B009218C2EDE5F4C330E701D322E5137022BD
:104C6B0091575005C2371216B3B1031227DEE5D1A7
:104C7B0020E0FB4314205314FEE4F510A21892ED30
:104C8B00D322C322B1177F02120D80E4900DE0F006
:104C9B00A3F0900DE1E0FFC39403503A1246F0905D
:104CAB000DE0EFF0BF02028015900DE0E0B4331978
:104CBB00E4F0A3E0FF1246F0BF0213900DE0740185
:104CCB00F0A3E0901221F0800DE4900DE0F0900D38
:104CDB00E1E004F080BC900DE0E0700D915F5005B9
:104CEB00C2371216B3B1038008901221E0FF1208ED
:104CFB00AD900DE0E024FF221247D17F08020D801A
:104D0B00E4F5138167E5F754E024FF22901222E0CB
:104D1B00F4FFA3E06FFFA3E06FFFA3E06FFF645509
:104D2B00601DEF64056018EF64256013EF64456048
:104D3B000EEF64656009EF644A6004EFB40A010F7B
:104D4B00900434EFF022AF13EFC36001D322EFC313
:104D5B00940E5005900436EFF022E516540FFF2207
:104D6B00E516C394F0501F5316F0B194FE740FC3A5
:104D7B009F4005EE940E400543160D8003EF42163F
:104D8B00E516540FFF227F0022E516C4540FFEEFE9
:104D9B00900DBD932E22B194FFC3940E40027F0D54
:104DAB00EF900D9F93FF22EF30E30D743A2DF582B8
:104DBB00E43404F583E0FF22744D2D1260D6FD2000
:104DCB001A04EE30E00BE516C394F05020B1FB80D3
:104DDB0018E5186006FDE4F5188012E516C394F08B
:104DEB00500BE516540FFF6004B1A1AD07AF0522C0
:104DFB00900436E0FDFFC3740ED122EFC4F8540FBC
:104E0B00C868FFEEC454F048FEE51654F0125EFB82
:104E1B007F005002AF05229FFFE49400FE22431453
:104E2B00015314DF900DBFE0FDB1B2900DBFE0FD5B
:104E3B00D1744004E4F5132243FA045314FB302AD3
:104E4B00051226D9800A7F55D15D7F55D15DD2EBF6
:104E5B00D32275FF01E5D520E602C322E5FA540300
:104E6B0060FA75FF018FC3D32290051EEDF0A3EFFF
:104E7B00F07F01120D8090051EE0FFA3E0FBE49094
:104E8B004279F07D02D19650EDD3229042761250AA
:104E9B002890427C7401F0C236F1AE12179C50057B
:104EAB00E5FC20E6F61217A7BF0108E4F5FC75FC3C
:104EBB004080081217A7BF0202D3221247ED90427F
:104ECB0077E0FF125A5875FF0153D5DF53FAFB9069
:104EDB004276E0FF1226E3904277E0904276B408E8
:104EEB000D1258A1125F51245212462D8004E0126C
:104EFB00367E1255EB904278E0FFF1E575FF0175B8
:104F0B00FF03759B04F1AE75FC42E5FC20E1051235
:104F1B00179C40F3904279E0F075FF03E59B20E787
:104F2B000512179C40F3E59B20E70D75FF03759B5E
:104F3B001F1247D1D2368050F1A71247919042777A
:104F4B00E0FD90120FE05D701D904276E0FFF1A73F
:104F5B001258BB90120FE0FF904277E0FEEF4E909D
:104F6B00120FF01237BF1246A77B017A42797A12E1
:104F7B0055C2500FC390427BE0942090427AE0944C
:104F8B000340E6F1A712562B12454F303602C19C57
:104F9B0090427CE0B40103D38001C3227B017A42AF
:104FAB00797C227FE87E03F1B70242BF9043F6F192
:104FBB00EB7A4379F81255C250149043F8E0FEA3F4
:104FCB00E0FF9043F7E09F9043F6E09E400B904349
:104FDB00F6E0FEA3E0FF1243832275FF018FDA2276
:104FEB00EEF0A3EFF07B0122900931E06402702810
:104FFB0090044D125028900D58E090043AF0900D0B
:10500B0059E090043BF0900D5AE090043CF0900472
:10501B004DE0FF120966D322C322EEF0A3EFF0A3FB
:10502B00EDF0A3EBF02290440A112511B111AA1156
:10503B00B911CAC006C00790440A11A3D007D00605
:10504B00D3121D5F7E0050047F0180027F00C006DB
:10505B00C00711B111AA11B9D0E02FFFD0E03E90DB
:10506B00440AF0A3EFF053ECFC90440A11C3540331
:10507B0042EC75FF02EDF5AF75ED0275ED04A3E0A3
:10508B00600543EC08800353ECF790440DE060049B
:10509B0043EC042253ECFB22E0C313FEA3E013FB0F
:1050AB00AA06E4F9F82290440AE0FEA3E0227F80EE
:1050BB007E387D01FC02048AE0FCA3E0FDEC22AC0F
:1050CB0000AD01AE02AF0322900DBA121F4A90043D
:1050DB004DE0121A1390044EE0FF900DBA3128EFF9
:1050EB00121A1390044FE0FF900DBA3133FAEF12FE
:1050FB001A1390043AE0FF900DBA313DFAEF121AF1
:10510B001390043BE0FF900DBA1212E0EF121A134A
:10511B0090043CE0900DBA3147EF021A13121F2A8C
:10512B00E92401F9E43AFA22121F2AE92402F9E4EC
:10513B003A22121F2AE92403F9E43A22FF121F2A0A
:10514B00E92405F9E43AFA22E51654F0C4540F2F7A
:10515B00FFC3941040027F0FEF900DAD93FF227EA3
:10516B0010EE60091EEE900DAD93B507F4EEC394EF
:10517B000E40027E0DEE900D9F93FF22C2AFEF42C9
:10518B0014D2AF22C2AFEFF45214D2AF227F02314E
:10519B008F90092BE0900930F090092B04F0C39409
:1051AB000222EF24FE600C24FE600580007F0122AA
:1051BB007F02227F032275130175190790044BEFB1
:1051CB00F09004357403F0C374799B90045FF0E4A2
:1051DB00940090045EF022E51420E50DC237121600
:1051EB00B31227DEE5D120E0FBE4F5102251045089
:1051FB0007E475F001121AE422C390043EE094FF19
:10520B0090043DE094FF22901215E0302C044402F0
:10521B00F02254FDF02290045EE0A3E0FF22900DFB
:10522B0096121F4A900D99EDF0E4A3F0ED54FE9009
:10523B000D99F06030E4FF12109CBF0128900D9681
:10524B00121F2A12414B501D900D97E475F002125C
:10525B001AE4900D9AE02402F0900D9AE0FF900D65
:10526B0099E06F70D87F0112109C900D9AE0FF228D
:10527B007D025129EFC36001D322900DC0EFF0EDF9
:10528B0024FE60191460262402703BEB2402FFE419
:10529B003AFE7C007D50121A477D60801E51F3C38D
:1052AB0033CE33CED8F9FF7C007D28800E51F3C36B
:1052BB0033CE33CED8F9FF7C007D64121A59900D92
:1052CB00C1EEF0A3EFF0900DC0E07107C083C08278
:1052DB00121E56900DC2E02401900DC151FE121CFE
:1052EB000CD082D083021E92EB2401FFE43AFEEF36
:1052FB00780322FFE03400FEE4FCFD2225E025E0EC
:10530B002450F582E43404F58322EF7107121E3A20
:10531B00021DFCE49004507135E49004547135E4A3
:10532B00FFFEFDFC900458021E92FFFEFDFC021EC8
:10533B0092A2EB922DC2EB7A04793D7B017D0CE4BA
:10534B00FF120A9CA22D92EB22A2EB922EC2EBEB48
:10535B00C0E0EAC0E0E9C0E07A04793D717CD0E0BE
:10536B00F9D0E0FAD0E0FB7F0C120ACEA22E92EB22
:10537B00227B019042B2021F4AE490430DF0FBFAEC
:10538B00F91217DEE4900432F0904308F022120871
:10539B006290430CE014F06005A374058005904304
:1053AB000D7407F00212EB90430DE0FF64066004EE
:1053BB00EFB401031212EB900432E0600FE4F090B3
:1053CB004308E0700771D860031208BC22901229C1
:1053DB00E0543022E4904308F00209757F017E000F
:1053EB009017FCE4935EFE7401935F4E24FFB3228F
:1053FB00900001740193B40007E493B41802C32224
:10540B00D322901217E05408FF22910DEF6010E4A5
:10541B007FA07E0F123C24901217E054E7F02290ED
:10542B001217E0FF74E0D39F4005E02410F022EF49
:10543B006410901217F022901217E04404F022909F
:10544B001217E07F0030E2027F0122901217E05426
:10545B0014FFBF14047F0180027F0022901217E01B
:10546B007F0030E0027F0122904041E0B4040D90B8
:10547B004046E060079167EF7002FF22904041E0E9
:10548B00FF22901217E0C4135407FF229031E0E083
:10549B0070097B017A3179D8120A159031E0E0441A
:1054AB00C0F09031E3E054FEF0A3E044C0F0903143
:1054BB00E7E054FEF0227405D39F500B7463C39F37
:1054CB004005904044EFF0904044E0FF22EF701114
:1054DB00ED600775FF0143AE012275FF0153AEFE70
:1054EB0022EFB40114901248EDF0600775FF0143F1
:1054FB00AE022275FF0153AEFD2275FF02E5E630C9
:10550B00E2037F0322E5E630E3037F0022E5E6308A
:10551B00E1037F0422E5E67F0530E0027F0122EF05
:10552B00600775FF0253E6BF2275FF0243E6402278
:10553B00EF14600F146014240270188B8075FF0138
:10554B008DFD228B9075FF018DC9228BA075FF01FC
:10555B008DCA22AF038FB075FF01AF058FCB2290A1
:10556B004270121F4AEF1460111460182402701E4F
:10557B00B1A4E580B1AAE5FD801CB1A4E590B1AA68
:10558B00E5C98012B1A4E5A0B1AAE5CA8008B1A40F
:10559B00E5B0B1AAE5CB021A13904273021F2A128F
:1055AB001A1375FF01904270021F2AE4F5FFAF91A9
:1055BB0022E4F5FFAF9222B1D7AD94EF4DB1E38F5B
:1055CB00F0121BC0E591C330E701D32275FF03AF87
:1055DB0093EF75F010A4FF2224FBFFE5F034FF22BC
:1055EB009043FA121E9275FF019043FAA3E0FDA3BC
:1055FB00A3D1218FE19043FAA3A3E0FEA3D1178F90
:10560B00E29043FAA3A3A3E0FF8FE322E4FFE4FDC0
:10561B00FC7808021D86E4FFFEE4FC7810021D8670
:10562B00C23075FF03759B1F75FF0390120FE020AF
:10563B00E71BE59A540FC394024012E04480F0E458
:10564B00F5FF75C2A143FC0475FF03D230E5FC30B6
:10565B00E609E59A540FC3940540CDE5FC30E611FD
:10566B00E4121A1375FC80F5FC75FC40E5FC20E692
:10567B00FB3030031237BF22EF30E00E43F401E46E
:10568B00F5FF43A404F5FF759624EF30E10E43F4C8
:10569B0001E4F5FF43A408F5FF759624EF30E2090A
:1056AB0043F402E4F5FF75961EEF30E30943F4046F
:1056BB00E4F5FF75961075FF01EF5403600475D781
:1056CB00122275D72D22E4F5FF7584E6F5FF43947E
:1056DB0004F5FF75981422E4F5FF75933F75FF03EE
:1056EB00759A40D1D1E4F5FF759C93F5FF75A1A395
:1056FB00F5FF758531F5FF758628E5FA5430448042
:10570B00F5FA75FF0175E74A75FF0275DF4975FFFD
:10571B000143D30475FF0153D367E4F5FF53E6BF91
:10572B0075FF0175D825F5FF75B503F5FF75B21536
:10573B00F5FF75BA02F5FF75AFB3F5FF75CD0AF539
:10574B00FF75CB08F5FF75CA12F5FF75BF0EF5FF98
:10575B0075CC96F5FFF5BDF5FF75C281F5FF75AEFE
:10576B00E1F5FF75DA55F5FF75F580F5FF75E90382
:10577B00F5FF75E933F5FF75972A75FF01759B42A8
:10578B00759CA4759D29759E48759F2475A11275EE
:10579B00A312759AF820330CF5FF43968090120FE5
:1057AB00E04440F022CCEFCCCFEDCF74017E00C8AB
:1057BB00EFC8088005C333CE33CED8F9FFCDECCD7F
:1057CB00EF5D601B30321875FF0175DCAD75FF01A5
:1057DB0075DDCDE4F5FF759A74F5FF75948422752C
:1057EB00FF0175DC5375FF0175DD33E4F5FF759A29
:1057FB0014F5FF7594042275FF0175E46575FF01BF
:10580B0075D64722904392EFF0E4A312460E78012F
:10581B00121D86904392E0FB11A2121E9290121061
:10582B00E064806070E0C3947F5038EB11A2C083BA
:10583B00C08212368BEEC0E0EFC0E0901210E07524
:10584B00F004A4AEF0FBCAEECAEA3395E0F9F8D047
:10585B00E0FFD0E0FEC3EF9BFFEE9AFEED99FDEC6F
:10586B0098802A90439211A1C083C08211B0FB9003
:10587B001210E0F40475F004A4FFAEF0EE3395E0E3
:10588B00FDFCEB2FFFEA3EFEE93DFDE83CFCD08240
:10589B00D083121E9222E025E025E02401F582E45C
:1058AB003412F58322E0F8A3E0F9A3E0FAA3E02297
:1058BB00904402EDF0901211E0F46005A3E0B4FF08
:1058CB000C9044047418F0A37413F0801090121110
:1058DB00E0904404F0901212E0904405F012195439
:1058EB00640160024125904402E0FE64086004EE0E
:1058FB00B404089044037428F08006904403743A6F
:10590B00F0EF12367E121D51E45126EF24D8FFEE34
:10591B00343FFEED3493FDEC3416FC7B007A80793A
:10592B0003780012048A514B904405E0FF90440425
:10593B00E0C3124E22E4FCFD121C27ECC0E0EDC0CC
:10594B00E0EEC0E0EFC0E0904405E0FFE4FCFDFEBC
:10595B005126D0E0FBD0E0FAD0E0F9D0E0F8EB2F05
:10596B00FBEA3EFAE93DF9E83CF8904403E0FFE43A
:10597B00FCFDFE121C27EF2454FFEE340B124630B5
:10598B00E47BA87A16F9F812048ACBEFCB90440289
:10599B00E014605E14601B24FE600C24FC707BE43E
:1059AB00F5FF75CE318006E4F5FF75CE21F5FF8B43
:1059BB00CF22E4FAE4F5FFEA2440F5CEE4F5FFEA62
:1059CB00FFC37407124E2274672FF582740E3EF5D7
:1059DB0083E4512EC39DF5CFE4F5FFEA2448F5CEC1
:1059EB00E4F5FFEA900E67512E2DF5CF0AEAB408C5
:1059FB00C322E4F5FF75CE01F5FF8BCFF5FF75CE16
:105A0B000EF5FFEB25E0F5CFE4F5FF75CE0FF5FFB7
:105A1B00CFEBCFEB75F003A4F5CF227B64FAF9F84B
:105A2B00021C279325E0FDE433FCEB75F010A4FF7B
:105A3B00AEF0121A59CDEFCDEBFFE4C313EF1322E7
:105A4B00C8ECC8C9EDC9CAEECACBEFCB2275FF01B2
:105A5B00E5D530E602C32253FACFEFB4080543FA7B
:105A6B00308012EFB4040543FA208009EFB402052D
:105A7B0043FA108000D322E5F45418131313541F68
:105A8B00FF225182901221EFF022E5F75406FFBF5F
:105A9B0006037F0822E5F75406FFBF04037F0422A9
:105AAB00E5F75406FFBF02037F02227F012251E07C
:105ABB00AFD922E4FFE5F754C0600280F175FF0116
:105ACB00E5D530E30F1247C350F351B9EF60EE1237
