:020000040000FA
:100000000202DF0218034100B8002202180B22226C
:0100100022CD
:07001300021813E4FFE1BC39
:07001B0002181B75C8012249
:030023000218239D
:03002B0002182B8D
:030033000218337D
:03003B0002183B6D
:030043000218435D
:03004B0002184B4D
:030053000218533D
:03005B0002185B2D
:030063000218631D
:03006B0002186B0D
:10007300021873BB010689828A83E0225002E722B9
:10008300BBFE02E32289828A83E49322BB010CE54F
:100093008229F582E5833AF583E0225006E9258239
:1000A300F8E622BBFE06E92582F8E222E58229F57D
:1000B30082E5833AF583E49322BB010689828A832E
:1000C300F0225002F722BBFE01F322F8BB010DE53B
:1000D3008229F582E5833AF583E8F0225006E92583
:1000E30082C8F622BBFE05E92582C8F222C5F0F8D4
:1000F300A3E028F0C5F0F8E582158270021583E0CD
:1001030038F022A3F8E0C5F025F0F0E582158270FF
:10011300021583E0C838F0E822EF2BFFEE3AFEED3C
:1001230039FDEC38FC2275F008758200EF2FFFEEE5
:1001330033FECD33CDCC33CCC58233C5829BED9A10
:10014300EC99E58298400CF582EE9BFEED9AFDEC6E
:1001530099FC0FD5F0D6E4CEFBE4CDFAE4CCF9A8B4
:100163008222B800C1B90059BA002DEC8BF084CFBC
:10017300CECDFCE5F0CBF97818EF2FFFEE33FEED93
:1001830033FDEC33FCEB33FB10D703994004EB99BD
:10019300FB0FD8E5E4F9FA227818EF2FFFEE33FED0
:1001A300ED33FDEC33FCC933C910D7059BE99A4005
:1001B30007EC9BFCE99AF90FD8E0E4C9FAE4CCFB1D
:1001C3002275F010EF2FFFEE33FEED33FDCC33CC71
:1001D300C833C810D7079BEC9AE899400AED9BFDFA
:1001E300EC9AFCE899F80FD5F0DAE4CDFBE4CCFA0D
:1001F300E4C8F922EF5BFFEE5AFEED59FDEC58FC23
:1002030022EB9FF5F0EA9E42F0E99D42F0E89C451F
:10021300F022E8600FECC313FCED13FDEE13FEEFC9
:1002230013FFD8F122E8600FEFC333FFEE33FEED87
:1002330033FDEC33FCD8F122E0FCA3E0FDA3E0FEA8
:10024300A3E0FF22E0F8A3E0F9A3E0FAA3E0FB2296
:10025300ECF0A3EDF0A3EEF0A3EFF022A8828583E8
:10026300F0D083D082120276120276120276120244
:1002730076E473E493A3C583C5F0C583C8C582C878
:10028300F0A3C583C5F0C583C8C582C822E0FBA31C
:10029300E0FAA3E0F922F8E0FBA3A3E0F925F0F0EC
:1002A300E582158270021583E0FA38F022EBF0A3A1
:1002B300EAF0A3E9F022D083D082F8E493701274B9
:1002C3000193700DA3A393F8740193F5828883E4DB
:1002D300737402936860EFA3A3A380DF75812F0279
:1002E300094A9000E551B0AE071FEE60129000E896
:1002F30071031176FE9000E57103EE11BC80E822D4
:10030300E475F0018090900A12EEF0A3EFF09000F4
:100313004FE064016002619CC3900A12E0940850AC
:100323000BE4FF9153900A12918780ECE4F50DFBE7
:1003330071C5AF0C12103DE50DC39408504771C34E
:10034300E50D7F0071BDEF29F9EA3EFA9000E8510F
:10035300B07B017A0979007FFF51E5E50DFEE424C6
:10036300FFFFE43E71BD8F828E83118F9009FFF0F2
:100373007B017A0979009000FBE50DF0AD0C1210BA
:1003830063050D80B2900050513BE42FFFEE34081B
:10039300120D139000500214BC900054E0FEA3E031
:1003A300FF71BE900A12E0FDA3E09000D1CD1208C8
:1003B300D4900054EEF0A3EFF022FE902001419080
:1003C3007B007A00791012103675FF031176F5D38E
:1003D30075FF0390000171F190000271F190000329
:1003E30071F175D40175FF03E5D55402FF22118F16
:1003F300F5D375FF03229000F1E0FEA3E0FF9130F7
:1004030091539000F3513BEF2401120D109000F330
:100413005153900A18914D900A18E07002A3E070AE
:100423000BFF7E087109120F4212142822B108CD66
:1004330024FFCD34FFFCC3ED9FFFEC9E541FFE74DD
:10044300082F121416FF229000DF74FFF5F001F05D
:10045300B108541FFC74082DF58274203CF583EF1A
:10046300F0902006E0B42019A3E0B4001490200516
:10047300E02401FF902004E03400541FF0A3EFF0C8
:1004830022902006E475F00101F09000BA515390D8
:1004930000BE51B0110AF11EEF6004110F80F71274
:1004A3000F0560099000BA513B7810D1249000BA2F
:1004B300D1209000BA513BE480219000C11208C7BB
:1004C30045F0601B9000BE5190E94A600C1176FF25
:1004D300D1279000BF918780E1E4FFD12780DBF132
:1004E300B79000AF7401F0229000E3E0FF81039026
:0704F3000A1BE014F0E022F7
:10050800902006E0FCA3E0FD902005E02DFD902062
:1005180004E03C22D1C8EF541FFF12148DA37401CC
:10052800F0120F4C9000DCE0FCA3E0FDAE0478056F
:10053800CEC313CE13D8F9FF9000DFEEF0A3EFF08F
:10054800ED541FA3F0A3E4F09000F1F0A3F0C390E2
:1005580000DDE094209000DCE09400407D914A901A
:1005680000E1E0FEA3E0FF9000F1EE8FF011F090C3
:1005780000DFE07004A3E06406700AD1C89000DFD1
:10058800E48FF011F0D1C89000F1E48FF011F0126F
:100598000FFCEF600512148A8005E49000DEF090ED
:1005A80000F1121371701D91309000E3EFF0910388
:1005B80091EB91EB9000DFE07002A3E0604891EBD3
:1005C800914A80F071F971F971F99000DFE07002D9
:1005D800A3E0603271F9914A80F09000DC91878045
:1005E8000A9000DCE07002A3E0600BD1C891039090
:1005F80000DC914D80EB120FFCEF600512148A802D
:1006080005E49000DEF09000DEE06002A12C1214F8
:10061800AB71099000F3413B513B78085115E4E573
:10062800C820E2FB8FEB227F01F1BC900A1C740109
:10063800F0900A1CE06032120FF4D1BC900A1CEF53
:10064800F0120849D1AB9000ACEFF0120849900ABB
:100658001CE054011213BB60D8A3E0F460D3EF3060
:10066800E7CFE4900A1CF080C8F1E87F9FD127D13A
:10067800BC9000ADD1BA9000B2D1BA9000B3F1B538
:100688009000ABE0F4601BA3E0F460169000B2E0C9
:10069800FD541F240FA3F0EDC413540744809000A9
:1006A800B2F022F1E87FD7D1277FFFD127D1C090C0
:1006B80000ABEFF07FFFD127E5C820E2FBAFEB22CC
:1006C800900081E0B4082CA3E0B40027120F2E7B21
:1006D800017A0179009000CA120F45F161120F2EBC
:1006E800E42FFFEE3408120D13120F28E490008156
:0806F800F0A3F0900083120F43
:10070000DB9000835153900081E475F0013106FEC7
:10071000740025F0F58274013EF583E0FF227F012D
:10072000F1BC300216120FF4D1BC900A1DEFF0128A
:100730000849900A1DE020E002C202300219D1AB44
:100740009000ACEF1213BB600BA3E0F46006EF3037
:10075000E702C202120849E4FFF1BCA202E433FF3F
:10076000229000C351539000C751B0110AF11EEFFF
:100770006004110F80F7F1E47F03120F1E600990EF
:1007800000C3513B7810D1249000C3D1209000C306
:10079000120F349000CA1208C745F06011D1BC9006
:1007A00000C75190EF11BC9000C8918780E51208F6
:1007B00049E4FF8007EFF0120849E4FFEFB40104B9
:1007C00043FE202253FEDF229000ABE020E014F134
:1007D000E47F3DD1277F2AD1277F80D1277FA6D1F3
:1007E00027F1B7227F01F1BC9000B0E051B9080AAF
:1007F00004081214081715081C17082C3008313487
:10080000083636083B3700000824531AEF851A8053
:10081000802F531BEF8008531BDF8003531B7F8502
:100820001B90801D531CDF851CA08015531DFE806E
:100830000D531DEF8008531DBF8003531D7F851D81
:10084000B07F0CDFFE2212062712149FEF70FA9081
:1008500000B2E0F4600B900A1B7406F01204F27010
:10086000FB9000B0E01202B9088404088C140891CF
:100870001508961708A63008AB3408B03608B53707
:100880000000089E431A10851A80802F431B108099
:1008900008431B208003431B80851B90801D431C45
:1008A00020851CA08015431D01800D431D1080086C
:1008B000431D408003431D80851DB0900A1B740CAE
:1008C000F01204F270FB2274FFF5F0020106E0FD65
:1008D0009000D1E4F0A3EDF09000CCEEF0A3EFF0A7
:1008E000A31202B09000D111C745F060549000CE21
:1008F0001202901200769000D3F09000CF1204877D
:100900007D80ED60DF3141EE7C0030E7027C0190BC
:1009100000D3E05D7B0060027B01EB6CFCEF25E027
:10092000FFEE339000CCF0A3EFF0AF04EF600C903B
:1009300000CCE06410F0A3E06421F0EDC313FD806F
:10094000C19000CCE0FEA3E0FF2275FF03759E027C
:100950009017FAE493900A0FF075FF02E5E654034E
:100960006002618B7510DE7511AD7512BE7513EFE7
:10097000C2AF75FF0275E404F5E4751AFF751BFF3D
:10098000751CFF751DFF7516FF7517FF7518FF7530
:1009900019FF75FF0253E6BFD11A1210DAB11BEF2F
:1009A00064016002618290180893FE740193FF90C5
:1009B000007FEEF0A3EFF0F5828E83E493FE7401E6
:1009C00093FFC3EE9480500280047E807F008E14DB
:1009D0008F15B1F7FFF5828E83740293F51E7403B1
:1009E00093F51F740493F508740593F50974069341
:1009F000F50A740793F50BC201EF4E700241E4EF64
:100A0000F4FFEEF44F700241E4E514451EFEE515D7
:100A1000451FFFE5084EFEE5094FFFE50A4EFEE5DE
:100A20000B4F4E700241E4E51FF4FFE51EF4FEE5B6
:100A300015F4FDE514F44EFEED4FFFE509F4FDE578
:100A400008F44EFEEF4DFFE50BF4FDE50AF44EFE13
:100A5000EF4D4E700241E47F03718EE50B24FFFFE2
:100A6000E50A71BC640370227F02718EE50924FFE0
:100A7000FFE50871BCB402127F01718EE51F24FFEF
:100A8000FFE51E71BCB40102D2012001577F017144
:100A90008E71B59000D1E51EF0E51FF13B71A07F8E
:100AA0000271AB9000D1E508F0E509719E7F0371FA
:100AB000AB9000D1E50AF0E50B719E7F01718E903D
:100AC0000A10E0FEA3E0FF7BFF7A187900E4251509
:100AD0009000D2F0E51434E89000D1719F4EC370BD
:100AE00001D39201300109F1ACEF6401600261822F
:100AF000D20091FB7B017A007964B1D8741BF012AB
:100B00000761900064E0B4800B9153EF70061214FB
:100B100046EF6002C20030006530011AB1F7F5827D
:100B20008E83740C93FE740D93FF90007DE06E70C5
:100B300003A3E06F604890005012025F00001800AD
:100B400091FBF128F12EEF2401B110B1D27404F021
:100B5000120761900087B10A9000871214BC9000C0
:100B600081F14590004F04F012051C7440D3950CA0
:100B7000400C1203C3AF0C12103D050C80EDE4FFD6
:100B8000F186E4F510F511F512F513021800AEFF29
:100B9000EE54CFFEEFC454F024804EF5FF22A3F0B4
:100BA00011D8900A10EEF0A3EFF022718E900A1087
:100BB000E0FEA3E0FF7BFF7A80790022347F8F8202
:100BC000F583E49322900000EEF0A3EFF0A312026D
:100BD0003B900008120253900006E0FFA3E0900053
:100BE0000CCF806090000C121371605EC3EF9440D4
:100BF000EE94004006A37440F0800590000EEFF0E4
:100C0000B1FFE0FFB1D8EFF090000812023B1207ED
:100C10006190000EE0FFC390000DE09FF090000C8B
:100C2000E09400F090000812024790000EE4FCFDF2
:100C3000FE12011C900008120253914AB1FF11CE1E
:100C4000900000EEF0A3EFF0809A900000E0FEA389
:100C5000E0FF2291FBB101900006E4F07405F13B46
:100C600091F0C006C00791FBEF2407B110B10190CD
:100C70000006E4F0A37414F0D007D00691F0C0068B
:100C8000C007B107B101D10940067EFF7FFF800692
:100C900090006512023B900006EEF0A3EFF0D00743
:100CA000D00691F0D109402F91FBEF241AFFE43ECA
:100CB000FEED3401FDE43CFCB10190006512023B05
:100CC000EF2401FFE43E900006F0A3EFF0900A1637
:100CD000E0FEA3E0FF91F0900069E0FEA3E0FF904A
:100CE0000A16E06E7003A3E06F7F0060027FFF22B0
:100CF00071C5900A16EEF0A3EFF0229000A6020252
:100D00003B9000020202539000A612023BEF241B0C
:100D1000FFE43EFEE43DFDE43CFC22E49000AAF04A
:100D20007B017A007995121378900097E0FF741197
:100D3000D39F5077E4FFFEFDFC7B017A0079FE90A3
:100D400000CAF0A37402F01207619000FEE0FEA357
:100D5000E0FFE4FCFDB1CC91FBEF2402B110B1CC7B
:100D60009000B5E024FFFF9000B4E034FFFEE4FC07
:100D7000FD9000A61202471201F79000FCEEF0A3CE
:100D8000EFF09000A61202479000FCE0FEA3E0FF07
:100D9000C39000B5E09FFF9000B4E09EFEE4FCFD30
:100DA00012011CB1CC9000AA7401F09000AAE0FBE3
:100DB0006017E4FFFE7D02FC900097E024EFF9F855
:100DC00012022890008F120253AF03229000A60255
:100DD00002537B017A0079839000CAE4F0A3229148
:100DE000FBEF2401B110B1D27404F0120761B10716
:100DF000F128900081E14590007FE0FEA3E0227B96
:100E0000017A00790F90000E22E47FFF7EFFFDFC47
:100E1000900065120247D3020204E4900A1EF0908B
:100E20000A1EE0FFD3946F501EEF2410FFF198903C
:100E30000A1EE0FEE42EF582E4344FF583EFF090D5
:100E40000A1EE004F080D87B017A4F79009000D12F
:100E5000E4F0A37470F07F0F7E1D11D8EF4E7F0079
:100E600070027F01901218EFF024FF22900A09EB24
:100E7000F0900A05120253900A0512023BD1C3906A
:100E80000A09E06F603B12000A12071EEF600512AC
:100E9000000F80F5F105600B900A0512023B7810F7
:100EA000120624900A05120620900A05F134900AD1
:100EB00009E0FF1206271207B79000AF7401F0D3C4
:100EC00022C322900A0012025312000A12071EEFD8
:100ED000600512000F80F51207E47F03F11E600B1E
:100EE000900A0012023B7810120624900A001206A3
:100EF00020900A00F1341206BC900A041207B59043
:100F00000A04E0FF227F011207BCD2021207E87F29
:100F10000612062711491207E89000AEE0FF1206FC
:100F2000279000B1E06402229000870202539000F3
:100F30008702023B12023BE4020627A3F07F0F7EEA
:100F40001D22900A187408F0A3E4F022F1429000E8
:100F5000F312025F00000000E4902004F0A3F0A36D
:100F6000F0A3F07B017A2079089020011202B0E40E
:100F7000902000F0227F0F7E1D11D09000D8120229
:100F8000909000DB01CEAB07E4FF9000AAE0600781
:100F9000F1D8D16CE433FF2275FF03E4F59712100A
:100FA00021E59720E1FB75FF03AF9922E4900A1A2F
:100FB000F09000AAE0601B90008F12023BE4FBFA65
:100FC0007902F8D31202045009F1D8D1C3900A1A59
:100FD000EFF0900A1AE0FF229000A612023BEF24E5
:100FE000FFFFEE34FFFEED34FFFDEC34FFFC22E4A6
:100FF000FCFDC1C31207E87F05020627E4FFFEFDE2
:10100000FC900083120E137F0040027F012275FFC7
:10101000037597011121E59720E1FB75FF03AF9957
:101020002275FF038F9875FF0322113675FF03E5C4
:10103000D5F45402FF2275FF0375D4022275FF0315
:10104000EF543F4480F5D1E5D520E20AE5D520E014
:1010500005E5D530E1F1E5D55403FF75FF0375D5FE
:101060000580D375FF03ACD5EC20E13C75FF03EDA3
:10107000543FF5D175FF03E9F5D375FF03EA540F2B
:10108000FF9000FBE0C4547044804FF5D2E5D520BA
:10109000E205E5D530E0F6E5D55401FC75FF0343E4
:1010A000D40275FF0375D505AF042212000A12079A
:1010B0001EEF600512000F80F57F011207BCD202FF
:1010C0001207E87F061208461207E87F011206277A
:1010D0007F03120846E4FF0207BC7B017A0079B067
:1010E0007F0351E47A0079B97F0851E47A0079B638
:1010F0007D027F0951847B017A0079B47D027F0BE8
:1011000051849000B471716006BEFF16BFFF135189
:10111000F35002800451FC80099000B4E4F0A37401
:1011200040F051F3500280089000B17403F0800643
:101130009000B17402F09000B0E01202B9115904AD
:10114000116414116C15117417118A301192341135
:101150009A3611A2370000117F75FF015316EF85F3
:1011600016FD804775FF015317EF800E75FF015381
:1011700017DF800675FF0153177F8517C9802C750F
:10118000FF015318DF8518CA802175FF015319FE2E
:10119000801675FF015319EF800E75FF015319BFBB
:1011A000800675FF0153197F8519CB1208497F11FD
:1011B00051DEE4FF710612062F9000AE7402F0902B
:1011C00000B2E0247F600904701651EB740A8007B6
:1011D0001207C851EB7458F09000B17403F051FC41
:1011E0009000B3E0F4600241829000B6E0FEA3E01C
:1011F000FF64104E70069000B3740EF0EF64204E42
:1012000070069000B3740FF0EF64404E70069000CB
:10121000B37410F0EF64804E70069000B37411F058
:10122000E4B5070AEEB401069000B37412F0E4B519
:10123000070AEEB402069000B37413F0E4B5070A8F
:10124000EEB404069000B37414F0E4B5070AEEB4EB
:1012500008069000B37415F0E4B5070AEEB4100662
:101260009000B37416F0E4B5070AEEB420069000BF
:10127000B37417F0E4B5070AEEB440069000B374F7
:1012800018F001AB900A0AEFF0A3EDF0A31202B040
:10129000900A0BE06047901218E06013900A0AE091
:1012A0002410FF120F98900A0C120290EF801790F2
:1012B0000A0AE06401900A0C7007120290748080A0
:1012C0000512029074FF1200BC900A0D1204879060
:1012D0000A0BE014F0900A0AE004F080B322EF4415
:1012E00020F5FE227D0151847B01227F1051DE908A
:1012F00000AE229000B9E024FE24FD229000B474D8
:1013000001F0A3E4F022900A14EFF0E4A3F09000BF
:10131000B9E0FFB40209740F716974B9F0800CEF81
:1013200064047044743D71697479F01207E4900AA2
:1013300014E060079000B8E0FF80027FAB12062740
:10134000120849900A14E09000B8F07016900A153F
:10135000E0D39400400D7FFF120627900A15E01499
:10136000F080EAE4FF1207BC22900A15F09000B862
:1013700022E0FEA3E0FF4E229000ADE01200BC9000
:1013800000B2E09000011200CE9000B3E0900002A5
:101390000200CEAB05E4FCFD020E6C9000ED1202E3
:1013A000B0E4FCFDC0079000ED1202909000F0E068
:1013B000FF120DD8EFF0D007020761F09000ABE00C
:1013C000FFF42212000A12071EEF600512000F80C0
:1013D000F5229000AFE0FF22E49000AFF0229012DF
:1013E00018E024FF22901218E060057F10020F9889
:1013F0007FFF22902004E0FEA3E0FF24089116FD69
:10140000EF2401FFE43E541F902004F0A3EFF0A36B
:1014100012044DAF0522F58274203EF583E0229040
:101420002006E0FEA3E0FF22902000E0045403F039
:101430007F0033333354F8FEEF2408F974203EFA6A
:101440007B01A30202B0900054741DF0A3740FF04E
:10145000120DDFE490004FF012051C90006BE0FECF
:10146000A3E0FF900054E06E7003A3E06F7F006084
:10147000027FFF22EFB40109D2AD75FF0143AE40F8
:1014800022C2AD75FF0153AEBF221206C89000DC28
:10149000E4F0A3EFF022E5C85402FF75C80222E58C
:1014A000C85404FF22E5C85401FF22900A18E0FE48
:1014B000A3E0FFC3E49FFF74089EFE22120253E4E0
:1014C000FB7A08F9F890005012023B1201658F0C6C
:0114D00022F9
:1017FA00060AFFFCFFFF022E0C6E5F6EA5017FB882
:10180A00EF90181393901900730A20364CE576FF6F
:10181A0022EFF576225A2D5761766520362E313021
:10182A000002606D000E1384000E18FC000E225C8C
:10183A00020202003F3F3F04040432323200020136
:10184A00900265851958195D197B198019854076AA
:10185A00FF0240BDC2D5E830E70FB2D5E4C39BFB17
:10186A00E49AFAE499F9E498F8EC30E717B2D51259
:10187A001894122316E4C39BFBE49AFAE499F9E458
:10188A0098F8800312231630D50DE4C39FFFE49E17
:10189A00FEE49DFDE49CFC22789FE4F6D8FD9000CE
:1018AA00007F007E10E4F0A3DFFCDEFA90461FA35F
:1018BA00E583C394204011FEAF829020000E0FE40E
:1018CA008002F0A3DFFCDEFA121920022E1E223259
:1018DA0000000000000000000000000000000000FE
:1018EA000000000000000000000000000000008767
:1018FA00533B5034518EC0767419C0E0C082C08305
:10190A0075760AE5FF54CF4490F5FF22C076741924
:10191A00C0E0C082C083757620E5FF54CF4490F5BD
:10192A00FF22C0767419C0E0C082C083757636E59E
:10193A00FF54CF44A0F5FF22C0767419C0E0C082DC
:10194A00C08375764CE5FF54CF44B0F5FF229081F1
:10195A00AA21169081BE2116908817211690A7FCFD
:10196A00211690A836211690C83721169083F621A1
:10197A001690D0BF211690D0D721169086522116E4
:10198A0090D166211690B9E4211690DBA821169011
:10199A00DC25211690DC422116909F85211690DFC6
:1019AA00FA211690E017211690E01D211690E050BA
:1019BA002116908372211690DAFC211690CCAF2161
:1019CA001690E381211690A7D8211690D40F2116DC
:1019DA0090E81D211690E977211690E94F2116907B
:1019EA00CC4D211690E9A0211690EA01211690E922
:1019FA00E1211690E8F2211690D6EE211690CAA897
:101A0A00211690EA11211690C3C9211690EA632182
:101A1A001690EFEE211690EFF6211690F23A211663
:101A2A0090E86F211690D1C8211690D511211690F1
:101A3A00F2BA211690E0AE211690CC7B211690F2D4
:101A4A00D2211690F300211690F331211690F5ED6C
:101A5A00211690F621211690F66C211690F78F2107
:101A6A001690F6B3211690F7B6211690D5D5211601
:101A7A0090F7EE21169081EB211690F8102116901E
:101A8A00F848211690F870211690A7D6211690C70B
:101A9A0094211690F8A9211690EB2E211690F8D3CE
:101AAA00211690C7C2211690C6A0211690E1D7210F
:101ABA001690C7AF211690F8E5211690EE2B211645
:101ACA0090EE1C211690F145211690EFD221169026
:101ADA00EE17211690F2FF211690F8AF211690EE1C
:101AEA001B211690F08A211690E37A211690F90E9E
:101AFA00211690F1E3211690EF12211690AC1C21C9
:101B0A001690A93B211690CD3B211690F942211639
:101B1A0090F97B211690DEF0211690E1E7211690CC
:101B2A00F9AA211690E233211690FA4F211690F95C
:101B3A00C7211690D1BE211690FAC7211690EF310F
:101B4A00211690EFD3211690EE48211690C7A021B6
:101B5A001690ECB6211690EB54211690F3452116F7
:101B6A0090F4E6211690FBB2211690FC45211690BE
:101B7A00FBF7211690F3C5211690F5CE211690DBBE
:101B8A001A211690809721169080FB2116908000CA
:101B9A00211690815F2116908105214290C423214C
:101BAA004290C426214290A8672142908D1E21426C
:101BBA00908B912142909B8C2142909BA72142902D
:101BCA008FE4214290C77021429080132142908075
:101BDA00D3214290C7DC214290C804214290C846D2
:101BEA00214290C883214290C924214290CA0721E8
:061BFA0042908BAA21427B
:101C000090CC5921429083B3214290D061214290DF
:101C1000D094214290C3DB214290CDE0214290CE6E
:101C200072214290CDA9214290D120214290D137FA
:101C3000214290D169214290D3AA214290D5B2216C
:101C40004290D67B214290D7DE214290A68C214241
:101C500090D88E214290A51D214290AFEE21429056
:101C6000CB04214290CEE9214290DC10214290A188
:101C700002214290DC4B214290DCB4214290962517
:101C8000214290803D2142908000214290DCBB2186
:101C90004290DCEF214290DD08214290AEAE21421D
:101CA00090A750214290C36E21429087A721429075
:101CB000DD2F214290DD40214290DD69214290DDFF
:101CC0008F214290DDD6214290ADF3214290D0CABF
:101CD000214290C0C021429087B82142908C75214A
:101CE0004290AF54214290E077214290E206214297
:101CF00090D8B3214290D3A8214290E5B7214290D9
:101D0000E57B214290E542214290E6F2214290B9E2
:101D10007D214290E942214290E793214290A68D95
:101D2000214290EC30214290C054214290C2D321F4
:101D30004290827F214290AEF0214290A8F0214251
:101D400090EB25214290EC20214290EDF42142902D
:101D5000B975214290AF6A214290EE20214290EE67
:101D60003C214290AF5B2142908279214290EE6EFD
:101D7000214290C7D6214290AF64214290EE782153
:101D80004290B9682142908798214290EF09214200
:101D900090C14C214290C244214290EFB221429026
:101DA000EFD0214290F014214290DC98214290DA49
:101DB0000D2142908142214290A886214290F3B0A9
:101DC000214290A8D2214290A8CB214290F3BA217F
:101DD0004290874F214290F452214290EC8B214255
:101DE00090BCF0214290F463214290E7CA214290D6
:101DF000BEDD214290EB23214290F472214290BB40
:101E000080214290ED9F2142908FE72142908F9355
:101E10002142908EB52142908D3F21429096102113
:101E2000429090CB2142908D15214290D85421426E
:101E30009090692142908D45214290A189212C905A
:101E4000A193212C90A205212C90A270212C90A26C
:101E500089212C90A293212C90A2AF212C90A2B981
:101E6000212C90A3D9212C90A2A5212C90A40B2148
:101E70002C90A44C212C90A5F3212C90A630212C41
:101E800090819A212C90A784212C90A785212C90B9
:101E90009863212C90A66B212C909EF0212C909D74
:101EA00030212C90A7AC212C90A10E212C90A00EBB
:101EB000212C909E2E212C90A014212C90A4312115
:101EC0002C00E709F608DFFA8046E709F208DFFA96
:101ED000803E88828C83E709F0A3DFFA8032E30931
:101EE000F608DFFA8078E309F208DFFA807088826A
:101EF0008C83E309F0A3DFFA806489828A83E0A3FC
:101F0000F608DFFA805889828A83E0A3F208DFFAB4
:101F1000804C80D280FA80C680D4806980F2803381
:101F2000801080A680EA809A80A880DA80E280CA49
:101F3000803389828A83ECFAE493A3C8C582C8CC33
:101F4000C583CCF0A3C8C582C8CCC583CCDFE9DE8D
:101F5000E7800D89828A83E493A3F608DFF9ECFA1F
:101F6000A9F0EDFB2289828A83ECFAE0A3C8C5823E
:101F7000C8CCC583CCF0A3C8C582C8CCC583CCDF90
:101F8000EADEE880DB89828A83E493A3F208DFF942
:101F900080CC88F0EF60010E4E60C388F0ED240223
:101FA000B4040050B9F582EB2402B4040050AF230E
:101FB00023458223901F1273BB010689828A83E026
:101FC000225002E722BBFE02E32289828A83E49345
:101FD00022BB010B89828A83F8E0C828F0E82250EE
:101FE0000327C722BBFE07F8E3C828F3E8228A8349
:101FF0008982E49322BB010CE58229F582E5833ACC
:10200000F583E0225006E92582F8E622BBFE06E9C8
:102010002582F8E222E58229F582E5833AF583E418
:102020009322BB010989828A83F8E028F0225003B9
:1020300027F722BBFE05F8E328F3228A838982F87A
:10204000E4932822BB010FF8E58229F582E5833A63
:10205000F583E028F0225009C58229F8E58226F6AA
:1020600022BBFE09C58229F8E22582F222F8EA2580
:1020700083F583E9932822BB010689828A83F022B3
:102080005002F722BBFE01F322F8BB010DE58229C5
:10209000F582E5833AF583E8F0225006E92582C807
:1020A000F622BBFE05E92582C8F222EF8DF0A4A836
:1020B000F0CF8CF0A428CE8DF0A42EFE22BC000B15
:1020C000BE0029EF8DF084FFADF022E4CCF875F06E
:1020D00008EF2FFFEE33FEEC33FCEE9DEC9840054D
:1020E000FCEE9DFE0FD5F0E9E4CEFD22EDF8F5F013
:1020F000EE8420D21CFEADF075F008EF2FFFED331B
:10210000FD4007985006D5F0F222C398FD0FD5F098
:10211000EA22C2D5EC30E709B2D5E4C39DFDE49CC8
:10212000FCEE30E715B2D5E4C39FFFE49EFE12201B
:10213000BDC3E49DFDE49CFC80031220BD30D507A7
:10214000C3E49FFFE49EFE22C5F0F8A3E028F0C59B
:10215000F0F8E582158270021583E038F022A3F8CA
:10216000E0C5F025F0F0E582158270021583E0C825
:1021700038F0E822BB010A89828A83E0F5F0A3E007
:1021800022500687F009E71922BBFE07E3F5F009A4
:10219000E3192289828A83E493F5F074019322BBC8
:1021A0000110E58229F582E5833AF583E0F5F0A395
:1021B000E0225009E92582F886F008E622BBFE0AF3
:1021C000E92582F8E2F5F008E222E5832AF583E9C1
:1021D00093F5F0A3E99322BB010DC58229C582C501
:1021E000833AC5830221485011C58229F808E5F0D9
:1021F00026F618F5F0E58236F622BBFE11C58229D7
:10220000F808E225F0F5F0F218E23582F222F8E55E
:102210008229F582E5832AF58374019325F0F5F090
:10222000E4933822BB010A89828A83F0E5F0A3F0A7
:10223000225006F709A7F01922BBFE06F3E5F009C4
:10224000F31922F8BB0111E58229F582E5833AF5FD
:1022500083E8F0E5F0A3F0225009E92582C8F608EA
:10226000A6F022BBFE09E92582C8F2E5F008F222B9
:10227000EF2BFFEE3AFEED39FDEC38FC22C3EF9B6D
:10228000FFEE9AFEED99FDEC98FC22E88FF0A4CCCD
:102290008BF0A42CFCE98EF0A42CFC8AF0EDA42C8D
:1022A000FCEA8EF0A4CDA8F08BF0A42DCC3825F05C
:1022B000FDE98FF0A42CCD35F0FCEB8EF0A4FEA947
:1022C000F0EB8FF0A4CFC5F02ECD39FEE43CFCEA54
:1022D000A42DCE35F0FDE43CFC2275F0087582009B
:1022E000EF2FFFEE33FECD33CDCC33CCC58233C5DB
:1022F000829BED9AEC99E58298400CF582EE9BFE6C
:10230000ED9AFDEC99FC0FD5F0D6E4CEFBE4CDFAC6
:10231000E4CCF9A88222B800C1B90059BA002DEC6A
:102320008BF084CFCECDFCE5F0CBF97818EF2FFF02
:10233000EE33FEED33FDEC33FCEB33FB10D70399AA
:102340004004EB99FB0FD8E5E4F9FA227818EF2F57
:10235000FFEE33FEED33FDEC33FCC933C910D70576
:102360009BE99A4007EC9BFCE99AF90FD8E0E4C995
:10237000FAE4CCFB2275F010EF2FFFEE33FEED33C5
:10238000FDCC33CCC833C810D7079BEC9AE89940F2
:102390000AED9BFDEC9AFCE899F80FD5F0DAE4CD54
:1023A000FBE4CCFAE4C8F922EF5BFFEE5AFEED59EC
:1023B000FDEC58FC22C3E49FFFE49EFEE49DFDE497
:1023C0009CFC22EB9FF5F0EA9E42F0E99D42F0EC86
:1023D0006480C864809845F022EB9FF5F0EA9E4245
:1023E000F0E99D42F0E89C45F022E8600FECC31351
:1023F000FCED13FDEE13FEEF13FFD8F122E8600FA2
:10240000EFC333FFEE33FEED33FDEC33FCD8F122A6
:10241000BB010789828A8302249E5005E9F80229BC
:1024200048BBFE05E9F802295489828A830224AA5E
:10243000BB010DE58229F582E5833AF58302249EEE
:102440005007E92582F8022948BBFE07E92582F8F2
:10245000022954E58229F582E5833AF5830224AA0C
:10246000BB010789828A830224F65005E9F8022914
:102470008ABBFE05E9F802299622BB010DE58229F7
:10248000F582E5833AF5830224F65007E92582F8C0
:1024900002298ABBFE07E92582F802299622E0FC80
:1024A000A3E0FDA3E0FEA3E0FF22E493FC7401930C
:1024B000FD740293FE740393FF22E0F8A3E0F9A3F6
:1024C000E0FAA3E0FB22BB010DE58229F582E5835A
:1024D0003AF5830224BA5007E92582F8022960BB45
:1024E000FE07E92582F802296DE58229F582E58358
:1024F0003AF58302297AECF0A3EDF0A3EEF0A3EF16
:10250000F022A8828583F0D083D08212251912256B
:1025100019122519122519E473E493A3C583C5F094
:10252000C583C8C582C8F0A3C583C5F0C583C8C527
:1025300082C822BB010789828A830225025005E9ED
:10254000F80229A2BBFE05E9F80229BB22BB010D56
:10255000E58229F582E5833AF5830225025007E9F1
:102560002582F80229A2BBFE07E92582F80229BBD1
:1025700022F5F0C582A4C582C5F0C583A42583F5E4
:102580008322A42582F582E5F03583F58322E0FBE2
:10259000A3E0FAA3E0F922F8E0FBA3A3E0F925F019
:1025A000F0E582158270021583E0FA38F022EBF034
:1025B000A3EAF0A3E9F022E493FB740193FA740216
:1025C00093F922BB010789828A8302258E5005E98F
:1025D000F80229D4BBFE05E9F80229E689828A833C
:1025E0000225B7BB011A89828A83D0F0D0E0F8D0E7
:1025F000E0F9D0E0FAD0E0FBE8C0E0C0F00225AEA0
:102600005016E9F8D083D082D0E0F9D0E0FAD0E0DB
:10261000FBC082C0830229DDBBFE16E9F8D083D05F
:1026200082D0E0F9D0E0FAD0E0FBC082C08302297A
:10263000EF22BB010DE58229F582E5833AF583029D
:10264000258E5007E92582F80229D4BBFE07E9252B
:1026500082F80229E6E58229F582E5833AF58302CC
:1026600025B7BB0120E58229F582E5833AF583D0C1
:10267000F0D0E0F8D0E0F9D0E0FAD0E0FBE8C0E03C
:10268000C0F00225AE5018E92582F8D083D082D060
:10269000E0F9D0E0FAD0E0FBC082C0830229DDBBC4
:1026A000FE18E92582F8D083D082D0E0F9D0E0FA94
:1026B000D0E0FBC082C0830229EF22D083D082F811
:1026C000E4937012740193700DA3A393F8740193B3
:1026D000F5828883E4737402936860EFA3A3A380F8
:1026E000DFD083D082E4937012740193700DA3A3A2
:1026F00093F8740193F5828883E4737402936C7089
:10270000127403936D700C7404936E7006740593C9
:102710006F60DDA3A3A3A3A3A380CA8A838982E4F5
:1027200073E5712582F582E5703583F583B5700414
:102730008582712210AF06858271F57022858271C3
:10274000F570D2AF22EC8EF0A4CCC5F0CCCDF8EF72
:10275000A4CEC5F02DFDE43CFCE8A42EC8C5F03D98
:10276000FDE43CFCEFA4FFE5F028FEE43DFDE43C85
:10277000FC22E3F5F009E208B5F06BDFF58067E3D2
:10278000F5F009E608B5F05EDFF5805A87F009E656
:1027900008B5F052DFF6804E87F009E208B5F04642
:1027A000DFF6804288828C8387F009E0A3B5F0369B
:1027B000DFF6803288828C8387F009E493A3B5F03A
:1027C00025DFF5802188828C83E3F5F009E0A3B54D
:1027D000F014DFF5801088828C83E3F5F009E49330
:1027E000A3B5F002DFF40228A1808780E980908001
:1027F000D4803E8015806E807E809D80B7808D80E5
:10280000A380518074803C0228AD89828A83ECFACF
:10281000E493F5F0A3C8C582C8CCC583CCE493A3E8
:10282000C8C582C8CCC583CCB5F076DFE3DEE180D5
:102830007089828A83E493F5F0A3E208B5F062DF41
:10284000F4805E89828A83E0F5F0A3E608B5F05152
:10285000DFF5804D89828A83E0F5F0A3E208B5F0C8
:1028600040DFF5803C89828A83E493F5F0A3E60893
:10287000B5F02EDFF4802A8002805789828A83ECAB
:10288000FAE493F5F0A3C8C582C8CCC583CCE0A315
:10289000C8C582C8CCC583CCB5F006DFE4DEE280D3
:1028A000007FFFB5F0020F2240027F012289828A59
:1028B00083ECFAE0F5F0A3C8C582C8CCC583CCE0B0
:1028C000A3C8C582C8CCC583CCB5F0D5DFE5DEE3AF
:1028D00080CF89828A83ECFAE0F5F0A3C8C582C86C
:1028E000CCC583CCE493A3C8C582C8CCC583CCB582
:1028F000F0AFDFE4DEE280A988F0EF60010E4E6009
:10290000ABED2402B404005098F582EB2402B40429
:1029100000508E23234582239027E973EF4E6012E7
:10292000EF60010EEDBB010B89828A83F0A3DFFC0F
:10293000DEFA2289F05007F709DFFCA9F022BBFE7E
:10294000FCF309DFFCA9F022E6FC08E6FD08E6FE40
:1029500008E6FF22E2FC08E2FD08E2FE08E2FF22B0
:10296000E6FB08E6F908E6FA08E6CBF822E2FB08FF
:10297000E2F908E2FA08E2CBF822E493F874019352
:10298000F9740293FA740393FB22ECF608EDF6084F
:10299000EEF608EFF622ECF208EDF208EEF208EFA0
:1029A000F222D083D082E493F608740193F608747F
:1029B0000293F608740393F6740473D083D082E410
:1029C00093F208740193F208740293F2087403936B
:1029D000F2740473E6FB08E6FA08E6F922EBF6085F
:1029E000EAF608E9F622E2FB08E2FA08E2F922EB4D
:1029F000F208EAF208E9F222410929004109280017
:102A0000E0020200001C84E002020002120FE0015A
:102A100002000954E00102000AA5E00102120B00C5
:102A2000E00502120C120F02060A410436060113D9
:102A3000004104350141043301C11A011800011697
:102A400000C12F4140CC004140C1004140CA00417B
:102A500040CB004140C8FF41403600C11DC1084184
:102A600031C10041324FFF41324600C10641325070
:102A7000004132510041324701C10B4131C0004198
:102A800045FA00C13B433ECA000000413EC9004137
:102A90003ECD004303E70000004303E40103E742A7
:102AA00034E598074343C50000004343C20143C5D2
:102AB000E00202121101B0E00102121300E0010273
:102AC000129400E0050213BC01B006060A41454716
:102AD000024145460D4145480860203AF742DB0176
:102AE00000000000000000000000000000000000E6
:102AF0000000000000000000000000000060203B1B
:102B000017090000000000000000000000000000A5
:102B100000000000000000000000000000000000B5
:102B200000503D9300000000000000000000000085
:102B300000000000C114015000C111C1124144C085
:102B400005414290FFC11EC120C125422A2998405B
:102B5000412A2B00433B6A000000423B68000060B2
:102B60002029E80000000000000000000000000034
:102B70000000000000000000000000000000000055
:102B800000000043269D9F01005026A00000000089
:102B900000000000000000000000000161272CABD5
:102BA000000201050101020E0601010004070401F3
:102BB00002030000040006080504020803140400D0
:102BC000040014050108090805020803140500049F
:102BD000001405000600140802020A0A0802030194
:102BE000000800040014080006001408010800147E
:102BF0000A020D000A0A020C000A0A02080B0A0A5D
:102C000001050C0E0A000400140A000600140A0153
:102C10000800140E000A0D110E020804140E000420
:102C200000140E000600140E010800140E01050029
:102C3000140E020F0E1211000C0C0E1102080414D7
:102C400011000400141100060014110108001411F1
:102C50000105001411000A00141102050E121202DF
:102C600008041412020C0F001200040014120006D3
:102C700000141201080014120105001412000A00C9
:102C800014120205001412000C001413020C0100AF
:102C900000020900000002100000140209010014E3
:102CA000020B0013140007100014020A01001402A2
:102CB00004001414020C001414020D010014020E7E
:102CC0000014140210010060242EBB0200FFFF0656
:102CD00002FF000602FF000301FF002300FFFF03C5
:102CE0000000001300000002000101030000004684
:102CF0002E12010002010402422E981DBD412F1F19
:102D0000004130CD01412F2500432F22012EE04309
:102D10002F16012EE0410DF800602004A4EDFFFF06
:102D2000FFFFFFFFFFFFFFFFFFFFFFFFFFFFFFFFB3
:102D3000FFFFFFFFFFFFFFFFFFFFFFFF7F60282672
:102D400022060A000000030008EEEF7F88CF7FC054
:102D50000F028124E040008000008080180100E81C
:102D60003300000600006000004121620041217232
:102D700000412160014121651141216100412395FC
:102D8000004123B500412392004123C1004F23A6F7
:102D9000012651000123D50001267A0000000042DF
:102DA00023D38700C127C1284132B0964132AC0FEE
:102DB000E0020213C100A8E00502146400A80406A2
:102DC0000AE0020214690807E005021C6B08070507
:102DD000060A473C4C00000000000000433C49004C
:102DE0000000E002021C700013E00C021C720000E4
:102DF000030800030008060A060AE005021C7E001C
:102E000013FF060AE002021C8300000075819F7513
:102E1000FF03759E02121920023A750218D89029F4
:102E2000F8E47E019360F4A3FF543F30E509541F9A
:102E3000FEE493A360010ECF54E0B4E00EEFFAEE8F
:102E4000F9A3A3A3A3DAFDD9FB80D654C025E06083
:102E50004B5026E493A3F85407240CC8C333C4543E
:102E60000F4420C8834004F456800146F6DFE48016
:102E7000B00102040810204080E493A3FAE493A375
:102E8000F8E493A3C8C582C8CAC583CAF0A3C8C55D
:102E900082C8CAC583CADFE9DEE78085E493A3F868
:102EA000E493A34003F68001F208DFF4022E210030
:102EB00000010000000017060000000018060000D6
:102EC0000006180600000001180600000008180699
:102ED00000000001010100000001150000000001D8
:102EE0000204000000010B04000000060B040000B7
:102EF00000080B04000000010D00000000010E049A
:102F0000000000011000000000010F00000000049C
:102F10000501000000040606000000040708000088
:102F20000002050000000003050100000001080583
:102F3000000000000800000000010C01000000017A
:102F4000120500000008030200000001220000003A
:102F50000008160800000008080000000001160123
:102F6000000000061601000000050903000000052E
:102F70000A00000000050302000000050400000034
:102F800000061B06000000011B06000000061C07CF
:102F9000000000061D0700000007050800000008EB
:102FA0001E07000000082000000000081F000000AD
:102FB00000082100000000081106000000011106B1
:102FC00000000008220000000006190600000006AC
:102FD0001E00000000062000000000061A08000085
:102FE00000061401000000071401000000081B0681
:102FF0000000000724000000000814010000000980
:10300000040000020A0000000705820220000007F9
:10301000050202200000090401000102020100056E
:1030200024001001052401000104240200052406E7
:1030300000010705810308002012010002020000C0
:10304000085806000200000000000109020000000C
:103050000100803204030409A280CACF0998445CAD
:10306000AD550641469503861C6455555555555535
:1030700055555555555555555533333333333333EE
:1030800033333333333333333388888888888888BD
:1030900088888888888888880000000000050000EB
:1030A000060000001000002428800000242080007A
:1030B00000113821000044288000004420800000D6
:1030C00034382100003F241E16110E0B0907050499
:1030D000030201F0C8A79177676046383532302483
:1030E0002220140001010202030304040505060660
:1030F0000707888888888888888888888888888852
:1031000088262626262626262626262626262626FD
:10311000261E3A1E3F1E441E491E4E1E531E581E9A
:103120005D1E621E671E6C1E711E761E7B19DF19E6
:10313000E419E919EE19F81A0C1A111A161DD61D00
:10314000E01DE51DEA1DEF1DF41DF91E031C9B1C6F
:10315000AA1CAF1CB41CB9822D1C16131110100030
:103160000301020604051ABB1AC01AF71CEB1CF572
:103170001D131A701A751D181D1D19C61BF61C0A81
:103180001DCCE4FD7C0CAB050DEB90181F938F82DA
:103190008E83F00FBF00010EDCEC7F03228F828E46
:1031A00083E4F0A3740631BF740A31BFA3E4F0EFE7
:1031B0002404F582E43EF583E4F0A3746DF022F07C
:1031C0008F828E83A3A3229045EDEFF0904056E0CE
:1031D000B40110C2ED7A4579ED90414F1240A6310D
:1031E000E4D2ED2290414C1225AE90414C516FFF3C
:1031F0007103C39F40012290414F12258E9041538D
:103200001225AEE4904152F0516951FDFF904152B8
:10321000E0FEC39F5032A312258E8E82710CFD51A9
:1032200069900001121FF58FF0A4FF904152E07ADF
:10323000002FFFEA35F0FE516912782CED1220893B
:10324000904152E004F080C05169900001121FF5D6
:1032500071165172FD7C001220BD516912780690E2
:1032600000027401122044D32290414C02258E1298
:10327000258E900003021FF59041151225AEE490B3
:10328000411BF051F77103D39400406A904118122A
:10329000258E90411D1225AEE490411CF051F7514E
:1032A000FDFF90411CE0C39F502C121FB88FF0A46B
:1032B000FF90411CE012789712782C121FF5FF90B6
:1032C000411D12258E90411CE0F582124957904114
:1032D0001CE004F080C7904115516FFD7C00121F67
:1032E000B871161220BD51F7ED12207751F79000FA
:1032F0000274FF1220442290411502258E90000492
:10330000021FF5900002021FF5E0F58275830002AE
:103310001FF5901221E02401FFE433FE22900D5BA3
:10332000127604E5137079D1265004C23771A1904A
:103330000D5BE0FEA3E08E11F512A312258E900422
:10334000371225AEAE11AF127DAA127375E4F5FFE8
:1033500075D901F510E5145421602BE51430E5040E
:10336000E4FFD15CE4900D60F0900D60E004F01299
:103370006A7AEF6009900D60E0C3941040EB7F0221
:10338000121EA35314DE711212783E5005E004FFA2
:1033900080027F00F1DCD23771A1D2EBA21892ED4E
:1033A000229045F1E5F4F0E0547FF5F47F827E0051
:1033B000F191125FAB5005E5FC20E6F6303708903E
:1033C00045F1E04480F5F4F18D125FAB5005E5FC6A
:1033D00020E6F675FF01E5D520E702C322E5F4D328
:1033E00030E601C322900D911225AED22BC2EBE53F
:1033F000136002C107E51430E202C322D11024ECAD
:10340000F9E43AFAE4122077126BCCA2ED9218C2DA
:10341000EDD1181221745460603AD1102403F9E4FC
:103420003AFA121FB820E12C90439DE06404602416
:1034300090439C740FF0900D9112258E126E5912CC
:103440003A391277CC90439D7405F01238C8A2180F
:1034500092EDD322900D91F1EB540FFFBF0116E9CD
:1034600024EDF9E43AFA121FB8700A901221E090A4
:103470000D94F0800E900D9112258E1219B2900DC0
:1034800094EFF0E51420E065D12E40057F0112385D
:10349000AB900D947A0D7995D178E433D10F24ED6A
:1034A000F9E43AFA7401122022EF7002803B900D89
:1034B00094E0FF127789E0FE900D95E0D39E4005E1
:1034C0001278FFC322D110F186121FB8FD900D9122
:1034D000F1EBFB12563A900D95EFF0E0FF7006D23B
:1034E000EBD200A1E9EFB40204D2EBA1E9D11812AA
:1034F000217454606013D1102403F9E43AFA121FC6
:10350000B820E105E490439DF0D12E5004C23771FC
:10351000A1126B64E5D120E0FBE4F510C219D110D3
:103520002408F9E43ACFE9CFF5118F12D11024B174
:10353000F9E43AFA121FB8F515AE111273ABD110B7
:1035400024B1F9E43AFA121FB8D10FF17F121FB873
:103550002FFFE433FE12784FFED110F186121FB810
:10356000D31264B650057401122022D11024B2F98E
:10357000E43A8B1AF51B891CD110F17F121FB8F5A4
:103580001DD1181221745407900435F0751308D119
:103590001024B2F9E43AFA12739FD110F17F121F8E
:1035A000B8FFAD151273CA7B01E4FDFF127341E44D
:1035B000F5FFE5D25480440CF5D2900D94E0D10F84
:1035C000F186121FB82418FBE433FA7D03126D460E
:1035D000D118122174FFAEF0A22B922A900D94E024
:1035E000900DBFF012645E4006A21892EDC32290C7
:1035F0000D94E0D10F24F1F9E43AFAEF122077A20A
:103600001892EDD2EBD322A21892EDD2EBC322FF97
:10361000900D9112258EE922900D9112258EE924AC
:1036200004F9E43AFA22C2EBA2ED9218C2EDE5F4F5
:10363000C330E701D322126B5FE5D120E0FBE4F554
:10364000FF75D901711212783E5005E004FF800227
:103650007F00F1DCD23771A1E4F5102275FF01E59E
:10366000D530E602C322E4F5FF439A80EF125FC62D
:10367000E4F5FF539A7FD322E0FF7B01904496EF5D
:10368000F0A3D1FB75FF0112725B6002C322E5F467
:1036900030E602C3227FE87E03F162F15B1272859D
:1036A000400122C23771A1904496E0FFD15C53F4EF
:1036B000DFD23771A17F787E00F10475FF0153E4FA
:1036C000BFE5E430E7FB126B3A7F8AF1FA30E60897
:1036D000904497F1F1E4800A75FF01904497F1F16D
:1036E000E5D912207775FF0143E440126B57400380
:1036F00043F420127285400122D322EBF0A3EAF0BA
:10370000A3E9F022CDEFCDCCEECCF1C3AB94EF4BDF
:1037100012704ACBEFCBFAE59130E719F1C6A994C4
:10372000E9F582EF4582FFEB1278C0C3EF9582E5A1
:10373000F0958340E2E59120E708CEECCECFEDCFC7
:10374000F1CF22E4F5FF758EC8126B8075FF01532F
:10375000D5FB125FB67F147E00F16275FF034391C3
:10376000802275FF03D3EF9402EE9400400874FEAC
:103770002FFF74FF3EFEEFF592EE540FF5912224D9
:10378000E1F9E43AFA2224B9F9E43AFA227FE87E30
:1037900003F19580C690448612761A7A447988128D
:1037A00070345014904488E0FEA3E0FF904487E01A
:1037B0009F904486E09E400A904486E0FEA3E0FF8E
:1037C000F1622275FF03AF93EF75F010A4FF22F1B1
:1037D00062F15B75FF03E59120E7FB22D15C43FAC0
:1037E00004E4F5FF53D1FD43D1012212258E021FBF
:1037F000B8E0FBA3E0FAA3E0F922FEF10490120F77
:10380000E0227A1C7B6412CD589040567401F0FB84
:1038100011277E407F7690092DE0FCA3E04C7005D7
:1038200090092D807FC3227A40795F90421412253F
:10383000AE9042177401F0A37405F07A4079579066
:1038400042111225AE904211119D90421112258E07
:10385000900001E4122089904218E0119790000234
:10386000E4122089904217E09000041220899042CF
:103870001412258EC003C002C00190421112258E81
:10388000900005122662227F0111AB904056E0B4F1
:1038900001047B0111272290000302208912258E4A
:1038A000E4022077EEF0A3EFF0D322EF600D515742
:1038B000AF82AE83E4FD12331D800A121A8E1268A5
:1038C0001CE433FF227F012290439DE024FC700220
:1038D00021EE14700221E714700221D71470024106
:1038E00012240660024129E51360024129C2EB510E
:1038F0002A1219B29045B7EFF0E51430E00221D456
:1039000012725B60047F0111AB9045B77A4579B8BC
:103910001236784004D2EB41409045B7E0127789E7
:10392000E0FF9045B8E0D39F40030278FF90439CAE
:10393000E0640F702E9045B7E0FF512AE9123786F8
:10394000121FB8FD9043991237EBFB12563A90457F
:10395000B8EFF0E0FF7005D2EBD20022EFB4020323
:10396000D2EB22126B70512AE924E2F9E43AFA12FE
:103970001FB8FF90439912361B122174FDACF0E47E
:10398000FB126C98C22A9045B7E0900DBFF0E4FF9F
:10399000FE12645E503BD2EB90439D7402F0126CB9
:1039A000E27E00E4FCFD7BD07A127913F812228BC0
:1039B00012514012185EAB07AA069045B7E0FF7D92
:1039C00003126D467E6E7F5F7D147C001219678046
:1039D00003D2EB22D2EB22E51420E52FE51430E0F0
:1039E0002A7F0111AB802490439D7401F022512A5B
:1039F000E924EFF9E43AFA121FB8600774FF1220C5
:103A0000227008121962512A021A9390439D74037E
:103A1000F022126CB9D200512A1277CC5139126EB1
:103A200059E490439DF01219762290439902258E15
:103A30009400904312F0A3CEF07B007A007900222C
:103A4000C3900440E094FF90043FE094FF5007E4EB
:103A500075F0011221482290092BE0FD75F0AA9023
:103A60000935122582ED75F002A42424F974093574
:103A7000F0FA7B012275FF0275E404E4F5E41279A3
:103A800007C330E001D34017E5E630E0129012178B
:103A9000E0540C600A121C32901217E054F7F0C286
:103AA0001912790730E037E5E654036401702F12EC
:103AB0001A5C12684C401E90123EE0600AE014F05E
:103AC00070051218A2F1D5901215E020E002616C89
:103AD0001258AB616C1218A2D219F1D5616C121890
:103AE000A2126F7090092AEFF0901200E0B47A14DD
:103AF000901214E0B49C0D90092AE0FF6405600464
:103B0000EFB40330E4900930F0900930E0FFC39443
:103B1000805013E42FF582E43412F583E4F0900929
:103B200030E004F080E3901200747AF09012147484
:103B30009CF0D215121C784003121C737B017A1280
:103B400079107D017F01121C6E7B017A1279117D43
:103B5000017F21121C6E7B017A1279127D017F2276
:103B6000121C6E7A1279287F02124FCE901228E032
:103B7000B401057F0112729C121A61126F70121A41
:103B80005790092AEFF01219B7121A4D90092AE03E
:103B9000FFB40602800C3019047F02800590092AC8
:103BA000E0FF121E8AEF24FFB3923B75FF0253E63B
:103BB000BF124C966002F1D512604A121A6B124A7B
:103BC0009A30150B7B017A12792A7D10126CEA1259
:103BD0001AAC901215E0C330E001D3400F203B0C2B
:103BE000124A407B017A3279581219FD901229E06D
:103BF00030E00280033019047F0111ABD2AF3019DD
:103C0000031219BC203B028193121C911253D5124E
:103C10001E85121C6940F2900929E06043121A893E
:103C2000EF70071261D194004036E51370FCE51483
:103C300020E50312681C121BA6EF70FAF1DD500597
:103C4000126EAD50047F01B1C6900929E0B40204A0
:103C5000E4FF8009900929E0B403057F011258B000
:103C6000121A7FE51430E1A1126C6F4002E4F0E516
:103C70001420E50B5157AF82AE837D0112331D1224
:103C800076CEC0E0516590092CE0FDD0E0FF12191E
:103C9000A381091260021258D450031258EDB1BD2D
:103CA000EF7006900929E060549031C1E0704E1227
:103CB0001A89EF70071261D194004041E51370FC3E
:103CC000E51420E50312681C121CFF121BA6EF70FE
:103CD000FAF1DD5005126EAD50047F01B1C69009B6
:103CE00029E07011B1BDEF600C124A7D901217E00F
:103CF0004408F08008900929E0FF121C2D121C9145
:103D00001253D5121C46904398E0704B124A57123A
:103D10004A65EF7023124A92EF6005121C32803719
:103D2000B1BDEF7032126EDEEF702C1257EBEF6404
:103D3000017024124A76801F901217E020E21812B8
:103D40004A92EF600DF1DD5005126EAD5004E4FFB4
:103D5000B1C6E490092FF0201605121A7F802212B6
:103D60006199900922E0FEEFC39E4005EF9EFF801F
:103D700008900922E0F4042FFF7403D39F5002C27D
:103D800016E51430E129126C6F4002E4F0E51420CE
:103D9000E50B5157AF82AE837D0112331D1276CEF3
:103DA000C0E0516590092CE0FDD0E0FF1219A3128C
:103DB0001BFB121A98126E781260388193124A8B8C
:103DC000B401027F01229045BBEFF0E4A3F09040E4
:103DD00037E0FFB4020A740F1278F774B9F0800D5F
:103DE000EF64047040743D1278F77479F0F10A9032
:103DF00045BBE06007904036E0FF80027FABD12AF0
:103E0000F1F19045BBE0904036F070159045BCE074
:103E1000D39400400C7FFFD12A9045BCE014F08081
:103E2000EBE4FFF1C32212249EE4E5C820E2FB8FFD
:103E3000EB227F01F1C39045F37401F09045F3E06C
:103E4000602FF1CFD1BE9045F3EFF0F1F1D1AD90FD
:103E5000402AEFF0F1F19045F3E054011278EF6061
:103E6000DBA3E0F460D6EF30E7D2E49045F3F080D6
:103E7000CBF10E7F9FD12AD1BE90402BD1BC904078
:103E800030D1BC904031EFF0F1BF904029E0F460B8
:103E90001BA3E0F46016904030E0FD541F240FA3F4
:103EA000F0EDC41354074480904030F022F10E7FAF
:103EB000D7D12A7FFFD12AD1C2904029EFF07FFFCE
:103EC000D12AE5C820E2FBAFEB227F01F1C33039F4
:103ED00014F1CFD1BE9045F4EFF0F1F19045F4E04C
:103EE00020E002C239303918D1AD90402AEF127863
:103EF000EF600BA3E0F46006EF30E702C239F1F1A6
:103F0000E4FFF1C3A239E433FF227F01F1C3904003
:103F10002EE01226BB3F31043F39143F3E153F438C
:103F2000173F53303F58343F5D363F623700003F04
:103F30004B536AEF856A80802F536BEF8008536B79
:103F4000DF8003536B7F856B90801D536CDF856C26
:103F5000A08015536DFE800D536DEF8008536DBF2B
:103F60008003536D7F856DB07F0CDFFE2290442C63
:103F70001224F690442C12249E124BBB904430E045
:103F80006F6038124E99D1CAEF6005124EA880F6C4
:103F9000124FED600990442C1247B5E4D12A9044A9
:103FA0002C1247ADE4D12A90442CD126904430E025
:103FB000FFF1BD90402D7401F0D322C322D12AF12C
:103FC000F1E4FFEFB4010443FE202253FEDF22F1AF
:103FD0000E7F05C12A901215E054FEF022900001D8
:103FE000740193B40007E493B41802C322D322D11E
:103FF0002A127417EF70FA904030E0F4600B90458D
:10400000F27406F012406E70FB90402EE01226BB58
:10401000402C04403414403915403E17404E304087
:104020005334405836405D3700004046436A10859F
:104030006A80802F436B108008436B208003436BA2
:1040400080856B90801D436C20856CA08015436D2E
:1040500001800D436D108008436D408003436D80E7
:10406000856DB09045F2740CF0116E70FC22904595
:10407000F2E014F0E022904056E0640170277B01EA
:104080007A40795711B0EF701C9045EEF0C2ED7A8E
:104090004579EE90411811A6123278D2ED9045EE96
:1040A000E0FF121C5F227B011225AE7A4079572275
:1040B000123303D394007F0050027F0122C0E0C07E
:1040C000F0C083C082C0D075D000C000C001C00263
:1040D000C003C004C005C006C0079045EFE5FFF06F
:1040E00075FF02E5D430E60C75D4409043925150F0
:1040F0006002B12D75FF02E5D430E50C75D4209037
:10410000439451506002B12D75FF02E5D430E413A1
:1041100075D410904396515060098F828E837F052D
:1041200012271F75FF02E5D430E30C75D4089043C5
:104130009251506002B13675FF02E5D430E20C7541
:10414000D40490439451506002B13675FF02E5D417
:1041500030E11F75D402124A07EF60169043965162
:1041600050600B8F828E837F0212271F8004F10123
:10417000D1F975FF02E5D430E01375D40190439670
:10418000515060098F828E837F0712271F75FF02AF
:10419000E5D530E41375D510904396515060098FE2
:1041A000828E837F0312271F75FF02E5D530E1134E
:1041B00075D502904396515060098F828E837F0699
:1041C00012271F75FF02E5D530E01375D501904326
:1041D00096515060098F828E837F0412271F75FFCE
:1041E00002E5D530E21375D504904396515060092D
:1041F0008F828E837F0A12271F75FF02E5D530E775
:104200001375D580904396515060098F828E837FBD
:104210000812271F75FF02E5D530E61375D54090CB
:104220004396515060098F828E837F0912271F9019
:1042300045EFE0F5FFD007D006D005D004D003D07D
:1042400002D001D000D0D0D082D083D0F0D0E032E4
:10425000E0FEA3E0FF4E229040641224F6904068F6
:104260001225AE90406412249E904033E024FFFD5E
:10427000904032E034FF5EFEED5FFF90406DF19FB5
:10428000605B90406DB1D71277A090406DF0A3EFC6
:10429000F090406BF1D79E5006A3ECF0A3EDF071C7
:1042A0007A91F4F060279123C004C005C006C007CE
:1042B000717AE94A60059116FF80027F007E0071E5
:1042C0007AB152D007D006D005D004B1687153E955
:1042D0004A6004B13F806F7E007F00806990406B30
:1042E0005150606D904032E0FCA3E0FDD3EF9DEEB5
:1042F0009C400A90406DECF0A3EDF0800D90406B77
:10430000E0FFA3E0A3CFF0A3EFF0717A91F4F060A7
:10431000279123C004C005C006C007717AE94A602E
:10432000059116FF80027F007E00717AB152D0079E
:10433000D006D005D004B1687153E94A6004B13F9A
:1043400080047E007F00904069EE8FF0122148804B
:104350008CD32290406DE0FEA3E0FFC390406CE060
:104360009FF090406BE09EF09040641224BAE4FC11
:10437000FD1222709040641224F690406802258E4F
:10438000EFF4045FFFE4FEEF70037FFF22EFD394AE
:104390000F4009EFC4540FFFEE4404FEEFD3940323
:1043A000400AEF1313543FFFEE4402FEEF30E101E9
:1043B0000EAF0622AB07AA06EB241FFFE43AFEEF7E
:1043C0007805CEC313CE13D8F9F9EB541F9045F5F9
:1043D000F0AF05911BFCAF057185AE01EE14C39FD4
:1043E000C43354E0F9AF04C3EB9FFFEA9400FEE945
:1043F000FDC3EF9DFFEE9400FEED600FE0FD600752
:10440000C374209DFD80067D0080027D007C00EF4E
:104410002DFFEC3EFE22904071E0FF7180EFC4332F
:1044200054E02290406DE0FEA3E0FF904071E0FD7B
:1044300071B490406FEEF0A3EFF0A3E0FF7180EF56
:1044400075F020A4FFAEF0E4FCFD9040641224BAA5
:10445000022270B1481225AEE49040D7F0A304F0D8
:104460009040D45150700281EED3EF9420EE94002E
:1044700040047F2080069040D4A3E0FF9040D6EF18
:10448000F09040D112258E9040D6E0FF903D02E49E
:10449000F0A3EFF09040CD12249EF12B400E9040FF
:1044A000D7E0FFA3E0FEEF4E9040D7F09040D6E07B
:1044B000FFC39040D5E09FF09040D4E09400F0908E
:1044C00040CD1224BA9040D6F1A6B14812258EE90B
:1044D0004A60079040D6E0FF80027F009040D2E41F
:1044E0008FF01221489040D8E025E0F081609040A4
:1044F000D7E0FF2290406DE0FFA3E09040D4CFF0E2
:10450000A3EFF090406412249E9153904071EF22EB
:104510007402F090430F1225AEE4FCFDC0079043F7
:104520000F12258E904312F1E0D00741578F828EF3
:10453000837F0102271F8F828E83E4FF02271F9053
:10454000406DE0FEA3E0FF229040CD1224F69040A3
:10455000D122E92FF9EE3AFA90406FE0FFA3E09004
:1045600041A3CFF0A3EFF02290419C1224F690419A
:10457000A01225AE124E99123ECAEF6005124EA847
:1045800080F5124FED600990419CF1B5E4123E2A8E
:1045900090419CF1ADE4123E2A90419C12249EE48D
:1045A00080269041A3F1CC60249041A012258EE991
:1045B0004A6013121FB8FF123E2A9041A1E475F021
:1045C0000112214880DCE4FF123E2A80D5123FBF51
:1045D00090402D7401F022E0FEA3E0FFC322903F43
:1045E000141224F6E4F5FF75BB0575BB8575FF0154
:1045F00075D5022031097F3FFE1237CF126B8075CF
:10460000FF0143D520303102C19FE4F5FF538EF7FF
:10461000438E077D04E4F5FF8DBCF5FF43B102E551
:10462000B130E2FBE4F5FFAFDFEFFEACDEECFBEB1D
:10463000FFED25E02412F582E4343FF583D1F2F555
:10464000FFF5FF53B1FD0DEDB40CCA903F14D1D965
:1046500078091223EAA3D1F2FDED25E0241CF582AE
:10466000E4343FF583E0C313FAA3E013FBD1E5F193
:10467000BD2BFFEE3AFED1E5EEF0A3EFF0ED240402
:1046800090120DF0EDC394075015CFEDCF0DEFD183
:10469000E6B1D7903F19E09F903F18E09E50BAE4F2
:1046A000F5FF758EC8F5FF90120DE0F5BCE4F5FF3F
:1046B00075BB8075FF01F5D522E0FB25E025E024E0
:1046C00001F582E43412F5831224F6EB25E025E0AF
:1046D0002401F582E43412F583E0FCA3E0FDA3E0BD
:1046E000FEA3E0FF22ED25E0241AF582E4343FF535
:1046F0008322EEF0A3EFF0E422F121E4F59E7F01A6
:104700002275FF0153CCFD43FB40F121759E01430F
:10471000FB0975FF03859E9E75FF03859E9E7F01A5
:104720002275FF0243D20175FF0322903CFB122445
:10473000F6903CFF1225AEE4903D24F0D3903D036B
:10474000E09420903D02E094004001227B017A3DFC
:104750007904903D02127793903CFB12249E124CF8
:1047600021903CFF12258EE94A6009903D241233C6
:1047700009FF80027F00903D24E02404F582E434A8
:104780003DF583E06F6002C322903D24E004FFF01A
:10479000D3903D03E09F903D02E0940050C322EE91
:1047A000F0A3EFF04E22E4FCFDFE02227012249EE4
:1047B00078080223EA12249E78100223EAE0C31349
:1047C000FEA3E01322B11374FFFDFC2274FFF5F089
:1047D00012215E45F022FFE0FCA3E0FDD39FEC2216
:1047E000E0FFA3E090406BCFF0A3EFF02275FF0253
:1047F0008FD675FF02AF058FD77F01EFC36001D35E
:1048000092ED22E475FF02AFD4CDEFCD75FF02AF7C
:10481000D5EFFCEDCEECCEFF2275FF02EFF452D4C3
:1048200075FF02EDF452D5229044721225AE9044E9
:104830007511F0943F4003743FF075FF02E5CD2001
:10484000E13FE5FD257204543FFFE5DD543F6F6015
:10485000289044751199502190447212258E8572CA
:104860008212330CAEFD315E543F248EF582EC345F
:1048700006F583EFF0057280C9E5FD2572543FF51A
:10488000FDAF722290461EEFF07B017A46791E7DC5
:104890000111287F0122118422E0FFE572C39F22CB
:1048A00090447A1225AE90447D11F0943F400374F9
:1048B0003FF075FF02E5CB2572543FFFE5DB543F27
:1048C0006F602090447D11995019ADCB3148543F11
:1048D000244EF582EE3406F583E090447A3150059B
:1048E0007280D2E572600625CB543FF5CBAF7222C1
:1048F000EDF0E4F572EDD32290447E1225AE9044A3
:104900008111F0941F4003741FF075FF02E5CC2560
:1049100072541FFFE5DC541F6F6020904481119991
:104920005019ADCC3148541F24CEF582EE3406F533
:1049300083E090447E3150057280D2E57260062596
:10494000CC541FF5CCAF7222ED2572FF7E00EF2212
:10495000FF12258E857282758300EF022089FFE5A4
:1049600072FDEE2DFD7C00ED229044761225AE9076
:104970004479EDF0E4F57275FF02EDD3941F400326
:10498000741FF075FF02E5CD20E23FE5C9257204F2
:10499000541FFFE5DE541F6F602890447911995031
:1049A0002190447612258E85728212330CAEC93165
:1049B0005E541F24EEF582EC3406F583EFF00572A9
:1049C00080C9E5C92572541FF5C9AF72227B017AEF
:1049D0004579EB7D0111A09045EBE0FF2275FF02C8
:1049E000E5DB543FFFE5CB543F6F7F0060027F0162
:1049F0002280EA75FF02E5DC541FFFE5CC541F6FEF
:104A00007F0060027F012275FF02AFD3EF7F00308D
:104A1000E6027F0122AD07901217E054FCF0E0FFA0
:104A2000ED54307E0060027E02EF4E901217F0E0EF
:104A3000FFED7E0030E0027E01EF4E901217F02273
:104A40009009317402F0900928E0FF121E8F511571
:104A50009009317405F02290092FE0FF121E80901A
:104A60000934EFF022900934E07F0070027F0122C8
:104A7000E490092FF02290092F7401F02290092F61
:104A80007402F022518B70027F012290092FE07F87
:104A90000022518BB402027F0122919D121A7A12D8
:104AA0001B4C1219A8121C969196700261637FFF2D
:104AB000121B06900D3E1225AE7E007F0971B8BF15
:104AC000540D7E007F0A71B8BFA5047F0180027F6C
:104AD00000900928EFF09102E94A4B701D7F04FE17
:104AE00071B8EF2401FFE433FEC374011264B67F92
:104AF0000050027F01900928EFF0900928E064013E
:104B000070379102AE029181FEA3E0FF910212780C
:104B1000A8E92407F9E43AFA900D411225AEE924F8
:104B200008F9E43AFE918164067004A3E0640A6027
:104B300008121B0B900928EFF0900928E0701C7EEA
:104B4000007F04C006C374849404FE741C123A30BF
:104B5000D0061247C5E4FFFE121B10900928E0FFA3
:104B6000121B3391967F0060027F01121A2A121ADB
:104B70003412196C126E4512763E7A127922121B8B
:104B8000ABF1E5FE4FFDA3E0FC4DFDA3E0FB4D6066
:104B90000BEE5FFFEC5FFFEB5FF470031258ED90DC
:104BA0001220E0FF901224E06F900923F0021C50C5
:104BB000E92DF9EA3CFEAF01E4FCFD904427122404
:104BC000F6D199123ECAEF6004D1A880F6123F0ACE
:104BD0007F03125007600A9044271247B5E4123E43
:104BE0002A9044271247ADE4123E2A904427123EF1
:104BF00026123EBE90442BEFF0123FBF90442BE0B4
:104C0000FF22900D3E02258E9043A01225AEE4FCBB
:104C1000FDC0079043A012258E9043A3127622D0A8
:104C2000079041A51224F69041A91225AED1991200
:104C30003ECAEF6004D1A880F6123F0A7F031250EB
:104C400007600A9041A51247B5E4123E2A9041A59B
:104C50001247ADE4123E2A9041A5123E269041AC87
:104C60001247CC6014123EBE9041A9F1DE9041AAD9
:104C7000E475F00112214880E4123FF1E4FF023FA5
:104C8000C3AF017B017A0D79449043A37402F09184
:104C900008900D44E02290092AE06401227B017A09
:104CA00040792E7D017F03121C6E7A4079377F0890
:104CB000F1CE7A4079347F09D17F7A4079327F0B07
:104CC000D17F9040321242506006BEFF16BFFF13E4
:104CD000D18650028004D18F8009904032E4F0A345
:104CE0007440F0D1865002800890402F7403F08009
:104CF0000690402F7402F090402EE01226BB4D1A11
:104D0000044D25144D2D154D35174D4B304D533455
:104D10004D5B364D633700004D4075FF015366EF24
:104D20008566FD804775FF015367EF800E75FF01B3
:104D30005367DF800675FF0153677F8567C9802C45
:104D400075FF015368DF8568CA802175FF015369CB
:104D5000FE801675FF015369EF800E75FF015369E0
:104D6000BF800675FF0153697F8569CB123FF17FD4
:104D700011D171E4FF123DC6123E3290402C7402F4
:104D8000F0904030E0247F6009047016D177740AF7
:104D900080071272F6D1777458F090402F7403F0A8
:104DA000D18F904031E0F46002C144904034E0FE85
:104DB000A3E0FF64104E7006904031740EF0EF6473
:104DC000204E7006904031740FF0EF64404E700634
:104DD0009040317410F0EF64804E70069040317452
:104DE00011F0E4B5070AEEB401069040317412F0F8
:104DF000E4B5070AEEB402069040317413F0E4B54E
:104E0000070AEEB404069040317414F0E4B5070AC2
:104E1000EEB408069040317415F0E4B5070AEEB41C
:104E200010069040317416F0E4B5070AEEB420067F
:104E30009040317417F0E4B5070AEEB44006904094
:104E4000317418F0D199123ECAEF6004D1A880F6EF
:104E50007F01123FC3D239123F0E7F06123FEF127D
:104E60003F0E7F01123E2A7F03123FEFE4FF023F15
:104E7000C3EF4420F5FE227F10D17190402C227B9D
:104E8000017D02021C6E904037E024FE24FD22903A
:104E900040327401F0A3E4F02275FF02E5E430E152
:104EA0000675E40675E40322E51430E20FE51420EC
:104EB000E50AE51430E0057F011238AB227E127F4F
:104EC0000BE4FDF1B5D199123ECAEF6004D1A88080
:104ED000F6229045F0EFF0C22F901220E0601F7E86
:104EE000127F0B71B8BF01087FFF121E947F002252
:104EF0009040C7E06008901220E0FF121E94D1BDE0
:104F00009045F0E07002E188E49040CBF09040C71B
:104F1000E060031252299045F0E0FFB40107904091
:104F2000CB74018009EFB403109040CB7402F0F110
:104F3000A89040C97404F08047EF64047034901264
:104F400020E0701DD22FF1C2EF700EF1A8F1D57ED6
:104F5000127F0B7D01F1B5D1C59040C77404F0807C
:104F60003990092AE0B40505E4F0121C19F1A87F74
:104F700000229045F0E0640270209040C9F0F1A852
:104F80009040C77402F08012E49040CBF0F1C2EF81
:104F90006002D1BD9040C77401F012522C9040C7FE
:104FA000E07F0060027F0122901217E05403F0229C
:104FB000903248E0FDAB05E4FCFD904430EBF0029C
:104FC0003F6D901217E07F0030E2027F01227B01EB
:104FD0007D01021C6E901217E04404F022FF12259E
:104FE0008EEF022077901222E0FFA3E0227F0112D1
:104FF0003FC3D239123F0E7F06123E2A123FF112F2
:105000003F0E90402CE0FF123E2A90402FE06402B9
:105010002275FF0275E40475E40175E4022275FF50
:105020000275E404E4F5E422126199900932EEF08D
:10503000A3EFF022126EC1EF70087FA07E0FFDFC7F
:1050400001D5126EF89040C2EFF07406D39F40670E
:10505000E0605A314F7E009040C2E014FDE5F0A8B8
:1050600005088005C333CE33CED8F9FF314831343B
:105070009040C31224BAC000C001C002C0039040D7
:10508000C2E014FF74107E00A807088005C333CE69
:1050900033CED8F9FFEE3395E0FDFC314012228B80
:1050A000D003D002D001D0001222708028314FAF3F
:1050B000F07E003148801E9040CAE0FF600FE4FCA3
:1050C000FDFEFB7AF47901F812228B80087F007EC6
:1050D000D07D077C00313431627E517F8EC006C0A6
:1050E00007312CD1E9D007D006519B126ED2EF7058
:1050F0003A313AD31223D94007E47F01FEFD8022E2
:10510000313A1223163134312CE47B01F111501461
:10511000312CC3EF9401FFEE9400FEED9400FDEC02
:1051200094003133312C121C371128229040C302D5
:10513000249EFDFC9040C30224F69040C312249E9E
:10514000E47BE87A03F9F8227C007D64022745318C
:1051500057EF75F0A08422900923E064AA2411FF80
:10516000F022F11FEF600FE47FA07E0F313290122A
:1051700017E054E7F022901217E0FF74E0D39F404D
:1051800005E02410F022EF6410901217F02271084D
:105190009040C7E0B4020AF1189040C77403F04190
:1051A0002C9040C7E0640370699040C9E06056905D
:1051B00040CBE0B40105121C1E800A9040CBE0B445
:1051C0000203121C239040C9E014F0E0601F315725
:1051D000EF75F04684E5F075F064A4FFEF24A0FFBE
:1051E000E5F0340FFEE433FDE433FC8007E47FA0F8
:1051F0007E0FFDFC9042231224F67E517F8EE490B8
:105200004227F0419B9040C77401F0512C7FFD0272
:105210001E949040C7E0B4040FF11FEF6007123AEC
:1052200039E4FF0134121C1E227401F09040C7E0E3
:10523000640270227C537D3B7F01121A20E4FBFA4A
:10524000FD7FFF121A077E517F8EC006C007D1E294
:10525000D007D00680459040C7E064037017FFFE7A
:1052600031329040CBE07C537D3BB402047F03801D
:10527000117F02800D9040C7E0B4040B7C537D3B4E
:105280007F04121A20218E9040C7E0B4010CF1185F
:105290007108124FA8E49040C7F02251A39040CC6F
:1052A000EFF022904221EEF0A3EFF07FFFA3122453
:1052B000BAE8494A4B60509042287403F090422863
:1052C000E0FEC3940E5040EE71C7E0703290422869
:1052D00071C57405F0C00790422312249E90421CB1
:1052E0001224F6904227E0904220F0904221E0FC08
:1052F000A3E0FDD007B153904228E004FF8008905E
:105300004228E004F080B6229040CCE0FF7115E422
:105310009040CCF022AB07E4FF1BEBC3940E501A75
:10532000EBD1D412250200000000B11A12250200B0
:10533000000000EB71C7E4F07F01229045B9EFF067
:10534000A3EDF071089045B9E0B40113A3E09040DB
:10535000C8F0124FA89040C77405F07FFE805F90A0
:1053600045B9E0640270229040CBE0640270559031
:1053700040C2F09040C77403F07E517F8EC006C0DB
:1053800007D1E2D007D006419B9045B9E0703512B5
:105390001A9DEF6401602A302F14121EA8EF600CD2
:1053A000121A9DEF60069045BA74FFF0C22F124E9C
:1053B000BD9040C7E0600251299045BAE0FF021E4F
:1053C00094121AA722E0FF75F00CA42475F582E46C
:1053D0003433F58322D3900001E09400900000E084
:1053E00094005002A119C2ADE0FFA3E09045B5CFF3
:1053F000F0A3EFF0E4900000F0A3F0D2ADF574B1AB
:10540000291242506049C39045B6E09F9045B5E0EF
:105410009E4021B137E0B4010FB1377402F090041F
:105420004CE0FFB129E48023B137E4F0B129E4F086
:10543000A3F0801BB129C083C082E0FEA3E0FFD1AE
:10544000CBC3EF9DFFEE9CD082D083F0A3EFF0059D
:1054500074E574640370A8903418E0FF601EF46073
:105460001B7E00D1CBC39FEC9E40087A007B007F5F
:10547000008004C3EF9DFF903418EFF0E4F574E56D
:105480007471C7E0607D9045B5F127E574B11BF1FB
:10549000DD504EB143E0FF6008F46005B143E01415
:1054A000F0B143E06010E574D1D412249EE574B1EC
:1054B0001B1224F68011E57471C7E4F0E574B11B8A
:1054C00012250200000000B1A9E0FEA3E04E600C2E
:1054D000B1A9E0FEA3E0AA06F912271B124EA8808C
:1054E00022E574B11BC083C08212249EC006C0078F
:1054F0009045B5F13FD007D00612227DD082D083EF
:105500001224F60574E574C3940E5002817F904511
:10551000B5E0FEA3E0FF121B4722EB75F00CA424BC
:105520006AF582E43433F58322E57425E02412F52C
:1055300082E43434F5832274672574F582E43433CD
:10554000F58322E57475F00CA42474F582E43433F9
:10555000F5832290421AECF0A3EDF0904219EFF09F
:10556000FB90421C12249EEBD1D41224F6B11A12E5
:1055700024F6B11AC083C0821224BA900000F12729
:10558000122270D082D0831224F6904220E0FF9045
:105590004219E0FEB145EFF090421AE0FCA3E0FDB5
:1055A000EEB1ABECF0A3EDF022E57475F00CA424A1
:1055B00072F582E43433F583229042F1F1C69042D1
:1055C000F674FFF09042F5E09042F7F09042F7E079
:1055D000FFC3940E505EEFB11B12249EE4FBF11149
:1055E000704A9042F5E07E0170027E029042F771AF
:1055F000C5EEF0C0079042F3E0FF7E006004F1E4E6
:1056000080027F0AE4FCFD90421C1224F69042F4D2
:10561000E0904220F09042F1E0FCA3E0FDD007B121
:10562000539042F7E004FF9042F6F0229042F7E0F8
:1056300004F080989042F6E0FF22900DE2EFF0A394
:10564000EBF0900DE2E02467B13BE0FEB402037F93
:105650000022EE701E900DE2E0FF2467B13B740162
:10566000F0900449E0FCA3E0FDEFB12BECF0A3EDDA
:10567000F0802AED241BFFE433FEE4FCFD7B0CFAF2
:10568000F9F812185EEF2405FF900DE2E0B12BE06F
:10569000FCA3E0C39FEC940050037F0022903418D9
:1056A000E0B4FF15900DE3E0540FFFBF0103E48069
:1056B0000490045DE0903418F0903418E060037FAB
:1056C000022290341874FFF07F01229045B5E0FC6F
:1056D000A3E0FD2275F00CA4246EF582E43433F5CA
:1056E0008322E47FD07E07FDFC9042231224F6E45F
:1056F000904227F022AB07E4FA1BEBC3940E500E46
:10570000EBD1D41278E76006B11A1224F60AAF0280
:1057100022FAF9F8C30223D9E4FDFCFF021A209013
:105720001217E05408FF22E0FEA3E0FFE4FCFD2294
:105730007BFF7D019042F57403F0A1B990449AE09B
:10574000FEA3E0FBAA06E4F9F82290449AF1C6F120
:105750003CF1BC127885C006C00790449A1247BD40
:10576000F143D007D006D31223C37E0050047F013B
:1057700080027F00C006C007F13CF1BCD0E02FFFE3
:10578000D0E03E90449AF0A3EFF053ECFC90449AA2
:10579000F1D6540342EC75FF02EDF5AF75ED0275DD
:1057A000ED04A3E0600543EC08800353ECF790445C
:1057B0009DE0600443EC042253ECFB227F807E38A2
:1057C0007D01FC02185EEEF0A3EFF0A3EDF0A3EB79
:1057D000F022C1F56115E0FCA3E0FDEC221224BA31
:1057E000D30223D97C007D0A0220AB20082C901222
:1057F00017E030E10B12581D50067E007F01800437
:105800007E007F00EF4E7012121CCDEF700C121D47
:1058100004EF70061250287F01227F0022A2192275
:105820009004FDEFF09004FFEBF09004FEEDF054D7
:105830000290123FF01257EBEF7002C3229004FD6A
:10584000E0B40411A3E0FB7D017F01117E9004FD13
:105850007403F080179004FDE0B40505121C288045
:105860000B9004FEE0FB7D01E4FF117E9004FDE05F
:10587000900929F09004FFE090123EF0D322EB60F3
:105880000875FF0153CDFD800675FF0143CD02ED84
:10589000600553FBDF800343FB20EF600775FF02C9
:1058A00043E1402275FF0253E1BF22121C287F0111
:1058B00043FB1075FF0243E640EF600D75FF02E504
:1058C000E120E7FB43FB0D800343FB0E80FE75FFE9
:1058D000028FE322901220E07011124FE54FFFA3D8
:1058E000E04FFFA3E04F7003D38001C322E4FF1217
:1058F00038ABEF60403136313D5009901222E0C3A1
:1059000094C040F17B017A127924313D500F124F3F
:10591000E55FFFA3E05FFFA3E05FF460E79012297B
:10592000E030E0057F011238ABE4901220F0313610
:10593000E0FD121BB0227B017A12792222904120D5
:105940001236FB9041261225020000000190412AE8
:105950007401F0F5FFE5D554C0700512362E5002E3
:10596000C322E4F5FF53967F75FF0175D5047F3F91
:10597000FE1237CF75FF0143D508E4F5FF5394FBC2
:10598000F5FF53847FF5FF7598FF904124E5F4F00F
:1059900075F49C75FF01A3E5E4F075E4257B017ABD
:1059A00041792A12705290412AE0640160024168F4
:1059B000F5FF9041237414F09041261246D97801E6
:1059C0001223FD9041261224F6E5A730E1FB43A700
:1059D000029041261246D9E5A730E005E47B01801C
:1059E00002E4FBFAF9F8EF4BFFEE4AFEED49FDEC5D
:1059F00048FC9041261224F6904123E014F070B840
:105A00009041261246D978101223EA7B6D7A4E799E
:105A1000C6784112228BEF2439FFEE343051B9FCA5
:105A2000E4FBFA7901F8122316EE547FFEE4FDFC44
:105A30001264BF9041261246D9EB6FFFEA6EFEE872
:105A4000CDEFCDCCEECCECFF9041201237F1EF1230
:105A500020779041201237F112780690120FE03033
:105A6000E606E4F5FF75968075FF01E4F5D59041F3
:105A700024E0F5F475FF01A3E0F5E41270D4904141
:105A80002AE0B40103D38001C322E0FCA3E0FDA31C
:105A9000E0FEA3E02420FFEE344EFEE43DFDE43CB6
:105AA000FCE4FB7A04F9F812228BE47B7DFAF9F826
:105AB000122316EF2401FFE43EFEE43DFDE43C2208
:105AC000903E7B1224F6126B9C903E9012250200B1
:105AD0002DC6C0E4F5FFF5A490120EF0A3F0903EA1
:105AE0008B7402F075FF03903E8BE0FFF595EF1489
:105AF000601414601E2402702A903E7B1246D9F175
:105B000098903E878018903E7F1246D9F198903E3B
:105B100088800B903E831246D9F198903E89E090A0
:105B20003E94F0F1E6903E94E0700512777B805849
:105B300090120EE004F0903E8BF1C5903E9012461C
:105B4000D9903E8CD125FBC31223D9500A903E8CAC
:105B50001246D9A31224F6903E94E0FF127086906C
:105B60003E8AE0FFA3E0FDA23492321271B3A31289
:105B700046D99044231224F6903E8BE0FFB18F90DB
:105B80003E8BE01246CCD130F1D7600241E4740282
:105B9000F075FF03903E8BF1BD7017FF7E04FDFC96
:105BA000903E90D125FB51A7B189903E8B1246B90A
:105BB000D130F1D770DB126B51400343F420A23493
:105BC00092331270E5903E90518AB189C2311277BA
:105BD0004E9012137401F07E127F01E4FD8F828ECD
:105BE00083EF2DF582E43EF583E0FC901213E02C68
:105BF000F00DEDB412E722903D731224F6903D8330
:105C00007401F0E4A3F0126B9C75FF02E5E630E04E
:105C10000E903D847401F0FB7A3D798412705290AD
:105C20003D8E122502002DC6C0E4F5FFF5A49012AA
:105C30000FF0903D857402F075FF03903D85E0FF05
:105C4000F595EF14601414601E2402702A903D73C1
:105C50001246D9F19E903D7F8018903D771246D92B
:105C6000F19E903D80800B903D7B1246D9F19E9035
:105C70003D81E0903D92F0F1E6903D92E07005129A
:105C8000777B806890120EE004F0903D85F1C5901E
:105C90003D84E0701C903D8E1246D9903D8AD125FE
:105CA000FBC31223D9500A903D8A1246D9A312246D
:105CB000F6903D92E0FF127086903D82E0FF903DAD
:105CC00085E0FDA23592321271B3903D84E07013ED
:105CD000903D8A1246D99044231224F6903D85E0E7
:105CE000FFB18F903D85E01246CCD130F1CE6002FD
:105CF0008138903D84E07031A37402F075FF039009
:105D00003D85F1BD7012903D8ED120FB51A7B18928
:105D1000903D851246B9D130F1CE70E0903D8E5164
:105D20008AB189903D861224F6126B51400343F4E8
:105D300020A23592331270E5903D84E024FF923129
:105D4000903D861246D912774EE4F5FF75E50812AC
:105D50006B44E59B30E7FB123743126B3343D504AA
:105D60007FC812375771D11237D37B017A3D7983BF
:105D7000126C0690120EE0B40103126B2C903D835E
:105D8000E0B40103D38001C322FC78010223EA902E
:105D90004422EFF0E4A3D120FB51A7B18990442223
:105DA000E0FBF16E1224F6901210E064806070E067
:105DB000C3947F5038EBF16EC083C0821246D9EE97
:105DC000C0E0EFC0E0901210E075F004A4AEF0FB6C
:105DD000CAEECAEA3395E0F9F8D0E0FFD0E0FEC39E
:105DE000EF9BFFEE9AFEED99FDEC98802A904422FD
:105DF000F16DC083C082D125FB901210E0F40475D0
:105E0000F004A4FFAEF0EE3395E0FDFCEB2FFFEACB
