:020000040000FA
:10000000021800021803094D09520002180B0BD701
:020010000BDC07
:0700130002181308A80AC936
:07001B0002181B0ADD0C6D49
:0E0023000218237F0322D32202182BA21822D8
:060033000218330218451B
:06003B0002183B0236969C
:06004300021843023466BE
:06004B0002184B024B02FB
:0700530002185375ED0422B1
:07005B0002185B75ED0222A3
:06006300021863AFEF225A
:06006B0002186B8FEF226A
:100073000218734103C1004103C000E00202000003
:100083001C84E002020002120FE00102000954E0A6
:100093000102000AA5E00102120B00E00502120CA6
:1000A300120F02060A41093B0601140041093A01F5
:1000B30041093801C119011900011700C12E41413D
:1000C3005D004141520041415B0041415C004141BF
:1000D30059FF4140D500C11CC102413315004133D2
:1000E300A3FF41339A00C1004133A4004133A5006B
:1000F30041339B01C1054133140041460D00C13A10
:10010300433F8E000000413F8D00413F9100430378
:10011300B70000004303B40103B742362F980743E7
:10012300440A00000043440701440AE0020212119A
:1001330001B0E00102121300E00102129400E00595
:100143000213BC01B006060A414573024145720D14
:100153004145740860203BF242DB010000000000CF
:10016300000000000000000000000000000000008C
:10017300000000000000000060203C1209000000A5
:10018300000000000000000000000000000000006C
:10019300000000000000000000000000503E570077
:1001A300000000000000000000000000000000C18B
:1001B30013015000C110C1114144F005C11DC11FFD
:1001C300C124422B7D9840412B7F00433C650000B6
:1001D30000423C63000060202B3C00000000000054
:1001E300000000000000000000000000000000000C
:1001F300000000000000000000004327F19F010001
:100203005027F40000000000000000000000000080
:1002130000000161272DFF000201050101020E0606
:10022300010100040704010203000004000608059D
:100233000402080314040004001405010809080556
:100243000208031405000400140500060014080244
:10025300020A0A0802030100080004001408000649
:10026300001408010800140A020D000A0A020C0017
:100273000A0A02080B0A0A01050C0E0A00040014FC
:100283000A000600140A010800140E000A0D110EDC
:10029300020804140E000400140E000600140E01DC
:1002A3000800140E010500140E020F0E1211000CAB
:1002B3000C0E1102080414110004001411000600AE
:1002C300141101080014110105001411000A00148F
:1002D3001102050E12120208041412020C0F00126E
:1002E3000004001412000600141201080014120185
:1002F30005001412000A0014120205001412000C67
:10030300001413020C010000020900000002100097
:1003130000140209010014020B001314000710005B
:1003230014020A0100140204001414020C00141431
:10033300020D010014020E001414021001006024C7
:10034300300F0200FFFF0602FF000602FF00030159
:10035300FF002300FFFF0300000013000000020062
:10036300010103000000462F66010002010402425E
:100373002FEC0C5E41307300413221014130790092
:1003830043307601303443306A013034410AEB00A4
:10039300602009A1EDFFFFFFFFFFFFFFFFFFFFFF4E
:1003A300FFFFFFFFFFFFFFFFFFFFFFFFFFFFFFFF5A
:1003B300FFFFFF7F60282776060A0000000300087E
:1003C300EEEF7F88CF7FC00F028124E04000000062
:1003D300008080180100E833000006000060000080
:1003E30041216200412172004121600141216511D7
:1003F3004121610041243F0041245F0041243C002E
:1004030041246B004F24500127A50001247F0001E4
:1004130027CE0000000042247D8700C126C127416A
:100423003404964134000FE0020213C100A8E00532
:1004330002146400A804060AE0020214690807E033
:1004430005021C6B080705060A473D100000000063
:10045300000000433D0D000000E002021C70001389
:10046300E00C021C720000030800030008060A06E1
:100473000AE005021C7E0013FF060AE002021C8349
:10048300000000C2D5E830E70FB2D5E4C39BFBE41C
:100493009AFAE499F9E498F8EC30E717B2D5120424
:1004A300BC121CA2E4C39BFBE49AFAE499F9E49816
:1004B300F88003121CA230D50DE4C39FFFE49EFE17
:1004C300E49DFDE49CFC22EF9004D3939008007319
:1004D3000A20364CE57FFF22EFF57F220000000063
:1004E3000000000000000000000000000000000009
:0C04F30000000000000000000000008776
:1005080075819F75FF03759E021208200223B602AB
:1005180005E1900076E47E019360F4A3FF543F3038
:10052800E509541FFEE493A360010ECF54E0B4E044
:100538000EEFFAEEF9A3A3A3A3DAFDD9FB80D654F4
:10054800C025E0604B5026E493A3F85407240CC858
:10055800C333C4540F4420C8834004F45680014672
:10056800F6DFE480B00102040810204080E493A381
:10057800FAE493A3F8E493A3C8C582C8CAC583CA9A
:10058800F0A3C8C582C8CAC583CADFE9DEE780858B
:10059800E493A3F8E493A34003F68001F208DFF4A0
:1005A80002051D789FE4F6D8FD9000007F007E10BC
:1005B800E4F0A3DFFCDEFA90462BA3E583C3942086
:1005C8004011FEAF829020000E0FE48002F0A3DFFE
:1005D800FCDEFA12082002051A223200000100008F
:1005E80000001706000000001806000000061806A4
:1005F80000000001180600000008180600000001AD
:1006080001010000000115000000000102040000C3
:1006180000010B04000000060B04000000080B0496
:10062800000000010D00000000010E0400000001A0
:100638001000000000010F00000000040501000088
:100648000004060600000004070800000002050078
:10065800000000030501000000010805000000007B
:100668000800000000010C01000000011205000054
:10067800000803020000000122000000000816081C
:100688000000000808000000000116010000000634
:100698001601000000050903000000050A0000001B
:1006A80000050302000000050400000000061B0608
:1006B800000000011B06000000061C0700000006E1
:1006C8001D07000000070508000000081E070000BD
:1006D80000082000000000081F000000000821009A
:1006E80000000008110600000001110600000008C3
:1006F8002200000000061906000000061E00000087
:1007080000062000000000061A0800000006140178
:10071800000000071401000000081B060000000785
:1007280024000000000814010000005555555555D7
:10073800555555555555555555553333333333332D
:100748003333333333333333333388888888888873
:100758008888888888888888883F241E16110E0B08
:1007680009070504030201F0C8A7917767604638B6
:10077800353230242220140001010202030304044C
:1007880005050606070788888888888888888888ED
:100798008888888888262626262626262626262607
:1007A8002626262626000DFA20000DDC7000000003
:1007B80000020C00013F3F3F040404404040000099
:1007C80000000CDB0CE00CE50CEA0CEF0CF40CF967
:1007D8000CFE0D030D080D0D0D120D170D1C08C193
:1007E80008C608CB08D008DA08EE08F308F8085855
:1007F800085D086C08710876C07F7408C0E0C08284
:10080800C083757F0AE5FF54CF4490F5FF22C07F6F
:100818007408C0E0C082C083757F20E5FF54CF44D0
:1008280090F5FF22C07F7408C0E0C082C083757F46
:1008380036E5FF54CF44A0F5FF22C07F7408C0E01E
:10084800C082C083757F4CE5FF54CF44B0F5FF22CA
:100858009081AA01169081BE011690889F0116907A
:10086800B279011690D7C6011690D7DE011690838B
:10087800B6011690D85B01169093DD011690E788B3
:10088800011690E80C011690AEF5011690A7F1013B
:100898001690E839011690E855011690E9100116EE
:1008A80090EAB9011690EA7B011690E74401169088
:1008B800D250011690E36C011690DCB4011690DA60
:1008C800F7011690EF9A011690CF82011690F01357
:1008D800011690CF7E011690F031011690F0490173
:1008E8001690D88A011690E2F4011690D5EA0116FE
:1008F80090D416011690F2B4011690F2BC0116902D
:10090800F357011690E31D01169089E8011690DA55
:100918005F011690DA49011690E45B011690EFD951
:10092800011690F35D011690F3A1011690F3E6010C
:100938001690F41A011690F465011690F4FC01164D
:1009480090F4AC011690F5C10116909566011690C9
:10095800E62B01169081F1011690E749011690F5F2
:10096800CF011690F5F9011690D3A1011690F6E67D
:10097800011690D4A0011690F715011690D33B01EB
:100988001690D326011690F727011690D3BD0116AD
:1009980090F738011690F753011690D3AE011690D0
:1009A800F773011690F7E6011690F7E7011690F72E
:1009B800EC011690F6EC011690D492011690D51021
:1009C800011690F805011690D4CA011690E8BD01E9
:1009D8001690F836011690DB17011690CBA0011679
:1009E80090E4C1011690DE53011690DE7B0116904B
:1009F800DEAE011690CE52011690F88E011690CEFA
:100A080094011690DD47011690DFDF011690F8CEAD
:100A1800011690F60A011690E659011690E66C0147
:100A28001690B364011690B4AF011690EDB6011696
:100A380090BF94011690C02A011690F1E701169014
:100A4800F9B8011690F219011690BF2F011690FA05
:100A580059011690FB1B011690809701169080FB98
:100A68000116908000011690815F01169080B201F6
:100A78004290C1AF0142909902014290A92A0142D5
:100A8800909658014290959C01429099330142906A
:100A98009999014290C1CC014290C1EC01429081E8
:100AA800CC01429098C5014290C2E1014290C31125
:100AB800014290C7E3014290AE42014290A4CF01A7
:100AC8004290C9C0014290C88E014290CB82014237
:100AD8009088BD014290CCA7014290CB750142900D
:100AE800C288014290CCB5014290CCF0014290B14D
:100AF800AD014290CD69014290CDE7014290CD8E83
:100B0800014290CE28014290CE6D014290CE8501DF
:100B18004290CE9F014290A91B014290CF170142FB
:100B280090CF5E014290993E014290CF9901429048
:100B3800D172014290992501429080000142908033
:100B480097014290D189014290D19B014290D1B442
:100B5800014290A949014290B5E7014290CB0901B1
:100B68004290D4D1014290D4D6014290D54F01424F
:100B780090D5B3014290D787014290D10B014290A2
:100B88009396014290A5CE01429095C3014290856B
:100B9800C2014290A46C01429098FB014290D86730
:100BA800014290D9AB014290AD8B014290C2DF0166
:100BB8004290C358014290E0A5014290E06C014286
:100BC80090AE40014290D7E8014290D96D01429021
:100BD800AE6E0142909691014290E13A01429095A1
:100BE80039014290984B01429090BB014290E152EA
:100BF8000142908CF5014290D179014290D1810156
:100C08004290E1B001429098BD01429098AF0142F4
:100C180090E1DC014290E1F8014290CFE901429075
:100C28008856014290D156014290CFEC014290CFB4
:100C3800F2014290CFF8014290B5DB01429098B79B
:100C4800014290E33E014290E41F01429082FB0181
:100C580042909871014290E65F014290E669014234
:100C680090D15D014290E687014290888E014290C2
:100C7800E70A014290DA54014290E71B014290E7EB
:100C88007A014290DF3D014290DCDE014290DC991E
:100C9800014290E79F014290B2B0014290E80501FD
:100CA8004290C1220142909EDC0142908379014228
:100CB80090836B014290C08D014290C1D80142904F
:100CC800BC62014290BE67014290BC6B01429084B5
:100CD8004A014290A057012C909F34012C909F8E7E
:100CE800012C90A061012C90A06B012C90A07501A3
:100CF8002C90A087012C909FF4012C909E22012C0F
:100D080090A091012C90A0AA012C90A0D2012C9027
:100D1800A105012C90A141012C908000012C90A3E9
:100D28003C012C90A33D012C90944F012C90A3746E
:100D3800012C909A6A012C909C68012C90A3F801D0
:100D48002C909B23012C909B29012C9098F3012C2B
:100D5800909A00012C90A697012C000C770C810C1E
:100D6800860C8B0C900C950C9A0CA45A2D57617616
:100D78006520362E3130000B5A0B690B6E0B730B46
:100D880078822D1C161311101033D03006315409F7
:100D980093099809CF0BAA0BB40BD2E4FD7C0CABDA
:100DA800050DEB900D73938F828E83F00FBF0001BA
:100DB8000EDCEC0200268F828E83E4F0A37406F02A
:100DC800B1E2740AF0B1E2A3E4F0EF2404F582E49E
:100DD8003EF583E4F0A3746DF0228F828E83A3A383
:100DE80022AD07901217E054FCF0E0FFED54307E7E
:100DF8000060027E02EF4E901217F0E0FFED7E00D9
:100E080030E0027E01EF4E901217F0229003C97471
:100E180002F09003C0E0FFB130B1E99003C9740556
:100E2800F0229003C7E0FFB1219003CCEFF02290AD
:100E380003CCE07F0070027F0122E49003C7F02218
:100E48009003C77401F0229003C77402F022D15DA9
:100E580070027F01229003C7E07F0022D15DB401B8
:100E6800027F0122D15DB402027F01221213B33145
:100E780057511F11997155F1F47002E1537FFF31F9
:100E8800DE900A53121F3A7E007F09F1AABF540D63
:100E98007E007F0AF1AABFA5047F0180027F00902F
:100EA80003C0EFF0900A53121F1AE94A4B701D7FD6
:100EB80004FEF1AAEF2401FFE433FEC37401123CDF
:100EC8009F7F0050027F019003C0EFF09003C0E0C5
:100ED80064017046900A53121F1AAE021258871204
:100EE80051A2900A59E0FEA3E0900A531256F9E481
:100EF8003AFA900A56121F3AE92408F9E43AFE121F
:100F080058871251A2900A59E064067004A3E0645D
:100F18000A600731E39003C0EFF09003C0E070244B
:100F28007E007F04C006C374849404FE741C94007D
:100F3800904363F0A3CEF01237B5D006125354E4B1
:100F4800FFFE31E89003C0E0FF510BF1F47F006031
:100F5800027F01310C311611621256027A1279237E
:100F6800517E122832FE4FFDA3E0FC4DFDA3E0FBAD
:100F78004D600BEE5FFFEC5FFFEB5FF47003122830
:100F88003A901221E0FF901225E06F9003BBF061C8
:100F980023E075F002A42485F9740F35F07B02FE76
:100FA800AF01E4FCFD904466121E82121012121169
:100FB80029EF60051216CD80F51211687F03121310
:100FC8003260099044661217B912108A904466126A
:100FD80017AF12108A90446612108612111D9044A1
:100FE8006AEFF012129490446AE0FF229003C2E084
:100FF80064012275FF0275E40475E40175E40222B8
:1010080075FF0275E404E4F5E42275FF02E5E430B7
:10101800E10675E40675E4032290420E121E8290E2
:101028004212121F3A11123129EF6004D1CD80F714
:10103800711D600790420EF1B9118A90420EF1AF0E
:10104800118A90420E121E2AE48026904215121828
:101058000A6022904212121F1AE94A6012121944B9
:10106800FF118A904213E475F001121AD480DCE46F
:10107800FF118A80D651949040CC7401F022121E40
:101088002AE4E5C820E2FB8FEB227F0151989046C5
:10109800067401F0904606E0602ED1FD311D9046A1
:1010A80006EFF05116310C9040C9EFF051169046FA
:1010B80006E05401F1D160DCA3E0F460D7EF30E73B
:1010C800D3E4904606F080CC316C7F9F118A311DA5
:1010D8009040CA311B9040CF311B9040D0EFF05167
:1010E800949040C8E0F4601BA3E0F460169040CFF1
:1010F800E0FD541F240FA3F0EDC41354074480905F
:1011080040CFF022316C7FD7118A7FFF118A3121BD
:101118009040C8EFF07FFF118AE5C820E2FBAFEBF3
:10112800227F015198303814D1FD311D904607EFC8
:10113800F05116904607E020E002C23830381731E7
:101148000C9040C9EFF1D1600BA3E0F46006EF30DA
:10115800E702C2385116E4FF5198A238E433FF225F
:101168007F0151989040CDE0122047118F041197CC
:1011780014119C1511A11711B13011B63411BB36D9
:1011880011C037000011A9536CEF856C80802F5374
:101198006DEF8008536DDF8003536D7F856D908000
:1011A8001D536EDF856EA08015536FFE800D536F43
:1011B800EF8008536FBF8003536F7F856FB07F0C3C
:1011C800DFFE2290446B121E8290446B121E2A127C
:1011D8000FAD90446FE06F603111123129EF600458
:1011E800D1CD80F7711D600790446BF1B9118A90D9
:1011F800446BF1AF118A90446B118690446FE0FF05
:1012080051929040CC7401F0D322C322118A125318
:10121800DCEF70FA9040CFE0F4600A90460574065F
:10122800F0F1D970FC9040CDE01220471250041222
:101238005814125D15126217127230127734127C2C
:10124800361281370000126A436C10856C80802F3B
:10125800436D108008436D208003436D80856D9039
:10126800801D436E20856EA08015436F01800D435D
:101278006F108008436F408003436F80856FB09084
:101288004605740CF0F1D970FC22118A5116E4FF5E
:10129800EFB4010443FE202253FEDF2290421712CE
:1012A8001E8290421B121F3A11123129EF6004D19D
:1012B800CD80F731687F0371326007904217F1B92A
:1012C800118A904217F1AF118A9042171186904205
:1012D8001E12180A6014311D90421B1242EA9042F5
:1012E8001CE475F001121AD480E45116E4FF80A0C2
:1012F80011123129EF6004D1CD80F77F015198D2C6
:1013080038316C7F065114316C7F01118A7F03518B
:1013180014E4FF41987F015198D238316C7F06114F
:101328008A5116316C9040CBE0FF118A9040CEE094
:101338006402229040C8E020E01231687F3D118AA3
:101348007F2A118A7F80118A7FA65192229045DFD9
:10135800EFF0E4A3F09040D6E0FFB40209740FF177
:101368009F74B9F0800CEF6404703F743DF19F7472
:1013780079F031689045DFE060079040D5E0FF8064
:10138800027FAB118A51169045DFE09040D5F0708E
:10139800159045E0E0D39400400C7FFF118A9045FA
:1013A800E0E014F080EBE4FF5198227B017A407969
:1013B800CD7D017F03120B2D7A4079D67F08125715
:1013C800A17A4079D37F09F1CA7A4079D17F0BF1AC
:1013D800CA9040D1F1C36006BEFF17BFFF14F1EAFF
:1013E8005002800512582080099040D1E4F0A3747F
:1013F80040F0F1EA500280089040CE7403F0800675
:101408009040CE7402F09040CDE012204714310491
:10141800143C14144415144C17146230146A341410
:101428007236147A370000145775FF015368EF8538
:1014380068FD804775FF015369EF800E75FF015302
:1014480069DF800675FF0153697F8569C9802C753E
:10145800FF01536ADF856ACA802175FF01536BFE5D
:10146800801675FF01536BEF800E75FF01536BBF3C
:10147800800675FF01536B7F856BCB51167F11D1A9
:10148800F7E4FF715511929040CB7402F09040CF71
:10149800E0247F6009047016F1A7740A8006713B86
:1014A800F1A77458F09040CE7403F0125820904081
:1014B800D0E0F46002A1589040D3E0FEA3E0FF64BE
:1014C800104E70069040D0740EF0EF64204E7006F7
:1014D8009040D0740FF0EF64404E70069040D07486
:1014E80010F0EF64804E70069040D07411F0E4B5AF
:1014F800070AEEB401069040D07412F0E4B5070A6A
:10150800EEB402069040D07413F0E4B5070AEEB4C6
:1015180004069040D07414F0E4B5070AEEB4080647
:101528009040D07415F0E4B5070AEEB41006904068
:10153800D07416F0E4B5070AEEB420069040D074D3
:1015480017F0E4B5070AEEB440069040D07418F0DE
:1015580041F89040F5121E829040F9121F3A9040CF
:10156800F5121E2A9040D2E024FFFD9040D1E034CD
:10157800FF5EFEED5FFF9040FE12574D606C90409D
:10158800FE1256579040D2E09FFF9040D1E09EFE59
:101598009040FEF0A3EFF09040FCE0FCA3E0FDD308
:1015A8009FEC9E50031255F0D19312527B602BF1A1
:1015B80072121BFCC004C005C006C007D193E94ADB
:1015C8006005F103FF80027F007E00D1931256650B
:1015D800D007D006D005D0041121D16CE94A6004A7
:1015E800F1E180737E007F00806D9040FCF1C36064
:1015F800719040D1E0FCA3E0FDD3EF9DEE9C400A42
:101608009040FEECF0A3EDF0800D9040FCE0FFA3CD
:10161800E0A3CFF0A3EFF0D19312527B602BF172CD
:10162800121BFCC004C005C006C007D193E94A607C
:1016380005F103FF80027F007E00D193125665D02A
:1016480007D006D005D0041121D16CE94A6004F115
:10165800E180047E007F009040FAEE8FF0121AD4E9
:101668008088D3229040FEE0FEA3E0FFC39040FDB7
:10167800E09FF09040FCE09EF09040F5121E46E49A
:10168800FCFD121BFC9040F5121E829040F9021FCF
:101698001AEFF4045FFFE4FEEF70037FFF22EFD33D
:1016A800940F4009EFC4540FFFEE4404FEEFD394A7
:1016B80003400AEF1313543FFFEE4402FEEF30E1FC
:1016C800010EAF0622E51530E20FE51520E50AE523
:1016D8001530E0057F01123790227E127F0BE4FD62
:1016E8001233C311123129EF6004D1CD80F722EFF4
:1016F8004420F5FE22316C7F05018A904102E0FF0B
:10170800D199EFC43354E022AB07AA06EB241FFF9C
:10171800E43AFEEF7805CEC313CE13D8F9F9EB54AB
:101728001F904608F0AF05F108FCAF05D19EAE0149
:10173800EE14C39FC43354E0F9AF04C3EB9FFFEA30
:101748009400FEE9FDC3EF9DFFEE9400FEED600FEF
:10175800E0FD6007C374209DFD80067D0080027D4A
:10176800007C00EF2DFFEC3EFE229040FEE0FEA341
:10177800E0FF904102E0FDF110904100EEF0A3EF90
:10178800F0A3E0FFD199EF75F020A4FFAEF0E4FCE0
:10179800FD9040F5021E469045E0F09040D5227F2E
:1017A80010D1F79040CB22121E2A7808121D76E439
:1017B80022121E2A7810121D76E422E0FEA3E0FF12
:1017C8004E227B017D02020B2DF09040C8E0FFF411
:1017D80022904605E014F0E0229040FEE0FEA3E0EF
:0E17E800FF229040D6E024FE24FD22AF7422A2
:071800000205081250EB2263
:101808007FB874FFF5F051EA45F02211369003CA0B
:10181800EEF0A3EFF022E4FF02129802504B75C8D5
:0218280001229B
:10182B0002387F901215E054FEF022A2AD9228C22E
:10183B00ADAF77AE76A22892AD2275FF028FE32271
:10184B00024054E709F608DFFA8046E709F208DFA1
:10185B00FA803E88828C83E709F0A3DFFA8032E3BB
:10186B0009F608DFFA8078E309F208DFFA8070885E
:10187B00828C83E309F0A3DFFA806489828A83E098
:10188B00A3F608DFFA805889828A83E0A3F208DF87
:10189B00FA804C80D280FA80C680D4806980F28036
:1018AB0033801080A680EA809A80A880DA80E2805C
:1018BB00CA803389828A83ECFAE493A3C8C582C8B1
:1018CB00CCC583CCF0A3C8C582C8CCC583CCDFE91B
:1018DB00DEE7800D89828A83E493A3F608DFF9ECB7
:1018EB00FAA9F0EDFB2289828A83ECFAE0A3C8C542
:1018FB0082C8CCC583CCF0A3C8C582C8CCC583CC69
:10190B00DFEADEE880DB89828A83E493A3F208DFD7
:10191B00F980CC88F0EF60010E4E60C388F0ED24A7
:10192B0002B4040050B9F582EB2402B4040050AFAA
:10193B00232345822390189E73BB010689828A83D9
:10194B00E0225002E722BBFE02E32289828A83E473
:10195B009322BB010B89828A83F8E0C828F0E82226
:10196B00500327C722BBFE07F8E3C828F3E8228AF7
:10197B00838982E49322BB010CE58229F582E583FE
:10198B003AF583E0225006E92582F8E622BBFE06F3
:10199B00E92582F8E222E58229F582E5833AF5838F
:1019AB00E49322BB010989828A83F8E028F0225054
:1019BB000327F722BBFE05F8E328F3228A838982EB
:1019CB00F8E4932822BB010FF8E58229F582E58321
:1019DB003AF583E028F0225009C58229F8E58226E2
:1019EB00F622BBFE09C58229F8E22582F222F8EA2B
:1019FB002583F583E9932822BB010689828A83F02C
:101A0B00225002F722BBFE01F322F8BB010DE58247
:101A1B0029F582E5833AF583E8F0225006E9258221
:101A2B00C8F622BBFE05E92582C8F222EF8DF0A491
:101A3B00A8F0CF8CF0A428CE8DF0A42EFE22BC00F3
:101A4B000BBE0029EF8DF084FFADF022E4CCF875CE
:101A5B00F008EF2FFFEE33FEEC33FCEE9DEC9840DD
:101A6B0005FCEE9DFE0FD5F0E9E4CEFD22EDF8F579
:101A7B00F0EE8420D21CFEADF075F008EF2FFFEDD9
:101A8B0033FD4007985006D5F0F222C398FD0FD5D1
:101A9B00F0EA22C2D5EC30E709B2D5E4C39DFDE4F0
:101AAB009CFCEE30E715B2D5E4C39FFFE49EFE121B
:101ABB001A49C3E49DFDE49CFC8003121A4930D5FE
:101ACB0007C3E49FFFE49EFE22C5F0F8A3E028F0D5
:101ADB00C5F0F8E582158270021583E038F022A379
:101AEB00F8E0C5F025F0F0E582158270021583E071
:101AFB00C838F0E822BB010A89828A83E0F5F0A39B
:101B0B00E022500687F009E71922BBFE07E3F5F048
:101B1B0009E3192289828A83E493F5F074019322F5
:101B2B00BB0110E58229F582E5833AF583E0F5F0F8
:101B3B00A3E0225009E92582F886F008E622BBFED5
:101B4B000AE92582F8E2F5F008E222E5832AF5831B
:101B5B00E993F5F0A3E99322BB010DC58229C58258
:101B6B00C5833AC583021AD45011C58229F808E5FA
:101B7B00F026F618F5F0E58236F622BBFE11C5828B
:101B8B0029F808E225F0F5F0F218E23582F222F896
:101B9B00E58229F582E5832AF58374019325F0F517
:101BAB00F0E4933822BB010A89828A83F0E5F0A323
:101BBB00F0225006F709A7F01922BBFE06F3E5F059
:101BCB0009F31922F8BB0111E58229F582E5833A65
:101BDB00F583E8F0E5F0A3F0225009E92582C8F679
:101BEB0008A6F022BBFE09E92582C8F2E5F008F24F
:101BFB0022EF2BFFEE3AFEED39FDEC38FC22C3EF62
:101C0B009BFFEE9AFEED99FDEC98FC22E88FF0A479
:101C1B00CC8BF0A42CFCE98EF0A42CFC8AF0EDA468
:101C2B002CFCEA8EF0A4CDA8F08BF0A42DCC38259B
:101C3B00F0FDE98FF0A42CCD35F0FCEB8EF0A4FE7B
:101C4B00A9F0EB8FF0A4CFC5F02ECD39FEE43CFC10
:101C5B00EAA42DCE35F0FDE43CFC2275F00875822C
:101C6B0000EF2FFFEE33FECD33CDCC33CCC582331B
:101C7B00C5829BED9AEC99E58298400CF582EE9B20
:101C8B00FEED9AFDEC99FC0FD5F0D6E4CEFBE4CD3E
:101C9B00FAE4CCF9A88222B800C1B90059BA002DD8
:101CAB00EC8BF084CFCECDFCE5F0CBF97818EF2F91
:101CBB00FFEE33FEED33FDEC33FCEB33FB10D703C0
:101CCB00994004EB99FB0FD8E5E4F9FA227818EF69
:101CDB002FFFEE33FEED33FDEC33FCC933C910D7C8
:101CEB00059BE99A4007EC9BFCE99AF90FD8E0E4D5
:101CFB00C9FAE4CCFB2275F010EF2FFFEE33FEEDAB
:101D0B0033FDCC33CCC833C810D7079BEC9AE8997A
:101D1B00400AED9BFDEC9AFCE899F80FD5F0DAE45C
:101D2B00CDFBE4CCFAE4C8F922EF5BFFEE5AFEEDF3
:101D3B0059FDEC58FC22C3E49FFFE49EFEE49DFD9D
:101D4B00E49CFC22EB9FF5F0EA9E42F0E99D42F009
:101D5B00EC6480C864809845F022EB9FF5F0EA9E16
:101D6B0042F0E99D42F0E89C45F022E8600FECC39D
:101D7B0013FCED13FDEE13FEEF13FFD8F122E86019
:101D8B000FEFC333FFEE33FEED33FDEC33FCD8F135
:101D9B0022BB010789828A83021E2A5005E9F802B9
:101DAB0022D4BBFE05E9F80222E089828A83021E57
:101DBB0036BB010DE58229F582E5833AF583021ED8
:101DCB002A5007E92582F80222D4BBFE07E92582B7
:101DDB00F80222E0E58229F582E5833AF583021EBB
:101DEB0036BB010789828A83021E825005E9F802FD
:101DFB002316BBFE05E9F802232222BB010DE58267
:101E0B0029F582E5833AF583021E825007E9258284
:101E1B00F8022316BBFE07E92582F802232222E0F3
:101E2B00FCA3E0FDA3E0FEA3E0FF22E493FC74011E
:101E3B0093FD740293FE740393FF22E0F8A3E0F981
:101E4B00A3E0FAA3E0FB22BB010DE58229F582E5B5
:101E5B00833AF583021E465007E92582F80222ECED
:101E6B00BBFE07E92582F80222F9E58229F582E516
:101E7B00833AF583022306ECF0A3EDF0A3EEF0A377
:101E8B00EFF022A8828583F0D083D082121EA51298
:101E9B001EA5121EA5121EA5E473E493A3C583C54C
:101EAB00F0C583C8C582C8F0A3C583C5F0C583C878
:101EBB00C582C822BB010789828A83021E8E500508
:101ECB00E9F802232EBBFE05E9F802234722BB01EA
:101EDB000DE58229F582E5833AF583021E8E5007C4
:101EEB00E92582F802232EBBFE07E92582F802239F
:101EFB004722F5F0C582A4C582C5F0C583A425830E
:101F0B00F58322A42582F582E5F03583F58322E063
:101F1B00FBA3E0FAA3E0F922F8E0FBA3A3E0F92589
:101F2B00F0F0E582158270021583E0FA38F022EBAF
:101F3B00F0A3EAF0A3E9F022E493FB740193FA74A3
:101F4B000293F922BB010789828A83021F1A50056B
:101F5B00E9F8022360BBFE05E9F802237289828A45
:101F6B0083021F43BB011A89828A83D0F0D0E0F829
:101F7B00D0E0F9D0E0FAD0E0FBE8C0E0C0F0021FFF
:101F8B003A5016E9F8D083D082D0E0F9D0E0FAD0FD
:101F9B00E0FBC082C083022369BBFE16E9F8D08345
:101FAB00D082D0E0F9D0E0FAD0E0FBC082C083024F
:101FBB00237B22BB010DE58229F582E5833AF5836C
:101FCB00021F1A5007E92582F8022360BBFE07E9BE
:101FDB002582F8022372E58229F582E5833AF5839F
:101FEB00021F43BB0120E58229F582E5833AF58385
:101FFB00D0F0D0E0F8D0E0F9D0E0FAD0E0FBE8C0C8
:10200B00E0C0F0021F3A5018E92582F8D083D08245
:10201B00D0E0F9D0E0FAD0E0FBC082C083022369A4
:10202B00BBFE18E92582F8D083D082D0E0F9D0E04E
:10203B00FAD0E0FBC082C08302237B22D083D08204
:10204B00F8E4937012740193700DA3A393F87401C9
:10205B0093F5828883E4737402936860EFA3A3A360
:10206B0080DFD083D082E4937012740193700DA340
:10207B00A393F8740193F5828883E4737402936CD1
:10208B0070127403936D700C7404936E7006740568
:10209B00936F60DDA3A3A3A3A3A380CA8A838982C2
:1020AB00E473E57B2582F582E57A3583F583B57A92
:1020BB000485827B2210AF0685827BF57A2285828E
:1020CB007BF57AD2AF22EC8EF0A4CCC5F0CCCDF858
:1020DB00EFA4CEC5F02DFDE43CFCE8A42EC8C5F062
:1020EB003DFDE43CFCEFA4FFE5F028FEE43DFDE400
:1020FB003CFC22E3F5F009E208B5F06BDFF58067F5
:10210B00E3F5F009E608B5F05EDFF5805A87F009D4
:10211B00E608B5F052DFF6804E87F009E208B5F01D
:10212B0046DFF6804288828C8387F009E0A3B5F006
:10213B0036DFF6803288828C8387F009E493A3B56F
:10214B00F025DFF5802188828C83E3F5F009E0A38D
:10215B00B5F014DFF5801088828C83E3F5F009E489
:10216B0093A3B5F002DFF402222D808780E98090E3
:10217B0080D4803E8015806E807E809D80B7808D60
:10218B0080A380518074803C02223989828A83EC3F
:10219B00FAE493F5F0A3C8C582C8CCC583CCE4930D
:1021AB00A3C8C582C8CCC583CCB5F076DFE3DEE12E
:1021BB00807089828A83E493F5F0A3E208B5F0621C
:1021CB00DFF4805E89828A83E0F5F0A3E608B5F040
:1021DB0051DFF5804D89828A83E0F5F0A3E208B5E3
:1021EB00F040DFF5803C89828A83E493F5F0A3E627
:1021FB0008B5F02EDFF4802A8002805789828A830B
:10220B00ECFAE493F5F0A3C8C582C8CCC583CCE047
:10221B00A3C8C582C8CCC583CCB5F006DFE4DEE22B
:10222B0080007FFFB5F0020F2240027F01228982DE
:10223B008A83ECFAE0F5F0A3C8C582C8CCC583CC81
:10224B00E0A3C8C582C8CCC583CCB5F0D5DFE5DE2D
:10225B00E380CF89828A83ECFAE0F5F0A3C8C582CC
:10226B00C8CCC583CCE493A3C8C582C8CCC583CCEA
:10227B00B5F0AFDFE4DEE280A988F0EF60010E4E2F
:10228B0060ABED2402B404005098F582EB2402B449
:10229B000400508E232345822390217573EF4E60EB
:1022AB0012EF60010EEDBB010B89828A83F0A3DF75
:1022BB00FCDEFA2289F05007F709DFFCA9F022BBFC
:1022CB00FEFCF309DFFCA9F022E6FC08E6FD08E6BC
:1022DB00FE08E6FF22E2FC08E2FD08E2FE08E2FF50
:1022EB0022E6FB08E6F908E6FA08E6CBF822E2FB61
:1022FB0008E2F908E2FA08E2CBF822E493F8740159
:10230B0093F9740293FA740393FB22ECF608EDF63F
:10231B0008EEF608EFF622ECF208EDF208EEF20802
:10232B00EFF222D083D082E493F608740193F6087F
:10233B00740293F608740393F6740473D083D082FB
:10234B00E493F208740193F208740293F208740395
:10235B0093F2740473E6FB08E6FA08E6F922EBF64F
:10236B0008EAF608E9F622E2FB08E2FA08E2F922AB
:10237B00EBF208EAF208E9F22220022C901217E0A5
:10238B0030E10B12002E50067E007F0180047E0090
:10239B007F00EF4E7012120B8CEF700C120BC3EF11
:1023AB0070061218137F01227F002275FF0275E45D
:1023BB0004E4F5E4F1B0C330E001D34017E5E630B7
:1023CB00E012901217E0540C600A120B05901217D2
:1023DB00E054F7F0C218F1B030E038E5E65403648E
:1023EB00017030120939123E49401E90123FE060D5
:1023FB000BE014F070061205AB12182E901215E0BC
:10240B0020E00281ACF1F781AC1205ABD2181218A7
:10241B002E81AC1205AB124B2F9003C2EFF0901232
:10242B0000E0B47A14901214E0B49C0D9003C2E057
:10243B00FF64056004EFB40330E49003C8F090032D
:10244B00C8E0FFC394805013E42FF582E43412F5F7
:10245B0083E4F09003C8E004F080E3901200747AF8
:10246B00F0901214749CF0D214120B374003120B21
:10247B00327B017A1279107D017F01120B2D7B01CA
:10248B007A1279117D017F21120B2D7B017A127942
:10249B00127D017F22120B2D7A1279297F0212579E
:1024AB00A1901229E0B401057F0112500B12093ED5
:1024BB00124B2F1209349003C2EFF012089E12092F
:1024CB002F9003C2E0FFB40602800C3018047F0289
:1024DB0080059003C2E0FF120D2BEF24FFB3923A5D
:1024EB0075FF0253E6BF120FF4600312182E123859
:1024FB005C120948120E7430140B7B017A12792B83
:10250B007D101249AC120984901215E0C330E00122
:10251B00D3400F203A0C120E147B017A3379AC1294
:10252B0008DF90122AE030E00280033018057F01AB
:10253B00123790D2AF203A02A1C8120B5012349C22
:10254B00120D26120B2840F29003C1E0603F1209D6
:10255B0066EF7004F1E44035E51470FCE51520E5F9
:10256B0003124416120A79EF70FAF15D5004F16F01
:10257B0050057F011213559003C1E0B40204E4FF30
:10258B0080099003C1E0B403047F01F1FC12095CE4
:10259B00E51530E1A5F1C14002E4F0E51520E505B4
:1025AB00D1E5124358F1D6AF82AE83EFC0E0D1F341
:1025BB009003C4E0FDD0E0FF120894A1451237FC54
:1025CB0012281A500312283A120E64EF7006900369
:1025DB00C1E06052903315E0704C120966EF700445
:1025EB00F1E44042E51470FCE51520E503124416B6
:1025FB00120BBE120A79EF70FAF15D5004F16F50B5
:10260B00057F011213559003C1E07012120E64EF97
:10261B00600C120E4F901217E04408F080089003E4
:10262B00C1E0FF120B00120B5012349C120B19124B
:10263B000E2A120E37EF7023120E6CEF6005120B81
:10264B00058037120E64EF7031124AA0EF702B71B8
:10265B0084EF64017024120E48801F901217E02043
:10266B00E218120E6CEF600DF15D5004F16F500526
:10267B00E4FF121355E49003C7F020150512095C13
:10268B0080221218369003BAE0FEEFC39E4005EF8E
:10269B009EFF80089003BAE0F4042FFF7406D39FCB
:1026AB005002C215E51530E126F1C14002E4F0E518
:1026BB001520E505D1E5124358F1D6AF82AE83EF75
:1026CB00C0E0D1F39003C4E0FDD0E0FF12089412F8
:1026DB000ACE12097012384AA1C89003C3E0FD75E7
:1026EB00F0AA9003CD121F0EED75F002A424BCF9D5
:1026FB00740335F0FA7B0122900AB2EFF0900AB422
:10270B00EBF0900AB3EDF05402901240F07184EFAD
:10271B007002C322900AB2E0B40411A3E0FB7D0166
:10272B007F01F183900AB27403F08014900AB2E037
:10273B00B40505120AFB8008900AB3125819F183ED
:10274B00900AB2E09003C1F0900AB4E090123FF00F
:10275B00D322900001740193B40007E493B41802E0
:10276B00C322D3227F017E009017FCE4935EFE749C
:10277B0001935F4E24FFB322EB600875FF0153CD2D
:10278B00FD800675FF0143CD02ED600553FBDF8035
:10279B000343FB20EF600775FF0243E1402275FF07
:1027AB000253E1BF2275FF02901215E022C2AFEF78
:1027BB00F45215D2AF227F02F1B89003C3E090031D
:1027CB00C8F09003C304F0C39402229003C8E0FD49
:1027DB0075F0AA9003CD021F0E9003CAE0FEA3E092
:1027EB00FF12393FD3EF94C8EE940022120AFB7FFD
:1027FB000143FB1075FF0243E640EF600D75FF02CE
:10280B00E5E120E7FB43FB0D800343FB0E80FE90CD
:10281B001221E0701011324FFFA3E04FFFA3E04FE6
:10282B007003D38001C322901223E0FFA3E022E4C4
:10283B00FF123790EF604112565E118450099012CF
:10284B0023E0C394C040F07B017A127925118450A8
:10285B000E11325FFFA3E05FFFA3E05FF460E8902F
:10286B00122AE030E0057F01123790E4901221F03C
:10287B0012565EE0FD120A83229041A6124CEDF037
:10288B009041AC121E8E000000019041B07401F01B
:10289B00F5FFE5D554C07005123D2B5002C322E461
:1028AB00F5FF53967F75FF0175D5047F3FFEF18EC3
:1028BB0075FF0143D508E4F5FF5394FBF5FF5384F3
:1028CB007FF5FF7598FF9041AAE5F4F075F49C75C0
:1028DB00FF01A3E5E4F075E4257B017A4179B012A1
:1028EB004C159041B0E06401600221AEF5FF9041C0
:1028FB00A97414F09041AC31F07801121D8990410C
:10290B00AC121E82E5A730E1FB43A7029041AC312C
:10291B00F0E5A730E005E47B018002E4FBFAF9F86F
:10292B00EF4BFFEE4AFEED49FDEC48FC9041AC123B
:10293B001E829041A9E014F070BA9041AC31F0784E
:10294B0010121D767B6D7A4E79C67841121C17EFEB
:10295B002439FFEE3430B102E4FBFA7901F8121C92
:10296B00A2EE547FFEE4FDFC12575B9041AC31F0BC
:10297B00EB6FFFEA6EFEE8CDEFCDCCEECCECFF902B
:10298B0041A6124C48EF121A039041A6124C4890E4
:10299B000001ED121A1590120FE030E606E4F5FF78
:1029AB0075968075FF01E4F5D59041AAE0F5F475B5
:1029BB00FF01A3E0F5E4124E469041B0E0B40103F1
:1029CB00D38001C322E0FB25E025E02401F582E45E
:1029DB003412F583121E82EB25E025E02401F582EB
:1029EB00E43412F583E0FCA3E0FDA3E0FEA3E0FFDB
:1029FB0022903E37121E82903E477401F0E4A3F002
:102A0B00F19B75FF02E5E630E00E903E487401F055
:102A1B00FB7A3E7948124C15903E52121E8E002DB9
:102A2B00C6C0E4F5FFF5A490120FF0903E49740276
:102A3B00F075FF03903E49E0FFF595EF146013141A
:102A4B00601C24027027903E3731F0F1E7903E4333
:102A5B008016903E3B31F0F1E7903E44800A903E69
:102A6B003F31F0F1E7903E45E0903E56F0124F7744
:102A7B00903E56E0700512573F806590120EE004B1
:102A8B00F0903E49125775903E48E07019903E52B7
:102A9B0031F0903E4EB1A2C3121D655009903E4ECF
:102AAB0031F0A3121E82903E56E0FF124DF8903E7D
:102ABB0046E0FF903E49E0FDA2349231124F259043
:102ACB003E48E07012903E4E31F0904462121E82EE
:102ADB00903E49E0FFB10A903E49E031E3124D6070
:102AEB001258646002413C903E48E07047A3740268
:102AFB00F075FF03903E491258BF7012903E5291F1
:102B0B00E07801121D76903E4931D0124D6012587B
:102B1B006470DE903E521256922420FFEE344EB17A
:102B2B0002E4FB7A04F9F891F07801121D76903EDD
:102B3B004A121E82124D52400343F420A2349232A9
:102B4B00124E57903E48E024FF9230903E4A31F0AF
:102B5B00125709E4F5FF75E508125768E59B30E756
:102B6B00FBF17975FF0143D504B1AE91BAF1927BBC
:102B7B00017A3E7947124DA090120EE0B40102F19A
:102B8B00F4903E47E0B40103D38001C322903F3F52
:102B9B00121E82F19B903F54121E8E002DC6C0E474
:102BAB00F5FFF5A490120EF0A3F0903F4F7402F0D6
:102BBB0075FF03903F4FE0FFF595EF146013146022
:102BCB001C24027027903F3F31F0F1E1903F4B8086
:102BDB0016903F4331F0F1E1903F4C800A903F4714
:102BEB0031F0F1E1903F4DE0903F58F0124F77906C
:102BFB003F58E0700512573F805590120EE004F0DD
:102C0B00903F4F125775903F5431F0903F50B1A207
:102C1B00C3121D655009903F5031F0A3121E8290D4
:102C2B003F58E0FF124DF8903F4EE0FFA3E0FDA2AE
:102C3B00339231124F25A331F0904462121E8290D1
:102C4B003F4FE0FFB10A903F4FE031E3124D60126E
:102C5B00586D600261BB7402F075FF03903F4F1219
:102C6B0058BF7017FF7E04FDFC903F5491E578012F
:102C7B00121D76903F4F31D0124D6012586D70D9A6
:102C8B00124D52400343F420A2339232124E57900E
:102C9B003F541256922420FFEE344EB102E4FB7ADD
:102CAB0004F9F891F07801121D76C2301257099091
:102CBB0012137401F07E127F01E4FD8F828E83EF7D
:102CCB002DF582E43EF583E0FC901213E02CF00D21
:102CDB00EDB412E722FF7E04FDFCE0F8A3E0F9A3BC
:102CEB00E0FAA3E0FB121C17E47B7DFAF9F8121C47
:102CFB00A2EF2401FFE43EFEE43DFDE43CFC229008
:102D0B004461EFF0E4A391E07801121D76904461E9
:102D1B00E0FB125621F583121E82901210E06480A4
:102D2B006074E0C3947F503AEB125621F583C08355
:102D3B00C08231F0EEC0E0EFC0E0901210E075F011
:102D4B0004A4AEF0FBCAEECAEA3395E0F9F8D0E082
:102D5B00FFD0E0FEC3EF9BFFEE9AFEED99FDEC98E2
:102D6B00802C904461125620F583C083C082B1A29F
:102D7B00901210E0F40475F004A4FFAEF0EE33955E
:102D8B00E0FDFCEB2FFFEA3EFEE93DFDE83CFCD00D
:102D9B0082D083121E8222E0F8A3E0F9A3E0FAA30B
:102DAB00E0FB227FC87E00D19D75FF0343918022FB
:102DBB00903FD8121E82E4F5FF75BB0575BB857578
:102DCB00FF0175D5022030087F3FFEF18E12478C34
:102DDB0075FF0143D520303002C183E4F5FF538EDC
:102DEB00F7438E077D04E4F5FF8DBCF5FF43B1027D
:102DFB00E5B130E2FBE4F5FFAFDFEFFEACDEECFB61
:102E0B00EBFFED25E024D6F582E4343FF583125732
:102E1B0054F5FFF5FF53B1FD0DEDB40CC9903FD840
:102E2B0031F07809121D76A3125754FDED25E024DD
:102E3B00E0F582E4343FF583E0C313FAA3E013FB20
:102E4B001256B5F5831237D92BFFEE3AFE1256B553
:102E5B0012585B240490120DF0EDC394075019CF58
:102E6B00EDCF0DEF1256B612368FFFC3903FDDE05C
:102E7B009F903FDCE09E50B4E4F5FF758EC8F5FFE4
:102E8B0090120DE0F5BCE4F5FF75BB8075FF01F505
:102E9B00D52275FF03D3EF9402EE9400400874FE25
:102EAB002FFF74FF3EFEEFF592EE540FF59122C209
:102EBB0020E490453CF0C221A3F0A3F075FF01E59F
:102ECB00D520E702C322C237124FB9202002E16995
:102EDB0053F4DF90453CE0FF12433CF1F430210505
:102EEB0043F440800353F4BFE4F5FF53F5F09045F2
:102EFB003DE0FAA3E0FBEA42F5EBF5F6D237124FD1
:102F0B00B9B1AEE4F5FFE59320E605123FE940F3D6
:102F1B00302159E5F430E3047D288010E5F430E2EC
:102F2B00047D288007E5F430E1027D28F1BE7F287F
:102F3B00B1B0123FE940FB7F78B1B0123FE9502CA2
:102F4B00F1ED50F7124D2BEFC39D50EFF1ED50EB20
:102F5B00E5F720E5E6C237124FB9F1BE80DD53F439
:102F6B00BF124D58400643F42012582AD322E4F5E1
:102F7B00FF758EC812478C75FF0153D5FBF1BE7FD1
:102F8B00147E00D19DB1B475FF03E59120E7FB22C0
:102F9B0075FF0243E180F1C512583853DB7F75FF93
:102FAB000175D502F18A12583843DB8075FF01E4B5
:102FBB00F5D52275FF03E4F59122E5FA30E1FB75B7
:102FCB00FC8075FF0153D5EFE4F5FC75FC40F1BEB9
:102FDB00E5FC20E6FB22903F50021E82903E4E0203
:102FEB001E8275FF01E5E4332275FF0143D81022E1
:102FFB009003BBE064AA2411FFF022124A83EF7006
:10300B00087FA07E0FFDFC01A6F1F2904153EFF07B
:10301B007406D39F4067E0605A31187E009041538D
:10302B00E014FDE5F0A805088005C333CE33CED8F8
:10303B00F9FF3121310A904154121E46C000C001E4
:10304B00C002C003904153E014FF74107E00A80728
:10305B00088005C333CE33CED8F9FFEE3395E0FDB0
:10306B00FC3110121C17D003D002D001D000121B60
:10307B00FC80283118AFF07E003121801E90415B1F
:10308B00E0FF600FE4FCFDFEFB7AF47901F8121C03
:10309B001780087F007ED07D077C00310A31287EA7
:1030AB00317F54C006C0073102D176D007D006510C
:1030BB0060124A94EF703F31023110D3121D6540FC
:1030CB0007E47F01FEFD802431023110121CA23176
:1030DB000A3102E47B01D1B850143102C3EF9401E1
:1030EB00FFEE9400FEED9400FDEC940031093102EB
:1030FB00120B0A12181322904154021E2AFDFC9047
:10310B004154021E82E47BE87A03F9F822122FFB6A
:10311B00EF75F0A084227C007D640220D1D1C6EF34
:10312B00600FE47FA07E0F3108901217E054E7F098
:10313B0022901217E0FF74E0D39F4005E02410F0BB
:10314B0022EF6410901217F0229159904158E0B47D
:10315B00020AD1BF9041587403F021F2904158E01C
:10316B006403706A90415AE0605790415CE0B4018F
:10317B0005120AF1800A90415CE0B40203120AF6D0
:10318B0090415AE014F0E06020122FFBEF75F046EF
:10319B0084E5F075F064A4FFEF24A0FFE5F0340F95
:1031AB00FEE433FDE433FC8007E47FA07E0FFDFCDF
:1031BB00904284121E827E317F54E4904288F0410B
:1031CB00609041587401F031F27FFD020D35904152
:1031DB0058E0B4040ED1C6EF6006F1B5E4FF01066A
:1031EB00120AF1227401F0904158E0640270227CC3
:1031FB00337DD07F01120902E4FBFAFD7FFF120839
:10320B00E97E317F54C006C007D16FD007D006804E
:10321B0044904158E064037017FFFE310890415C05
:10322B00E07C337DD0B402047F0380117F02800DDC
:10323B00904158E0B4040B7C337DD07F041209021B
:10324B002154904158E0B4010BD1BF915951CDE4B9
:10325B00904158F022516890415DEFF022904282EC
:10326B00EEF0A3EFF07FFFA3121E46E8494A4B6036
:10327B00509042897403F0904289E0FEC3940E5043
:10328B0040EE918EE07032904289918C7405F0C0C3
:10329B0007904284121E2A90427D121E8290428811
:1032AB00E0904281F0904282E0FCA3E0FDD007B1B8
:1032BB006D904289E004FF8008904289E004F08021
:1032CB00B622901217E05403F022904603EFF0C29F
:1032DB002E901221E060207E127F0B120FAABF01ED
:1032EB00087FFF120D357F0022904158E060089057
:1032FB001221E0FF120D351216E2904603E0700228
:10330B00618DE490415CF0904158E0600231EF90A8
:10331B004603E0FFB4010790415C74018009EFB4F0
:10332B00031090415C7402F051CD90415A7404F03B
:10333B008048EF64047035901221E0701ED22ED1BC
:10334B0054EF700F51CDF1D17E127F0B7D0171C304
:10335B001216EB9041587404F0803A9003C2E0B41B
:10336B000505E4F0120AEC51CD7F0022904603E0F4
:10337B006402702190415AF051CD9041587402F083
:10338B008013E490415CF0D154EF60031216E2908D
:10339B0041587401F031F2904158E07F0060027F98
:1033AB000122E075F002A42484F9740F35F07B023E
:1033BB00FEAF0190339CE0FDAB05E4FCFD90446F48
:1033CB00EBF00211CB9045DDEFF0A3EDF0915990AE
:1033DB0045DDE0B40112A3E0904159F051CD90418D
:1033EB00587405F07FFE805F9045DDE0640270222B
:1033FB0090415CE064027055904153F090415874D9
:10340B0003F07E317F54C006C007D16FD007D006C2
:10341B0041609045DDE07035120975EF6401602A5B
:10342B00302E14120D49EF600C120975EF600690E7
:10343B0045DE74FFF0C22E1216E2904158E0600296
:10344B0031EF9045DEE0FF020D3512097F229041EE
:10345B005DE0FF9166E490415DF022AB07E4FF1B5A
:10346B00EBC3940E501AD160121E8E00000000EBBD
:10347B00B14F121E8E00000000EB918EE4F07F0125
:10348B0022E0FF75F00CA42474F582E43435F58347
:10349B0022D3900001E09400900000E094005002D1
:1034AB00A14CC2ADE0FFA3E09045DBF1BC90000066
:1034BB00F0A3F0D2ADF57DE57D918EE0606F904588
:1034CB00DBD1B1FCFDB14DF1C35042B15DE0FF600A
:1034DB0008F46005B15DE014F0B15DE0600EE57DD0
:1034EB00D161121E2AB14D121E82800FE57D918E85
:1034FB00E4F0B14D121E8E00000000D1824E600828
:10350B00D182AA06F91220A71216CD8020B14DC088
:10351B0083C082121E2AC006C0079045DBD1DDD0C6
:10352B0007D006121C09D082D083121E82057DE5BE
:10353B007DC3940E40819045DBE0FEA3E0FF120AB1
:10354B001A22E57D75F00CA42469F582E43435F577
:10355B008322E57D75F00CA42473F582E43435F5F4
:10356B00832290427BECF0A3EDF090427AEFF0FBDC
:10357B0090427D121E2AD160121E82EBB14F121E99
:10358B0082EBB14FC083C082121E46900000D1B1B6
:10359B00FCFD121BFCD082D083121E82904281E074
:1035AB00FF90427AE0FEB15FEFF090427BE0FCA32C
:1035BB00E0FDEE75F00CA42471F582E43435F5834F
:1035CB00ECF0A3EDF022904342F164EBF090434713
:1035DB0074FFF0904346E0904348F0904348E0FF7F
:1035EB00C3940E505EEFB14F121E2AE4FBD1B8709C
:1035FB004A904346E07E0170027E02904348918CD4
:10360B00EEF0C007904344E0FF7E006004F1CA80F7
:10361B00027F0AE4FCFD90427D121E82904345E03E
:10362B00904281F0904342E0FCA3E0FDD007B16DE6
:10363B00904348E004FF904347F022904348E00456
:10364B00F08098904347E0FF22901217E07F003004
:10365B00E2027F0122EB75F00CA4246DF582E434B9
:10366B0035F58322E47FD07E07FDFC904284121E49
:10367B0082E4904288F022E57D75F00CA42471F56C
:10368B0082E43435F583E0FEA3E022AB07E4FA1BBA
:10369B00EBC3940E500DD160F1E16007EBB14F120B
:1036AB001E820AAF0222E0FEA3E0FFE422FAF9F841
:1036BB00C3021D65E4FDFCFF020902901217E054E2
:1036CB0008FF227BFF7D019043467403F0A1D1904C
:1036DB0044CEE0FEA3E0FBAA06E4F9F8229044CE28
:1036EB00F164EBF0D1DAF15AF1E9C006C00790446E
:1036FB00CEF1D9D1E1D007D006D3121D4F7E0050A9
:10370B00047F0180027F00C006C007D1DAF15AD0D6
:10371B00E02FFFD0E03E9044CEF0A3EFF053ECFC53
:10372B009044CEF1AE540342EC75FF02EDF5AF754C
:10373B00ED0275ED04A3E0600543EC08800353EC48
:10374B00F79044D1E0600443EC042253ECFB227F5E
:10375B00807E387D01FC020486EEF0A3EFF0A3ED32
:10376B00F0A322F0A3EFF07E0B7FD2E4FB7D01E40C
:10377B00904346F0A1D1AE07122FFBEE04FEEF8E65
:10378B00F084AFF022EF600E1226E5AF82AE83E439
:10379B00FD12435E800A12096B124416E433FF22BA
:1037AB007F0122E0FCA3E0FDEC227B007A00790094
:1037BB0022CFF0A3EFF0E422121E46D3021D657C4C
:1037CB00007D0A021A37901217E04404F022E0C37E
:1037DB0013FEA3E01322121E2AEC4D4E4F22AC0017
:1037EB00AD01AE02AF0322901217E0C4135407FFD2
:1037FB002230160C903315E07006FF1208BCC2166F
:10380B00301823AF77900959E0FEEFC39E400AEFC3
:10381B009ED394024010C21822900959E0F42FD382
:10382B0094014002C218229003C5E0FCA3E04C7047
:10383B00059003C58002C322EEF0A3EFF0D32290D4
:10384B0003C51217C36009CAEECAC9EFC91220A774
:10385B0022D2ADD2BD75FF02758E71757C0975FFD5
:10386B0002E58E546F4480F58E9044B6121E8E0086
:10387B0000000022C0E0C0F0C083C082C0D075D071
:10388B0008C0FF75FF02E58E30E43E75FF02E58E42
:10389B0054EF4410F58E9044B6121E2A122CFC9055
:1038AB0044B6121E82900000E475F001121AD4E5A2
:1038BB007C30E0020551E57C700D757C090577E5E0
:1038CB0077700205768002157C75FF02E58530E482
:1038DB000875FF02438510057ED0FFD0D0D082D073
:1038EB0083D0F0D0E0321FEFC3940E5009EF1235A6
:1038FB004F121E2A8005E4FFFEFDFC22E4FEEFC3FF
:10390B00940E5013EF12348EE05D7C00B505027CF3
:10391B0001EC2EFE0F80E7AF06227D02E4FF80DC78
:10392B007D017F033107AB073125EF2BFF22E4FD30
:10393B007F0380C8AD07AC06121836C3EF9DEE9C13
:10394B004008EF9DFFEE9CFE8013EDF4FDECF4FCC4
:10395B00ED2401FDE43CFCED2FFFEC3EFE22E49058
:10396B00094BF07B017A09795A904536121F3A9030
:10397B00453612404C123466904536121F1AE4023B
:10398B001A03900A80121F3AD22AC2EBE514600286
:10399B0061FCE51530E202C322914CE924E31248A5
:1039AB00D6F1F491525407FF90093AF01249129054
:1039BB000A83EFF0E51520E071B12B40057F011272
:1039CB003790900A83E0FF7B017A0A7984124C517D
:1039DB00E4337004D2EB61DB900A83E02464125869
:1039EB00B7E0FF900A84E0D39F403FD2EB12497EB1
:1039FB00A21792ED90094BE06012914CE924E3126F
:103A0B0057D1121A034315043169D32290095AE096
:103A1B0070167B017A09795A7C477DF690434E7478
:103A2B0064F0E4A3F012401AC322B12B5004C23647
:103A3B00D1031243E0E5D120E0FBE4F510C218916D
:103A4B00525407C39403E494005035914CE924B1CC
:103A5B009144914BE924D891442FFFE433FED3EFEB
:103A6B009440EE648094804017914CE924E3F9E490
:103A7B003AFA7402121A03431504A21792EDD322D9
:103A8B00914CE92408F9E43ACFE9CFF5118F129163
:103A9B004CE924B19144F516AE11125374914CE9D3
:103AAB0024B2F9E43A8B1CF51D891E914CE924D8FC
:103ABB009144F51F9152FDACF05460602F914CE98D
:103ACB0024D99144FF12493EC22A9134FB7A0090CB
:103ADB00095BE0FE7D1812584AEF2BFFEA3EFEEF22
:103AEB002414FBE43EFA7D027F0161CB9152540713
:103AFB0090093AF0751408914C1255E31242F99162
:103B0B004CE924D89144FFAD1612539390093AE037
:103B1B00640370247B01FD9104D3919F50057401C4
:103B2B001219AEE4F5FF12587E1219442428FBE457
:103B3B0033FA7D03E4FF61CB90093AE06402702A0B
:103B4B009107D3919F400574FF1219AEE4F5FFE581
:103B5B00D25480440AF5D21219442414FBE433FAEC
:103B6B007D027F0191A891628058E4FB7D01910455
:103B7B00D3919F400574FF1219AEE4F5FF915244A7
:103B8B001045F07F0560027F0AEF547FFFE5D254AA
:103B9B00804FF5D2E4F5FF43D2809134FD7C009148
:103BAB0052441045F07E0060047F0A80027F05EFCF
:103BBB0025E0FFEE33FEEF2DFBEE3CFA7D017F019E
:103BCB0091A89152FFAEF0A22A922912443F4006CF
:103BDB00A21792EDC3223169900A83E0914BE9243D
:103BEB00E5F9E43AFAEF121A03A21792EDD2EBD3EE
:103BFB0022A21792EDD2EBC322FF9167900A80129B
:103C0B001F1AE924B1F9E43AFA121944FF900A8019
:103C1B00121F1AE924D8F9E43AFA1219442FFFE4D7
:103C2B0033FEEF2401FFE43EFE900A80121F1AE9D7
:103C3B0024B2F9E43AFAE92407F9E43AFA0219440E
:103C4B00FF900A80021F1A900A80121F1AE924049F
:103C5B00F9E43AFA021B00E4FB7D01FFE4F5FF7582
:103C6B00D102E5D120E0FBE4F5FFF5D1EF6008E4EC
:103C7B00F5FF43D2808006E4F5FF53D27FEB60065D
:103C8B00E4F5FF43D104ED6006E4F5FF43D10822D0
:103C9B0033FEE0C39FEE6480F874809822900ABBD9
:103CAB00EFF0ED24FE60191460262402703BEB2428
:103CBB0002FFE43AFE7C007D50121A377D60801EB5
:103CCB00B118C333CE33CED8F9FF7C007D28800EDC
:103CDB00B118C333CE33CED8F9FF7C007D64121AF2
:103CEB0049900ABCEEF0A3EFF0900ABBE0124A2F0A
:103CFB00C083C082121E46900ABDE02401900ABC0C
:103D0B00125852121BFCD082D083021E82EB24016C
:103D1B00FFE43AFEEF780322C2EBA2ED9217C2ED5D
:103D2B00E5F4C330E701D322900AD0EFF0C237128B
:103D3B004FB9D220900AD0E090453CF0D221A3E4B9
:103D4B00F0A3740DF0122EC7E4900AD1F0B12B50F2
:103D5B0076900AD1E07070E5F754C060F0B1E8B12D
:103D6B00FB6455704EB1FB901221E06F600E900A10
:103D7B00D1E0F47039901215E030E132B1FB6455AB
:103D8B006018E0FF644A6012EF640A600D90122124
:103D9B00E0FF900AD1E0FE6F7005900AD1800A9087
:103DAB000939E06E900AD170197402F0809F900A65
:103DBB00D1800F900AD1E0B454057433F0808E900B
:103DCB000AD17401F08086900AD1E0B40206C236A3
:103DDB00D1038000122EBA900AD1E0FF22E5F72022
:103DEB00E008E5F754C070F5FF2243F701AFF92265
:103DFB00B1E8900AD1EFF022904604E5F4F0E054DC
:103E0B007FF5F47F827E00D193F1E95005E5FC202C
:103E1B00E6F7303608904604E04480F5F47FE87E00
:103E2B0003D193F1E95005E5FC20E6F775FF01E5B9
:103E3B00D520E702C322E5F4D330E601C322F1F427
:103E4B007F02120D447F01B133900AE3EFF0BF0202
:103E5B00028013900AE3E0B43311E4F07F01B13335
:103E6B00BF020D900AE37401F08005E4900AE3F0C1
:103E7B00900AE3E0700BB12B5004C236D1031258F9
:103E8B0076900AE3E024FF22D198022DB49044BA35
:103E9B00EEF0A3EFF07B017A4479BC124BEC50149B
:103EAB009044BCE0FEA3E0FF9044BBE09F9044BA7B
:103EBB00E09E400B9044BAE0FEA3E0FF122E9D2241
:103ECB00904357123767EBF090435D7401F0C235A6
:103EDB007FE87E03D193F1E95005E5FC20E6F7126C
:103EEB004CF5BF0108E4F5FC75FC408008124CF55D
:103EFB00BF0202D32212582A904358E0FF124F847C
:103F0B0075FF0153D5DF53FAFB904357E0FF124384
:103F1B003C904358E0904357B4080F125620F5835A
:103F2B001256922452122CFF8004E01229E3124DF8
:103F3B0060904359E0FF124FFE75FF0175FF03754B
:103F4B009B047FE87E03D19375FC42E5FC20E104E2
:103F5B00F1E940F490435AE0F075FF03E59B20E74D
:103F6B0004F1E940F4E59B20E70D75FF03759B1FFA
:103F7B00122FC5D2358053125831124C159043581D
:103F8B00E0FD90120FE05D701E904357E0FF12585A
:103F9B00311244F990120FE0FF904358E0FEEF4EC0
:103FAB0090120FF0122CBA12478C7B017A43795B7B
:103FBB00124BEC500FC390435CE0942090435BE0BA
:103FCB00940340E6125831124DA0122F9230350255
:103FDB00C1D390435DE0B40103D38001C32275FFCD
:103FEB0003E591C330E701D322901223E0F4FFA342
:103FFB00E06FFFA3E06FFFA3E06FFF64556009EF75
:10400B00644A6004EFB40A010F900939EFF0229073
:10401B00434CECF0A3EDF0904349121F3A12397464
:10402B0090434C1256A912377A90434951EA904368
:10403B0049121F1A121944B4FF04E4121A039043D5
:10404B0049121F1A121944FF22C0E0C0F0C083C0EE
:10405B0082C0D075D008C0FF75FF01E5D530E604EE
:10406B007F028009E5D57F0030E7027F018F18E5DD
:10407B0018640260022132E51412204740A001406F
:10408B00B302411A0840BE0940C90A40D70B40F59C
:10409B000C000042B975FF0175C355151AE51A607E
:1040AB000241B975140241B975FF0175C3F075145E
:1040BB000941B975FF0175C35575140A41B975FFEF
:1040CB000190094CE0F5C375140B41B975FF0190D4
:1040DB000939E0F5C3751401751A1490095B125672
:1040EB00CC600241B975140C41B9AB1CAA1DA91EB9
:1040FB0051F9AD16AF1F125393123C6275FF0012AC
:10410B00587E43FA0475FF00710D75140841B9C24E
:10411B00EB751400431504124970400241B9E47564
:10412B00F001121AD441B9E5186401600241B912C9
:10413B005004400241B9E510702251CDE0FF6455A7
:10414B006004EFB4540BD218AF77900959EFF041DC
:10415B003375100275FF0075D90841B9E51064027B
:10416B00706E75FF01F5EA75EAFF90093C121F1A94
:10417B00E5D9121A03124FDA12492A900938EFF0D7
:10418B0051DDE0900AE2F0E0FFD39409402590095D
:10419B0038E0D39402400CEFD394AA7F0040027F07
:1041AB0001800D900AE2E0D394407F0040027F0132
:1041BB00EF600451D48071900AE2E0F516124FAE15
:1041CB00901222EFF075FF008516D975100341B9D7
:1041DB00E5106403600241B990093C114C51F1EFB9
:1041EB00121A0351D475FF00900938E0C39403E50C
:1041FB00D350055402FF80035401FFEF602E30E1D2
:10420B0011C3900946E094FF900945E094FF5018C4
:10421B00800FC3900948E094FF900947E094FF504A
:10422B0007E475F001121AD4711441B9C236123E6B
:10423B000375FF0071E3E5D120E0FBC2EB431502F0
:10424B0051CDA3E0FF901224E0FEEF6E51CCE09035
:10425B00122351C6A3A3E090122551C6A3A3A3E03A
:10426B00FE901226E0FDEE6D4F6016C390094AE0FA
:10427B0094FF900949E094FF5007E475F001121A7E
:10428B00D4C3900944E094FF900943E094FF500796
:10429B00E475F001121AD4751000900938E0B403DC
:1042AB0007151651DDE516F09003C4E516F0D0FFA7
:1042BB00D0D0D082D083D0F0D0E032FEE0FDEE6DD6
:1042CB004FFF85128285118322301805C218122EDA
:1042DB00BA22E5122407F582E43511F58322FF1289
:1042EB001F1AEF021A03E92401F9E43AFA22E4F562
:1042FB00FFE9910DEA540F42D622713C43FA04E4D4
:10430B00F5FF53D1FD43D10122C236123E0371E0BA
:10431B00E5D120E0FBE4F5FF75D901900938E07F8A
:10432B0000B403027F017105D236123E03E4F5108F
:10433B002275FF01E5D530E602C322E4F5FF439A6F
:10434B0080EF125776E4F5FF539A7FD322AF82AEFC
:10435B00837D01900A681255CCE5147077123D23CA
:10436B005005C236123E03900A68E0FEA3E08E11A0
:10437B00F512A3121F1A90093C121F3AAE11AF127D
:10438B007DAA71ECE4F5FF75D901F510E515542103
:10439B00602AE51530E504E4FF713CE4900A6DF00A
:1043AB00900A6DE004F0D1D8EF6009900A6DE0C37C
:1043BB00941040EC7F02120D445315DE900938E047
:1043CB007F00B403027F017105D236123E03D2EB9C
:1043DB00A21792ED22E4F5FFE5D154FE4402F5D18C
:1043EB0022E4F5FF75D102E5D120E0FBE4F5D1F530
:1043FB00FFEF910DEE540F42D6E4F5FFCFEDCF8FCB
:10440B00D422F5D7E4F5FF53D6F022E5147023122E
:10441B003D235005C236123E0312587671E0E5D1AA
:10442B0020E0FB4315205315FEE4F510A21792ED87
:10443B00D322C3224315015315DF917FD18740044B
:10444B00E4F5142243FA045315FB302904710A8056
:10445B000A7F5591687F559168D2EBD32275FF0186
:10446B00E5D520E602C322E5FA540360FA75FF0195
:10447B008FC3D322EF30E303AF1322AD1B201904FC
:10448B00EE30E00BE517C394F0502091CB8018E58C
:10449B00196006FDE4F5198012E517C394F0500B73
:1044AB00E517540FFF600491B9AD07AF0522124811
:1044BB005DFFC3940E40027F0DEF90076193FF22C7
:1044CB0090093BE0FDFFC3740E91F2EFC4F8540F5B
:1044DB00C868FFEEC454F048FEE51754F0123C9E3A
:1044EB007F005002AF05229FFFE49400FE22904410
:1044FB00C6EDF0901211E0F46005A3E0B4FF0C9050
:10450B0044C87418F0A37413F08010901211E0904B
:10451B0044C8F0901212E09044C9F012194464019F
:10452B006002C15A9044C6E0FE64086004EEB40415
:10453B00089044C77428F080069044C7743AF0EF93
:10454B001229E3121D41E4D162EF24D8FFEE343F70
:10455B00FEED3493FDEC3416FC7B007A8079037806
:10456B000012048612575B9044C9E0FF9044C8E0E8
:10457B00C391F2E4FCFD121C17ECC0E0EDC0E0EEC1
:10458B00C0E0EFC0E09044C9D15BD162D0E0FBD07A
:10459B00E0FAD0E0F9D0E0F8EB2FFBEA3EFAE93D88
:1045AB00F9E83CF89044C7D15B121C17EF2454FF79
:1045BB00EE340B122D02E47BA87A16F9F81204865E
:1045CB00CBEFCB9044C6E014605D14601B24FE60FF
:1045DB000C24FC707AE4F5FF75CE318006E4F5FF10
:1045EB0075CE21F5FF8BCF22E4FAE4F5FFEA2440E8
:1045FB00F5CEE4F5FFEAFFC3740791F274892FF54A
:10460B0082740D3EF583E4D16AC39DF5CFE4F5FFCB
:10461B00EA2448F5CEE4F5FFEA900D89D16A2DF531
:10462B00CF0AEAB408C422E4F5FF75CE01F5FF8B7F
:10463B00CFF5FF75CE0EF5FFEB25E0F5CFE4F5FFDB
:10464B0075CE0FF5FFCFEBCFEB75F003A4F5CF22B3
:10465B00E0FFE4FCFDFE227B64FAF9F8021C1793E1
:10466B0025E0FDE433FCEB75F010A4FFAEF0121A5D
:10467B0049CDEFCDEBFFE4C313EF1322900AB9EF53
:10468B00F090093AE0FF124912900ABAEFF0900944
:10469B003AE024FD6013047008900AB87404F080AB
:1046AB000E900AB87408F08006900AB87402F07F76
:1046BB0001120D44900ABAE0FF900AB8E0FDA3E0A6
:1046CB00FBE490435AF0123ECB50E9D322E49044E2
:1046DB00C2F0A304F0E49044C5F0E5FA30E1FB75B9
:1046EB00FF01E5D530E7037F0022E4F5FF75E50810
:1046FB0012582AE5D530E61A75FF019044C4E5DA65
:10470B00F0E4F5DA75FF01E5D630E3FB9044C574B0
:10471B0001F0125768E59B30E7FBE4FB75FF038B59
:10472B00951229E2124D600BEBB403F075FF037584
:10473B009580122F7975FF0143D5049044C5E07025
:10474B0008122FBE7FC8122F8C7B017A4479C312BB
:10475B004DA09044C3E09044C27006E04404FF8037
:10476B0002E0FF9044C2EFF090120EE0B40103128E
:10477B002FF475FF019044C4E0F5DA9044C2E0FFDA
:10478B0022E4F5FF75C2E17F1EF1A730E707E4F5E0
:10479B00FF75C2A122E4F5FF75C28122FEF1AF9035
:1047AB00120FE022CDEFCDCCEECC124C01AB94EF3F
:1047BB004B124C0DCBEFCBFAE59130E71A124C04B0
:1047CB00A994E9F582EF4582FFEB125897C3EF9559
:1047DB0082E5F0958340E1E59120E709CEECCECF61
:1047EB00EDCF122F8E22E4F5148116E490095AF0C6
:1047FB0090094B04F022123D2B5005124813400335
:10480B00301803D38001C322E5F754E024FF22AF15
:10481B0014EFC36001D322EFC3940E500590093BF4
:10482B00EFF022E517540FFF22E517C394F0501F4A
:10483B005317F0115DFE740FC39F4005EE940E40AD
:10484B000543170D8003EF4217E517540FFF227F27
:10485B000022E517C4540FFEEF90077F932E229092
:10486B0003C9E0B4020D8F1B900A65E0F513120922
:10487B0043D322C322900AB5121F3A11B3E51B1181
:10488B00B01242F1E411B0E9240211D6900AB5112D
:10489B00B9E513121A03900AB511C4E411B011CF84
:1048AB00FAE4021A03121A03900AB5021F1A121F16
:1048BB001AE92403F9E43AFA22121F1AE92404F93B
:1048CB00E43AFA22E92405F9E43A22F9E43AFAE463
:1048DB00021A03E51754F0C4540F2FFFC394104072
:1048EB00027F0FEF90076F93FF227E10EE60091E81
:1048FB00EE90076F93B507F4EEC3940E40027E0D56
:10490B00EE90076193FF22EF24FD600680007E018D
:10491B008002E4FEAF0622C2AFEF4215D2AF22EF08
:10492B0024FE600C24FE600580007F01227F0222A2
:10493B007F0322751401751A1390094CEFF090093F
:10494B003A7402F0ED90095B30E507E4F0A3743A9A
:10495B00F022E4F0A374E6F02231705007E475F016
:10496B0001121AD422C3900940E094FF90093FE052
:10497B0094FF22C3900942E094FF900941E094FF19
:10498B005007E475F001121AD422901215E0302B67
:10499B00044402F02254FDF02290095BE0A3E0FFF7
:1049AB0022900A85121F3A900A88EDF0E4A3F0EDED
:1049BB0054FE900A88F06030E4FF123790BF012854
:1049CB00900A85121F1A122884501D900A86E475CE
:1049DB00F002121AD4900A89E02402F0900A89E0BE
:1049EB00FF900A88E06F70D87F01123790900A8988
:1049FB00E0FF227D0231ACEFC36001D322E4FFFE66
:104A0B0090094D511D900951511DFDFC9009550206
:104A1B001E82FDFC121E82E4FFFE22EF512F121E9E
:104A2B002A021DEC25E025E0244DF582E43409F53E
:104A3B008322A2EB922CC2EB7A09793F7B017D0C8E
:104A4B00E4FF120A74A22C92EB22A2EB922DC2EB82
:104A5B00EBC0E0EAC0E0E9C0E07B017A09793F9066
:104A6B004393121F3AD0E0F9D0E0FAD0E0FB7F0C71
:104A7B00120AA6A22D92EB22901217E05414FFBF3C
:104A8B0014047F0180027F0022901217E07F003018
:104A9B00E0027F0122904158E0B4040D90415DE0AB
:104AAB0060075194EF7002FF22904158E0FF229073
:104ABB003334E070097B017A33792C1209ED903392
:104ACB0034E044C0F0903337E054FEF0A3E044C030
:104ADB00F090333BE054FEF0227405D39F500B74DF
:104AEB0063C39F400590415BEFF090415BE0FF2279
:104AFB00901249E0FD7F01EF7011ED600775FF012A
:104B0B0043AE012275FF0153AEFE22EFB4011490A8
:104B1B001249EDF0600775FF0143AE022275FF01EC
:104B2B0053AEFD2275FF02E5E630E2037F0322E57B
:104B3B00E630E3037F0022E5E630E1037F0422E564
:104B4B00E67F0530E0027F0122EF600775FF02531D
:104B5B00E6BF2275FF0243E64022EF14600F14609C
:104B6B0014240270188B8075FF018DFD228B9075BC
:104B7B00FF018DC9228BA075FF018DCA22AF038F58
:104B8B00B075FF01AF058FCB22904351121F3AEF47
:104B9B001460111460182402701E71CEE58071D45C
:104BAB00E5FD801C71CEE59071D4E5C9801271CE04
:104BBB00E5A071D4E5CA800871CEE5B071D4E5CB20
:104BCB00021A03904354021F1A121A0375FF019025
:104BDB004351021F1AE4F5FFAF9122E4F5FFAF92A8
:104BEB00229101AD94EF4D910D8FF0121BB0E59119
:104BFB00C330E701D32275FF03AF93EF75F010A419
:104C0B00FF2224FBFFE5F034FF2290453991EDF0B4
:104C1B007F017C127D01E4FE8D828C83ED2EF5826B
:104C2B00E43CF583E02FFF0EEEB412EC901213E090
:104C3B006F60099045399148E4121A0322E0FBA3F7
:104C4B00E0FAA3E0F9229044CAEFF0A391EDF075DE
:104C5B00FF0191F5EF64016002C322E5F430E60237
:104C6B00C3227FE87E03122E9D122DB491D64001F4
:104C7B0022C236123E039044CAE0FF12433C53F467
:104C8B00DFD236123E037F787E001247AF75FF01ED
:104C9B0053E4BFE5E430E7FBB1217F8A1247A7302D
:104CAB00E6089044CB9148E4800A75FF019044CB11
:104CBB009148E5D9121A0375FF0143E440B15840FE
:104CCB000343F42091D6400122D322E5F730E510BF
:104CDB00E5F754C07005123FE940F0122FBEC32216
:104CEB00D322EBF0A3EAF0A3E9227FFA122DB0E571
:104CFB00FC30E605123FE940F6E5FC30E6037F03A6
:104D0B002275FF01E5D530E6037F0222E5D57F0052
:104D1B0030E7027F012275FF01E4F5EA75EAFF2215
:104D2B00B121AFD922E4FFE5F754C0600280F175E1
:104D3B00FF01E5D530E30F122FED50F3B12BEF60F0
:104D4B00EE122FED50E92275FF0375958090120E30
:104D5B00E0D39401229044BE121E8275FF01904451
:104D6B00BEA3E0FDA3A3B1968FE19044BEA3A3E045
:104D7B00FEA3B18C8FE29044BEA3A3A3E0FF8FE30D
:104D8B0022E4FFE4FDFC7808021D76E4FFFEE4FC60
:104D9B007810021D76C22F75FF03759B1F75FF03DD
:104DAB0090120FE020E71BE59A540FC394024012B8
:104DBB00E04480F0E4F5FF75C2A143FC0475FF03EA
:104DCB00D22FE5FC30E609E59A540FC3940540CD8C
:104DDB00E5FC30E611E4121A0375FC80F5FC75FC5A
:104DEB0040E5FC20E6FB302F03122CBA22EF30E01B
:104DFB000E43F401E4F5FF43A404F5FF759624EF8D
:104E0B0030E10E43F401E4F5FF43A408F5FF75967A
:104E1B0024EF30E20943F402E4F5FF75961EEF3000
:104E2B00E30943F404E4F5FF75961075FF01EF54A5
:104E3B0003600475D7122275D72D22E4F5FF758414
:104E4B00E6F5FF439404F5FF75981422E4F5FF751E
:104E5B00933F75FF03759A40D146E4F5FF759C931C
:104E6B00F5FF75A1A3F5FF758531F5FF758628E56F
:104E7B00FA54304480F5FA75FF0175E74A75FF0265
:104E8B0075DF4975FF0143D30475FF0153D367E405
:104E9B00F5FF53E6BF75FF0175D825F5FF75B50313
:104EAB00F5FF75B215F5FF75BA02F5FF75AFB3F5E2
:104EBB00FF75CD0AF5FF75CB08F5FF75CA12F5FF27
:104ECB0075BF0EF5FF75CC96F5FFF5BDF5FF75C2F9
:104EDB0081F5FF75AEE1F5FF75DA55F5FF75F580D8
:104EEB00F5FF75E903F5FF75E933F5FF75972A753E
:104EFB00FF01759B42759CA4759D29759E48759FF6
:104F0B002475A11275A312759AF820320CF5FF4384
:104F1B00968090120FE04440F022CCEFCCCFEDCF37
:104F2B0074017E00C8EFC8088005C333CE33CED8DA
:104F3B00F9FFCDECCDEF5D601B30311875FF0175BE
:104F4B00DCAD75FF0175DDCDE4F5FF759A74F5FFEA
:104F5B007594842275FF0175DC5375FF0175DD3384
:104F6B00E4F5FF759A14F5FF7594042275FF01752E
:104F7B00E46575FF0175D6472275FF01E5D530E66F
:104F8B0002C32253FACFEFB4080543FA308012EF75
:104F9B00B4040543FA208009EFB4020543FA1080EC
:104FAB0000D322E5F45418131313541FFF22AFF44C
:104FBB00EF547FF5F4303705EF4480F5F475FF01BE
:104FCB00E5D520E702C322E5F4D330E601C322E5A1
:104FDB00F75406FFBF06037F0822E5F75406FFBF11
:104FEB0004037F0422E5F75406FFBF02037F02226E
:104FFB007F012275FF018FDA22E5F754C024FF22CF
:10500B00EF600775FF0243E6102275FF0253E6EFD0
:10501B0022E5ED30E2FB75ED04AFEF22E5ED20E08C
:10502B00FB8FEF22EF600443EC042253ECFB22EFE7
:10503B00600443EC082253ECF722E5ED5402FF2207
:10504B00C0E0C0F0C083C082C0D075D000C000C02B
:10505B0001C002C003C004C005C006C007C0FF11D9
:10506B00DDEF6029120056120066E570C3942040F4
:10507B0003757000E574C39420500FAE7005707407
:10508B00F82E3138EFF0057480037574201145EF5D
:10509B00602312005EE575D394004019E5739420EC
:1050AB004003757300AF73057374182F11E3E0FFA2
:1050BB0012006E1575D0FFD007D006D005D004D0E6
:1050CB0003D002D001D000D0D0D082D083D0F0D08A
:1050DB00E032E5ED5404FF22F582E43409F5832236
:1050EB00900AECEFF0E575C3942040051216CD80C5
:1050FB00F4E571C394204003E4F571C2AC3132EF97
:10510B00700EE575700A900AECE0FF12006E8012CB
:10511B00900AECE0FFAE71057174182E11E3EFF0FD
:10512B000575D2AC7F0122E5ED5401FF22F582E437
:10513B003408F58322C2AC3132EF7004E57560049C
:10514B007F0180027F00D2AC22E572C39420400322
:10515B00E4F572AF72057274F82F3138E0FFC2AC10
:10516B00E574D3940040021574D2AC229040CAE08F
:10517B00121A039040CFE0900001121A159040D004
:10518B00E0900002021A15903FA6121F1AAE02AF52
:10519B00017B017A3F79B59043E87402F09043E5C7
:1051AB00121F3AE4FCFDC0079043E5121F1A90430F
:1051BB00E8E090421E31C7D0070212A4FFE4F0A32F
:1051CB00EFF0225171121F3AE4904168F0A304F002
:1051DB009041651217C37002416BD3EF9420EE948C
:1051EB000040047F208006904165A3E0FF9041675B
:1051FB00EFF0904162121F1A904167E0903DC6316B
:10520B00C790415E121E2A5198400E904168E0FFF4
:10521B00A3E0FEEF4E904168F0904167E0FFC39032
:10522B004166E09FF0904165E09400F090415E1282
:10523B001E46904167E4FCFDFE121BFC5171121FD0
:10524B001AE94A6007904167E0FF80027F009041B6
:10525B0063E48FF0121AD4904169E025E0F021DB72
:10526B00904168E0FF2290415E121E8290416222C3
:10527B009040FEE0FFA3E0904165CFF0A3EFF090EC
:10528B0040F5121E2A31CE904102EFF022903DBF25
:10529B00121E82903DC3121F3AE4903DE8F0D3906A
:1052AB003DC7E09420903DC6E094004001227B0175
:1052BB007A3D79C8903DC67119903DBF121E2A12D6
:1052CB0012A4903DC3121F1AE94A600F903DE8E00B
:1052DB00F582758300121981FF80027F00903DE8F3
:1052EB00E024C8F582E4343DF583E06F6002C3220D
:1052FB00903DE8E004FFF0D3903DC7E09F903DC6A2
:10530B00E0940050BD229043E87404F021A8E0FF24
:10531B00A3E090421ECFF0A3EFF022AE02AF017BD1
:10532B00017A3F79B7904363E4F0A37402F09043A2
:10533B0060121F3AE4FCFDC007904360121F1A90E5
:10534B004363715BD00702155A713974FFFDFC2260
:10535B00E0FFA3E09040FCCFF0A3EFF0229040CC15
:10536B00E0FF22E49040CCF022E4F5FFEFF5D8E427
:10537B00F5FF53D60FEE540F718842D622C4F85462
:10538B00F0C8E4C4540F4822E4F5FF8FD4F5FFCFE7
:10539B00EDCF8FD522E4F5FF8FD422E4F5FFE5D1D5
:1053AB00540133333354F8FFE4F5FFE5D354074F7F
:1053BB00FF22EFB40109D2AD75FF0143AE4022C20B
:1053CB00AD75FF0153AEBF22E5C85402FF75C8028D
:1053DB0022E5C85404FF22E5C85401FF22E024FF54
:1053EB00923EEF547024F0602824F0604024F0606B
:1053FB00582430706F303E0C9173088002C333D841
:10540B00FC4280229173088002C333D8FCF4528093
:10541B0022303E0C9173088002C333D8FC42902299
:10542B009173088002C333D8FCF4529022303E0CA7
:10543B009173088002C333D8FC42A0229173088079
:10544B0002C333D8FCF452A022303E0C9173088077
:10545B0002C333D8FC42B0229173088002C333D805
:10546B00FCF452B02275FF01EF5407FF7401A8073B
:10547B0022EF547024F0601824F0602024F0602890
:10548B002430702F9170088002C333D8FC42FD2268
:10549B009170088002C333D8FC42C92291700880F6
:1054AB0002C333D8FC42CA229170088002C333D89E
:1054BB00FC42CB22EF547024F0601924F0602224BC
:1054CB00F0602B243070339170088002C333D8FC0A
:1054DB00F452FD229170088002C333D8FCF452C9F8
:1054EB00229170088002C333D8FCF452CA22917007
:1054FB00088002C333D8FCF452CB22AD07ED5470B5
:10550B0024F0601F24F0603224F06041243070528C
:10551B00B16F8005C333CE33CED8F9AC80B17B608D
:10552B0001D322B16F8005C333CE33CED8F9FFAC94
:10553B0090ECFBEF5BC36001D322B16F8005C333EB
:10554B00CE33CED8F9ACA0B17B6001D322B16F8042
:10555B0005C333CE33CED8F9FFADB0EF5DC36001D9
:10556B00D322C322ED5407FF74017E00A807082243
:10557B00FFECFBEF5BC322EF14600D14600D1460A6
:10558B000D2403700CAF8022AF9022AFA022AFB0DE
:10559B00227F0022C2ACC374209575FFD2AC22C20D
:1055AB00ACE4F575F574F573F571F572F5707B0177
:1055BB007D011236E8D2AC22FF900854121F1AE973
:1055CB0022EEF0A3EFF0A3021F3A121F1A021F4F95
:1055DB00FF121F1A90000122E924B2F9E43AFA22D1
:1055EB00EEF0A3EFF0A3ECF0A3EDF022FFE0FCA3B1
:1055FB00E0FDF5828C83227B017A1279219044287D
:10560B00021F3AE0FCA3E029F9EA3C22FFE0FE741A
:10561B0001A8060822E025E025E02401F582E43408
:10562B0012227A12792390439A021F3AFFFEFDFC55
:10563B00021E46E0FEA3E029F9EA3EFA22904277E9
:10564B00021F3AEFF0A3EDF0E4A3F022E0FEA3E09B
:10565B00FFC3227B017A12792322E92FF9EE3AFA62
:10566B00904100E0FFA3E0904215CFF0A3EFF022B2
:10567B00FD7C00021F1AFFE0FCA3E0FD22E0FF7E91
:10568B0000EEF0A3EFF022E0FCA3E0FDA3E0FEA30D
:10569B00E0227B017D13E4FF120A747B0122E0FE02
:1056AB00A3E0FFA3E0FDA3E0FB22ED25E024DEF564
:1056BB0082E4343F227B01FF020A74121F3A021F5D
:1056CB004F74FFF5F0121AD445F0227B017F0702CD
:1056DB000AA6EF24FFFFEE34FFFEED227F04120A31
:1056EB00A6901221E0FF228E837F010220ABFF12D6
:1056FB001F1AC3E99FF9EA9EFAE92407F922122D32
:10570B00BBE4F5FFE5BD54F84404F5BD22242DF9A7
:10571B00E43AFA7D04E4FF020A749041A3121F3AA3
:10572B007B0122121F1A8E8275830022121F1A749C
:10573B0001021A03F5FFF59675FF0175D70975F48C
:10574B001822EEF0A3EFF04E22EEF0A3EFF0E422DE
:10575B00C8ECC8C9EDC9CAEECACBEFCB2275FF03A3
:10576B00759B0475FC4175FF0322E033333354F80A
:10577B00F5F422242CF9E43AFA7440021A0390331C
:10578B00A1E0FEA3E022121F1A8D828C83229000CF
:10579B00137401021A157B017D01020B2DECC4F869
:1057AB0054F0C86822E9240CF9E43AFA22EEF0A38B
:1057BB00EFF0AA06F97B0122EFF0901221E022FD17
:1057CB00E4F0A3EDF022F9E43AFA740122121F1A65
:1057DB00E9240222121F1AE92405222411F9E43AC2
:1057EB00FA22121A0390085422F0A3F0A3F0A3227A
:1057FB00EF9DFFEE9CF0A3EFF022900003021DBC87
:10580B00E99582EA958322121F3AE4FFFE22E0FB20
:10581B007D01E4FF229040D17401F0A3E4F02275E6
:10582B00FF0153D8EF227B017A43795D2275FF018B
:10583B00438E1075FF0122F9E43AFAEE021A03A324
:10584B00E0FF7C00021A37FFE03400FEE4FCFD228F
:10585B00F583EEF0A3EFF0ED22903E49E0FF14F05C
:10586B00EF22903F4FE0FF14F0EF22122FC57F087D
:10587B00020D44E5D254804414F5D222AF017B01D2
:10588B007A0A795922F9EC3AFA0219442DF582EA8F
:10589B003CF58322741CF0A37484F022AF03EAF06E
:1058AB00A3EFF022FF54F0C4540FFE22F582E43430
:0C58BB0007F58322E0F595E5F454072280
:107F7E00020002120B120F02060A02121113BC01AA
:107F8E00B006060A0213C1146400A804060A0214FD
:107F9E00691C6B080705060A021C701C7E0013FF85
:107FAE00060AFFFFFFFFFFFFFFFF7FC60000000076
:087FBE000000000003080000B0
:108000009041EC7420F09041E6EEF0A3EFF0A3EC89
:10801000F0A3EDF0A3EAF0A3EBF09041ECE0FB90CD
:1080200041E8E0F9A3E0F582E9F5837880EBF9E037
:10803000A3F608D9FA9041EAE0F9A3E0F582E9F560
:10804000837830EBF9E0A3F608D9FAEB25E0F99054
:1080500041E6E0FFA3E0FAF582EFF583E4F0A3D96F
:10806000FCEAF582EFF583EBFE7980E4FAEBFC782D
:1080700030C083C082E6F5F0E7A4FFE02FFDE435D1
:10808000F0FFEA2DF0E43FFAA308DCE9EAF0D08241
:10809000D083A309DED522904256EEF0A3EFF0A3E1
:1080A000ECF0A3EDF0A3EAF0A3EBF090425CE0FB70
:1080B000904258E0FAA3E0F582EAF5837880EBFA83
:1080C000E0A3F608DAFA90425AE0FAA3E0F582EA71
:1080D000F5837830EBFAE0A3F608DAFA904256E03E
:1080E000FAA3E0F582EAF583C378807930E709FFE7
:1080F000E6083FF0A3DBF6E433FF2290425FEEF0A8
:10810000A3EFF0A3ECF0A3EDF0A3EAF0A3EBF09063
:108110004265E0FB904261E0FAA3E0F582EAF58374
:108120007880EBFAE0A3F608DAFA904263E0FAA36B
:10813000E0F582EAF5837830EBFAE0A3F608DAFAA4
:1081400090425FE0FAA3E0F582EAF583C378807994
:1081500030E709FFE6089FF0A3DBF6E433FF229047
:1081600042D2EEF0A3EFF0A3ECF0A3EDF09042D7F3
:10817000E0FD9042D4E0FAA3E0F582EAF58378804E
:10818000EDFAE0A3F608DAFAEBF404FB9042D2E051
:10819000FCA3E0F582ECF5837880E0FFE6086FFE53
:1081A000EB5EFEEF6EF0A3DDF122900785E0FCA30D
:1081B000E04C60099007851255FA1220AB222290FC
:1081C0000ABE121F3A7F01123790F1CA123C5B457A
