:020000040000FA
:1000000002180002180308C608CB0002180B0A8D5C
:100010000A972202181332C27F012202181BA2384B
:100020009220220218238FEF22D32202182B021FC4
:01003000C807
:07003300021833121E4422E3
:0E003B0002183BE4FF021CEB0218430236C31E
:06004B0002184B02380709
:0600530002185302420CEA
:07005B0002185B75ED0422A1
:0700630002186375ED022293
:06006B0002186BAFEF224A
:100073000218734103B500C1204103B400E002023A
:1000830000003820E0020200022FD0E00402000446
:1000930046524545E00102001554E001020016A551
:1000A300E0E8022568FEFEFEFEFEFEFEFEFEFEFE0C
:1000B300FEFEFEFEFEFEFEFEFEFEFEFEFEFEFEFE5D
:1000C300FEFEFEFEFEFEFEFEFEFEFEFEFEFEFEFE4D
:1000D300FEFEFEFEFEFEFEFEFEFEFEFEFEFEFEFE3D
:1000E300FEFEFEFEFEFEFEFEFEFEFEFEFEFEFEFE2D
:1000F300FEFEFEFEFEFEFEFEFEFEFEFEFEFEFEFE1D
:10010300FEFEFEFEFEFEFEFEFEFEFEFEFEFEFEFE0C
:10011300FEFEFEFEFEFEFEFEFEFEFEFEFEFEFEFEFC
:10012300FEFEFEFEFEFEFEFEFEFEFEFEFEFEFEFEEC
:10013300FEFEFEFEFEFEFEFEFEFEFEFEFEFEFEFEDC
:10014300FEFEFEFEFEFEFEFEFEFEFEFEFEFEFEFECC
:10015300FEFEFEFEFEFEFEFEFEFEFEFEFEFEFEFEBC
:10016300FEFEFEFEFEFEFEFEFEFEFEFEFEFEFEFEAC
:10017300FEFEFEFEFEFEFEFEFEFEFEFEFEFEFEFE9C
:10018300FEFEFEFEFEFEFEFEFEFEFEFEFEE00102A3
:100193002650FFE00102268B28E001022F9EFFE09C
:1001A30001022FCC00E005022FCD2FD002060A4119
:1001B300058B0601140041058A0141058801C12709
:1001C300011900011700412CDA004129FA004129E5
:1001D3009B055D2C260000000000000000000000CD
:1001E300000000000000000000000000000000000C
:1001F3000000C12D4128A400C111412FE700C151C6
:10020300432C77000000412C7600412C7A00C12357
:10021300C125C12E412C9E00015000C11EC11C41AD
:100223002C9000412C9D006028279D060A000000A9
:10023300030008FE877F88CF7FC04FFBDFFD806709
:10024300000080008096000100E87F00000E00009F
:100253000000004121810041218B004121850041A3
:10026300217C0141218A0241217F01412473004104
:1002730024C50041215CFFC1B54124C3004124745E
:1002830000C136C137412A0B96412A070FE002020B
:100293002FD20033E005023000003304060AE002E7
:1002A3000230050807E005023807080705060AE0DB
:1002B3000202380C0013E00C02380E0000030800A1
:1002C300030008060A060AE00502381A0013FF06AF
:1002D3000AE00202381F00000075818875FF03756C
:1002E3009E021208200205590203F9900076E47E6B
:1002F300019360F4A3FF543F30E509541FFEE493D8
:10030300A360010ECF54E0B4E00EEFFAEEF9A3A31D
:10031300A3A3DAFDD9FB80D654C025E0604B502659
:10032300E493A3F85407240CC8C333C4540F4420E4
:10033300C8834004F456800146F6DFE480B001022E
:10034300040810204080E493A3FAE493A3F8E49311
:10035300A3C8C582C8CAC583CAF0A3C8C582C8CA10
:10036300C583CADFE9DEE78085E493A3F8E493A3BA
:100373004003F68001F208DFF40202F1C2D5E8304F
:10038300E70FB2D5E4C39BFBE49AFAE499F9E49846
:10039300F8EC30E717B2D51203B5120FC4E4C39BD0
:1003A300FBE49AFAE499F9E498F88003120FC43055
:1003B300D50DE4C39FFFE49EFEE49DFDE49CFC2277
:1003C3007888E4F6D8FD9000007F007E10E4F0A367
:1003D300DFFCDEFA902FF1A3E583C394204011FEE6
:1003E300AF829020000E0FE48002F0A3DFFCDEFA60
:1003F3001208200202EE2232EF90040493900800C8
:10040300730A20364CE551FF22EFF5512209020908
:1004130007090C09110916091B09200925092A09CD
:100423002F0934094309480952095C09AC09B10988
:10043300B609BB09C009C509CA09CF09DE09E30921
:10044300F709FC0A010A100A150A4C0A510A563F19
:10045300241E16110E0B09070504030201F0C8A799
:100463009177676046383532302422201400010129
:100473000202030304040505060607070BB40BB9C0
:100483000BBE0BC30BC80BCD0BD20BD70BDC0BE195
:100493000BE60BEB0BF00BF50BFA0BFF0C040C0943
:1004A3000C0E0C130C18000DFA20000DDC7000006C
:1004B3000000020C00013F3F3F04040440404000A1
:1004C3000000000B410B460B4B0B500B550B5A0B0B
:1004D300640B6E0B730B8C0B915A2D576176652051
:1004E300362E313000822D1C16131110100ADD0B2D
:0D04F300050B0A0B0FA3F08F828E83A3224E
:10050800E4FD7C0CAB050DEB9004DC938F828E83AD
:10051800F00FBF00010EDCEC01188F828E83E4F02F
:10052800740691F8740A91F8A3A3E4F0EF2404F593
:1005380082E43EF583E4F0A3746DF0229003C07466
:1005480002F09003B4E0FF120C2C9003C07405F085
:100558002275FF0275E404E4F5E471C31242399090
:1005680003B6EFF0901200E0B47A14901214E0B4DD
:100578009C0D9003B6E0FF64056004EFB4032EE41D
:100588009003BFF09003BFE0FFC394805013E42FA3
:10059800F582E43412F583E4F09003BFE004F080C0
:1005A800E3901200747AF0901214749CF0120ACE40
:1005B8004003120AC97B017A1279107D017F01126A
:1005C8000AC47B017A1279117D017F21120AC47B4A
:1005D800017A1279127D017F22120AC47A127917E0
:1005E8007F02F1F0901217E0B401057F0112431465
:1005F800120A7E124239120A799003B6EFF0120BF2
:1006080032120A749003B6E0FF120C27EF24FFB3EE
:10061800925175FF0253E6BF12283B120A88121244
:10062800E720510BB1447B017A2879B81209617F20
:1006380001121FFBD2AF205102C1CF120AD31235CB
:10064800CF120C22120ABF40F29003B5E0604812A4
:100658000AABEF700A9003C112388BF1BC4038E541
:100668001470FCE51520E503123BCE12085DEF700F
:10067800FA1241F150051241DD50057F01121DD0DB
:100688009003B5E0B40204E4FF80099003B5E0B438
:1006980003057F011242F6120AA6E51530E19CF126
:1006A800CD4002E4F0E51520E505F19E12201FF18A
:1006B800E2AF82AE83EFC0E0F1AC9003B8E0FDD0CA
:1006C800E0FF120B28C1431227FF9003B5E0604EEC
:1006D800201903200948120AABEF700A9003C112CF
:1006E800388BF1BC4038E51470FCE51520E50312A1
:1006F8003BCE12085DEF70FA1241F150051241DD50
:1007080050057F01121DD09003B5E0B40204E4FF48
:1007180080099003B5E0B403057F011242F6900307
:10072800B5E0600C201909300906200203120939C6
:10073800120AD31235CF122E1C120C1D20210512BD
:100748000AA680221238799003AEE0FEEFC39E40DD
:1007580005EF9EFF80089003AEE0F4042FFF7406B7
:10076800D39F5002C221E51530E126F1CD4002E4C5
:10077800F0E51520E505F19E12201FF1E2AF82AEEB
:1007880083EFC0E0F1AC9003B8E0FDD0E0FF120BBE
:1007980028122826C1CF9003B7E0FD75F0AA900370
:1007A800C3121130ED75F002A424B0F9740335F0CA
:1007B800FA7B0122D3EF94C8EE940022C2AFEFF483
:1007C8005215D2AF227F02F1C49003B7E09003BF65
:1007D800F09003B704F0C39402229003BFE0FD75C4
:1007E800F0AA9003C30211307B017D01020AC49074
:1007F8002C630211450208C1C0517408C0E0C082D0
:10080800C08375510AE5FF54CF4490F5FF22C051CB
:100818007408C0E0C082C083755120E5FF54CF44FE
:1008280090F5FF22C0517408C0E0C082C0837551A2
:1008380036E5FF54CF44A0F5FF22C0517408C0E04C
:10084800C082C08375514CE5FF54CF44B0F5FF22F8
:10085800908004011690810201169081050116907E
:1008680095CC0116909965011690AFF8011690AFD6
:10087800FF011690B7F0011690B7F301169085AFF7
:10088800011690B7F6011690B02A0116909F120132
:100898001690B832011690BFEF0116909A710116A2
:1008A80090C013011690C28501169083F00116902E
:1008B800ADCA011690BD0E011690855D011690C255
:1008C800EA01169083BF011690C422011690BB83DB
:1008D800011690B575011690C515011690B407015B
:1008E80016909F96011690C59A011690C21F011680
:1008F80090C1700116909968011690979B01169007
:10090800C59D011690BB6E011690C5AB011690AF40
:1009180006011690C755011690B143011690C7BB42
:10092800011690CA96011690B084011690CAA001CB
:100938001690A6F6011690A40C011690B0A6011602
:1009480090CAEF011690AE24011690BF530116907D
:10095800C8FE011690BF4E011690CB7F011690CDB0
:10096800E20116909B7A01169099C8011690CDC79E
:10097800011690CDAF011690998301169096B30198
:100988001690C985011690C978011690C89101166C
:1009980090C84F011690C99A011690D0050116907B
:1009A800D016011690AB1E011690AAB9011690AB8D
:1009B800E8011690D02901169084FF011690CFD631
:1009C800011690D038011690AED80116909C9A0165
:1009D800169085E3011690953801169096500116E9
:1009E8009095EF011690D077011690CF2C011690B4
:1009F800D129011690D136011690A082011690B91E
:100A08007E01169081FF0116909BBF011690B84297
:100A1800011690D169011690BE1C011690D17D0176
:100A28001690C9B6011690D194011690A99B01168B
:100A380090D197011690D1DF011690D1E20116905E
:100A480095A9011690ACB3011690AD46011690AD6C
:100A5800160116909F340116909E950116909C11D0
:100A6800011690CC0C011690CD58011690D26A014F
:100A78001690D2AF011690D2CD011690D368011608
:100A880090D321011690D38F0116908014011690EF
:100A980082E6011690D3B4011690D52F011690D393
:100AA800D2011690D5AB011690D025011690962547
:100AB800011690D5A1011690A867014290A8A2013D
:100AC8004290A914014290A9D0014290A9E40142A0
:100AD80090AA7C014290AD6B014290A7850142909B
:100AE800913F0142909003014290ADA60142909D32
:100AF80007014290A3FA0142909983014290AE7196
:100B0800014290AE890142908DB8014290AF380100
:100B18004290AF4A014290AF87014290B00D014226
:100B2800908000014290B0AC014290B0B90142906F
:100B3800B0C3014290B0C9014290B0CC014290B11B
:100B48007B014290A387014290A482014290B1B1F7
:100B5800014290A4B5014290B195014290A55D0172
:100B68004290A2F9014290B21B014290B33901426E
:100B780090A6720142909FB9014290B10301429040
:100B8800B39B014290B406014290A0A1014290A1FA
:100B9800EF014290B155014290B2B9014290B3F9C8
:100BA800014290A901014290AA1C0142909C560161
:100BB8002C909AB3012C909C6C012C909CEF012CEA
:100BC800909CFC012C909E21012C909E6F012C90F2
:100BD8009993012C909E2E012C909D0E012C909D96
:100BE80066012C909E3B012C909DBE012C909E4846
:100BF800012C909E55012C909C7B012C909E6201AB
:100C08002C909E8F012C9098F9012C90990A012C18
:100C1800909828012C90805F012C909F2F012C9098
:100C28009F30012C90917C012C9094CF012C9093B3
:100C3800F0012C908000012C909F98012C00E7096E
:100C4800F608DFFA8046E709F208DFFA803E888274
:100C58008C83E709F0A3DFFA8032E309F608DFFAAC
:100C68008078E309F208DFFA807088828C83E309D0
:100C7800F0A3DFFA806489828A83E0A3F608DFFAAA
:100C8800805889828A83E0A3F208DFFA804C80D2F8
:100C980080FA80C680D4806980F28033801080A674
:100CA80080EA809A80A880DA80E280CA80338982CC
:100CB8008A83ECFAE493A3C8C582C8CCC583CCF078
:100CC800A3C8C582C8CCC583CCDFE9DEE7800D891F
:100CD800828A83E493A3F608DFF9ECFAA9F0EDFB26
:100CE8002289828A83ECFAE0A3C8C582C8CCC5836E
:100CF800CCF0A3C8C582C8CCC583CCDFEADEE880C7
:100D0800DB89828A83E493A3F208DFF980CC88F038
:100D1800EF60010E4E60C388F0ED2402B404005069
:100D2800B9F582EB2402B4040050AF232345822393
:100D3800900C9673BB010689828A83E0225002E7F1
:100D480022BBFE02E32289828A83E49322BB010C40
:100D5800E58229F582E5833AF583E0225006E92504
:100D680082F8E622BBFE06E92582F8E222E582291E
:100D7800F582E5833AF583E49322BB010989828AE7
:100D880083F8E028F022500327F722BBFE05F8E39A
:100D980028F3228A838982F8E4932822BB010FF87A
:100DA800E58229F582E5833AF583E028F0225009A7
:100DB800C58229F8E58226F622BBFE09C58229F8F4
:100DC800E22582F222F8EA2583F583E9932822BBFB
:100DD800010689828A83F0225002F722BBFE01F3C2
:100DE80022F8BB010DE58229F582E5833AF583E80F
:100DF800F0225006E92582C8F622BBFE05E92582C5
:100E0800C8F222EF8DF0A4A8F0CF8CF0A428CE8DE4
:100E1800F0A42EFE22BC000BBE0029EF8DF084FF4B
:100E2800ADF022E4CCF875F008EF2FFFEE33FEECBE
:100E380033FCEE9DEC984005FCEE9DFE0FD5F0E9E5
:100E4800E4CEFD22EDF8F5F0EE8420D21CFEADF0E4
:100E580075F008EF2FFFED33FD4007985006D5F0E9
:100E6800F222C398FD0FD5F0EA22C2D5EC30E7098B
:100E7800B2D5E4C39DFDE49CFCEE30E715B2D5E4A1
:100E8800C39FFFE49EFE120E1DC3E49DFDE49CFC7F
:100E98008003120E1D30D507C3E49FFFE49EFE2297
:100EA800C5F0F8A3E028F0C5F0F8E58215827002D5
:100EB8001583E038F022A3F8E0C5F025F0F0E582CC
:100EC800158270021583E0C838F0E822BB010A8950
:100ED800828A83E0F5F0A3E022500687F009E7193B
:100EE80022BBFE07E3F5F009E3192289828A83E42D
:100EF80093F5F074019322BB010A89828A83F0E595
:100F0800F0A3F0225006F709A7F01922BBFE06F35A
:100F1800E5F009F31922EF2BFFEE3AFEED39FDEC6F
:100F280038FC22C3EF9BFFEE9AFEED99FDEC98FC8E
:100F380022E88FF0A4CC8BF0A42CFCE98EF0A42C32
:100F4800FC8AF0EDA42CFCEA8EF0A4CDA8F08BF07E
:100F5800A42DCC3825F0FDE98FF0A42CCD35F0FC7C
:100F6800EB8EF0A4FEA9F0EB8FF0A4CFC5F02ECD48
:100F780039FEE43CFCEAA42DCE35F0FDE43CFC222D
:100F880075F008758200EF2FFFEE33FECD33CDCC20
:100F980033CCC58233C5829BED9AEC99E5829840A3
:100FA8000CF582EE9BFEED9AFDEC99FC0FD5F0D680
:100FB800E4CEFBE4CDFAE4CCF9A88222B800C1B9AA
:100FC8000059BA002DEC8BF084CFCECDFCE5F0CBE8
:100FD800F97818EF2FFFEE33FEED33FDEC33FCEB21
:100FE80033FB10D703994004EB99FB0FD8E5E4F9DC
:100FF800FA227818EF2FFFEE33FEED33FDEC33FCC9
:10100800C933C910D7059BE99A4007EC9BFCE99ABC
:10101800F90FD8E0E4C9FAE4CCFB2275F010EF2F01
:10102800FFEE33FEED33FDCC33CCC833C810D70701
:101038009BEC9AE899400AED9BFDEC9AFCE899F83C
:101048000FD5F0DAE4CDFBE4CCFAE4C8F922C3E426
:101058009FFFE49EFEE49DFDE49CFC22EB9FF5F0DF
:10106800EA9E42F0E99D42F0EC6480C864809845AD
:10107800F022EB9FF5F0EA9E42F0E99D42F0E89CF1
:1010880045F022E8600FECC313FCED13FDEE13FEF0
:10109800EF13FFD8F122E8600FEFC333FFEE33FE02
:1010A800ED33FDEC33FCD8F122BB010789828A833A
:1010B8000210F35005E9F80212ABBBFE05E9F8028D
:1010C80012B722E0FCA3E0FDA3E0FEA3E0FF22E4C8
:1010D80093FC740193FD740293FE740393FF22E062
:1010E800F8A3E0F9A3E0FAA3E0FB22ECF0A3EDF00B
:1010F800A3EEF0A3EFF022A8828583F0D083D082FC
:10110800121116121116121116121116E473E49325
:10111800A3C583C5F0C583C8C582C8F0A3C583C568
:10112800F0C583C8C582C822A42582F582E5F035BA
:1011380083F58322E0FBA3E0FAA3E0F922EBF0A316
:10114800EAF0A3E9F022E493FB740193FA740293A2
:10115800F922BB010789828A8302113C5005E9F80C
:101168000212C3BBFE05E9F80212D589828A8302FE
:10117800114EBB011A89828A83D0F0D0E0F8D0E002
:10118800F9D0E0FAD0E0FBE8C0E0C0F00211455029
:1011980016E9F8D083D082D0E0F9D0E0FAD0E0FBAD
:1011A800C082C0830212CCBBFE16E9F8D083D0827D
:1011B800D0E0F9D0E0FAD0E0FBC082C0830212DEB2
:1011C80022BB010DE58229F582E5833AF5830211F8
:1011D8003C5007E92582F80212C3BBFE07E92582C5
:1011E800F80212D5E58229F582E5833AF5830211E2
:1011F8004EBB0120E58229F582E5833AF583D0F0DC
:10120800D0E0F8D0E0F9D0E0FAD0E0FBE8C0E0C0E8
:10121800F00211455018E92582F8D083D082D0E039
:10122800F9D0E0FAD0E0FBC082C0830212CCBBFE4A
:1012380018E92582F8D083D082D0E0F9D0E0FAD03E
:10124800E0FBC082C0830212DE22D083D082F8E4A1
:10125800937012740193700DA3A393F8740193F51E
:10126800828883E4737402936860EFA3A3A380DF8A
:101278008A838982E473EC8EF0A4CCC5F0CCCDF8D7
:10128800EFA4CEC5F02DFDE43CFCE8A42EC8C5F0C3
:101298003DFDE43CFCEFA4FFE5F028FEE43DFDE461
:1012A8003CFC22ECF608EDF608EEF608EFF622EC28
:1012B800F208EDF208EEF208EFF222E6FB08E6FA91
:1012C80008E6F922EBF608EAF608E9F622E2FB0856
:1012D800E2FA08E2F922EBF208EAF208E9F222124D
:1012E800443A120A9C120B2D120AD89003B6E064F5
:1012F80001700261987FFFD1C29005FF31457E00E1
:101308007F15124622BF540E7E007F16124622BF5A
:10131800A5047F0180027F009003B4EFF0640170A0
:101328004E9005FF313CF13B7A067905D1B990061C
:1013380005E0FEA3E0FF9005FF313CF1E0E924075A
:10134800F9E43AFA9006023145E92408F9E43AFE4C
:10135800AF017B017A067905D1B9900605E06406EC
:101368007004A3E0640A600771CC9003B4EFF090B6
:1013780003B4E0701B7E007F10C006C37420941075
:10138800FE7438F142D006123158E4FFFE1231786B
:101398001209ED12094D1208D5305105754A018020
:1013A80008124A8D79B9120862E4902E0EF0902E38
:1013B8000CF0A3F002001275FF0275E40475E40155
:1013C80075E402227E7F7F9C902C69EEF0A3EFF0FB
:1013D800F5828E83D197E94A4B6071D1A2F13B7AAD
:1013E8002C796CD1B9F152D1A2F1E0E92407F9E4E2
:1013F8003AFA902C663145AE02D1B1902C74E0FED9
:10140800A3E0FF907FC07401936F7003E4936E7F35
:101418000060027F01902C6BEFF0902C66F1E8FEE3
:10142800D1B1902C6BE0FF902C74E0FCA3E0FD9010
:101438007FC27401936D7003E4936C7E0060027E3A
:1014480001EF4E902C6BF060037F0022124A9DAE94
:1014580002AF01AC02AD01E02DFD902C6EE03CCD59
:101468002402CD3400FC123178D1A2E94A4B700233
:10147800A121A114124BDD947EEC947F5002C16926
:10148800124A9D8D828C83D197E94A4B6039D1A24B
:10149800F13B7A2C796CD1B9F152D1A2124B20F1DF
:1014A800E01207F7902C63313CC003C002C001D1A1
:1014B80092D3D082D083D0E0E99582EA9583400F19
:1014C800D181122FE88008124C0BF14A1207F7F16C
:1014D80052124B9E4036D192124B89CF24FBCF3407
:1014E800FFFEC006F14B124B73A3CEF0D0061230AC
:1014F800FCD192124BAACF24FBCF34FF12316BD10F
:1015080092F13B7A2C796E1230B1F1DA902C697431
:10151800FF75F0F6120EA8817C902C69747FF0A3F9
:10152800747EF0124BDD949CEC947F4002C169906C
:101538002C69122EE18E83314E902C6031458F82BA
:101548008E8374069324FEFE74059334FF902C6EEC
:10155800F0A3CEF01232A6FF740493902C6CCFF057
:10156800A3EFF0F1524E7002C115902C691232AE01
:1015780074079324FC60231460322403704A7B01AF
:101588007A0079041207F7D192C3EF99FFEE9ACF48
:1015980024FECF34FF902C6C80227B017A60790086
:1015A8001207F7D192124B4834FF80107B017A6002
:1015B80079401207F7D192124B4834FFF0A3EFF0AD
:1015C800F1EAFA902C60800DE4902C6CF0A3F0FB0B
:1015D800FAF9902C633145902C63313CAE02AF018F
:1015E800D192E96F7002EA6E6005D181122FE8127C
:1015F800328F8E837407936402701A7E007F157D84
:1016080054F15B7E007F167DA5F15B8008124C0BC0
:10161800F14A1207F7F152124B9E4039D192124B00
:1016280089FEC006F14B124B73A3CEF0D0061230E0
:10163800FCD192124BAA12316BD192E924FE902C64
:101648006012180A12328F124AB4F13B7A2C796E62
:101658001230B1F1DA902C69E475F00A120EA8A1E3
:101668002B902C6E124C357E007F007B017A2C79F2
:101678006E1230B1F1DA7F0222902C63313CAE0257
:10168800AF01902C70EEF0A3EFF0902C60213C7429
:101698000793FFD1C2902C5D3145902C5D213C759C
:1016A800FF0275E404E4F5E422AF017B017A2C79AA
:1016B80074902E687402F00230C8902D33EFF07BDE
:1016C800027A007902A33145805D124C144E6061A4
:1016D800902D34313CE92FF9EA3EFAE924FB902DAC
:1016E8003712180AF13B7A2D793CD1B9902D3CE09C
:1016F800FEA3E0FF902D3AE0B5061CA3E0B507175E
:10170800902D37F1E8FEAF01124622902D33E0B557
:101718000707902D37213C8018124C14902D351254
:10172800313E902D34313CF13B7A2D793AD1B98054
:10173800998010AE02AF017B01229400902E1BF01D
:10174800A3CEF07B007A00790022902C6CE0FEA3F7
:10175800E0FF22AB05E4FCFD902EB9EBF0902EB52E
:1017680011F3902EB511CB121D1D902EB9E06F60AC
:1017780038121812121C27EF6005121E3080F5125D
:101788001DB06008902EB5121F81F1B6902EB512CB
:101798001F77F1B6902EB5F1B3902EB9E0FF121C69
:1017A800E4902CD17401F0D322C32211CBE4E5C814
:1017B80020E2FB8FEB22902CCDE020E014121B29B5
:1017C8007F3DF1B67F2AF1B67F80F1B67FA6121C65
:1017D800E4227402F00230FCC3E99FF9EA9EFA227F
:0D17E800313CE92402F9E43A2275C80122DF
:061800000202DCAF3C22F5
:101808007FB8F9EA34FFFA02114575FF02E5E430C2
:09181800E10675E40675E4032203
:0318230002435429
:10182B0002285ED2091238799003C1EEF0A3EFF0D3
:0C183B0022200D05112E7F01227F0022CB
:10184B0002392290065AEFF0A3EDF0540290122EBB
:10185B00F0113CEF7002C32290065AE0B40411A3BE
:10186B00E0FB7D017F01119090065A7403F0800B11
:10187B0090065BE0FB7D01E4FF119090065AE0902F
:10188B0003B5F0D322EB600875FF0153CDFD800645
:10189B0075FF0143CD02ED600553FBDF800343FB76
:1018AB0020EF600775FF0243E1402275FF0253E111
:1018BB00BF22902D7C1210F3902D80121145111226
:1018CB009127EF6004D13080F7B1B06008902D7C88
:1018DB00F1811217B6902D7CF1771217B6902D7CF3
:1018EB001210CBE48026902D83F1A96024902D80DB
:1018FB0012113CE94A6013120D3CFF1217B6902DE2
:10190B0081E475F001120EA880DCE4FF1217B6809B
:10191B00D591E7902CD17401F022902CDC1210F3AE
:10192B00902CE0121145902CDC1210CB902CD7E0B0
:10193B0024FFFD902CD6E034FF5EFEED5FFF902C74
:10194B00E5EEF0A3EFF04E605C7120C3902CD7E076
:10195B009FFF902CD6E09EFE902CE5F0A3EFF0902D
:10196B002CE3F1599FEC9E5003123164F136602643
:10197B0051F0C004C005C006C00751454A6005516F
:10198B00E3FF80027F007E005145F1B3D007D00604
:10199B00D005D00411BD511E4A60047120806A7EAF
:1019AB00007F008064902CE3E0FEA3E0FF4E6061BB
:1019BB00902CD6F159EF9DEE9C400A902CE5ECF063
:1019CB00A3EDF0800D902CE3E0FFA3E0A3CFF0A3F9
:1019DB00EFF0F136602651F0C004C005C006C00719
:1019EB0051454A600551E3FF80027F007E0051455F
:1019FB00F1B3D007D006D005D00411BD511E4A60FB
:101A0B0004712080047E007F00902CE112313E8017
:101A1B0094D322902CE5E0FEA3E0FFC3902CE4E0EE
:101A2B009FF0902CE3E09EF0902CDC1210E7E4FC8E
:101A3B00FD120F1E902CDC1210F3902CE012113CB7
:101A4B00E922EFF4045FFFE4FEEF70037FFF22EF68
:101A5B00D3940F4009EFC4540FFFEE4404FEEFD3B1
:101A6B009403400AEF1313543FFFEE4402FEEF3092
:101A7B00E1010EAF0622AB07AA06EB241FFFE43AE7
:101A8B00FEEF7805CEC313CE13D8F9F9EB541F90A4
:101A9B002FD1F0AF0551E8FCAF055152AE01EE145A
:101AAB00C39FC43354E0F9AF04C3EB9FFFEA940028
:101ABB00FEE9FDC3EF9DFFEE9400FEED600FE0FD30
:101ACB006007C374209DFD80067D0080027D007C35
:101ADB0000EF2DFFEC3EFE22902CE9E0FF514DEF85
:101AEB00C43354E022902CE5E0FEA3E0FF902CE9F8
:101AFB00E0FD5181902CE7EEF0A3EFF0A3E0FF5156
:101B0B004DEF75F020A4FFAEF0E4FCFD902CDC1241
:101B1B0010E7020F1E902CE5E0FEA3E0FF227F01F1
:101B2B0091EB902CD2E01212521B50041B58141B39
:101B3B005D151B62171B72301B77341B7C361B81A8
:101B4B003700001B6A5334EF853480802F5335EFF9
:101B5B0080085335DF800353357F853590801D53C7
:101B6B0036DF8536A080155337FE800D5337EF8057
:101B7B00085337BF800353377F8537B07F0CDFFEA9
:101B8B00227F0191EB902FCF7401F0902FCFE0606B
:101B9B002EF160911A902FCFEFF091699107902C55
:101BAB00CEEFF09169902FCFE05401F1A160DCA34F
:101BBB00E0F460D7EF30E7D3E4902FCFF080CC7117
:101BCB002D7F9F1217B6911A902CCF9118902CD471
:101BDB009118902CD5EFF091E7902CCDE0F4601B91
:101BEB00A3E0F46016902CD4E0FD541F240FA3F057
:101BFB00EDC41354074480902CD4F022712D7FD761
:101C0B001217B67FFF1217B6911F902CCDEFF07FF6
:101C1B00FF1217B6E5C820E2FBAFEB227F0191EB79
:101C2B00303E14F160911A902FD0EFF09169902F04
:101C3B00D0E020E002C23E303E179107902CCEEF51
:101C4B00F1A1600BA3E0F46006EF30E702C23E9116
:101C5B0069E4FF91EBA23EE433FF221217B6F1EDDC
:101C6B00EF70FB902CD4E0F4600A902FCE7406F04A
:101C7B00F16F70FC902CD2E01212521CA2041CAA21
:101C8B00141CAF151CB4171CC4301CC9341CCE3625
:101C9B001CD33700001CBC433410853480802F4389
:101CAB00351080084335208003433580853590807F
:101CBB001D4336208536A08015433701800D4337F1
:101CCB0010800843374080034337808537B0902F0F
:101CDB00CE740CF0F16F70FC221217B69169E4FF11
:101CEB00EFB4010443FE202253FEDF221112912791
:101CFB00EF6004D13080F77F0191EBD23E712D7FE5
:101D0B00069166712D7F011217B67F039166E4FF72
:101D1B0080CE902EB01210F311129127EF6004D1E8
:101D2B003080F771297F03B1C66008902EB0F18126
:101D3B001217B6902EB0F1771217B6902EB012176D
:101D4B00B3911A902EB4EFF091E7902EB4E0FF22EE
:101D5B00902D851210F3902D891211451112912798
:101D6B00EF6004D13080F771297F03B1C660089012
:101D7B002D85F1811217B6902D85F1771217B6903C
:101D8B002D851217B3902D8CF1A96013911A902DFC
:101D9B0089F1F4902D8AE475F001120EA880E6917A
:101DAB0069E4FF81EB7F0191EBD23E712D7F06122F
:101DBB0017B69169712D902CD0E0FF1217B6902CAD
:101DCB00D3E0640222902FA4EFF0E4A3F0902CDB7D
:101DDB00E0FFB40209740FF16774B9F0800CEF6483
:101DEB00047041743DF1677479F07129902FA4E070
:101DFB006007902CDAE0FF80027FAB1217B6916977
:101E0B00902FA4E0902CDAF07016902FA5E0D394CD
:101E1B0000400D7FFF1217B6902FA5E014F080EA5B
:101E2B00E4FF91EB22E51530E20EE51520E509E51F
:101E3B001530E0047F01F1FB22900666EFF0E53DE3
:101E4B00C394204004D13080F5E539C3942040037E
:101E5B00E4F539C2ACF1E7EF700EE53D700A900680
:101E6B0066E0FF1200268013900666E0FFAE390590
:101E7B003974372E1243ECEFF0053DD2AC7F0122C3
:101E8B00F18B121145E4902D01F0A304F0902CFE80
:101E9B00E0FEA3E0FF4E7002E130D3EF9420EE940E
:101EAB000040047F208006902CFEA3E0FF902D00C5
:101EBB00EFF0902CFB12113C902D00E0FF902BF8D3
:101ECB00E4F0A3EFF0902CF71210CB124628400E43
:101EDB00902D01E0FFA3E0FEEF4E902D01F0902D31
:101EEB0000E0FFC3902CFFE09FF0902CFEE09400ED
:101EFB00F0902CF71210E7902D00E4FCFDFE120F72
:101F0B001EF18B12113CE94A6007902D00E0FF8017
:101F1B00027F00902CFCE48FF0120EA8902D02E0B3
:101F2B0025E0F0C198902D01E0FF22902CE01211DA
:101F3B003C902CE5E0FFA3E0902CFECFF0A3EFF05C
:101F4B00902CDC1210CBD18B902CE9EFF022E0FC23
:101F5B00A3E0FDD322712D7F050217B6902FA5F0BC
:101F6B00902CDA22902FCEE014F0E0221210CB78D6
:101F7B000812108BE4221210CB781012108BE42273
:101F8B00902CF71210F3902CFB2211129127EF607B
:101F9B0004D13080F722F0902CCDE0FFF42274FFB7
:101FAB00F5F0120EBE45F0222FF9EE3AFA902CE71F
:101FBB00E0FFA3E0902D83CFF0A3EFF02275FF029B
:101FCB008FE3229003AFE064AA2411FFF022AE0747
:101FDB00F1CEEE04FEEF8EF084AFF022E5ED54016E
:101FEB00FF22E5C85404FF22FF12113CEF020DD76C
:101FFB00EF600E12079EAF82AE83E4FD12202580A8
:10200B00103020037F0022120ABA123BCEE433FFBA
:10201B00227F0122AF82AE837D0190061C124ADE25
:10202B00E514707291025004C24511B290061CE087
:10203B00FEA3E08E11F512A312113C90058C121128
:10204B0045AE11AF127DAA123F3FE4F5FF75D908DB
:10205B00F510E5155421602BE51530E504E4FF91EF
:10206B0012E4900621F0900621E004F0122B44EFCD
:10207B006009900621E0C3941040EB7F02120C40E4
:10208B005315DE900588E07F00B403027F0111A297
:10209B00D2EBA22692ED22911243FA04E4F5FF5300
:1020AB00D1FD43D101D245902FD2E5F4F0E0547F1E
:1020BB00F5F47F827E00F19A91B3D1065005E5FCD1
:1020CB0020E6F7304508902FD2E04480F5F491AD2F
:1020DB00D1065005E5FC20E6F775FF01E5D520E7B5
:1020EB0002C322E5F4D330E601C322900628121175
:1020FB0045D23BC2EBE51460026157E51530E202B5
:10210B00C32271A724E3124B3712417471AF5407EA
:10211B00FF90058AF0123EFE90062BEFF0E515209E
:10212B00E070910A40057F01121FFB90062BE0FF28
:10213B007B017A06792C912DE4337004D2EB613B51
:10214B0090062BE02467124C4CE0FF90062CE0D35A
:10215B009F403FD2EB1240A1A22692ED90059BE04F
:10216B00601271A724E3124B6C120DD743150412A6
:10217B0038D7D3229005A9E070167B017A0579A98F
:10218B007C3F7DEF902E067464F0E4A3F01238E4EC
:10219B00C322910A5004C24511B2E4F5FF123BC5AC
:1021AB00E5D120E0FBE4F51071AF5407C39403E4D1
:1021BB009400503271A724B1719F71A624D8719FDE
:1021CB002FFFE433FED3EF9440EE648094804016EF
:1021DB0071A724E3F9E43AFA7402120DD7431504FC
:1021EB00A22692EDD32271A72408F9E43ACFE9CFC6
:1021FB00F5118F1271A724B1719FF516AE1112470D
:10220B009871A724B2F9E43A8B1CF51D891E71A7AE
:10221B0024D8719FF51F71AFFDACF05460602F7126
:10222B00A724D9719FFF12407BC23B718FFB7A00B1
:10223B009005AA124C3D7D18120E0BEF2BFFEA3EB8
:10224B00FEEF2414FBE43EFA7D027F01612A71AF9D
:10225B00540790058AF075140871A7124B16123BA0
:10226B009271A724D8719FFFAD16123ECA90058AB2
:10227B00E0640370237B01FD715F71F850057401FD
:10228B00120D82E4F5FF123EB7120D3C2428FBE43D
:10229B0033FA7D03E4FF612A90058AE06402702A19
:1022AB00716271F8400574FF120D82E4F5FFE5D2FF
:1022BB005480440AF5D2120D3C2414FBE433FA7D0E
:1022CB00027F011240C071BF8058E4FB7D01715F3A
:1022DB0071F8400574FF120D82E4F5FF71AF4410E5
:1022EB0045F07F0560027F0AEF547FFFE5D25480F3
:1022FB004FF5D2E4F5FF43D280718FFD7C0071AFB7
:10230B00441045F07E0060047F0A80027F05EF25B4
:10231B00E0FFEE33FEEF2DFBEE3CFA7D017F011269
:10232B0040C071AFFFAEF0A23B923A123C5D40064B
:10233B00A22692EDC3221238D790062BE071A62469
:10234B00E51234EDA22692EDD2EBD322A22692ED2A
:10235B00D2EBC322FF71C490062812113CE924B1C1
:10236B00F9E43AFA120D3CFF90062812113CE924CD
:10237B00D8F9E43AFA120D3C2FFFE433FEEF2401B7
:10238B00FFE43EFE90062812113CE924B2F9E43A30
:10239B00FAE92407F9E43AFA020D3CFF90062812F9
:1023AB00113CE92290062812113CE92404F9E43A85
:1023BB00FA020ED4E4FB7D01FFE4F5FF75D102E5D3
:1023CB00D120E0FBE4F5FFF5D1EF6008E4F5FF4326
:1023DB00D2808006E4F5FF53D27FEB6006E4F5FF75
:1023EB0043D104ED6006E4F5FF43D10822D39FEE01
:1023FB006480F874809822C2EBA2ED9226C2EDE5C0
:10240B00F4C330E701D32275FF01E5D530E602C3F3
:10241B0022E4F5FF439A80EFF1F7E4F5FF539A7F3F
:10242B00D322902EFAEFF0A3122B1E75FF01122D63
:10243B0064EF64016002C322E5F430E602C3227F3D
:10244B00E87E03122B2791B3122D2A400122C2459D
:10245B0011B2902EFAE0FF911253F4DFD24511B274
:10246B007F787E0091BA75FF0153E4BFE5E430E756
:10247B00FB122F9F7F8A122F8C30E606122AE0E484
:10248B00800875FF01122AE0E5D9120DD775FF01FF
:10249B0043E440F1E9400343F420122D2A4001228A
:1024AB00D3227FE87E03F19A75FF0343918022CDFF
:1024BB00EFCDCCEECC124B59AB94EF4B1247E7CB95
:1024CB00EFCBFAE59130E71A124B5CA994E9F58250
:1024DB00EF4582FFEB124C2DC3EF9582E5F0958310
:1024EB0040E1E59120E708CEECCECFEDCFF1DB223A
:1024FB00902E1D122F98EBF0902E237401F0C244F6
:10250B0091ADD1065005E5FC20E6F7122D64BF0115
:10251B0008E4F5FC75FC408008122D64BF0202D361
:10252B002275FF0153D8EF902E1EE0FF1249C375A1
:10253B00FF0153D5DF53FAFB902E1DE0FF91129054
:10254B002E1EE0902E1DB40809D11124521228E33F
:10255B008003D111FF122D94902E1FE0FFF1F17526
:10256B00FF0175FF03759B0491AD75FC42E5FC20E3
:10257B00E104D10640F4902E20E0F075FF03E59BBB
:10258B0020E704D10640F4E59B20E70D75FF0375AA
:10259B009B1F123F22D244804FF1D0122AEC902E77
:1025AB001EE0FD90120FE05D701C902E1DE0FFF100
:1025BB00D0123D1E90120FE0FF902E1EE0FEEF4E4C
:1025CB0090120FF0F178122D0F7B017A2E792112D8
:1025DB0047D1500FC3902E22E09420902E21E094EF
:1025EB000340E6F1D01247EFF1E0304402A1039033
:1025FB002E23E0B40103D38001C32275FF03E591C1
:10260B00C330E701D322E025E025E02401F582E485
:10261B003412F583E0FCA3E0FDA3E0FEA3E02290DF
:10262B002C431210F375FF0243E180123F22122D4F
:10263B0040902C581210FF002DC6C0E4F5FFF5A4F6
:10264B0090120EF0A3F0902C537402F0124C6BFF0F
:10265B00F595EF14601314601C24027027902C4323
:10266B00D11FF1C9902C4F8016902C47D11FF1C967
:10267B00902C50800A902C4BD11FF1C9902C51E01B
:10268B00902C5CF01249B6902C5CE0700FF5FFF5C6
:10269B009675FF0175D70975F418805A90120EE0E4
:1026AB0004F0902C53E0F1F7902C58D11FFF902C95
:1026BB0054122FBEC312107A500A902C54D11FFF04
:1026CB00A31210F3902C5CE0FF124847902C52E0C1
:1026DB00FFA3E0FDA2439241124895A3D11FFF90A7
:1026EB002EBB1210F3902C53E0FF1228EE902C53BC
:1026FB00D111FF122D94124C026002C1577402F0DB
:10270B00124C6BF595E5F45407701D902C5812285C
:10271B00C4780112108B902C53122984F58312105C
:10272B00F3EBD112FF122D94124C0270D375FF03F1
:10273B00759580F1E9400343F420A243924212487D
:10274B00E7902C58D11F2420FFEE344E1228E6E4DC
:10275B00FB7A04F9F81228D4780112108BC24012BC
:10276B002C1EE4F5FFE5BD54F84404F5BD9012139F
:10277B007401F07E127F01E4FD8F828E83EF2D12A8
:10278B004C63FC901213E02CF00DEDB412EB229085
:10279B002EEA124C1D7A2E79EC1247D15014902E42
:1027AB00ECE0FEA3E0FF902EEBE09F902EEAE09E84
:1027BB00400B902EEAE0FEA3E0FF122B2722FF90A6
:1027CB002C540210F37B017A2E7923227F147E0086
:1027DB00122B2791B375FF03E59120E7FB22901293
:1027EB000EE0D394012275FF018FDA223333335479
:1027FB00F8F5F42230220D1208FDEF6007C24A12E1
:10280B0008E9C222229003BDE0FCA3E04C700A90C1
:10281B0003BDEEF0A3EFF0D322C3229003BDE0FE85
:10282B00A3E0FF4E6009CAEECAC9EFC912127822A3
:10283B00D2ADD2BD75FF02758E71754B0975FF0256
:10284B00E58E546F4480F58E902EE21210FF00003F
:10285B00000022C0E0C0F0C083C082C0D075D00899
:10286B00C0FF75FF02E58E30E43675FF02E58E542E
:10287B00EF4410F58E902EE21210CB11E0902EE269
:10288B001210F3900000E475F001120EA8E54B70E6
:10289B000D754B090547E547700205468002154B40
:1028AB0075FF02E58530E404D1CC054FD0FFD0D0C5
:1028BB00D082D083D0F0D0E032FF7E04FDFCE0F874
:1028CB00A3E0F9A3E0FAA3E0FB120F39E47B7DFA56
:1028DB00F9F8120FC4EF2401FFE43EFEE43DFDE4E2
:1028EB003CFC22902EBAEFF0E4A311C47801121035
:1028FB008B902EBA3184F5831210F3901210E06492
:10290B00806075E0C3947F503BEB3186F583C083C9
:10291B00C08212261FFFEEC0E0EFC0E0901210E065
:10292B0075F004A4AEF0FBCAEECAEA3395E0F9F8F1
:10293B00D0E0FFD0E0FEC3EF9BFFEE9AFEED99FDDA
:10294B00EC98802C902EBAE03186F583C083C08240
:10295B00F1BE901210E0F40475F004A4FFAEF0EE9B
:10296B003395E0FDFCEB2FFFEA3EFEE93DFDE83C35
:10297B00FCD082D0831210F322E0FB25E025E0246B
:10298B0001F582E4341222902D3E711E902D4412DB
:10299B0010FF00000001902D487401F0F5FFE5D504
:1029AB0054C0700512240A5002C322E4F5FF53965B
:1029BB007F75FF0175D5047F3FFE1227DB75FF0185
:1029CB0043D508E4F5FF5394FBF5FF53847FF5FFE4
:1029DB007598FF902D42E5F4F075F49C75FF01A3FB
:1029EB00E5E4F075E4257B017A2D794851EC902DC7
:1029FB0048E06401600241BFF5FF902D417414F073
:102A0B00902D4412261FFF780112109E902D441218
:102A1B0010F3E5A730E1FB43A702902D4412261FCC
:102A2B00FFE5A730E005E47B018002E4FBFAF9F84F
:102A3B00EF4BFFEE4AFEED49FDEC48FC902D4412A6
:102A4B0010F3902D41E014F070B6902D4412261F18
:102A5B00FF781012108B7B6D7A4E79C67841120F6E
:102A6B0039EF2439FFEE343011E6E4FBFA7901F843
:102A7B00120FC4EE547FFEE4FDFCF1CA902D4412FC
:102A8B00261FFFEB6FFFEA6EFEE8CDEFCDCCEECC51
:102A9B00ECFF902D3E51E3EF120DD7902D3E51E3FD
:102AAB00900001ED120DE990120FE030E606E4F50F
:102ABB00FF75968075FF01E4F5D5902D42E0F5F496
:102ACB0075FF01A3E0F5E4F1D7902D48E0B40103C5
:102ADB00D38001C322902EFBE0FBA3E0FAA3E0F925
:102AEB0022902F3D711E7F017C127D01E4FE8D82B1
:102AFB008C83ED2EF582E43CF583E02FFF0EEEB4D4
:102B0B0012EC901213E06F6009902F3D51E3E41229
:102B1B000DD722EBF0A3EAF0A3E9F02275FF03D364
:102B2B00EF9402EE9400400874FE2FFF74FF3EFEFC
:102B3B00EFF592EE540FF59122E4902EF2F0A304F0
:102B4B00F0E4902EF5F0E5FA30E1FB75FF01E5D5E9
:102B5B0030E7037F0022E4F5FF75E50875FF0153AD
:102B6B00D8EFE5D530E61A75FF01902EF4E5DAF0D3
:102B7B00E4F5DA75FF01E5D630E3FB902EF5740131
:102B8B00F075FF03759B0475FC4175FF03E59B30E6
:102B9B00E7FBE4FB75FF038B95EB122612FFB19459
:102BAB000BEBB403EF75FF03759580E4F5FF758EA2
:102BBB00C8B10F75FF0153D5FB91171227D775FFBE
:102BCB000143D504902EF5E0700791177FC81227AB
:102BDB00D97B017A2E79F31247EF902EF3E0902EEA
:102BEB00F27006E04404FF8002E0FF902EF2EFF05B
:102BFB0090120EE0B4010675FF0143D81075FF016A
:102C0B00902EF4E0F5DA902EF2E0FF2275FF03E44C
:102C1B00F59122902CA71210F3E4F5FF75BB057507
:102C2B00BB8575FF0175D5022040087F3FFE12273B
:102C3B00DBB10F75FF0143D52030400281E8E4F58D
:102C4B00FF538EF7438E077D04E4F5FF8DBCF5FF34
:102C5B0043B102E5B130E2FBE4F5FFAFDFEFFEACD1
:102C6B00DEECFBEBFFED25E024A5F582E4342CF53F
:102C7B0083EEF0A3EFF0E4F5FFF5FF53B1FD0DED9F
:102C8B00B40CC6902CA712261FFF780912108BA329
:102C9B00EEF0A3EFF0E4FDED25E024AFF582E43494
:102CAB002CF583E0C313FAA3E013FBB102D1F12B94
:102CBB00FFEE3AFEB102EEF0A3EFF0ED240490121A
:102CCB000DF0EDC394075015CFEDCF0DEFB103D140
:102CDB00D3902CACE09F902CABE09E50BAE4F5FF68
:102CEB00758EC8F5FF90120DE0F5BCE4F5FF75BBD2
:102CFB008075FF01F5D522ED25E024ADF582E43496
:102D0B002CF58322E4F5FF75C2E17F1EF18C30E7D1
:102D1B0007E4F5FF75C2A122E4F5FF75C28122E538
:102D2B00F730E50FE5F754C0700512260640F09119
:102D3B0017C322D322B15A53DB7F75FF0175D5021E
:102D4B001227D7B15A43DB8075FF01E4F5D5227505
:102D5B00FF01438E1075FF01227FFA7E007127124F
:102D6B0024B3E5FC30E60512260640F6E5FC30E61A
:102D7B00037F032275FF01E5D530E6037F0222E5D1
:102D8B00D57F0030E7027F0122902EEE1210F375F3
:102D9B00FF01902EEEA3E0FDA3A3E4FFFEE4FC787D
:102DAB001012108B8FE1902EEEA3A3E0FEA3E4FF95
:102DBB00E4FDFC780812108B8FE2902EEEA3A3A3F8
:102DCB00E0FF8FE32290062D121145900630EDF0B7
:102DDB00E4A3F0ED54FE900630F0602AE4FF121FDE
:102DEB00FBBF012290062D12113C31925018900618
:102DFB002ED1DA900631E02402F0900631E0FF90FC
:102E0B000630E06F70DE7F01121FFB900631E0FF92
:102E1B0022B164EF64017065F1B3902FA2EFF0D390
:102E2B0094025059902E0EE0FF902FA2E06F704D40
:102E3B00D1A0902FA3EFF07B017A2F79A37D011204
:102E4B000B23902FA2E0240AF582E4342EF583EFB6
:102E5B00F0902E0EE0045401F07022902E0CE070D6
:102E6B0002A3E060187B017A2E7908D1897B017A65
:102E7B002E7908902E0CD1E18E8312127C22C00386
:102E8B00C002C0017A2E790AD1E9D001D002D00359
:102E9B007F02020885E4FFE5F754C06002801675D7
:102EAB00FF01E5D530E30DD1C550F4D1C0EF60EF94
:102EBB00D1C550EB22F19FAFD92275FF01E5E43369
:102ECB002275FF0243851022E0FEA3E0FFC322E43C
:102EDB0075F002020EA8E0FEA3E0FFF582227B0153
:102EEB00902E2F021145E0C313FEA3E01322902E68
:102EFB00E6F195EBF0F175AC00AD01AE02AF03C09E
:102F0B0006C007902EE6D1F1FBAA06E4F9F8D0072C
:102F1B00D006D31210647E0050047F0180027F0024
:102F2B00C006C007F175D0E02FFFD0E03E902EE633
:102F3B00F0A3EFF053ECFC902EE6E0FCA3E0FDECED
:102F4B00540342EC75FF02EDF5AF75ED0275ED0420
:102F5B00A3E0600543EC08800353ECF7902EE9E007
:102F6B00600443EC042253ECFB22902EE6E0FEA31C
:102F7B00E0FBAA06E4F9F87F807E387D01FC0203B2
:102F8B007FFE1224BA90120FE022EEF0A3EFF0A313
:102F9B00EDF0A32275FF01E4F5EA75EAFF227D024D
:102FAB00B1D0EFC36001D322E5F4541813131354BB
:102FBB001FFF22E0F8A3E0F9A3E0FAA3E0FB22C88D
:102FCB00ECC8C9EDC9CAEECACBEFCB22E4F5FF754D
:102FDB0084E6F5FF439404F5FF75981422AC02AD1B
:102FEB0001902C72ECF0A3EDF0902C6CE0FAA3E0C6
:102FFB00FB902B6A12315FA3123150D3902B6BE0F5
:10300B009D902B6AE09C402D3123407611E74004C4
:10301B007F808006902B6EA3E0FF902B70EFF090DB
:10302B002B6AE0FEA3E0FF118E11EF7E0031179E9D
:10303B00F0313280D3902B6EE0FEA3E0FF313231C2
:10304B0023403F11E740047F808006902B6EA3E066
:10305B00FF902B70EFF0FD7C00C3902B6BE09DFF7E
:10306B00902B6AE09CFEF0A3EFF0C3902B6DE09DDC
:10307B00F0902B6CE09CF0118E11EF31179400F057
:10308B0080BD227B017A2B7971902B70E0902E689A
:10309B00F011C8902B6CE0FEA3E0FF7B017A2B793B
:1030AB0071902B70E0FD902E1BE4F0A322AE02AFCB
:1030BB00017B017A2C7921902E687405F0902E6596
:1030CB00121145E4FCFDC007902E653149E0FF90DD
:1030DB002D8CE4F0A3EFF0D007021D5BD3EF9480AF
:1030EB00EE940022EDF011FC902B70E0FF227405A2
:1030FB00F0902E18121145E4FCFDC007902E18120B
:10310B00113C902E1B5199D007021925C3902B6FA0
:10311B00E09FF0902B6EE022902B6EE0FEA3E0FF81
:10312B00D39400EE940022902B6AEE8FF0120EA82F
:10313B00902B6CEE8FF0020EA87405F080B3121179
:10314B003C902E6822AF03EAF0A3EFF02211FC743F
:10315B00FFFDFC22EEF0A3EFF0A3ECF0A3EDF022C9
:10316B00FE902C6FE029FD902C6EE03AFC902DB276
:10317B00315FA37400F0A37476F0902DB651928E4C
:10318B0083E49370024162E493FF541FFD902DB8CA
:10319B00E4F0A3EDF0EFC413540712125231C40044
:1031AB0031C60131C80231D00331D60431DE0531CD
:1031BB00E70631F1070000318580108016902DB99C
:1031CB00E02403801D51632404800C902DB9E0246E
:1031DB0002800F51632403FFE43E8071902DB9E010
:1031EB00240151878067902DB651B8740193FB7AF7
:1031FB0000902DB9E0FEE42BFFEA3E517F51A6FE75
:10320B00902DB651B0740493FDEDFFD3902DB3E028
:10321B009F902DB2E09E502D902DB5E09F902DB438
:10322B00E09E4021E4FCFDC007902DB7E02405FF94
:10323B00902DB6E03400FAA9077BFF902DB8519979
:10324B00D007121925902DB9E024055187902DB682
:10325B008FF0120EA8218522902DB6E0FEA3E0F58B
:10326B00828E83740193FD7C00902DB9E0FEE42DDA
:10327B00FFEC3EFE902DB8F0A3EFF022FF902DB89F
:10328B00E0340022902C69E0FEA3E0F58222E0FFFF
:10329B00A3E0902CE3CFF0A3EFF0228D828C83740C
:1032AB00039322E0FCA3E0F5828C8322FFE0FCA3D6
:1032BB00E0FDF5828C8322EF6004902DA5F0900544
:1032CB006CE090055B712690056CEFF0604020324E
:1032DB003D902DA3E0FD902DA6712D902DA4E09097
:1032EB0005C4F0902DA2E09005C5F0A37480713653
:1032FB0090056CE0FBE4FF120AFBEF701D902DA50F
:10330B007402F0902DA051928E837F028009902D34
:10331B00A5E0902DA051B712127C22FF12113C0296
:10332B0008A812113C9005C1021145F0A37432F0AC
:10333B00A374C2F022902D28121145902D27EFF087
:10334B00902D327403F0902D2FE05457FEF0902DFA
:10335B00A3EFF0902D30E0FDA3E0902DA0CDF0A3D6
:10336B00EDF0902D2B12113C902DA6121145902DA6
:10337B002EE0902DA4F0902D2812113C90055B129D
:10338B001145EE4420902DA2F0E4902DA5F0C23211
:10339B00F543902D2812113CAF431208A88F43EF31
:1033AB00602A7D03120A6040E9902D2EE0D3941918
:1033BB0040037F0022AF43120A5B5008902D3274FA
:1033CB0001F08008902D327402F080C6902D2EE013
:1033DB00FED3948240037F0022902D2FE0FB902D93
:1033EB003230E010919FC00391B0902D21EE7136D9
:1033FB00D0038020919F91B0902D2EE0902D21F045
:10340B00902DA0E0FBA3E0902D22CBF0A3EBF0904E
:10341B002D2FE0FB902D1B122F98EBF07F02120A41
:10342B00A1902D24121145EA494B605D902D1CE0B3
:10343B00FF919724B691EDE490056CF090055B122B
:10344B00113C91F5EF600D902D1BE04442F09197EC
:10345B0024D991A7902D1DE0FF30E11B919724BA41
:10346B0091A7EF54FC902D1DF0FE902DA2E054FD82
:10347B00F091BC7D01800C902D1DE054FEF0FE916F
:10348B00BC7D02120AF67F01227F0022902D2412AE
:10349B00113CE922E0FF902D27E0FD22F9E43AFAF6
:1034AB0074FF020DD7902D2B12113C902D1E021183
:1034BB0045902D1BE0FF902D21E09005D1F0A3EE60
:1034CB00F0902D22E0FDA3E09005D3CDF0A3EDF01D
:1034DB00902D2412113C9005D5121145902D1E02F2
:1034EB00113CF9E43AFAEF020DD7902EDD1211459B
:1034FB00E4902EE0F0A3F0902EE0E0902EDD71260C
:10350B00902EE0EFF06010E0FFC24F1209E8EF6081
:10351B0006902EE1E004F0902EE0E070DAA3E0FFDD
:10352B0022C003C002C001902D7512113C902D2BAF
:10353B00121145902D78E0902D2EF0902D79E09082
:10354B002D2FF0902D7AE0FFA3E0902D30CFF0A33C
:10355B00EFF0D001D002D003AF4A6140902DBBEC0D
:10356B00F0A3EDF0902DBAEFF0FB902DBD1210CB28
:10357B00D1EB1210F3EBB1C11210F3EBB1C1C0835D
:10358B00C0821210E7900000124BF0120F1ED08277
:10359B00D0831210F3902DC1E0FF902DBAE0FED135
:1035AB0097EFF0902DBBE0FCA3E0FDEED1A7ECF084
:1035BB00A3EDF022E54C75F00CA424C2F582E434A3
:1035CB002AF58322D3900001E09400900000E09450
:1035DB00005002C194C2ADE0FFA3E0902FA0CFF04A
:1035EB00A3EFF0E4900000F0A3F0D2ADF54CE54C66
:1035FB00D1B7F583E07002C189902FA0124BF0B1C7
:10360B00BF1210E7D312107A504CD195E0FF60082F
:10361B00F46005D195E014F0D195E0600EE54CD146
:10362B00EC1210CBB1BF1210F38011E54CD1B7F5F2
:10363B0083E4F0B1BF1210FF00000000D1A5E0FE43
:10364B00A3E04E600CD1A5E0FEA3E0AA06F912128E
:10365B0078121E308028B1BFC083C0821210CBC03D
:10366B0006C007902FA0E0FEA3E0FBAA06E4F9F842
:10367B00D007D006120F2BD082D0831210F3054C3B
:10368B00E54CC3940E5002A1F922E54C75F00CA445
:10369B0024CCF582E4342AF58322E54C75F00CA496
:1036AB0024CAF582E4342AF58322E0FF75F00CA4DA
:1036BB0024CDF582E4342A22AB07E4FF1BEBC39441
:1036CB000E501CD1EB1210FF00000000EBB1C11229
:1036DB0010FF00000000EBD1B7F583E4F07F01226F
:1036EB00EB75F00CA424C6F582E4342AF583229002
:1036FB002DC2EEF0A3EFF07FFFA31210E7E8494ACB
:10370B004B6054902DC97404F0902DC9E0FEC39406
:10371B000E5044EED1B7F583E07034902DC9D1B57E
:10372B00F5837405F0C007902DC41210CB902DBDFE
:10373B001210F3902DC8E0902DC1F0902DC2E0FC3B
:10374B00A3E0FDD007B167902DC9E004FF8008907E
:10375B002DC9E004F080B222902DFA122F95EBF0D8
:10376B00902DFF74FFF0902DFEE0902E00F0902E28
:10377B0000E0FFC3940E506AEFB1C11210CBE4FB13
:10378B00FAF9F8C312107A7051902DFEE07E017099
:10379B00027E02902E00D1B5F583EEF0C007902D7E
:1037AB00FCE0FF7E0060097C007D0A120E0B80029C
:1037BB007F0AE4FCFD902DBD1210F3902DFDE090DF
:1037CB002DC1F0902DFAE0FCA3E0FDD007B167907E
:1037DB002E00E004FF902DFFF022902E00E004F06D
:1037EB00808C902DFFE0FF22E4FB7D01E4902DFE09
:1037FB00F0E163902DFE7404F0023763AB07E4FA3B
:10380B001BEBC3940E50141236EB1210CBEC4D4E37
:10381B004F6008EB1235C11210F30AAF02221FEFF3
:10382B00C3940E5009EF1235C11210CB8005E4FF83
:10383B00FEFDFC22E4FEEFC3940E5015EF1236B7DB
:10384B00F583E05D7C00B505027C01EC2EFE0F805C
:10385B00E5AF06227D02E4FF80DA7D017F04113F94
:10386B00AB07115FEF2BFF22E4FD7F0480C6A2ADF7
:10387B009239C2ADAF47AE46A23992AD2290293FE5
:10388B00E0FEA3E0FFAD07AC061179C3EF9DEE9C04
:10389B004008EF9DFFEE9CFE8013EDF4FDECF4FC75
:1038AB00ED2401FDE43CFCED2FFFEC3EFE227B0101
:1038BB007A2879B7902F3A121145902F3A311A1274
:1038CB0036C3902F3A12113CE4020DD7E490059BBE
:1038DB00F07B017A0579A980DB902E04ECF0A3ED47
:1038EB00F0902E0112114511BF902E04E0FEA3E0C3
:1038FB00A3910A1237F7902E01121FF4902E01128A
:10390B00113C120D3CB4FF04E4120DD7902E0112A2
:10391B00113C120D3CFF22C0E0C0F0C083C082C03E
:10392B00D075D008C0FF75FF01E5D530E6047F02E6
:10393B008009E5D57F0030E7027F018F18E5186419
:10394B000260024100E514121252396E01398102F4
:10395B0039E908398C0939970A39A50B39C20C009A
:10396B00003B6075FF0175C355151AE51A600261BE
:10397B0060751402616075FF0175C3F07514096100
:10398B006075FF0175C35575140A616075FF019071
:10399B00059CE0F5C375140B616075FF01900589FB
:1039AB00E0F5C3751401751A149005AAD1C0600215
:1039BB00616075140C6160AB1CAA1DA91E7192ADE0
:1039CB0016AF1FD1CA1223BF75FF00D1B743FA043C
:1039DB0075FF0053D1FD43D1017514086160C2EB33
:1039EB00751400431504D1E440026160E475F001E5
:1039FB00120EA86160E518640160026160910340DA
:103A0B00026160E510707275FF01F5EA75EAFF90CF
:103A1B00058C12113CE5D9120DD77186E090066426
:103A2B00F0F160F10E900588EFF0900664E0FFD3A3
:103A3B009409500241DA900588E0D39402400CEFD0
:103A4B00D394AA7F0040027F01800D900664E0D3DF
:103A5B0094407F0040027F01EF6002807290066409
:103A6B00E0F516122FB3901215EFF075FF009006CC
:103A7B0064E0F5D97510036160E5106403600261C1
:103A8B006090058C311A717EEF120DD775FF009087
:103A9B000588E0C39403E5D350055402FF8003541B
:103AAB0001FFEF602E30E111C3900596E094FF907B
:103ABB000595E094FF5018800FC3900598E094FF94
:103ACB00900597E094FF5007E475F001120EA87172
:103ADB009E6160C2451220B275FF0071C5E5D12011
:103AEB00E0FBC2EB4315027174A3E0FF9003BAE055
:103AFB00FEEF6E7173E09003B9716DA3A3E09003B9
:103B0B00BB716DA3A3A3E0FE9003BCE0FDEE6D4F74
:103B1B006016C390059AE094FF900599E094FF50CE
:103B2B0007E475F001120EA8C3900594E094FF9082
:103B3B000593E094FF5007E475F001120EA8751081
:103B4B0000900588E0B4030715167186E516F09012
:103B5B0003B8E516F0D0FFD0D0D082D083D0F0D010
:103B6B00E032FEE0FDEE6D4FFF8512828511832260
:103B7B0012113CE92401F9E43AFA22E5122407F583
:103B8B0082E43511F58322E4F5FFE9D1AEEA540F57
:103B9B0042D622C2451220B2E4F5FF71C5E5D12011
:103BAB00E0FBE4F5FF75D908900588E07F00B403CE
:103BBB00027F011220A2E4F51022E5D154FE44024B
:103BCB00F5D122E514702A1224025005C2451220A9
:103BDB00B2F1227F08120C40E4F5FF71C5E5D1204C
:103BEB00E0FB4315205315FEE4F510A22692EDD30E
:103BFB0022C322E4F51480CBE5F754C024FF22FF47
:103C0B00E0FDA3E0FB2290064CEFF090058AE0FF6D
:103C1B00D1FE90064DEFF090058AE024FD60130471
:103C2B00700890064B7404F0800E90064B7408F0ED
:103C3B00800690064B7402F07F01120C4090064DEB
:103C4B00E090064B910AE4902E20F01224FB50EDED
:103C5B00D3224315015315DF91A491114004E4F5D0
:103C6B00142243FA045315FB303A0BE4F5FF53D1FE
:103C7B00FD43D101800A7F55918D7F55918DD2EBFC
:103C8B00D32275FF01E5D520E602C322E5FA5403E2
:103C9B0060FA75FF018FC3D322EF30E303AF13221A
:103CAB00AD1B202704EE30E00BE517C394F050203A
:103CBB0091EF8018E5196006FDE4F5198012E51700
:103CCB00C394F0500BE517540FFF600491DEAD0762
:103CDB00AF0522D1D7FFC3940E40027F0DEF9004A6
:103CEB005293FF2290058BE0FDFFC3740EB117EFCB
:103CFB00C4F8540FC868FFEEC454F048FEE51754DF
:103D0B00F0C31223F97F005002AF05229FFFE4940A
:103D1B0000FE22902EF6EDF0901211E0F46005A358
:103D2B00E0B4FF0C902EF87418F0A37413F080100D
:103D3B00901211E0902EF8F0901212E0902EF9F004
:103D4B00120D3C64016002C188902EF6E0FE6408FF
:103D5B006004EEB40408902EF77428F08006902EC1
:103D6B00F7743AF0EF122612FF121056E4D189EFD6
:103D7B0024D8FFEE343FFEED3493FDEC3416FC7B80
:103D8B00007A807903780012037F122FCA902EF9E4
:103D9B00E0FF902EF8E0C3B117E4FCFD120F39ECF5
:103DAB00C0E0EDC0E0EEC0E0EFC0E0902EF9E0FF28
:103DBB00E4FCFDFED189D0E0FBD0E0FAD0E0F9D0F5
:103DCB00E0F8EB2FFBEA3EFAE93DF9E83CF8902EE0
:103DDB00F7E0FFE4FCFDFE120F39EF2454FFEE3445
:103DEB000B1228E6E47BA87A16F9F812037FCBEFC7
:103DFB00CB902EF6E014605D14601B24FE600C2447
:103E0B00FC707AE4F5FF75CE318006E4F5FF75CED4
:103E1B0021F5FF8BCF22E4FAE4F5FFEA2440F5CE3F
:103E2B00E4F5FFEAFFC37407B11774E82FF582744A
:103E3B00043EF583E4D191C39DF5CFE4F5FFEA246D
:103E4B0048F5CEE4F5FFEA9004E8D1912DF5CF0AC1
:103E5B00EAB408C422E4F5FF75CE01F5FF8BCFF56C
:103E6B00FF75CE0EF5FFEB25E0F5CFE4F5FF75CE34
:103E7B000FF5FFCFEBCFEB75F003A4F5CF227B64EF
:103E8B00FAF9F8020F399325E0FDE433FCEB75F0FA
:103E9B0010A4FFAEF0120E1DCDEFCDEBFFE4C3135C
:103EAB00EF1322F5D7E4F5FF53D6F022E5D2548079
:103EBB004414F5D22274FFF5F0120EA845F022E45B
:103ECB00F5FF8FD4F5FFCFEDCF8FD522E517C45477
:103EDB000FFEEF900470932E22C3900590E094FF99
:103EEB0090058FE094FF22D1E45007E475F00112A6
:103EFB000EA822EF24FD600680007E018002E4FE06
:103F0B00AF0622EF24FE600C24FE600580007F01CB
:103F1B00227F02227F0322E5FA30E1FB75FC8075DC
:103F2B00FF0153D5EFE4F5FC75FC40122C17E5FCB3
:103F3B0020E6FB22E4F5FF75D102E5D120E0FBE49E
:103F4B00F5D1F5FFEFD1AEEE540F42D6E4F5FFCF2E
:103F5B00EDCF8FD422E5F75406FFBF06037F08226F
:103F6B00E5F75406FFBF04037F0422E5F75406FF71
:103F7B00BF02037F02227F0122E517C394F0501F7B
:103F8B005317F0D1D7FE740FC39F4005EE940E402C
:103F9B000543170D8003EF4217E517540FFF227FE0
:103FAB00002290064812114590064812113CE51B61
:103FBB00F1E1717BF1E01217E8FAF1E012113C121A
:103FCB004B2FE513F1E1F1E8124B37900648124BFA
:103FDB001DE4020DD7E4120DD79006482212113CB6
:103FEB00E9240422E49005A9F090059B04F0221229
:103FFB00240A500712400850028001C322E5F754EF
:10400B00E024FF22AF14EFC36001D322EFC3940E61
:10401B00500590058BEFF022E517540FFF2290030C
:10402B00C0E0B4020D8F1B900619E0F513120A8342
:10403B00D322C322E51754F0C4540F2FFFC394109F
:10404B0040027F0FEF90046093FF227E10EE600919
:10405B001EEE90046093B507F4EEC3940E40027EFF
:10406B000DEE90045293FF22C2AFEF4215D2AF2256
:10407B00751401751A1390059CEFF090058A740264
:10408B00F0ED9005AA30E507E4F0A3743AF022E4D2
:10409B00F0A374E6F022C3900592E094FF90059193
:1040AB00E094FF5007E475F001120EA8229005AAC8
:1040BB00E0A3E0FF2290064EEFF0ED24FE60191412
:1040CB0060262402703BEB2402FFE43AFE7C007D69
:1040DB0050120E0B7D60801E3134C333CE33CED8DD
:1040EB00F9FF7C007D28800E3134C333CE33CED81C
:1040FB00F9FF7C007D64120E1D90064FEEF0A3EFCE
:10410B00F090064EE0313FC083C0821210E790065C
:10411B0050E02401FF90064FE03400FEE4FCFD125A
:10412B000F1ED082D0830210F3EB2401FFE43AFE82
:10413B00EF78032225E025E0249DF582E43405F594
:10414B008322EF313F1210CB0210B1E4FFFEFDFCD6
:10415B0090059D316B9005A1316B9005A50210F375
:10416B001210F3E4FFFEFDFC229003B9E0F4FFA371
:10417B00E06FFFA3E06FFFA3E06FFF64556009EFF3
:10418B00644A6004EFB40A010F900589EFF022A294
:10419B00EB923CC2EB7A05798F7D0C31ADA23C9250
:1041AB00EB227B01E4FF020858A2EB923DC2EBEB42
:1041BB00C0E0EAC0E0E9C0E07A05798F122EE9D0C1
:1041CB00E0F9D0E0FAD0E0FB7F0C120885A23D921B
:1041DB00EB227F017E009017FCE4935EFE7401934B
:1041EB005F4E24FFB322900001740193B40007E4E7
:1041FB0093B41802C322D322902E0CEEF0A3EFF04F
:10420B0022EF7011ED600775FF0143AE012275FFC0
:10421B000153AEFE22EFB4011490122FEDF06007A4
:10422B0075FF0143AE022275FF0153AEFD2275FFF0
:10423B0002E5E630E2037F0322E5E630E3037F008D
:10424B0022E5E630E1037F0422E5E67F0530E0025C
:10425B007F0122EF600775FF0253E6BF2275FF0255
:10426B0043E64022EF14600F146014240270188B85
:10427B008075FF018DFD228B9075FF018DC9228BFF
:10428B00A075FF018DCA22AF038FB075FF01AF057B
:10429B008FCB22902E10121145EF14601114601861
:1042AB002402701E51D8E58051DEE5FD801C51D8EB
:1042BB00E59051DEE5C9801251D8E5A051DEE5CA83
:1042CB00800851D8E5B051DEE5CB020DD7902E1307
:1042DB0002113C120DD775FF01902E1002113CE418
:1042EB00F5FFAF9122E4F5FFAF922243FB1075FF70
:1042FB000243E640EF600D75FF02E5E120E7FB436B
:10430B00FB0D800343FB0E80FEEF600775FF02433E
:10431B00E6102275FF0253E6EF22E5ED30E2FB7566
:10432B00ED04AFEF22E5ED20E0FB8FEF22EF600411
:10433B0043EC042253ECFB22EF600443EC082253C2
:10434B00ECF722E5ED5402FF22C0E0C0F0C083C0C1
:10435B0082C0D075D000C000C001C002C003C00431
:10436B00C005C006C007C0FF71E6EF602912005EF2
:10437B0012006EE538C394204003753800E53CC34A
:10438B009420500FAE38053874172E71F4EFF005EA
:10439B003C8003753C20714EEF6023120066E53DB7
:1043AB00D394004019E53B94204003753B00AF3B91
:1043BB00053B74372F71ECE0FF120026153DD0FF43
:1043CB00D007D006D005D004D003D002D001D00046
:1043DB00D0D0D082D083D0F0D0E032E5ED5404FFC2
:1043EB0022F582E43405F58322F582E43405F58366
:1043FB0022E53AC394204003E4F53AAF3A053A7408
:10440B00172F71F4E0FFC2ACE53CD39400400215CA
:10441B003CD2AC22902CCFE0120DD7902CD4E09054
:10442B000001120DE9902CD5E0900002020DE97B02
:10443B00017A2C79D27D017F03120AC47A2C79DBA5
:10444B007F081207F07A2C79D87F09B1F67A2C798C
:10445B00D67F0BB1F6902CD6E0FEA3E0FF4E6006A4
:10446B00BEFF16BFFF13B1FD50028004D1068009B9
:10447B00902CD6E4F0A37440F0B1FD50028008906C
:10448B002CD37403F08006902CD37402F0902CD2B2
:10449B00E012125244BB0444C61444CE1544D61742
:1044AB0044EC3044F43444FC36450437000044E11A
:1044BB0075FF015330EF8530FD804775FF01533198
:1044CB00EF800E75FF015331DF800675FF0153310D
:1044DB007F8531C9802C75FF015332DF8532CA804D
:1044EB002175FF015333FE801675FF015333EF80A7
:1044FB000E75FF015333BF800675FF0153337F8564
:10450B0033CB121C697F11B1E8E4FF121DD0121BD3
:10451B008C902CD07402F0902CD4E0247F60090492
:10452B007016B1EE740A80071217BEB1EE7458F014
:10453B00902CD37403F0D106902CD5E0F46002A13B
:10454B00E5902CD8E0FEA3E0FF64104E7006902C93
:10455B00D5740EF0EF64204E7006902CD5740FF0CE
:10456B00EF64404E7006902CD57410F0EF64804EC3
:10457B007006902CD57411F0E4B5070AEEB4010661
:10458B00902CD57412F0E4B5070AEEB40206902C09
:10459B00D57413F0E4B5070AEEB40406902CD57469
:1045AB0014F0E4B5070AEEB40806902CD57415F098
:1045BB00E4B5070AEEB41006902CD57416F0E4B5EA
:1045CB00070AEEB42006902CD57417F0E4B5070A51
:1045DB00EEB44006902CD57418F0021CF7EF442073
:1045EB00F5FE227F10B1E8902CD0227B017D0202D8
:1045FB000AC4902CDBE024FE24FD22902CD67401FF
:10460B00F0A3E4F022F0E0131313541F7E00249F59
:10461B00F9EE342FFEAF01E4FCFD021D1D902BF1D2
:10462B001210F3902BF5121145E4902C1AF0D39045
:10463B002BF9E09420902BF8E094004001227B01B1
:10464B007A2B79FA902BF8F17F902BF11210CB1279
:10465B001D5B902BF512113CE94A600B902C1AE074
:10466B00F582D1A3FF80027F00902C1AE024FAF58B
:10467B0082E4342BF583E06F6002C322902C1AE0A6
:10468B0004FFF0D3902BF9E09F902BF8E0940050AF
:10469B00C12212113C1E8E82758300020D55902E85
:1046AB00A5F11AE58F20E0FBF121E4FF902EA51276
:1046BB00113C8F82D1A3F5930FEFB410EFE4FF9071
:1046CB002EA812113C8F82D1A3F5940FEFB410EFEB
:1046DB0022902DA9F11AE58F20E0FBF1217E10909D
:1046EB002DACD19DF593EE70F67E10902DA9D19D3A
:1046FB00F594EE70F67F01F131F176EF70FB7E10E1
:10470B00902DAF12113C1E8E82F148EE70F22212E8
:10471B00114575FF012275FF01538F0675FF01537C
:10472B008FF075FF0122EFB40107F1674401F58F9C
:10473B002275FF01E58F54F04406F58F2275830037
:10474B00E593020DE9902F9DF11AE4FF902F9D1236
:10475B00113C8F82F1480FEFB410F12275FF01E588
:10476B008F54F622F1674408F58F2275FF01E58F10
:10477B005401FF22E0FFA3E0902D8CCFF0A3EFF0CC
:10478B0022902CD1E0FF22E4902CD1F022E4F5FF13
:10479B00EFF5D8E4F5FF53D60FEE540FC4F854F0F1
:1047AB00C8E4C4540F4842D622E4F5FF8FD422E468
:1047BB00F5FFE5D1540133333354F8FFE4F5FFE54E
:1047CB00D354074FFF22124B59AD94EF4DF1E78FA6
:1047DB00F0120EFFE591C330E701D32224FBFFE576
:1047EB00F034FF22C23F75FF03759B1F75FF0390CB
:1047FB00120FE020E71BE59A540FC394024012E01E
:10480B004480F0E4F5FF75C2A143FC0475FF03D2AD
:10481B003FE5FC30E609E59A540FC3940540CDE51E
:10482B00FC30E611E4120DD775FC80F5FC75FC40ED
:10483B00E5FC20E6FB303F0312277822EF30E00E39
:10484B0043F401E4F5FF43A404F5FF759624EF3020
:10485B00E10E43F401E4F5FF43A408F5FF7596243C
:10486B00EF30E20943F402E4F5FF75961EEF30E3F7
:10487B000943F404E4F5FF75961075FF01EF54033B
:10488B00600475D7122275D72D22CCEFCCCFEDCF8C
:10489B0074017E00C8EFC8088005C333CE33CED871
:1048AB00F9FFCDECCDEF5D601B30411875FF017545
:1048BB00DCAD75FF0175DDCDE4F5FF759A74F5FF81
:1048CB007594842275FF0175DC5375FF0175DD331B
:1048DB00E4F5FF759A14F5FF75940422E4F5FF7562
:1048EB00933F75FF03759A40122FD7E4F5FF759C24
:1048FB0093F5FF75A1A3F5FF758531F5FF75862837
:10490B00E5FA54304480F5FA75FF0175E74A75FFF7
:10491B000275DF4975FF0143D30475FF0153D3675C
:10492B00E4F5FF53E6BF75FF0175D825F5FF75B5A7
:10493B0003F5FF75B215F5FF75BA02F5FF75AFB349
:10494B00F5FF75CD0AF5FF75CB08F5FF75CA12F5A6
:10495B00FF75BF0EF5FF75CC96F5FFF5BDF5FF7531
:10496B00C281F5FF75AEE1F5FF75DA55F5FF75F50B
:10497B0080F5FF75E903F5FF75E933F5FF75972AA8
:10498B0075FF01759B42759CA4759D29759E487595
:10499B009F2475A11275A312759AF820420CF5FF8E
:1049AB0043968090120FE04440F02275FF0175E4AE
:1049BB006575FF0175D6472275FF01E5D530E60217
:1049CB00C32253FACFEFB4080543FA308012EFB489
:1049DB00040543FA208009EFB4020543FA10800066
:1049EB00D322EFB40109D2AD75FF0143AE4022C211
:1049FB00AD75FF0153AEBF22E5C85402FF75C80267
:104A0B0022E5C85401FF22E4FF3020037402FF2289
:104A1B00200005D21502099DC322C2AC121FE7EF7D
:104A2B007004E53D60047F0180027F00D2AC22C29E
:104A3B00ACC37420953DFFD2AC22C2ACE4F53DF57E
:104A4B003CF53BF539F53AF5387B017D01122EF932
:104A5B00D2AC2275FF01E58F5408FF22EFB401079A
:104A6B0075FF0143AE202275FF0153AEDF22EFB479
:104A7B00010775FF014391202275FF015391DF223E
:104A8B00C20A7B007A00794A902E6C1211450B7A80
:104A9B000322902C69E0FEA3E0FFF5828E831211B6
:104AAB004E902C601211458F828E83740593FF7488
:104ABB000693902C6ECFF0A3EFF022E0FFA3E090D3
:104ACB0005C7CFF0A3EFF022FDEF4DFFE5F08FF020
:104ADB00020EFFEEF0A3EFF0A3021145902C77022C
:104AEB00113CEF54F84402FFEE8FF0020EFF12114F
:104AFB003CE924BDF9E43AFA227C0029F9EC3AFAB4
:104B0B00E924FFF9EA34FFFA020D3C24B2F9E43A46
:104B1B00FA2212113CE92405F9E43AFA2212113C6B
:104B2B00EA494B22E92403F9E43AFA22F9E43AFA86
:104B3B00E4020DD7902C9EE0540F640622C3902CF8
:104B4B006DE099FF902C6CE09ACF24FECF2275FF7D
:104B5B0003AF93EF75F010A4FF22A3F0A3F0A3F023
:104B6B0022F9E43AFA740122A3E0F8A3E0C39DFE14
:104B7B00E89C902E1BF022E92408F9E43A22902CB1
:104B8B006CE0FCA3E0FD29FFEC3A22E92406F9E4F2
:104B9B003AFA22D3902C6FE09F902C6EE09E2290DD
:104BAB002C6DE029FF902C6CE03A22F0A3EDF0E4A1
:104BBB00A3F0228D828C8302127CF09029997401D0
:104BCB00F02229F9EC3AFA120D3CFE22E0FFA30287
:104BDB00113C902C69E0FCA3E0FDC3227B017A2EF3
:104BEB0079AE7F0222E0FEA3E0FFE4FCFD22E0FFB2
:104BFB009028BBF07B0122902C53E0FF14F0EF22A6
:104C0B00902C6CE4F0A3740522902D3AE0FEA3E007
:104C1B00FF22EEF0A3EFF07B0122FFAEF05407640E
:104C2B0003222DF582EA3CF583227438F0A374201D
:104C3B00F022E0FEA3E0FF7C00227B017F04020850
:104C4B0085F582E43405F583227401F0AE04AF05DB
:104C5B0022AA06A907021278F582E43EF583E02228
:084C6B0075FF03902C53E022B9
:107F7E000200022B162FD002060A022FD23000006A
:107F8E003304060A0230053807080705060A0238C8
:087F9E000C381A0013FF060A5B
:107FB000FFFFFFFFFFFFFFFF7FC600000000000084
:067FC000000003080000B0
:108000007B01E4FFAE051DEE6009EF120DD712C033
:108010000B80F122902F1A124AE112D39E31464A68
:10802000C36001D34002210112D7235014E0FF9412
:1080300004500280027F04314624BD12A6EC12D700
:108040003E902C771223B25467902C8A314524DF5E
:108050005161902C85314524E65161902C8B31453E
:1080600024E75161902C8C314524E85161902C8D8E
:10807000314524E45161902C83314524E5516190D0
:108080002C84314524E91223B812D715F0124AE79F
:1080900012D025E4902C7A314524DC1223B845F027
:1080A0006056902F1AE06030A312113C12A6F07BAC
:1080B000017A2C797E7F05B1AF12D737C003C00299
:1080C000C001314624DC1223B8F58285F083D0014B
:1080D000D002D003E4FF801D12D737C003C002C016
:1080E00001314624DC1223B8F58285F083D001D01B
:1080F00002D0037F0112127C12174B902C771211C1
:108100004522021C27902E691211457E007F141211
:108110004622902E6C121FF4902E6C129BF9700F59
:1081200004120DD712D78E601B7E007F08800912C3
:10813000D78E60107E007F10902E69123149740432
:10814000F01230C822F0902C7712113CE922902CCA
:1081500077121145E924E351616017E4902C8E31C8
:1081600045123B7F7401120DD77E0A7F8DFD7C0086
:1081700021F8314624015161D394014040120AF1A3
:10818000902C8EEFF07E0A7F8D314624B7516130FE
:10819000E71E314624BB516120E015314624BC5115
:1081A00061FDC4540FFCED540FB504047D07800934
:1081B000314624B1516112D7977C00803BE4902C6A
:1081C0008EF07E0A7F8D314624B7516130E71E3133
:1081D0004624BB516120E015314624BC5161FDC4E9
:1081E000540FFCED540FB504047D0780093146247B
:1081F000B1516112D7977C00020AEC7D01AF423089
:108200000C53ED6017E4FE71DBE0B5070971DBE4A8
:10821000F071CEE4F0220EEEB405EC229027D6E009
:10822000FDE4FCFE71DBE0B5070E71CEE0C394FF08
:10823000502371CEE004F02271CEE0FBEDD39B40E1
:1082400004AD03AC060EEEB405DAEC71DCEFF0EC35
:1082500071CF7401F022C217902CEA12113CE9246C
:1082600002F9E43AFA020D3C31464AC36001D350A8
:10827000743146123B7F74FF120D82120D3CFFD306
:1082800094014007EF94035002804C314624015181
:108290006164017048902C771223B2124C2570371C
:1082A000314624B65161654A702D314624B751617B
:1082B00020E724314624B95161D394405019200D50
:1082C0001631462404F9E43AFA124AED314624B74D
:1082D00051614410120DD7124AE7029625E4902C02
:1082E0007AF0120B0022902F1E121145E94AC3604A
:1082F00001D3400261B5902F1E515B30E00512D7CB
:1083000047214E12D39E12D74712D7235014E0FFB5
:108310009404500280027F0471B724BD12A6EC12AF
:10832000D73E902F1E1223B25467902C8A71B62428
:10833000DF5161902C8571B624E65161902C8B71D0
:10834000B624E75161902C8C71B624E85161902CD1
:108350008D71B624E45161902C8371B624E551618E
:10836000902C8471B624E91223B812D71571B62463
:10837000E35161902F217003F080037401F071B715
:1083800024DC1223B845F06026902F21E0FF12D79D
:1083900037C003C002C00171B724DC1223B8FDACA2
:1083A000F0F58285F083D001D002D00312127C1246
:1083B000D74712D02522F0902F1E12113CE922AE91
:1083C000058E4DB149AD4D129A71EF24FF22EE2575
:1083D000E024D6F582E43427F58322EE25E024D587
:1083E000F582E43427F58322FF7B01E4902E3DF0F3
:1083F000902E39124AE1902E3DE05407902E3FF026
:10840000902E3912D6C0A3123149741DF01230C813
:10841000902E3FE0FD6046902E39E0FF129E954081
:108420000991C17D1D12B8328033902E3E7401F047
:10843000902E3EE0FFD394E85023A3E0FD129E95DA
:10844000401391C1902E3E129A6B600991C1902EFB
:108450003EE0FD91C7902E3EE004F080D3902E3D8B
:10846000E030E72A902E39E0FF90299CE0B507091B
:1084700091C190299DE0FD91C7902E39E0FF902990
:108480009DE0B5070991C190299CE0FD91C7902E10
:108490003DE030E62BE4A3F091C1902E3EE0FF29B1
:1084A0005161FE74BC2FF582E43429F583E0F45E5B
:1084B000120DD7902E3EE004F0E0B41DDB121E300A
:1084C00022902E3A02113C12D673516112BFE48001
:1084D00002C333D8FCF45F020DD7902F88121145E8
:1084E00012D79F24B7516130E712540FFFBF010C20
:1084F00012D79F24BC5161C4540FFF227F002290E9
:108500002F76121145902F76129BF9FF6422600599
:10851000EF64237032300519E924015161B148122A
:10852000D64C600DD213902F7612D5E4516112C54E
:10853000B2902F7612D5E45161FF7D0212A00B128A
:10854000ADFFE490283CF022FF7B017A2979DDE43D
:10855000902E3DF071F07B017A2979DD22902FD4A5
:10856000EFF0D39400403FE0D394E85039902912C3
:10857000E0B404037F00227E007F38B156902E685D
:10858000741DF01230C8B156902FD4129A6B60034C
:108590007F0022902FD4E0FFB156902E3D7440B161
:1085A000537D1D02BFEF7FFE227A2779CF7F059092
:1085B0002E2C121145AE071FEE6027902E2F129B16
:1085C000F9FE902E2C12113CEE120DD7902E2DE4B8
:1085D00075F001120EA8902E30E475F001120EA86D
:1085E00080D322902CEA121145902CEDEDF074010D
:1085F000C39D40030294C6902CEE129BF9902CF17F
:10860000F0E924015161902CF3F0902CEE515B9035
:108610002CF2F012400F40FB121E30902CEA129BFD
:10862000F9FFC394204031EFD394FF502B902CEDF1
:10863000E0FD949F5022902CF1E030E7030294C6B5
:10864000515E902CA1F0902CEE12113C902E521203
:10865000114512964A020C31902CEA129BF96401E2
:1086600060030294C6902CF1E030E6030294C6E960
:10867000240151611212528804018CA7028CB803A4
:108680008E1B048EC5058B19068A4F078D3E088DFB
:108690005B098DB20A8DC30B8F2C0D90C80E8E0E08
:1086A0000F92DA10916311925D1291CB13933B15E7
:1086B00086C3169461198DCF1A876D1F87DE20003F
:1086C0000094C6E541654A7068129968EF7003022C
:1086D00094C690289F740BF051587A2879F571E868
:1086E000D2055158FF12ABAE5158FF90291312CF4B
:1086F000131296B39029177405F090289D7409F011
:10870000A374C0F090283C7402F05158FF902CF3F1
:10871000E0B5070CAD4A12B79B12174BE4FF804A35
:108720005158FF902CF3E0FD12B79B12D043023753
:10873000F79028B0E020E0030294C6E54170030200
:1087400094C6515890291312A96F741612D60CF0C2
:1087500012A44612A95BA37409F0A374CF12A48DCE
:1087600060030294C6FBFAF97F0202AED812A97028
:108770007420F0515870579028BAF0A304F0129466
:10878000C75161FF33333354F8902CF4F012964AFA
:10879000E92404F9E43AFA902CF4129A6B702590CB
:1087A0002CF412956B601D902CF4E0FF12174B1205
:1087B000B97E902CF4E0FD12174BE4902EA4F07FCC
:1087C00020120C3B902CF4E014F070C18005E49072
:1087D00028BBF012A44612C902A3040294B8902840
:1087E0009FE070030294C612D6031294C75161B47D
:1087F000010B12C74E12C6E5AD3E12175B7D02AFEC
:108800004202945E902CEDE0C39406E49400500381
:108810000294C69028E9E0FF602090283CE0B40371
:1088200014902CF1E030E7030294C6902CF3E0FEA4
:10883000EF6E600622E49028E9F01282585407C3D4
:108840009403500912964AE92404124B3712D5FAC0
:108850007018301E151294C71282615406FFBF02B1
:108860000912D785C21CC21E21A1300E0221EF9031
:108870002912E0600221EF12D77C12964A12CE3301
:10888000902CF3E0FD902914F0902CF1E090291841
:10889000F054024411902917F090283CE0640370D2
:1088A0002F20120A902841E030E1030294C62008EC
:1088B0000A902841E020E1030294C6E4902913F0D5
:1088C000902841E07F0030E102AF05902CA2806645
:1088D00012D6E96007EF6402600221D6902CF3E023
:1088E000FF700221A9300B0A902841E020E1030229
:1088F00094C6902CF1E020E76390283CE0B4020499
:10890000C212803512D757502312D5FA702B9028F7
:1089100041E030E124201E05EF64EF701C301E049E
:108920007FEF800312CBB1902913800A902CF3E0E3
:10893000B4EF0612CBFEEF806212D773FD12A4676C
:10894000FB12ADB46010902912740212174AE4FFB2
:1089500012A082D21A22E4902912F02212D5FA60D3
:10896000030294C6902841E020E1030294C6301E21
:108970000D12D7575008902CF474EFF08013902903
:1089800013E0700512CC048008902913E0902CF4B9
:10899000F0902CF4E0FF6006902913F0803012D79D
:1089A0008512174B7F01020B4B902841E030E10309
:1089B0000294C6902913E0FF6009129538EF600811
:1089C000200B0512CBFEEFF0902913E0600302ADFF
:1089D00057E4FBFD81A3902CF1E030E7030294C63D
:1089E000902CF312A45F902EA4F07F84020C3B9095
:1089F0002912E0640D60030294C6902CF3E0FF900E
:108A000027D4E06F60030294C612D77C12964A12F4
:108A1000CE339029177421F012D7731238B912B9D6
:108A200026E4902869F0D2139027D4E0FF9029150E
:108A3000E024F8FB7D0112C5B712CF8960030294D0
:108A4000C612A45C12D636E4902912F002A6F69063
:108A50002912E0FF64036004EFB4080302AAC19086
:108A60002C9EE0FF30E532128258FE902CA1E06E81
:108A700060030294C6300E0F902CF3E0FE90291391
:108A8000E06E60030294C6EF54DF902C9EF030E756
:108A9000030294C6E4FF020B5FE541654A600302EE
:108AA00094C6902CF3E0654260030294C630010343
:108AB0000294C690289FE0FF64076005EF640A7087
:108AC000241282586402701DD201FE74672542127E
:108AD000C6E5124622EF543F04FD12C74E12C6E50A
:108AE00012175B802212D7B76008EF640960030297
:108AF00094C6128258FF6401600DEF64036008EFB2
:108B0000640560030294C612D7B76008EF6407607B
:108B1000030294C6C24B029316902912E0FF64042C
:108B20006008EF640960030294C612AB1512825804
:108B3000FD2403F53F902CEDE0C3953F500281A04A
:108B4000300E0F1294C7F9E43AFA12BFEFEF600249
:108B5000C214902912E0B4090C129645AC02AD0182
:108B600012C0C88013902CF3129ED930E70A1296D7
:108B700045AC02AD0112C045E4F53F128258FFE555
:108B80003FC39F502A7422253FF582E43429F583A0
:108B9000C083C082E0FF1294C7F9E43AFAE53F7C53
:108BA00000124BCDEF4ED082D083F0053F80CC1227
:108BB0008258FF90299AE0FEEFD39E4002EFF0E446
:108BC000FF12CF8FEF600122300E03201437902C5C
:108BD000F3E0FD7B017A2979227F1D12C2AD8F3F20
:108BE000EF7022902CF312AB8D600B300C08902CA0
:108BF000F3E0FF12A40C7F22300E027F2312D72F46
:108C000012AC2DC20EE4902912F012D76A300C2853
:108C1000E541654A6022E541601E902CF3E0902812
:108C2000BAF090299A124BF97A29792212A6F07A91
:108C30002879BC1285AF8024300519C205902CF329
:108C4000E012854812D64C6013D213902CF3E01238
:108C5000C5B28008902CF3E0FF12C6A6300E083093
:108C6000140512D72F803C902CF3E0FF12C2BB906A
:108C700029127410F0E541601F902CF3E0FF12966A
:108C800074BF0414902CF3E0FF7C0A7D0112C84FDE
:108C900050030294C602AAB912174BE4FF02A08245
:108CA00012D72F7F23C10B902CF3E0FF12D70E4475
:108CB00005FDE4FBFA02CDE2902CEDE0C394074001
:108CC00003D38001C340030294C6902C9EE020E4AD
:108CD000030294C62006030294C6E4F541C21712AB
:108CE00094D1300A15C20A7B007A00794A902E6C22
:108CF0001211457A0079001281051282587007FB23
:108D0000FAF9AF4A800512174B7F0112B97EC206ED
:108D1000D24A129F96D222128258F54A1294C71252
:108D2000A6EC7A0379B9124C451295C4E54A600362
:108D30000294C612AF5212CE2C7F0102B97E902C43
:108D40009EE020E4030294C62006030294C6902C01
:108D5000F1E0FF902CF3E0FD020B78C2061294C7FD
:108D6000128261FFE4FD12BE0212964AE924051246
:108D7000826130E12C1294C7128261FF902CF3E0E3
:108D8000FEB50708EE12C6E1AD3E80121294C7127E
:108D9000826112C6E1E5417DFFB54A02AD3E121780
:108DA0005B124B3F60030294C6902CED1296480272
:108DB0000B7D124B3F60030294C6902CED12964837
:108DC000020B82902CF3E0FF128258FD029C9A1253
:108DD000D5F26008EF641460030294C612825854FE
:108DE0000F60231294C7128261902913F0FD7E2632
:108DF0007F8D12175B902912E0641460030294C601
:108E0000F07F0102ACF6E4FBFD7F2402AC2D902C38
:108E10009EE020E4030294C6D21E22902CF3E0FFD1
:108E2000129571EF70030294C6300E030294C612BD
