:020000040000FA
:1000000002180002180308C608CB0002180B0A9257
:0A0010000A9C2202181306144D2961
:06001B0002181B7F012208
:07002300021823121A372214
:06002B0002182B021BE18C
:0E003300021833A23A92202202183B022876CD
:060043000218430236F929
:06004B0002184B02327A9C
:060053000218530242DB1B
:07005B0002185B75ED0422A1
:0700630002186375ED022293
:06006B0002186BAFEF224A
:1000730002187341073500C12041073400E0020232
:1000830000003820E0020200022FD0E00402000446
:1000930046524545E00102001554E001020016A551
:1000A300E0E8022568FEFEFEFEFEFEFEFEFEFEFE0C
:1000B300FEFEFEFEFEFEFEFEFEFEFEFEFEFEFEFE5D
:1000C300FEFEFEFEFEFEFEFEFEFEFEFEFEFEFEFE4D
:1000D300FEFEFEFEFEFEFEFEFEFEFEFEFEFEFEFE3D
:1000E300FEFEFEFEFEFEFEFEFEFEFEFEFEFEFEFE2D
:1000F300FEFEFEFEFEFEFEFEFEFEFEFEFEFEFEFE1D
:10010300FEFEFEFEFEFEFEFEFEFEFEFEFEFEFEFE0C
:10011300FEFEFEFEFEFEFEFEFEFEFEFEFEFEFEFEFC
:10012300FEFEFEFEFEFEFEFEFEFEFEFEFEFEFEFEEC
:10013300FEFEFEFEFEFEFEFEFEFEFEFEFEFEFEFEDC
:10014300FEFEFEFEFEFEFEFEFEFEFEFEFEFEFEFECC
:10015300FEFEFEFEFEFEFEFEFEFEFEFEFEFEFEFEBC
:10016300FEFEFEFEFEFEFEFEFEFEFEFEFEFEFEFEAC
:10017300FEFEFEFEFEFEFEFEFEFEFEFEFEFEFEFE9C
:10018300FEFEFEFEFEFEFEFEFEFEFEFEFEE00102A3
:100193002650FFE00102268B28E001022F9EFFE09C
:1001A30001022FCC00E005022FCD2FD002060A4119
:1001B30003E2060114004103E1014103DF01C1270A
:1001C300011900011700412BAB004128A60041286B
:1001D30047055D2AD2000000000000000000000077
:1001E300000000000000000000000000000000000C
:1001F3000000C12D41275000C111412F1A00C153E6
:10020300432B23000000412B2200412B2600412CCD
:10021300B8FFC123C125C130412B4A00014B00C1A6
:100223001EC11C412B3C00412B4900602826490676
:100233000A000000030008FE877F88CF7FC04FFBC2
:10024300DFFD8067000080008096000100E87F00EA
:10025300000E00000000004121810041218B00417C
:1002630021850041217C0141218A0241217F0141F5
:1002730023C90041241B0041215CFFC1B74124195C
:10028300004123CA00C138C1394128B7964128B378
:100293000FE002022FD20033E005023000003304E6
:1002A300060AE0020230050807E0050238070807DE
:1002B30005060AE00202380C0013E00C02380E00B7
:1002C30000030800030008060A060AE00502381ABC
:1002D3000013FF060AE00202381F00000075818840
:1002E30075FF03759E02120820021C1E0203FD9077
:1002F3000076E47E019360F4A3FF543F30E5095494
:100303001FFEE493A360010ECF54E0B4E00EEFFAB6
:10031300EEF9A3A3A3A3DAFDD9FB80D654C025E04D
:10032300604B5026E493A3F85407240CC8C333C48A
:10033300540F4420C8834004F456800146F6DFE49A
:1003430080B00102040810204080E493A3FAE493F0
:10035300A3F8E493A3C8C582C8CAC583CAF0A3C8D7
:10036300C582C8CAC583CADFE9DEE78085E493A3F3
:10037300F8E493A34003F68001F208DFF40202F5E8
:10038300C2D5E830E70FB2D5E4C39BFBE49AFAE4A5
:1003930099F9E498F8EC30E717B2D51203B91210C3
:1003A30015E4C39BFBE49AFAE499F9E498F8800313
:1003B30012101530D50DE4C39FFFE49EFEE49DFDAE
:1003C300E49CFC227888E4F6D8FD9000007F007E50
:1003D30010E4F0A3DFFCDEFA902F2AA3E583C39495
:1003E300204011FEAF829020000E0FE48002F0A3A4
:1003F300DFFCDEFA1208200202F22232EF90040838
:1004030093900800730A20364CE54CFF22EFF54C1D
:100413002209020907090C09110916091B092009F8
:1004230025092A092F0934094309480952095C0996
:10043300AC09B109B609BB09C009C509CA09CF0985
:10044300DE09E309F709FC0A010A100A150A4C0A36
:10045300510A5609040000020A000000070582023F
:100463002000000705020220000009040100010228
:1004730002010005240010010524010001042402E7
:10048300000524060001070581030800201201006E
:1004930002020000085806000200000000000109E3
:1004A300020000000100803204030409A280CACFC5
:1004B3000998445CAD550641469503860AD300006E
:1004C3000000000500000600000010000024288042
:1004D30000002420800000113821000044288000FF
:1004E30000442080000034382100005A2D576176E3
:0D04F3006520362E313000E5C85404FF228C
:100508003F241E16110E0B09070504030201F0C84B
:10051800A7917767604638353230242220140001CD
:10052800010202030304040505060607070BE10B95
:10053800E60BEB0BF00BF50BFA0BFF0C040C090C9C
:100548000E0C130C180C1D0C220C270C2C0C310C47
:10055800360C3B0C400C45000E08F8000E0F380016
:10056800000000020C00003F3F3F040404404040EC
:10057800000000000B6E0B730B780B7D0B820B8752
:100588000B910B9B0BA00BB90BBE822D1C161311E4
:1005980010100B0A0B320B370B3C00030102060448
:1005A80005E4FD7C0CAB050DEB9004EE938F828E79
:1005B80083F00FBF00010EDCEC011E8F828E83E4F6
:1005C800F07406B1E5740AB1E5A3A3E4F0EF2404DE
:1005D800F582E43EF583E4F0A3746DF022A3F08F76
:1005E800828E83A322902EFEEFF0902BADE0B40113
:1005F80010C2ED7A2E79FE902C4AD10A120AFBD24B
:10060800ED227B011211967A2B79AE22902BADE068
:10061800640170287B017A2B79AE120B05EF701CF0
:10062800902EFFF0C2ED7A2E79FF902C2BD10A1272
:100638000B00D2ED902EFFE0FF120ACE22902BADD8
:100648007401F0FBD1687E067F1490073DE0FCA39F
:10065800E04C700A90073DEEF0A3EFF0D322C322DE
:100668007A2B79B6902CD4121196902CD77401F06D
:10067800A37405F07A2B79AE020AF67F01D1939024
:100688002BADE0B401047B01D16822EF600E121E8D
:1006980052AF82AE83E4FD123B9A80103020037F74
:1006A8000022120ABF121F4BE433FF227F0122905F
:1006B8000484121196900487EDF0E4A3F0ED54FE43
:1006C800900487F0602AE4FFD193BF01239004844B
:1006D80012118D122BF25018900485F102900488A3
:1006E800E02402F0900488E0FF900487E06F70DD5A
:1006F8007F01D193900488E0FF22E475F002020E96
:10070800F97D02D1B7EFC36001D322E51530E20EBF
:10071800E51520E509E51530E0047F01D193229025
:100728002DC01211441216791214BDEF6004F11392
:1007380080F61216C81215EB6008902DC0121338F7
:10074800F16A902DC0F1F0F16A902DC0F166121493
:10075800B0902DC4EFF0F1C0902DC4E0FF2212112B
:100768001CE4E5C820E2FB8FEB22902DC512114452
:10077800902DC512111CF127902DC9E06F6035121C
:1007880016791214BDEF6004F11380F61215D460C7
:1007980008902DC5121338F16A902DC5F1F0F16A51
:1007A800902DC5F166902DC9E0FFF1BE902BA27483
:1007B80001F0D322C322F16A1213A5E4FFEFB401BA
:1007C8000443FE202253FEDF22902B9EE020E017F8
:1007D8007F01F1C51214FE7F3DF16A7F2AF16A7F1D
:1007E80080F16A7FA6F1BE2212111C78081210DC73
:0507F800E4228FEF2256
:10080000C04C7408C0E0C082C083754C0AE5FF5438
:10081000CF4490F5FF22C04C7408C0E0C082C08372
:10082000754C20E5FF54CF4490F5FF22C04C74086E
:10083000C0E0C082C083754C36E5FF54CF44A0F5BC
:10084000FF22C04C7408C0E0C082C083754C4CE5E8
:10085000FF54CF44B0F5FF22908004011690810030
:1008600001169081030116909D0C011690A7F801C6
:100870001690A7FB011690A802011690B00201166F
:1008800090B00501169085B6011690A95A011690F0
:10089000A82D011690AE98011690A4B10116909C57
:1008A000DD011690AB0C011690B6C2011690B7F19F
:1008B000011690AB2A011690BFF1011690A709010D
:1008C0001690A9EC011690C7DC01169083C301169F
:1008D00090C49A011690B81D011690B42301169089
:1008E000C822011690B223011690BFD4011690C8F9
:1008F000A9011690C8AC011690C91C011690C9D167
:10090000011690958F011690CCF00116909E69010A
:100910001690CCFE011690CEE4011690CEAC0116D6
:1009200090CF38011690CF89011690D1060116900C
:10093000D110011690CC610116909A25011690995C
:1009400085011690D215011690D25A011690B870F2
:10095000011690C0AA011690C216011690C0D901C6
:100960001690BB75011690BF92011690D2DD01164C
:1009700090A894011690CC46011690CAF6011690E4
:10098000C4570116908412011690D0D5011690D04C
:10099000C8011690D062011690D01E011690D0EAC0
:1009A000011690BD1F011690BC9C0116909D2F0151
:1009B0001690C381011690C5DA011690D312011664
:1009C00090A9880116909E71011690D3210116906E
:1009D0009E86011690D33501169085E201169095FA
:1009E0001C011690A2EA011690959E011690D40C57
:1009F000011690CC96011690D411011690D41E01C8
:100A0000169095F8011690B9EA01169081FD01162D
:100A100090A85D011690BBB3011690CB1301169000
:100A2000C9EC011690CB27011690D137011690D44E
:100A3000510116909EB4011690D454011690D49C86
:100A4000011690D49F0116909583011690C556010A
:100A50001690C427011690C59E011690A7DF0116B7
:100A600090A5DC011690A255011690CBE1011690DD
:100A7000CB58011690D527011690D558011690D560
:100A80006C011690D58A011690D625011690D5DEF8
:100A9000011690D64C011690801401169082E40144
:100AA0001690BD48011690BEC1011690BD66011694
:100AB00090D65B0116909EB001169095D5011690C8
:100AC000BF32011690AF11014290A478014290B05C
:100AD00072014290B1AA014290B2E4014290AE107C
:100AE000014290B35C014290B3C2014290B407014D
:100AF0004290B41C014290B422014290A9430142A9
:100B000090A9EB014290B470014290B5A0014290CF
:100B1000B5A1014290912F0142909004014290AB07
:100B2000350142909D120142909FD0014290998AD6
:100B3000014290B6CB014290B6E30142908DBB01D9
:100B40004290B79C014290B7AE014290B7E8014293
:100B500090B8FE0142908000014290B9A0014290FD
:100B6000B9AD014290A1F0014290B9B7014290A401
:100B70006B014290BADE014290A3EC014290BC921C
:100B8000014290BCC0014290A061014290BAF801BC
:100B90004290B8C1014290A362014290BD17014248
:100BA00090BE65014290B84B014290B9CA01429093
:100BB000BB14014290BEC7014290BF22014290A1E6
:100BC000F6014290A0EF014290BA95014290BE1EFC
:100BD000014290BF15014290B3AF014290AB7F013B
:100BE00042909936012C909940012C909AF2012C58
:100BF000909C23012C909C48012C909DFA012C90F4
:100C00009E0D012C909442012C909E37012C909CBB
:100C1000DC012C909D39012C909E41012C909D96D9
:100C2000012C909E4B012C909E55012C909C810193
:100C30002C909E5F012C909E69012C909A74012C3F
:100C4000909BC6012C909AFE012C90811C012C9047
:100C50009EF9012C909EFA012C9091E9012C90951F
:100C600045012C9080D7012C908000012C909F365C
:100C7000012C00E709F608DFFA8046E709F208DFF1
:100C8000FA803E88828C83E709F0A3DFFA8032E3A2
:100C900009F608DFFA8078E309F208DFFA80708845
:100CA000828C83E309F0A3DFFA806489828A83E07F
:100CB000A3F608DFFA805889828A83E0A3F208DF6E
:100CC000FA804C80D280FA80C680D4806980F2801D
:100CD00033801080A680EA809A80A880DA80E28043
:100CE000CA803389828A83ECFAE493A3C8C582C898
:100CF000CCC583CCF0A3C8C582C8CCC583CCDFE902
:100D0000DEE7800D89828A83E493A3F608DFF9EC9D
:100D1000FAA9F0EDFB2289828A83ECFAE0A3C8C528
:100D200082C8CCC583CCF0A3C8C582C8CCC583CC4F
:100D3000DFEADEE880DB89828A83E493A3F208DFBE
:100D4000F980CC88F0EF60010E4E60C388F0ED248E
:100D500002B4040050B9F582EB2402B4040050AF91
:100D60002323458223900CC373BB010689828A83A7
:100D7000E0225002E722BBFE02E32289828A83E45A
:100D80009322BB010B89828A83F8E0C828F0E8220D
:100D9000500327C722BBFE07F8E3C828F3E8228ADE
:100DA000838982E49322BB010CE58229F582E583E5
:100DB0003AF583E0225006E92582F8E622BBFE06DA
:100DC000E92582F8E222E58229F582E5833AF58376
:100DD000E49322BB010989828A83F8E028F022503B
:100DE0000327F722BBFE05F8E328F3228A838982D2
:100DF000F8E4932822BB010FF8E58229F582E58308
:100E00003AF583E028F0225009C58229F8E58226C8
:100E1000F622BBFE09C58229F8E22582F222F8EA11
:100E20002583F583E9932822BB010689828A83F012
:100E3000225002F722BBFE01F322F8BB010DE5822E
:100E400029F582E5833AF583E8F0225006E9258208
:100E5000C8F622BBFE05E92582C8F222EF8DF0A478
:100E6000A8F0CF8CF0A428CE8DF0A42EFE22BC00DA
:100E70000BBE0029EF8DF084FFADF022E4CCF875B5
:100E8000F008EF2FFFEE33FEEC33FCEE9DEC9840C4
:100E900005FCEE9DFE0FD5F0E9E4CEFD22EDF8F560
:100EA000F0EE8420D21CFEADF075F008EF2FFFEDC0
:100EB00033FD4007985006D5F0F222C398FD0FD5B8
:100EC000F0EA22C2D5EC30E709B2D5E4C39DFDE4D7
:100ED0009CFCEE30E715B2D5E4C39FFFE49EFE1202
:100EE0000E6EC3E49DFDE49CFC8003120E6E30D5B3
:100EF00007C3E49FFFE49EFE22C5F0F8A3E028F0BC
:100F0000C5F0F8E582158270021583E038F022A35F
:100F1000F8E0C5F025F0F0E582158270021583E057
:100F2000C838F0E822BB010A89828A83E0F5F0A381
:100F3000E022500687F009E71922BBFE07E3F5F02F
:100F400009E3192289828A83E493F5F074019322DC
:100F5000BB010A89828A83F0E5F0A3F0225006F7EC
:100F600009A7F01922BBFE06F3E5F009F31922EFF9
:100F70002BFFEE3AFEED39FDEC38FC22C3EF9BFF70
:100F8000EE9AFEED99FDEC98FC22E88FF0A4CC8B54
:100F9000F0A42CFCE98EF0A42CFC8AF0EDA42CFC2F
:100FA000EA8EF0A4CDA8F08BF0A42DCC3825F0FD6E
:100FB000E98FF0A42CCD35F0FCEB8EF0A4FEA9F067
:100FC000EB8FF0A4CFC5F02ECD39FEE43CFCEAA4B3
:100FD0002DCE35F0FDE43CFC2275F008758200EF63
:100FE0002FFFEE33FECD33CDCC33CCC58233C5825B
:100FF0009BED9AEC99E58298400CF582EE9BFEED14
:101000009AFDEC99FC0FD5F0D6E4CEFBE4CDFAE4E2
:10101000CCF9A88222B800C1B90059BA002DEC8BD6
:10102000F084CFCECDFCE5F0CBF97818EF2FFFEEB2
:1010300033FEED33FDEC33FCEB33FB10D70399406B
:1010400004EB99FB0FD8E5E4F9FA227818EF2FFFAB
:10105000EE33FEED33FDEC33FCC933C910D7059BED
:10106000E99A4007EC9BFCE99AF90FD8E0E4C9FA49
:10107000E4CCFB2275F010EF2FFFEE33FEED33FDD5
:10108000CC33CCC833C810D7079BEC9AE899400AF8
:10109000ED9BFDEC9AFCE899F80FD5F0DAE4CDFB76
:1010A000E4CCFAE4C8F922C3E49FFFE49EFEE49D89
:1010B000FDE49CFC22EB9FF5F0EA9E42F0E99D42A4
:1010C000F0EC6480C864809845F022EB9FF5F0EA6C
:1010D0009E42F0E99D42F0E89C45F022E8600FEC6A
:1010E000C313FCED13FDEE13FEEF13FFD8F122E85E
:1010F000600FEFC333FFEE33FEED33FDEC33FCD86E
:10110000F122BB010789828A830211445005E9F864
:101110000212FCBBFE05E9F802130822E0FCA3E082
:10112000FDA3E0FEA3E0FF22E493FC740193FD74B1
:101130000293FE740393FF22E0F8A3E0F9A3E0FA20
:10114000A3E0FB22ECF0A3EDF0A3EEF0A3EFF0227E
:10115000A8828583F0D083D08212116712116712A2
:101160001167121167E473E493A3C583C5F0C583C7
:10117000C8C582C8F0A3C583C5F0C583C8C582C8E9
:1011800022A42582F582E5F03583F58322E0FBA3D6
:10119000E0FAA3E0F922EBF0A3EAF0A3E9F022E4FD
:1011A00093FB740193FA740293F922BB01078982BD
:1011B0008A8302118D5005E9F8021314BBFE05E97C
:1011C000F802132689828A8302119FBB011A898241
:1011D0008A83D0F0D0E0F8D0E0F9D0E0FAD0E0FB9C
:1011E000E8C0E0C0F00211965016E9F8D083D08232
:1011F000D0E0F9D0E0FAD0E0FBC082C08302131D3A
:10120000BBFE16E9F8D083D082D0E0F9D0E0FAD066
:10121000E0FBC082C08302132F22BB010DE58229AF
:10122000F582E5833AF58302118D5007E92582F8AE
:10123000021314BBFE07E92582F8021326E5822972
:10124000F582E5833AF58302119FBB0120E58229EF
:10125000F582E5833AF583D0F0D0E0F8D0E0F9D01C
:10126000E0FAD0E0FBE8C0E0C0F00211965018E9C7
:101270002582F8D083D082D0E0F9D0E0FAD0E0FB2C
:10128000C082C08302131DBBFE18E92582F8D083FB
:10129000D082D0E0F9D0E0FAD0E0FBC082C0830277
:1012A000132F22D083D082F8E493701274019370CC
:1012B0000DA3A393F8740193F5828883E4737402F9
:1012C000936860EFA3A3A380DF8A838982E473EC31
:1012D0008EF0A4CCC5F0CCCDF8EFA4CEC5F02DFD9A
:1012E000E43CFCE8A42EC8C5F03DFDE43CFCEFA4C2
:1012F000FFE5F028FEE43DFDE43CFC22ECF608EDC1
:10130000F608EEF608EFF622ECF208EDF208EEF23F
:1013100008EFF222E6FB08E6FA08E6F922EBF60807
:10132000EAF608E9F622E2FB08E2FA08E2F922EB23
:10133000F208EAF208E9F222311C781011DCE4220A
:10134000902C5B3144902C5F3196D17991BDEF6048
:101350000512071380F6B1D46008902C5B71381227
:10136000076A902C5B1207F012076A902C5B311C05
:10137000E48020902C62D1BE601E902C5F318DE9FC
:101380004A600E120D69FF12076A902C60B1F58059
:10139000E2E4FF12076A80DB1207C0902BA27401FF
:1013A000F02212076A1204FAEF70FA902BA5E0F40B
:1013B000600A902F017406F0D17170FC902BA3E0AD
:1013C00051A313DE0413E61413EB1513F0171400E6
:1013D00030140534140A36140F37000013F8433460
:1013E00010853480802F43351080084335208003DA
:1013F000433580853590801D4336208536A0801585
:10140000433701800D433710800843374080034342
:1014100037808537B0902F01740CF0D17170FC22A9
:101420007F011207C5902F027401F0902F02E06037
:101430002ED16291B0902F02EFF071A5919D902B6B
:101440009FEFF071A5902F02E05401D1B660DCA3AC
:10145000E0F460D7EF30E7D3E4902F02F080CC9136
:10146000FE7F9F12076A91B0902BA091AE902BA5A2
:1014700091AE902BA6EFF01207C0902B9EE0F46087
:101480001BA3E0F46016902BA5E0FD541F240FA3CE
:10149000F0EDC41354074480902BA5F02291FE7FF9
:1014A000D712076A7FFF12076A91B5902B9EEFF063
:1014B0007FFF12076AE5C820E2FBAFEB227F011233
:1014C00007C5304014D16291B0902F03EFF071A5A1
:1014D000902F03E020E002C240304017919D902BF6
:1014E0009FEFD1B6600BA3E0F46006EF30E702C2D5
:1014F0004071A5E4FF1207C5A240E433FF22902B00
:10150000A3E051A3152004152814152D1515321725
:10151000154230154734154C361551370000153A31
:101520005334EF853480802F5335EF80085335DFF7
:10153000800353357F853590801D5336DF8536A077
:1015400080155337FE800D5337EF80085337BF8027
:101550000353377F8537B07F0CDFFE22D17991BDF1
:10156000EF600512071380F67F011207C5D2409184
:10157000FE7F0671A291FE7F0112076A7F0371A2AE
:10158000E4FF0207C5902C643144902C683196D159
:101590007991BDEF600512071380F6D1C8B1EB60F9
:1015A00008902C64713812076A902C641207F012AC
:1015B000076A902C64120766902C6BD1BE600E9166
:1015C000B0902C68F1F1902C69B1F580EB71A5E435
:1015D000FF0207C57F011207C5D24091FE7F0612A8
:1015E000076A71A591FE902BA1E0FF12076A902B6C
:1015F000A4E0640222E475F001020EF9902ECAEF15
:10160000F0E4A3F0902BACE0FFB40209740FD169B1
:1016100074B9F0800CEF64047047743DD16974793B
:10162000F07F011207C591FE902ECAE06007902B53
:10163000ABE0FF80027FAB12076A71A5902ECAE073
:10164000902BABF07016902ECBE0D39400400D7F22
:10165000FF12076A902ECBE014F080EAE4FF120735
:10166000C52291FE7F0502076A902ECBF0902BAB2E
:1016700022902F01E014F0E02275FF02E5E430E152
:101680000675E40675E40322AE02AF017B017A2AF7
:1016900079CD902D727405F0902D6F3196E4FCFD9C
:1016A000C007902D6F125029E0FF902C6BE4F0A33F
:1016B000EFF0D007A185F0902B9EE0FFF42274FF9D
:1016C000F5F0120F0F45F0227F011207C591FE7F42
:1016D0000322D17991BDEF600512071380F62290A5
:1016E0002A9D3144902AA13196E4902AC6F0D390E5
:1016F0002AA5E09420902AA4E094004001227B01D6
:101700007A2A79A6902AA4124FD1902A9D311CB131
:1017100085902AA1318DE94A600B902AC6E0F582B6
:10172000F155FF80027F00902AC6E024A6F582E4EE
:10173000342AF583E06F6002C322902AC6E004FFDA
:10174000F0D3902AA5E09F902AA4E0940050C222F2
:10175000318D1E8E82758300020DA6902DB5F1D1BC
:10176000E58F20E0FBF1D7E4FF902DB5318D8F821E
:10177000F155F5930FEFB410F0E4FF902DB8318DD3
:101780008F82F155F5940FEFB410F022902C88F170
:10179000D1E58F20E0FBF1D77E10902C8BF150F536
:1017A00093EE70F67E10902C88F150F594EE70F662
:1017B0007F01124E3D124E7EEF70FA7E10902C8EFD
:1017C000318D1E8E82758300E593120E3AEE70ED18
:1017D00022319675FF012275FF01538F0675FF01B7
:1017E000538FF075FF0122902D6BE0FEA3E0FF4EBA
:0A17F00022318DEF020E280208C11D
:101800000202E0E4FF0207C57FB875FF028FD675BC
:10181000FF02AF058FD77F01EFC36001D392ED22A6
:091820008F828E837F010212CD3C
:10182B000228DBE475FF02AFD4CDEFCD75FF02AF1D
:10183B00D5EFFCEDCEECCEFF22E0FFE544C39F22BB
:10184B000238E18F828E83E4FF0212CD75C801222C
:10185B008000C0E0C0F0C083C082C0D075D000C093
:10186B0000C001C002C003C004C005C006C0079081
:10187B002F00E5FFF075FF02E5D430E60D75D4407F
:10188B00902D671217EA6002112075FF02E5D43024
:10189B00E50D75D420902D691217EA6002112075A1
:1018AB00FF02E5D430E40A75D4101217E760027119
:1018BB00BA75FF02E5D430E30D75D408902D67128D
:1018CB0017EA6002114E75FF02E5D430E20D75D4B4
:1018DB0004902D691217EA6002114E75FF02E5D4D0
:1018EB0030E11575D40271C3EF600D1217E7600478
:1018FB0071B180047118710575FF02E5D430E011E8
:10190B0075D4011217E760098F828E837F0712123D
:10191B00CD75FF02E5D530E41175D5101217E760D0
:10192B00098F828E837F031212CD75FF02E5D530AE
:10193B00E10A75D5021217E7600271A875FF02E57F
:10194B00D530E01175D5011217E760098F828E83B0
:10195B007F041212CD75FF02E5D530E21175D50467
:10196B001217E760098F828E837F0A1212CD75FFE3
:10197B0002E5D530E71175D5801217E760098F8224
:10198B008E837F081212CD75FF02E5D530E61175F7
:10199B00D5401217E760098F828E837F091212CD13
:1019AB00902F00E0F5FFD007D006D005D004D00370
:1019BB00D002D001D000D0D0D082D083D0F0D0E0F4
:1019CB003275FF02EFF452D475FF02EDF452D522BB
:1019DB00902DF2121196902DF551FD943F4003740A
:1019EB003FF075FF02E5CD20E13FE5FD25440454B2
:1019FB003FFFE5DD543F6F6028902DF511445021DA
:101A0B00902DF212118D854482121755AEFD710D7A
:101A1B00543F248EF582EC3406F583EFF0054480B9
:101A2B00C9E5FD2544543FF5FDAF4422902F29EF26
:101A3B00F07B017A2F79297D0131DB7F0122902DFB
:101A4B00F6121196902DF9EDF0E4F54475FF02EDC9
:101A5B00D3941F4003741FF075FF02E5CD20E23FC6
:101A6B00E5C9254404541FFFE5DE541F6F60289021
:101A7B002DF911445021902DF612118D85448212AF
:101A8B001755AEC9710D541F24EEF582EC3406F5D3
:101A9B0083EFF0054480C9E5C92544541FF5C9AF50
:101AAB004422902DFA121196902DFD51FD943F403A
:101ABB0003743FF075FF02E5CB2544543FFFE5DB94
:101ACB00543F6F6020902DFD11445019ADCB719296
:101ADB00543F244EF582EE3406F583E0902DFA71D7
:101AEB009A054480D2E544600625CB543FF5CBAF35
:101AFB004422EDF0E4F544EDD3227138E4F59E7FFA
:101B0B000122FFE544FDEE2DFD7C00ED2275FF016A
:101B1B0053CCFD43FB407138759E0143FB0975FFA8
:101B2B0003859E9E75FF03859E9E7F012275FF0296
:101B3B0043D20175FF0322902DFE121196902E01B8
:101B4B0051FD941F4003741FF075FF02E5CC254433
:101B5B00541FFFE5DC541F6F6020902E0111445081
:101B6B0019ADCC7192541F24CEF582EE3406F58359
:101B7B00E0902DFE719A054480D2E544600625CC99
:101B8B00541FF5CCAF4422ED2544FF7E00EF22FF1E
:101B9B0012118D854482758300EF020E3A8F828E6F
:101BAB00837F060212CD8F828E837F020212CD8F2E
:101BBB00828E837F050212CD75FF02AFD3EF7F00BC
:101BCB0030E6027F01227B017A2E79FC7D0151AD3B
:101BDB00902EFCE0FF2275FF02E5DB543FFFE5CBC7
:101BEB00543F6F7F0060027F012275FF02E5DC54DA
:101BFB001FFFE5CC541F6F7F0060027F012290070F
:101C0B00407402F0900734E0FF120C5990074074B7
:101C1B0005F02275FF0275E404E4F5E41203C7D165
:101C2B00E6900736EFF0901200E0B47A149012149D
:101C3B00E0B49C0D900736E0FF64056004EFB4033D
:101C4B002EE490073FF090073FE0FFC394805013C2
:101C5B00E42FF582E43412F583E4F090073FE004BF
:101C6B00F080E3901200747AF0901214749CF012CE
:101C7B000AE74003120AE27B017A1279107D017F99
:101C8B0001120ADD7B017A1279117D017F21120A83
:101C9B00DD7B017A1279127D017F22120ADD7A1225
:101CAB0079177F02F1AB901217E0B401057F011297
:101CBB0043A0120A83D1E6120A7E900736EFF01288
:101CCB000B5F120A74900736E0FF120C54EF24FFDF
:101CDB00B3925375FF0253E6BF1228B8120A8DF167
:101CEB00F42053079109F1B21209617F0112069397
:101CFB00D2AF205302A189120AEC123187120C4F7A
:101D0B00120AD840F2900735E06048120AB0EF7023
:101D1B000E900741F10ED3EF94C8EE94004034E5DA
:101D2B001470FCE51520E502F14B12085DEF70FA1B
:101D3B00D18E5004D1A050057F011215FC900735B0
:101D4B00E0B40204E4FF8009900735E0B403047F9C
:101D5B0001D1C8120AABE51530E19CD1794002E400
:101D6B00F0E51520E505D152123B94D1B4C0E0D17A
:101D7B0060900738E0FDD0E0FF120B55A10212284E
:101D8B0095900735E0604E201903200948120AB0E0
:101D9B00EF700E900741F10ED3EF94C8EE94004014
:101DAB0034E51470FCE51520E502F14B12085DEFEC
:101DBB0070FAD18E5004D1A050057F011215FC9002
:101DCB000735E0B40204E4FF8009900735E0B40363
:101DDB00047F01D1C8900735E0600C201909300948
:101DEB0006200203120939120AEC12318712425AE9
:101DFB00120C4A202105120AAB8021F13C90072ED0
:101E0B00E0FEEFC39E4005EF9EFF800890072EE09B
:101E1B00F4042FFF7406D39F5002C221E51530E165
:101E2B0021D1794002E4F0E51520E505D152123BB2
:101E3B0094D1B4C0E0D160900738E0FDD0E0FF1240
:101E4B000B551228A6A189900737E0FD75F0AA90D3
:101E5B000743121181ED75F002A42430F974073594
:101E6B00F0FA7B0122C2AFEFF45215D2AF227F0200
:101E7B00D170900737E090073FF090073704F0C31D
:101E8B00940222900001740193B40007E493B418F8
:101E9B0002C322D3227F017E009017FCE4935EFEE7
:101EAB007401935F4E24FFB32290073FE0FD75F062
:101EBB00AA900743121181AF82AE83EF2243FB102E
:101ECB0075FF0243E640EF600D75FF02E5E120E789
:101EDB00FB43FB0D800343FB0E80FE75FF02E5E623
:101EEB0030E2037F0322E5E630E3037F0022E5E6E1
:101EFB0030E1037F0422E5E67F0530E0027F01221B
:101F0B009027EBE0FEA3E0FFAD07AC06F13CC3EF7F
:101F1B009DEE9C4008EF9DFFEE9CFE8013EDF4FDC3
:101F2B00ECF4FCED2401FDE43CFCED2FFFEC3EFE5C
:101F3B0022A2AD923BC2ADAF41AE40A23B92AD22CD
:101F4B00E514702BF1D15005C247122E1BF17C7F8B
:101F5B0008120C6DE4F5FFF1A4F5D1E5D120E0FBFF
:101F6B004315205315FEE4F510A22692EDD322C3A0
:101F7B0022E5FA30E1FB75FC8075FF0153D5EFE4E8
:101F8B00F5FC75FC40F19DE5FC20E6FB22E4F51425
:101F9B0080AE75FF03E4F59122E5D154FE44022295
:101FAB007B017D01020ADD7B017A27796422D2094C
:101FBB00F13C900741EEF0A3EFF022200D05F1B9B3
:101FCB007F01227F0022C2EBA2ED9226C2EDE5F447
:101FDB00C330E701D322F1D95006F1ED5002800155
:101FEB00C322E5F754E024FF22124407120AA11280
:101FFB000B5A120AF1900736E0640170030220A815
:10200B007FFF1223D39004561211967E007F15B1D9
:10201B0065BF540D7E007F16B165BFA5047F01809F
:10202B00027F00900734EFF0640170519004561258
:10203B00118D91537A04795C71CA90045CE0FEA314
:10204B00E0FF90045612118DF191E92407F9E43A5F
:10205B00FA900459121196E92408F9E43AFEAF01FB
:10206B007B017A04795C71CA90045CE064067004AD
:10207B00A3E0640A600711DA900734EFF09007349D
:10208B00E0701A7E007F10C006C374209410FE749B
:10209B0038B155D0061250BEE4FFFE91671209ED20
:1020AB0012094D1208D53053057545018006124EA5
:1020BB00A3120862E4902CFDF0902CFBF0A3F0022D
:1020CB00001275FF0275E40475E40175E402227ECB
:1020DB007F7F9C902B15EEF0A3EFF0F5828E837132
:1020EB00A8E94A4B607B71B491537A2B791871CA6A
:1020FB00902B18E0FEA3E0FF71B4F191E92407F9EE
:10210B00E43AFA902B12121196AE0271C2902B2068
:10211B00E0FEA3E0FF907FC07401936F7003E49324
:10212B006E7F0060027F01902B17EFF0902B12F166
:10213B00DEF9E43AFE71C2902B17E0FF902B20E002
:10214B00FCA3E0FD907FC27401936D7003E4936C6C
:10215B007E0060027E01EF4E902B17F060037F0034
:10216B0022124EB5AE02AF01AC02AD01E02DFD90D7
:10217B002B1AE03CCD2402CD3400FC916771B4E9FD
:10218B004A4B70024136412912504A947EEC947F9F
:10219B0050026178124EB58D828C8371A8E94A4B3F
:1021AB00603C71B491537A2B791871CA902B18E05B
:1021BB00FEA3E0FF71B4123EA9F19171BC902B0FFD
:1021CB0012118DC003C002C00171A2D3D082D08383
:1021DB00D0E0124FEC400E7190122FFD8007125081
:1021EB006FB15D71BC124F8B403471A2125016EC63
:1021FB003ACF24FBCF34FFFEC006B15E124F9FF0E7
:10220B00D006B18471A2124FFBCF24FBCF34FF91C8
:10221B005A71A291537A2B791A123105B16B902B0B
:10222B001574FF75F0F6120EF92193902B15747F30
:10223B00F0A3747EF012504A949CEC947F400261A0
:10224B0078902B151242CA8E8312119F902B0C1271
:10225B0011968F828E8374069324FEFE740593343D
:10226B00FF902B1AF0A3CEF0125078FF74049390CA
:10227B002B18CFF0A3EFF0902B181217EA70026116
:10228B0024902B15124FB074079324FC601B146021
:10229B00262403703C7A00790471BA71A2C3EF99BA
:1022AB00FFEEF1B2902B1880187B017A60790071E8
:1022BB00BC71A2F1A7800A7A60794071BA71A2F160
:1022CB00A7F0A3EFF0E92402F9E43AFA902B0C8083
:1022DB000DE4902B18F0A3F0FBFAF9902B0F1211D1
:1022EB0096902B0F12118DAE02AF0171A2E96F7098
:1022FB0002EA6E60057190122FFD902B15124D9412
:10230B00740793640270197E007F157D54B1747E3F
:10231B00007F167DA5B174800712506FB15D71BC43
:10232B00124F8B403C71A2125016EC3AFEC006B114
:10233B005E124F9FF0D006B18471A2124FFB915ADF
:10234B0071A2E924FE902B0CF1F4902B15E0FEA367
:10235B00E0F582124ECC91537A2B791A123105B1DA
:10236B006B902B15E475F00A120EF94140902B1A65
:10237B001250907E007F007B017A2B791A12310567
:10238B00B16B7F0222902B0F12118DAE02AF019019
:10239B002B1CEEF0A3EFF0902B0C02118D74079316
:1023AB00FF71D3902B09121196902B0902118D7B83
:1023BB0001902B0F021196AF017B017A2B792090A4
:1023CB002D727402F0021698902C12EFF07B027AA9
:1023DB00007902A31211968063902C191217EA60F0
:1023EB0065902C13125066FAE924FB902C16F1F42D
:1023FB0091537A2C791B71CA902C1BE0FEA3E0FF42
:10240B00902C19E0B5061FA3E0B5071A902C16F116
:10241B00DEF9E43AFEAF01B165902C12E0B5070886
:10242B00902C1602118D801E902C19E0FEA3E0FF5C
:10243B00902C141230DB902C1312118D91537A2C9B
:10244B00791971CA8093A15EAE02AF017B0122FEA6
:10245B00902B1BE029FD902B1AE03AFC902C91124B
:10246B003114A37400F0A37476F0902C95124D9454
:10247B00E4937002A154E493FF541FFD902C97E456
:10248B00F0A3EDF0EFC41354071212A324B30024EE
:10249B00B50124B70224BF0324C50424CD0524D6DB
:1024AB000624E0070000247580108016902C98E01D
:1024BB002403801DF1BA2404800C902C98E0240294
:1024CB00800FF1BA2403FFE43E8074902C98E02433
:1024DB0001F1EC806A902C95124D9E740193FB7A5E
:1024EB0000902C98E0FEE42BFFEA3EF1D6125078D8
:1024FB00FE902C95124FB2740493FDEDFFD3902CEC
:10250B0092E09F902C91E09E502D902C94E09F9008
:10251B002C93E09E4021E4FCFDC007902C96E02418
:10252B0005FF902C95E03400FAA9077BFF902C97C0
:10253B00124F77D007B19D902C98E02405F1EC90C9
:10254B002C958FF0120EF98175229400902D0AF0C4
:10255B00A3CEF07B007A00790022E4FCFD02072772
:10256B007402F080147E267F50AB05E4FCFD902DA9
:10257B00C9EBF00207727405F0902D07121196E467
:10258B00FCFDC007902D0712118D902D0A124F776D
:10259B00D007902BBB121144902BBF121196902B8E
:1025AB00BB12111C902BA8E024FFFD902BA7E0344D
:1025BB00FF5EFEED5FFF902BC4EEF0A3EFF04E60DD
:1025CB005AF159FFC3902BA8E09FFF902BA7E09ED9
:1025DB00FE902BC4F0A3EFF0902BC2F1E59FEC9E85
:1025EB00500312311912468C6022F161C004C005F0
:1025FB00C006C007D1E96004F19980027F00124F39
:10260B000DD007D006D005D004121340D1C26005FF
:10261B00F159FF80647E007F00805E902BC2121701
:10262B00EA605E902BA7F1E5EF9DEE9C400A902BA4
:10263B00C4ECF0A3EDF0800D902BC2E0FFA3E0A360
:10264B00CFF0A3EFF012468C6022F161C004C005FD
:10265B00C006C007D1E96004F19980027F00124FD8
:10266B000DD007D006D005D004121340D1C260059F
:10267B00F159FF80047E007F00902BC01230DB806D
:10268B009AD322EFF4045FFFE4FEEF70037FFF2287
:10269B00EFD3940F4009EFC4540FFFEE4404FEEF49
:1026AB00D39403400AEF1313543FFFEE4402FEEFA3
:1026BB0030E1010EAF0622902BC4E0FEA3E0FFC376
:1026CB00902BC3E09FF0902BC2E09EF0902BBB129F
:1026DB001138E4FCFD120F6F902BBB121144902BA1
:1026EB00BF12118DE94A22AB07AA06EB241FFFE4A8
:1026FB003AFEEF7805CEC313CE13D8F9F9EB541F7E
:10270B00902F04F0AF05D18EEFC43354E0FCAF052E
:10271B00D193AE01EE14C39FC43354E0F9AF04C39D
:10272B00EB9FFFEA9400FEE9FDC3EF9DFFEE9400E3
:10273B00FEED600FE0FD6007C374209DFD80067DFC
:10274B000080027D007C00EF2DFFEC3EFE22902BE3
:10275B00C4E0FEA3E022902BC4E0FEA3E0FF902B8D
:10276B00C8E0FDD1F2902BC6EEF0A3EFF0A3E0FF93
:10277B00D18EEF75F020A4FFAEF0E4FCFD902BBBE7
:10278B00121138020F6FC3E99FF9EA9EFA22902BC0
:10279B00C8E0FFD18EEFC43354E0FF22C3902B1956
:1027AB00E099FF902B18E09ACF24FECF34FF2290B4
:1027BB002C95E0FEA3E0F5828E83740193FD7C00E3
:1027CB00902C98E0FEE42DFFEC3EFE902C97F0A3AE
:1027DB00EFF02212118DE9240222E0FCA3E0FDD3DD
:1027EB0022FF902C97E0340022F9EA34FFFA021111
:1027FB009675FF0275E404E4F5E4229004B1EFF062
:10280B00A3EDF0540290122EF0121FC6EF7002C30C
:10281B00229004B1E0B40411A3E0FB7D017F011110
:10282B00499004B17403F0800B9004B2E0FB7D017E
:10283B00E4FF11499004B1E0900735F0D322EB602F
:10284B000875FF0153CDFD800675FF0143CD02EDE9
:10285B00600553FBDF800343FB20EF600775FF022E
:10286B0043E1402275FF0253E1BF2275FF028FE364
:10287B002290072FE064AA2411FFF022AE07117CEF
:10288B00EE04FEEF8EF084AFF02230220D1208FD25
:10289B00EF6007C24C1208E9C2222290073D1217C3
:1028AB00EA6009CAEECAC9EFC91212C922D2ADD267
:1028BB00BD75FF02758E7175460975FF02E58E5465
:1028CB006F4480F58E902E021211500000000022F2
:1028DB00C0E0C0F0C083C082C0D075D008C0FF7507
:1028EB00FF02E58E30E43275FF02E58E54EF4410A3
:1028FB00F58E902E0212111C315D902E0212114496
:10290B009000001215F5E546700D7546090541E579
:10291B0041700205408002154675FF02E58530E4E3
:10292B000875FF02438510054AD0FFD0D0D082D066
:10293B0083D0F0D0E032FF7E04FDFCE0F8A3E0F999
:10294B00A3E0FAA3E0FB120F8AE47B7DFAF9F812FD
:10295B001015EF2401FFE43EFEE43DFDE43CFC22B8
:10296B00902AEF12114475FF0243E180121F7CF194
:10297B00BD902B04121150002DC6C0E4F5FFF5A439
:10298B0090120EF0A3F0902AFF7402F0F1DAFFF52B
:10299B0095EF14601314601C24027027902AEF51DA
:1029AB00E0B1E4902AFB8016902AF351E0B1E49059
:1029BB002AFC800A902AF751E0B1E4902AFDE090BE
:1029CB002B08F0124908902B08E0700FF5FFF596D5
:1029DB0075FF0175D70975F418805990120EE00434
:1029EB00F0902AFFE0123EC1902B0451E0FF902B98
:1029FB0000F1F1C31210CB500A902B0051E0FFA352
:102A0B00121144902B08E0FF124788902AFEE0FF3A
:102A1B00A3E0FDA24592431247E7A351E0FF902D9F
:102A2B00CB121144902AFFE0FFB141902AFF51D203
:102A3B00FF1246F4F1E2600221977402F0F1DAF52D
:102A4B0095E5F45407701B902B043141780112105B
:102A5B00DC902AFFB1D6F583121144EB51D3FF1250
:102A6B0046F4F1E270D775FF03759580123EB940BD
:102A7B000343F420A2459244124839902B0451E0B1
:102A8B002420FFEE344E3163E4FB7A04F9F8315124
:102A9B0078011210DCC242123D72E4F5FFE5BD5421
:102AAB00F84404F5BD9012137401F07E127F01E41B
:102ABB00FD8F828E83EF2D1250C6FC901213E02CEB
:102ACB00F00DEDB412EB22E025E025E02401F582B8
:102ADB00E43412F583E0FCA3E0FDA3E0FEA3E022C7
:102AEB00902D0C123F65902D127401F0C246B1FD72
:102AFB00B1F25005E5FC20E6F7D18DBF0108E4F5F6
:102B0B00FC75FC408007D18DBF0202D32275FF01FB
:102B1B0053D8EF902D0DE0FF124AB875FF0153D536
:102B2B00DF53FAFB902D0CE0FF123B79902D0DE05B
:102B3B00902D0CB4080851D224523160800351D22D
:102B4B00FF1246F4902D0EE0FFF1EB75FF0175FFC0
:102B5B0003759B04B1FD75FC42E5FC20E104B1F269
:102B6B0040F4902D0FE0F075FF03E59B20E704B1D7
:102B7B00F240F4E59B20E70D75FF03759B1F121FB9
:102B8B007CD246804FB1EB123E67902D0DE0FD904D
:102B9B00120FE05D701C902D0CE0FFB1EB1249158C
:102BAB0090120FE0FF902D0DE0FEEF4E90120FF004
:102BBB0051B0123D577B017A2D7910123D3A500FCF
:102BCB00C3902D11E09420902D10E0940340E6B1BA
:102BDB00EB124730D1C130460241F1902D12E0B4D7
:102BEB000103D38001C322902C1D123E99902C23FC
:102BFB0012115000000001902C277401F0F5FFE535
:102C0B00D554C07005121FD95002C322E4F5FF53EF
:102C1B00967F75FF0175D5047F3FFED1BD75FF0112
:102C2B0043D508E4F5FF5394FBF5FF53847FF5FF81
:102C3B007598FF902C21E5F4F075F49C75FF01A3BA
:102C4B00E5E4F075E4257B017A2C7927123E679039
:102C5B002C27E064016002A11FF5FF902C20741457
:102C6B00F0902C2351E0FF78011210EF902C2312DF
:102C7B001144E5A730E1FB43A702902C2351E0FF61
:102C8B00E5A730E005E47B018002E4FBFAF9F8EFFD
:102C9B004BFFEE4AFEED49FDEC48FC902C23121144
:102CAB0044902C20E014F070B8902C2351E0FF7866
:102CBB00101210DC7B6D7A4E79C67841120F8AEFB9
:102CCB002439FFEE34303163E4FBFA7901F812104A
:102CDB0015EE547FFEE4FDFC124AAB902C2351E021
:102CEB00FFEB6FFFEA6EFEE8CDEFCDCCEECCECFF49
:102CFB00902C1D123D06EF120E28902C1D123D0636
:102D0B00900001ED120E3A90120FE030E606E4F55A
:102D1B00FF75968075FF01E4F5D5902C21E0F5F455
:102D2B0075FF01A3E0F5E41247D6902C27E0B40120
:102D3B0003D38001C322902DCAEFF0E4A331417875
:102D4B00011210DC902DCAB1D6F5831211449012EA
:102D5B0010E064806074E0C3947F503AEBB1D8F517
:102D6B0083C083C08251E0FFEEC0E0EFC0E0901261
:102D7B0010E075F004A4AEF0FBCAEECAEA3395E09E
:102D8B00F9F8D0E0FFD0E0FEC3EF9BFFEE9AFEED2B
:102D9B0099FDEC98802C902DCAE0B1D8F583C083B7
:102DAB00C082F1F1901210E0F40475F004A4FFAEB0
:102DBB00F0EE3395E0FDFCEB2FFFEA3EFEE93DFD27
:102DCB00E83CFCD082D08312114422E0FB25E025A5
:102DDB00E02401F582E4341222FF902B000211440F
:102DEB007B017A2D79122275FF03E591C330E70140
:102DFB00D3227FE87E03D15F75FF034391802212BC
:102E0B003B7943FA04E4F5FF53D1FD43D101D2479B
:102E1B00902F05E5F4F0E0547FF5F47F827E00D12E
:102E2B005FD103B1F25005E5FC20E6F7304708907F
:102E3B002F05E04480F5F4B1FDB1F25005E5FC201F
:102E4B00E6F775FF01E5D520E702C322E5F4D330A1
:102E5B00E601C322902E0A1250807A2E790C123D75
:102E6B003A5014902E0CE0FEA3E0FF902E0BE09F47
:102E7B00902E0AE09E400A902E0AE0FEA3E0FFF19E
:102E8B00A0227FFA7E00F1A0D103E5FC30E604B16D
:102E9B00F240F7E5FC30E6037F032275FF01E5D531
:102EAB0030E6037F0222E5D57F0030E7027F012267
:102EBB007E00F1A0D10375FF03E59120E7FB22E42F
:102ECB00902E12F0A304F0E4902E15F0E5FA30E109
:102EDB00FB75FF01E5D530E7037F0022E4F5FF75B5
:102EEB00E50875FF0153D8EFE5D530E61A75FF01FC
:102EFB00902E14E5DAF0E4F5DA75FF01E5D630E350
:102F0B00FB902E157401F075FF03759B0475FC4146
:102F1B0075FF03E59B30E7FBE4FB75FF038B95EB3C
:102F2B0051D3FF1246F40BEBB403EF75FF0375950A
:102F3B0080E4F5FF758EC8123D5775FF0153D5FB25
:102F4B00121F9D7F14D1BB75FF0143D504902E1525
:102F5B00E07007121F9D7FC8D1BB7B017A2E7913BE
:102F6B00124730902E13E0902E127006E04404FFAF
:102F7B008002E0FF902E12EFF090120EE0B40106EB
:102F8B0075FF0143D81075FF01902E14E0F5DA9010
:102F9B002E12E0FF2275FF03D3EF9402EE94004054
:102FAB000874FE2FFF74FF3EFEEFF592EE540FF503
:102FBB00912212504053DB7F75FF0175D5027F14B0
:102FCB00D1BB12504043DB8075FF01E4F5D5227570
:102FDB00FF03902AFFE022902AFFE0FF14F0EF227C
:102FEB0075FF018FDA22E0F8A3E0F9A3E0FAA3E082
:102FFB00FB22AC02AD01902B1EECF0A3EDF0902B5D
:10300B0018E0FAA3E0FB902A163114A3310CD390ED
:10301B002A17E09D902A16E09C402D11C040761196
:10302B00A140047F808006902A1AA3E0FF902A1CFF
:10303B00EFF0902A16E0FEA3E0FF11E111A97E004C
:10304B0011B49EF011CF80D3902A1AE0FEA3E0FFBB
:10305B0011CF11C0403F11A140047F808006902A00
:10306B001AA3E0FF902A1CEFF0FD7C00C3902A17F7
:10307B00E09DFF902A16E09CFEF0A3EFF0C3902A90
:10308B0019E09DF0902A18E09CF011E111A911B400
:10309B009400F080BD22D3EF9480EE940022EDF0EB
:1030AB00122584902A1CE0FF22C3902A1BE09FF07C
:1030BB00902A1AE022902A1AE0FEA3E0FFD3940094
:1030CB00EE940022902A16EE8FF0120EF9902A1829
:1030DB00EE8FF0020EF97B017A2A791D902A1CE003
:1030EB00902D72F0121698902A18E0FEA3E0FF7B49
:1030FB00017A2A791D902A1CE0FD902D0AE4F0A399
:10310B0022AF03EAF0A3EFF022EEF0A3EFF0A3EC73
:10311B00F0A3EDF022902C9AECF0A3EDF0902C990B
:10312B00EFF0FB902C9C12111C7133121144EB31FC
:10313B0079121144EB3179C083C08212113890009F
:10314B000071AB120F6FD082D083121144902CA060
:10315B00E0FF902C99E0FE514EEFF0902C9AE0FCA2
:10316B00A3E0FDEE515EECF0A3EDF022E54775F028
:10317B000CA4246EF582E43429F58322D39000014C
:10318B00E09400900000E094005002414BC2ADE08F
:10319B00FFA3E0902EC6CFF0A3EFF0E4900000F079
:1031AB00A3F0D2ADF547E547516EF583E0700241D0
:1031BB0040902EC671AB3177121138D31210CB5011
:1031CB004C514CE0FF6008F46005514CE014F05199
:1031DB004CE0600EE547713412111C31771211442B
:1031EB008011E547516EF583E4F0317712115000F1
:1031FB00000000515CE0FEA3E04E600C515CE0FE71
:10320B00A3E0AA06F91212C912071380283177C05E
:10321B0083C08212111CC006C007902EC6E0FEA30D
:10322B00E0FBAA06E4F9F8D007D006120F7CD08297
:10323B00D0831211440547E547C3940E500221B1C8
:10324B0022E54775F00CA42478F582E43429F58344
:10325B0022E54775F00CA42476F582E43429F58336
:10326B0022E0FF75F00CA42479F582E4342922AB1B
:10327B0007E4FF1BEBC3940E501C7133121150006B
:10328B00000000EB317912115000000000EB516E81
:10329B00F583E4F07F0122902CE9EEF0A3123F6559
:1032AB00902CEE74FFF0902CEDE0902CEFF0902C26
:1032BB00EFE0FFC3940E506AEF317912111CE4FB5F
:1032CB00FAF9F8C31210CB7051902CEDE07E01701F
:1032DB00027E02902CEF516CF583EEF0C007902C20
:1032EB00EBE0FF7E0060097C007D0A120E5C800221
:1032FB007F0AE4FCFD902C9C121144902CECE09086
:10330B002CA0F0902CE9E0FCA3E0FDD0073120903D
:10331B002CEFE004FF902CEEF022902CEFE004F069
:10332B00808C902CEEE0FF22EB75F00CA42472F550
:10333B0082E43429F58322902CA1EEF0A3EFF07FE9
:10334B00FFA3121138E8494A4B6054902CA874041F
:10335B00F0902CA8E0FEC3940E5044EE516EF58312
:10336B00E07034902CA8516CF5837405F0C0079075
:10337B002CA312111C902C9C121144902CA7E090A2
:10338B002CA0F0902CA1E0FCA3E0FDD00731209005
:10339B002CA8E004FF8008902CA8E004F080B22257
:1033AB00E0FEA3E0FFE4FCFD227B017A277963902A
:1033BB002E5A121196902E5AF177517A902E5A124C
:1033CB00118DE4020E28E49003F2F07B017A04796C
:1033DB000080DC90047F121196D23DC2EBE51460A5
:1033EB0002C147E51530E202C322D150D1E8E41205
:1033FB000E281241D5D19F5407FF9003E1F01240E4
:10340B0019900482EFF0E51520E06F121FD94005EB
:10341B007F01120693900482E0FF7B017A0479838B
:10342B00123C49E4337004D2EBC127900482E024B0
:10343B00BE1250A7E0FF900483E0D39F403CD2EB39
:10344B00124106A22692ED9003F2E06010D150D10A
:10345B00E87401120E2843150471D1D32290040095
:10346B00E070157B017A0479007C387D2D902CF56A
:10347B007464F0E4A3F0F141C322121FD95005C2CA
:10348B0047122E1BE4F5FF121FA4F5D1E5D120E066
:10349B00FBE4F510D19F5407C39403E49400502E22
:1034AB00D15024B1D198D14F24D8D1982FFFE433E8
:1034BB00FED3EF9440EE648094804012D150D1E85B
:1034CB007402120E28431504A22692EDD322D1507A
:1034DB002408F9E43ACFE9CFF5118F12D15024B17A
:1034EB00D198F516AE111246BBD15024B2F9E43A7D
:1034FB008B1CF51D891ED15024D8D198F51FD19F57
:10350B00FDACF054606033D15024D9D198FF1240F8
:10351B00E0C23DD188FB7A00900401E0FEA3E0FFFE
:10352B007C007D18120E5CEF2BFFEA3EFEEF24149D
:10353B00FBE43EFA7D027F01C116D19F5407900335
:10354B00E1F0751408D150124F68123B43D150244F
:10355B00D8D198FFAD16123FC29003E1E06403701F
:10356B00237B01FDD158D1EF50057401120DD3E42B
:10357B00F5FF123F6E120D692428FBE433FA7D032D
:10358B00E4FFC1169003E1E06402702AD15BD1EF36
:10359B00400574FF120DD3E4F5FFE5D25480440AC5
:1035AB00F5D2120D692414FBE433FA7D027F01126C
:1035BB004121D1AF8058E4FB7D01D158D1EF4005BB
:1035CB0074FF120DD3E4F5FFD19F441045F07F0536
:1035DB0060027F0AEF547FFFE5D254804FF5D2E4AF
:1035EB00F5FF43D280D188FD7C00D19F441045F07C
:1035FB007E0060047F0A80027F05EF25E0FFEE333B
:10360B00FEEF2DFBEE3CFA7D017F01124121D19F94
:10361B00FFAEF0A23D923C1240754006A22692ED01
:10362B00C32271D1900482E0D14F24E5F9E43AFA38
:10363B00EF120E28A22692EDD2EBD322A22692ED08
:10364B00D2EBC322FF90047F12118DE922FFD1B47C
:10365B0090047F12118DE924B1F9E43AFA120D6945
:10366B00FF90047F12118DE924D8F9E43AFA120D78
:10367B00692FFFE433FEEF2401FFE43EFE90047F4D
:10368B0012118DE924B2F9E43AFAE92407F9E43A84
:10369B00FA020D6990047F12118DE92404F9E43AC2
:1036AB00FA020F25E4FB7D01FFE4F5FF75D102E57E
:1036BB00D120E0FBE4F5FFF5D1EF6008E4F5FF4323
:1036CB00D2808006E4F5FF53D27FEB6006E4F5FF72
:1036DB0043D104ED6006E4F5FF43D1082224E3F95E
:1036EB00E43AFA22D39FEE6480F874809822AB07F9
:1036FB00E4FA1BEBC3940E5012713312111CEC4DF8
:10370B004E4F6007EB31791211440AAF022290033E
:10371B00E2E0FDFFC3740E124A7FEFC4F8540FC8EA
:10372B0068FFEEC454F048FEE51754F0C3D1F07FA8
:10373B00005002AF0522902CF3ECF0A3EDF0902C8F
:10374B00F012119671BA902CF3E0FEA3E0A3124095
:10375B00BDF183902CF01217F1902CF012118D12F9
:10376B000D69B4FF04E4120E28902CF012118D1287
:10377B000D69FF22E4FB7D01E4902CEDF041A2EFFB
:10378B0030E303AF1322AD1B202704EE30E00BE533
:10379B0017C394F05020F1198018E5196006FDE469
:1037AB00F5198012E517C394F0500BE517540FFF72
:1037BB006004F1C4AD07AF052212387BFFC3940E32
:1037CB0040027F0DEF90050893FF22902CED7404BF
:1037DB00F041A21FEFC3940E5008EF317912111C68
:1037EB008005E4FFFEFDFC22E4FEEFC3940E5014B3
:1037FB00EF516EF583E05D7C00B505027C01EC2E8C
:10380B00FE0F80E6AF06227D02E4FF80DB7D017FA9
:10381B00041237F3AB071112EF2BFF22E4FD7F04E9
:10382B0080C6E4900400F09003F204F022AF14EF92
:10383B00C36001D322EFC3940E50059003E2EFF067
:10384B0022E517540FFF22E517C394F0501F5317AF
:10385B00F0117BFE740FC39F4005EE940E400543A1
:10386B00170D8003EF4217E517540FFF227F00223D
:10387B00E517C4540FFEEF900526932E22900740B8
:10388B00E0B4020D8F1B900470E0F513120A88D37D
:10389B0022C32290049F12119611D0E51B120E2801
:1038AB0090049F11D611CCE9240211C8713BE5138A
:1038BB0011CDE9240411C8D1A9E4020E28F9E43A88
:1038CB00FAE4120E2890049F02118D12118DE92437
:1038DB0001F9E43AFA22C0E0C0F0C083C082C0D044
:1038EB0075D008C0FF75FF01E5D530E6047F028077
:1038FB0009E5D57F0030E7027F018F18E5186402D8
:10390B00600221BBE5141212A3392D013940023993
:10391B00A808394B0939560A39640B39810C000058
:10392B003B1475FF0175C355151AE51A6002611436
:10393B00751402611475FF0175C3F07514096114D8
:10394B0075FF0175C35575140A611475FF0190035A
:10395B00F3E0F5C375140B611475FF019003E0E000
:10396B00F5C3751401751A14900401F177600261A7
:10397B001475140C6114AB1CAA1DA91E7143AD1652
:10398B00AF1FF1C21236AF75FF00F16E43FA04752B
:10399B00FF0053D1FD43D1017514086114C2EB75BF
:1039AB001400431504F1CF400261141215F5611494
:1039BB00E518640160026114D1A240026114E510A4
:1039CB00707375FF01F5EA75EAFF9003E312118D31
:1039DB00E5D9120E28712FE09004BBF0124AE212C7
:1039EB0040CC9003DFEFF09004BBE0FFD394095081
:1039FB000241939003DFE0D39402400CEFD394AADF
:103A0B007F0040027F01800D9004BBE0D394407F88
:103A1B000040027F01EF6002806E9004BBE0F51660
:103A2B00F1B7901215EFF075FF009004BBE0F5D9DC
:103A3B007510036114E5106403600261149003E3D5
:103A4B0012377711D9EF120E2875FF009003DFE0C4
:103A5B00C39403E5D350055402FF80035401FFEFD9
:103A6B00602A30E111C39003EDE094FF9003ECE08A
:103A7B0094FF5014800FC39003EFE094FF9003EE7C
:103A8B00E094FF50031215F5714F807DC247122E43
:103A9B001B75FF00121FA4F5D1E5D120E0FBC2EB93
:103AAB004315027128A3E0FF90073AE0FEEF6E7119
:103ABB0027E09007397121A3A3E090073B7121A365
:103ACB00A3A3E0FE90073CE0FDEE6D4F6012C390A8
:103ADB0003F1E094FF9003F0E094FF50031215F50F
:103AEB00C39003EBE094FF9003EAE094FF500312C2
:103AFB0015F57510009003DFE0B403071516712F51
:103B0B00E516F0900738E516F0D0FFD0D0D082D074
:103B1B0083D0F0D0E032FEE0FDEE6D4FFF851282D8
:103B2B0085118322E5122407F582E43511F58322F2
:103B3B00E92403F9E43AFA22E4F5FFE99140EA5467
:103B4B000F42D622C247122E1BE4F5FF121FA4F51B
:103B5B00D1E5D120E0FBE4F5FF75D9089003DFE058
:103B6B007F00B403027F01122E0AE4F5102275FFC9
:103B7B0001E5D530E602C322E4F5FF439A80EFD18D
:103B8B00C1E4F5FF539A7FD322AF82AE837D0190C0
:103B9B000473EEF0A3EFF0A3121196E514707412F8
:103BAB001FD15005C247122E1B900473E0FEA3E0F9
:103BBB008E11F512A312118D9003E3121196AE1113
:103BCB00AF127DAA911FE4F5FF75D908F510E51525
:103BDB005421602BE51530E504E4FF7179E4900482
:103BEB0078F0900478E004F0122ECAEF600990048C
:103BFB0078E0C3941040EB7F02120C6D5315DE90EE
:103C0B0003DFE07F00B403027F01122E0AD2EBA286
:103C1B002692ED22E4F5FF75D102E5D120E0FBE41D
:103C2B00F5D1F5FFEF9140EE540F42D6E4F5FFCFFF
:103C3B00EDCF8FD422F5D7E4F5FF53D6F022902E9B
:103C4B001AEFF0A3D19975FF01122E8DEF6401606D
:103C5B0002C322E5F430E602C3227FE87E03122F73
:103C6B00A0122E03B11B400122C247122E1B902E15
:103C7B001AE0FF717953F4DFD247122E1B7F787E47
:103C8B000091C575FF0153E4BFE5E430E7FBF1811B
:103C9B007F8AB13230E605B103E4800775FF01B1CD
:103CAB0003E5D9120E2875FF0143E440D1B9400357
:103CBB0043F420B11B400122D322CDEFCDCCEECC6F
:103CCB00B10FAB94EF4BB14FCBEFCBFAE59130E7A4
:103CDB0018B112A994E9F582EF4582FFEBD1B1C37C
:103CEB00EF9582E5F0958340E3E59120E709CEEC73
:103CFB00CECFEDCF122EBD22902E1BE0FBA3E0FA10
:103D0B00A3E0F92275FF03AF93EF75F010A4FF2228
:103D1B00E5F730E510E5F754C07005122DF240F0D1
:103D2B00121F9DC322D322FE91C590120FE022B128
:103D3B000FAD94EF4DB14F8FF0120F50E591C33093
:103D4B00E701D32224FBFFE5F034FF22E4F5FF75F6
:103D5B00C2E17F1EB13230E707E4F5FF75C2A12245
:103D6B00E4F5FF75C28122902B53121144E4F5FF49
:103D7B0075BB0575BB8575FF0175D5022042087FA4
:103D8B003FFE122EBDB15775FF0143D520304202C5
:103D9B00C140E4F5FF538EF7438E077D04E4F5FF36
:103DAB008DBCF5FF43B102E5B130E2FBE4F5FFAFAB
:103DBB00DFEFFEACDEECFBEBFFED25E02451F582F3
:103DCB00E4342BF583EEF0A3EFF0E4F5FFF5FF53AE
:103DDB00B1FD0DEDB40CC6902B53122AE0FF780900
:103DEB001210DCA3EEF0A3EFF0E4FDED25E0245B75
:103DFB00F582E4342BF583E0C313FAA3E013FBD174
:103E0B005AD1C92BFFEE3AFED15AEEF0A3EFF0EDEB
:103E1B00240490120DF0EDC394075019CFEDCF0D84
:103E2B00EFD15BE0FEA3E0FFC3902B58E09F902BFC
:103E3B0057E09E50B6E4F5FF758EC8F5FF90120D56
:103E4B00E0F5BCE4F5FF75BB8075FF01F5D522ED00
:103E5B0025E02459F582E4342BF58322902E5DD195
:103E6B00997F017C127D01E4FE8D828C83ED2EF512
:103E7B0082E43CF583E02FFF0EEEB412EC901213AC
:103E8B00E06F6009902E5DB106E4120E2822EBF074
:103E9B00A3EAF0A3E9F022E5F754C024FF22E924BA
:103EAB0005F9E43AFA222DF582EA3CF583229012C9
:103EBB000EE0D394012233333354F8F5F422E0C3EC
:103ECB0013FEA3E01322902E06EEF0A3F165F14E44
:103EDB00AC00AD01AE02AF03C006C007902E06D1F9
:103EEB00C9FBAA06E4F9F8D007D006D31210B57EA9
:103EFB000050047F0180027F00C006C007F14ED046
:103F0B00E02FFFD0E03E902E06F0A3EFF053ECFC39
:103F1B00902E06E0FCA3E0FDEC540342EC75FF028F
:103F2B00EDF5AF75ED0275ED04A3E0600543EC080C
:103F3B00800353ECF7902E09E0600443EC0422530A
:103F4B00ECFB22902E06E0FEA3E0FBAA06E4F9F8B8
:103F5B007F807E387D01FC020383EFF0A3EDF0A39D
:103F6B00EBF022E5D254804414F5D22274FFF5F025
:103F7B00120EF945F02275FF01E4F5EA75EAFF220E
:103F8B00F181AFD922E4FFE5F754C0600280F175EF
:103F9B00FF01E5D530E30DF1B050F4F18BEF60EF9D
:103FAB00F1B050EB2275FF01E5E43322E5F4541830
:103FBB00131313541FFF22E4F5FF8FD4F5FFCFED3E
:103FCB00CF8FD522C39003E7E094FF9003E6E094F4
:103FDB00FF22F1CF50031215F522E51754F0C4540C
:103FEB000F2FFFC3941040027F0FEF90051693FF26
:103FFB00227E10EE60091EEE90051693B507F4EEC7
:10400B00C3940E40027E0DEE90050893FF22EF2421
:10401B00FD600680007E018002E4FEAF0622900464
:10402B00A3EFF09003E1E0FF11199004A4EFF090DF
:10403B0003E1E024FD60130470089004A27404F003
:10404B00800E9004A27408F080069004A27402F013
:10405B007F01120C6D9004A4E09004A211BDE490BA
:10406B002D0FF0122AEB50EDD3224315015315DF20
:10407B0012378A11294004E4F5142243FA0453152C
:10408B00FB303C0BE4F5FF53D1FD43D101800A7F9C
:10409B005511A67F5511A6D2EBD32275FF01E5D59D
:1040AB0020E602C322E5FA540360FA75FF018FC3C1
:1040BB00D322FFE0FDA3E0FB22C2AFEF4215D2AF4C
:1040CB0022EF24FE600C24FE600580007F01227F1E
:1040DB0002227F0322751401751A139003F3EFF07C
:1040EB009003E17402F0ED90040130E507E4F0A3D6
:1040FB00743AF022E4F0A374E6F022C39003E9E0F3
:10410B0094FF9003E8E094FF50031215F5229004FE
:10411B0001E0A3E0FF229004A5EFF0ED24FE60196F
:10412B001460262402703BEB2402FFE43AFE7C0071
:10413B007D50120E5C7D60801E3195C333CE33CE25
:10414B00D8F9FF7C007D28800E3195C333CE33CE5A
:10415B00D8F9FF7C007D64120E6E9004A6EEF0A3DE
:10416B00EFF09004A5E031A0C083C082121138900B
:10417B0004A7E02401FF9004A6E03400FEE4FCFD5C
:10418B00120F6FD082D083021144EB2401FFE43A6B
:10419B00FEEF78032225E025E024F4F582E43403D6
:1041AB00F58322EF31A012111C021102E4FFFEFD78
:1041BB00FC9003F431CC9003F831CC9003FC02114A
:1041CB0044121144E4FFFEFDFC22900739E0F4FF9A
:1041DB00A3E06FFFA3E06FFFA3E06FFF64556009DF
:1041EB00EF644A6004EFB40A010F9003E0EFF02292
:1041FB00A2EB923EC2EB7A0379E67B017D0CE4FFE6
:10420B00120858A23E92EB22A2EB923FC2EBEBC0FC
:10421B00E0EAC0E0E9C0E07A0379E6513BD0E0F98F
:10422B00D0E0FAD0E0FB7F0C120885A23F92EB2284
:10423B007B01902D1E021196C003C002C0017A2C87
:10424B0079F9513BD001D002D0037F0202088512CD
:10425B002E8DEF64017067123FB7902EC8EFF0D32D
:10426B009402505A902CFDE0FF902EC8E06F704ED8
:10427B00123F90902EC9EFF07B017A2E79C97D0108
:10428B00120B50902EC8E024F9F582E4342CF58300
:10429B00EFF0902CFDE0045401F07022902CFBE029
:1042AB007002A3E060187B017A2C79F751437B01F4
:1042BB007A2C79F7902CFB51CA8E831212CD22E007
:1042CB00FEA3E0FFF58222902CFBEEF0A3EFF02291
:1042DB00EF7011ED600775FF0143AE012275FF0111
:1042EB0053AEFE22EFB4011490122FEDF060077560
:1042FB00FF0143AE022275FF0153AEFD22EF6007B3
:10430B0075FF0253E6BF2275FF0243E64022EF140E
:10431B00600F146014240270188B8075FF018DFDE3
:10432B00228B9075FF018DC9228BA075FF018DCA61
:10433B0022AF038FB075FF01AF058FCB22902CFFFF
:10434B00121196EF1460111460182402701E718202
:10435B00E5807188E5FD801C7182E5907188E5C967
:10436B0080127182E5A07188E5CA80087182E5B080
:10437B007188E5CB020E28902D0202118D120E28AA
:10438B0075FF01902CFF02118DE4F5FFAF9122E434
:10439B00F5FFAF9222EF600775FF0243E61022751F
:1043AB00FF0253E6EF22E5ED30E2FB75ED04AFEFD4
:1043BB0022E5ED20E0FB8FEF22EF600443EC0422BB
:1043CB0053ECFB22EF600443EC082253ECF722E59D
:1043DB00ED5402FF22E5ED5404FF22E5ED5401FFFD
:1043EB0022902BA0E0120E28902BA5E0900001123A
:1043FB000E3A902BA6E0900002020E3A7B017A2B2C
:10440B0079A37D017F03120ADD7A2B79AC7F081229
:10441B001FAB7A2B79A97F09B1C07A2B79A77F0BB8
:10442B00B1C0902BA71217EA6006BEFF16BFFF1391
:10443B00B1C750028004B1D08009902BA7E4F0A340
:10444B007440F0B1C750028008902BA47403F08025
:10445B0006902BA47402F0902BA3E01212A34485B8
:10446B000444901444981544A01744B63044BE3409
:10447B0044C63644CE37000044AB75FF015330EFD2
:10448B008530FD804775FF015331EF800E75FF01BD
:10449B005331DF800675FF0153317F8531C9802C85
:1044AB0075FF015332DF8532CA802175FF0153330B
:1044BB00FE801675FF015333EF800E75FF015333EA
:1044CB00BF800675FF0153337F8533CB1213A57F56
:1044DB0011B1B2E4FF1215FC121420902BA174023F
:1044EB00F0902BA5E0247F6009047016B1B8740A14
:1044FB0080071207D1B1B87458F0902BA47403F055
:10450B00B1D0902BA6E0F46002A1AF902BA9E0FEF6
:10451B00A3E0FF64104E7006902BA6740EF0EF64B0
:10452B00204E7006902BA6740FF0EF64404E700671
:10453B00902BA67410F0EF64804E7006902BA6742F
:10454B0011F0E4B5070AEEB40106902BA67412F035
:10455B00E4B5070AEEB40206902BA67413F0E4B58B
:10456B00070AEEB40406902BA67414F0E4B5070A00
:10457B00EEB40806902BA67415F0E4B5070AEEB45A
:10458B001006902BA67416F0E4B5070AEEB42006BD
:10459B00902BA67417F0E4B5070AEEB44006902BE7
:1045AB00A67418F002155CEF4420F5FE227F10B1C3
:1045BB00B2902BA1227B017D02020ADD902BACE095
:1045CB0024FE24FD22902BA77401F0A3E4F022D14A
:1045DB0082121196E4902BE0F0A304F0902BDD12E5
:1045EB0017EA7002C17CD3EF9420EE940040047F55
:1045FB00208006902BDDA3E0FF902BDFEFF0902BBC
:10460B00DA12118D902BDFE0FF902AA4E4F0A3EFD8
:10461B00F0902BD612111C1216DF400E902BE0E0FF
:10462B00FFA3E0FEEF4E902BE0F0902BDFE0FFC3FB
:10463B00902BDEE09FF0902BDDE09400F0902BD6DA
:10464B00121138902BDFE4FCFDFE120F6FD182129A
:10465B00118DE94A6007902BDFE0FF80027F00900D
:10466B002BDBE48FF0120EF9902BE1E025E0F0A1AB
:10467B00E7902BE0E0FF22902BD6121144902BDA1F
:10468B0022902BBF12118D902BC4E0FFA3E0902B37
:10469B00DDCFF0A3EFF0902BBB12111CB1DA902BF6
:1046AB00C8EFF022902BA2E0FF22E4902BA2F02285
:1046BB00E4F5FFEFF5D8E4F5FF53D60FEE540FC436
:1046CB00F854F0C8E4C4540F4842D622E4F5FF8FE7
:1046DB00D422E4F5FFE5D1540133333354F8FFE42E
:1046EB00F5FFE5D354074FFF22902E0E12114475A0
:1046FB00FF01902E0EA3E0FDA3A3E4FFFEE4FC78E4
:10470B00101210DC8FE1902E0EA3A3E0FEA3E4FFAA
:10471B00E4FDFC78081210DC8FE2902E0EA3A3A30D
:10472B00E0FF8FE322C24175FF03759B1F75FF03EB
:10473B0090120FE020E71BE59A540FC3940240122E
:10474B00E04480F0E4F5FF75C2A143FC0475FF0360
:10475B00D241E5FC30E609E59A540FC3940540CDF0
:10476B00E5FC30E611E4120E2875FC80F5FC75FCB7
:10477B0040E5FC20E6FB304103122AB022EF30E08B
:10478B000E43F401E4F5FF43A404F5FF759624EF03
:10479B0030E10E43F401E4F5FF43A408F5FF7596F1
:1047AB0024EF30E20943F402E4F5FF75961EEF3077
:1047BB00E30943F404E4F5FF75961075FF01EF541C
:1047CB0003600475D7122275D72D22E4F5FF75848B
:1047DB00E6F5FF439404F5FF75981422CCEFCCCF8C
:1047EB00EDCF74017E00C8EFC8088005C333CE330C
:1047FB00CED8F9FFCDECCDEF5D601B30431875FFC4
:10480B000175DCAD75FF0175DDCDE4F5FF759A74AF
:10481B00F5FF7594842275FF0175DC5375FF0175E7
:10482B00DD33E4F5FF759A14F5FF75940422E4F576
:10483B00FF75933F75FF03759A401247D6E4F5FF5A
:10484B00759C93F5FF75A1A3F5FF758531F5FF7584
:10485B008628E5FA54304480F5FA75FF0175E74A6E
:10486B0075FF0275DF4975FF0143D30475FF0153D3
:10487B00D367E4F5FF53E6BF75FF0175D825F5FF48
:10488B0075B503F5FF75B215F5FF75BA02F5FF7532
:10489B00AFB3F5FF75CD0AF5FF75CB08F5FF75CAFC
:1048AB0012F5FF75BF0EF5FF75CC96F5FFF5BDF54F
:1048BB00FF75C281F5FF75AEE1F5FF75DA55F5FFB2
:1048CB0075F580F5FF75E903F5FF75E933F5FF75B0
:1048DB00972A75FF01759B42759CA4759D29759E42
:1048EB0048759F2475A11275A312759AF820440C74
:1048FB00F5FF43968090120FE04440F02275FF01C4
:10490B0075E46575FF0175D64722902E16EDF09074
:10491B001211E0F46005A3E0B4FF0C902E1874188C
:10492B00F0A37413F08010901211E0902E18F090F9
:10493B001212E0902E19F0120D6964016002417E93
:10494B00902E16E0FE64086004EEB40408902E1757
:10495B007428F08006902E17743AF0EF122AD3FFCA
:10496B001210A7E45186EF24D8FFEE343FFEED344E
:10497B0093FDEC3416FC7B007A80790378001203EC
:10498B008351AB902E19E0FF902E18E0C3517FE4BA
:10499B00FCFD120F8AECC0E0EDC0E0EEC0E0EFC012
:1049AB00E0902E19E0FFE4FCFDFE5186D0E0FBD039
:1049BB00E0FAD0E0F9D0E0F8EB2FFBEA3EFAE93D64
:1049CB00F9E83CF8902E17E0FFE4FCFDFE120F8A8D
:1049DB00EF2454FFEE340B122963E47BA87A16F90B
:1049EB00F8120383CBEFCB902E16E014605D1460AE
:1049FB001B24FE600C24FC707AE4F5FF75CE31802D
:104A0B0006E4F5FF75CE21F5FF8BCF22E4FAE4F532
:104A1B00FFEA2440F5CEE4F5FFEAFFC37407517FAC
:104A2B0074922FF58274053EF583E4518EC39DF588
:104A3B00CFE4F5FFEA2448F5CEE4F5FFEA900592C2
:104A4B00518E2DF5CF0AEAB408C422E4F5FF75CEDA
:104A5B0001F5FF8BCFF5FF75CE0EF5FFEB25E0F5DE
:104A6B00CFE4F5FF75CE0FF5FFCFEBCFEB75F00372
:104A7B00A4F5CF229FFFE49400FE227B64FAF9F8A1
:104A8B00020F8A9325E0FDE433FCEB75F010A4FFD5
:104A9B00AEF0120E6ECDEFCDEBFFE4C313EF13228E
:104AAB00C8ECC8C9EDC9CAEECACBEFCB2275FF0162
:104ABB00E5D530E602C32253FACFEFB4080543FA2B
:104ACB00308012EFB4040543FA208009EFB40205DD
:104ADB0043FA108000D322E5F75406FFBF06037F8D
:104AEB000822E5F75406FFBF04037F0422E5F754C1
:104AFB0006FFBF02037F02227F0122EFB40109D21E
:104B0B00AD75FF0143AE4022C2AD75FF0153AEBF81
:104B1B0022E5C85402FF75C80222E5C85401FF22E2
:104B2B00902DED121196E4902DF0F0A3F0902DF056
:104B3B00E0902DEDB118902DF0EFF06010E0FFC27A
:104B4B00511209E8EF6006902DF1E004F0902DF082
:104B5B00E070DAA3E0FF22902BFA123F657F02127E
:104B6B000AA6902C03121196EA494B605F902BFB1F
:104B7B00E0FF71DAB111EF120E28E49003C3F0904D
:104B8B0003B212118D712BEF600D902BFAE04442A2
:104B9B00F071DA24D971E2902BFCE0FF30E11B714C
:104BAB00DA24BA71E2EF54FC902BFCF0FE902C81CE
:104BBB00E054FDF071EB7D01800C902BFCE054FE7A
:104BCB00F0FE71EB7D02120B237F01227F002290FE
:104BDB002C0312118DE922F9E43AFA74FF020E2824
:104BEB00902BFAE0FF902C00E0900428F0A3EEF05D
:104BFB00902C01E0FDA3E090042ACDF0A3EDF09002
:104C0B002C0312118D90042C121196902BFD021176
:104C1B008D902C07121196902C06EFF0902C11749E
:104C2B0003F0902C0EE05457FEF0902C82EFF09096
:104C3B002C0FE0FDA3E0902C7FCDF0A3EDF0902C9A
:104C4B000A12118D902C85121196902C0DE0902C40
:104C5B0083F0902C0712118D9003B2121196EE4433
:104C6B0020902C81F0E4902C84F0C234F53D902CF4
:104C7B000712118DAF3D1208A88F3DEF602A7D03FF
:104C8B00120A6040E9902C0DE0D3941940037F0089
:104C9B0022AF3D120A5B5008902C117401F0800872
:104CAB00902C117402F080C6902C0DE0FED39482F0
:104CBB0040037F0022902C0EE0FB902C1130E01073
:104CCB0091FDC003B105902C00EEB11FD0038020E5
:104CDB0091FDB105902C0DE0902C00F0902C7FE015
:104CEB00FBA3E0902C01CBF0A3EBF0902C0EE0FBA0
:104CFB006162E0FF902C06E0FD22902C0A12118DD0
:104D0B00902BFD02119624B6F9E43AFA22FF121108
:104D1B008D0208A8F0A3744DF0A37429F022EF6064
:104D2B0004902C84F09003C3E09003B2B11890036D
:104D3B00C3EFF0603E20343B902C82E0FD902C853D
:104D4B00B18B902C83E090041BF0902C81E09004AD
:104D5B001CF0A37480B11F9003C3E0FBE4FF120BA4
:104D6B0028EF701B902C847402F0902C7FB1947FF1
:104D7B00028009902C84E0902C7FB19D1212CD22E1
:104D8B0012118D900418021196E0FEA3E0F5828EAD
:104D9B008322FFE0FCA3E0FDF5828C8322C003C0DD
:104DAB0002C001902C5412118D902C0A1211969066
:104DBB002C57E0902C0DF0902C58E0902C0EF0908E
:104DCB002C59E0FFA3E0902C0FCFF0A3EFF0D00114
:104DDB00D002D003AF45811CE4FF3020037402FFE7
:104DEB0022200005D21502099DC322902F2AE070C4
:104DFB001C7BFF7A04796D7D23120AC47BFF7A0436
:104E0B0079567D17120AC4902F2A7401F022020AD8
:104E1B00C9902EC31217D1E4FF902EC3D134E59362
:104E2B00120E3A0FEFB410F12212118D8F8275838F
:104E3B000022EFB40107D1544401F58F2275FF0115
:104E4B00E58F54F04406F58F2275FF01E58F54F67C
:104E5B0022D1544408F58F2275FF01E58F5408FFCA
:104E6B0022EFB4010775FF0143AE202275FF0153FA
:104E7B00AEDF2275FF01E58F5401FF22EFB401076E
:104E8B0075FF014391202275FF015391DF22A3F09F
:104E9B009027647401F0A3227B007A007945902D52
:104EAB00761211960B7A07793922902B15E0FEA317
:104EBB00E0FFF5828E8312119F902B0C1211968FAF
:104ECB00828E83740593FF740693902B1ACFF0A3F5
:104EDB00EFF02275F005A424F3F9740035F0FEAF62
:104EEB000122E0FFA3E090041ECFF0A3EFF022FD20
:104EFB00EF4DFFE5F08FF0020F50F0A3F0A3F0A3FE
:104F0B00F0227E00902BBF12118DE92FF9EE3AFAA9
:104F1B00902BC6E0FFA3E0902C62CFF0A3EFF02222
:104F2B00902B2302118DEF54F84402FFEE8FF00209
:104F3B000F5012118DE924BDF9E43AFA227C0029B5
:104F4B00F9EC3AFAE924FFF9EA34FFFA020D69FAAF
:104F5B00120D69C4540F227405F002258424B2F992
:104F6B00E43AFA22F9E43AFAEE020E28E0FFA3E063
:104F7B00902BC2CFF0A3EFF02212118DEA494B22F6
:104F8B00902B18E0FEA3E0FFD3902B1BE09F902B00
:104F9B001AE09E22A3E0F8A3E0C39DFEE89C902DAF
:104FAB000AF0A3CE22E0FCA3E0F5828C832212113F
:104FBB008DE9240322EFF0A3EDF0A322E4120E28D7
:104FCB000429F9E43A22E0FFA3E0902C6BCFF0A385
:104FDB00EFF022AF05F0A3EFF022E92408F9E43A51
:104FEB0022E99582EA958322E92406F9E43AFA222A
:104FFB00902B19E029FF902B18E03A22F0A3EDF04B
:10500B00E4A3F0228D828C830212CD902B18E0FC4E
:10501B00A3E0FD29FF22F09028457401F022121124
:10502B008D902D722229F9EC3AFA120D69FE22E0CD
:10503B00FFA302118D75FF01438E1075FF012290A6
:10504B002B15E0FCA3E0FDC322F9E43AFA1211ABF5
:10505B00E922E0FF902767F07B012212118DE92FE7
:10506B00F9EA3E22902B18E4F0A37405228D828C72
:10507B008374039322EEF0A3EFF07B0122FFAEF0DB
:10508B0054076403227438F0A37420F02212119693
:10509B00902B4AE0227B017F04020885F582E434E1
:1050AB0003F583227401F0AE04AF0522AA06A9070B
:1050BB000212C912258474FFFDFC22F582E43EF531
:0350CB0083E0225D
:107F7E000200022B162FD002060A022FD23000006A
:107F8E003304060A0230053807080705060A0238C8
:087F9E000C381A0013FF060A5B
:107FB000FFFFFFFFFFFFFFFF7FC600000000000084
:067FC000000003080000B0
:108000007B01E4FFAE051DEE6009EF120E2812D6CB
:10801000B780F122902E3AEFF0A3121196B18F3172
:10802000444AC36001D3400201FF12D6FA5013E064
:10803000FF9404500280027F04314424BDB18512B4
:10804000D70E902B231236A25467902B363143243F
:10805000DF515F902B31314324E6515F902B373154
:108060004324E7515F902B38314324E8515F902B34
:1080700039314324E4515F902B2F314324E5515F84
:10808000902B30314324E91236A812D6ECF0124F6F
:108090002B129EB0E4902B26314324DC1236A845E7
:1080A000F06053902E3AE0602EA312118DB1897BBF
:1080B000017A2B792A7F05B1B6B1A9C003C002C0ED
:1080C00001314424DC1236A8F58285F083D001D03A
:1080D00002D003E4FF801CB1A9C003C002C001317B
:1080E0004424DC1236A8F58285F083D001D002D07A
:1080F000037F011212CD12255E902B2312119622BE
:108100000214BD902D731211967E007F1412256506
:10811000902D761217F1902D7612A857700F041239
:108120000E2812D761601B7E007F08800912D7617C
:1081300060107E007F10902D731250297404F0128D
:10814000169822F0902B2312118DE922902B2312E6
:108150001196E924E3515F6017E4902B3A31431202
:1081600038DA7401120E287E0A7F92FD7C0021F617
:1081700031442401515FD394014040120B1E902BD7
:108180003AEFF07E0A7F92314424B7515F30E71E08
:10819000314424BB515F20E015314424BC515FFDC4
:1081A000C4540FFCED540FB504047D07800931441D
:1081B00024B1515F12D77A7C00803BE4902B3AF0D7
:1081C0007E0A7F92314424B7515F30E71E31442448
:1081D000BB515F20E015314424BC515FFDC4540FF6
:1081E000FCED540FB504047D078009314424B151DE
:1081F0005F12D77A7C00020B197D01AF3C300C5323
:10820000ED6017E4FE71E0E0B5070971E0E4F0719C
:10821000D3E4F0220EEEB405EC22902682E0FDE4D9
:10822000FCFE71E0E0B5070E71D3E0C394FF50236C
:1082300071D3E004F02271D3E0FBEDD39B4004AD99
:1082400003AC060EEEB405DAEC71E1EFF0EC71D49C
:108250007401F022C217902BC912118DE92402F982
:10826000E43AFA020D6931444AC36001D3507431D3
:10827000441238DA74FF120DD3120D69FFD3940142
:108280004007EF94035002804C31442401515F6455
:10829000017048902B231236A21250887037314457
:1082A00024B6515F6545702D314424B7515F20E7F6
:1082B00024314424B9515FD394405019200D163114
:1082C000442404F9E43AFA124F31314424B7515F9F
:1082D0004410120E28124F2B0295D5E4902B26F055
:1082E000120B2D22902E3E121196E94AC36001D343
:1082F000400261B9902E3E515930E008902E3E1256
:10830000118D214CB18F902E3E12118D12D6FA5044
:1083100013E0FF9404500280027F0471BB24BDB1BE
:108320008512D70E902E3E1236A25467902B3671CE
:10833000BA24DF515F902B3171BA24E6515F902B44
:108340003771BA24E7515F902B3871BA24E8515F36
:10835000902B3971BA24E4515F902B2F71BA24E528
:10836000515F902B3071BA24E91236A812D6EC7105
:10837000BA24E3515F902E417003F080037401F042
:1083800071BB24DC1236A845F06025902E41E0FF39
:10839000B1A9C003C002C00171BB24DC1236A8FD24
:1083A000ACF0F58285F083D001D002D0031212CD5B
:1083B000902E3E12118D129EB022F0902E3E121180
:1083C0008DE922AE058E4812A9D8AD4812AB0CEF4C
:1083D00024FF22EE25E02482F582E43426F5832270
:1083E000EE25E02481F582E43426F58322902EA840
:1083F00012119612D78224B7515F30E712540FFF43
:10840000BF010C12D78224BC515FC4540FFF227FDE
:108410000022902E2B121196902E2AEFF0D394E882
:10842000400AA312118D7D02E4FF0104902E2AE080
:10843000124EDEA312118D12169212B9D4515FFFA3
:10844000902E2B12D6AC12D77291B5515FFF12B994
:10845000D4F9E43AFA12D77212118D902E901211BB
:1084600096902E9012118DE92401515FFF30E11D8D
:10847000902E9012A85730E707123B3B74028026DB
:10848000902E9091B5F9E43AFA74018019EF902E8C
:108490009030E30A91B5F9E43AFA7404800891B592
:1084A000F9E43AFA7403120E28902E9091B5515FB8
:1084B000FF22902BC912118DE9240322902E2E1237
:1084C00011969027C1E0902E31F0300C087A267971
:1084D000F27D231100902E2E91B5515FFF20E243D3
:1084E0004404120E28B1A3B18912B9CD7F0612BA85
:1084F000F112D72B9027C1E02402F012D7BAE4344E
:10850000FFFED3EF9400EE9400406012D7B2400318
:108510007429F012D7BA902E2EB17F7B017A26797A
:10852000F28046902E31E0D3942B4003742BF090D0
:108530002E31E0FFB1A3B18912B9CD12D76A20E183
:108540002A12BAFA915B9027C1E004F0902E31E034
:10855000B42B0214F0902E31E024FBFFB1A3E924E8
:1085600005B1857B017A2679F0B1B69027C1E02468
:10857000F8FFE434FFFE12D7B24003742BF022124E
:10858000118DE92406F9E43AFA902D1E0211967A2B
:108590002B79277D1311007B017A2B792A7D057FAA
:1085A0007F0104902E2E02118D7B017A2B792722D8
:1085B0007A26797B7F05902D1B121196AE071FEE50
:1085C000601F902D1E12A857FE902D1B12118DEECC
:1085D000120E28902D1C1215F5902D1F1215F580E6
:1085E000DB22902BC9121196902BCCEDF07401C3B5
:1085F0009D40030294FC902BCD12A857902BD0F0F5
:10860000E92401515F902BD2F0902BCD5159902B42
:10861000D1F012383840FB120713902BC912A8571B
:10862000FFC394204031EFD394FF502B902BCCE02C
:10863000FD949F5022902BD0E030E7030294FC5130
:108640005C902B4DF0902BCD12118D902D56121168
:1086500096129502020C5E902BC912A85764016015
:10866000030294FC902BD0E030E6030294FCE92452
:1086700001515F1212A38800018CB7028CC8038ECF
:1086800035048EE6058B29068A5F078D4E088D6BB3
:10869000098DC70A8DDD0B8F550D90F10E8E280FB9
:1086A000930E10918D11928E1291F913936F15867E
:1086B000C2169497198DE91A876C1F87DB2000007A
:1086C00094FCE53B6545706812C9D1EF70030294D4
:1086D000FC90274B740BF051567A2779A112AB22EC
:1086E000D2055156FF12C0425156FF9027BF12BA11
:1086F000F991129027C37405F09027497409F0A3EB
:1087000074C0F09026E87402F05156FF902BD2E02E
:10871000B5070CAD4512AEAA12255EE4FF804A51A2
:1087200056FF902BD2E0FD12AEAA12D32C02378353
:1087300090275CE020E0030294FCE53B7003029488
:10874000FC51569027BF124E9A741612C774F0123D
:108750009CB1129E12A37409F0A374CF129E3860CC
:10876000030294FCFBFAF97F02029E86124E9B7470
:1087700020F051567056902766F0A304F091B25144
:108780005FFF33333354F8902BD3F0129502E92472
:1087900004F9E43AFA902BD312AB067025902BD350
:1087A000129545601D902BD3E0FF12255E12B9EAA9
:1087B000902BD3E0FD12255EE4902DB4F07F2012C3
:1087C0000C68902BD3E014F070C18005E49027670B
:1087D000F0129CB112C21A040294EE90274BE07082
:1087E000030294FC12D6BF91B2515FB4010B12CEBA
:1087F000A512CE3CAD381225747D02AF3C02949494
:10880000902BCCE0C39406E4940050030294FC90B7
:108810002795E0FF60209026E8E0B40314902BD069
:10882000E030E7030294FC902BD2E0FEEF6E60068E
:1088300022E4902795F01282565407C39403500EF9
:10884000129502E92404F9E43AFAE4120E28902B76
:108850004AE0540F64017018301E151284B212825F
:108860005F5406FFBF020912D758C21CC21E21B1B5
:10887000300E0221FF9027BEE0600221FF12D74F89
:108880001295021284BC902BD2E0FD9027C0F0908C
:108890002BD0E09027C4F0540244119027C3F090ED
:1088A00026E8E06403702F20120A9026EDE030E104
:1088B000030294FC20080A9026EDE020E1030294D4
:1088C000FCE49027BFF09026EDE07F0030E102AF9E
:1088D00005902B4E806B12D78A6007EF640260020E
:1088E00021E6902BD2E0FF700221B9300B0A9026CE
:1088F000EDE020E1030294FC902BD0E020E76890AB
:1089000026E8E0B40204C212803A12D7215028901F
:108910002B4AE0540F6401702B9026EDE030E124E7
:10892000201E05EF64EF701C301E047FEF800312E1
:10893000C7179027BF800A902BD2E0B4EF0612C76A
:1089400011EF806712D746FD129F8CFB12C41E6088
:10895000109027BE740212255DE4FF1295F8D21A1A
:1089600022E49027BEF022902B4AE0540F6401606D
:10897000030294FC9026EDE020E1030294FC301EFB
:108980000D12D7215008902BD374EFF0801390274D
:10899000BFE0700512C77D80089027BFE0902BD301
:1089A000F0902BD3E0FF60069027BFF0803012D705
:1089B0005812255E7F01020B789026EDE030E1032E
:1089C0000294FC9027BFE0FF600912951CEF60083D
