:020000040000FA
:100000000202DF0218034100B8002202180B22226C
:0100100022CD
:07001300021813E4FFE1BC39
:07001B0002181B75C8012249
:030023000218239D
:03002B0002182B8D
:030033000218337D
:03003B0002183B6D
:030043000218435D
:03004B0002184B4D
:030053000218533D
:03005B0002185B2D
:030063000218631D
:03006B0002186B0D
:10007300021873BB010689828A83E0225002E722B9
:10008300BBFE02E32289828A83E49322BB010CE54F
:100093008229F582E5833AF583E0225006E9258239
:1000A300F8E622BBFE06E92582F8E222E58229F57D
:1000B30082E5833AF583E49322BB010689828A832E
:1000C300F0225002F722BBFE01F322F8BB010DE53B
:1000D3008229F582E5833AF583E8F0225006E92583
:1000E30082C8F622BBFE05E92582C8F222C5F0F8D4
:1000F300A3E028F0C5F0F8E582158270021583E0CD
:1001030038F022A3F8E0C5F025F0F0E582158270FF
:10011300021583E0C838F0E822EF2BFFEE3AFEED3C
:1001230039FDEC38FC2275F008758200EF2FFFEEE5
:1001330033FECD33CDCC33CCC58233C5829BED9A10
:10014300EC99E58298400CF582EE9BFEED9AFDEC6E
:1001530099FC0FD5F0D6E4CEFBE4CDFAE4CCF9A8B4
:100163008222B800C1B90059BA002DEC8BF084CFBC
:10017300CECDFCE5F0CBF97818EF2FFFEE33FEED93
:1001830033FDEC33FCEB33FB10D703994004EB99BD
:10019300FB0FD8E5E4F9FA227818EF2FFFEE33FED0
:1001A300ED33FDEC33FCC933C910D7059BE99A4005
:1001B30007EC9BFCE99AF90FD8E0E4C9FAE4CCFB1D
:1001C3002275F010EF2FFFEE33FEED33FDCC33CC71
:1001D300C833C810D7079BEC9AE899400AED9BFDFA
:1001E300EC9AFCE899F80FD5F0DAE4CDFBE4CCFA0D
:1001F300E4C8F922EF5BFFEE5AFEED59FDEC58FC23
:1002030022EB9FF5F0EA9E42F0E99D42F0E89C451F
:10021300F022E8600FECC313FCED13FDEE13FEEFC9
:1002230013FFD8F122E8600FEFC333FFEE33FEED87
:1002330033FDEC33FCD8F122E0FCA3E0FDA3E0FEA8
:10024300A3E0FF22E0F8A3E0F9A3E0FAA3E0FB2296
:10025300ECF0A3EDF0A3EEF0A3EFF022A8828583E8
:10026300F0D083D082120276120276120276120244
:1002730076E473E493A3C583C5F0C583C8C582C878
:10028300F0A3C583C5F0C583C8C582C822E0FBA31C
:10029300E0FAA3E0F922F8E0FBA3A3E0F925F0F0EC
:1002A300E582158270021583E0FA38F022EBF0A3A1
:1002B300EAF0A3E9F022D083D082F8E493701274B9
:1002C3000193700DA3A393F8740193F5828883E4DB
:1002D300737402936860EFA3A3A380DF75812F0279
:1002E300094A9000E551B0AE071FEE60129000E896
:1002F30071031176FE9000E57103EE11BC80E822D4
:10030300E475F0018090900A12EEF0A3EFF09000F4
:100313004FE064016002619CC3900A12E0940850AC
:100323000BE4FF9153900A12918780ECE4F50DFBE7
:1003330071C5AF0C12103DE50DC39408504771C34E
:10034300E50D7F0071BDEF29F9EA3EFA9000E8510F
:10035300B07B017A0979007FFF51E5E50DFEE424C6
:10036300FFFFE43E71BD8F828E83118F9009FFF0F2
:100373007B017A0979009000FBE50DF0AD0C1210BA
:1003830063050D80B2900050513BE42FFFEE34081B
:10039300120D139000500214BC900054E0FEA3E031
:1003A300FF71BE900A12E0FDA3E09000D1CD1208C8
:1003B300D4900054EEF0A3EFF022FE902001419080
:1003C3007B007A00791012103675FF031176F5D38E
:1003D30075FF0390000171F190000271F190000329
:1003E30071F175D40175FF03E5D55402FF22118F16
:1003F300F5D375FF03229000F1E0FEA3E0FF9130F7
:1004030091539000F3513BEF2401120D109000F330
:100413005153900A18914D900A18E07002A3E070AE
:100423000BFF7E087109120F4212142822B108CD66
:1004330024FFCD34FFFCC3ED9FFFEC9E541FFE74DD
:10044300082F121416FF229000DF74FFF5F001F05D
:10045300B108541FFC74082DF58274203CF583EF1A
:10046300F0902006E0B42019A3E0B4001490200516
:10047300E02401FF902004E03400541FF0A3EFF0C8
:1004830022902006E475F00101F09000BA515390D8
:1004930000BE51B0110AF11EEF6004110F80F71274
:1004A3000F0560099000BA513B7810D1249000BA2F
:1004B300D1209000BA513BE480219000C11208C7BB
:1004C30045F0601B9000BE5190E94A600C1176FF25
:1004D300D1279000BF918780E1E4FFD12780DBF132
:1004E300B79000AF7401F0229000E3E0FF81039026
:0704F3000A1BE014F0E022F7
:10050800902006E0FCA3E0FD902005E02DFD902062
:1005180004E03C22D1C8EF541FFF12148DA37401CC
:10052800F0120F4C9000DCE0FCA3E0FDAE0478056F
:10053800CEC313CE13D8F9FF9000DFEEF0A3EFF08F
:10054800ED541FA3F0A3E4F09000F1F0A3F0C390E2
:1005580000DDE094209000DCE09400407D914A901A
:1005680000E1E0FEA3E0FF9000F1EE8FF011F090C3
:1005780000DFE07004A3E06406700AD1C89000DFD1
:10058800E48FF011F0D1C89000F1E48FF011F0126F
:100598000FFCEF600512148A8005E49000DEF090ED
:1005A80000F1121371701D91309000E3EFF0910388
:1005B80091EB91EB9000DFE07002A3E0604891EBD3
:1005C800914A80F071F971F971F99000DFE07002D9
:1005D800A3E0603271F9914A80F09000DC91878045
:1005E8000A9000DCE07002A3E0600BD1C891039090
:1005F80000DC914D80EB120FFCEF600512148A802D
:1006080005E49000DEF09000DEE06002A12C1214F8
:10061800AB71099000F3413B513B78085115E4E573
:10062800C820E2FB8FEB227F01F1BC900A1C740109
:10063800F0900A1CE06032120FF4D1BC900A1CEF53
:10064800F0120849D1AB9000ACEFF0120849900ABB
:100658001CE054011213BB60D8A3E0F460D3EF3060
:10066800E7CFE4900A1CF080C8F1E87F9FD127D13A
:10067800BC9000ADD1BA9000B2D1BA9000B3F1B538
:100688009000ABE0F4601BA3E0F460169000B2E0C9
:10069800FD541F240FA3F0EDC413540744809000A9
:1006A800B2F022F1E87FD7D1277FFFD127D1C090C0
:1006B80000ABEFF07FFFD127E5C820E2FBAFEB22CC
:1006C800900081E0B4082CA3E0B40027120F2E7B21
:1006D800017A0179009000CA120F45F161120F2EBC
:1006E800E42FFFEE3408120D13120F28E490008156
:0806F800F0A3F0900083120F43
:10070000DB9000835153900081E475F0013106FEC7
:10071000740025F0F58274013EF583E0FF227F012D
:10072000F1BC300216120FF4D1BC900A1DEFF0128A
:100730000849900A1DE020E002C202300219D1AB44
:100740009000ACEF1213BB600BA3E0F46006EF3037
:10075000E702C202120849E4FFF1BCA202E433FF3F
:10076000229000C351539000C751B0110AF11EEFFF
:100770006004110F80F7F1E47F03120F1E600990EF
:1007800000C3513B7810D1249000C3D1209000C306
:10079000120F349000CA1208C745F06011D1BC9006
:1007A00000C75190EF11BC9000C8918780E51208F6
:1007B00049E4FF8007EFF0120849E4FFEFB40104B9
:1007C00043FE202253FEDF229000ABE020E014F134
:1007D000E47F3DD1277F2AD1277F80D1277FA6D1F3
:1007E00027F1B7227F01F1BC9000B0E051B9080AAF
:1007F00004081214081715081C17082C3008313487
:10080000083636083B3700000824531AEF851A8053
:10081000802F531BEF8008531BDF8003531B7F8502
:100820001B90801D531CDF851CA08015531DFE806E
:100830000D531DEF8008531DBF8003531D7F851D81
:10084000B07F0CDFFE2212062712149FEF70FA9081
:1008500000B2E0F4600B900A1B7406F01204F27010
:10086000FB9000B0E01202B9088404088C140891CF
:100870001508961708A63008AB3408B03608B53707
:100880000000089E431A10851A80802F431B108099
:1008900008431B208003431B80851B90801D431C45
:1008A00020851CA08015431D01800D431D1080086C
:1008B000431D408003431D80851DB0900A1B740CAE
:1008C000F01204F270FB2274FFF5F0020106E0FD65
:1008D0009000D1E4F0A3EDF09000CCEEF0A3EFF0A7
:1008E000A31202B09000D111C745F060549000CE21
:1008F0001202901200769000D3F09000CF1204877D
:100900007D80ED60DF3141EE7C0030E7027C0190BC
:1009100000D3E05D7B0060027B01EB6CFCEF25E027
:10092000FFEE339000CCF0A3EFF0AF04EF600C903B
:1009300000CCE06410F0A3E06421F0EDC313FD806F
:10094000C19000CCE0FEA3E0FF2275FF03759E027C
:100950009017FAE493900A0FF075FF02E5E654034E
:100960006002618B7510DE7511AD7512BE7513EFE7
:10097000C2AF75FF0275E404F5E4751AFF751BFF3D
:10098000751CFF751DFF7516FF7517FF7518FF7530
:1009900019FF75FF0253E6BFD11A1210DAB11BEF2F
:1009A00064016002618290180893FE740193FF90C5
:1009B000007FEEF0A3EFF0F5828E83E493FE7401E6
:1009C00093FFC3EE9480500280047E807F008E14DB
:1009D0008F15B1F7FFF5828E83740293F51E7403B1
:1009E00093F51F740493F508740593F50974069341
:1009F000F50A740793F50BC201EF4E700241E4EF64
:100A0000F4FFEEF44F700241E4E514451EFEE515D7
:100A1000451FFFE5084EFEE5094FFFE50A4EFEE5DE
:100A20000B4F4E700241E4E51FF4FFE51EF4FEE5B6
:100A300015F4FDE514F44EFEED4FFFE509F4FDE578
:100A400008F44EFEEF4DFFE50BF4FDE50AF44EFE13
:100A5000EF4D4E700241E47F03718EE50B24FFFFE2
:100A6000E50A71BC640370227F02718EE50924FFE0
:100A7000FFE50871BCB402127F01718EE51F24FFEF
:100A8000FFE51E71BCB40102D2012001577F017144
:100A90008E71B59000D1E51EF0E51FF13B71A07F8E
:100AA0000271AB9000D1E508F0E509719E7F0371FA
:100AB000AB9000D1E50AF0E50B719E7F01718E903D
:100AC0000A10E0FEA3E0FF7BFF7A187900E4251509
:100AD0009000D2F0E51434E89000D1719F4EC370BD
:100AE00001D39201300109F1ACEF6401600261822F
:100AF000D20091FB7B017A007964B1D8741BF012AB
:100B00000761900064E0B4800B9153EF70061214FB
:100B100046EF6002C20030006530011AB1F7F5827D
:100B20008E83740C93FE740D93FF90007DE06E70C5
:100B300003A3E06F604890005012025F00001800AD
:100B400091FBF128F12EEF2401B110B1D27404F021
:100B5000120761900087B10A9000871214BC9000C0
:100B600081F14590004F04F012051C7440D3950CA0
:100B7000400C1203C3AF0C12103D050C80EDE4FFD6
:100B8000F186E4F510F511F512F513021800AEFF29
:100B9000EE54CFFEEFC454F024804EF5FF22A3F0B4
:100BA00011D8900A10EEF0A3EFF022718E900A1087
:100BB000E0FEA3E0FF7BFF7A80790022347F8F8202
:100BC000F583E49322900000EEF0A3EFF0A312026D
:100BD0003B900008120253900006E0FFA3E0900053
:100BE0000CCF806090000C121371605EC3EF9440D4
:100BF000EE94004006A37440F0800590000EEFF0E4
:100C0000B1FFE0FFB1D8EFF090000812023B1207ED
:100C10006190000EE0FFC390000DE09FF090000C8B
:100C2000E09400F090000812024790000EE4FCFDF2
:100C3000FE12011C900008120253914AB1FF11CE1E
:100C4000900000EEF0A3EFF0809A900000E0FEA389
:100C5000E0FF2291FBB101900006E4F07405F13B46
:100C600091F0C006C00791FBEF2407B110B10190CD
:100C70000006E4F0A37414F0D007D00691F0C0068B
:100C8000C007B107B101D10940067EFF7FFF800692
:100C900090006512023B900006EEF0A3EFF0D00743
:100CA000D00691F0D109402F91FBEF241AFFE43ECA
:100CB000FEED3401FDE43CFCB10190006512023B05
:100CC000EF2401FFE43E900006F0A3EFF0900A1637
:100CD000E0FEA3E0FF91F0900069E0FEA3E0FF904A
:100CE0000A16E06E7003A3E06F7F0060027FFF22B0
:100CF00071C5900A16EEF0A3EFF0229000A6020252
:100D00003B9000020202539000A612023BEF241B0C
:100D1000FFE43EFEE43DFDE43CFC22E49000AAF04A
:100D20007B017A007995121378900097E0FF741197
:100D3000D39F5077E4FFFEFDFC7B017A0079FE90A3
:100D400000CAF0A37402F01207619000FEE0FEA357
:100D5000E0FFE4FCFDB1CC91FBEF2402B110B1CC7B
:100D60009000B5E024FFFF9000B4E034FFFEE4FC07
:100D7000FD9000A61202471201F79000FCEEF0A3CE
:100D8000EFF09000A61202479000FCE0FEA3E0FF07
:100D9000C39000B5E09FFF9000B4E09EFEE4FCFD30
:100DA00012011CB1CC9000AA7401F09000AAE0FBE3
:100DB0006017E4FFFE7D02FC900097E024EFF9F855
:100DC00012022890008F120253AF03229000A60255
:100DD00002537B017A0079839000CAE4F0A3229148
:100DE000FBEF2401B110B1D27404F0120761B10716
:100DF000F128900081E14590007FE0FEA3E0227B96
:100E0000017A00790F90000E22E47FFF7EFFFDFC47
:100E1000900065120247D3020204E4900A1EF0908B
:100E20000A1EE0FFD3946F501EEF2410FFF198903C
:100E30000A1EE0FEE42EF582E4344FF583EFF090D5
:100E40000A1EE004F080D87B017A4F79009000D12F
:100E5000E4F0A37470F07F0F7E1D11D8EF4E7F0079
:100E600070027F01901218EFF024FF22900A09EB24
:100E7000F0900A05120253900A0512023BD1C3906A
:100E80000A09E06F603B12000A12071EEF600512AC
:100E9000000F80F5F105600B900A0512023B7810F7
:100EA000120624900A05120620900A05F134900AD1
:100EB00009E0FF1206271207B79000AF7401F0D3C4
:100EC00022C322900A0012025312000A12071EEFD8
:100ED000600512000F80F51207E47F03F11E600B1E
:100EE000900A0012023B7810120624900A001206A3
:100EF00020900A00F1341206BC900A041207B59043
:100F00000A04E0FF227F011207BCD2021207E87F29
:100F10000612062711491207E89000AEE0FF1206FC
:100F2000279000B1E06402229000870202539000F3
:100F30008702023B12023BE4020627A3F07F0F7EEA
:100F40001D22900A187408F0A3E4F022F1429000E8
:100F5000F312025F00000000E4902004F0A3F0A36D
:100F6000F0A3F07B017A2079089020011202B0E40E
:100F7000902000F0227F0F7E1D11D09000D8120229
:100F8000909000DB01CEAB07E4FF9000AAE0600781
:100F9000F1D8D16CE433FF2275FF03E4F59712100A
:100FA00021E59720E1FB75FF03AF9922E4900A1A2F
:100FB000F09000AAE0601B90008F12023BE4FBFA65
:100FC0007902F8D31202045009F1D8D1C3900A1A59
:100FD000EFF0900A1AE0FF229000A612023BEF24E5
:100FE000FFFFEE34FFFEED34FFFDEC34FFFC22E4A6
:100FF000FCFDC1C31207E87F05020627E4FFFEFDE2
:10100000FC900083120E137F0040027F012275FFC7
:10101000037597011121E59720E1FB75FF03AF9957
:101020002275FF038F9875FF0322113675FF03E5C4
:10103000D5F45402FF2275FF0375D4022275FF0315
:10104000EF543F4480F5D1E5D520E20AE5D520E014
:1010500005E5D530E1F1E5D55403FF75FF0375D5FE
:101060000580D375FF03ACD5EC20E13C75FF03EDA3
:10107000543FF5D175FF03E9F5D375FF03EA540F2B
:10108000FF9000FBE0C4547044804FF5D2E5D520BA
:10109000E205E5D530E0F6E5D55401FC75FF0343E4
:1010A000D40275FF0375D505AF042212000A12079A
:1010B0001EEF600512000F80F57F011207BCD202FF
:1010C0001207E87F061208461207E87F011206277A
:1010D0007F03120846E4FF0207BC7B017A0079B067
:1010E0007F0351E47A0079B97F0851E47A0079B638
:1010F0007D027F0951847B017A0079B47D027F0BE8
:1011000051849000B471716006BEFF16BFFF135189
:10111000F35002800451FC80099000B4E4F0A37401
:1011200040F051F3500280089000B17403F0800643
:101130009000B17402F09000B0E01202B9115904AD
:10114000116414116C15117417118A301192341135
:101150009A3611A2370000117F75FF015316EF85F3
:1011600016FD804775FF015317EF800E75FF015381
:1011700017DF800675FF0153177F8517C9802C750F
:10118000FF015318DF8518CA802175FF015319FE2E
:10119000801675FF015319EF800E75FF015319BFBB
:1011A000800675FF0153197F8519CB1208497F11FD
:1011B00051DEE4FF710612062F9000AE7402F0902B
:1011C00000B2E0247F600904701651EB740A8007B6
:1011D0001207C851EB7458F09000B17403F051FC41
:1011E0009000B3E0F4600241829000B6E0FEA3E01C
:1011F000FF64104E70069000B3740EF0EF64204E42
:1012000070069000B3740FF0EF64404E70069000CB
:10121000B37410F0EF64804E70069000B37411F058
:10122000E4B5070AEEB401069000B37412F0E4B519
:10123000070AEEB402069000B37413F0E4B5070A8F
:10124000EEB404069000B37414F0E4B5070AEEB4EB
:1012500008069000B37415F0E4B5070AEEB4100662
:101260009000B37416F0E4B5070AEEB420069000BF
:10127000B37417F0E4B5070AEEB440069000B374F7
:1012800018F001AB900A0AEFF0A3EDF0A31202B040
:10129000900A0BE06047901218E06013900A0AE091
:1012A0002410FF120F98900A0C120290EF801790F2
:1012B0000A0AE06401900A0C7007120290748080A0
:1012C0000512029074FF1200BC900A0D1204879060
:1012D0000A0BE014F0900A0AE004F080B322EF4415
:1012E00020F5FE227D0151847B01227F1051DE908A
:1012F00000AE229000B9E024FE24FD229000B474D8
:1013000001F0A3E4F022900A14EFF0E4A3F09000BF
:10131000B9E0FFB40209740F716974B9F0800CEF81
:1013200064047044743D71697479F01207E4900AA2
:1013300014E060079000B8E0FF80027FAB12062740
:10134000120849900A14E09000B8F07016900A153F
:10135000E0D39400400D7FFF120627900A15E01499
:10136000F080EAE4FF1207BC22900A15F09000B862
:1013700022E0FEA3E0FF4E229000ADE01200BC9000
:1013800000B2E09000011200CE9000B3E0900002A5
:101390000200CEAB05E4FCFD020E6C9000ED1202E3
:1013A000B0E4FCFDC0079000ED1202909000F0E068
:1013B000FF120DD8EFF0D007020761F09000ABE00C
:1013C000FFF42212000A12071EEF600512000F80C0
:1013D000F5229000AFE0FF22E49000AFF0229012DF
:1013E00018E024FF22901218E060057F10020F9889
:1013F0007FFF22902004E0FEA3E0FF24089116FD69
:10140000EF2401FFE43E541F902004F0A3EFF0A36B
:1014100012044DAF0522F58274203EF583E0229040
:101420002006E0FEA3E0FF22902000E0045403F039
:101430007F0033333354F8FEEF2408F974203EFA6A
:101440007B01A30202B0900054741DF0A3740FF04E
:10145000120DDFE490004FF012051C90006BE0FECF
:10146000A3E0FF900054E06E7003A3E06F7F006084
:10147000027FFF22EFB40109D2AD75FF0143AE40F8
:1014800022C2AD75FF0153AEBF221206C89000DC28
:10149000E4F0A3EFF022E5C85402FF75C80222E58C
:1014A000C85404FF22E5C85401FF22900A18E0FE48
:1014B000A3E0FFC3E49FFF74089EFE22120253E4E0
:1014C000FB7A08F9F890005012023B1201658F0C6C
:0114D00022F9
:1017FA00060AFFFCFFFF02184E026DAE19A37FB85E
:10180A00822D1C161311101000026DD2EF90181FB2
:10181A0093901900730A20364CE579FF22EFF57987
:10182A002202589241707045765363686564756CFC
:10183A0065720082D81E2B1958195D196C19711915
:10184A007602597D75819F75FF03759E02121920D4
:10185A0002328F022F489029DDE47E019360F4A3BF
:10186A00FF543F30E509541FFEE493A360010ECFF5
:10187A0054E0B4E00EEFFAEEF9A3A3A3A3DAFDD97C
:10188A00FB80D654C025E0604B5026E493A3F8545D
:10189A0007240CC8C333C4540F4420C8834004F43B
:1018AA0056800146F6DFE480B001020408102040A9
:1018BA0080E493A3FAE493A3F8E493A3C8C582C887
:1018CA00CAC583CAF0A3C8C582C8CAC583CADFE924
:1018DA00DEE78085E493A3F8E493A34003F680014E
:1018EA00F208DFF40218635A2D5761766520362E06
:1018FA00313000FF0201C0797419C0E0C082C08390
:10190A0075790AE5FF54CF4490F5FF22C07974191E
:10191A00C0E0C082C083757920E5FF54CF4490F5BA
:10192A00FF22C0797419C0E0C082C083757936E598
:10193A00FF54CF44A0F5FF22C0797419C0E0C082D9
:10194A00C08375794CE5FF54CF44B0F5FF229081EE
:10195A00AA21169081BE211690C002211690A06A73
:10196A00211690E011211690E02921169095CB219D
:10197A001690E0E7211690CC55211690EFCF21164C
:10198A0090DDE9211690A153211690F11D211690A0
:10199A00F139211690F191211690DB15211690F15B
:1019AA0094211690E13E211690AE39211690D4CAA0
:1019BA00211690D425211690D407211690DAAA214F
:1019CA001690D43B211690DA97211690D71E21162D
:1019DA0090DDCB211690DD0A211690D903211690AD
:1019EA00DFA3211690DF24211690F256211690DEED
:1019FA0093211690D47A211690AC00211690D2C960
:101A0A00211690D0F2211690F427211690F46E2117
:101A1A001690F4B3211690F4E7211690F5322116A8
:101A2A0090F5C9211690F579211690F5F0211690B6
:101A3A009E47211690D34121169081EF211690F3EB
:101A4A002A211690F652211690F67A211690CF275F
:101A5A00211690D3C1211690CFBF211690D71121FC
:101A6A001690CC0A211690CBF5211690F31921165F
:101A7A0090CF42211690F689211690E153211690B3
:101A8A00CF34211690F6B7211690F764211690F8F4
:101A9A00BF211690E240211690D39E211690E13D77
:101AAA00211690F8D1211690E249211690CFAE2145
:101ABA001690F95F211690E23A211690C66F211608
:101ACA0090C374211690D147211690E7A121169050
:101ADA00E770211690E6E3211690B772211690EB73
:101AEA00DD211690B7B5211690EB7D211690EAFB01
:101AFA00211690E130211690F9D1211690D7522162
:101B0A001690E170211690CDF5211690BC20211671
:101B1A0090BE39211690E8B6211690E9BC2116909C
:101B2A00FC4B211690E68C211690FC7E211690E93A
:101B3A0039211690EFB0211690EDF2211690809778
:101B4A0021169080FB2116908000211690815F213A
:101B5A001690C9182142908611214290C9F121425A
:101B6A00909C632142909EF5214290C9F4214290B3
:101B7A009B30214290B95B21429081B721429080EB
:101B8A00A72142909AFB214290CBA8214290CBDA1E
:101B9A00214290CD46214290CDBE214290A0DF2124
:101BAA0042909B68214290D3652142909C842142B5
:101BBA0090D626214290822C214290D8012142902F
:101BCA00D846214290D811214290D85B214290DA1E
:101BDA000F214290A11C214290DACA214290DB4B8C
:101BEA00214290DAEF214290DB7E214290DBDA211A
:061BFA004290D89D21423B
:101C0000909B2F214290DBFB214290DC14214290DB
:101C1000B8F8214290DCAA214290DCFA214290B926
:101C20004E214290800021429080D1214290DD01DE
:101C3000214290DD13214290DD2C214290DD532181
:101C40004290AFEE214290C9C0214290DD8E2142E8
:101C500090DD93214290DDA4214290DDCD21429080
:101C6000DDF3214290DE3A2142908B2B214290B14C
:101C70005A21429089BB2142908621214290B05A3C
:101C8000214290A14F214290CC46214290E0042174
:101C90004290C130214290E092214290E0D4214212
:101CA00090E1C9214290E18D214290DFE9214290EB
:101CB000E27D214290C1DD214290C82121429095D0
:101CC0004E21429092ED214290C3E721429088FE3E
:101CD000214290C9D8214290C9E0214290E2C82116
:101CE00042909ACA214290C437214290CD56214257
:101CF00090CD64214290C88D21429088C9214290A4
:101D0000C9D1214290C9C5214290C890214290C9B1
:101D1000CB214290C4E121429095A8214290E3BF9B
:101D2000214290BCE2214290CCE6214290E4752110
:101D30004290BCB121429081D7214290B49221427D
:101D400090EA50214290C1AC214290C1D6214290EC
:101D5000EBD421429088CF214290CD72214290D283
:101D600098214290AD63214290EC57214290B741B7
:101D7000214290CF24214290D223214290EC69212C
:101D80004290AE02214290CDA1214290C456214200
:101D900090A75E214290A4DB214290A70F214290A0
:101DA000C123214290C11021429081A1214290C4BF
:101DB000E7214290C0D6214290A585214290A18280
:101DC000212C90A1D6212C9080AF212C90A6CE2141
:101DD0002C90A6CF212C90A888212C908052212CC9
:101DE00090A8A1212C90A8B4212C90A8B9212C90C6
:101DF0009AB7212C909ABA212C909A69212C90ACF8
:101E0000B1212C90ACD9212C90B710212C90A46337
:101E1000212C90B909212C90BB0E212C90BB1821AC
:101E20002C90A243212C9082E3212C90CEB7212C20
:101E300090A183212C90D050212C90A08C212C900B
:101E4000D150212C90D152212C90D3B4212C90D45C
:101E50002B212C90D4D8212C90D6A8212C90D6BC04
:101E6000212C90D6DD212C90D72E212C90D77721B4
:101E70002C90D79B212C90B790212C90B792212C9D
:101E800090D987212C90D9F7212C908741212C9033
:101E90009A6C212C90D9A7212C00E709F608DFFACB
:101EA0008046E709F208DFFA803E88828C83E709E2
:101EB000F0A3DFFA8032E309F608DFFA8078E3095D
:101EC000F208DFFA807088828C83E309F0A3DFFADE
:101ED000806489828A83E0A3F608DFFA80588982C9
:101EE0008A83E0A3F208DFFA804C80D280FA80C6B1
:101EF00080D4806980F28033801080A680EA809A46
:101F000080A880DA80E280CA803389828A83ECFAF2
:101F1000E493A3C8C582C8CCC583CCF0A3C8C5824E
:101F2000C8CCC583CCDFE9DEE7800D89828A83E4F3
:101F300093A3F608DFF9ECFAA9F0EDFB2289828A77
:101F400083ECFAE0A3C8C582C8CCC583CCF0A3C893
:101F5000C582C8CCC583CCDFEADEE880DB89828A13
:101F600083E493A3F208DFF980CC88F0EF60010EE0
:101F70004E60C388F0ED2402B4040050B9F582EB42
:101F80002402B4040050AF2323458223901EEA7339
:101F9000BB010689828A83E0225002E722BBFE024F
:101FA000E32289828A83E49322BB010B89828A839C
:101FB000F8E0C828F0E822500327C722BBFE07F844
:101FC000E3C828F3E8228A838982E49322BB010CC8
:101FD000E58229F582E5833AF583E0225006E9257A
:101FE00082F8E622BBFE06E92582F8E222E5822994
:101FF000F582E5833AF583E49322BB010989828A5D
:1020000083F8E028F022500327F722BBFE05F8E30F
:1020100028F3228A838982F8E4932822BB010FF8EF
:10202000E58229F582E5833AF583E028F02250091C
:10203000C58229F8E58226F622BBFE09C58229F869
:10204000E22582F222F8EA2583F583E9932822BB70
:10205000010689828A83F0225002F722BBFE01F337
:1020600022F8BB010DE58229F582E5833AF583E884
:10207000F0225006E92582C8F622BBFE05E925823A
:10208000C8F222EF8DF0A4A8F0CF8CF0A428CE8D5A
:10209000F0A42EFE22BC000BBE0029EF8DF084FFC1
:1020A000ADF022E4CCF875F008EF2FFFEE33FEEC34
:1020B00033FCEE9DEC984005FCEE9DFE0FD5F0E95B
:1020C000E4CEFD22EDF8F5F0EE8420D21CFEADF05A
:1020D00075F008EF2FFFED33FD4007985006D5F05F
:1020E000F222C398FD0FD5F0EA22C2D5EC30E70901
:1020F000B2D5E4C39DFDE49CFCEE30E715B2D5E417
:10210000C39FFFE49EFE122095C3E49DFDE49CFC6A
:10211000800312209530D507C3E49FFFE49EFE2282
:10212000C5F0F8A3E028F0C5F0F8E582158270024A
:102130001583E038F022A3F8E0C5F025F0F0E58241
:10214000158270021583E0C838F0E822BB010A89C5
:10215000828A83E0F5F0A3E022500687F009E719B0
:1021600022BBFE07E3F5F009E3192289828A83E4A2
:1021700093F5F074019322BB0110E58229F582E505
:10218000833AF583E0F5F0A3E0225009E92582F8CF
:1021900086F008E622BBFE0AE92582F8E2F5F0089F
:1021A000E222E5832AF583E993F5F0A3E99322BBC4
:1021B000010DC58229C582C5833AC58302212050FD
:1021C00011C58229F808E5F026F618F5F0E5823603
:1021D000F622BBFE11C58229F808E225F0F5F0F2DF
:1021E00018E23582F222F8E58229F582E5832AF5A4
:1021F0008374019325F0F5F0E4933822BB010A893A
:10220000828A83F0E5F0A3F0225006F709A7F019BF
:1022100022BBFE06F3E5F009F31922F8BB0111E534
:102220008229F582E5833AF583E8F0E5F0A3F02210
:102230005009E92582C8F608A6F022BBFE09E92567
:1022400082C8F2E5F008F222EF2BFFEE3AFEED39FC
:10225000FDEC38FC22C3EF9BFFEE9AFEED99FDECFE
:1022600098FC22E88FF0A4CC8BF0A42CFCE98EF033
:10227000A42CFC8AF0EDA42CFCEA8EF0A4CDA8F0EE
:102280008BF0A42DCC3825F0FDE98FF0A42CCD35B2
:10229000F0FCEB8EF0A4FEA9F0EB8FF0A4CFC5F01C
:1022A0002ECD39FEE43CFCEAA42DCE35F0FDE43C15
:1022B000FC2275F008758200EF2FFFEE33FECD3360
:1022C000CDCC33CCC58233C5829BED9AEC99E582A7
:1022D00098400CF582EE9BFEED9AFDEC99FC0FD533
:1022E000F0D6E4CEFBE4CDFAE4CCF9A88222B80023
:1022F000C1B90059BA002DEC8BF084CFCECDFCE5EE
:10230000F0CBF97818EF2FFFEE33FEED33FDEC3311
:10231000FCEB33FB10D703994004EB99FB0FD8E596
:10232000E4F9FA227818EF2FFFEE33FEED33FDECDF
:1023300033FCC933C910D7059BE99A4007EC9BFCD5
:10234000E99AF90FD8E0E4C9FAE4CCFB2275F01061
:10235000EF2FFFEE33FEED33FDCC33CCC833C81086
:10236000D7079BEC9AE899400AED9BFDEC9AFCE8B4
:1023700099F80FD5F0DAE4CDFBE4CCFAE4C8F92201
:10238000EF5BFFEE5AFEED59FDEC58FC22EF4BFFE0
:10239000EE4AFEED49FDEC48FC22C3E49FFFE49EBB
:1023A000FEE49DFDE49CFC22EB9FF5F0EA9E42F0EA
:1023B000E99D42F0EC6480C864809845F022EB9F70
:1023C000F5F0EA9E42F0E99D42F0E89C45F022E8F3
:1023D000600FECC313FCED13FDEE13FEEF13FFD8FB
:1023E000F122E8600FEFC333FFEE33FEED33FDEC77
:1023F00033FCD8F122BB010789828A8302248350EF
:1024000005E9F802292DBBFE05E9F8022939898280
:102410008A8302248FBB010DE58229F582E5833A88
:10242000F5830224835007E92582F802292DBBFE9B
:1024300007E92582F8022939E58229F582E5833A00
:10244000F58302248FBB010789828A830224DB5033
:1024500005E9F802296FBBFE05E9F802297B22BBDA
:10246000010DE58229F582E5833AF5830224DB50EC
:1024700007E92582F802296FBBFE07E92582F802E9
:10248000297B22E0FCA3E0FDA3E0FEA3E0FF22E421
:1024900093FC740193FD740293FE740393FF22E096
:1024A000F8A3E0F9A3E0FAA3E0FB22BB010DE5826B
:1024B00029F582E5833AF58302249F5007E92582B6
:1024C000F8022945BBFE07E92582F8022952E58278
:1024D00029F582E5833AF58302295FECF0A3EDF05C
:1024E000A3EEF0A3EFF022A8828583F0D083D08200
:1024F0001224FE1224FE1224FE1224FEE473E4933E
:10250000A3C583C5F0C583C8C582C8F0A3C583C56C
:10251000F0C583C8C582C822BB010789828A8302AD
:1025200024E75005E9F8022987BBFE05E9F80229EE
:10253000A022BB010DE58229F582E5833AF58302ED
:1025400024E75007E92582F8022987BBFE07E92521
:1025500082F80229A022F5F0C582A4C582C5F0C583
:1025600083A42583F58322A42582F582E5F03583B3
:10257000F58322E0FBA3E0FAA3E0F922F8E0FBA355
:10258000A3E0F925F0F0E582158270021583E0FAE8
:1025900038F022EBF0A3EAF0A3E9F022E493FB7415
:1025A0000193FA740293F922BB010789828A83029C
:1025B00025735005E9F80229B9BBFE05E9F802299F
:1025C000CB89828A8302259CBB011A89828A83D0A7
:1025D000F0D0E0F8D0E0F9D0E0FAD0E0FBE8C0E0DD
:1025E000C0F00225935016E9F8D083D082D0E0F9EC
:1025F000D0E0FAD0E0FBC082C0830229C2BBFE1645
:10260000E9F8D083D082D0E0F9D0E0FAD0E0FBC086
:1026100082C0830229D422BB010DE58229F582E51F
:10262000833AF5830225735007E92582F80229B918
:10263000BBFE07E92582F80229CBE58229F582E570
:10264000833AF58302259CBB0120E58229F582E5CA
:10265000833AF583D0F0D0E0F8D0E0F9D0E0FAD0BA
:10266000E0FBE8C0E0C0F00225935018E92582F8AD
:10267000D083D082D0E0F9D0E0FAD0E0FBC082C0B5
:10268000830229C2BBFE18E92582F8D083D082D00C
:10269000E0F9D0E0FAD0E0FBC082C0830229D42266
:1026A000D083D082F8E4937012740193700DA3A3C9
:1026B00093F8740193F5828883E4737402936860DD
:1026C000EFA3A3A380DFD083D082E49370127401C0
:1026D00093700DA3A393F8740193F5828883E47338
:1026E0007402936C70127403936D700C7404936E87
:1026F00070067405936F60DDA3A3A3A3A3A380CA90
:102700008A838982E473E5752582F582E5743583D1
:10271000F583B574048582752210AF06858275F540
:102720007422858275F574D2AF22EC8EF0A4CCC5EC
:10273000F0CCCDF8EFA4CEC5F02DFDE43CFCE8A430
:102740002EC8C5F03DFDE43CFCEFA4FFE5F028FEFB
:10275000E43DFDE43CFC22E3F5F009E208B5F06B52
:10276000DFF58067E3F5F009E608B5F05EDFF58098
:102770005A87F009E608B5F052DFF6804E87F00977
:10278000E208B5F046DFF6804288828C8387F00944
:10279000E0A3B5F036DFF6803288828C8387F009BB
:1027A000E493A3B5F025DFF5802188828C83E3F5DF
:1027B000F009E0A3B5F014DFF5801088828C83E384
:1027C000F5F009E493A3B5F002DFF40228868087D0
:1027D00080E9809080D4803E8015806E807E809DD0
:1027E00080B7808D80A380518074803C02289289BC
:1027F000828A83ECFAE493F5F0A3C8C582C8CCC5FD
:1028000083CCE493A3C8C582C8CCC583CCB5F0768D
:10281000DFE3DEE1807089828A83E493F5F0A3E24E
:1028200008B5F062DFF4805E89828A83E0F5F0A368
:10283000E608B5F051DFF5804D89828A83E0F5F036
:10284000A3E208B5F040DFF5803C89828A83E493F7
:10285000F5F0A3E608B5F02EDFF4802A8002805759
:1028600089828A83ECFAE493F5F0A3C8C582C8CCC8
:10287000C583CCE0A3C8C582C8CCC583CCB5F0065F
:10288000DFE4DEE280007FFFB5F0020F2240027F2E
:10289000012289828A83ECFAE0F5F0A3C8C582C8D8
:1028A000CCC583CCE0A3C8C582C8CCC583CCB5F069
:1028B000D5DFE5DEE380CF89828A83ECFAE0F5F0AC
:1028C000A3C8C582C8CCC583CCE493A3C8C582C8BD
:1028D000CCC583CCB5F0AFDFE4DEE280A988F0EFB1
:1028E00060010E4E60ABED2402B404005098F582F6
:1028F000EB2402B40400508E23234582239027CE7C
:1029000073EF4E6012EF60010EEDBB010B89828AFE
:1029100083F0A3DFFCDEFA2289F05007F709DFFC21
:10292000A9F022BBFEFCF309DFFCA9F022E6FC08BB
:10293000E6FD08E6FE08E6FF22E2FC08E2FD08E20A
:10294000FE08E2FF22E6FB08E6F908E6FA08E6CB15
:10295000F822E2FB08E2F908E2FA08E2CBF822E406
:1029600093F8740193F9740293FA740393FB22ECC5
:10297000F608EDF608EEF608EFF622ECF208EDF2B6
:1029800008EEF208EFF222D083D082E493F60874C6
:102990000193F608740293F608740393F6740473B3
:1029A000D083D082E493F208740193F20874029306
:1029B000F208740393F2740473E6FB08E6FA08E67F
:1029C000F922EBF608EAF608E9F622E2FB08E2FA59
:1029D00008E2F922EBF208EAF208E9F2224103C127
:1029E000004103C000E0020200001421E0020200E6
:1029F00002120FE00102000954E00102000AA5E002
:102A00000102120B00E00502120C120F02060A412D
:102A100008FB060114004108FA014108F801C11A37
:102A2000011900011700C131413D8E00413D830075
:102A3000413D8C00413D8D00413D8AFF413C4900B4
:102A4000C11DC102412B2400412BB2FF412BA90023
:102A5000C100412BB300412BB400412BAA01C10599
:102A6000412B23004143F400C13D4339E500000000
:102A70004139E4004139E8004303B7000000430353
:102A8000B40103B7422D7B980743412D000000435A
:102A9000412A01412DE00202121101B0E0010212AF
:102AA0001300E00102129400E0050213BC01B0061D
:102AB000060A414318024143170D4143190860209B
:102AC000353B42DB01000000000000000000000078
:102AD00000000000000000000000000000000000F6
:102AE00000006020355B09000000000000000000CD
:102AF00000000000000000000000000000000000D6
:102B000000000000000050385700000000000000E6
:102B1000000000000000000000C114015000C111BD
:102B2000C11241428505C11EC120C12542238C9896
:102B30004041238E004335AE0000004235AC00001A
:102B40006020234B00000000000000000000000097
:102B50000000000000000000000000000000000075
:102B6000000000004320009F0100502003000000EF
:102B700000000000000000000000000001612726A6
:102B80000E000201050101020E0601010004070406
:102B900001020300000400060805040208031404EF
:102BA00000040014050108090805020803140500C3
:102BB00004001405000600140802020A0A080203B1
:102BC00001000800040014080006001408010800B1
:102BD000140A020D000A0A020C000A0A02080B0A73
:102BE0000A01050C0E0A000400140A000600140A6B
:102BF000010800140E000A0D110E020804140E0044
:102C00000400140E000600140E010800140E010545
:102C100000140E020F0E1211000C0C0E110208040B
:102C2000141100040014110006001411010800140E
:102C3000110105001411000A00141102050E1212F0
:102C40000208041412020C0F0012000400141200F7
:102C50000600141201080014120105001412000AE3
:102C60000014120205001412000C001413020C01CF
:102C70000000020900000002100000140209010017
:102C800014020B0013140007100014020A010014B0
:102C90000204001414020C001414020D01001402AA
:102CA0000E001414021001006024281E0200FFFF11
:102CB0000602FF000602FF000301FF002300FFFFE2
:102CC00003000000130000000200010103000000E7
:102CD0004627750100020104024227FB1D404128DE
:102CE0008200412A30014128880043288501284379
:102CF000432879012843410AAB0060200961EDFFB8
:102D0000FFFFFFFFFFFFFFFFFFFFFFFFFFFFFFFFD3
:102D1000FFFFFFFFFFFFFFFFFFFFFFFFFF7F4A33C4
:102D20000786858E59725A7380847A4F3311FF312A
:102D3000150FFF3124050133070A0210014932CC77
:102D40004C6966656C696E650044330380035A0103
:102D5000602E32D5000000000000000000000000DE
:102D60000000000000000000000000000000000063
:102D70000000000000000000000000000000000053
:102D80000000413321004132CB01C142E002021375
:102D9000C1004CE005021408004C040405E00202E6
:102DA000140D0013E00C02140F00000305000300D3
:102DB000050405060AE00502141B0013FF0405E0E4
:102DC000020214200000433C60000000423C670007
:102DD00000443C6307102232463C5A40464A4E5259
:102DE00056C1274138B8004138B500424378000049
:102DF00041437700C149433375000000413322004D
:102E000041323501423994000041398B00453E92F0
:102E10000000000000453E8D0000000000413E26FD
:102E200000413E2200413E1C00413E2500413E1D26
:102E300000413F2100413F20004442C70000000004
:102E40004143DE00414388FF4243860000C15441B4
:102E500038F0005B38D400000000000000000000E3
:102E60000000000000000000000000000000000062
:102E7000004138D3FFC157413746005036A100000A
:102E800000000000000000000000000000004536C7
:102E9000B100010204804736C100000000000000BC
:102EA0004336BE000000414105004141040042415B
:102EB00002000042410000004140FF004C3DEF1085
:102EC0000000000000110000000000C15D00C2D53C
:102ED000E830E70FB2D5E4C39BFBE49AFAE499F932
:102EE000E498F8EC30E717B2D5122F041222EEE482
:102EF000C39BFBE49AFAE499F9E498F88003122260
:102F0000EE30D50DE4C39FFFE49EFEE49DFDE49CFE
:102F1000FC22789FE4F6D8FD9000007F007E10E44C
:102F2000F0A3DFFCDEFA904429A3E583C39420409C
:102F300011FEAF829020000E0FE48002F0A3DFFCB0
:102F4000DEFA12192002186022320000010000008F
:102F50000017060000000018060000000618060012
:102F6000000001180600000008180600000001011A
:102F70000100000001150000000001020400000033
:102F8000010B04000000060B04000000080B040005
:102F90000000010D00000000010E040000000110FF
:102FA00000000000010F0000000004050100000007
:102FB00004060600000004070800000002050000E7
:102FC00000000305010000000108050000000008E2
:102FD00000000000010C01000000011205000000CB
:102FE000080302000000012200000000081608008B
:102FF000000008080000000001160100000006168D
:1030000001000000050903000000050A000000009F
:10301000050302000000050400000000061B060076
:103020000000011B06000000061C07000000061D32
:1030300007000000070508000000081E0700000048
:10304000082000000000081F000000000821000008
:10305000000008110600000001110600000008220F
:1030600000000000061906000000061E0000000017
:10307000062000000000061A0800000006140100E7
:103080000000071401000000081B060000000724D0
:103090000000000008140100000055555555555515
:1030A00055555555555555555533333333333333BE
:1030B000333333333333333333888888888888888D
:1030C00088888888888888883F241E16110E0B09F6
:1030D000070504030201F0C8A791776760463835F9
:1030E00032302422201400010102020303040405EB
:1030F00005060607070000000000000000000000B1
:1031000000000000000000000000000000000000BF
:1031100000000000875E858E595586725A73989F0D
:103120006C80847A5E6C55989F00011DE01DE51D42
:10313000EA1DFE1E03888888888888888888888891
:103140008888888826262626262626262626262697
:1031500026262626000E08F8000E0F380000000074
:10316000020C00003F3F3F040404404040000000C8
:10317000004C6966656C696E6500496E76616C69C4
:10318000642067726F75700019BC19C119C619CB1C
:1031900019D519E919EE19F31D591D631D681D6D27
:1031A0001D721D771D7C1D861C3C1C4B1C501C5524
:1031B0001C5A1E531E581E5D1E621E67442C40562C
:1031C00041AC1A7A1A7F1AB61C8C1C961CAA1E0DCA
:1031D0001E121E171E301E351E3A1A341A391CAF25
:1031E0001CB41E3F1E441E6C1E711E761E7B1E806C
:1031F0001E851BB01BC41D4F1E085A0120038003EF
:1032000000011E491E4E5D02E4FD7C0CAB050DEB7A
:103210009018F1938F828E83F00FBF00010EDCECCB
:103220007F03228F828E83E4F0A374065145740AD3
:103230005145A3E4F0EF2404F582E43EF583E4F085
:10324000A3746DF022F08F828E83A3A322AD07902A
:103250001217E054FCF0E0FFED54307E0060027E77
:1032600002EF4E901217F0E0FFED7E0030E0027E9C
:1032700001EF4E901217F0229003C97402F09003F0
:10328000C0E0FF121DC7514D9003C97405F02275AF
:10329000FF0275E404E4F5E4127377C330E001D370
:1032A0004017E5E630E012901217E0540C600A1265
:1032B0001BEC901217E054F7F0C21912737730E04C
:1032C00039E5E6540364017031121A20125570403A
:1032D0001F90123FE0600BE014F07006122F12F105
:1032E000EEF0901215E020E002618C1248B1618C82
:1032F000122F12D219F1EEF0618C122F121268BA4D
:103300009003C2EFF0901200E0B47A14901214E02F
:10331000B49C0D9003C2E0FF64056004EFB4033079
:10332000E49003C8F09003C8E0FFC394805013E416
:103330002FF582E43412F583E4F09003C8E004F042
:1033400080E3901200747AF0901214749CF0D215FD
:10335000121C194003121C147B017A1279107D0192
:103360007F01121C0F7B017A1279117D017F2112DE
:103370001C0F7B017A1279127D017F22121C0F7BB8
:10338000017A1279297D017F02121C0F901229E027
:10339000B401057F01126B5F121A251268BA121A66
:1033A0001B9003C2EFF0121999121A169003C2E093
:1033B000FFB40602800C3019047F0280059003C21E
:1033C000E0FF121DC2EF24FFB3923D75FF0253E6EA
:1033D000BF123EEA6003F1EEF012586F121A2F127C
:1033E0003A7F30150B7B017A12792B7D1012672EF4
:1033F000121A6B901215E0C330E001D3400E203D4D
:103400000B51787B017A2B79BB1219DA90122AE0E2
:1034100030E00280033019057F01124FFDD2AF204A
:103420003D0281A8121C321244F8121DCC121C0A53
:1034300040F29003C1E06044121A4DEF7007125F32
:103440000294004037E51470FCE51520E5031255A1
:10345000B9121B65EF70FA12681E500512680A5007
:10346000047F01B1E89003C1E0B40204E4FF8009E5
:103470009003C1E0B403057F011248B6121A43E578
:103480001530E1A01266C54002E4F0E51520E5051F
:10349000B1C41253CE1270F8C0E0B1D212731FFD46
:1034A000D0E0FF12198F812412580E1248DA50030F
:1034B0001248FAB1DFEF70069003C1E06055902B1F
:1034C00024E0704F121A4DEF7007125F0294004013
:1034D00042E51470FCE51520E5031255B9121CA055
:1034E000121B65EF70FA12681E500512680A50042C
:1034F0007F01B1E89003C1E07011B1DFEF600C1201
:103500004016901217E04408F080089003C1E0FFD5
:10351000121BE7121C321244F8121BFB123FF0126E
:103520003FFEEF702312402BEF6005121BEC80383A
:10353000B1DFEF7033126855EF702D1247EEEF6474
:1035400001702512400F8020901217E020E219121E
:10355000402BEF600E12681E500512680A5004E4FA
:10356000FFB1E8E49003C7F0201605121A43802249
:10357000125ECA9003BAE0FEEFC39E4005EF9EFFC5
:1035800080089003BAE0F4042FFF7406D39F500222
:10359000C216E51530E1221266C54002E4F0E515D9
:1035A00020E505B1C41253CE1270F8C0E0B1D212BA
:1035B000731FFDD0E0FF12198F121BB5121A57129C
:1035C000585A81A89003C3E0FD75F0AA9003CD126C
:1035D0002567ED75F002A424BCF9740335F02212BE
:1035E0004024B401027F01229043AEEFF0E4A3F047
:1035F000903C4AE0FFB4020A740F12736F74B9F082
:10360000800DEF64047041743D12736F7479F0F1B2
:10361000369043AEE06007903C49E0FF80027FAB0C
:10362000D1521238029043AEE0903C49F0701590B0
:1036300043AFE0D39400400C7FFFD1529043AFE002
:1036400014F080EBE4FFF1A0221224837808122307
:10365000CFE4E5C820E2FB8FEB227F01F1A090438D
:10366000ED7401F09043EDE06031F1E8D1E8904372
:10367000EDEFF0123802D1D7903C3DEFF012380256
:103680009043EDE0540112736760D9A3E0F460D475
:10369000EF30E7D0E49043EDF080C9F13A7F9FD15D
:1036A00052D1E8903C3ED1E6903C43D1E6903C4478
:1036B000EFF0F19B903C3CE0F4601BA3E0F460165B
:1036C000903C43E0FD541F240FA3F0EDC4135407B6
:1036D0004480903C43F022F13A7FD7D1527FFFD112
:1036E00052D1EC903C3CEFF07FFFD152E5C820E294
:1036F000FBAFEB227F01F1A0303B15F1E8D1E89060
:1037000043EEEFF01238029043EEE020E002C23BBD
:10371000303B19D1D7903C3DEF127367600BA3E0AB
:10372000F46006EF30E702C23B123802E4FFF1A07A
:10373000A23BE433FF227F01F1A0903C41E012263E
:10374000A0375D04376514376A15376F17377F3038
:10375000378434378936378E3700003777536CEF2C
:10376000856C80802F536DEF8008536DDF8003538D
:103770006D7F856D90801D536EDF856EA080155323
:103780006FFE800D536FEF8008536FBF8003536F40
:103790007F856FB07F0CDFFE22D152123802E4FF2A
:1037A000EFB4010443FE202253FEDF229041BF12FA
:1037B00024DB123F03D1F4EF6005123ECE80F612F7
:1037C0003F7B600A9041BF1224837810D14E904114
:1037D000BFD1499041BF123F96D1E89041C3EFF06D
:1037E000F19B9041C3E0FF22F13A7F05C152901254
:1037F00015E054FE227F01F1A0D23BF13A7F061280
:103800003652123FEAEF70FA903C43E0F4600A90BF
:1038100043EC7406F0117E70FC903C41E01226A04F
:10382000383C04384414384915384E17385E30385F
:103830006334386836386D3700003856436C10856D
:103840006C80802F436D108008436D208003436D92
:1038500080856D90801D436E20856EA08015436F1E
:1038600001800D436F108008436F408003436F80D9
:10387000856FB09043EC740CF0117E70FC22904385
:10388000ECE014F0E0227B017A3C79417F03516443
:103890007A3C794A7F0851647A3C79477D027F09F6
:1038A000121C0F7B017A3C79457D027F0B121C0FA5
:1038B000903C45E0FEA3E0FF4E6006BEFF16BFFF52
:1038C00013516C5002800451758009903C45E4F01E
:1038D000A37440F0516C50028008903C427403F095
:1038E0008006903C427402F0903C41E01226A039E0
:1038F0000B04391614391E15392617393C30394452
:1039000034394C363954370000393175FF0153686A
:10391000EF8568FD804775FF015369EF800E75FFE5
:10392000015369DF800675FF0153697F8569C9808E
:103930002C75FF01536ADF856ACA802175FF015328
:103940006BFE801675FF01536BEF800E75FF015300
:103950006BBF800675FF01536B7F856BCB11027FB8
:10396000115156E4FF1235E812365A903C3F74026A
:10397000F0903C43E0247F6009047015515C740AA8
:103980008006F1CB515C7458F0903C427403F051C6
:1039900075903C44E0F460024133903C47E0FEA364
:1039A000E0FF64104E7006903C44740EF0EF64200B
:1039B0004E7006903C44740FF0EF64404E700690D9
:1039C0003C447410F0EF64804E7006903C447411D7
:1039D000F0E4B5070AEEB40106903C447412F0E43A
:1039E000B5070AEEB40206903C447413F0E4B50740
:1039F0000AEEB40406903C447414F0E4B5070AEEF1
:103A0000B40806903C447415F0E4B5070AEEB4100F
:103A100006903C447416F0E4B5070AEEB420069014
:103A20003C447417F0E4B5070AEEB44006903C44F9
:103A30007418F0F1031236F4EF6004D1CE80F61260
:103A400037F512373A7F011236527F031236521180
:103A500002E4FF0237A0EF4420F5FE227F1051560A
:103A6000903C3F227D01121C0F7B0122903C4AE0DA
:103A700024FE24FD22903C457401F0A3E4F02211C1
:103A800086121A3E121B06121994121C37D1EA70C4
:103A90000261717FFF121AC5900A131225937E00EE
:103AA0007F0971C9BF540D7E007F0A71C9BFA5048B
:103AB0007F0180027F009003C0EFF0900A1312256F
:103AC00073E94A4B701D7F04FE71C9EF2401FFE4C6
:103AD00033FEC3740112533A7F0050027F019003FA
:103AE000C0EFF09003C0E064017051900A131225FA
:103AF0007312710C7A0A7919B1E6900A19E0FEA3E3
:103B0000E0900A13127190FAE92407F9E43AFA9066
:103B10000A16122593E92408F9E43AFEAF017B0165
:103B20007A0A7919B1E6900A19E064047004A3E0F6
:103B300064056008121ACA9003C0EFF09003C0E059
:103B400070277E007F04C006C374219404FE7414A1
:103B50009400904078F0A3CEF07B007A007900D0FA
:103B600006F19DE4FFFE121ACF9003C0E0FF121A87
:103B7000F2D1EA7F0060027F011219FD121A0712CA
:103B80001962127027121B6A1248F2FE4FFDA3E061
:103B9000FC4DFDA3E0FB4D600BEE5FFFEC5FFFEB28
:103BA0005FF470031248FA901221E0FF901225E0B2
:103BB0006F9003BBF0021C05E075F002A42485F9A8
:103BC000740F35F07B02FEAF01E4FCFD0237AC74EC
:103BD00002F0904075122593E4FCFDC007904075FB
:103BE0001225739040781271F4D007B1CC1225934E
:103BF000903C87122483903C46E024FFFD903C4596
:103C0000E034FF5EFEED5F903C901270BD4E60545C
:103C1000B1AA1271A9903C90F0A3EFF0903C8ED124
:103C2000E39FEC9E5003126FF9126D0E6021B17A82
:103C3000C004C005C006C007D1F16005B16DFF80AA
:103C4000027F00F1ADD007D006D005D004D15CB121
:103C5000AAB1B4122573E94A6004D1FA806C7E00DF
:103C60007F008066903C8EE0FEA3E0FF4E60669091
:103C70003C45D1E3EF9DEE9C400A903C90ECF0A3D4
:103C8000EDF0800D903C8EE0FFA3E0A3CFF0A3EF1A
:103C9000F0126D0E6021B17AC004C005C006C007E5
:103CA000D1F16005B16DFF80027F00F1ADD007D08A
:103CB00006D005D004D15CB1AAB1B4122573E94A8B
:103CC0006004D1FA80047E007F00903C8CEE8FF07F
:103CD000122120808FD322EFF4045FFFE4FEEF7007
:103CE000037FFF22EFD3940F4009EFC4540FFFEE80
:103CF0004404FEEFD39403400AEF1313543FFFEE46
:103D00004402FEEF30E1010EAF0622AB07AA06EB3C
:103D1000241FFFE43AFEEF7805CEC313CE13D8F983
:103D2000F9EB541F9043EFF0AF05B172FCAF059172
:103D3000DCAE01EE14C39FC43354E0F9AF04C3EB0F
:103D40009FFFEA9400FEE9FDC3EF9DFFEE9400FEA5
:103D5000ED600FE0FD6007C374209DFD80067D00CF
:103D600080027D007C00EF2DFFEC3EFE22903C9413
:103D7000E0FF91D7EFC43354E022903C90E0FEA3E3
:103D8000E0FF903C94E0FDB10B903C92EEF0A3EF8D
:103D9000F0A3E0FF91D7EF75F020A4FFAEF0E4FCB4
:103DA000FD903C8712249F022248903C90E0FEA3A5
:103DB000E0FFC322903C8FE09FF0903C8EE09EF0AD
:103DC000903C8712249FE4FCFD122248903C87120D
:103DD00024DB903C8B229039FD122573AE02AF019B
:103DE0007B017A3A790C90410B7402F090410812F1
:103DF0002593E4FCFDC00790410812257390410B08
:103E0000127008D007903EB41224DB903EB8122501
:103E100093F1031236F4EF6004D1CE80F6F17B60AB
:103E20000B903EB4122483781012364E903EB4129A
:103E30003649903EB4F196903EBBF18F45F0601547
:103E40001236E8903EB8125C32903EB9E475F0014B
:103E500012212080E21102E4FF0237A0903EAB1253
:103E600024DB903EAF122593F1031236F4EF600489
:103E7000D1CE80F61237F5F1A4F185600B903EAB00
:103E8000122483781012364E903EAB123649903E83
:103E9000AB122483E48028903EB2F18F45F0602479
:103EA000903EAF122573E94A6013121F90FF12363D
:103EB00052903EB0E475F00112212080DAE4FF1246
:103EC000365280D312379B903C407401F022E515A6
:103ED00030E20FE51520E50AE51530E0057F011217
:103EE0004FFD22E0FCA3E0FDD3229003C2E0640179
:103EF00022903C8B122573E94A22903C90E0FEA36D
:103F0000E0FF2275FF02E5E430E10675E40675E4A2
:103F100003227E127F0BE4FD1243B2F1031236F44A
:103F2000EF6004D1CE80F6229041C41224DB904190
:103F3000C41224831237AC9041C8E06F603BF10398
:103F40001236F4EF6004D1CE80F61237F5F1A4F109
:103F500085600B9041C4122483781012364E904134
:103F6000C41236499041C4F1969041C8E0FF12371F
:103F700099903C407401F0D322C3227F011237A0F4
:103F800012373A7F03123652903C42E064022274A8
:103F9000FFF5F0022136122483E402365271D27406
:103FA000FFFDFC2212373A903C3FE0FF227E00905A
:103FB0003C8B122573E92FF9EE3AFA903C92E0FF20
:103FC000A3E0903EB2CFF0A3EFF022903C3CE02083
:103FD000E0171237367F3D1236527F2A1236527F53
:103FE000801236527FA612379922E5C85404FF2268
:103FF0009003C7E0FF121DD19003CCEFF022900395
:10400000CCE07F0070027F0122E49003C7F0229091
:1040100003C77401F0229003C77402F022112470C8
:10402000027F01229003C7E07F00221124B4020224
:104030007F012275FF0275E40475E40175E4022234
:1040400075FF0275E404E4F5E422125ECA9003CA27
:10405000EEF0A3EFF022126838EF70087FA07E0F19
:10406000FDFC01F312686F903D84EFF07406D39F5E
:104070004063E06056316D7E00903D84E014FDE5C4
:10408000F0A805088005C333CE33CED8F9FF3166DA
:104090003152903D8512249FC000C001C002C00370
:1040A000903D84E014FF74107E00A807088005C3CB
:1040B00033CE33CED8F9FFF1D2315E122263D00372
:1040C000D002D001D0001222488028316DAFF07E9E
:1040D000003166801E903D8CE0FF600FE4FCFDFE29
:1040E000FB7AF47901F812226380087F007ED07D8C
:1040F000077C00315231807E417FACC006C0073161
:104100004AD1D4D007D00671BF126849EF703A3156
:1041100058D31223BE4007E47F01FEFD80223158B0
:104120001222EE3152314AE47B01F1105014314A2F
:10413000C3EF9401FFEE9400FEED9400FDEC9400BB
:104140003151314A121BF1114A22903D85022483DC
:10415000FDFC903D850224DB903D85122483E47BA9
:10416000E87A03F9F8227C007D6402272A3175EF92
:1041700075F0A084229003BBE064AA2411FFF02212
:10418000F11EEF600FE47FA07E0F3150901217E018
:1041900054E7F022901217E0FF74E0D39F4005E04F
:1041A0002410F022EF6410901217F02291B5903D88
:1041B00089E0B4020AF117903D897403F0414D90F3
:1041C0003D89E064037069903D8BE06056903D8DC1
:1041D000E0B40105121BD8800A903D8DE0B40203C3
:1041E000121BDD903D8BE014F0E0601F3175EF7520
:1041F000F04684E5F075F064A4FFEF24A0FFE5F03D
:10420000340FFEE433FDE433FC8007E47FA07E0F2F
:10421000FDFC903F691224DB7E417FACE4903F6D52
:10422000F061BF903D897401F0514D7FFD021DDBAF
:10423000903D89E0B40412F11EEF600A7B007A0021
:104240007900E4FF0156121BD8227401F0903D89D9
:10425000E0640270227C447D2C7F011219F8E4FB9B
:10426000FAFD7FFF1219E47E417FACC006C007D182
:10427000CDD007D00661BF903D89E064037017FF81
:10428000FE3150903D8DE07C447D2CB402047F03D0
:1042900080117F02800D903D89E0B4040B7C447D49
:1042A0002C7F041219F821AC903D89E0B4010BF188
:1042B0001791B57194E4903D89F0229043EAEFF0B4
:1042C000C231901221E060207E127F0B123BC9BFE9
:1042D00001087FFF121DDB7F0022903D89E060080E
:1042E000901221E0FF121DDB123F129043EAE070B2
:1042F000026174E4903D8DF0903D89E06002514A86
:104300009043EAE0FFB40107903D8D74018009EF0E
:10431000B40310903D8D7402F07194903D8B740441
:10432000F08049EF64047036901221E0701FD231A2
:10433000D1B2EF701071941268307E127F0B7D0144
:1043400071B2123F1B903D897404F0803A9003C211
:10435000E0B40505E4F0121BD371947F0022904372
:10436000EAE064027021903D8BF07194903D897475
:1043700002F08013E4903D8DF0D1B2EF6003123F64
:1043800012903D897401F0514D903D89E07F0060AD
:10439000027F0122901217E05403F022E075F00230
:1043A000A42484F9740F35F07B02FEAF01902BAB8F
:1043B000E0FDAB05E4FCFD9041C8EBF0023F287145
:1043C000C7903D8EEFF022903F67EEF0A3EFF07FB5
:1043D000FFA312249FE8494A4B6050903F6E74033C
:1043E000F0903F6EE0FEC3940E5040EE91EAE07014
:1043F00032903F6E91E87405F0C007903F69122437
:1044000083903F621224DB903F6DE0903F66F09016
:104410003F67E0FCA3E0FDD007B1C2903F6EE0042F
:10442000FF8008903F6EE004F080B6229043ACEF2E
:10443000F0A3EDF091B59043ACE0B40112A3E0908D
:104440003D8AF07194903D897405F07FFE805F9005
:1044500043ACE064027022903D8DE06402705590A0
:104460003D84F0903D897403F07E417FACC006C06E
:1044700007D1CDD007D00661BF9043ACE0703512B4
:104480001A5CEF6401602A303114121DF4EF600CE5
:10449000121A5CEF60069043AD74FFF0C231123F18
:1044A00012903D89E06002514A9043ADE0FF021D49
:1044B000DB121A6622903D8EE0FF91C2E4903D8EA1
:1044C000F022AB07E4FF1BEBC3940E501AD1BE12CF
:1044D00024E700000000EBB1A41224E70000000074
:1044E000EB91EAE4F07F0122E0FF75F00CA424C018
:1044F000F582E4342CF58322D3900001E0940090FF
:104500000000E094005002A1A1C2ADE0FFA3E09042
:1045100043AAF1D9900000F0A3F0D2ADF577E5778A
:1045200091EAE0606D9043AAF126B1A21270175093
:1045300042B1B2E0FF6008F46005B1B2E014F0B13E
:10454000B2E0600EE577D1BF122483B1A21224DB62
:10455000800FE57791EAE4F0B1A21224E7000000B1
:1045600000D1E04E6008D1E0AA06F9122700123E01
:10457000CE801FB1A2C083C082122483C006C007B0
:10458000D1AAF136D007D006122255D082D083129C
:1045900024DB0577E577C3940E4083D1AAFF121B75
:1045A0000122E57775F00CA424B5F582E4342CF5EE
:1045B0008322E57775F00CA424BFF582E4342CF552
:1045C0008322903F60ECF0A3EDF0903F5FEFF0FBB3
:1045D000903F62122483D1BE1224DBEBB1A41224DB
:1045E000DBEBB1A4C083C08212249F900000F126AF
:1045F000122248D082D0831224DB903F66E0FF90E5
:104600003F5FE0FEB1B4EFF0903F60E0FCA3E0FD5F
:10461000EE75F00CA424BDF582E4342CF583ECF0A7
:10462000A3EDF022904057EEF0A3F1C1EBF09040E3
:104630005C74FFF090405BE090405DF090405DE086
:10464000FFC3940E505EEFB1A4122483E4FBF1107B
:10465000704A90405BE07E0170027E0290405D9166
:10466000E8EEF0C007904059E0FF7E006004F1E002
:1046700080027F0AE4FCFD903F621224DB90405AE6
:10468000E0903F66F0904057E0FCA3E0FDD007B11A
:10469000C290405DE004FF90405CF02290405DE0FD
:1046A00004F0809890405CE0FF229043AAE0FEA3D3
:1046B000E022901217E07F0030E2027F0122EB75CA
:1046C000F00CA424B9F582E4342CF58322E47FD0E5
:1046D0007E07FDFC903F691224DBE4903F6DF022E1
:1046E000E57775F00CA424BDF582E4342CF583E065
:1046F000FEA3E022AB07E4FA1BEBC3940E500ED1ED
:10470000BE1273576007EBB1A41224DB0AAF02227A
:10471000FAF9F8C30223BEE4FDFCFF0219F8901277
:1047200017E05408FF22E0FEA3E0FFE4FCFD22E0D6
:10473000C313FEA3E013FBAA06E4F9F82290426338
:10474000EEF0A3F1C1EBF0F1C8F1367F807E387D49
:1047500001FC12722EC006C007904263F12FD007F1
:10476000D006D31223A87E0050047F0180027F0070
:10477000C006C007F1C8F1367F807E387D01FC128B
:104780002ECED0E02FFFD0E03E904263F0A3EFF0BA
:1047900053ECFC9042631272E442EC75FF02EDF5BB
:1047A000AF75ED0275ED04A3E0600543EC088003EE
:1047B00053ECF7904266E0600443EC042253ECFBB8
:1047C00022EFF0A3EDF0A322904263E0FEA3E022EB
:1047D000C1F4EE3395E0FDFC22CFF0A3EFF0E4222C
:1047E0007C007D0A022083904388E0FF81C2200282
:1047F0002C901217E030E10B12482050067E007F0B
:104800000180047E007F00EF4E7012121C6EEF706C
:104810000C121CA5EF700612404A7F01227F002275
:10482000A21922900A72EFF0900A74EBF0900A73CA
:10483000EDF05402901240F01247EEEF7002C322E6
:10484000900A72E0B40411A3E0FB7D017F01117DA9
:10485000900A727403F08013900A72E0B405051296
:104860001BE28007900A7311AA117D900A72E090F2
:1048700003C1F0900A74E090123FF0D322EB60087D
:1048800075FF0153CDFD800675FF0143CD02ED603C
:104890000553FBDF800343FB20EF600775FF0243F6
:1048A000E1402275FF0253E1BF22E0FB7D01E4FFFE
:1048B00022121BE27F0143FB1075FF0243E640EF2B
:1048C000600D75FF02E5E120E7FB43FB0D8003432C
:1048D000FB0E80FE75FF028FE322901221E0701024
:1048E00011F24FFFA3E04FFFA3E04F7003D380010D
:1048F000C322901223E0FFA3E022E4FFF1FDEF606A
:10490000467B017A12792331485009901223E0C383
:1049100094C040ED7B017A1279253148500E11F296
:104920005FFFA3E05FFFA3E05FF460E890122AE07E
:1049300030E0047F01F1FDE4901221F07B017A1256
:104940007923E0FD121B6F22903DFB125661903ED1
:10495000011224E700000001903E057401F0F5FF0C
:10496000E5D554C070051253C65002C322E4F5FFCA
:1049700053967F75FF0175D5047F3FFEF15975FF92
:104980000143D508E4F5FF5394FBF5FF53847FF50D
:10499000FF7598FF903DFFE5F4F075F49C75FF01FD
:1049A000A3E5E4F075E4257B017A3E790512664CB7
:1049B000903E05E064016002416BF5FF903DFE749E
:1049C00014F0903E0151AD78011223E2903E0112A5
:1049D00024DBE5A730E1FB43A702903E0151ADE5A2
:1049E000A730E005E47B018002E4FBFAF9F8EF4B25
:1049F000FFEE4AFEED49FDEC48FC903E011224DB3F
:104A0000903DFEE014F070BA903E0151AD78101266
:104A100023CF7B6D7A4E79C67841122263EF243919
:104A2000FFEE3430B1B0E4FBFA7901F81222EEEE79
:104A3000547FFEE4FDFC1265EA903E0151ADEB6F40
:104A4000FFEA6EFEE8CDEFCDCCEECCECFF1256FCCB
:104A5000EF12204F1256FC900001ED1220619012CF
:104A60000FE030E606E4F5FF75968075FF01E4F58A
:104A7000D5903DFFE0F5F475FF01A3E0F5E4126980
:104A8000CF903E05E0B40103D38001C322E0FB25B3
:104A9000E025E02401F582E43412F5831224DBEBF7
:104AA00025E025E02401F582E43412F583E0FCA33F
:104AB000E0FDA3E0FEA3E0FF229038371224DB9054
:104AC00038477401F0E4A3F0F16D75FF02E5E630BC
:104AD000E00E9038487401F0FB7A38794812664C41
:104AE0009038521224E7002DC6C0E4F5FFF5A490DB
:104AF000120FF09038497402F075FF03903849E0C6
:104B0000FFF595EF14601314601C24027027903891
:104B10003751ADF1B0903843801690383B51ADF12C
:104B2000B0903844800A90383F51ADF1B09038458C
:104B3000E0903856F0126B00903856E07005127114
:104B40009B806690120EE004F0903849127201903A
:104B50003848E0701A90385251AD90384ED153FB1E
:104B6000C31223BE500990384E51ADA31224DB90DE
:104B70003856E0FF126981903846E0FF903849E0EE
:104B8000FDA2379234126AAE903848E07012903825
:104B90004E51AD9041BB1224DB903849E0FFB1B8D3
:104BA000903849E051A01262EE1272F6600241F9AB
:104BB000903848E07038A37402F075FF03903849CC
:104BC000F1E67015903852D14EFBB19E7801122358
:104BD000CF903849518D1262EE1272F670DC903827
:104BE00052B18178011223CF90384A1224DB12701F
:104BF000C4400343F420A23792351269E09038484C
:104C0000E024FF923390384A51AD126604E4F5FF78
:104C100075E5081265F7E59B30E7FBF14475FF0188
:104C200043D504D15EB15BF15D7B017A38794712DF
:104C3000658490120EE0B40102F1DF903847E0B4D1
:104C40000103D38001C3229039961224DBF16D90C9
:104C500039AB1224E7002DC6C0E4F5FFF5A490128D
:104C60000EF0A3F09039A67402F075FF039039A6F8
:104C7000E0FFF595EF14601314601C240270279078
:104C8000399651ADF1AA9039A2801690399A51AD5A
:104C9000F1AA9039A3800A90399E51ADF1AA9039BA
:104CA000A4E09039AFF0126B009039AFE0700512BC
:104CB000719B805690120EE004F09039A61272019A
:104CC0009039AB51AD9039A7D153FBC31223BE50DD
:104CD000099039A751ADA31224DB9039AFE0FF1240
:104CE00069819039A5E0FFA3E0FDA2369234126AF3
:104CF000AEA351AD9041BB1224DB9039A6E0FFB1C9
:104D0000B89039A6E051A01262EE1272FF600281E3
:104D10006A7402F075FF039039A6F1E6701AFF7EFF
:104D200004FDFC9039ABD153FBB19E78011223CF27
:104D30009039A6518D1262EE1272FF70D71270C4B4
:104D4000400343F420A23692351269E09039ABB1AA
:104D50008178011223CFC2331266049012137401BA
:104D6000F07E127F01E4FD8F828E83EF2DF582E4C9
:104D70003EF583E0FC901213E02CF00DEDB412E749
:104D800022E0FCA3E0FDA3E0FEA3E02420FFEE343C
:104D90004EFEE43DFDE43CFCE4FB7A04F9F812220B
:104DA00063E47B7DFAF9F81222EEEF2401FFE43E82
:104DB000FEE43DFDE43CFC229041BAEFF0E4A3D1D7
:104DC0004EFBB19E78011223CF9041BAE0FBF1D3A4
:104DD000F5831224DB901210E064806070E0C394CD
:104DE0007F5039EBF1D3F583C083C08251ADEEC063
:104DF000E0EFC0E0901210E075F004A4AEF0FBCA42
:104E0000EECAEA3395E0F9F8D0E0FFD0E0FEC3EF58
:104E10009BFFEE9AFEED99FDEC9880299041BAF146
:104E2000D2F583C083C082D153FB901210E0F4040A
:104E300075F004A4FFAEF01247D2EB2FFFEA3EFE5E
:104E4000E93DFDE83CFCD082D0831224DB22FF7ECA
:104E500004FDFCE0F8A3E0F9A3E0FAA3E0227FC898
:104E60007E00D16B75FF034391802275FF03D3EF62
:104E70009402EE9400400874FE2FFF74FF3EFEEF94
:104E8000F592EE540FF59122C221E49042E1F0C276
:104E900022A3F0A3F075FF01E5D520E702C322C2EB
:104EA0003A126B0D202102E13453F4DF9042E1E02D
:104EB000FF12566AF1DF30220543F440800353F4B9
:104EC000BFE4F5FF53F5F09042E2E0FAA3E0FBEA1D
:104ED00042F5EBF5F6D23A126B0DD15EE4F5FFE543
:104EE0009320E604F1C740F4302257E5F430E304A0
:104EF0007D288010E5F430E2047D288007E5F43059
:104F0000E1027D28F1667F28D160F1C740FC7F78FF
:104F1000D160F1C7502CF1B650F8126B2EEFC39D43
:104F200050F0F1B650ECE5F720E5E7C23A126B0D10
:104F3000F16680DE53F4BF1270CA400643F42012BB
:104F4000646BD322E4F5FF758EC812647275FF019D
:104F500053D5FBF1667F147E00D16BD16475FF03DE
:104F6000E59120E7FB2275FF03E4F5912275FF022E
:104F700043E180F18EF1BD53DB7F75FF0175D502F2
:104F8000F155F1BD43DB8075FF01E4F5D522E5FA6B
:104F900030E1FB75FC8075FF0153D5EFE4F5FC753E
:104FA000FC40F166E5FC20E6FB229039A70224DBF9
:104FB00090384E0224DB75FF01E5E4332275FF01D2
:104FC000438E1075FF012275FF03E591C330E701A1
:104FD000D322E025E025E02401F582E43412227595
:104FE000FF0143D81022E0F595E5F4540722AE07FF
:104FF000124175EE04FEEF8EF084AFF022EF6011E7
:105000001235C4FA7B01AF82AE83E4FD1253D78020
:1050100009121A52B1B9E433FF227F0122900A40EB
:10502000122593D22DC2EBE51460024198E51530AC
:10503000E202C32251E824E3F1C3F1E851F0FA128D
:10504000214C5407FF9008FAF0126612900A43EFC1
:10505000F0E51520E07371C640057F01124FFD9009
:105060000A43E0FF7B017A0A7944B1DFE43370043C
:10507000D2EB4177900A43E0246412735FE0FF9023
:105080000A44E0D39F4042D2EB126700A21892ED8F
:1050900090090BE0601551E824E3F9E43AFA740151
:1050A00012204F43150412595AD32290091AE07066
:1050B000167B017A09791A7C5F7D129040637464D3
:1050C000F0E4A3F0125925C32271C65004C23991ED
:1050D00058F166E5D120E0FBE4F510C21951F0FA71
:1050E00012214C5407C39403E49400502F51E82438
:1050F000B151E051E724D851E02FFFE433FED3EF64
:105100009440EE64809480401351E824E312727D51
:1051100012204F431504A21892EDD32251E824081F
:10512000F9E43ACFE9CFF5118F1251E824B151E0FB
:10513000F516AE11126D4951E824B2F9E43A8B1C10
:10514000F51D891E51E824D851E0F51F51F0FA12DF
:10515000214CFDACF05460602C51E824D951E0FFA3
:105160001266DAC22D51D0FB7A0090091B7D18120D
:105170006FACEF2BFFEA3EFEEF2414FBE43EFA7D1A
:10518000027F01416751F0FA12214C54079008FA4E
:10519000F075140851E824B2F9E43AFA125C175198
:1051A000E824D851E0FFAD16125DC89008FAE0641B
:1051B0000370247B01FD51A0D3713A500574011294
:1051C0001FFAE4F5FF125DAA121F902428FBE433B6
:1051D000FA7D03E4FF41679008FAE06402702A5107
:1051E000A3D3713A400574FF121FFAE4F5FFE5D22C
:1051F0005480440AF5D2121F902414FBE433FA7D44
:10520000027F01714351FD8060E4FB7D0151A0D319
:10521000713A400574FF121FFAE4F5FF51F0FA12DB
:10522000214C441045F07F0560027F0AEF547FFF58
:10523000E5D254804FF5D2E4F5FF43D28051D0FD42
:105240007C0051F0FA12214C441045F07E006004BD
:105250007F0A80027F05EF25E0FFEE33FEEF2DFB96
:10526000EE3CFA7D017F01714351F01270D9A22DFD
:10527000922C1263794006A21892EDC32212595A59
:10528000900A43E051E724E5F9E43AFAEF12204F9F
:10529000A21892EDD2EBD322A21892EDD2EBC32248
:1052A000FF7102900A40122573E924B1F9E43AFA39
:1052B000121F90FF900A40122573E924D8F9E43AAE
:1052C000FA121F902FFFE433FEEF2401FFE43EFEAD
:1052D000900A40122573E924B2F9E43AFAE9240766
:1052E000F9E43AFA021F90FF900A40122573E9226E
:1052F000900A40122573E92404F9E43A22E4FB7D84
:1053000001FFE4F5FF75D102E5D120E0FBE4F5FFF4
:10531000F5D1EF6008E4F5FF43D2808006E4F5FFA5
:1053200053D27FEB6006E4F5FF43D104ED6006E461
:10533000F5FF43D1082233FEE0C39FEE6480F8748A
:10534000809822900A7BEFF0ED24FE60191460260D
:105350002402703BEB2402FFE43AFE7C007D5012F5
:1053600020837D60801E71B3C333CE33CED8F9FF66
:105370007C007D28800E71B3C333CE33CED8F9FFC5
:105380007C007D64122095900A7CEEF0A3EFF090F3
:105390000A7BE01267B6C083C08212249F900A7D08
:1053A000E02401900A7C1272DB122248D082D08362
:1053B0000224DBEB2401FFE43AFEEF780322C2EB88
:1053C000A2ED9218C2EDE5F4C330E701D322FA7BD7
:1053D00001AF82AE837D01900A28126FB6E514708A
:1053E0007671BE5004C2399158900A28E0FEA3E0BD
:1053F0008E11F512A31225739008FC122593AE119D
:10540000AF127DAA125E03E4F5FF75D901F510E530
:10541000155421602BE51530E504E4FFD16AE490D2
:105420000A2DF0900A2DE004F01263BBEF600990A2
:105430000A2DE0C3941040EB7F02121DBD5315DE10
:105440009008F8E07F00B403027F01F172D2399135
:1054500058D2EBA21892ED229043EBE5F4F0E05421
:105460007FF5F47F827E00D1C9124FC75005E5FC5D
:1054700020E6F63039089043EBE04480F5F47FE80D
:105480007E03D1C9124FC75005E5FC20E6F675FF33
:1054900001E5D520E702C322E5F4D330E601C322BB
:1054A000900A90EFF0C23A126B0DD221900A90E070
:1054B0009042E1F0D222A3E4F0A3740DF0124E95D5
:1054C000E4900A91F071C65076900A91E07070E510
:1054D000F754C060F0B155B1686455704EB1689032
:1054E0001221E06F600E900A91E0F470399012156D
:1054F000E030E132B16864556018E0FF644A601240
:10550000EF640A600D901221E0FF900A91E0FE6FB7
:105510007005900A91800A9008F9E06E900A9170E7
:10552000197402F0809F900A91800F900A91E0B464
:1055300054057433F0808E900A917401F080869047
:105540000A91E0B40206C23991588000124E889048
:105550000A91E0FF22E5F720E008E5F754C070F576
:10556000FF2243F701AFF922B155900A91EFF022E3
:10557000F1E87F02121DBD7F0191A0900AA3EFF018
:10558000BF02028013900AA3E0B43311E4F07F015C
:1055900091A0BF020D900AA37401F08005E4900A67
:1055A000A3F0900AA3E0700A71C65004C239915862
:1055B000F1CB900AA3E024FF22E514702071BE50C5
:1055C00004C2399158F1CBF166E5D120E0FB4315D7
:1055D000205315FEE4F510A21892EDD322C32290B9
:1055E000425FEFF0A3D16175FF011262C2EF640167
:1055F0006002C322E5F430E602C3227FE87E031294
:105600004E6B124E64F129400122C23991589042EA
:105610005FE0FFD16A53F4DFD23991587F787E0082
:10562000D18675FF0153E4BFE5E430E7FB126B550B
:105630007F8AF1DB30E608904260D1FFE4800A7592
:10564000FF01904260D1FFE5D912204F75FF014361
:10565000E4401270CA400343F420F129400122D3F0
:1056600022EBF0A3EAF0A3E9F02275FF01E5D530C3
:10567000E602C322E4F5FF439A80EF127202E4F5DA
:10568000FF539A7FD322CDEFCDCCEECCF108AB9473
:10569000EF4BF1D3CBEFCBFAE59130E71DF10BA93E
:1056A00094E9F582EF4582FFEB2DF582EA3CF58324
:1056B000C3EF9582E5F0958340DEE59120E709CEC2
:1056C000ECCECFEDCF124F5922D1CE024E64904294
:1056D0004F126FBF7A427951F1145014904251E049
:1056E000FEA3E0FF904250E09F90424FE09E400BAF
:1056F00090424FE0FEA3E0FF124E6B22903DFBE094
:10570000FBA3E0FAA3E0F92275FF03AF93EF75F076
:1057100010A4FF22F108AD94EF4DF1D38FF01221C8
:10572000FCE591C330E701D322E5F730E510E5F75A
:1057300054C07005124FC740F0124F66C322D322E7
:10574000C2399158F166E5D120E0FBE4F5FF75D947
:10575000019008F8E07F00B403027F01F172D239B2
:105760009158E4F51022E4F5FFE5D154FE4402F52A
:10577000D122D16A43FA04E4F5FF53D1FD43D101AC
:1057800022900A75122593F1BDE51BF1BA125BFA5E
:10579000F1B9E92402F1C3900A75126FEDF9E43A08
:1057A000FAE51312204F900A7551F3FAF1B9E92482
:1057B00005F9E43AFAE402204FE412204F900A750A
:1057C000022573F9E43AFAE402204F124F8E7F0863
:1057D000021DBD24FBFFE5F034FF22FED1869012AE
:1057E0000FE022E4F514A1B9901223E0F4FFA3E046
:1057F0006FFFA3E06FFFA3E06FFF64556009EF64E4
:105800004A6004EFB40A010F9008F9EFF022301754
:105810000C902B24E07006FF1219B7C21730192321
:10582000AF71900919E0FEEFC39E400AEF9ED3943A
:10583000024010C21922900919E0F42FD3940140BC
:1058400002C219229003C5E0FCA3E04C700A900349
:10585000C5EEF0A3EFF0D322C3229003C5E0FEA370
:10586000E0FF4E6009CAEECAC9EFC912270022D272
:10587000ADD2BD75FF02758E7175760975FF02E5B3
:105880008E546F4480F58E90424B1224E700000046
:105890000022C0E0C0F0C083C082C0D075D008C074
:1058A000FF75FF02E58E30E43E75FF02E58E54EF92
:1058B0004410F58E90424B122483124DAA90424B15
:1058C0001224DB900000E475F001122120E576300F
:1058D000E0020551E576700D7576090571E5717088
:1058E0000205708002157675FF02E58530E40875C3
:1058F000FF024385100578D0FFD0D0D082D083D06E
:10590000F0D0E032F0A3EFF07E1C7FAAE4FB7D0133
:10591000E490405BF0024624E0FEA3E0FFA3E0FD3C
:10592000A3E0FB80EB904061ECF0A3EDF090405ED3
:105930001225933165904061311890405E9132900C
:10594000405E122573121F90B4FF04E412204F90A2
:10595000405E122573121F90FF22E490090BF07B2A
:10596000017A09791A9042DB1225939042DB315279
:105970001244C29042DB122573E402204FC0E0C003
:10598000F0C083C082C0D075D008C0FF75FF01E5AC
:10599000D530E6047F028009E5D57F0030E7027F3D
:1059A000018F18E51864026002415AE5141226A01E
:1059B00059C90159DC025A430859E70959F20A5AF0
:1059C000000B5A1F0C00005BDF75FF0175C35515F6
:1059D0001AE51A600261DF75140261DF75FF017557
:1059E000C3F075140961DF75FF0175C35575140A9D
:1059F00061DF75FF0190090CE0F5C375140B61DFE1
:105A000075FF019008F9E0F5C3751401751A14903B
:105A1000091B912A45F0600261DF75140C61DFAB50
:105A20001CAA1DA91E9117AD16AF1FB1C81252FDB9
:105A300075FF00B1AA43FA0475FF0012577A751476
:105A40000861DFC2EB751400431504B1D540026153
:105A5000DFE475F00112212061DFE51864016002C6
:105A600061DF9123400261DFE510702271F3E0FFF6
:105A700064556004EFB4540BD219AF71900919EF5B
:105A8000F0615775100275FF0075D90861DFE510E8
:105A90006402706B75FF01F5EA75EAFF9008FC126D
:105AA0002573E5D912204FD124B1EF9008F8EFF01B
:105AB000910BE0900AA2F0E0FFD3940940259008F2
:105AC000F8E0D39402400CEFD394AA7F0040027F09
:105AD00001800D900AA2E0D394407F0040027F0134
:105AE000EF600491028070900AA2E0F516B1BD90BB
:105AF0001222EFF075FF008516D975100361DFE5FE
:105B0000106403600261DF9008FC315271FAEF12F9
:105B1000204F910275FF009008F8E0C39403E5D38D
:105B200050055402FF80035401FFEF602F30E11154
:105B3000C3900906E094FF900905E094FF50188097
:105B40000FC3900908E094FF900907E094FF500705
:105B5000E475F00112212012574061DFC23912545E
:105B60005875FF00125769E5D120E0FBC2EB4315E1
:105B70000271F3A3E0FF901224E0FEEF6E71F2E0F9
:105B800090122371ECA3A3E090122571ECA3A3A3C0
:105B9000E0FE901226E0FDEE6D4F6016C390090AFC
:105BA000E094FF900909E094FF5007E475F00112BA
:105BB0002120C3900904E094FF900903E094FF5072
:105BC00007E475F0011221207510009008F8E0B488
:105BD00003071516910BE516F09003C4E516F0D0F7
:105BE000FFD0D0D082D083D0F0D0E032FEE0FDEE06
:105BF0006D4FFF85128285118322E92401F9E43A71
:105C0000FA22301905C219124E8822E5122407F52E
:105C100082E43511F58322E4F5FFE9B1A1EA540FDE
:105C200042D622E5F754C024FF2274FFF5F002218A
:105C300020FF122573EF02204F90424712259390C8
:105C40004246EFF0C25CB181FF7B017A42794A1291
:105C50001E1C4003A25C22904246E0FF919BE0FEA6
:105C600090424AE0FDEE6D702E919AE0904247918D
:105C700031904246E0FF919BE07007919A7401F0E9
:105C80008008904246E0919BE4F0904246E0FF910C
:105C90009BE0FD91A9D25CA25C22EF75F006A424E2
:105CA000F4F582E4343DF58322C14F9043A8ECF033
:105CB000A3EDF09043A7EFF0B181FFD247121E2170
:105CC0009043A7E0FFE4FD91A99043A7E0FFB174E2
:105CD000124AB29043A7E091F4EEF0A3EFF0205DFA
:105CE00011D25D7E5D7F027BFF7D01B198BFFF0217
:105CF000C322D32275F006A424F2F582E4343DF5E4
:105D00008322E49043E8F09043E8E0FFC39402501C
:105D100054EFB166E0640170449043E8E0B166E49A
:105D2000F07B017A4379E99139501B9043E8E0FE1A
:105D300091F4E0FCA3E04C600D9043E9E0FFEE91AC
:105D4000F4B1B31227049043E8E0FF75F006A424F1
:105D5000F1F582E4343DF5837401F0B1749043E8C9
:105D6000E004F080A22275F006A424F0F582E43469
:105D70003DF58322EF146006047005D2A822D2AA52
:105D80002275F006A424EFF582E4343DF583E02289
:105D90007E1E7F537B017D0A90405B7403F00246B8
:105DA00024F5D7E4F5FF53D6F022E5D2548044140D
:105DB000F5D222E0FCA3E0FDF5828C8322E5F454C9
:105DC00018131313541FFF22E4F5FF8FD4F5FFCFF0
:105DD000EDCF8FD522C3900900E094FF9008FFE03B
:105DE00094FF22B1D55007E475F00112212022EF73
:105DF00024FE600C24FE600580007F01227F0222C9
:105E00007F0322E4F5FF75D102E5D120E0FBE4F544
