:020000040000FA
:100000000202DF0218034100B8002202180B22226C
:0100100022CD
:07001300021813E4FFE1BC39
:07001B0002181B75C8012249
:030023000218239D
:03002B0002182B8D
:030033000218337D
:03003B0002183B6D
:030043000218435D
:03004B0002184B4D
:030053000218533D
:03005B0002185B2D
:030063000218631D
:03006B0002186B0D
:10007300021873BB010689828A83E0225002E722B9
:10008300BBFE02E32289828A83E49322BB010CE54F
:100093008229F582E5833AF583E0225006E9258239
:1000A300F8E622BBFE06E92582F8E222E58229F57D
:1000B30082E5833AF583E49322BB010689828A832E
:1000C300F0225002F722BBFE01F322F8BB010DE53B
:1000D3008229F582E5833AF583E8F0225006E92583
:1000E30082C8F622BBFE05E92582C8F222C5F0F8D4
:1000F300A3E028F0C5F0F8E582158270021583E0CD
:1001030038F022A3F8E0C5F025F0F0E582158270FF
:10011300021583E0C838F0E822EF2BFFEE3AFEED3C
:1001230039FDEC38FC2275F008758200EF2FFFEEE5
:1001330033FECD33CDCC33CCC58233C5829BED9A10
:10014300EC99E58298400CF582EE9BFEED9AFDEC6E
:1001530099FC0FD5F0D6E4CEFBE4CDFAE4CCF9A8B4
:100163008222B800C1B90059BA002DEC8BF084CFBC
:10017300CECDFCE5F0CBF97818EF2FFFEE33FEED93
:1001830033FDEC33FCEB33FB10D703994004EB99BD
:10019300FB0FD8E5E4F9FA227818EF2FFFEE33FED0
:1001A300ED33FDEC33FCC933C910D7059BE99A4005
:1001B30007EC9BFCE99AF90FD8E0E4C9FAE4CCFB1D
:1001C3002275F010EF2FFFEE33FEED33FDCC33CC71
:1001D300C833C810D7079BEC9AE899400AED9BFDFA
:1001E300EC9AFCE899F80FD5F0DAE4CDFBE4CCFA0D
:1001F300E4C8F922EF5BFFEE5AFEED59FDEC58FC23
:1002030022EB9FF5F0EA9E42F0E99D42F0E89C451F
:10021300F022E8600FECC313FCED13FDEE13FEEFC9
:1002230013FFD8F122E8600FEFC333FFEE33FEED87
:1002330033FDEC33FCD8F122E0FCA3E0FDA3E0FEA8
:10024300A3E0FF22E0F8A3E0F9A3E0FAA3E0FB2296
:10025300ECF0A3EDF0A3EEF0A3EFF022A8828583E8
:10026300F0D083D082120276120276120276120244
:1002730076E473E493A3C583C5F0C583C8C582C878
:10028300F0A3C583C5F0C583C8C582C822E0FBA31C
:10029300E0FAA3E0F922F8E0FBA3A3E0F925F0F0EC
:1002A300E582158270021583E0FA38F022EBF0A3A1
:1002B300EAF0A3E9F022D083D082F8E493701274B9
:1002C3000193700DA3A393F8740193F5828883E4DB
:1002D300737402936860EFA3A3A380DF75812F0279
:1002E300094A9000E551B0AE071FEE60129000E896
:1002F30071031176FE9000E57103EE11BC80E822D4
:10030300E475F0018090900A12EEF0A3EFF09000F4
:100313004FE064016002619CC3900A12E0940850AC
:100323000BE4FF9153900A12918780ECE4F50DFBE7
:1003330071C5AF0C12103DE50DC39408504771C34E
:10034300E50D7F0071BDEF29F9EA3EFA9000E8510F
:10035300B07B017A0979007FFF51E5E50DFEE424C6
:10036300FFFFE43E71BD8F828E83118F9009FFF0F2
:100373007B017A0979009000FBE50DF0AD0C1210BA
:1003830063050D80B2900050513BE42FFFEE34081B
:10039300120D139000500214BC900054E0FEA3E031
:1003A300FF71BE900A12E0FDA3E09000D1CD1208C8
:1003B300D4900054EEF0A3EFF022FE902001419080
:1003C3007B007A00791012103675FF031176F5D38E
:1003D30075FF0390000171F190000271F190000329
:1003E30071F175D40175FF03E5D55402FF22118F16
:1003F300F5D375FF03229000F1E0FEA3E0FF9130F7
:1004030091539000F3513BEF2401120D109000F330
:100413005153900A18914D900A18E07002A3E070AE
:100423000BFF7E087109120F4212142822B108CD66
:1004330024FFCD34FFFCC3ED9FFFEC9E541FFE74DD
:10044300082F121416FF229000DF74FFF5F001F05D
:10045300B108541FFC74082DF58274203CF583EF1A
:10046300F0902006E0B42019A3E0B4001490200516
:10047300E02401FF902004E03400541FF0A3EFF0C8
:1004830022902006E475F00101F09000BA515390D8
:1004930000BE51B0110AF11EEF6004110F80F71274
:1004A3000F0560099000BA513B7810D1249000BA2F
:1004B300D1209000BA513BE480219000C11208C7BB
:1004C30045F0601B9000BE5190E94A600C1176FF25
:1004D300D1279000BF918780E1E4FFD12780DBF132
:1004E300B79000AF7401F0229000E3E0FF81039026
:0704F3000A1BE014F0E022F7
:10050800902006E0FCA3E0FD902005E02DFD902062
:1005180004E03C22D1C8EF541FFF12148DA37401CC
:10052800F0120F4C9000DCE0FCA3E0FDAE0478056F
:10053800CEC313CE13D8F9FF9000DFEEF0A3EFF08F
:10054800ED541FA3F0A3E4F09000F1F0A3F0C390E2
:1005580000DDE094209000DCE09400407D914A901A
:1005680000E1E0FEA3E0FF9000F1EE8FF011F090C3
:1005780000DFE07004A3E06406700AD1C89000DFD1
:10058800E48FF011F0D1C89000F1E48FF011F0126F
:100598000FFCEF600512148A8005E49000DEF090ED
:1005A80000F1121371701D91309000E3EFF0910388
:1005B80091EB91EB9000DFE07002A3E0604891EBD3
:1005C800914A80F071F971F971F99000DFE07002D9
:1005D800A3E0603271F9914A80F09000DC91878045
:1005E8000A9000DCE07002A3E0600BD1C891039090
:1005F80000DC914D80EB120FFCEF600512148A802D
:1006080005E49000DEF09000DEE06002A12C1214F8
:10061800AB71099000F3413B513B78085115E4E573
:10062800C820E2FB8FEB227F01F1BC900A1C740109
:10063800F0900A1CE06032120FF4D1BC900A1CEF53
:10064800F0120849D1AB9000ACEFF0120849900ABB
:100658001CE054011213BB60D8A3E0F460D3EF3060
:10066800E7CFE4900A1CF080C8F1E87F9FD127D13A
:10067800BC9000ADD1BA9000B2D1BA9000B3F1B538
:100688009000ABE0F4601BA3E0F460169000B2E0C9
:10069800FD541F240FA3F0EDC413540744809000A9
:1006A800B2F022F1E87FD7D1277FFFD127D1C090C0
:1006B80000ABEFF07FFFD127E5C820E2FBAFEB22CC
:1006C800900081E0B4082CA3E0B40027120F2E7B21
:1006D800017A0179009000CA120F45F161120F2EBC
:1006E800E42FFFEE3408120D13120F28E490008156
:0806F800F0A3F0900083120F43
:10070000DB9000835153900081E475F0013106FEC7
:10071000740025F0F58274013EF583E0FF227F012D
:10072000F1BC300216120FF4D1BC900A1DEFF0128A
:100730000849900A1DE020E002C202300219D1AB44
:100740009000ACEF1213BB600BA3E0F46006EF3037
:10075000E702C202120849E4FFF1BCA202E433FF3F
:10076000229000C351539000C751B0110AF11EEFFF
:100770006004110F80F7F1E47F03120F1E600990EF
:1007800000C3513B7810D1249000C3D1209000C306
:10079000120F349000CA1208C745F06011D1BC9006
:1007A00000C75190EF11BC9000C8918780E51208F6
:1007B00049E4FF8007EFF0120849E4FFEFB40104B9
:1007C00043FE202253FEDF229000ABE020E014F134
:1007D000E47F3DD1277F2AD1277F80D1277FA6D1F3
:1007E00027F1B7227F01F1BC9000B0E051B9080AAF
:1007F00004081214081715081C17082C3008313487
:10080000083636083B3700000824531AEF851A8053
:10081000802F531BEF8008531BDF8003531B7F8502
:100820001B90801D531CDF851CA08015531DFE806E
:100830000D531DEF8008531DBF8003531D7F851D81
:10084000B07F0CDFFE2212062712149FEF70FA9081
:1008500000B2E0F4600B900A1B7406F01204F27010
:10086000FB9000B0E01202B9088404088C140891CF
:100870001508961708A63008AB3408B03608B53707
:100880000000089E431A10851A80802F431B108099
:1008900008431B208003431B80851B90801D431C45
:1008A00020851CA08015431D01800D431D1080086C
:1008B000431D408003431D80851DB0900A1B740CAE
:1008C000F01204F270FB2274FFF5F0020106E0FD65
:1008D0009000D1E4F0A3EDF09000CCEEF0A3EFF0A7
:1008E000A31202B09000D111C745F060549000CE21
:1008F0001202901200769000D3F09000CF1204877D
:100900007D80ED60DF3141EE7C0030E7027C0190BC
:1009100000D3E05D7B0060027B01EB6CFCEF25E027
:10092000FFEE339000CCF0A3EFF0AF04EF600C903B
:1009300000CCE06410F0A3E06421F0EDC313FD806F
:10094000C19000CCE0FEA3E0FF2275FF03759E027C
:100950009017FAE493900A0FF075FF02E5E654034E
:100960006002618B7510DE7511AD7512BE7513EFE7
:10097000C2AF75FF0275E404F5E4751AFF751BFF3D
:10098000751CFF751DFF7516FF7517FF7518FF7530
:1009900019FF75FF0253E6BFD11A1210DAB11BEF2F
:1009A00064016002618290180893FE740193FF90C5
:1009B000007FEEF0A3EFF0F5828E83E493FE7401E6
:1009C00093FFC3EE9480500280047E807F008E14DB
:1009D0008F15B1F7FFF5828E83740293F51E7403B1
:1009E00093F51F740493F508740593F50974069341
:1009F000F50A740793F50BC201EF4E700241E4EF64
:100A0000F4FFEEF44F700241E4E514451EFEE515D7
:100A1000451FFFE5084EFEE5094FFFE50A4EFEE5DE
:100A20000B4F4E700241E4E51FF4FFE51EF4FEE5B6
:100A300015F4FDE514F44EFEED4FFFE509F4FDE578
:100A400008F44EFEEF4DFFE50BF4FDE50AF44EFE13
:100A5000EF4D4E700241E47F03718EE50B24FFFFE2
:100A6000E50A71BC640370227F02718EE50924FFE0
:100A7000FFE50871BCB402127F01718EE51F24FFEF
:100A8000FFE51E71BCB40102D2012001577F017144
:100A90008E71B59000D1E51EF0E51FF13B71A07F8E
:100AA0000271AB9000D1E508F0E509719E7F0371FA
:100AB000AB9000D1E50AF0E50B719E7F01718E903D
:100AC0000A10E0FEA3E0FF7BFF7A187900E4251509
:100AD0009000D2F0E51434E89000D1719F4EC370BD
:100AE00001D39201300109F1ACEF6401600261822F
:100AF000D20091FB7B017A007964B1D8741BF012AB
:100B00000761900064E0B4800B9153EF70061214FB
:100B100046EF6002C20030006530011AB1F7F5827D
:100B20008E83740C93FE740D93FF90007DE06E70C5
:100B300003A3E06F604890005012025F00001800AD
:100B400091FBF128F12EEF2401B110B1D27404F021
:100B5000120761900087B10A9000871214BC9000C0
:100B600081F14590004F04F012051C7440D3950CA0
:100B7000400C1203C3AF0C12103D050C80EDE4FFD6
:100B8000F186E4F510F511F512F513021800AEFF29
:100B9000EE54CFFEEFC454F024804EF5FF22A3F0B4
:100BA00011D8900A10EEF0A3EFF022718E900A1087
:100BB000E0FEA3E0FF7BFF7A80790022347F8F8202
:100BC000F583E49322900000EEF0A3EFF0A312026D
:100BD0003B900008120253900006E0FFA3E0900053
:100BE0000CCF806090000C121371605EC3EF9440D4
:100BF000EE94004006A37440F0800590000EEFF0E4
:100C0000B1FFE0FFB1D8EFF090000812023B1207ED
:100C10006190000EE0FFC390000DE09FF090000C8B
:100C2000E09400F090000812024790000EE4FCFDF2
:100C3000FE12011C900008120253914AB1FF11CE1E
:100C4000900000EEF0A3EFF0809A900000E0FEA389
:100C5000E0FF2291FBB101900006E4F07405F13B46
:100C600091F0C006C00791FBEF2407B110B10190CD
:100C70000006E4F0A37414F0D007D00691F0C0068B
:100C8000C007B107B101D10940067EFF7FFF800692
:100C900090006512023B900006EEF0A3EFF0D00743
:100CA000D00691F0D109402F91FBEF241AFFE43ECA
:100CB000FEED3401FDE43CFCB10190006512023B05
:100CC000EF2401FFE43E900006F0A3EFF0900A1637
:100CD000E0FEA3E0FF91F0900069E0FEA3E0FF904A
:100CE0000A16E06E7003A3E06F7F0060027FFF22B0
:100CF00071C5900A16EEF0A3EFF0229000A6020252
:100D00003B9000020202539000A612023BEF241B0C
:100D1000FFE43EFEE43DFDE43CFC22E49000AAF04A
:100D20007B017A007995121378900097E0FF741197
:100D3000D39F5077E4FFFEFDFC7B017A0079FE90A3
:100D400000CAF0A37402F01207619000FEE0FEA357
:100D5000E0FFE4FCFDB1CC91FBEF2402B110B1CC7B
:100D60009000B5E024FFFF9000B4E034FFFEE4FC07
:100D7000FD9000A61202471201F79000FCEEF0A3CE
:100D8000EFF09000A61202479000FCE0FEA3E0FF07
:100D9000C39000B5E09FFF9000B4E09EFEE4FCFD30
:100DA00012011CB1CC9000AA7401F09000AAE0FBE3
:100DB0006017E4FFFE7D02FC900097E024EFF9F855
:100DC00012022890008F120253AF03229000A60255
:100DD00002537B017A0079839000CAE4F0A3229148
:100DE000FBEF2401B110B1D27404F0120761B10716
:100DF000F128900081E14590007FE0FEA3E0227B96
:100E0000017A00790F90000E22E47FFF7EFFFDFC47
:100E1000900065120247D3020204E4900A1EF0908B
:100E20000A1EE0FFD3946F501EEF2410FFF198903C
:100E30000A1EE0FEE42EF582E4344FF583EFF090D5
:100E40000A1EE004F080D87B017A4F79009000D12F
:100E5000E4F0A37470F07F0F7E1D11D8EF4E7F0079
:100E600070027F01901218EFF024FF22900A09EB24
:100E7000F0900A05120253900A0512023BD1C3906A
:100E80000A09E06F603B12000A12071EEF600512AC
:100E9000000F80F5F105600B900A0512023B7810F7
:100EA000120624900A05120620900A05F134900AD1
:100EB00009E0FF1206271207B79000AF7401F0D3C4
:100EC00022C322900A0012025312000A12071EEFD8
:100ED000600512000F80F51207E47F03F11E600B1E
:100EE000900A0012023B7810120624900A001206A3
:100EF00020900A00F1341206BC900A041207B59043
:100F00000A04E0FF227F011207BCD2021207E87F29
:100F10000612062711491207E89000AEE0FF1206FC
:100F2000279000B1E06402229000870202539000F3
:100F30008702023B12023BE4020627A3F07F0F7EEA
:100F40001D22900A187408F0A3E4F022F1429000E8
:100F5000F312025F00000000E4902004F0A3F0A36D
:100F6000F0A3F07B017A2079089020011202B0E40E
:100F7000902000F0227F0F7E1D11D09000D8120229
:100F8000909000DB01CEAB07E4FF9000AAE0600781
:100F9000F1D8D16CE433FF2275FF03E4F59712100A
:100FA00021E59720E1FB75FF03AF9922E4900A1A2F
:100FB000F09000AAE0601B90008F12023BE4FBFA65
:100FC0007902F8D31202045009F1D8D1C3900A1A59
:100FD000EFF0900A1AE0FF229000A612023BEF24E5
:100FE000FFFFEE34FFFEED34FFFDEC34FFFC22E4A6
:100FF000FCFDC1C31207E87F05020627E4FFFEFDE2
:10100000FC900083120E137F0040027F012275FFC7
:10101000037597011121E59720E1FB75FF03AF9957
:101020002275FF038F9875FF0322113675FF03E5C4
:10103000D5F45402FF2275FF0375D4022275FF0315
:10104000EF543F4480F5D1E5D520E20AE5D520E014
:1010500005E5D530E1F1E5D55403FF75FF0375D5FE
:101060000580D375FF03ACD5EC20E13C75FF03EDA3
:10107000543FF5D175FF03E9F5D375FF03EA540F2B
:10108000FF9000FBE0C4547044804FF5D2E5D520BA
:10109000E205E5D530E0F6E5D55401FC75FF0343E4
:1010A000D40275FF0375D505AF042212000A12079A
:1010B0001EEF600512000F80F57F011207BCD202FF
:1010C0001207E87F061208461207E87F011206277A
:1010D0007F03120846E4FF0207BC7B017A0079B067
:1010E0007F0351E47A0079B97F0851E47A0079B638
:1010F0007D027F0951847B017A0079B47D027F0BE8
:1011000051849000B471716006BEFF16BFFF135189
:10111000F35002800451FC80099000B4E4F0A37401
:1011200040F051F3500280089000B17403F0800643
:101130009000B17402F09000B0E01202B9115904AD
:10114000116414116C15117417118A301192341135
:101150009A3611A2370000117F75FF015316EF85F3
:1011600016FD804775FF015317EF800E75FF015381
:1011700017DF800675FF0153177F8517C9802C750F
:10118000FF015318DF8518CA802175FF015319FE2E
:10119000801675FF015319EF800E75FF015319BFBB
:1011A000800675FF0153197F8519CB1208497F11FD
:1011B00051DEE4FF710612062F9000AE7402F0902B
:1011C00000B2E0247F600904701651EB740A8007B6
:1011D0001207C851EB7458F09000B17403F051FC41
:1011E0009000B3E0F4600241829000B6E0FEA3E01C
:1011F000FF64104E70069000B3740EF0EF64204E42
:1012000070069000B3740FF0EF64404E70069000CB
:10121000B37410F0EF64804E70069000B37411F058
:10122000E4B5070AEEB401069000B37412F0E4B519
:10123000070AEEB402069000B37413F0E4B5070A8F
:10124000EEB404069000B37414F0E4B5070AEEB4EB
:1012500008069000B37415F0E4B5070AEEB4100662
:101260009000B37416F0E4B5070AEEB420069000BF
:10127000B37417F0E4B5070AEEB440069000B374F7
:1012800018F001AB900A0AEFF0A3EDF0A31202B040
:10129000900A0BE06047901218E06013900A0AE091
:1012A0002410FF120F98900A0C120290EF801790F2
:1012B0000A0AE06401900A0C7007120290748080A0
:1012C0000512029074FF1200BC900A0D1204879060
:1012D0000A0BE014F0900A0AE004F080B322EF4415
:1012E00020F5FE227D0151847B01227F1051DE908A
:1012F00000AE229000B9E024FE24FD229000B474D8
:1013000001F0A3E4F022900A14EFF0E4A3F09000BF
:10131000B9E0FFB40209740F716974B9F0800CEF81
:1013200064047044743D71697479F01207E4900AA2
:1013300014E060079000B8E0FF80027FAB12062740
:10134000120849900A14E09000B8F07016900A153F
:10135000E0D39400400D7FFF120627900A15E01499
:10136000F080EAE4FF1207BC22900A15F09000B862
:1013700022E0FEA3E0FF4E229000ADE01200BC9000
:1013800000B2E09000011200CE9000B3E0900002A5
:101390000200CEAB05E4FCFD020E6C9000ED1202E3
:1013A000B0E4FCFDC0079000ED1202909000F0E068
:1013B000FF120DD8EFF0D007020761F09000ABE00C
:1013C000FFF42212000A12071EEF600512000F80C0
:1013D000F5229000AFE0FF22E49000AFF0229012DF
:1013E00018E024FF22901218E060057F10020F9889
:1013F0007FFF22902004E0FEA3E0FF24089116FD69
:10140000EF2401FFE43E541F902004F0A3EFF0A36B
:1014100012044DAF0522F58274203EF583E0229040
:101420002006E0FEA3E0FF22902000E0045403F039
:101430007F0033333354F8FEEF2408F974203EFA6A
:101440007B01A30202B0900054741DF0A3740FF04E
:10145000120DDFE490004FF012051C90006BE0FECF
:10146000A3E0FF900054E06E7003A3E06F7F006084
:10147000027FFF22EFB40109D2AD75FF0143AE40F8
:1014800022C2AD75FF0153AEBF221206C89000DC28
:10149000E4F0A3EFF022E5C85402FF75C80222E58C
:1014A000C85404FF22E5C85401FF22900A18E0FE48
:1014B000A3E0FFC3E49FFF74089EFE22120253E4E0
:1014C000FB7A08F9F890005012023B1201658F0C6C
:0114D00022F9
:1017FA00060AFFFCFFFF02184E026D9119A37FB87B
:10180A00822D1C161311101000026DB5EF90181FCF
:10181A0093901900730A20364CE579FF22EFF57987
:10182A002202508B41707045765363686564756C0B
:10183A0065720085601E261958195D196C1971198F
:10184A007602606175819F75FF03759E02121920E9
:10185A00023272022F309029C6E47E019360F4A30B
:10186A00FF543F30E509541FFEE493A360010ECFF5
:10187A0054E0B4E00EEFFAEEF9A3A3A3A3DAFDD97C
:10188A00FB80D654C025E0604B5026E493A3F8545D
:10189A0007240CC8C333C4540F4420C8834004F43B
:1018AA0056800146F6DFE480B001020408102040A9
:1018BA0080E493A3FAE493A3F8E493A3C8C582C887
:1018CA00CAC583CAF0A3C8C582C8CAC583CADFE924
:1018DA00DEE78085E493A3F8E493A34003F680014E
:1018EA00F208DFF40218635A2D5761766520362E06
:1018FA00313000FF0201C0797419C0E0C082C08390
:10190A0075790AE5FF54CF4490F5FF22C07974191E
:10191A00C0E0C082C083757920E5FF54CF4490F5BA
:10192A00FF22C0797419C0E0C082C083757936E598
:10193A00FF54CF44A0F5FF22C0797419C0E0C082D9
:10194A00C08375794CE5FF54CF44B0F5FF229081EE
:10195A00AA21169081BE211690B7FD211690B16A70
:10196A00211690D098211690D0B0211690950C216E
:10197A001690D7CE211690C1B8211690D8122116EA
:10198A0090B0BD211690AA11211690EA492116900D
:10199A00EA65211690EB15211690EB39211690EC89
:1019AA00F7211690ED35211690A595211690ED7C1C
:1019BA00211690D389211690D368211690ECC22162
:1019CA001690A745211690D420211690E49421164A
:1019DA0090D524211690D43F211690D12721169014
:1019EA00D66D211690D5EB211690D6D1211690D519
:1019FA005B211690EE05211690A367211690D2A6B8
:101A0A00211690C167211690EF88211690EFC62102
:101A1A001690F00D211690F041211690F08C2116A7
:101A2A0090F123211690F0D3211690F14A211690B5
:101A3A00B24A211690EB1E21169081F12116909F31
:101A4A00C5211690F159211690F181211690E7E1EE
:101A5A00211690F18C211690F1C4211690F1B32130
:101A6A001690D781211690E7C9211690D7732116AF
:101A7A0090F217211690F22E211690E7AA211690BD
:101A8A00E6EA211690F249211690F2AB211690F25D
:101A9A0013211690F2AC211690F192211690EB0EBA
:101AAA00211690E701211690F436211690F6862128
:101ABA001690EAC0211690F807211690BA782116D6
:101ACA0090BAEE211690F2D1211690F6E7211690DF
:101ADA00F715211690F6A4211690F4B3211690F565
:101AEA0091211690F4FF211690F780211690BF09D4
:101AFA00211690F80D211690E20F211690E6B821D2
:101B0A001690E2CF211690E6D6211690C4682116C7
:101B1A0090E089211690F9B1211690CD8D21169069
:101B2A00FA61211690FAF0211690FA93211690F98B
:101B3A0045211690FC21211690E57B21169080976D
:101B4A0021169080FB2116908000211690815F213A
:101B5A001690C110214290840C214290C1912142D9
:101B6A00908F2D214290C194214290C1B22142907E
:101B7A009079214290B993214290B886214290806F
:101B8A009B21429090F3214290BD42214290C54C44
:101B9A00214290C856214290C875214290B08821AE
:101BAA0042909467214290CA53214290C8DD214253
:101BBA0090CBC0214290866D214290CD5A2142900D
:101BCA00CE242142909BEF214290CB87214290CF95
:101BDA00062142908FC1214290D0C4214290D14027
:101BEA00214290D0E9214290D1AC214290D21221D7
:061BFA004290D6D8214202
:101C000090841C214290D751214290D77C21429050
:101C1000B8A6214290D7F4214290D842214290B8F0
:101C200064214290800021429080C5214290D84991
:101C3000214290D85B214290D874214290D87A21D9
:101C40004290B822214290D89C214290908021421B
:101C500090D8A1214290D8B2214290DA2B21429013
:101C6000DA6A214290DABA214290A61F214290C03E
:101C70009C214290BB0D21429080D8214290BEAF62
:101C80002142908FFD214290BA70214290DBFB21CE
:101C90004290D8D4214290DFDB214290D956214294
:101CA00090E050214290E07A214290DBC3214290A3
:101CB000E209214290B35C214290D66A214290D041
:101CC0009F214290AA97214290B64B214290B5396C
:101CD000214290B633214290B643214290E28C21BA
:101CE0004290B6AA214290AFAD214290E2B8214283
:101CF00090E2D4214290AF7A214290E304214290B5
:101D0000D1A5214290E31D214290AF80214290E372
:101D100023214290B6E5214290D0BE214290E3DBE0
:101D2000214290E47D214290E554214290E5CF216B
:101D30004290B9A121429085B12142909004214264
:101D400090EA9E214290D185214290904321429079
:101D5000EAA8214290904A214290E26D214290EB04
:101D600018214290BD86214290EC1C214290E0DF78
:101D7000214290C5BB214290EC33214290EC3621A8
:101D800042909FA5214290CCFA214290A3DB2142B0
:101D900090A376214290A136214290A12221429027
:101DA000E253214290A53E21429080CF214290E013
:101DB000A5214290A4B5214290A1EA214290A2B966
:101DC000212C90A2BA212C90A82F212C90A9C321BC
:101DD0002C90AB0D212C908231212C9084FF212C52
:101DE00090AD39212C90ADE1212C90ADE6212C90C5
:101DF000880C212C9080BA212C9080BD212C90AE93
:101E00007A212C90B129212C90B1B3212C90B3EFE1
:101E1000212C90B652212C90B315212C90B0862104
:101E20002C90856B212C90C9C7212C90CEDA212CC7
:101E300090CF80212C90CF51212C90C3EA212C905F
:101E4000CFC8212C90D0C8212C90D116212C90D114
:101E50009C212C90A277212C90D1D8212C90D22992
:101E6000212C90CEB4212C90D24C212C90B99921C8
:101E70002C90B88B212C90D4A0212C90D4C1212C53
:101E8000908000212C9088C7212C909B3B212C0016
:101E9000E709F608DFFA8046E709F208DFFA803E34
:101EA00088828C83E709F0A3DFFA8032E309F60821
:101EB000DFFA8078E309F208DFFA807088828C8389
:101EC000E309F0A3DFFA806489828A83E0A3F6083D
:101ED000DFFA805889828A83E0A3F208DFFA804C17
:101EE00080D280FA80C680D4806980F280338010EE
:101EF00080A680EA809A80A880DA80E280CA803357
:101F000089828A83ECFAE493A3C8C582C8CCC583CE
:101F1000CCF0A3C8C582C8CCC583CCDFE9DEE7809E
:101F20000D89828A83E493A3F608DFF9ECFAA9F01D
:101F3000EDFB2289828A83ECFAE0A3C8C582C8CC73
:101F4000C583CCF0A3C8C582C8CCC583CCDFEADE8C
:101F5000E880DB89828A83E493A3F208DFF980CCEE
:101F600088F0EF60010E4E60C388F0ED2402B404E7
:101F70000050B9F582EB2402B4040050AF2323458E
:101F80008223901EE073BB010689828A83E022507F
:101F900002E722BBFE02E32289828A83E49322BB0A
:101FA000010B89828A83F8E0C828F0E822500327D1
:101FB000C722BBFE07F8E3C828F3E8228A83898298
:101FC000E49322BB010CE58229F582E5833AF5838F
:101FD000E0225006E92582F8E622BBFE06E92582CA
:101FE000F8E222E58229F582E5833AF583E493223B
:101FF000BB010989828A83F8E028F022500327F781
:1020000022BBFE05F8E328F3228A838982F8E49351
:102010002822BB010FF8E58229F582E5833AF58392
:10202000E028F0225009C58229F8E58226F622BB75
:10203000FE09C58229F8E22582F222F8EA2583F515
:1020400083E9932822BB010689828A83F022500209
:10205000F722BBFE01F322F8BB010DE58229F582D0
:10206000E5833AF583E8F0225006E92582C8F62296
:10207000BBFE05E92582C8F222EF8DF0A4A8F0CFBF
:102080008CF0A428CE8DF0A42EFE22BC000BBE0046
:1020900029EF8DF084FFADF022E4CCF875F008EF65
:1020A0002FFFEE33FEEC33FCEE9DEC984005FCEE8A
:1020B0009DFE0FD5F0E9E4CEFD22EDF8F5F0EE84BB
:1020C00020D21CFEADF075F008EF2FFFED33FD4080
:1020D00007985006D5F0F222C398FD0FD5F0EA22FA
:1020E000C2D5EC30E709B2D5E4C39DFDE49CFCEE1B
:1020F00030E715B2D5E4C39FFFE49EFE12208BC3E8
:10210000E49DFDE49CFC800312208B30D507C3E4E2
:102110009FFFE49EFE22C5F0F8A3E028F0C5F0F88A
:10212000E582158270021583E038F022A3F8E0C53D
:10213000F025F0F0E582158270021583E0C838F0D2
:10214000E822BB010A89828A83E0F5F0A3E02250ED
:102150000687F009E71922BBFE07E3F5F009E3194A
:102160002289828A83E493F5F074019322BB0110E3
:10217000E58229F582E5833AF583E0F5F0A3E022D4
:102180005009E92582F886F008E622BBFE0AE92517
:1021900082F8E2F5F008E222E5832AF583E993F577
:1021A000F0A3E99322BB010DC58229C582C5833AFC
:1021B000C5830221165011C58229F808E5F026F6DC
:1021C00018F5F0E58236F622BBFE11C58229F80823
:1021D000E225F0F5F0F218E23582F222F8E58229E4
:1021E000F582E5832AF58374019325F0F5F0E493F5
:1021F0003822BB010A89828A83F0E5F0A3F02250DD
:1022000006F709A7F01922BBFE06F3E5F009F3195A
:1022100022F8BB0111E58229F582E5833AF583E8CE
:10222000F0E5F0A3F0225009E92582C8F608A6F0EF
:1022300022BBFE09E92582C8F2E5F008F222EF2B65
:10224000FFEE3AFEED39FDEC38FC22C3EF9BFFEECA
:102250009AFEED99FDEC98FC22E88FF0A4CC8BF06F
:10226000A42CFCE98EF0A42CFC8AF0EDA42CFCEA52
:102270008EF0A4CDA8F08BF0A42DCC3825F0FDE98C
:102280008FF0A42CCD35F0FCEB8EF0A4FEA9F0EB82
:102290008FF0A4CFC5F02ECD39FEE43CFCEAA42D8E
:1022A000CE35F0FDE43CFC2275F008758200EF2F7E
:1022B000FFEE33FECD33CDCC33CCC58233C5829B0C
:1022C000ED9AEC99E58298400CF582EE9BFEED9A32
:1022D000FDEC99FC0FD5F0D6E4CEFBE4CDFAE4CCCE
:1022E000F9A88222B800C1B90059BA002DEC8BF0D0
:1022F00084CFCECDFCE5F0CBF97818EF2FFFEE338D
:10230000FEED33FDEC33FCEB33FB10D703994004B7
:10231000EB99FB0FD8E5E4F9FA227818EF2FFFEEDE
:1023200033FEED33FDEC33FCC933C910D7059BE90F
:102330009A4007EC9BFCE99AF90FD8E0E4C9FAE46B
:10234000CCFB2275F010EF2FFFEE33FEED33FDCC0A
:1023500033CCC833C810D7079BEC9AE899400AEDF4
:102360009BFDEC9AFCE899F80FD5F0DAE4CDFBE49C
:10237000CCFAE4C8F922EF5BFFEE5AFEED59FDEC12
:1023800058FC22C3E49FFFE49EFEE49DFDE49CFC18
:1023900022EB9FF5F0EA9E42F0E99D42F0EC64806A
:1023A000C864809845F022EB9FF5F0EA9E42F0E980
:1023B0009D42F0E89C45F022E8600FECC313FCED71
:1023C00013FDEE13FEEF13FFD8F122E8600FEFC309
:1023D00033FFEE33FEED33FDEC33FCD8F122BB01CD
:1023E0000789828A8302246C5005E9F8022916BB0A
:1023F000FE05E9F802292289828A83022478BB013A
:102400000DE58229F582E5833AF58302246C5007B5
:10241000E92582F8022916BBFE07E92582F8022980
:1024200022E58229F582E5833AF583022478BB010F
:102430000789828A830224C45005E9F8022958BB1F
:10244000FE05E9F802296422BB010DE58229F58227
:10245000E5833AF5830224C45007E92582F802296E
:1024600058BBFE07E92582F802296422E0FCA3E0BC
:10247000FDA3E0FEA3E0FF22E493FC740193FD744E
:102480000293FE740393FF22E0F8A3E0F9A3E0FABD
:10249000A3E0FB22BB010DE58229F582E5833AF535
:1024A000830224885007E92582F802292EBBFE0703
:1024B000E92582F802293BE58229F582E5833AF590
:1024C00083022948ECF0A3EDF0A3EEF0A3EFF02295
:1024D000A8828583F0D083D0821224E71224E712E9
:1024E00024E71224E7E473E493A3C583C5F0C5830E
:1024F000C8C582C8F0A3C583C5F0C583C8C582C856
:1025000022BB010789828A830224D05005E9F802A0
:102510002970BBFE05E9F802298922BB010DE5827D
:1025200029F582E5833AF5830224D05007E9258214
:10253000F8022970BBFE07E92582F802298922F5F5
:10254000F0C582A4C582C5F0C583A42583F5832286
:10255000A42582F582E5F03583F58322E0FBA3E034
:10256000FAA3E0F922F8E0FBA3A3E0F925F0F0E5F7
:1025700082158270021583E0FA38F022EBF0A3EAAC
:10258000F0A3E9F022E493FB740193FA740293F947
:1025900022BB010789828A8302255C5005E9F80283
:1025A00029A2BBFE05E9F80229B489828A830225A3
:1025B00085BB011A89828A83D0F0D0E0F8D0E0F997
:1025C000D0E0FAD0E0FBE8C0E0C0F002257C501675
:1025D000E9F8D083D082D0E0F9D0E0FAD0E0FBC0B7
:1025E00082C0830229ABBBFE16E9F8D083D082D02B
:1025F000E0F9D0E0FAD0E0FBC082C0830229BD221E
:10260000BB010DE58229F582E5833AF58302255C5D
:102610005007E92582F80229A2BBFE07E92582F8C6
:102620000229B4E58229F582E5833AF583022585FE
:10263000BB0120E58229F582E5833AF583D0F0D00D
:10264000E0F8D0E0F9D0E0FAD0E0FBE8C0E0C0F07C
:1026500002257C5018E92582F8D083D082D0E0F999
:10266000D0E0FAD0E0FBC082C0830229ABBBFE18E9
:10267000E92582F8D083D082D0E0F9D0E0FAD0E02A
:10268000FBC082C0830229BD22D083D082F8E493AC
:102690007012740193700DA3A393F8740193F582E3
:1026A0008883E4737402936860EFA3A3A380DFD0F0
:1026B00083D082E4937012740193700DA3A393F8F6
:1026C000740193F5828883E4737402936C701274BE
:1026D00003936D700C7404936E70067405936F60B1
:1026E000DDA3A3A3A3A3A380CA8A838982E473E59D
:1026F000752582F582E5743583F583B5740485828A
:10270000752210AF06858275F57422858275F57481
:10271000D2AF22EC8EF0A4CCC5F0CCCDF8EFA4CE95
:10272000C5F02DFDE43CFCE8A42EC8C5F03DFDE459
:102730003CFCEFA4FFE5F028FEE43DFDE43CFC2278
:10274000E3F5F009E208B5F06BDFF58067E3F5F03B
:1027500009E608B5F05EDFF5805A87F009E608B5AE
:10276000F052DFF6804E87F009E208B5F046DFF65A
:10277000804288828C8387F009E0A3B5F036DFF6CB
:10278000803288828C8387F009E493A3B5F025DF3B
:10279000F5802188828C83E3F5F009E0A3B5F0147D
:1027A000DFF5801088828C83E3F5F009E493A3B50C
:1027B000F002DFF402286F808780E9809080D48067
:1027C0003E8015806E807E809D80B7808D80A38046
:1027D000518074803C02287B89828A83ECFAE493DE
:1027E000F5F0A3C8C582C8CCC583CCE493A3C8C503
:1027F00082C8CCC583CCB5F076DFE3DEE18070899A
:10280000828A83E493F5F0A3E208B5F062DFF480F6
:102810005E89828A83E0F5F0A3E608B5F051DFF522
:10282000804D89828A83E0F5F0A3E208B5F040DFAD
:10283000F5803C89828A83E493F5F0A3E608B5F03D
:102840002EDFF4802A8002805789828A83ECFAE4A2
:1028500093F5F0A3C8C582C8CCC583CCE0A3C8C596
:1028600082C8CCC583CCB5F006DFE4DEE280007F11
:10287000FFB5F0020F2240027F012289828A83EC99
:10288000FAE0F5F0A3C8C582C8CCC583CCE0A3C8E4
:10289000C582C8CCC583CCB5F0D5DFE5DEE380CFFB
:1028A00089828A83ECFAE0F5F0A3C8C582C8CCC55A
:1028B00083CCE493A3C8C582C8CCC583CCB5F0AFA4
:1028C000DFE4DEE280A988F0EF60010E4E60ABED40
:1028D0002402B404005098F582EB2402B4040050A2
:1028E0008E23234582239027B773EF4E6012EF604B
:1028F000010EEDBB010B89828A83F0A3DFFCDEFAB7
:102900002289F05007F709DFFCA9F022BBFEFCF397
:1029100009DFFCA9F022E6FC08E6FD08E6FE08E671
:10292000FF22E2FC08E2FD08E2FE08E2FF22E6FBED
:1029300008E6F908E6FA08E6CBF822E2FB08E2F935
:1029400008E2FA08E2CBF822E493F8740193F974F0
:102950000293FA740393FB22ECF608EDF608EEF608
:1029600008EFF622ECF208EDF208EEF208EFF222A0
:10297000D083D082E493F608740193F6087402932E
:10298000F608740393F6740473D083D082E493F250
:1029900008740193F208740293F208740393F274BA
:1029A0000473E6FB08E6FA08E6F922EBF608EAF615
:1029B00008E9F622E2FB08E2FA08E2F922EBF20863
:1029C000EAF208E9F2224103C1004103C000E0023B
:1029D0000200001421E002020002120FE0010200D6
:1029E0000954E00102000AA5E00102120B00E00513
:1029F00002120C120F02060A4108FB0601140041E4
:102A000008FA014108F801C11A011900011700C1B3
:102A100031413D5900413D4E00413D5700413D5837
:102A200000413D55FF413C2100C11DC102412B2405
:102A300000412BB2FF412BA900C100412BB3004143
:102A40002BB400412BAA01C105412B23004143B205
:102A500000C13D4339E40000004139E3004139E75A
:102A6000004303B70000004303B40103B7422D7BCA
:102A700098074340F80000004340F50140F8E002A9
:102A800002121101B0E00102121300E001021294DF
:102A900000E0050213BC01B006060A4142D902411A
:102AA00042D80D4142DA086020353A42DB0100008D
:102AB0000000000000000000000000000000000016
:102AC00000000000000000000000006020355A09EE
:102AD00000000000000000000000000000000000F6
:102AE0000000000000000000000000000000005096
:102AF0003856000000000000000000000000000048
:102B00000000C114015000C111C11241424605C16B
:102B10001EC120C12542238C984041238E0043359D
:102B2000AD0000004235AB00006020234B000000E8
:102B30000000000000000000000000000000000095
:102B40000000000000000000000000000043200022
:102B50009F01005020030000000000000000000062
:102B60000000000000016127260E0002010501019E
:102B7000020E060101000407040102030000040024
:102B800006080504020803140400040014050108E3
:102B900009080502080314050004001405000600D6
:102BA000140802020A0A08020301000800040014C3
:102BB000080006001408010800140A020D000A0AA1
:102BC000020C000A0A02080B0A0A01050C0E0A0090
:102BD0000400140A000600140A010800140E000A7A
:102BE0000D110E020804140E000400140E0006005D
:102BF000140E010800140E010500140E020F0E122F
:102C000011000C0C0E110208041411000400141120
:102C10000006001411010800141101050014110030
:102C20000A00141102050E12120208041412020CFA
:102C30000F00120004001412000600141201080014
:102C400014120105001412000A00141202050014E7
:102C500012000C001413020C010000020900000015
:102C600002100000140209010014020B00131400EA
:102C700007100014020A0100140204001414020CCC
:102C8000001414020D010014020E001414021001AD
:102C9000006024281E0200FFFF0602FF000602FF5C
:102CA000000301FF002300FFFF03000000130000EA
:102CB0000002000101030000004627750100020127
:102CC00004024227FB1D4041288200412A30014175
:102CD0002888004328850128434328790128434157
:102CE0000AAB0060200961EDFFFFFFFFFFFFFFFF60
:102CF000FFFFFFFFFFFFFFFFFFFFFFFFFFFFFFFFE4
:102D0000FFFFFFFFFFFF7F49330786858E59725A09
:102D100073807A4F3310FF311C0EFF312A050133C7
:102D200007090210014932CC4C6966656C696E6511
:102D30000044330380035A01602E32D500000000A6
:102D40000000000000000000000000000000000083
:102D50000000000000000000000000000000000073
:102D6000000000000000000000004133200041325C
:102D7000CB01C142E0020213C1004CE0050214087D
:102D8000004C040405E00202140D0013E00C0214D0
:102D90000F00000305000300050405060AE0050214
:102DA000141B0013FF0405E0020214200000433C42
:102DB00038000000423C3F0000443C3B07102232F8
:102DC000463C3240464A4E5256C1274138B7004130
:102DD00038B400424339000041433800C14943330D
:102DE0007400000041332100413235014239930023
:102DF0000041398A00453E5D0000000000453E5814
:102E00000000000000413DF100413DED00413DE783
:102E100000413DF000413DE800413EEC00413EEB09
:102E2000004442880000000041439C00414349FFA8
:102E30004243470000C1544138EF005B38D30000E3
:102E40000000000000000000000000000000000082
:102E50000000000000000000004138D2FFC15741CF
:102E60003745005036A000000000000000000000C0
:102E70000000000000004536B00001020480473623
:102E8000C0000000000000004336BD0000004140CB
:102E9000D0004140CF004240CD00004240CB000076
:102EA0004140CA004C3DBA10000000000011000073
:102EB000000000C15D00C2D5E830E70FB2D5E4C321
:102EC0009BFBE49AFAE499F9E498F8EC30E717B23E
:102ED000D5122EEC1222E4E4C39BFBE49AFAE499A7
:102EE000F9E498F880031222E430D50DE4C39FFF83
:102EF000E49EFEE49DFDE49CFC22789FE4F6D8FD70
:102F00009000007F007E10E4F0A3DFFCDEFA904327
:102F1000E7A3E583C394204011FEAF829020000E0A
:102F20000FE48002F0A3DFFCDEFA12192002186021
:102F30002232000001000000001706000000001807
:102F40000600000006180600000001180600000038
:102F50000818060000000101010000000115000032
:102F60000000010204000000010B04000000060B39
:102F700004000000080B04000000010D0000000028
:102F8000010E04000000011000000000010F00000D
:102F9000000004050100000004060600000004070C
:102FA0000800000002050000000003050100000009
:102FB000010805000000000800000000010C0100ED
:102FC00000000112050000000803020000000122B9
:102FD00000000000081608000000080800000000BB
:102FE000011601000000061601000000050903009B
:102FF0000000050A000000000503020000000504AF
:1030000000000000061B06000000011B0600000077
:10301000061C07000000061D070000000705080049
:103020000000081E07000000082000000000081F24
:103030000000000008210000000008110600000048
:103040000111060000000822000000000619060019
:103050000000061E00000000062000000000061A06
:103060000800000006140100000007140100000021
:10307000081B0600000007240000000008140100DF
:10308000000055555555555555555555555555559A
:1030900055333333333333333333333333333333DE
:1030A00033888888888888888888888888888888F5
:1030B0003F241E16110E0B09070504030201F0C878
:1030C000A7917767604638353230242220140001FA
:1030D00001020203030404050506060707000000B9
:1030E00000000000000000000000000000000000E0
:1030F00000000000000000000000000087888888B1
:1031000088888888888888888888888826262626C7
:103110002626262626262626262626265E858E591D
:103120005586725A73989F6C807A5E6C55989F0092
:10313000011DE01DE51DEA1DFE000D33B0000D333D
:10314000B000000000020C00013F3F3F04040440B7
:103150004040000000004C6966656C696E6500497E
:103160006E76616C69642067726F75700019BC19A6
:10317000C119C619CB19D519E919EE19F31D591D35
:10318000631D681D6D1D721D771D7C1D861C3C1CFA
:103190004B1C501C551C5A1E491E4E1E531E581EB9
:1031A0005D43234012416C1A7A1A7F1AB61C8C1C9C
:1031B000961CAA1E081E0D1E121E2B1E301E351A2E
:1031C000341A391CAF1CB41E3A1E3F1E621E671E05
:1031D0006C1E711E761E7B1BB01BC41D4F1E035A36
:1031E000012003800300011E445944E4FD7C0CAB24
:1031F000050DEB9018F1938F828E83F00FBF0001C5
:103200000EDCEC7F03228F828E83E4F0A3740651E0
:1032100028740A5128A3E4F0EF2404F582E43EF573
:1032200083E4F0A3746DF022F08F828E83A3A32237
:10323000AD07901217E054FCF0E0FFED54307E0033
:1032400060027E02EF4E901217F0E0FFED7E00303C
:10325000E0027E01EF4E901217F0229003C9740233
:10326000F09003C0E0FF121DC751309003C97405F0
:10327000F02275FF0275E404E4F5E4127338C330FC
:10328000E001D34017E5E630E012901217E0540C4D
:10329000600A121BEC901217E054F7F0C219127377
:1032A0003830E039E5E6540364017031121A201217
:1032B0004F6B401F90123FE0600BE014F07006125D
:1032C0002EFA12712C901215E020E002616B124868
:1032D000BA616B122EFAD21912712C616B122EFA8E
:1032E0001265639003C2EFF0901200E0B47A14907C
:1032F0001214E0B49C0D9003C2E0FF64056004EF7B
:10330000B40330E49003C8F09003C8E0FFC3948096
:103310005013E42FF582E43412F583E4F09003C8EF
:10332000E004F080E3901200747AF0901214749C20
:10333000F0D215121C194003121C147B017A127969
:10334000107D017F01121C0F7B017A1279117D0122
:103350007F21121C0F7B017A1279127D017F2212CC
:103360001C0F7A1279297F02126C6C901229E0B43A
:1033700001057F01126A07121A25126563121A1BD2
:103380009003C2EFF0121999121A169003C2E0FFCF
:10339000B40602800C3019047F0280059003C2E05D
:1033A000FF121DC2EF24FFB3923D75FF0253E6BF2B
:1033B000123FAD600312712C125068121A2F12388E
:1033C000BA30150B7B017A12792B7D101263AF1284
:1033D0001A6B901215E0C330E001D3400E203D0B74
:1033E000515B7B017A2B79BB1219DA90122AE030FB
:1033F000E00280033019057F01124AA4D2AF203DBC
:10340000028186121C321243BE121DCC121C0A40CD
:10341000F29003C1E06042121A4DEF7005125AA4F7
:103420004037E51470FCE51520E503124FB5121B7B
:1034300065EF70FA1264C750051264B350047F013F
:10344000B1C89003C1E0B40204E4FF80099003C155
:10345000E0B403057F011248BF121A43E51530E1BD
:10346000A21260384002E4F0E51520E505B1A11292
:103470005E181270CDC0E0B1AF9003C4E0FDD0E0A3
:10348000FF12198F81031250071248E350031249AB
:1034900003B1BFEF70069003C1E06053902B24E0AE
:1034A000704D121A4DEF7005125AA44042E5147087
:1034B000FCE51520E503124FB5121CA0121B65EFA9
:1034C00070FA1264C750051264B350047F01B1C88A
:1034D0009003C1E07011B1BFEF600C12389D9012E3
:1034E00017E04408F080089003C1E0FF121BE712C8
:1034F0001C321243BE121BFB123877123885EF7054
:10350000231238B2EF6005121BEC8038B1BFEF70A8
:10351000331264FEEF702D1247F7EF64017025122D
:1035200038968020901217E020E2191238B2EF602E
:103530000E1264C750051264B35004E4FFB1C8E42E
:103540009003C7F0201605121A438022125A6C907D
:1035500003BAE0FEEFC39E4005EF9EFF8008900394
:10356000BAE0F4042FFF7406D39F5002C216E5158B
:1035700030E1231260384002E4F0E51520E505B1A2
:10358000A1125E181270CDC0E0B1AF9003C4E0FD8F
:10359000D0E0FF12198F121BB5121A571250538127
:1035A000869003C3E0FD75F0AA9003CD122550ED7F
:1035B00075F002A424BCF9740335F0FA7B012212E1
:1035C00038ABB401027F012290436CEFF0E4A3F02A
:1035D000903C22E0FFB4020A740F12733074B9F009
:1035E000800DEF64047040743D1273307479F0F113
:1035F0001390436CE06007903C21E0FF80027FABBA
:10360000D131F1F290436CE0903C21F07015904381
:103610006DE0D39400400C7FFFD13190436DE014F6
:10362000F080EBE4FFF17C2212246C78081223B8BE
:10363000E4E5C820E2FB8FEB227F01F17C9043ABF5
:103640007401F09043ABE06030127290D1C69043A9
:10365000ABEFF0F1F2D1B5903C15EFF0F1F2904301
:10366000ABE0540112732860DAA3E0F460D5EF30C8
:10367000E7D1E49043ABF080CAF1177F9FD131D1FD
:10368000C6903C16D1C4903C1BD1C4903C1CEFF0BA
:10369000F178903C14E0F4601BA3E0F46016903CD9
:1036A0001BE0FD541F240FA3F0EDC4135407448006
:1036B000903C1BF022F1177FD7D1317FFFD131D160
:1036C000CA903C14EFF07FFFD131E5C820E2FBAF98
:1036D000EB227F01F17C303B15127290D1C69043F2
:1036E000ACEFF0F1F29043ACE020E002C23B303BA3
:1036F00018D1B5903C15EF127328600BA3E0F4606D
:1037000006EF30E702C23BF1F2E4FFF17CA23BE4BA
:1037100033FF227F01F17C903C19E0122689373A71
:1037200004374214374715374C17375C303761344C
:10373000376636376B3700003754536CEF856C8033
:10374000802F536DEF8008536DDF8003536D7F85AD
:103750006D90801D536EDF856EA08015536FFE80C7
:103760000D536FEF8008536FBF8003536F7F856FDA
:10377000B07F0CDFFE22D131F1F2E4FFEFB401049F
:1037800043FE202253FEDF2290418F1224C4904139
:103790008F12246C123A04904193E06F6036123F0E
:1037A00042D1D2EF6005123EA480F6123F6D600A4E
:1037B00090418F12246C7810D12D90418FD1289098
:1037C000418F123F9F904193E0FFF176903C187437
:1037D00001F0D322C322903C14E020E012F1137FC9
:1037E0003DD1317F2AD1317F80D1317FA6F1762240
:1037F000D131126D85EF70FA903C1BE0F4600B90B4
:1038000043AA7406F012386F70FB903C19E0122640
:1038100089382D04383514383A15383F17384F3069
:10382000385434385936385E3700003847436C1006
:10383000856C80802F436D108008436D208003438A
:103840006D80856D90801D436E20856EA080154330
:103850006F01800D436F108008436F408003436FFA
:1038600080856FB09043AA740CF0116F70FC2290A9
:1038700043AAE014F0E0229003C7E0FF121DD190AC
:1038800003CCEFF0229003CCE07F0070027F012296
:10389000E49003C7F0229003C77401F0229003C79D
:1038A0007402F02211AB70027F01229003C7E07F07
:1038B000002211ABB402027F0122126A98121A3E52
:1038C000121B06121994121C37F1AD700221A87F49
:1038D000FF121AC5900A1312257C7E007F09510140
:1038E000BF540D7E007F0A5101BFA5047F018002F5
:1038F0007F009003C0EFF0900A1312255CE94A4B59
:10390000701D7F04FE5101EF2401FFE433FEC374F8
:1039100001124DCA7F0050027F019003C0EFF0906A
:1039200003C0E06401704F900A1312255CF1E17A44
:103930000A79199176900A19E0FEA3E0900A131211
:103940007134E92407F9E43AFA900A1612257CE961
:103950002408F9E43AFEAF017B017A0A79199176DD
:10396000900A19E064047004A3E064056008121A68
:10397000CA9003C0EFF09003C0E070247E007F0483
:10398000C006C374219404FE74149400904043F064
:10399000A3CEF01242EAD006F1B4E4FFFE121ACF31
:1039A0009003C0E0FF121AF2F1AD7F0060027F01C8
:1039B0001219FD121A071219621270797923121B5B
:1039C0006A1248FBFE4FFDA3E0FC4DFDA3E0FB4D5A
:1039D000600BEE5FFFEC5FFFEB5FF47003124903D7
:1039E000901221E0FF901225E06F9003BBF0021CC3
:1039F0000575F002A42485F9740F35F07B02FEAF43
:103A000001E4FCFD90418A1224C4F1421236D2EF47
:103A10006004D1A480F61237137F03F187600B9006
:103A2000418A12246C781012362D90418A12362861
:103A300090418AF19F1236C690418EEFF01237788E
:103A400090418EE0FF227402F090404012257CE409
:103A5000FCFDC00790404012255C9040431271ADC0
:103A6000D007903C5F1224C4903C6312257C903CAC
:103A70005F12246C903C1EE024FFFD903C1DE0345E
:103A8000FF5EFEED5FFF903C68F1E8605D9134C33E
:103A9000127184903C68F0A3EFF0903C66F1A69F11
:103AA000EC9E5006A3ECF0A3EDF0B18D602D914D8E
:103AB000913D903C5FF151C004C005C006C0077144
:103AC000894A60059127FF80027F007E007189F19D
:103AD000C5D007D006D005D004D1DC71624A60049D
:103AE000913480717E007F00806B903C66E0FEA385
:103AF000E0FF4E606B903C1DF1A6EF9DEE9C400AEE
:103B0000903C68ECF0A3EDF0800D903C66E0FFA3E4
:103B1000E0A3CFF0A3EFF0B18D602D914D913D90DA
:103B20003C5FF151C004C005C006C00771894A60FE
:103B3000059127FF80027F007E007189F1C5D007C3
:103B4000D006D005D004D1DC71624A600491348083
:103B5000047E007F00903C64EE8FF0122116808A74
:103B6000D322903C68E0FEA3E0FFC3903C67E09F57
:103B7000F0903C66E09EF0903C5F122488E4FCFDEF
:103B800012223E903C5F1224C4903C6312255CE9F3
:103B900022EFF4045FFFE4FEEF70037FFF22EFD318
:103BA000940F4009EFC4540FFFEE4404FEEFD3948A
:103BB00003400AEF1313543FFFEE4402FEEF30E1DF
:103BC000010EAF0622AB07AA06EB241FFFE43AFE64
:103BD000EF7805CEC313CE13D8F9F9EB541F9043F9
:103BE000ADF0AF05912CFCAF057196AE01EE14C39C
:103BF0009FC43354E0F9AF04C3EB9FFFEA9400FE87
:103C0000E9FDC3EF9DFFEE9400FEED600FE0FD6067
:103C100007C374209DFD80067D0080027D007C002E
:103C2000EF2DFFEC3EFE22903C6CE0FF7191EFC463
:103C30003354E022903C68E0FEA3E0FF22E0FF71F5
:103C400091EF75F020A4FFAEF0E4FCFD22903C68FB
:103C5000E0FEA3E0FF903C6CE0FD71C5903C6AEE95
:103C6000F0A3EFF0A3229039FC12255CAE02AF0165
:103C70007B017A3A790B9040D67402F09040D312CF
:103C8000257CE4FCFDC0079040D312255C9040D613
:103C9000126FF1D007903E7F1224C4903E8312250C
:103CA0007CF1421236D2EF6004D1A480F6123713B1
:103CB0007F03F187600B903E7F12246C78101236E0
:103CC0002D903E7F123628903E7FF19F903E86F1E8
:103CD000BB600F1236C6903E83F198903E84F191FE
:103CE00080EA1237F2E4FF02377CF15712257CE4B8
:103CF000903D64F0A304F0903D61E0FEA3E0FF4E30
:103D00007002A187D3EF9420EE940040047F2080BE
:103D100006903D61A3E0FF903D63EFF0903D5E12A1
:103D2000255C903D63E09037A3F1DA903D5A122470
:103D30006C126C90400E903D64E0FFA3E0FEEF4EED
:103D4000903D64F0903D63E0FFC3903D62E09FF0E2
:103D5000903D61E09400F0903D5A122488903D63BC
:103D6000127309F15712255CE94A6007903D63E040
:103D7000FF80027F00903D5FE48FF0122116903D9E
:103D800065E025E0F081F7903D64E0FF22903C6320
:103D900012255C903C68E0FFA3E0903D61CFF0A36A
:103DA000EFF0903C5F12246C91EA903C6CEFF022B3
:103DB0009043A8EFF0C231901221E0601F7E127F85
:103DC0000B5101BF01087FFF121DDB7F0022903DD8
:103DD00054E06008901221E0FF121DDBD18F904368
:103DE000A8E07002C167E4903D58F0903D54E06057
:103DF000031242079043A8E0FFB40107903D5874B6
:103E0000018009EFB40310903D587402F0D18790FF
:103E10003D567404F08048EF64047035901221E040
:103E2000701ED231F161EF700FD1871264D97E120A
:103E30007F0B7D01D1CFD197903D547404F0803930
:103E40009003C2E0B40505E4F0121BD3D1877F00D4
:103E5000229043A8E064027020903D56F0D18790F4
:103E60003D547402F08012E4903D58F0F161EF602F
:103E700002D18F903D547401F012420A903D54E0FB
:103E80007F0060027F0122901217E05403F0227E2F
:103E9000127F0BE4FDD1CFF1421236D2EF6004D194
:103EA000A480F622E51530E20FE51520E50AE515B8
:103EB00030E0057F01124AA422E075F002A42484B8
:103EC000F9740F35F07B02FEAF01902BABE0FDAB38
:103ED00005E4FCFD904193EBF0023788903E7612AA
:103EE00024C4903E7A12257CF1421236D2EF60044F
:103EF000D1A480F6F16D600B903E7612246C7810A0
:103F000012362D903E76123628903E7612246CE4BE
:103F10008021903E7DF1BB601F903E7A12255CE9C6
:103F20004A600E121F86FF123631903E7BF191805F
:103F3000E1E4FF12363180DA123778903C187401D0
:103F4000F02275FF02E5E430E10675E40675E4034E
:103F50002212248802223E903D5A1224C4903D5ED3
:103F600022901217E07F0030E2027F01227F0112CF
:103F7000377CD23B1237177F061236311237F212D6
:103F80003717903C17E0FF123631903C1AE064027C
:103F900022E475F00102211612255CEF0220451281
:103FA000246CE4023631E0FCA3E0FDD3229003C28E
:103FB000E0640122514974FFFDFC2274FFF5F01208
:103FC000212C45F0222FF9EE3AFA903C6AE0FFA34B
:103FD000E0903E7DCFF0A3EFF022FFE4F0A3EFF0FE
:103FE00022AE02AF017B0122EEF0A3EFF04E22756C
:103FF000FF0275E40475E40175E4022275FF0275A1
:10400000E404E4F5E422125A6C9003CAEEF0A3EF44
:10401000F0221264E1EF70087FA07E0FFDFC01B377
:10402000126518903D4FEFF07406D39F4067E06033
:104030005A312D7E00903D4FE014FDE5F0A80508B3
:104040008005C333CE33CED8F9FF31263112903DEF
:1040500050122488C000C001C002C003903D4FE050
:1040600014FF74107E00A807088005C333CE33CE3A
:10407000D8F9FFEE3395E0FDFC311E122259D00332
:10408000D002D001D00012223E8028312DAFF07E28
:10409000003126801E903D57E0FF600FE4FCFDFEDE
:1040A000FB7AF47901F812225980087F007ED07DD6
:1040B000077C00311231407E417F6CC006C0073161
:1040C0000AB191D007D006517A1264F2EF703A31FA
:1040D00018D31223A74007E47F01FEFD8022311888
:1040E0001222E43112310AE47B01F1C85014310A82
:1040F000C3EF9401FFEE9400FEED9400FDEC9400FC
:104100003111310A121BF1110622903D5002246C2C
:10411000FDFC903D500224C4903D5012246CE47B81
:10412000E87A03F9F8227C007D640227133135EF29
:1041300075F0A084229003BBE064AA2411FFF02252
:10414000F1DCEF600FE47FA07E0F3110901217E0DA
:1041500054E7F022901217E0FF74E0D39F4005E08F
:104160002410F022EF6410901217F02251F1F09019
:104170003D54E0B4020AF1D5903D547403F0410A75
:10418000903D54E064037069903D56E06056903D68
:1041900058E0B40105121BD8800A903D58E0B402E3
:1041A00003121BDD903D56E014F0E0601F3135EF47
:1041B00075F04684E5F075F064A4FFEF24A0FFE5F8
:1041C000F0340FFEE433FDE433FC8007E47FA07E8F
:1041D0000FFDFC903F341224C47E417F6CE4903F7D
:1041E00038F0417A903D547401F0510A7FFD021D70
:1041F000DB903D54E0B4040EF1DCEF600651EAE4DC
:10420000FF0112121BD8227401F0903D54E06402A9
:1042100070227C437D237F011219F8E4FBFAFD7FB5
:10422000FF1219E47E417F6CC006C007B18AD00737
:10423000D0068046903D54E064037017FFFE3110B5
:10424000903D58E07C437D23B402047F0380117FBE
:1042500002800D903D54E0B4040B7C437D237F0429
:104260001219F8216C903D54E0B4010DF1D551F1D3
:10427000F0123E87E4903D54F0225182903D59EF78
:10428000F022903F32EEF0A3EFF07FFFA3122488DC
:10429000E8494A4B6050903F397403F0903F39E051
:1042A000FEC3940E5040EE71B0E07032903F397111
:1042B000AE7405F0C007903F3412246C903F2D126D
:1042C00024C4903F38E0903F31F0903F32E0FCA3AF
:1042D000E0FDD0079196903F39E004FF8008903FC1
:1042E00039E004F080B62212257C7B007A00790048
:1042F00022903D59E0FF51FDE4903D5922AB07E487
:10430000FF1BEBC3940E501AB17B1224D0000000A7
:1043100000EB91781224D000000000EB71B0E4F0C3
:104320007F012290436AEFF0A3EDF051F1F090434A
:104330006AE0B40113A3E0903D55F0123E87903D32
:10434000547405F07FFE805F90436AE0640270223F
:10435000903D58E064027055903D4FF0903D54748C
:1043600003F07E417F6CC006C007B18AD007D0063B
:10437000417A90436AE07035121A5CEF6401602A5A
:10438000303114121DF4EF600C121A5CEF600690CD
:10439000436B74FFF0C231123E8F903D54E06002D7
:1043A000510790436BE0FF021DDB121A6622E0FF0B
:1043B00075F00CA424C0F582E4342CF58322D3904C
:1043C0000001E09400900000E0940050028175C26A
:1043D000ADE0FFA3E0904368127206900000F0A3E6
:1043E000F0D2ADF577E57771B0E06073904368F196
:1043F000E49176122488D31223A750429186E0FFDD
:104400006008F460059186E014F09186E0600EE5A6
:1044100077B17C12246C91761224C4800FE57771F9
:10442000B0E4F091761224D000000000B19D4E60FF
:1044300008B19DAA06F91226E9123EA480219176C0
:10444000C083C08212246CC006C007904368126902
:10445000D8D007D00612224BD082D0831224C405B4
:1044600077E577C3940E500261E5904368E0FEA3C0
:10447000E0FF121B0122E57775F00CA424B5F5824C
:10448000E4342CF58322E57775F00CA424BFF58283
:10449000E4342CF58322903F2BECF0A3EDF0903F19
:1044A0002AEFF0FB903F2D12246CB17B1224C4EB59
:1044B00091781224C4EB9178C083C0821224889032
:1044C0000000F1E412223ED082D0831224C4903F37
:1044D00031E0FF903F2AE0FE9188EFF0903F2BE023
:1044E000FCA3E0FDEE75F00CA424BDF582E4342CB1
:1044F000F583ECF0A3EDF0229040221269FB90408E
:104500002774FFF0904026E0904028F0904028E08B
:10451000FFC3940E505FEF917812246CE4FBF1C856
:10452000704B904026E07E0170027E029040287120
:10453000AEEEF0C007904024E0FF7E0060051272EE
:10454000AA80027F0AE4FCFD903F2D1224C4904013
:1045500025E0903F31F0904022E0FCA3E0FDD00741
:104560009196904028E004FF904027F02290402848
:10457000E004F08097904027E0FF22EB75F00CA458
:1045800024B9F582E4342CF58322E47FD07E07FD44
:10459000FC903F341224C4E4903F38F022E5777554
:1045A000F00CA424BDF582E4342CF583E0FEA3E0F6
:1045B00022AB07E4FA1BEBC3940E500EB17B1273CF
:1045C000186007EB91781224C40AAF0222903A8E49
:1045D0001224C4E4F5FF75BB0575BB8575FF017535
:1045E000D502203304F17DF10275FF0143D520305F
:1045F0003302C18CE4F5FF538EF7438E077D04E44C
:10460000F5FF8DBCF5FF43B102E5B130E2FBE4F507
:10461000FFAFDFEFFEACDEECFBEBFFED25E0248C23
:10462000F582E4343AD1DCE4F5FFF5FF53B1FD0D3A
:10463000EDB40CCB903A8ED1C6FF78091223B8A303
:10464000127213FDED25E02496F582E4343AF583E9
:10465000E0C313FAA3E013FBD1D1F5831269EA2B6F
:10466000FFEE3AFED1D1D1DCED240490120DF0ED35
:10467000C394075017CFEDCF0DEFD1D2B1AAFFC32E
:10468000903A93E09F903A92E09E50B8E4F5FF751F
:104690008EC8F5FF90120DE0F5BCE4F5FF75BB8008
:1046A00075FF01F5D522E0FB25E025E02401F58228
:1046B000E43412F5831224C4EB25E025E02401F54F
:1046C00082E43412F583E0FCA3E0FDA3E0FEA3E066
:1046D00022ED25E02494F582E4343A22F583EEF0CD
:1046E000A3EFF022E4F5FF758EC8F10275FF0153C8
:1046F000D5FB1256D47F147E00F16075FF03439101
:104700008022E4F5FF75C2E17F1EF1EF30E707E498
:10471000F5FF75C2A122E4F5FF75C28122CDEFCD70
:10472000CCEECCF18DAB94EF4B126671CBEFCBFAA4
:10473000E59130E71DF190A994E9F582EF4582FFFC
:10474000EB2DF582EA3CF583C3EF9582E5F0958386
:1047500040DEE59120E708CEECCECFEDCFF1802210
:1047600075FF03D3EF9402EE9400400874FE2FFF10
:1047700074FF3EFEEFF592EE540FF591227F3FFE5F
:10478000F160D1FB75FF03E59120E7FB2275FF0384
:10479000AF93EF75F010A4FF2275FF0243E1801282
:1047A00056E775FF01438E1075FF0153DB7F75FFE0
:1047B0000175D502D1F5F1CF438E1075FF0143DBB2
:1047C0008075FF01E4F5D522FAF9F8C30223A7F1B9
:1047D0008475FF0122E4FDFCFF0219F8901217E036
:1047E0005408FF22E0FEA3E0FFE4FCFD22A1B1FE9D
:1047F000F11D90120FE02220022C901217E030E100
:104800000B1248B050067E007F0180047E007F00BE
:10481000EF4E7012121C6EEF700C121CA5EF70069A
:104820001240067F01227F0022900A72EFF0900A68
:1048300074EBF0900A73EDF05402901240F01247BE
:10484000F7EF7002C322900A72E0B40411A3E0FBF8
:104850007D017F011183900A727403F08013900A26
:1048600072E0B40505121BE28007900A7311B311C0
:1048700083900A72E09003C1F0900A74E090123FB6
:10488000F0D322EB600875FF0153CDFD800675FF64
:104890000143CD02ED600553FBDF800343FB20EFB6
:1048A000600775FF0243E1402275FF0253E1BF221A
:1048B000A21922E0FB7D01E4FF22121BE27F0143EB
:1048C000FB1075FF0243E640EF600D75FF02E5E166
:1048D00020E7FB43FB0D800343FB0E80FE75FF02C8
:1048E0008FE322901221E0701011FB4FFFA3E04FE5
:1048F000FFA3E04F7003D38001C322901223E0FF97
:10490000A3E022E4FF51A4EF603E519131495009E8
:10491000901223E0C394C040F17B017A12792531D3
:1049200049500E11FB5FFFA3E05FFFA3E05FF4605F
:10493000E890122AE030E0047F0151A4E4901221B3
:10494000F05191E0FD121B6F22903DC61266B0F04F
:10495000903DCC1224D000000001903DD07401F0B5
:10496000F5FFE5D554C07004B1DB5002C322E4F575
:10497000FF53967F75FF0175D50412477D75FF01C2
:1049800043D508E4F5FF5394FBF5FF53847FF5FF0F
:104990007598FF903DCAE5F4F075F49C75FF01A38E
:1049A000E5E4F075E4257B017A3D79D012667990D3
:1049B0003DD0E064016002416FF5FF903DC9741481
:1049C000F0903DCC1246C6FF78011223CB903DCC2F
:1049D0001224C4E5A730E1FB43A702903DCC124668
:1049E000C6FFE5A730E005E47B018002E4FBFAF9AD
:1049F000F8EF4BFFEE4AFEED49FDEC48FC903DCC54
:104A00001224C4903DC9E014F070B6903DCC12461B
:104A1000C6FF78101223B87B6D7A4E79C6784112A2
:104A20002259EF2439FFEE343012511BFCE4FBFA1B
:104A30007901F81222E4EE547FFEE4FDFC125DC21F
:104A4000903DCC1246C6FFEB6FFFEA6EFEE8CDEF5D
:104A5000CDCCEECCECFF5198EF1220455198ED12E1
:104A60006C8A90120FE030E606E4F5FF75968075CB
:104A7000FF01E4F5D5903DCAE0F5F475FF01A3E030
:104A8000F5E41267F3903DD0E0B40103D38001C395
:104A9000227B017A12792322903DC6E0FBA3E0FA43
:104AA000A3E0F922EF600E1235A1AF82AE83E4FDE0
:104AB000125E1E8009121A52F1B5E433FF227F0103
:104AC00022900A4012257CD22DC2EBE5146002A18F
:104AD00021E51530E202C322B17124E3127067129E
:104AE0006447B179B1BFFF9008FAF0125DCF900A28
:104AF00043EFF0E51520E070B1DB40047F0151A4E5
:104B0000900A43E0FF7B017A0A79441266B8E433E5
:104B10007004D2EBA105900A43E02464127320E0F4
:104B2000FF900A44E0D39F403FD2EB126385A21866
:104B300092ED90090BE06012B17124E3127226121B
:104B40002045431504125837D32290091AE07016F5
:104B50007B017A09791A7C5A7DB690402E7464F0F4
:104B6000E4A3F01257FDC322B1DB5004C239F12592
:104B7000F1ECE5D120E0FBE4F510C219B179B1BF49
:104B8000C39403E494005032B17124B1B169B1709F
:104B900024D8B1692FFFE433FED3EF9440EE648054
:104BA00094804016B17124E3F9E43AFA74021220B9
:104BB00045431504A21892EDD322B1712408F9E4FB
:104BC0003ACFE9CFF5118F12B17124B1B169F51661
:104BD000AE11126D26B17124B2F9E43A8B1CF51DA9
:104BE000891EB17124D8B169F51FB1791272D954F7
:104BF00060602FB17124D9B169FF12635FC22DB11A
:104C000059FB7A0090091B1271D37D18122079EF9D
:104C10002BFFEA3EFEEF2414FBE43EFA7D027F0107
:104C200081F4B179B1BF9008FAF0751408B171241C
:104C3000B2F9E43AFA125F85B17124D8B169FFADD7
:104C4000161263189008FAE0640370247B01FDB12A
:104C500029D3B1CA50057401121FF0E4F5FF1262A6
:104C6000FA121F862428FBE433FA7D03E4FF81F463
:104C70009008FAE06402702AB12CD3B1CA400574DE
:104C8000FF121FF0E4F5FFE5D25480440AF5D2127A
:104C90001F862414FBE433FA7D027F01B1E3B18661
:104CA0008054E4FB7D01B129D3B1CA400574FF12E1
:104CB0001FF0E4F5FFB179F1E37F0560027F0AEFB1
:104CC000547FFFE5D254804FF5D2E4F5FF43D28004
:104CD000B159FD7C00B179F1E37E0060047F0A8068
:104CE000027F05EF25E0FFEE33FEEF2DFBEE3CFAF1
:104CF0007D017F01B1E3B179FA1270F2A22D922CFD
:104D0000125D324006A21892EDC322125837900A63
:104D100043E0B17024E51262F2A21892EDD2EBD317
:104D200022A21892EDD2EBC322FFB18B900A40125F
:104D3000255CE924B1F9E43AFA121F86FF900A4093
:104D400012255CE924D8F9E43AFA121F862FFFE411
:104D500033FEEF2401FFE43EFE900A4012255CE999
:104D600024B2F9E43AFAE92407F9E43AFA021F8690
:104D7000FF900A4012255CE922900A4012255CE966
:104D80002404F9E43A22E4FB7D01FFE4F5FF75D148
:104D900002E5D120E0FBE4F5FFF5D1EF6008E4F592
:104DA000FF43D2808006E4F5FF53D27FEB6006E438
:104DB000F5FF43D104ED6006E4F5FF43D10822FA84
:104DC00012214254072233FEE0C39FEE6480F87440
:104DD000809822C2EBA2ED9218C2EDE5F4C330E751
:104DE00001D322900A7BEFF0ED24FE6019146027B6
:104DF0002402703DEB2402FFE43AFE7C007D501259
:104E000020797D6080201271F4C333CE33CED8F97F
:104E1000FF7C007D28800F1271F4C333CE33CED8CF
:104E2000F9FF7C007D6412208B900A7CEEF0A3EFEA
:104E3000F0900A7BE0126439C083C082122488900B
:104E40000A7DE02401900A7C12727E12223ED082FA
:104E5000D0830224C4900A90EFF0C23A125703D2D2
:104E600021900A90E09042A2F0D222A3E4F0A37431
:104E70000DF0125627E4900A91F0B1DB5076900ABB
:104E800091E07070E5F754C060F0F10AF11D6455CF
:104E9000704EF11D901221E06F600E900A91E0F4C7
:104EA0007039901215E030E132F11D64556018E060
:104EB000FF644A6012EF640A600D901221E0FF90D7
:104EC0000A91E0FE6F7005900A91800A9008F9E05F
:104ED0006E900A9170197402F0809F900A91800F71
:104EE000900A91E0B454057433F0808E900A917466
:104EF00001F08086900A91E0B40206C239F1258063
:104F00000012561A900A91E0FF22E5F720E008E52A
:104F1000F754C070F5FF2243F701AFF922F10A9070
:104F20000A91EFF0229043A9E5F4F0E0547FF5F404
:104F30007F827E0012665612560F5005E5FC20E671
:104F4000F63039089043A9E04480F5F41266521215
:104F5000560F5005E5FC20E6F675FF01E5D520E784
:104F600002C322E5F4D330E601C3221264477F0274
:104F7000121DBD7F01D155900AA3EFF0BF02028040
:104F800013900AA3E0B43311E4F07F01D155BF02BE
:104F90000D900AA37401F08005E4900AA3F0900A32
:104FA000A3E0700AB1DB5004C239F125F1DB900AAD
:104FB000A3E024FF22E5147020B1D35004C239F1DC
:104FC00025F1DBF1ECE5D120E0FB4315205315FE84
:104FD000E4F510A21892EDD322C3221256E77F08FF
:104FE000021DBDFA122142441045F022E4F5FFE50E
:104FF000D154FE4402F5D122AE07124135EE04FE33
:10500000EF8EF084AFF02230170C902B24E0700666
:10501000FF1219B7C217301923AF71900919E0FEBA
:10502000EFC39E400AEF9ED394024010C219229013
:105030000919E0F42FD394014002C219229003C54C
:10504000E0FCA3E04C700A9003C5EEF0A3EFF0D3B0
:1050500022C3229003C5E0FEA3E0FF4E6009CAEE22
:10506000CAC9EFC91226E922D2ADD2BD75FF0275B9
:105070008E7175760975FF02E58E546F4480F58E4A
:1050800090420C1224D00000000022C0E0C0F0C00A
:1050900083C082C0D075D008C0FF75FF02E58E3096
:1050A000E43A75FF02E58E54EF4410F58E90420C01
:1050B00012246C3115FC90420C1224C49000001292
:1050C0003F91E57630E0020551E576700D75760981
:1050D0000571E571700205708002157675FF02E5B5
:1050E0008530E40875FF024385100578D0FFD0D0E5
:1050F000D082D083D0F0D0E032FF7E04FDFCE0F817
:10510000A3E0F9A3E0FAA3E0FB122259E47B7DFAC5
:10511000F9F81222E4EF2401FFE43EFEE43DFDE451
:105120003C229039951224C41247999039AA12242E
:10513000D0002DC6C0E4F5FFF5A490120EF0A3F048
:105140009039A57402F075FF039039A5E0FFF5953D
:10515000EF146019146028240270399039951246B2
:10516000C6FF9039A61224C49039A18022903999A3
:105170001246C6FF9039A61224C49039A28010901E
:10518000399D1246C6FF9039A61224C49039A3E077
:105190009039AEF0F1E89039AEE07005127176808A
:1051A0005590120EE004F09039A5F1C49039AA127E
:1051B00046C69039A691B6C31223A7500B9039A6C4
:1051C0001246C6FFA31224C49039AEE0FF1267A5B1
:1051D0009039A4E0FFA3E0FDA23692341268D3A375
:1051E0001246C6F1AD9039A5E0FF91219039A5E0B6
:1051F0001246B9FF91C31272A1600221467402F0F7
:1052000075FF039039A5F1BC7015FF7E04FDFC907D
:1052100039AA11FE911B9039A51246A6FF91C3121F
:1052200072A170DCF156400343F420A2369235128D
:1052300068049039AA1246C62420FFEE344E311B72
:10524000F1B43109911BC2331271499012137401E8
:10525000F07E127F01E4FD8F828E83EF2DF582E4D4
:105260003EF583E0FC901213E02CF00DEDB412E754
:10527000229038361224C49038467401F0E4A3F02A
:1052800012479975FF02E5E630E00E903847740149
:10529000F0FB7A3879471266799038511224D000A1
:1052A0002DC6C0E4F5FFF5A490120FF090384874B5
:1052B00002F075FF03903848E0FFF595EF14601990
:1052C000146028240270399038361246C6FF903890
:1052D0004D1224C4903842802290383A1246C6FFBC
:1052E00090384D1224C4903843801090383E1246B6
:1052F000C6FF90384D1224C4903844E0903855F0E1
:10530000F1E8903855E07005127176806590120EC4
:10531000E004F0903848F1C4903847E0701C9038B1
:10532000511246C690384D91B6C31223A7500B9028
:10533000384D1246C6FFA31224C4903855E0FF1220
:1053400067A5903845E0FF903848E0FDA2379234D9
:105350001268D3903847E0700F90384D1246C6F16E
:10536000AD903848E0FF9121903848E01246B9FFEF
:1053700091C3127298600241B2903847E0703DA329
:105380007402F075FF03903848F1BC7010903851EA
:1053900011F9911B9038481246A6FF91C3127298DA
:1053A00070E19038511246C62420FFEE344E311B76
:1053B000F1B43109911B9038491224C4F1564003CD
:1053C00043F420A2379235126804903847E024FF56
:1053D00092339038491246C6FF127149E4F5FF75C1
:1053E000E508125F91E59B30E7FB1246E41247CFD8
:1053F00043D5047FC81246F7514B1247847B017A8C
:1054000038794612674D90120EE0B40102F1A69071
:105410003846E0B40103D38001C322FC78010223A3
:10542000B8904185EFF0E4A311F9911B904185E01C
:10543000FBD1DBF5831224C4901210E06480607508
:10544000E0C3947F503BEBD1DBF583C083C0821275
:1054500046C6FFEEC0E0EFC0E0901210E075F00429
:10546000A4AEF0FBCAEECAEA3395E0F9F8D0E0FF4B
:10547000D0E0FEC3EF9BFFEE9AFEED99FDEC988025
:105480002C904185E0D1DBF583C083C08291B79039
:105490001210E0F40475F004A4FFAEF0EE3395E0D2
:1054A000FDFCEB2FFFEA3EFEE93DFDE83CFCD0822F
:1054B000D0831224C422FFE0F8A3E0F9A3E0FAA30A
:1054C000E0FB229042141224C475FF01904214A301
:1054D000E0FDA3A3E4FFFEE4FC78101223B88FE103
:1054E000904214A3A3E0FEA3E4FFE4FDFC780812BD
:1054F00023B88FE2904214A3A3A3E0FF8FE322908E
:1055000040371269FE90403D7401F0C23812665275
:10551000D10F5005E5FC20E6F7F124BF0108E4F5C2
:10552000FC75FC408007F124BF0202D322F19F905A
:105530004038E0FF12692575FF0153D5DF53FAFBB0
:10554000904037E0FFF1CD904038E0904037B4080C
:105550000BE01246B924523118FC8005E01246B91E
:10556000FF91C3904039E0FF12694F75FF0175FF4D
:1055700003759B0412665275FC42E5FC20E104D1E0
:105580000F40F490403AE0F075FF03E59B20E704FC
:10559000D10F40F4E59B20E70C75FF03759B1FD1ED
:1055A000E7D238804FD108126679904038E0FD90FC
:1055B000120FE05D701C904037E0FFD108125BA233
:1055C00090120FE0FF904038E0FEEF4E90120FF087
:1055D000514B1247027B017A40793B12665B500FB8
:1055E000C390403CE0942090403BE0940340E6D1DF
:1055F0000812674D124784303802A10590403DE003
:10560000B40103D38001C3227B017A40793D227526
:10561000FF03E591C330E701D322C221E49042A207
:10562000F0C222A3F0A3F075FF01E5D520E702C385
:1056300022C23AF103202102C1C653F4DF9042A2F4
:10564000E0FFF1CDF1A630220543F440800353F48E
:10565000BFE4F5FF53F5F09042A3E0FAA3E0FBEAC4
:1056600042F5EBF5F6D23AF1037FC81246F7E4F5BE
:10567000FFE59320E604D10F40F4302255E5F430E5
:10568000E3047D288010E5F430E2047D288007E5FE
:10569000F430E1027D28D1D47F281246F7D10F40A3
:1056A000FC7F781246F7D10F5028F14F50F8F1994E
:1056B000EFC39D50F1F14F50EDE5F720E5E8C23A18
:1056C000F103D1D480E053F4BFF15C400543F420F2
:1056D000F19FD32275FF03E4F5912225E025E02414
:1056E00001F582E4341222E5FA30E1FB75FC8075A5
:1056F000FF0153D5EFE4F5FC75FC40D1D4E5FC2067
:10570000E6FB22AFF4EF547FF5F4303A05EF448026
:10571000F5F475FF01E5D520E702C322E5F4D330A7
:10572000E601C3227FFA1246F7E5FC30E604D10F0A
:1057300040F7E5FC30E6037F032275FF01E5D53035
:10574000E6037F0222E5D57F0030E7027F01227564
:10575000FF01E5E4332275FF0375958090120EE09A
:10576000D3940122E5F730E50EE5F754C07004D17B
:105770000F40F1D1D4C322D322E4FFE5F754C06037
:1057800002801675FF01E5D530E30DF14F50F4F1BD
:1057900099EF60EFF14F50EB22126743AFD92275BA
:1057A000FF0153D8EF2275FF0143D81022FF90412B
:1057B000860224C4FCE4FB7A04F9F822E0F595E5BE
:1057C000F4540722E033333354F8F5F42275FF0123
:1057D000E5D530E602C322E4F5FF439A80EFF1C538
:1057E000E4F5FF539A7FD32275FF0175E46575FFD9
:1057F0000175D64722E4904026F00244F890402CF0
:10580000ECF0A3EDF090402912257C125842904014
:105810002C115F1257F5904029123F9890402912A1
:10582000255C121F86B4FF04E41220459040291223
:10583000255C121F86FF22E490090BF07B017A0998
:10584000791A90429C12257C90429C12255C121F72
:1058500086FF1242FD90429C12255CE4022045E046
:10586000FEA3E0FFA3E0FDA3E0FB227E1E7F497BB9
:10587000017D0A9040267403F00244F8904366ECE0
:10588000F0A3EDF0904365EFF031C7D247121E1C34
:10589000904365E0FFE4FD11C5904365E0FF31BA38
:1058A000A3E0FEA3E0FF904365E031381246DC2020
:1058B0005D11D25D7E597F447BFF7D011173BFFF77
:1058C00002C322D32221E990420812257C9042078C
:1058D000EFF0C25C31C77B017A42790B121E174090
:1058E00003A25C22904207E0FF312AE0FE90420BC7
:1058F000E0FDEE6D70303129E0FF904208123F98D4
:10590000904207E0FF312AE0700731297401F080EE
:1059100008904207E0312AE4F0904207E0FF312A84
:10592000E0FD11C5D25CA25C22EF75F006A424BF95
:10593000F582E4343DF5832275F006A424BDF5829A
:10594000E4343D22E49043A6F09043A6E0FFC394E4
:10595000025058EF31ACE0640170489043A6E0314A
:10596000ACE4F07B017A4379A711C7501F9043A69E
:10597000E0FE3138F583E0FCA3E04C600F9043A7D4
:10598000E0FFEE3138F58331D81226ED9043A6E0E2
:10599000FF75F006A424BCF582E4343DF583740160
:1059A000F031BA9043A6E004F0809E2275F006A480
:1059B00024BBF582E4343DF58322EF1460060470C5
:1059C00005D2A822D2AA2275F006A424BAF582E450
:1059D000343DF583E0FF22FFE0FCA3E0FDF5828C7F
:1059E0008322901249E0FD7F01EF7011ED60077591
:1059F000FF0143AE012275FF0153AEFE22EFB40159
:105A000014901249EDF0600775FF0143AE02227554
:105A1000FF0153AEFD22904349E0FF0242FD1FEF1C
:105A2000C3940E5009EF12447812246C8005E4FFF1
:105A3000FEFDFC22E4FEEFC3940E5013EF1243B0C0
:105A4000E05D7C00B505027C01EC2EFE0F80E7AF27
:105A500006227D02E4FF80DC7D017F035134AB0729
:105A60005152EF2BFF22E4FD7F0380C8A2AD922BA1
:105A7000C2ADAF71AE70A22B92AD22AD07AC065194
:105A80006CC3EF9DEE9C4008EF9DFFEE9CFE8013E3
:105A9000EDF4FDECF4FCED2401FDE43CFCED2FFF06
:105AA000EC3EFE229003CAE0FEA3E0FF517BD3EF61
:105AB00094C8EE940022E490091AF090090B04F0C7
:105AC00022124DDB500451D24003301903D3800120
:105AD000C322E5F754E024FF22AF14EFC36001D3E3
:105AE00022EFC3940E50059008FBEFF022E5175407
:105AF0000FFF22E517C394F0501F5317F0711CFEDF
:105B0000740FC39F4005EE940E400543170D8003AC
:105B1000EF4217E517540FFF227F0022E517C45408
:105B20000FFEEF9030CE932E22711CFFC3940E40D7
:105B3000027F0DEF9030B093FF22EF30E303AF13FD
:105B400022AD1B201A04EE30E00BE517C394F05091
:105B50002071748018E5196006FDE4F5198012E5DE
:105B600017C394F0500BE517540FFF60047129AD73
:105B700007AF05229008FBE0FDFFC3740E719BEF99
:105B8000C4F8540FC868FFEEC454F048FEE517543B
:105B9000F0124DC97F005002AF05229FFFE4940030
:105BA000FE2290421CEDF0901211E0F46005A3E09B
:105BB000B4FF0C90421E7418F0A37413F080109080
:105BC0001211E090421EF0901212E090421FF0126B
:105BD0001F8664016002A10C90421CE0FE64086014
:105BE00004EEB4040890421D7428F0800690421D13
:105BF000743AF0EF1246B9FF122383E4B10DEF249B
:105C0000D8FFEE343FFEED3493FDEC3416FC7B0000
:105C10007A8079037800122EB6B1C290421FE0FF5D
:105C200090421EE0C3719BE4FCFD122259ECC0E0DF
:105C3000EDC0E0EEC0E0EFC0E090421FE0FFE4FC0A
:105C4000FDFEB10DD0E0FBD0E0FAD0E0F9D0E0F8F5
:105C5000EB2FFBEA3EFAE93DF9E83CF890421DE003
:105C6000FFE4FCFDFE122259EF2454FFEE340B1228
:105C7000511BFCE47BA87A16F9F8122EB6CBEFCBB9
:105C800090421CE014605D14601B24FE600C24FC38
:105C9000707AE4F5FF75CE318006E4F5FF75CE210C
:105CA000F5FF8BCF22E4FAE4F5FFEA2440F5CEE4D9
:105CB000F5FFEAFFC37407719B740A2FF58274180D
:105CC0003EF583E4B115C39DF5CFE4F5FFEA244822
:105CD000F5CEE4F5FFEA90180AB1152DF5CF0AEAE2
:105CE000B408C422E4F5FF75CE01F5FF8BCFF5FFB4
:105CF00075CE0EF5FFEB25E0F5CFE4F5FF75CE0F81
:105D0000F5FFCFEBCFEB75F003A4F5CF227B64FA60
:105D1000F9F80222599325E0FDE433FCEB75F0100D
:105D2000A4FFAEF012208BCDEFCDEBFFE4C313EF59
:105D300013224315015315DF713AB1724004E4F5A3
:105D4000142243FA045315FB302C04B1E5800A7F7A
:105D500055B15B7F55B15BD2EBD32275FF01E5D521
:105D600020E602C322E5FA540360FA75FF018FC3EF
:105D7000D322900A79EFF09008FAE0FFB1CF900AB1
:105D80007AEFF09008FAE024FD6013047008900A9E
:105D9000787404F0800E900A787408F08006900AF7
:105DA000787402F07F01121DBD900A7AE0FF900A1C
:105DB00078E0FDA3E0FBE490403AF01254FF50E994
:105DC000D322C8ECC8C9EDC9CAEECACBEFCB22EFCB
:105DD00024FD600680007E018002E4FEAF062212F0
:105DE00057CD43FA04E4F5FF53D1FD43D10122C25C
:105DF00039124F25124FECE5D120E0FBE4F5FF7599
:105E0000D9019008F8E07F00B403027F01B1DFD22E
