:020000040000FA
:100000000202DF0218034100B8002202180B22226C
:0100100022CD
:07001300021813E4FFE1BC39
:07001B0002181B75C8012249
:030023000218239D
:03002B0002182B8D
:030033000218337D
:03003B0002183B6D
:030043000218435D
:03004B0002184B4D
:030053000218533D
:03005B0002185B2D
:030063000218631D
:03006B0002186B0D
:10007300021873BB010689828A83E0225002E722B9
:10008300BBFE02E32289828A83E49322BB010CE54F
:100093008229F582E5833AF583E0225006E9258239
:1000A300F8E622BBFE06E92582F8E222E58229F57D
:1000B30082E5833AF583E49322BB010689828A832E
:1000C300F0225002F722BBFE01F322F8BB010DE53B
:1000D3008229F582E5833AF583E8F0225006E92583
:1000E30082C8F622BBFE05E92582C8F222C5F0F8D4
:1000F300A3E028F0C5F0F8E582158270021583E0CD
:1001030038F022A3F8E0C5F025F0F0E582158270FF
:10011300021583E0C838F0E822EF2BFFEE3AFEED3C
:1001230039FDEC38FC2275F008758200EF2FFFEEE5
:1001330033FECD33CDCC33CCC58233C5829BED9A10
:10014300EC99E58298400CF582EE9BFEED9AFDEC6E
:1001530099FC0FD5F0D6E4CEFBE4CDFAE4CCF9A8B4
:100163008222B800C1B90059BA002DEC8BF084CFBC
:10017300CECDFCE5F0CBF97818EF2FFFEE33FEED93
:1001830033FDEC33FCEB33FB10D703994004EB99BD
:10019300FB0FD8E5E4F9FA227818EF2FFFEE33FED0
:1001A300ED33FDEC33FCC933C910D7059BE99A4005
:1001B30007EC9BFCE99AF90FD8E0E4C9FAE4CCFB1D
:1001C3002275F010EF2FFFEE33FEED33FDCC33CC71
:1001D300C833C810D7079BEC9AE899400AED9BFDFA
:1001E300EC9AFCE899F80FD5F0DAE4CDFBE4CCFA0D
:1001F300E4C8F922EF5BFFEE5AFEED59FDEC58FC23
:1002030022EB9FF5F0EA9E42F0E99D42F0E89C451F
:10021300F022E8600FECC313FCED13FDEE13FEEFC9
:1002230013FFD8F122E8600FEFC333FFEE33FEED87
:1002330033FDEC33FCD8F122E0FCA3E0FDA3E0FEA8
:10024300A3E0FF22E0F8A3E0F9A3E0FAA3E0FB2296
:10025300ECF0A3EDF0A3EEF0A3EFF022A8828583E8
:10026300F0D083D082120276120276120276120244
:1002730076E473E493A3C583C5F0C583C8C582C878
:10028300F0A3C583C5F0C583C8C582C822E0FBA31C
:10029300E0FAA3E0F922F8E0FBA3A3E0F925F0F0EC
:1002A300E582158270021583E0FA38F022EBF0A3A1
:1002B300EAF0A3E9F022D083D082F8E493701274B9
:1002C3000193700DA3A393F8740193F5828883E4DB
:1002D300737402936860EFA3A3A380DF75812F0279
:1002E300094A9000E551B0AE071FEE60129000E896
:1002F30071031176FE9000E57103EE11BC80E822D4
:10030300E475F0018090900A12EEF0A3EFF09000F4
:100313004FE064016002619CC3900A12E0940850AC
:100323000BE4FF9153900A12918780ECE4F50DFBE7
:1003330071C5AF0C12103DE50DC39408504771C34E
:10034300E50D7F0071BDEF29F9EA3EFA9000E8510F
:10035300B07B017A0979007FFF51E5E50DFEE424C6
:10036300FFFFE43E71BD8F828E83118F9009FFF0F2
:100373007B017A0979009000FBE50DF0AD0C1210BA
:1003830063050D80B2900050513BE42FFFEE34081B
:10039300120D139000500214BC900054E0FEA3E031
:1003A300FF71BE900A12E0FDA3E09000D1CD1208C8
:1003B300D4900054EEF0A3EFF022FE902001419080
:1003C3007B007A00791012103675FF031176F5D38E
:1003D30075FF0390000171F190000271F190000329
:1003E30071F175D40175FF03E5D55402FF22118F16
:1003F300F5D375FF03229000F1E0FEA3E0FF9130F7
:1004030091539000F3513BEF2401120D109000F330
:100413005153900A18914D900A18E07002A3E070AE
:100423000BFF7E087109120F4212142822B108CD66
:1004330024FFCD34FFFCC3ED9FFFEC9E541FFE74DD
:10044300082F121416FF229000DF74FFF5F001F05D
:10045300B108541FFC74082DF58274203CF583EF1A
:10046300F0902006E0B42019A3E0B4001490200516
:10047300E02401FF902004E03400541FF0A3EFF0C8
:1004830022902006E475F00101F09000BA515390D8
:1004930000BE51B0110AF11EEF6004110F80F71274
:1004A3000F0560099000BA513B7810D1249000BA2F
:1004B300D1209000BA513BE480219000C11208C7BB
:1004C30045F0601B9000BE5190E94A600C1176FF25
:1004D300D1279000BF918780E1E4FFD12780DBF132
:1004E300B79000AF7401F0229000E3E0FF81039026
:0704F3000A1BE014F0E022F7
:10050800902006E0FCA3E0FD902005E02DFD902062
:1005180004E03C22D1C8EF541FFF12148DA37401CC
:10052800F0120F4C9000DCE0FCA3E0FDAE0478056F
:10053800CEC313CE13D8F9FF9000DFEEF0A3EFF08F
:10054800ED541FA3F0A3E4F09000F1F0A3F0C390E2
:1005580000DDE094209000DCE09400407D914A901A
:1005680000E1E0FEA3E0FF9000F1EE8FF011F090C3
:1005780000DFE07004A3E06406700AD1C89000DFD1
:10058800E48FF011F0D1C89000F1E48FF011F0126F
:100598000FFCEF600512148A8005E49000DEF090ED
:1005A80000F1121371701D91309000E3EFF0910388
:1005B80091EB91EB9000DFE07002A3E0604891EBD3
:1005C800914A80F071F971F971F99000DFE07002D9
:1005D800A3E0603271F9914A80F09000DC91878045
:1005E8000A9000DCE07002A3E0600BD1C891039090
:1005F80000DC914D80EB120FFCEF600512148A802D
:1006080005E49000DEF09000DEE06002A12C1214F8
:10061800AB71099000F3413B513B78085115E4E573
:10062800C820E2FB8FEB227F01F1BC900A1C740109
:10063800F0900A1CE06032120FF4D1BC900A1CEF53
:10064800F0120849D1AB9000ACEFF0120849900ABB
:100658001CE054011213BB60D8A3E0F460D3EF3060
:10066800E7CFE4900A1CF080C8F1E87F9FD127D13A
:10067800BC9000ADD1BA9000B2D1BA9000B3F1B538
:100688009000ABE0F4601BA3E0F460169000B2E0C9
:10069800FD541F240FA3F0EDC413540744809000A9
:1006A800B2F022F1E87FD7D1277FFFD127D1C090C0
:1006B80000ABEFF07FFFD127E5C820E2FBAFEB22CC
:1006C800900081E0B4082CA3E0B40027120F2E7B21
:1006D800017A0179009000CA120F45F161120F2EBC
:1006E800E42FFFEE3408120D13120F28E490008156
:0806F800F0A3F0900083120F43
:10070000DB9000835153900081E475F0013106FEC7
:10071000740025F0F58274013EF583E0FF227F012D
:10072000F1BC300216120FF4D1BC900A1DEFF0128A
:100730000849900A1DE020E002C202300219D1AB44
:100740009000ACEF1213BB600BA3E0F46006EF3037
:10075000E702C202120849E4FFF1BCA202E433FF3F
:10076000229000C351539000C751B0110AF11EEFFF
:100770006004110F80F7F1E47F03120F1E600990EF
:1007800000C3513B7810D1249000C3D1209000C306
:10079000120F349000CA1208C745F06011D1BC9006
:1007A00000C75190EF11BC9000C8918780E51208F6
:1007B00049E4FF8007EFF0120849E4FFEFB40104B9
:1007C00043FE202253FEDF229000ABE020E014F134
:1007D000E47F3DD1277F2AD1277F80D1277FA6D1F3
:1007E00027F1B7227F01F1BC9000B0E051B9080AAF
:1007F00004081214081715081C17082C3008313487
:10080000083636083B3700000824531AEF851A8053
:10081000802F531BEF8008531BDF8003531B7F8502
:100820001B90801D531CDF851CA08015531DFE806E
:100830000D531DEF8008531DBF8003531D7F851D81
:10084000B07F0CDFFE2212062712149FEF70FA9081
:1008500000B2E0F4600B900A1B7406F01204F27010
:10086000FB9000B0E01202B9088404088C140891CF
:100870001508961708A63008AB3408B03608B53707
:100880000000089E431A10851A80802F431B108099
:1008900008431B208003431B80851B90801D431C45
:1008A00020851CA08015431D01800D431D1080086C
:1008B000431D408003431D80851DB0900A1B740CAE
:1008C000F01204F270FB2274FFF5F0020106E0FD65
:1008D0009000D1E4F0A3EDF09000CCEEF0A3EFF0A7
:1008E000A31202B09000D111C745F060549000CE21
:1008F0001202901200769000D3F09000CF1204877D
:100900007D80ED60DF3141EE7C0030E7027C0190BC
:1009100000D3E05D7B0060027B01EB6CFCEF25E027
:10092000FFEE339000CCF0A3EFF0AF04EF600C903B
:1009300000CCE06410F0A3E06421F0EDC313FD806F
:10094000C19000CCE0FEA3E0FF2275FF03759E027C
:100950009017FAE493900A0FF075FF02E5E654034E
:100960006002618B7510DE7511AD7512BE7513EFE7
:10097000C2AF75FF0275E404F5E4751AFF751BFF3D
:10098000751CFF751DFF7516FF7517FF7518FF7530
:1009900019FF75FF0253E6BFD11A1210DAB11BEF2F
:1009A00064016002618290180893FE740193FF90C5
:1009B000007FEEF0A3EFF0F5828E83E493FE7401E6
:1009C00093FFC3EE9480500280047E807F008E14DB
:1009D0008F15B1F7FFF5828E83740293F51E7403B1
:1009E00093F51F740493F508740593F50974069341
:1009F000F50A740793F50BC201EF4E700241E4EF64
:100A0000F4FFEEF44F700241E4E514451EFEE515D7
:100A1000451FFFE5084EFEE5094FFFE50A4EFEE5DE
:100A20000B4F4E700241E4E51FF4FFE51EF4FEE5B6
:100A300015F4FDE514F44EFEED4FFFE509F4FDE578
:100A400008F44EFEEF4DFFE50BF4FDE50AF44EFE13
:100A5000EF4D4E700241E47F03718EE50B24FFFFE2
:100A6000E50A71BC640370227F02718EE50924FFE0
:100A7000FFE50871BCB402127F01718EE51F24FFEF
:100A8000FFE51E71BCB40102D2012001577F017144
:100A90008E71B59000D1E51EF0E51FF13B71A07F8E
:100AA0000271AB9000D1E508F0E509719E7F0371FA
:100AB000AB9000D1E50AF0E50B719E7F01718E903D
:100AC0000A10E0FEA3E0FF7BFF7A187900E4251509
:100AD0009000D2F0E51434E89000D1719F4EC370BD
:100AE00001D39201300109F1ACEF6401600261822F
:100AF000D20091FB7B017A007964B1D8741BF012AB
:100B00000761900064E0B4800B9153EF70061214FB
:100B100046EF6002C20030006530011AB1F7F5827D
:100B20008E83740C93FE740D93FF90007DE06E70C5
:100B300003A3E06F604890005012025F00001800AD
:100B400091FBF128F12EEF2401B110B1D27404F021
:100B5000120761900087B10A9000871214BC9000C0
:100B600081F14590004F04F012051C7440D3950CA0
:100B7000400C1203C3AF0C12103D050C80EDE4FFD6
:100B8000F186E4F510F511F512F513021800AEFF29
:100B9000EE54CFFEEFC454F024804EF5FF22A3F0B4
:100BA00011D8900A10EEF0A3EFF022718E900A1087
:100BB000E0FEA3E0FF7BFF7A80790022347F8F8202
:100BC000F583E49322900000EEF0A3EFF0A312026D
:100BD0003B900008120253900006E0FFA3E0900053
:100BE0000CCF806090000C121371605EC3EF9440D4
:100BF000EE94004006A37440F0800590000EEFF0E4
:100C0000B1FFE0FFB1D8EFF090000812023B1207ED
:100C10006190000EE0FFC390000DE09FF090000C8B
:100C2000E09400F090000812024790000EE4FCFDF2
:100C3000FE12011C900008120253914AB1FF11CE1E
:100C4000900000EEF0A3EFF0809A900000E0FEA389
:100C5000E0FF2291FBB101900006E4F07405F13B46
:100C600091F0C006C00791FBEF2407B110B10190CD
:100C70000006E4F0A37414F0D007D00691F0C0068B
:100C8000C007B107B101D10940067EFF7FFF800692
:100C900090006512023B900006EEF0A3EFF0D00743
:100CA000D00691F0D109402F91FBEF241AFFE43ECA
:100CB000FEED3401FDE43CFCB10190006512023B05
:100CC000EF2401FFE43E900006F0A3EFF0900A1637
:100CD000E0FEA3E0FF91F0900069E0FEA3E0FF904A
:100CE0000A16E06E7003A3E06F7F0060027FFF22B0
:100CF00071C5900A16EEF0A3EFF0229000A6020252
:100D00003B9000020202539000A612023BEF241B0C
:100D1000FFE43EFEE43DFDE43CFC22E49000AAF04A
:100D20007B017A007995121378900097E0FF741197
:100D3000D39F5077E4FFFEFDFC7B017A0079FE90A3
:100D400000CAF0A37402F01207619000FEE0FEA357
:100D5000E0FFE4FCFDB1CC91FBEF2402B110B1CC7B
:100D60009000B5E024FFFF9000B4E034FFFEE4FC07
:100D7000FD9000A61202471201F79000FCEEF0A3CE
:100D8000EFF09000A61202479000FCE0FEA3E0FF07
:100D9000C39000B5E09FFF9000B4E09EFEE4FCFD30
:100DA00012011CB1CC9000AA7401F09000AAE0FBE3
:100DB0006017E4FFFE7D02FC900097E024EFF9F855
:100DC00012022890008F120253AF03229000A60255
:100DD00002537B017A0079839000CAE4F0A3229148
:100DE000FBEF2401B110B1D27404F0120761B10716
:100DF000F128900081E14590007FE0FEA3E0227B96
:100E0000017A00790F90000E22E47FFF7EFFFDFC47
:100E1000900065120247D3020204E4900A1EF0908B
:100E20000A1EE0FFD3946F501EEF2410FFF198903C
:100E30000A1EE0FEE42EF582E4344FF583EFF090D5
:100E40000A1EE004F080D87B017A4F79009000D12F
:100E5000E4F0A37470F07F0F7E1D11D8EF4E7F0079
:100E600070027F01901218EFF024FF22900A09EB24
:100E7000F0900A05120253900A0512023BD1C3906A
:100E80000A09E06F603B12000A12071EEF600512AC
:100E9000000F80F5F105600B900A0512023B7810F7
:100EA000120624900A05120620900A05F134900AD1
:100EB00009E0FF1206271207B79000AF7401F0D3C4
:100EC00022C322900A0012025312000A12071EEFD8
:100ED000600512000F80F51207E47F03F11E600B1E
:100EE000900A0012023B7810120624900A001206A3
:100EF00020900A00F1341206BC900A041207B59043
:100F00000A04E0FF227F011207BCD2021207E87F29
:100F10000612062711491207E89000AEE0FF1206FC
:100F2000279000B1E06402229000870202539000F3
:100F30008702023B12023BE4020627A3F07F0F7EEA
:100F40001D22900A187408F0A3E4F022F1429000E8
:100F5000F312025F00000000E4902004F0A3F0A36D
:100F6000F0A3F07B017A2079089020011202B0E40E
:100F7000902000F0227F0F7E1D11D09000D8120229
:100F8000909000DB01CEAB07E4FF9000AAE0600781
:100F9000F1D8D16CE433FF2275FF03E4F59712100A
:100FA00021E59720E1FB75FF03AF9922E4900A1A2F
:100FB000F09000AAE0601B90008F12023BE4FBFA65
:100FC0007902F8D31202045009F1D8D1C3900A1A59
:100FD000EFF0900A1AE0FF229000A612023BEF24E5
:100FE000FFFFEE34FFFEED34FFFDEC34FFFC22E4A6
:100FF000FCFDC1C31207E87F05020627E4FFFEFDE2
:10100000FC900083120E137F0040027F012275FFC7
:10101000037597011121E59720E1FB75FF03AF9957
:101020002275FF038F9875FF0322113675FF03E5C4
:10103000D5F45402FF2275FF0375D4022275FF0315
:10104000EF543F4480F5D1E5D520E20AE5D520E014
:1010500005E5D530E1F1E5D55403FF75FF0375D5FE
:101060000580D375FF03ACD5EC20E13C75FF03EDA3
:10107000543FF5D175FF03E9F5D375FF03EA540F2B
:10108000FF9000FBE0C4547044804FF5D2E5D520BA
:10109000E205E5D530E0F6E5D55401FC75FF0343E4
:1010A000D40275FF0375D505AF042212000A12079A
:1010B0001EEF600512000F80F57F011207BCD202FF
:1010C0001207E87F061208461207E87F011206277A
:1010D0007F03120846E4FF0207BC7B017A0079B067
:1010E0007F0351E47A0079B97F0851E47A0079B638
:1010F0007D027F0951847B017A0079B47D027F0BE8
:1011000051849000B471716006BEFF16BFFF135189
:10111000F35002800451FC80099000B4E4F0A37401
:1011200040F051F3500280089000B17403F0800643
:101130009000B17402F09000B0E01202B9115904AD
:10114000116414116C15117417118A301192341135
:101150009A3611A2370000117F75FF015316EF85F3
:1011600016FD804775FF015317EF800E75FF015381
:1011700017DF800675FF0153177F8517C9802C750F
:10118000FF015318DF8518CA802175FF015319FE2E
:10119000801675FF015319EF800E75FF015319BFBB
:1011A000800675FF0153197F8519CB1208497F11FD
:1011B00051DEE4FF710612062F9000AE7402F0902B
:1011C00000B2E0247F600904701651EB740A8007B6
:1011D0001207C851EB7458F09000B17403F051FC41
:1011E0009000B3E0F4600241829000B6E0FEA3E01C
:1011F000FF64104E70069000B3740EF0EF64204E42
:1012000070069000B3740FF0EF64404E70069000CB
:10121000B37410F0EF64804E70069000B37411F058
:10122000E4B5070AEEB401069000B37412F0E4B519
:10123000070AEEB402069000B37413F0E4B5070A8F
:10124000EEB404069000B37414F0E4B5070AEEB4EB
:1012500008069000B37415F0E4B5070AEEB4100662
:101260009000B37416F0E4B5070AEEB420069000BF
:10127000B37417F0E4B5070AEEB440069000B374F7
:1012800018F001AB900A0AEFF0A3EDF0A31202B040
:10129000900A0BE06047901218E06013900A0AE091
:1012A0002410FF120F98900A0C120290EF801790F2
:1012B0000A0AE06401900A0C7007120290748080A0
:1012C0000512029074FF1200BC900A0D1204879060
:1012D0000A0BE014F0900A0AE004F080B322EF4415
:1012E00020F5FE227D0151847B01227F1051DE908A
:1012F00000AE229000B9E024FE24FD229000B474D8
:1013000001F0A3E4F022900A14EFF0E4A3F09000BF
:10131000B9E0FFB40209740F716974B9F0800CEF81
:1013200064047044743D71697479F01207E4900AA2
:1013300014E060079000B8E0FF80027FAB12062740
:10134000120849900A14E09000B8F07016900A153F
:10135000E0D39400400D7FFF120627900A15E01499
:10136000F080EAE4FF1207BC22900A15F09000B862
:1013700022E0FEA3E0FF4E229000ADE01200BC9000
:1013800000B2E09000011200CE9000B3E0900002A5
:101390000200CEAB05E4FCFD020E6C9000ED1202E3
:1013A000B0E4FCFDC0079000ED1202909000F0E068
:1013B000FF120DD8EFF0D007020761F09000ABE00C
:1013C000FFF42212000A12071EEF600512000F80C0
:1013D000F5229000AFE0FF22E49000AFF0229012DF
:1013E00018E024FF22901218E060057F10020F9889
:1013F0007FFF22902004E0FEA3E0FF24089116FD69
:10140000EF2401FFE43E541F902004F0A3EFF0A36B
:1014100012044DAF0522F58274203EF583E0229040
:101420002006E0FEA3E0FF22902000E0045403F039
:101430007F0033333354F8FEEF2408F974203EFA6A
:101440007B01A30202B0900054741DF0A3740FF04E
:10145000120DDFE490004FF012051C90006BE0FECF
:10146000A3E0FF900054E06E7003A3E06F7F006084
:10147000027FFF22EFB40109D2AD75FF0143AE40F8
:1014800022C2AD75FF0153AEBF221206C89000DC28
:10149000E4F0A3EFF022E5C85402FF75C80222E58C
:1014A000C85404FF22E5C85401FF22900A18E0FE48
:1014B000A3E0FFC3E49FFF74089EFE22120253E4E0
:1014C000FB7A08F9F890005012023B1201658F0C6C
:0114D00022F9
:1017FA00060AFFFCFFFF02184E02700E19C17FB8DD
:10180A00822D1C161311101001027032EF90181F4E
:10181A0093901900730A20364CE573FF22EFF57393
:10182A002202508A41707045765363686564756C0C
:10183A006572009B7E1E3F1958195D197B19801924
:10184A00850244FC75819F75FF03759E021219205B
:10185A00023282022F459029DAE47E019360F4A3D2
:10186A00FF543F30E509541FFEE493A360010ECFF5
:10187A0054E0B4E00EEFFAEEF9A3A3A3A3DAFDD97C
:10188A00FB80D654C025E0604B5026E493A3F8545D
:10189A0007240CC8C333C4540F4420C8834004F43B
:1018AA0056800146F6DFE480B001020408102040A9
:1018BA0080E493A3FAE493A3F8E493A3C8C582C887
:1018CA00CAC583CAF0A3C8C582C8CAC583CADFE924
:1018DA00DEE78085E493A3F8E493A34003F680014E
:1018EA00F208DFF40218635A2D5761766520362E06
:1018FA00313000FF0201C0737419C0E0C082C08396
:10190A0075730AE5FF54CF4490F5FF22C07374192A
:10191A00C0E0C082C083757320E5FF54CF4490F5C0
:10192A00FF22C0737419C0E0C082C083757336E5A4
:10193A00FF54CF44A0F5FF22C0737419C0E0C082DF
:10194A00C08375734CE5FF54CF44B0F5FF229081F4
:10195A00AA21169081BE211690981A2116909FF5F9
:10196A00211690A02F211690B5C8211690840A211D
:10197A001690C84E211690C86621169095CF21164A
:10198A0090D06F2116909D74211690D2B021169096
:10199A00D6D0211690A8DE211690D8D2211690D83A
:1019AA00EE211690D8F4211690D927211690837328
:1019BA00211690DFE7211690E195211690E1572133
:1019CA001690E296211690A3B2211690E5182116D8
:1019DA0090E704211690E6DC211690E26121169028
:1019EA00E36D211690E427211690E36A211690E50B
:1019FA00A4211690E5C4211690BE9D211690E47A82
:101A0A00211690BF6B211690DEDC211690C9A82101
:101A1A001690E4CA211690A177211690A850211693
:101A2A0090C1BE211690E8CB211690E9122116909A
:101A3A00E957211690E98B211690E9D6211690EAEA
:101A4A00F9211690EA1D211690EB202116909C8010
:101A5A00211690EB2F21169081F3211690EB692124
:101A6A001690EFDF211690F007211690DE832116DB
:101A7A0090CFB2211690F041211690DED621169011
:101A8A00F075211690DE4C211690CA31211690DE8F
:101A9A003F211690F087211690F0A8211690D1C008
:101AAA00211690CFBF211690F0CF211690F7DF2193
:101ABA001690F7E0211690F7E5211690F0472116C7
:101ACA0090F7EC211690F13F211690DCD021169068
:101ADA00F7ED211690D981211690F819211690C791
:101AEA0050211690C359211690C22B211690DCD78B
:101AFA00211690DDB4211690DB99211690DA9A21ED
:101B0A001690DCBA211690DA22211690DDD9211618
:101B1A0090DC30211690D1BA211690FBDF21169065
:101B2A00EB64211690D1DD211690CFCB211690F3CC
:101B3A0020211690F1BA211690F9D6211690EC9D23
:101B4A00211690FA74211690FB82211690FAA5218B
:101B5A001690F96A211690FD96211690D61B211629
:101B6A0090809721169080FB211690800021169074
:101B7A00815F211690C2E621429080DE214290C503
:101B8A00F021429080EE214290C2BF214290C73D8F
:101B9A0021429081DF214290B020214290ACD32192
:101BAA00429080A4214290C7CC214290C8EF2142A2
:101BBA0090C9E9214290CA16214290CA2621429030
:101BCA00B5AA2142908C15214290CACF2142909CFD
:101BDA0076214290CDF221429081EF214290D100AC
:101BEA00214290D141214290B942214290BA3321F7
:061BFA004290BA6B21428B
:101C000090B894214290D14E214290D165214290CA
:101C1000D198214290D319214290D6B5214290818A
:101C2000DE214290D89B214290D8E2214290AFC859
:101C3000214290D991214290DA0F214290B02B217C
:101C40004290800021429080CD214290DA3721429B
:101C500090DA49214290DA62214290AA27214290EB
:101C6000B039214290CBB4214290CDEE214290DA9E
:101C700093214290DAA4214290DAC1214290DAF312
:101C8000214290DB3A214290A356214290DC41212F
:101C90004290C9172142908643214290AA4B21428B
:101CA00090C99F214290DCAD214290DD9421429069
:101CB000DDC4214290DEA2214290DEF3214290DF7A
:101CC00082214290A2F0214290E0EB214290E03547
:101CD000214290B1B2214290B4E7214290B4C72191
:101CE00042908920214290C18C214290C7FE21421E
:101CF00090D85B214290D863214290E13E214290EE
:101D0000C17A214290AB13214290E16A214290E1D5
:101D100086214290C1F52142908633214290D844D9
:101D2000214290CBB9214290C1F8214290CBBF21F2
:101D30004290C1FA214290CBC5214290E26D2142EE
:101D400090C784214290C761214290D57221429070
:101D5000D9E021429088D0214290AAD5214290E634
:101D60006F214290D806214290D84B214290E7D46F
:101D7000214290B132214290E857214290E88F21D0
:101D800042909276214290E99F214290E04E21427A
:101D900090BD4F214290E9B1214290E9B421429097
:101DA000BFAC214290EB28214290A1E7214290A6AE
:101DB000DE214290A3C6214290A60A214290D5DAA4
:101DC000214290A8D121429081E6214290D35E2108
:101DD0004290A896214290A4872142909286212C7D
:101DE000909287212C9092B0212C90999A212C903E
:101DF000999B212C908000212C909B3F212C90A01E
:101E0000BE212C90A0CB212C90A0D7212C908274A5
:101E1000212C90922B212C90922E212C90AF3E21A0
:101E20002C90B0F0212C90B366212C90B544212C3D
:101E300090B2DE212C9094A7212C909B89212C908C
:101E4000C815212C90C8D1212C90C958212C9082E2
:101E50007E212C90BEFA212C90C9A1212C90CA0180
:101E6000212C90CA81212C90AC47212C90AB7F2152
:101E70002C90AC67212C90CCAB212C90CD83212CC5
:101E800090AF39212C90ACE4212C90CD66212C9080
:101E9000CFB0212C90829F212C90830D212C90B0CB
:101EA00022212C00E709F608DFFA8046E709F2084C
:101EB000DFFA803E88828C83E709F0A3DFFA803264
:101EC000E309F608DFFA8078E309F208DFFA8070A8
:101ED00088828C83E309F0A3DFFA806489828A8395
:101EE000E0A3F608DFFA805889828A83E0A3F2082B
:101EF000DFFA804C80D280FA80C680D4806980F27C
:101F00008033801080A680EA809A80A880DA80E200
:101F100080CA803389828A83ECFAE493A3C8C5829D
:101F2000C8CCC583CCF0A3C8C582C8CCC583CCDFE0
:101F3000E9DEE7800D89828A83E493A3F608DFF95E
:101F4000ECFAA9F0EDFB2289828A83ECFAE0A3C8BF
:101F5000C582C8CCC583CCF0A3C8C582C8CCC58314
:101F6000CCDFEADEE880DB89828A83E493A3F2088F
:101F7000DFF980CC88F0EF60010E4E60C388F0ED91
:101F80002402B4040050B9F582EB2402B4040050DA
:101F9000AF2323458223901EF473BB010689828AF6
:101FA00083E0225002E722BBFE02E32289828A8379
:101FB000E49322BB010B89828A83F8E0C828F0E809
:101FC00022500327C722BBFE07F8E3C828F3E82204
:101FD0008A838982E49322BB010CE58229F582E59C
:101FE000833AF583E0225006E92582F8E622BBFE1B
:101FF00006E92582F8E222E58229F582E5833AF5B1
:1020000083E49322BB010989828A83F8E028F022C5
:10201000500327F722BBFE05F8E328F3228A8389C1
:1020200082F8E4932822BB010FF8E58229F582E5C6
:10203000833AF583E028F0225009C58229F8E58229
:1020400026F622BBFE09C58229F8E22582F222F893
:10205000EA2583F583E9932822BB010689828A83D6
:10206000F0225002F722BBFE01F322F8BB010DE57E
:102070008229F582E5833AF583E8F0225006E925C6
:1020800082C8F622BBFE05E92582C8F222EF8DF058
:10209000A4A8F0CF8CF0A428CE8DF0A42EFE22BCF4
:1020A000000BBE0029EF8DF084FFADF022E4CCF8E8
:1020B00075F008EF2FFFEE33FEEC33FCEE9DEC984D
:1020C0004005FCEE9DFE0FD5F0E9E4CEFD22EDF8D3
:1020D000F5F0EE8420D21CFEADF075F008EF2FFF76
:1020E000ED33FD4007985006D5F0F222C398FD0F5E
:1020F000D5F0EA22C2D5EC30E709B2D5E4C39DFDA4
:10210000E49CFCEE30E715B2D5E4C39FFFE49EFEED
:1021100012209FC3E49DFDE49CFC800312209F30AD
:10212000D507C3E49FFFE49EFE22C5F0F8A3E02894
:10213000F0C5F0F8E582158270021583E038F022D0
:10214000A3F8E0C5F025F0F0E58215827002158352
:10215000E0C838F0E822BB010A89828A83E0F5F002
:10216000A3E022500687F009E71922BBFE07E3F53A
:10217000F009E3192289828A83E493F5F0740193CC
:1021800022BB0110E58229F582E5833AF583E0F56B
:10219000F0A3E0225009E92582F886F008E622BB88
:1021A000FE0AE92582F8E2F5F008E222E5832AF545
:1021B00083E993F5F0A3E99322BB010DC58229C5FC
:1021C00082C5833AC58302212A5011C58229F808A5
:1021D000E5F026F618F5F0E58236F622BBFE11C5CD
:1021E0008229F808E225F0F5F0F218E23582F222B1
:1021F000F8E58229F582E5832AF58374019325F0B9
:10220000F5F0E4933822BB010A89828A83F0E5F075
:10221000A3F0225006F709A7F01922BBFE06F3E54A
:10222000F009F31922F8BB0111E58229F582E58353
:102230003AF583E8F0E5F0A3F0225009E92582C8D9
:10224000F608A6F022BBFE09E92582C8F2E5F008EF
:10225000F222EF2BFFEE3AFEED39FDEC38FC22C303
:10226000EF9BFFEE9AFEED99FDEC98FC22E88FF0D3
:10227000A4CC8BF0A42CFCE98EF0A42CFC8AF0ED0D
:10228000A42CFCEA8EF0A4CDA8F08BF0A42DCC38C1
:1022900025F0FDE98FF0A42CCD35F0FCEB8EF0A4F9
:1022A000FEA9F0EB8FF0A4CFC5F02ECD39FEE43CB3
:1022B000FCEAA42DCE35F0FDE43CFC2275F0087557
:1022C0008200EF2FFFEE33FECD33CDCC33CCC58271
:1022D00033C5829BED9AEC99E58298400CF582EE2D
:1022E0009BFEED9AFDEC99FC0FD5F0D6E4CEFBE415
:1022F000CDFAE4CCF9A88222B800C1B90059BA00DD
:102300002DEC8BF084CFCECDFCE5F0CBF97818EF37
:102310002FFFEE33FEED33FDEC33FCEB33FB10D738
:1023200003994004EB99FB0FD8E5E4F9FA227818F9
:10233000EF2FFFEE33FEED33FDEC33FCC933C91054
:10234000D7059BE99A4007EC9BFCE99AF90FD8E086
:10235000E4C9FAE4CCFB2275F010EF2FFFEE33FE58
:10236000ED33FDCC33CCC833C810D7079BEC9AE8CB
:1023700099400AED9BFDEC9AFCE899F80FD5F0DA4C
:10238000E4CDFBE4CCFAE4C8F922EF5BFFEE5AFEA1
:10239000ED59FDEC58FC22C3E49FFFE49EFEE49D52
:1023A000FDE49CFC22EB9FF5F0EA9E42F0E99D42A1
:1023B000F0EC6480C864809845F022EB9FF5F0EA69
:1023C0009E42F0E99D42F0E89C45F022E8600FEC67
:1023D000C313FCED13FDEE13FEEF13FFD8F122E85B
:1023E000600FEFC333FFEE33FEED33FDEC33FCD86B
:1023F000F122BB010789828A830224805005E9F813
:1024000002292ABBFE05E9F802293689828A83025D
:10241000248CBB010DE58229F582E5833AF5830220
:1024200024805007E92582F802292ABBFE07E92506
:1024300082F8022936E58229F582E5833AF583029E
:10244000248CBB010789828A830224D85005E9F8CD
:1024500002296CBBFE05E9F802297822BB010DE5D3
:102460008229F582E5833AF5830224D85007E925CD
:1024700082F802296CBBFE07E92582F8022978223E
:10248000E0FCA3E0FDA3E0FEA3E0FF22E493FC74E4
:102490000193FD740293FE740393FF22E0F8A3E01E
:1024A000F9A3E0FAA3E0FB22BB010DE58229F58246
:1024B000E5833AF58302249C5007E92582F8022936
:1024C00042BBFE07E92582F802294FE58229F58201
:1024D000E5833AF58302295CECF0A3EDF0A3EEF07E
:1024E000A3EFF022A8828583F0D083D0821224FB50
:1024F0001224FB1224FB1224FBE473E493A3C58390
:10250000C5F0C583C8C582C8F0A3C583C5F0C5831F
:10251000C8C582C822BB010789828A830224E4508D
:1025200005E9F8022984BBFE05E9F802299D22BBD2
:10253000010DE58229F582E5833AF5830224E45012
:1025400007E92582F8022984BBFE07E92582F80203
:10255000299D22F5F0C582A4C582C5F0C583A425B6
:1025600083F58322A42582F582E5F03583F5832265
:10257000E0FBA3E0FAA3E0F922F8E0FBA3A3E0F973
:1025800025F0F0E582158270021583E0FA38F0221A
:10259000EBF0A3EAF0A3E9F022E493FB740193FAD1
:1025A000740293F922BB010789828A830225705045
:1025B00005E9F80229B6BBFE05E9F80229C88982B7
:1025C0008A83022599BB011A89828A83D0F0D0E0E0
:1025D000F8D0E0F9D0E0FAD0E0FBE8C0E0C0F002CB
:1025E00025905016E9F8D083D082D0E0F9D0E0FAF7
:1025F000D0E0FBC082C0830229BFBBFE16E9F8D041
:1026000083D082D0E0F9D0E0FAD0E0FBC082C08372
:102610000229D122BB010DE58229F582E5833AF535
:10262000830225705007E92582F80229B6BBFE0710
:10263000E92582F80229C8E58229F582E5833AF581
:1026400083022599BB0120E58229F582E5833AF5CD
:1026500083D0F0D0E0F8D0E0F9D0E0FAD0E0FBE8A9
:10266000C0E0C0F00225905018E92582F8D083D050
:1026700082D0E0F9D0E0FAD0E0FBC082C08302292A
:10268000BFBBFE18E92582F8D083D082D0E0F9D014
:10269000E0FAD0E0FBC082C0830229D122D083D0EF
:1026A00082F8E4937012740193700DA3A393F874ED
:1026B0000193F5828883E4737402936860EFA3A3A7
:1026C000A380DFD083D082E4937012740193700DE5
:1026D000A3A393F8740193F5828883E4737402933F
:1026E0006C70127403936D700C7404936E700674A6
:1026F00005936F60DDA3A3A3A3A3A380CA8A8389E4
:1027000082E473E56F2582F582E56E3583F583B546
:102710006E0485826F2210AF0685826FF56E22856A
:10272000826FF56ED2AF22EC8EF0A4CCC5F0CCCD8A
:10273000F8EFA4CEC5F02DFDE43CFCE8A42EC8C5FE
:10274000F03DFDE43CFCEFA4FFE5F028FEE43DFD98
:10275000E43CFC22E3F5F009E208B5F06BDFF5801C
:1027600067E3F5F009E608B5F05EDFF5805A87F01B
:1027700009E608B5F052DFF6804E87F009E208B5A9
:10278000F046DFF6804288828C8387F009E0A3B5AB
:10279000F036DFF6803288828C8387F009E493A3D9
:1027A000B5F025DFF5802188828C83E3F5F009E020
:1027B000A3B5F014DFF5801088828C83E3F5F0096F
:1027C000E493A3B5F002DFF4022883808780E980D8
:1027D0009080D4803E8015806E807E809D80B78002
:1027E0008D80A380518074803C02288F89828A83E7
:1027F000ECFAE493F5F0A3C8C582C8CCC583CCE459
:1028000093A3C8C582C8CCC583CCB5F076DFE3DE20
:10281000E1807089828A83E493F5F0A3E208B5F041
:1028200062DFF4805E89828A83E0F5F0A3E608B572
:10283000F051DFF5804D89828A83E0F5F0A3E2084C
:10284000B5F040DFF5803C89828A83E493F5F0A3FC
:10285000E608B5F02EDFF4802A8002805789828A4C
:1028600083ECFAE493F5F0A3C8C582C8CCC583CC49
:10287000E0A3C8C582C8CCC583CCB5F006DFE4DED2
:10288000E280007FFFB5F0020F2240027F01228923
:10289000828A83ECFAE0F5F0A3C8C582C8CCC58370
:1028A000CCE0A3C8C582C8CCC583CCB5F0D5DFE5E4
:1028B000DEE380CF89828A83ECFAE0F5F0A3C8C515
:1028C00082C8CCC583CCE493A3C8C582C8CCC583D9
:1028D000CCB5F0AFDFE4DEE280A988F0EF60010E56
:1028E0004E60ABED2402B404005098F582EB240254
:1028F000B40400508E23234582239027CB73EF4EE0
:102900006012EF60010EEDBB010B89828A83F0A398
:10291000DFFCDEFA2289F05007F709DFFCA9F0227C
:10292000BBFEFCF309DFFCA9F022E6FC08E6FD088B
:10293000E6FE08E6FF22E2FC08E2FD08E2FE08E20D
:10294000FF22E6FB08E6F908E6FA08E6CBF822E201
:10295000FB08E2F908E2FA08E2CBF822E493F87403
:102960000193F9740293FA740393FB22ECF608EDD9
:10297000F608EEF608EFF622ECF208EDF208EEF2B9
:1029800008EFF222D083D082E493F608740193F624
:1029900008740293F608740393F6740473D083D01A
:1029A00082E493F208740193F208740293F20874BB
:1029B0000393F2740473E6FB08E6FA08E6F922EBE7
:1029C000F608EAF608E9F622E2FB08E2FA08E2F97C
:1029D00022EBF208EAF208E9F2224105E50041059E
:1029E000E400E002020000141CE002020002120FE8
:1029F000E00102000954E00102000AA5E001021210
:102A00000B00E00502120C120F02060A410A03062F
:102A1000011300410A0201410A0001C11B01180013
:102A2000011600C130413D5500413D4A00413D5332
:102A300000413D5400413D51FF413C2A00C11EC1AF
:102A400008412B2400412BB2FF412BA900C10641B4
:102A50002BB300412BB400412BAA01C10B412B2306
:102A60000041439600C13C4339ED0000004139EC80
:102A7000004139F0004303E70000004303E4010391
:102A8000E7422D8598074340F80000004340F501D8
:102A900040F8E00202121101B0E00102121300E05E
:102AA0000102129400E0050213BC01B006060A41BF
:102AB00042C8024142C70D4142C908602035434225
:102AC000DB0100000000000000000000000000002A
:102AD0000000000000000000000000000000006096
:102AE0002035630900000000000000000000000025
:102AF00000000000000000000000000000000000D6
:102B000000000050385F00000000000000000000DE
:102B1000000000000000C115015000C112C11341A6
:102B2000424505C11FC121C12442238C9840412345
:102B30008E004335B60000004235B400006020230B
:102B40004B0000000000000000000000000000003A
:102B50000000000000000000000000000000000075
:102B6000004320009F0100502003000000000000EF
:102B7000000000000000000000016127260E000296
:102B800001050101020E0601010004070401020310
:102B900000000400060805040208031404000400F1
:102BA00014050108090805020803140500040014AF
:102BB00005000600140802020A0A080203010008C0
:102BC00000040014080006001408010800140A029A
:102BD0000D000A0A020C000A0A02080B0A0A010583
:102BE0000C0E0A000400140A000600140A01080072
:102BF000140E000A0D110E020804140E0004001435
:102C00000E000600140E010800140E010500140E3B
:102C1000020F0E1211000C0C0E1102080414110008
:102C2000040014110006001411010800141101051C
:102C3000001411000A00141102050E1212020804F9
:102C40001412020C0F0012000400141200060014EB
:102C50001201080014120105001412000A001412D7
:102C60000205001412000C001413020C01000002F3
:102C70000900000002100000140209010014020BF8
:102C80000013140007100014020A010014020400CB
:102C90001414020C001414020D010014020E00148E
:102CA00014021001006024281E0200FFFF0602FF2C
:102CB000000602FF000301FF002300FFFF030000E6
:102CC0000013000000020001010300000046277508
:102CD0000100020104024227FB1D5E4128820041DF
:102CE0002A30014128880043288501284343287958
:102CF000012843410BE20060200A71EDFFFFFFFF56
:102D0000FFFFFFFFFFFFFFFFFFFFFFFFFFFFFFFFD3
:102D1000FFFFFFFFFFFFFFFFFFFF7F4833BC8685FC
:102D20008E59725A737A4F33C4FF314E0DFF315BA7
:102D3000050133BC080310014933814C6966656C99
:102D4000696E65004433B880035A01602E338A00EF
:102D50000000000000000000000000000000000073
:102D60000000000000000000000000000000000063
:102D7000000000000000000000000000004133D40B
:102D80000041338001C141E0020213C10047E00568
:102D90000214030047040405E0020214080013E0D3
:102DA0000C02140A00000305000300050405060ACE
:102DB000E0050214160013FF0405E00202141B00D4
:102DC00000433C41000000423C480000443C4407B2
:102DD000102232463C3B40464A4E5256C1264138AC
:102DE000C0004138BD00424325000041432400C1DA
:102DF000484333280000004132D50041323F0142B0
:102E0000399C000041399300453E650000000000F8
:102E1000453E600000000000413DF900413DF500E5
:102E2000413DEF00413DF800413DF000413EFD00D5
:102E3000413EFC00444287000000004138F8005B3E
:102E400038DC00000000000000000000000000006E
:102E5000000000000000000000000000004138DB1E
:102E6000FFC15241374E005036A90000000000005B
:102E7000000000000000000000004536B90001021B
:102E800004804736C9000000000000004336C60039
:102E90000000413DB700413DBD00413DBC00423D09
:102EA000B80000413DC100413DC000423DBE0000B0
:102EB000423DBA0000413DB6004C3DC2100000004A
:102EC0000000110000000000C15800C2D5E830E742
:102ED0000FB2D5E4C39BFBE49AFAE499F9E498F8BD
:102EE000EC30E717B2D5122F011222F8E4C39BFB96
:102EF000E49AFAE499F9E498F880031222F830D5BC
:102F00000DE4C39FFFE49EFEE49DFDE49CFC22785B
:102F10009FE4F6D8FD9000007F007E10E4F0A3DF70
:102F2000FCDEFA9043C7A3E583C394204011FEAFB3
:102F3000829020000E0FE48002F0A3DFFCDEFA1284
:102F4000192002186022320000010000000017065C
:102F5000000000001806000000061806000000012E
:102F6000180600000008180600000001010100001A
:102F700000011500000000010204000000010B0424
:102F8000000000060B04000000080B040000000114
:102F90000D00000000010E04000000011000000000
:102FA00000010F00000000040501000000040606F7
:102FB00000000004070800000002050000000003F4
:102FC00005010000000108050000000008000000E5
:102FD00000010C01000000011205000000080302BE
:102FE0000000000122000000000816080000000890
:102FF0000800000000011601000000061601000094
:1030000000050903000000050A0000000005030296
:10301000000000050400000000061B06000000017F
:103020001B06000000061C07000000061D0700002C
:1030300000070508000000081E0700000008200027
:10304000000000081F000000000821000000000828
:103050001106000000011106000000082200000017
:1030600000061906000000061E00000000062000F1
:10307000000000061A080000000614010000000706
:103080001401000000081B060000000724000000D7
:103090000008140100000055555555555555555516
:1030A0005555555555553333333333333333333324
:1030B000333333333333888888888888888888888E
:1030C00088888888883F241E16110E0B090705047E
:1030D000030201F0C8A79177676046383532302483
:1030E0002220140001010202030304040505060660
:1030F00007070000000000000000000000000000C2
:1031000000000000000000000000000000000000BF
:1031100000878888888888888888888888888888B8
:1031200088262626262626262626262626262626DD
:1031300026000E1384000E18FC000E225C02020210
:10314000003F3F3F040404323232000201905E85AA
:103150008E595586725A73989F6C7A5E6C55989FFB
:1031600000011DFE1E031E084C6966656C696E65D4
:1031700000496E76616C69642067726F7570001922
:10318000DA19DF19E419E919F31A071A0C1A111DD3
:10319000771D811D861D8B1D901D951D9A1DA41CDC
:1031A0005A1C691C6E1C731C781E5D1E621E671EF5
:1031B0006C1E7164E9403654D61A9D1AA21AD91CA5
:1031C000AA1CB41CC81E211E261E2B1E441E491EEE
:1031D0004E6409644F1A521A571CCD1CD21E531E3E
:1031E000581E761E7B1E801E851E8A1E8F1BD31BBB
:1031F000E71D6D1E1C5A0120035952E4FD7C0CABE7
:10320000050DEB9018F1938F828E83F00FBF0001B4
:103210000EDCEC7F03228F828E83E4F0A3740651D0
:1032200038740A5138A3E4F0EF2404F582E43EF543
:1032300083E4F0A3746DF022F08F828E83A3A32227
:10324000AD07901217E054FCF0E0FFED54307E0023
:1032500060027E02EF4E901217F0E0FFED7E00302C
:10326000E0027E01EF4E901217F0229005ED7402FD
:10327000F09005E4E0FF121DE551409005ED740566
:10328000F02275FF0275E404E4F5E41273E7C3303D
:10329000E001D34017E5E630E012901217E0540C3D
:1032A000600A121C0F901217E054F7F0C21A127342
:1032B000E730E039E5E6540364017031121A3E123A
:1032C0005BE4401F90123EE0600BE014F0700612C9
:1032D0002F0FF1D7F0901215E020E002617F124825
:1032E000BA617F122F0FD21AF1D7F0617F122F0F20
:1032F0001265CA9005E6EFF0901200E0B47A1490DF
:103300001214E0B49C0D9005E6E0FF64056004EF44
:10331000B40330E49005ECF09005ECE0FFC394803A
:103320005013E42FF582E43412F583E4F09005ECB9
:10333000E004F080E3901200747AF0901214749C10
:10334000F0D216121C374003121C327B017A12791C
:10335000107D017F01121C2D7B017A1279117D01F4
:103360007F21121C2D7B017A1279127D017F22129E
:103370001C2D7B017A1279287D017F02121C2D9071
:103380001228E0B401057F01126BAE121A431265D8
:10339000CA121A399005E6EFF01219B2121A3490D7
:1033A00005E6E0FFB40602800C301A047F028005B7
:1033B0009005E6E0FF121DE0EF24FFB3923C75FF9D
:1033C0000253E6BF123F836003F1D7F01250671239
:1033D0001A4D1238BA30160B7B017A12792A7D10F9
:1033E000126257121A8E901215E0C330E001D340DA
:1033F0000E203C0B516B7B017A2B79BB1219F89094
:103400001229E030E0028003301A057F011244E205
:10341000D2AF301A031219B7203C02819F121C5000
:10342000125169121DEA121C2840F29005E5E06075
:1034300041121A6BEF7005125A744036E51370FC96
:10344000E51420E503125C5E121B88EF70FAF1DED2
:10345000500512645750047F01B1CA9005E5E0B4ED
:103460000204E4FF80099005E5E0B403057F011242
:1034700048BF121A61E51430E1A31261DF4002E493
:10348000F0E51420E50812708E7D01125AA6127123
:103490009EC0E012710EFDD0E0FF12199E811D1238
:1034A00050061248E35003124903B1C1EF70069071
:1034B00005E5E06052902B24E0704C121A6BEF701F
:1034C00005125A744041E51370FCE51420E503121F
:1034D0005C5E121CBE121B88EF70FAF1DE50051202
:1034E000645750047F01B1CA9005E5E07011B1C185
:1034F000EF600C12389D901217E04408F08008909D
:1035000005E5E0FF121C0A121C50125169121C1929
:103510009040CBE0704B123877123885EF70231251
:1035200038B2EF6005121C0F8037B1C1EF70321254
:1035300064C5EF702C1247FAEF64017024123896BC
:10354000801F901217E020E2181238B2EF600DF1E0
:10355000DE50051264575004E4FFB1CAE49005EB55
:10356000F0201705121A618022125A3C9005DEE005
:10357000FEEFC39E4005EF9EFF80089005DEE0F45D
:10358000042FFF7403D39F5002C217E51430E123C8
:103590001261DF4002E4F0E51420E50812708E7D30
:1035A00001125AA612719EC0E012710EFDD0E0FF0A
:1035B00012199E121BD8121A7A12642212505281CA
:1035C0009F1238ABB401027F0122904354EFF0E424
:1035D000A3F0903C2BE0FFB4020A740F1273D07476
:1035E000B9F0800DEF64047040743D1273D07479AB
:1035F000F0F10E904354E06007903C2AE0FF800217
:103600007FABD12EF1F2904354E0903C2AF070153C
:10361000904355E0D39400400C7FFFD12E9043554A
:10362000E014F080EBE4FFF1C522122480E4E5C849
:1036300020E2FB8FEB227F01F1C590438F7401F0F4
:1036400090438FE0602FF1D1D1C290438FEFF0F122
:10365000F2D1B1903C1EEFF0F1F290438FE05401B3
:103660001273C860DBA3E0F460D6EF30E7D2E490D9
:10367000438FF080CBF1127F9FD12ED1C2903C1F9F
:10368000D1C0903C24D1C0903C25EFF0F1C1903CDA
:103690001DE0F4601BA3E0F46016903C24E0FD54B0
:1036A0001F240FA3F0EDC41354074480903C24F072
:1036B00022F1127FD7D12E7FFFD12ED1C6903C1D93
:1036C000EFF07FFFD12EE5C820E2FBAFEB227F01B8
:1036D000F1C5303A14F1D1D1C2904390EFF0F1F23C
:1036E000904390E020E002C23A303A18D1B1903CC9
:1036F0001EEF1273C8600BA3E0F46006EF30E70220
:10370000C23AF1F2E4FFF1C5A23AE433FF227F01AD
:10371000F1C5903C22E012269D373504373D143721
:103720004215374717375730375C343761363766BD
:10373000370000374F536AEF856A80802F536BEF55
:103740008008536BDF8003536B7F856B90801D5324
:103750006CDF856CA08015536DFE800D536DEF807E
:1037600008536DBF8003536D7F856DB07F0CDFFE06
:103770002290418F1224D890418F122480123A0750
:10378000904193E06F6036123F6ED1CEEF6005122C
:103790003ECC80F6123FEF600890418F123FB5D1CA
:1037A0002E90418F123FABD12E90418FD12A904164
:1037B00093E0FFF1BF903C217401F0D322C322D1EA
:1037C0002EF1F2E4FFEFB4010443FE202253FEDFAA
:1037D00022F1127F05C12E901215E054FE229000B6
:1037E00001740193B40007E493B41802C322D322F6
:1037F000D12E127002EF70FA903C24E0F4600B902E
:10380000438E7406F012386F70FB903C22E0122653
:103810009D382D04383514383A15383F17384F3055
:10382000385434385936385E3700003847436A1008
:10383000856A80802F436B108008436B2080034390
:103840006B80856B90801D436C20856CA080154338
:103850006D01800D436D108008436D408003436D02
:1038600080856DB090438E740CF0116F70FC2290C7
:10387000438EE014F0E0229005EBE0FF121DEF9084
:1038800005F0EFF0229005F0E07F0070027F01224A
:10389000E49005EBF0229005EB7401F0229005EB2B
:1038A0007402F02211AB70027F01229005EBE07FE1
:1038B000002211ABB402027F0122126CB4121A5C16
:1038C000121B291219A3121C55F183700221A57F26
:1038D000FF121AE8900B231225907E007F095104F5
:1038E000BF540D7E007F0A5104BFA5047F018002F2
:1038F0007F009005E4EFF0514AE94A4B701D7F04C8
:10390000FE5104EF2401FFE433FEC37401125FA5EE
:103910007F0050027F019005E4EFF09005E4E06441
:1039200001704D514AAE02AF017A0B7929F199919C
:10393000F4FEA3E0FF514AC3E99FF9EA9EFAE924A5
:1039400007F9E43AFA900B26122590E92408F9E4E5
:103950003AFEAF017B017A0B7929F19B91F4640463
:103960007004A3E064056008121AED9005E4EFF01E
:103970009005E4E070277E007F04C006C3741C94A9
:1039800004FE7414940090404BF0A3CEF07B007AB8
:10399000007900D006F192E4FFFE121AF29005E4DD
:1039A000E0FF121B15F1837F0060027F01121A1BDA
:1039B000121A2512196C1263EF1270EE7A12792224
:1039C000121B8D1248FBFE4FFDA3E0FC4DFDA3E052
:1039D000FB4D600BEE5FFFEC5FFFEB5FF4700312DB
:1039E0004903901220E0FF901224E06F9005DFF071
:1039F000021C23E075F002A42485F9740F35F07BD6
:103A000002FEAF01E4FCFD90418A1224D8F16E124F
:103A100036CEEF6004D1CC80F612370E7F03124011
:103A200009600890418AF1B512362E90418AF1ABB7
:103A300012362E90418A12362A1236C290418EEFEB
:103A4000F01237C190418EE0FF22900B23022570C7
:103A50007402F0904048122590E4FCFDC0079040AD
:103A60004812257090404B12726DD007903C68123E
:103A700024D8903C6C122590903C68122480903C95
:103A800027E024FFFD903C26E034FF5EFEED5FFF63
:103A9000903C711272666067903C71127161127293
:103AA00038903C71F0A3EFF0903C6FE0FCA3E0FD98
:103AB000D39FEC9E5006A3ECF0A3EDF071A5B19A54
:103AC000602D914E903C68F17DC004C005C006C0D9
:103AD0000771A5E94A60059141FF80027F007E00E1
:103AE00071A5F1BFD007D006D005D004126C1071BB
:103AF0007EE94A6004F1A280787E007F00807290A7
:103B00003C6FE0FEA3E0FF4E6072903C26E0FCA319
:103B1000E0FDD3EF9DEE9C400A903C71ECF0A3EDEC
:103B2000F0800D903C6FE0FFA3E0A3CFF0A3EFF097
:103B300071A5B19A602D914E903C68F17DC004C092
:103B400005C006C00771A5E94A60059141FF8002E2
:103B50007F007E0071A5F1BFD007D006D005D0044C
:103B6000126C10717EE94A6004F1A280047E007F2D
:103B700000903C6DEE8FF012212A8083D322903C7E
:103B800071E0FEA3E0FFC3903C70E09FF0903C6FBB
:103B9000E09EF0903C6812249CE4FCFD12225290BE
:103BA0003C681224D8903C6C022570EFF4045FFF4F
:103BB000E4FEEF70037FFF22EFD3940F4009EFC4C0
:103BC000540FFFEE4404FEEFD39403400AEF1313A7
:103BD000543FFFEE4402FEEF30E1010EAF0622AB90
:103BE00007AA06EB241FFFE43AFEEF7805CEC313C5
:103BF000CE13D8F9F9EB541F904391F0AF059146DD
:103C0000FCAF0571B0AE01EE14C39FC43354E0F9AC
:103C1000AF04C3EB9FFFEA9400FEE9FDC3EF9DFFF5
:103C2000EE9400FEED600FE0FD6007C374209DFD83
:103C300080067D0080027D007C00EF2DFFEC3EFEC3
:103C400022903C75E0FF71ABEFC43354E022903C0E
:103C500071E0FEA3E0FF903C75E0FD71DF903C73E6
:103C6000EEF0A3EFF0A3E0FF71ABEF75F020A4FF3F
:103C7000AEF0E4FCFD227B019040D67410F0904041
:103C8000D3122590E4FCFDC0079040D3122570901C
:103C900040D6E0903E8EF1E1D007903E871224D8C6
:103CA000903E8B122590F16E1236CEEF6004D1CC8F
:103CB00080F612370E7F031240096008903E87F1AC
:103CC000B512362E903E87F1AB12362E903E8712FB
:103CD000362A903E8E126C7E45F060101236C290ED
:103CE0003E8BF18B903E8CE4F1D580E61237F2E406
:103CF000FF0237C5917E900B29E022F158122590E2
:103D0000E4903D60F0A304F0903D5DE0FEA3E0FF91
:103D10004E7002A194D3EF9420EE940040047F20D3
:103D20008006903D5DA3E0FF903D5FEFF0903D5A2F
:103D3000122570903D5FE09037ACF1E8903D56124F
:103D40002480126EC7400E903D60E0FFA3E0FEEFBE
:103D50004E903D60F0903D5FE0FFC3903D5EE09F80
:103D6000F0903D5DE09400F0903D5612249C903D13
:103D70005F1273AAF158122570E94A6007903D5FFF
:103D8000E0FF80027F00903D5BF1DB903D61E0252C
:103D9000E0F0A108903D60E0FF22903C71E0FFA3BD
:103DA000E0903D5DCFF0A3EFF0903C68122480914D
:103DB000FB903C75EFF02290438CEFF0C2309012F4
:103DC00020E0601F7E127F0B5104BF01087FFF12AD
:103DD0001DF97F0022903D50E06008901220E0FF26
:103DE000121DF9D19490438CE07002C16DE4903DB6
:103DF00054F0903D50E06002D1E190438CE0FFB47C
:103E00000107903D5474018009EFB40310903D54B4
:103E10007402F0D18C903D527404F08048EF640439
:103E20007035901220E0701ED230F162EF700FD129
:103E30008C1264A07E127F0B7D01D1BFD19C903D7E
:103E4000507404F080399005E6E0B40505E4F01202
:103E50001BF6D18C7F002290438CE064027020908E
:103E60003D52F0D18C903D507402F08012E4903DB0
:103E700054F0F162EF6002D194903D507401F0D1A2
:103E8000E4903D50E07F0060027F0122901217E035
:103E90005403F0227E127F0BE4FDD1BFF16E123687
:103EA000CEEF6004D1CC80F622E075F002A4248429
:103EB000F9740F35F07B02FEAF01902BABE0FDAB48
:103EC00005E4FCFD904193EBF0023771E51430E21C
:103ED0000FE51420E50AE51430E0057F011244E205
:103EE000227401F0903D50E0640270247C647DE90E
:103EF0007F01121A16E4FBFAFD7FFF121A027E54AC
:103F00007FD6C006C007126576D007D0060257D606
:103F1000903D50E064037018FFFE12413B903D5409
:103F2000E07C647DE9B402047F0380117F02800D90
:103F3000903D50E0B4040C7C647DE97F04121A16B5
:103F40000254D6903D50E0B4010D1273E01257DEDA
:103F5000D18CE4903D50F022903D561224D8903DF3
:103F60005A22901217E07F0030E2027F012275FF93
:103F700002E5E430E10675E40675E4032212249CB0
:103F80000222529005E6E0640122FF122570EF0242
:103F90002059515374FFFDFC227B019040D67402DE
:103FA000F022903C71E0FEA3E0FF2212248078080A
:103FB0001223CCE42212248078101223CCE422E9CC
:103FC0002FF9EE3AFA903C73E0FFA3E0903E85CFE4
:103FD000F0A3EFF02275F00102212AE48FF0022114
:103FE0002AFFE4F0A3EFF022FFE4F0A3EFF0227F3A
:103FF000011237C5D23A1237127F0612362E123707
:10400000F2123712903C20E0FF12362E903C23E053
:1040100064022275FF0275E40475E40175E402226E
:1040200075FF0275E404E4F5E422125A3C9005EEB3
:10403000EEF0A3EFF0221264A8EF70087FA07E0FCD
:10404000FDFC01D81264DF903D4BEFF07406D39F66
:104050004068E0605BF1D77E00903D4BE014FDE5E9
:10406000F0A805088005C333CE33CED8F9FFF1C7D9
:10407000313D903D4C12249CC000C001C002C003E1
:10408000903D4BE014FF74107E00A807088005C324
:1040900033CE33CED8F9FFEE3395E0FDFC3149F84D
:1040A00012226DD003D002D001D0001222528028FB
:1040B000F1D7AFF07E00F1C7801E903D53E0FF6066
:1040C0000FE4FCFDFEFB7AF47901F812226D800802
:1040D0007F007ED07D077C00313D1264737E547F6B
:1040E000D6C006C007313512657DD007D0061257FD
:1040F000D61264B9EF703D3143F8D31223BB4007A9
:10410000E47F01FEFD80243143F81222F8313D3175
:1041100035E47B0112729F50143135C3EF9401FFD7
:10412000EE9400FEED9400FDEC9400313C3135122C
:104130001C14112A22903D4C022480FDFC903D4C21
:104140000224D8903D4C122480E47BE87A03F922C3
:104150009040D0E024FC700241671470024160146A
:1041600070024150147002418624066002419EE5AF
:10417000136002419EC2EB519F1219AD904350EF64
:10418000F0E51430E002414D125E7A60047F019147
:10419000E29043507A437951125DA14004D2EB8101
:1041A000CE904350E0F1F0E0FF904351E0D39F40C8
:1041B00002E1769040CFE0640F702B904350E0FF17
:1041C000519FE924B991AEFD9040CC91C8FB1252A9
:1041D000D9904351EFF0E0FF7005D2EBD20022EF0F
:1041E000B40203D2EB22F1B1519FE924E291AEFF78
:1041F0009040CC91B8FDACF0E4FB126208C22B9069
:104200004350E0900BA7F0E4FFFE125CD3503BD28A
:10421000EB9040D07402F012624F7E00E4FCFD7B14
:10422000D07A127913F812226D3149F8122ECBABE5
:1042300007AA06904350E0FF7D031262B37E647FBD
:10424000097D147C001219678003D2EB22D2EB2285
:10425000E51420E52AE51430E0257F0191E2801F76
:104260009040D07401F022519FE924EF91AE600795
:1042700074FF1220047008121962519F021A75907F
:1042800040D07403F022126229D200519FF1C17B09
:10429000009040CC1271CC9040D0F0121976229050
:1042A00040CC022570900B76122590D22CC2EBE503
:1042B0001360028196E51430E202C322919FE92443
:1042C000ECF9E4F1EA12636FA2ED9219C2ED91B537
:1042D00054606033919FE9240391AE20E12990401E
:1042E000D0E0640460219040CF740FF0919F12647D
:1042F000037B007A007900F1C19040D07405F03161
:1043000050A21992EDD322900B7691C8540FFFBFA3
:104310000111E924ED91AE700A901221E0900B7921
:10432000F0800A919F1219AD900B79EFF0E51420FF
:10433000E065125A9E40047F0191E2900B797A0B5E
:10434000797A125DA1E433919EE924EDF9E43AFA19
:104350007401122004EF70028039900B79E0FFF1B4
:10436000F0E0FE900B7AE0D39E4004F176C32291F8
:104370009FE924B991AEFD900B7691C8FB1252D9FA
:10438000900B7AEFF0E0FF7006D2EBD2008177EF6E
:10439000B40204D2EB817791B55460600F919FE92C
:1043A000240391AE20E105E49040D0F0125A9E50D3
:1043B00004C238F130F181E5D120E0FBE4F510C210
:1043C0001A919FE92408F9E43ACFE9CFF5118F1249
:1043D00091A5F515AE11126F9691A5919EE924E174
:1043E00091AE2FFFE433FE1272F7FE919FE924B9DC
:1043F00091AED3125FA550057401122004919FE97C
:1044000024B2F9E43A8B1AF51B891C919FE924E147
:1044100091AEF51D91B55407900A02F075130891FD
:104420009FE924B2F9E43AFA125F95919FE924E1F9
:1044300091AEFFAD15126FB57B01E4FDFF126F6207
:10444000E4F5FFE5D25480440CF5D2900B79E0916D
:104450009EE924B991AE2418FBE433FA7D0312627D
:10446000B391B5FFAEF0A22C922B900B79E0900B9C
:10447000A7F0125CD34006A21992EDC322900B79EB
:10448000E0919EE924F1F9E43AFAEF122059A219D9
:1044900092EDD2EBD322A21992EDD2EBC322FF9080
:1044A0000B76022570900B76122570E924B1F9E4A1
:1044B0003AFA021F9A900B76122570E92404F9E467
:1044C0003AFA022156904031122570021F9AC39089
:1044D0000A0DE094FF900A0CE094FF5004E4123FB0
:1044E000D522EF600A12708EE4FD125AA6800A12DD
:1044F0001A70125C5EE433FF227F0122C0E0C0F03C
:10450000C083C082C0D075D008C0FF75FF01E5D55B
:1045100030E6047F028009E5D57F0030E7027F01A5
:104520008F17E51764026002A1BFE51312269D45AF
:104530004801455B0245AA0845660945710A457F61
:104540000B459F0C0000471575FF0175C3551519E4
:10455000E5196002E115751302E11575FF0175C3D8
:10456000F0751309E11575FF0175C35575130AE15F
:104570001575FF01900A18E0F5C375130BE1157569
:10458000FF01900A01E0F5C3751301751908900A3F
:104590002B12729845F06002E11575130CE115902D
:1045A00040D07406F0751300E115C2EB751300439B
:1045B00014041262324002E115E4123FD5E115E520
:1045C0001764016002E115126BA74002E115E510C6
:1045D0007022F129E0FF64556004EFB4540B7510AC
:1045E0000575FF0075D901E11575100275FF00759D
:1045F000D908E115E5106402704B75FF01F5EA7505
:10460000EAFF900A04122570E5D9122059126B595D
:104610001261F4900A00EFF01272A6E0900BDAF04B
:10462000E0FFD394094006EFD394AA4004F1CE8072
:104630006D900BDAE0F515126B5175FF008515D9F9
:10464000751003E115E51064057020F129A3E0FF62
:10465000901220E0FEEF6E700D9009FF04F0126BD7
:1046600051E0FF1219A87510008033E51064036053
:1046700002E115900A0491C8FF126170FAEF12204E
:1046800059F1CE75FF00E5D330E017C3900A13E06F
:1046900094FF900A12E094FF5004E4123FD5F18D8C
:1046A0008073C238F13075FF00F184E5D120E0FB62
:1046B000C2EB431402F129A3E0FF901223E0FEEFC6
:1046C0006EF128E0901222F122A3A3E0901224F1CF
:1046D00022A3A3A3E0FE901225E0FDEE6D4F601330
:1046E000C3900A15E094FF900A14E094FF5004E48C
:1046F000123FD5C3900A0FE094FF900A0EE094FF9A
:104700005004E4123FD575100015151272A6E51578
:10471000F09005E8F0D0FFD0D0D082D083D0F0D098
:10472000E032FEE0FDEE6D4FFF851282851183229F
:1047300090438DE5F4F0E0547FF5F47F827E001223
:104740005F0312576A5005E5FC20E6F63038089002
:10475000438DE04480F5F4125EFF12576A5005E580
:10476000FC20E6F675FF01E5D520E702C322E5F45B
:10477000D330E601C322D2EB91CED20022C238F16F
:1047800030E4F5FFE5D154FE4402F5D122F17DE598
:10479000D120E0FBE4F5FF75D901125FC95005E0B7
:1047A00004FF80027F00125CA3D238F130E4F510E0
:1047B00022E51420E507F17DE5D120E0FBE4F510CA
:1047C000229039ED0225907C007D64022727301A63
:1047D00005C21A12568422F1DFEF75F0A0842290F0
:1047E00005DFE064AA2411FFF0223AFAE40220591E
:1047F0002489F582E43409F5832220082C901217CD
:10480000E030E10B1248B750067E007F0180047E45
:10481000007F00EF4E7012121C8CEF700C121CC344
:10482000EF700612402A7F01227F0022900B9FEF3B
:10483000F0900BA1EBF0900BA0EDF0540290123F22
:10484000F01247FAEF7002C322900B9FE0B40411FC
:10485000A3E0FB7D017F01118A900B9F7403F08020
:1048600017900B9FE0B40505121C05800B900BA060
:10487000E0FB7D01E4FF118A900B9FE09005E5F0DD
:10488000900BA1E090123EF0D322EB600875FF017F
:1048900053CDFD800675FF0143CD02ED600553FB4E
:1048A000DF800343FB20EF600775FF0243E14022F6
:1048B00075FF0253E1BF22A21A22121C057F014399
:1048C000FB1075FF0243E640EF600D75FF02E5E166
:1048D00020E7FB43FB0D800343FB0E80FE75FF02C8
:1048E0008FE322901220E0701011FB4FFFA3E04FE6
:1048F000FFA3E04F7003D38001C322901222E0FF98
:10490000A3E022E4FF1244E2EF60477B017A1279D0
:104910002231535009901222E0C394C040ED7B0134
:104920007A1279243153500E11FB5FFFA3E05FFF31
:10493000A3E05FF460E8901229E030E0057F011207
:1049400044E2E4901220F07B017A127922E0FD1219
:104950001B9222903DCE125F23F0903DD41224E4AE
:1049600000000001903DD87401F0F5FFE5D554C07A
:104970007005125A9E5002C322E4F5FF53967F75CC
:10498000FF0175D504F1BB75FF0143D508E4F5FFC0
:104990005394FBF5FF53847FF5FF7598FF903DD24C
:1049A000E5F4F075F49C75FF01A3E5E4F075E425EA
:1049B0007B017A3D79D8125F59903DD8E06401605F
:1049C00002417FF5FF903DD17414F0903DD451C168
:1049D000FF78011223DF903DD41224D8E5A730E1FF
:1049E000FB43A702903DD451C1FFE5A730E005E4A9
:1049F0007B018002E4FBFAF9F8EF4BFFEE4AFEED93
:104A000049FDEC48FC903DD41224D8903DD1E014EF
:104A1000F070B8903DD451C1FF78101223CC7B6D5B
:104A20007A4E79C6784112226DEF2439FFEE343088
:104A3000B1D1FCE4FBFA7901F81222F8EE547FFEC2
:104A4000E4FDFC126B0F903DD451C1FFEB6FFFEA08
:104A50006EFEE8CDEFCDCCEECCECFF127357A3E0A9
:104A6000F9EF122059127357A3E0F9900001ED12EB
:104A7000206B90120FE030E606E4F5FF7596807526
:104A8000FF01E4F5D5903DD2E0F5F475FF01A3E018
:104A9000F5E4126806903DD8E0B40103D38001C369
:104AA00022E0FB25E025E02401F582E43412F583C1
:104AB0001224D8EB25E025E02401F582E43412F538
:104AC00083E0FCA3E0FDA3E0FEA3E02290383F12C8
:104AD00024D890384F7401F0E4A3F012693775FFC1
:104AE00002E5E630E00E9038507401F0FB7A387938
:104AF00050125F5990385A1224E4002DC6C0E4F5D4
:104B0000FFF5A490120FF09038517402F075FF0376
:104B1000903851E0FFF595EF14601314601C2402E7
:104B2000702790383F51C1F1D490384B801690389F
:104B30004351C1F1D490384C800A90384751C1F1AB
:104B4000D490384DE090385EF012696890385EE09D
:104B5000700512722A806490120EE004F0903851B1
:104B6000125F34903850E0701C90385A51C1903820
:104B700056127147FBC31223BB500A90385651C1DD
:104B8000FFA31224D890385EE0FF1267B890384E29
:104B9000E0FF903851E0FDA23692331268E590387C
:104BA00050E0700E90385651C1F1E8903851E0FF56
:104BB000B1D8903851E051B4FFF17F1273606002B8
:104BC000610D903850E07044A37402F075FF0390BB
:104BD00038511273D8701390385AB1AFFC78011263
:104BE00023CC90385151A1FFF17F12736070DD909A
:104BF000385A51C12420FFEE344EB1D1F1EFB1BF8C
:104C0000FC78011223CC9038521224D8125FBB409A
:104C10000343F420A2369234126817903850E024EF
:104C2000FF923290385251C1FF1271EEE4F5FF75D8
:104C3000E5081267ABE59B30E7FB125667F1E243EC
:104C4000D5047FC8125679B189F1C47B017A3879CD
:104C50004F12669190120EE0B401031267A49038CF
:104C60004FE0B40103D38001C32290399E1224D8AF
:104C70001269379039B31224E4002DC6C0E4F5FF61
:104C8000F5A490120EF0A3F09039AE7402F075FF07
:104C9000039039AEE0FFF595EF14601314601C2407
:104CA00002702790399E51C1F1CD9039AA8016909B
:104CB00039A251C1F1CD9039AB800A9039A651C1CA
:104CC000F1CD9039ACE09039B7F01269689039B7FE
:104CD000E0700512722A805490120EE004F09039B0
:104CE000AE125F349039B351C19039AF127147FBA6
:104CF000C31223BB500A9039AF51C1FFA31224D86D
:104D00009039B7E0FF1267B89039ADE0FFA3E0FD3E
:104D1000A23592331268E5A351C1F1E89039AEE0B3
:104D2000FFB1D89039AEE051B4FFF17F12736960E2
:104D300002818E7402F075FF039039AE1273D87041
:104D400018FF7E04FDFC9039B3B1B4FC7801122346
:104D5000CC9039AE51A1FFF17F12736970D8125F08
:104D6000BB400343F420A23592341268179039B344
:104D700051C12420FFEE344EB1D1F1EFB1BFFC7828
:104D8000011223CCC2321271EE9012137401F07E24
:104D9000127F01E4FD8F828E83EF2DF582E43EF5D4
:104DA00083E0FC901213E02CF00DEDB412E722FF2B
:104DB0007E04FDFCE0F8A3E0F9A3E0FAA3E0FB1217
:104DC000226DE47B7DFAF9F81222F8EF2401FFE46A
:104DD0003EFEE43DFDE43C22904185EFF0E4A3B1CA
:104DE000AFFC78011223CC904185E0FB1271531285
:104DF00024D8901210E064806074E0C3947F50392E
:104E0000EB127153C083C08251C1FFEEC0E0EFC00E
:104E1000E0901210E075F004A4AEF0FBCAEECAEA0E
:104E20003395E0F9F8D0E0FFD0E0FEC3EF9BFFEE52
:104E30009AFEED99FDEC98802D904185E01271531A
:104E4000C083C082127148FB901210E0F40475F028
:104E500004A4FFAEF0EE3395E0FDFCEB2FFFEA3E3D
:104E6000FEE93DFDE83CFCD082D0831224D822909C
:104E7000403F126054EBF09040457401F0C237128D
:104E80005EFF12576A5005E5FC20E6F6125E80BF11
:104E90000108E4F5FC75FC408008125E80BF020248
:104EA000D32212679D904040E0FF126B1C75FF01FA
:104EB00053D5DF53FAFB90403FE0FF125B27904051
:104EC00040E090403FB4080AE051B42452B1CEFC17
:104ED0008004E051B4FFF17F904041E0FF126B7D10
:104EE00075FF0175FF03759B04125EFF75FC42E5BB
:104EF000FC20E10512576A40F3904042E0F075FF54
:104F000003E59B20E70512576A40F3E59B20E70D78
:104F100075FF03759B1F125C86D237804FF1DB1241
:104F20005F59904040E0FD90120FE05D701C904092
:104F30003FE0FFF1DB12697590120FE0FF904040F7
:104F4000E0FEEF4E90120FF0B18912578A7B017A82
:104F5000407943125EB4500FC3904044E0942090D7
:104F60004043E0940340E6F1DB126691F1C4303730
:104F700002C177904045E0B40103D38001C3229081
:104F8000420F1224D875FF0190420FA3E0FDA3A3A6
:104F9000E4FFFEE4FC78101223CC8FE190420FA3D3
:104FA000A3E0FEA3E4FFE4FDFC78081223CC8FE22B
:104FB00090420FA3A3A3E0FF8FE3227F3FFE12578F
:104FC0003F12567D75FF03E59120E7FB22FF9039E4
:104FD000AF0224D8FF9038560224D87B017A40795A
:104FE0004522F1C475FF0122FF9041860224D8FCBE
:104FF000E4FB7A04F9F822AE071247DFEE04FEEF75
:105000008EF084AFF02230180C902B24E07006FF55
:105010001219D5C218301A23AF1F900A29E0FEEFEB
:10502000C39E400AEF9ED394024010C21A22900AF7
:1050300029E0F42FD394014002C21A229005E9E03E
:10504000FCA3E04C700A9005E9EEF0A3EFF0D32248
:10505000C3229005E9E0FEA3E0FF4E6009CAEECA54
:10506000C9EFC91226FD22D2ADD2BD75FF02758EE1
:105070007175700975FF02E58E546F4480F58E904E
:1050800042071224E40000000022C0E0C0F0C08308
:10509000C082C0D075D008C0FF75FF02E58E30E435
:1050A0003C75FF02E58E54EF4410F58E90420712D6
:1050B0002480124DCBFC9042071224D8900000E4CB
:1050C000123FD5E57030E0020551E570700D757046
:1050D00009051FE51F7002051E8002157075FF028D
:1050E000E58530E40875FF024385100572D0FFD0D6
:1050F000D0D082D083D0F0D0E032903F33ECF0A318
:10510000EDF0903F32EFF0FB903F35122480914557
:105110001224D8315A1224D8315AC083C0821224A2
:105120009C900000F1CD122252D082D0831224D85C
:10513000903F39E0FF903F32E0FE51BFEFF0903FEB
:1051400033E0FCA3E0FDEE75F00CA42412F582E43C
:10515000342CF583ECF0A3EDF022EB75F00CA424D5
:105160000AF582E4342CF58322D3900001E0940008
:10517000900000E09400500241AEC2ADE0FFA3E019
:1051800090434ECFF0A3EFF0E4900000F0A3F0D2F4
:10519000ADF57151AFE0FEA3E0FF4E6049C390430F
:1051A0004FE09F90434EE09E402151CDE0B4010F6F
:1051B00051CD7402F0900A19E0FF51AFE480235101
:1051C000CDE4F051AFE4F0A3F0801B51AFC083C039
:1051D00082E0FEA3E0FF716AC3EF9DFFEE9CD082E8
:1051E000D083F0A3EFF00571E571640370A5902CF6
:1051F000B8E0FF601EF4601B7E00716AC39FEC9EE6
:1052000040087A007B007F008004C3EF9DFF902C54
:10521000B8EFF0E4F571E5717173E0607B90434E97
:10522000F1CDE571315B12249CD31223BB50465162
:10523000BDE0FF6008F4600551BDE014F051BDE031
:105240006010E5719146122480E571315B1224D81B
:105250008011E5717173E4F0E571315B1224E400B3
:10526000000000910C4E6008910CAA06F91226FD70
:10527000123ECC8023E571315BC083C08212248052
:10528000C006C00790434E1260D3D007D00612224A
:105290005FD082D0831224D80571E571C3940E507B
:1052A00002411690434EE0FEA3E0FF121B2422E5CC
:1052B0007125E024B2F582E4342CF58322E5717582
:1052C000F00CA42414F582E4342CF5832274072511
:1052D00071F582E4342CF58322900BCCEFF0A3EB34
:1052E000F0900BCCE0240751D1E0FEB402037F0024
:1052F00022EE701E900BCCE0FF240751D17401F018
:10530000900A16E0FCA3E0FDEF51B1ECF0A3EDF044
:10531000802AED241BFFE433FEE4FCFD7B0CFAF94C
:10532000F8122ECBEF2405FF900BCCE051B1E0FC3E
:10533000A3E0C39FEC940050037F0022902CB8E0C0
:10534000B4FF15900BCDE0540FFFBF0103E48004C0
:10535000900A2AE0902CB8F0902CB8E060037F020D
:1053600022902CB874FFF07F012290434EE0FCA302
:10537000E0FD2275F00CA42415F582E4342CF583AD
:105380002290402AEEF0A3126054EBF090402F746C
:10539000FFF090402EE0904030F0904030E0FFC3AE
:1053A000940E5062EF315B122480E4FB12729F7006
:1053B0004D90402EE07E0170027E02904030E0FF72
:1053C0007173EEF0C00790402CE0FF7E0060051284
:1053D00073B180027F0AE4FCFD903F351224D8901F
:1053E000402DE0903F39F090402AE0FCA3E0FDD052
:1053F0000711FA904030E004FF90402FF0229040D7
:1054000030E004F0809490402FE0FF22E57175F0C9
:105410000CA42412F582E4342CF583E0FEA3E022F0
:10542000AB07E4FF1BEBC3940E501991451224E423
:1054300000000000315A1224E400000000EB7173F8
:10544000E4F07F0122EB75F00CA4240EF582E43425
:105450002CF58322AB07E4FA1BEBC3940E500D919D
:10546000451273C06006315A1224D80AAF02229046
:105470003F3AEEF0A3EFF07FFFA312249CE8494AE5
:105480004B6052903F417403F0903F41E0FEC39463
:105490000E5042EE7173E07034903F41E0FF717343
:1054A0007405F0C007903F3C122480903F351224D1
:1054B000D8903F40E0903F39F0903F3AE0FCA3E0C5
:1054C000FDD00711FA903F41E004FF8008903F4172
:1054D000E004F080B422F1DE903D50E0B4020C1202
:1054E00073E0903D507403F0023EE4903D50E06460
:1054F00003706B903D52E06057903D54E0B401055D
:10550000121BFB800A903D54E0B40203121C009071
:105510003D52E014F0E060201247DFEF75F0468462
:10552000E5F075F064A4FFEF24A0FFE5F0340FFE72
:10553000E433FDE433FC8007E47FA07E0FFDFC90A4
:105540003F3C1224D87E547FD6E4903F40F0E1D611
:10555000903D507401F0123EE47FFD021DF9903D34
:1055600050E0B4040F12646BEF6006127122024027
:1055700036121BFB22903A971224D8E4F5FF75BB34
:105580000575BB8575FF0175D502203205124FBB2D
:10559000F18A75FF0143D520303202C13BE4F5FFAB
:1055A000538EF7438E077D04E4F5FF8DBCF5FF4372
:1055B000B102E5B130E2FBE4F5FFAFDFEFFEACDEB8
:1055C000ECFBEBFFED25E02495F582E4343AF5831E
:1055D000D160F5FFF5FF53B1FD0DEDB40CCA903A63
:1055E00097124AC1FF78091223CCA3D160FDED25A3
:1055F000E0249FF582E4343AF583E0C313FAA3E094
:1056000013FBD155F5831260EF2BFFEE3AFED15517
:10561000F583EEF0A3EFF0ED240490120DF0EDC34E
:1056200094075017CFEDCF0DEFD1569119FFC390CE
:105630003A9CE09F903A9BE09E50B3E4F5FF758E54
:10564000C8F5FF90120DE0F5BCE4F5FF75BB807561
:10565000FF01F5D522ED25E0249DF582E4343A22C0
:10566000EEF0A3EFF0E422E4F5FF758EC8F18A7541
:10567000FF0153D5FBF15C7F147E00F13F75FF0302
:1056800043918022C222E4904291F0C223A3F0A36E
:10569000F075FF01E5D520E702C322C239F1A6204B
:1056A0002202E12F53F4DF904291E0FF125B2712B8
:1056B00067A430230543F440800353F4BFE4F5FFAF
:1056C00053F5F0904292E0FAA3E0FBEA42F5EBF5E5
:1056D000F6D239F1A67FC8D179E4F5FFE59320E64B
:1056E00004F16A40F4302355E5F430E3047D28806A
:1056F00010E5F430E2047D288007E5F430E1027D16
:1057000028F15C7F28D179F16A40FC7F78D179F16A
:105710006A502AF16350F8F1C7EFC39D50F1F1636D
:1057200050EDE5F720E5E8C239F1A6F15C80E053E1
:10573000F4BF125FC1400643F42012679DD3227567
:10574000FF03D3EF9402EE9400400874FE2FFF7421
:10575000FF3EFEEFF592EE540FF5912275FF03E444
:10576000F5912275FF01E5E4332275FF03E591C34E
:1057700030E701D322E5F730E50EE5F754C07004B9
:10578000F16A40F1F15CC322D322E4F5FF75C2E176
:105790007F1E125EAC30E707E4F5FF75C2A122E47C
:1057A000F5FF75C28122AFF4EF547FF5F43039056F
:1057B000EF4480F5F475FF01E5D520E702C322E54B
:1057C000F4D330E601C322125F8BAFD922E0FEA3EF
:1057D000E0FFE4FCFD22916F903D55EFF022903DFB
:1057E00055E0FF9120E4903D55F0228154F0A3EF65
:1057F000F07E1C7FC8E4FB7D01E490402EF0025354
:1058000081E0FEA3E0FFA3E0FDA3E0FB80EB90407E
:1058100034ECF0A3EDF09040311225901138904017
:10582000341101904031123F8B1244C5B4FF04E49F
:105830001220591244C5FF2290428B1225909042AB
:105840008B1244C8FF12542090428B122570E40240
:1058500020597E1E7F5D7B017D0A90402E7403F0EF
:1058600002538190434CECF0A3EDF090434BEFF0EA
:1058700031D1FFD246121E3590434BE0FFE4FD11BB
:10588000AF90434BE0FF31C4A3E0FEA3E0FF9043A1
:105890004BE03144EEF0A3EFF0205811D2587E597E
:1058A0007F527BFF7D01115ABFFF02C322D322EF3B
:1058B0007011ED600775FF0143AE012275FF0153C2
:1058C000AEFE22EFB40114901248EDF0600775FFB0
:1058D0000143AE022275FF0153AEFD229042031236
:1058E0002590904202EFF0C25731D1FF7B017A42FE
:1058F0007906121E304003A257223131E0FE904259
:1059000006E0FDEE6D7027EF3136E0904203123F66
:105910008A3131E07008EF31367401F0800890422E
:1059200002E03136E4F03131E0FD11AFD257A25739
:1059300022904202E0FF75F006A424C7F582E43409
:105940003DF5832275F006A424C5F582E4343DF5C7
:105950008322E490438AF090438AE0FFC39402508C
:1059600054EF31B6E06401704490438AE031B6E40C
:10597000F07B017A43798B11DC501B90438AE0FE67
:105980003144E0FCA3E04C600D90438BE0FFEE312E
:105990004431E112270190438AE0FF75F006A42408
:1059A000C4F582E4343DF5837401F031C490438A38
:1059B000E004F080A22275F006A424C3F582E4344A
:1059C0003DF58322EF146006047005D2A822D2AA06
:1059D0002275F006A424C2F582E4343DF583E0226A
:1059E000FFE0FCA3E0FDF5828C83220254201FEF30
:1059F000C3940E5009EF12515B1224808005E4FF1E
:105A0000FEFDFC22E4FEEFC3940E5013EF1253731D
:105A1000E05D7C00B505027C01EC2EFE0F80E7AF57
:105A200006227D02E4FF80DC7D017F035104AB0789
:105A30005122EF2BFF22E4FD7F0380C8A2AD922A02
:105A4000C2ADAF1FAE1EA22A92AD22AD07AC065169
:105A50003CC3EF9DEE9C4008EF9DFFEE9CFE801343
:105A6000EDF4FDECF4FCED2401FDE43CFCED2FFF36
:105A7000EC3EFE229005EEE0FEA3E0FF514BD3EF9B
:105A800094C8EE940022519E5004F10D4003301A48
:105A900003D38001C322C2EBA2ED9219C2EDE5F45B
:105AA000C330E701D322900B40F12BE513707751FF
:105AB000965005C238124730900B40E0FEA3E08EAE
:105AC00011F512A3122570900A04122590AE11AFA1
:105AD000127DAA91B2E4F5FF75D901F510E51454D1
:105AE00021602BE51430E504E4FF7127E4900B45B9
:105AF000F0900B45E004F01266E9EF6009900B4569
:105B0000E0C3941040EB7F02121DDB5314DEF1C999
:105B10005005E004FF80027F0091A3D23812473085
:105B2000D2EBA21992ED2275FF01E5D530E602C352
:105B300022E4F5FF439A80EFF135E4F5FF539A7FB5
:105B4000D322900BC8EFF0C2391257A6D222900B85
:105B5000C8E0904291F0D223A3E4F0A37434F01291
:105B60005691E4900BC9F0519E504F900BC9E070D4
:105B700049E5F754C060F071D171D1900BC9EFF0D5
:105B80006455702271D1900BC9F1146F600E900BA7
:105B9000C9E0B4FF0F901215E030E116900BC97404
:105BA00002F080C3800C900BC9E0B454057433F04C
:105BB00080B5900BC97401F080AD900BC9E0B402C0
:105BC00007C2381247308000125684900BC9E0FF9C
:105BD00022E5F720E008E5F754C070F5FF2243F70F
:105BE00001AFF92212636F7F02121DDBE4900BCA32
:105BF000F0A3F0900BCBE0FFC394035038714290B8
:105C00000BCAEFF0BF02028014900BCAE0B4331845
:105C1000E4F0A3E0FF7142BF0213900BCA7401F0DD
:105C2000A3E0901221F0800DE4900BCAF0900BCB12
:105C3000E004F080BE900BCAE0700D519E5005C28A
:105C40003812473091578008901221E0FF1219A8AE
:105C5000900BCAE024FF2291867F08021DDBE5132A
:105C6000702251965005C238124730915712478121
:105C7000E5D120E0FB4314205314FEE4F510A219F3
:105C800092EDD322C322E5FA30E1FB75FC8075FF6B
:105C90000153D5EFE4F5FC75FC4012575CE5FC20A0
:105CA000E6FB22712743FA04E4F5FF53D1FD43D10B
:105CB0000122E4F5FF75D102E5D120E0FBE4F5D146
:105CC000F5FFEFF146EE540F42D6E4F5FFCFEDCFEE
:105CD0008FD4224314015314DF900BA7E0FDB11EB3
:105CE000900BA7E0FD1261AB4004E4F5132243FAE8
:105CF000045314FB302B0491A8800A7F55B1077F11
:105D000055B107D2EBD32275FF01E5D520E602C3DA
:105D100022E5FA540360FA75FF018FC3D322EF30F6
:105D2000E30D74072DF582E4340AF583E0FF227455
:105D30001A2DF13DFD201B04EE30E00BE516C39457
:105D4000F05020B1778018E5186006FDE4F5188062
:105D500012E516C394F0500BE516540FFF6004B122
:105D600066AD07AF0522F1AEFFC3940E40027F0D72
:105D7000EF9030C593FF22900A03E0FDFFC3740E3D
:105D80009FFFE49400FEEFC4F8540FC868FFEEC410
:105D900054F048FEE51654F0F1A47F005002AF0520
:105DA00022E0FF7B0190421BEFF0A3F123F075FF8F
:105DB00001D17A6002C322E5F430E602C3227FE813
:105DC0007E0312573F12567D125775400122C2388A
:105DD00012473090421BE0FF712753F4DFD2381294
:105DE00047307F787E00D12B75FF0153E4BFE5E497
:105DF00030E7FBF18B7F8AD1AC30E60790421CF193
:105E00004F801075FF0190421CE0FBA3E0FAA3E075
