:020000040000FA
:100000000202DF0218034100B8002202180B22226C
:0100100022CD
:07001300021813E4FFE1BC39
:07001B0002181B75C8012249
:030023000218239D
:03002B0002182B8D
:030033000218337D
:03003B0002183B6D
:030043000218435D
:03004B0002184B4D
:030053000218533D
:03005B0002185B2D
:030063000218631D
:03006B0002186B0D
:10007300021873BB010689828A83E0225002E722B9
:10008300BBFE02E32289828A83E49322BB010CE54F
:100093008229F582E5833AF583E0225006E9258239
:1000A300F8E622BBFE06E92582F8E222E58229F57D
:1000B30082E5833AF583E49322BB010689828A832E
:1000C300F0225002F722BBFE01F322F8BB010DE53B
:1000D3008229F582E5833AF583E8F0225006E92583
:1000E30082C8F622BBFE05E92582C8F222C5F0F8D4
:1000F300A3E028F0C5F0F8E582158270021583E0CD
:1001030038F022A3F8E0C5F025F0F0E582158270FF
:10011300021583E0C838F0E822EF2BFFEE3AFEED3C
:1001230039FDEC38FC2275F008758200EF2FFFEEE5
:1001330033FECD33CDCC33CCC58233C5829BED9A10
:10014300EC99E58298400CF582EE9BFEED9AFDEC6E
:1001530099FC0FD5F0D6E4CEFBE4CDFAE4CCF9A8B4
:100163008222B800C1B90059BA002DEC8BF084CFBC
:10017300CECDFCE5F0CBF97818EF2FFFEE33FEED93
:1001830033FDEC33FCEB33FB10D703994004EB99BD
:10019300FB0FD8E5E4F9FA227818EF2FFFEE33FED0
:1001A300ED33FDEC33FCC933C910D7059BE99A4005
:1001B30007EC9BFCE99AF90FD8E0E4C9FAE4CCFB1D
:1001C3002275F010EF2FFFEE33FEED33FDCC33CC71
:1001D300C833C810D7079BEC9AE899400AED9BFDFA
:1001E300EC9AFCE899F80FD5F0DAE4CDFBE4CCFA0D
:1001F300E4C8F922EF5BFFEE5AFEED59FDEC58FC23
:1002030022EB9FF5F0EA9E42F0E99D42F0E89C451F
:10021300F022E8600FECC313FCED13FDEE13FEEFC9
:1002230013FFD8F122E8600FEFC333FFEE33FEED87
:1002330033FDEC33FCD8F122E0FCA3E0FDA3E0FEA8
:10024300A3E0FF22E0F8A3E0F9A3E0FAA3E0FB2296
:10025300ECF0A3EDF0A3EEF0A3EFF022A8828583E8
:10026300F0D083D082120276120276120276120244
:1002730076E473E493A3C583C5F0C583C8C582C878
:10028300F0A3C583C5F0C583C8C582C822E0FBA31C
:10029300E0FAA3E0F922F8E0FBA3A3E0F925F0F0EC
:1002A300E582158270021583E0FA38F022EBF0A3A1
:1002B300EAF0A3E9F022D083D082F8E493701274B9
:1002C3000193700DA3A393F8740193F5828883E4DB
:1002D300737402936860EFA3A3A380DF75812F0279
:1002E300094A9000E551B0AE071FEE60129000E896
:1002F30071031176FE9000E57103EE11BC80E822D4
:10030300E475F0018090900A12EEF0A3EFF09000F4
:100313004FE064016002619CC3900A12E0940850AC
:100323000BE4FF9153900A12918780ECE4F50DFBE7
:1003330071C5AF0C12103DE50DC39408504771C34E
:10034300E50D7F0071BDEF29F9EA3EFA9000E8510F
:10035300B07B017A0979007FFF51E5E50DFEE424C6
:10036300FFFFE43E71BD8F828E83118F9009FFF0F2
:100373007B017A0979009000FBE50DF0AD0C1210BA
:1003830063050D80B2900050513BE42FFFEE34081B
:10039300120D139000500214BC900054E0FEA3E031
:1003A300FF71BE900A12E0FDA3E09000D1CD1208C8
:1003B300D4900054EEF0A3EFF022FE902001419080
:1003C3007B007A00791012103675FF031176F5D38E
:1003D30075FF0390000171F190000271F190000329
:1003E30071F175D40175FF03E5D55402FF22118F16
:1003F300F5D375FF03229000F1E0FEA3E0FF9130F7
:1004030091539000F3513BEF2401120D109000F330
:100413005153900A18914D900A18E07002A3E070AE
:100423000BFF7E087109120F4212142822B108CD66
:1004330024FFCD34FFFCC3ED9FFFEC9E541FFE74DD
:10044300082F121416FF229000DF74FFF5F001F05D
:10045300B108541FFC74082DF58274203CF583EF1A
:10046300F0902006E0B42019A3E0B4001490200516
:10047300E02401FF902004E03400541FF0A3EFF0C8
:1004830022902006E475F00101F09000BA515390D8
:1004930000BE51B0110AF11EEF6004110F80F71274
:1004A3000F0560099000BA513B7810D1249000BA2F
:1004B300D1209000BA513BE480219000C11208C7BB
:1004C30045F0601B9000BE5190E94A600C1176FF25
:1004D300D1279000BF918780E1E4FFD12780DBF132
:1004E300B79000AF7401F0229000E3E0FF81039026
:0704F3000A1BE014F0E022F7
:10050800902006E0FCA3E0FD902005E02DFD902062
:1005180004E03C22D1C8EF541FFF12148DA37401CC
:10052800F0120F4C9000DCE0FCA3E0FDAE0478056F
:10053800CEC313CE13D8F9FF9000DFEEF0A3EFF08F
:10054800ED541FA3F0A3E4F09000F1F0A3F0C390E2
:1005580000DDE094209000DCE09400407D914A901A
:1005680000E1E0FEA3E0FF9000F1EE8FF011F090C3
:1005780000DFE07004A3E06406700AD1C89000DFD1
:10058800E48FF011F0D1C89000F1E48FF011F0126F
:100598000FFCEF600512148A8005E49000DEF090ED
:1005A80000F1121371701D91309000E3EFF0910388
:1005B80091EB91EB9000DFE07002A3E0604891EBD3
:1005C800914A80F071F971F971F99000DFE07002D9
:1005D800A3E0603271F9914A80F09000DC91878045
:1005E8000A9000DCE07002A3E0600BD1C891039090
:1005F80000DC914D80EB120FFCEF600512148A802D
:1006080005E49000DEF09000DEE06002A12C1214F8
:10061800AB71099000F3413B513B78085115E4E573
:10062800C820E2FB8FEB227F01F1BC900A1C740109
:10063800F0900A1CE06032120FF4D1BC900A1CEF53
:10064800F0120849D1AB9000ACEFF0120849900ABB
:100658001CE054011213BB60D8A3E0F460D3EF3060
:10066800E7CFE4900A1CF080C8F1E87F9FD127D13A
:10067800BC9000ADD1BA9000B2D1BA9000B3F1B538
:100688009000ABE0F4601BA3E0F460169000B2E0C9
:10069800FD541F240FA3F0EDC413540744809000A9
:1006A800B2F022F1E87FD7D1277FFFD127D1C090C0
:1006B80000ABEFF07FFFD127E5C820E2FBAFEB22CC
:1006C800900081E0B4082CA3E0B40027120F2E7B21
:1006D800017A0179009000CA120F45F161120F2EBC
:1006E800E42FFFEE3408120D13120F28E490008156
:0806F800F0A3F0900083120F43
:10070000DB9000835153900081E475F0013106FEC7
:10071000740025F0F58274013EF583E0FF227F012D
:10072000F1BC300216120FF4D1BC900A1DEFF0128A
:100730000849900A1DE020E002C202300219D1AB44
:100740009000ACEF1213BB600BA3E0F46006EF3037
:10075000E702C202120849E4FFF1BCA202E433FF3F
:10076000229000C351539000C751B0110AF11EEFFF
:100770006004110F80F7F1E47F03120F1E600990EF
:1007800000C3513B7810D1249000C3D1209000C306
:10079000120F349000CA1208C745F06011D1BC9006
:1007A00000C75190EF11BC9000C8918780E51208F6
:1007B00049E4FF8007EFF0120849E4FFEFB40104B9
:1007C00043FE202253FEDF229000ABE020E014F134
:1007D000E47F3DD1277F2AD1277F80D1277FA6D1F3
:1007E00027F1B7227F01F1BC9000B0E051B9080AAF
:1007F00004081214081715081C17082C3008313487
:10080000083636083B3700000824531AEF851A8053
:10081000802F531BEF8008531BDF8003531B7F8502
:100820001B90801D531CDF851CA08015531DFE806E
:100830000D531DEF8008531DBF8003531D7F851D81
:10084000B07F0CDFFE2212062712149FEF70FA9081
:1008500000B2E0F4600B900A1B7406F01204F27010
:10086000FB9000B0E01202B9088404088C140891CF
:100870001508961708A63008AB3408B03608B53707
:100880000000089E431A10851A80802F431B108099
:1008900008431B208003431B80851B90801D431C45
:1008A00020851CA08015431D01800D431D1080086C
:1008B000431D408003431D80851DB0900A1B740CAE
:1008C000F01204F270FB2274FFF5F0020106E0FD65
:1008D0009000D1E4F0A3EDF09000CCEEF0A3EFF0A7
:1008E000A31202B09000D111C745F060549000CE21
:1008F0001202901200769000D3F09000CF1204877D
:100900007D80ED60DF3141EE7C0030E7027C0190BC
:1009100000D3E05D7B0060027B01EB6CFCEF25E027
:10092000FFEE339000CCF0A3EFF0AF04EF600C903B
:1009300000CCE06410F0A3E06421F0EDC313FD806F
:10094000C19000CCE0FEA3E0FF2275FF03759E027C
:100950009017FAE493900A0FF075FF02E5E654034E
:100960006002618B7510DE7511AD7512BE7513EFE7
:10097000C2AF75FF0275E404F5E4751AFF751BFF3D
:10098000751CFF751DFF7516FF7517FF7518FF7530
:1009900019FF75FF0253E6BFD11A1210DAB11BEF2F
:1009A00064016002618290180893FE740193FF90C5
:1009B000007FEEF0A3EFF0F5828E83E493FE7401E6
:1009C00093FFC3EE9480500280047E807F008E14DB
:1009D0008F15B1F7FFF5828E83740293F51E7403B1
:1009E00093F51F740493F508740593F50974069341
:1009F000F50A740793F50BC201EF4E700241E4EF64
:100A0000F4FFEEF44F700241E4E514451EFEE515D7
:100A1000451FFFE5084EFEE5094FFFE50A4EFEE5DE
:100A20000B4F4E700241E4E51FF4FFE51EF4FEE5B6
:100A300015F4FDE514F44EFEED4FFFE509F4FDE578
:100A400008F44EFEEF4DFFE50BF4FDE50AF44EFE13
:100A5000EF4D4E700241E47F03718EE50B24FFFFE2
:100A6000E50A71BC640370227F02718EE50924FFE0
:100A7000FFE50871BCB402127F01718EE51F24FFEF
:100A8000FFE51E71BCB40102D2012001577F017144
:100A90008E71B59000D1E51EF0E51FF13B71A07F8E
:100AA0000271AB9000D1E508F0E509719E7F0371FA
:100AB000AB9000D1E50AF0E50B719E7F01718E903D
:100AC0000A10E0FEA3E0FF7BFF7A187900E4251509
:100AD0009000D2F0E51434E89000D1719F4EC370BD
:100AE00001D39201300109F1ACEF6401600261822F
:100AF000D20091FB7B017A007964B1D8741BF012AB
:100B00000761900064E0B4800B9153EF70061214FB
:100B100046EF6002C20030006530011AB1F7F5827D
:100B20008E83740C93FE740D93FF90007DE06E70C5
:100B300003A3E06F604890005012025F00001800AD
:100B400091FBF128F12EEF2401B110B1D27404F021
:100B5000120761900087B10A9000871214BC9000C0
:100B600081F14590004F04F012051C7440D3950CA0
:100B7000400C1203C3AF0C12103D050C80EDE4FFD6
:100B8000F186E4F510F511F512F513021800AEFF29
:100B9000EE54CFFEEFC454F024804EF5FF22A3F0B4
:100BA00011D8900A10EEF0A3EFF022718E900A1087
:100BB000E0FEA3E0FF7BFF7A80790022347F8F8202
:100BC000F583E49322900000EEF0A3EFF0A312026D
:100BD0003B900008120253900006E0FFA3E0900053
:100BE0000CCF806090000C121371605EC3EF9440D4
:100BF000EE94004006A37440F0800590000EEFF0E4
:100C0000B1FFE0FFB1D8EFF090000812023B1207ED
:100C10006190000EE0FFC390000DE09FF090000C8B
:100C2000E09400F090000812024790000EE4FCFDF2
:100C3000FE12011C900008120253914AB1FF11CE1E
:100C4000900000EEF0A3EFF0809A900000E0FEA389
:100C5000E0FF2291FBB101900006E4F07405F13B46
:100C600091F0C006C00791FBEF2407B110B10190CD
:100C70000006E4F0A37414F0D007D00691F0C0068B
:100C8000C007B107B101D10940067EFF7FFF800692
:100C900090006512023B900006EEF0A3EFF0D00743
:100CA000D00691F0D109402F91FBEF241AFFE43ECA
:100CB000FEED3401FDE43CFCB10190006512023B05
:100CC000EF2401FFE43E900006F0A3EFF0900A1637
:100CD000E0FEA3E0FF91F0900069E0FEA3E0FF904A
:100CE0000A16E06E7003A3E06F7F0060027FFF22B0
:100CF00071C5900A16EEF0A3EFF0229000A6020252
:100D00003B9000020202539000A612023BEF241B0C
:100D1000FFE43EFEE43DFDE43CFC22E49000AAF04A
:100D20007B017A007995121378900097E0FF741197
:100D3000D39F5077E4FFFEFDFC7B017A0079FE90A3
:100D400000CAF0A37402F01207619000FEE0FEA357
:100D5000E0FFE4FCFDB1CC91FBEF2402B110B1CC7B
:100D60009000B5E024FFFF9000B4E034FFFEE4FC07
:100D7000FD9000A61202471201F79000FCEEF0A3CE
:100D8000EFF09000A61202479000FCE0FEA3E0FF07
:100D9000C39000B5E09FFF9000B4E09EFEE4FCFD30
:100DA00012011CB1CC9000AA7401F09000AAE0FBE3
:100DB0006017E4FFFE7D02FC900097E024EFF9F855
:100DC00012022890008F120253AF03229000A60255
:100DD00002537B017A0079839000CAE4F0A3229148
:100DE000FBEF2401B110B1D27404F0120761B10716
:100DF000F128900081E14590007FE0FEA3E0227B96
:100E0000017A00790F90000E22E47FFF7EFFFDFC47
:100E1000900065120247D3020204E4900A1EF0908B
:100E20000A1EE0FFD3946F501EEF2410FFF198903C
:100E30000A1EE0FEE42EF582E4344FF583EFF090D5
:100E40000A1EE004F080D87B017A4F79009000D12F
:100E5000E4F0A37470F07F0F7E1D11D8EF4E7F0079
:100E600070027F01901218EFF024FF22900A09EB24
:100E7000F0900A05120253900A0512023BD1C3906A
:100E80000A09E06F603B12000A12071EEF600512AC
:100E9000000F80F5F105600B900A0512023B7810F7
:100EA000120624900A05120620900A05F134900AD1
:100EB00009E0FF1206271207B79000AF7401F0D3C4
:100EC00022C322900A0012025312000A12071EEFD8
:100ED000600512000F80F51207E47F03F11E600B1E
:100EE000900A0012023B7810120624900A001206A3
:100EF00020900A00F1341206BC900A041207B59043
:100F00000A04E0FF227F011207BCD2021207E87F29
:100F10000612062711491207E89000AEE0FF1206FC
:100F2000279000B1E06402229000870202539000F3
:100F30008702023B12023BE4020627A3F07F0F7EEA
:100F40001D22900A187408F0A3E4F022F1429000E8
:100F5000F312025F00000000E4902004F0A3F0A36D
:100F6000F0A3F07B017A2079089020011202B0E40E
:100F7000902000F0227F0F7E1D11D09000D8120229
:100F8000909000DB01CEAB07E4FF9000AAE0600781
:100F9000F1D8D16CE433FF2275FF03E4F59712100A
:100FA00021E59720E1FB75FF03AF9922E4900A1A2F
:100FB000F09000AAE0601B90008F12023BE4FBFA65
:100FC0007902F8D31202045009F1D8D1C3900A1A59
:100FD000EFF0900A1AE0FF229000A612023BEF24E5
:100FE000FFFFEE34FFFEED34FFFDEC34FFFC22E4A6
:100FF000FCFDC1C31207E87F05020627E4FFFEFDE2
:10100000FC900083120E137F0040027F012275FFC7
:10101000037597011121E59720E1FB75FF03AF9957
:101020002275FF038F9875FF0322113675FF03E5C4
:10103000D5F45402FF2275FF0375D4022275FF0315
:10104000EF543F4480F5D1E5D520E20AE5D520E014
:1010500005E5D530E1F1E5D55403FF75FF0375D5FE
:101060000580D375FF03ACD5EC20E13C75FF03EDA3
:10107000543FF5D175FF03E9F5D375FF03EA540F2B
:10108000FF9000FBE0C4547044804FF5D2E5D520BA
:10109000E205E5D530E0F6E5D55401FC75FF0343E4
:1010A000D40275FF0375D505AF042212000A12079A
:1010B0001EEF600512000F80F57F011207BCD202FF
:1010C0001207E87F061208461207E87F011206277A
:1010D0007F03120846E4FF0207BC7B017A0079B067
:1010E0007F0351E47A0079B97F0851E47A0079B638
:1010F0007D027F0951847B017A0079B47D027F0BE8
:1011000051849000B471716006BEFF16BFFF135189
:10111000F35002800451FC80099000B4E4F0A37401
:1011200040F051F3500280089000B17403F0800643
:101130009000B17402F09000B0E01202B9115904AD
:10114000116414116C15117417118A301192341135
:101150009A3611A2370000117F75FF015316EF85F3
:1011600016FD804775FF015317EF800E75FF015381
:1011700017DF800675FF0153177F8517C9802C750F
:10118000FF015318DF8518CA802175FF015319FE2E
:10119000801675FF015319EF800E75FF015319BFBB
:1011A000800675FF0153197F8519CB1208497F11FD
:1011B00051DEE4FF710612062F9000AE7402F0902B
:1011C00000B2E0247F600904701651EB740A8007B6
:1011D0001207C851EB7458F09000B17403F051FC41
:1011E0009000B3E0F4600241829000B6E0FEA3E01C
:1011F000FF64104E70069000B3740EF0EF64204E42
:1012000070069000B3740FF0EF64404E70069000CB
:10121000B37410F0EF64804E70069000B37411F058
:10122000E4B5070AEEB401069000B37412F0E4B519
:10123000070AEEB402069000B37413F0E4B5070A8F
:10124000EEB404069000B37414F0E4B5070AEEB4EB
:1012500008069000B37415F0E4B5070AEEB4100662
:101260009000B37416F0E4B5070AEEB420069000BF
:10127000B37417F0E4B5070AEEB440069000B374F7
:1012800018F001AB900A0AEFF0A3EDF0A31202B040
:10129000900A0BE06047901218E06013900A0AE091
:1012A0002410FF120F98900A0C120290EF801790F2
:1012B0000A0AE06401900A0C7007120290748080A0
:1012C0000512029074FF1200BC900A0D1204879060
:1012D0000A0BE014F0900A0AE004F080B322EF4415
:1012E00020F5FE227D0151847B01227F1051DE908A
:1012F00000AE229000B9E024FE24FD229000B474D8
:1013000001F0A3E4F022900A14EFF0E4A3F09000BF
:10131000B9E0FFB40209740F716974B9F0800CEF81
:1013200064047044743D71697479F01207E4900AA2
:1013300014E060079000B8E0FF80027FAB12062740
:10134000120849900A14E09000B8F07016900A153F
:10135000E0D39400400D7FFF120627900A15E01499
:10136000F080EAE4FF1207BC22900A15F09000B862
:1013700022E0FEA3E0FF4E229000ADE01200BC9000
:1013800000B2E09000011200CE9000B3E0900002A5
:101390000200CEAB05E4FCFD020E6C9000ED1202E3
:1013A000B0E4FCFDC0079000ED1202909000F0E068
:1013B000FF120DD8EFF0D007020761F09000ABE00C
:1013C000FFF42212000A12071EEF600512000F80C0
:1013D000F5229000AFE0FF22E49000AFF0229012DF
:1013E00018E024FF22901218E060057F10020F9889
:1013F0007FFF22902004E0FEA3E0FF24089116FD69
:10140000EF2401FFE43E541F902004F0A3EFF0A36B
:1014100012044DAF0522F58274203EF583E0229040
:101420002006E0FEA3E0FF22902000E0045403F039
:101430007F0033333354F8FEEF2408F974203EFA6A
:101440007B01A30202B0900054741DF0A3740FF04E
:10145000120DDFE490004FF012051C90006BE0FECF
:10146000A3E0FF900054E06E7003A3E06F7F006084
:10147000027FFF22EFB40109D2AD75FF0143AE40F8
:1014800022C2AD75FF0153AEBF221206C89000DC28
:10149000E4F0A3EFF022E5C85402FF75C80222E58C
:1014A000C85404FF22E5C85401FF22900A18E0FE48
:1014B000A3E0FFC3E49FFF74089EFE22120253E4E0
:1014C000FB7A08F9F890005012023B1201658F0C6C
:0114D00022F9
:1017FA00060AFFFCFFFF02184E026FC719C17FB825
:10180A00822D1C161311101001026FEBEF90181F96
:10181A0093901900730A20364CE575FF22EFF5758F
:10182A002202519B41707045765363686564756CFA
:10183A0065720089841E491958195D197B19801926
:10184A0085023BA675819F75FF03759E02121920BA
:10185A00023299022F539029E9E47E019360F4A39E
:10186A00FF543F30E509541FFEE493A360010ECFF5
:10187A0054E0B4E00EEFFAEEF9A3A3A3A3DAFDD97C
:10188A00FB80D654C025E0604B5026E493A3F8545D
:10189A0007240CC8C333C4540F4420C8834004F43B
:1018AA0056800146F6DFE480B001020408102040A9
:1018BA0080E493A3FAE493A3F8E493A3C8C582C887
:1018CA00CAC583CAF0A3C8C582C8CAC583CADFE924
:1018DA00DEE78085E493A3F8E493A34003F680014E
:1018EA00F208DFF40218635A2D5761766520362E06
:1018FA00313000FF0201C0757419C0E0C082C08394
:10190A0075750AE5FF54CF4490F5FF22C075741926
:10191A00C0E0C082C083757520E5FF54CF4490F5BE
:10192A00FF22C0757419C0E0C082C083757536E5A0
:10193A00FF54CF44A0F5FF22C0757419C0E0C082DD
:10194A00C08375754CE5FF54CF44B0F5FF229081F2
:10195A00AA21169081BE211690981D211690B014C6
:10196A00211690B04E211690BDFF211690840921B0
:10197A001690CFF6211690D00E21169095AB21160F
:10198A0090D7FA2116909CEE211690E7E321169043
:10199A00A6372116909E70211690EEC4211690EE5D
:1019AA00E0211690EEE6211690EF19211690837E1B
:1019BA00211690EFE7211690EFEA211690F1EB211C
:1019CA001690A7B0211690AC2F211690CF6321163E
:1019DA0090F23A211690E4D8211690F183211690BC
:1019EA00E796211690F253211690E7D1211690EC32
:1019FA009F211690D167211690C126211690E94C95
:101A0A00211690C2F2211690C67E211690D0D321BB
:101A1A001690E975211690A8B7211690B2E2211600
:101A2A0090E9CE211690F1B8211690F31C21169058
:101A3A00F361211690F395211690F3E0211690F5A3
:101A4A0003211690F427211690F52A2116909BFF60
:101A5A00211690EA2221169081F3211690F5892108
:101A6A001690F5BD211690F5E7211690BFCA2116EA
:101A7A0090C60D211690F620211690F65C2116903C
:101A8A00F64B211690C704211690C5E8211690DE60
:101A9A0053211690C621211690F698211690F675B4
:101AAA00211690F666211690F6B4211690F64A2170
:101ABA001690F662211690F7D4211690F626211672
:101ACA0090F6B3211690F770211690F825211690FA
:101ADA00F82D211690EF77211690F762211690E2E1
:101AEA009D211690DFAD211690DD08211690F86130
:101AFA00211690F8D0211690F893211690DE6321D2
:101B0A001690FA6D211690DEAF211690B3BF2116FA
:101B1A0090B342211690D845211690EA6321169077
:101B2A00EA50211690C51A211690A6DB211690DAE2
:101B3A00A2211690D92F211690D6C6211690E4F725
:101B4A00211690FBB8211690FC40211690FBF62135
:101B5A001690D660211690FCA2211690E6942116C2
:101B6A0090809721169080FB211690800021169074
:101B7A00815F211690C08521429081C8214290C17F
:101B8A0005214290AA2F214290AA08214290C19190
:101B9A00214290A0D7214290B931214290A47521C7
:101BAA004290809F2142909223214290C4DF214299
:101BBA0090C560214290C71B214290C7DB21429009
:101BCA00AAA42142909FF4214290CCF32142908E04
:101BDA007B214290C72B214290865C214290CF699B
:101BEA00214290CD16214290C57B214290CF792186
:061BFA004290CFEE2142F3
:101C000090CFC3214290D061214290D07821429060
:101C1000D0AB214290D11B214290D1DD214290D204
:101C2000CF214290AA07214290D49D214290D8FA18
:101C3000214290B750214290D936214290D9852136
:101C40004290B7A7214290800021429080C9214252
:101C500090D98C214290DA28214290DA4121429099
:101C6000DB392142909BC4214290C2CA214290DBC1
:101C700059214290DB8C214290DBDB214290DCA396
:101C8000214290DE15214290DDBE214290A4C62162
:101C90004290DBFD214290C306214290A19821424F
:101CA00090C6432142908655214290DE5C214290AD
:101CB000DD84214290A963214290E1B6214290E166
:101CC000BE214290BFE4214290BD5A214290DF6B79
:101CD000214290CE1F214290A0DE214290C00B21D4
:101CE0004290C27E2142908365214290B5CF21422D
:101CF000908282214290E399214290E3A121429077
:101D0000E3B7214290B748214290AA7D214290E456
:101D1000DA214290E4F6214290B62E214290827C54
:101D2000214290C706214290C5C0214290B6312180
:101D30004290C6FA214290B637214290C0772142A4
:101D400090E566214290C525214290C2A62142908D
:101D5000E68A214290DBA92142908227214290C548
:101D6000F2214290EB54214290EB9F214290BDAA78
:101D7000214290EBCA214290861C214290EC4D21D9
:101D80004290E3E3214290E316214290EC5E21422F
:101D900090E25C214290D4B6214290D7BA21429081
:101DA000EC782142909C20214290D4752142909061
:101DB000E32142909162214290901521429082202D
:101DC000214290E019214290A8EF21429081F9210F
:101DD0004290A935214290A903214290847021426A
:101DE00090A0FA212C90A0FB212C908AB4212C9059
:101DF000A2BB212C90A2BC212C908000212C908889
:101E0000E7212C90A98B212C90A998212C90A99D99
:101E1000212C90A3D5212C9090ED212C9090F02195
:101E20002C90AEB0212C90AF00212C90B0BC212C76
:101E300090B223212C90B26B212C90B293212C9044
:101E4000A28E212C90898F212C90C8C8212C90CD56
:101E500015212C90CE8C212C90907D212C90BE535E
:101E6000212C90CFFA212C90D136212C90D18C218D
:101E70002C90D320212C90D334212C90C4BF212C22
:101E800090C4C3212C90CFD7212C90D3ED212C903E
:101E9000D449212C90C4D5212C90D107212C90D548
:101EA000F5212C908A39212C90909E212C909182A2
:101EB000212C00E709F608DFFA8046E709F208DF7F
:101EC000FA803E88828C83E709F0A3DFFA8032E350
:101ED00009F608DFFA8078E309F208DFFA807088F3
:101EE000828C83E309F0A3DFFA806489828A83E02D
:101EF000A3F608DFFA805889828A83E0A3F208DF1C
:101F0000FA804C80D280FA80C680D4806980F280CA
:101F100033801080A680EA809A80A880DA80E280F0
:101F2000CA803389828A83ECFAE493A3C8C582C845
:101F3000CCC583CCF0A3C8C582C8CCC583CCDFE9AF
:101F4000DEE7800D89828A83E493A3F608DFF9EC4B
:101F5000FAA9F0EDFB2289828A83ECFAE0A3C8C5D6
:101F600082C8CCC583CCF0A3C8C582C8CCC583CCFD
:101F7000DFEADEE880DB89828A83E493A3F208DF6C
:101F8000F980CC88F0EF60010E4E60C388F0ED243C
:101F900002B4040050B9F582EB2402B4040050AF3F
:101FA0002323458223901F0373BB010689828A8302
:101FB000E0225002E722BBFE02E32289828A83E408
:101FC0009322BB010B89828A83F8E0C828F0E822BB
:101FD000500327C722BBFE07F8E3C828F3E8228A8C
:101FE000838982E49322BB010CE58229F582E58393
:101FF0003AF583E0225006E92582F8E622BBFE0688
:10200000E92582F8E222E58229F582E5833AF58323
:10201000E49322BB010989828A83F8E028F02250E8
:102020000327F722BBFE05F8E328F3228A8389827F
:10203000F8E4932822BB010FF8E58229F582E583B5
:102040003AF583E028F0225009C58229F8E5822676
:10205000F622BBFE09C58229F8E22582F222F8EABF
:102060002583F583E9932822BB010689828A83F0C0
:10207000225002F722BBFE01F322F8BB010DE582DC
:1020800029F582E5833AF583E8F0225006E92582B6
:10209000C8F622BBFE05E92582C8F222EF8DF0A426
:1020A000A8F0CF8CF0A428CE8DF0A42EFE22BC0088
:1020B0000BBE0029EF8DF084FFADF022E4CCF87563
:1020C000F008EF2FFFEE33FEEC33FCEE9DEC984072
:1020D00005FCEE9DFE0FD5F0E9E4CEFD22EDF8F50E
:1020E000F0EE8420D21CFEADF075F008EF2FFFED6E
:1020F00033FD4007985006D5F0F222C398FD0FD566
:10210000F0EA22C2D5EC30E709B2D5E4C39DFDE484
:102110009CFCEE30E715B2D5E4C39FFFE49EFE12AF
:1021200020AEC3E49DFDE49CFC80031220AE30D5BC
:1021300007C3E49FFFE49EFE22C5F0F8A3E028F069
:10214000C5F0F8E582158270021583E038F022A30D
:10215000F8E0C5F025F0F0E582158270021583E005
:10216000C838F0E822BB010A89828A83E0F5F0A32F
:10217000E022500687F009E71922BBFE07E3F5F0DD
:1021800009E3192289828A83E493F5F0740193228A
:10219000BB0110E58229F582E5833AF583E0F5F08D
:1021A000A3E0225009E92582F886F008E622BBFE6A
:1021B0000AE92582F8E2F5F008E222E5832AF583B0
:1021C000E993F5F0A3E99322BB010DC58229C582ED
:1021D000C5833AC5830221395011C58229F808E523
:1021E000F026F618F5F0E58236F622BBFE11C58220
:1021F00029F808E225F0F5F0F218E23582F222F82B
:10220000E58229F582E5832AF58374019325F0F5AB
:10221000F0E4933822BB010A89828A83F0E5F0A3B7
:10222000F0225006F709A7F01922BBFE06F3E5F0ED
:1022300009F31922F8BB0111E58229F582E5833AF9
:10224000F583E8F0E5F0A3F0225009E92582C8F60D
:1022500008A6F022BBFE09E92582C8F2E5F008F2E3
:1022600022EF2BFFEE3AFEED39FDEC38FC22C3EFF6
:102270009BFFEE9AFEED99FDEC98FC22E88FF0A40E
:10228000CC8BF0A42CFCE98EF0A42CFC8AF0EDA4FD
:102290002CFCEA8EF0A4CDA8F08BF0A42DCC382530
:1022A000F0FDE98FF0A42CCD35F0FCEB8EF0A4FE10
:1022B000A9F0EB8FF0A4CFC5F02ECD39FEE43CFCA5
:1022C000EAA42DCE35F0FDE43CFC2275F0087582C1
:1022D00000EF2FFFEE33FECD33CDCC33CCC58233B0
:1022E000C5829BED9AEC99E58298400CF582EE9BB5
:1022F000FEED9AFDEC99FC0FD5F0D6E4CEFBE4CDD3
:10230000FAE4CCF9A88222B800C1B90059BA002D6C
:10231000EC8BF084CFCECDFCE5F0CBF97818EF2F25
:10232000FFEE33FEED33FDEC33FCEB33FB10D70354
:10233000994004EB99FB0FD8E5E4F9FA227818EFFD
:102340002FFFEE33FEED33FDEC33FCC933C910D75C
:10235000059BE99A4007EC9BFCE99AF90FD8E0E469
:10236000C9FAE4CCFB2275F010EF2FFFEE33FEED3F
:1023700033FDCC33CCC833C810D7079BEC9AE8990F
:10238000400AED9BFDEC9AFCE899F80FD5F0DAE4F1
:10239000CDFBE4CCFAE4C8F922EF5BFFEE5AFEED88
:1023A00059FDEC58FC22C3E49FFFE49EFEE49DFD32
:1023B000E49CFC22EB9FF5F0EA9E42F0E99D42F09E
:1023C000EC6480C864809845F022EB9FF5F0EA9EAB
:1023D00042F0E99D42F0E89C45F022E8600FECC332
:1023E00013FCED13FDEE13FEEF13FFD8F122E860AE
:1023F0000FEFC333FFEE33FEED33FDEC33FCD8F1CA
:1024000022BB010789828A8302248F5005E9F802E2
:102410002939BBFE05E9F802294589828A8302240D
:102420009BBB010DE58229F582E5833AF583022401
:102430008F5007E92582F8022939BBFE07E925827A
:10244000F8022945E58229F582E5833AF5830224DD
:102450009BBB010789828A830224E75005E9F802C1
:10246000297BBBFE05E9F802298722BB010DE58225
:1024700029F582E5833AF5830224E75007E92582AE
:10248000F802297BBBFE07E92582F802298722E0B2
:10249000FCA3E0FDA3E0FEA3E0FF22E493FC7401B3
:1024A00093FD740293FE740393FF22E0F8A3E0F916
:1024B000A3E0FAA3E0FB22BB010DE58229F582E54A
:1024C000833AF5830224AB5007E92582F8022951AB
:1024D000BBFE07E92582F802295EE58229F582E53F
:1024E000833AF58302296BECF0A3EDF0A3EEF0A3A1
:1024F000EFF022A8828583F0D083D08212250A12C1
:10250000250A12250A12250AE473E493A3C583C59C
:10251000F0C583C8C582C8F0A3C583C5F0C583C80C
:10252000C582C822BB010789828A830224F3500531
:10253000E9F8022993BBFE05E9F80229AC22BB01A8
:102540000DE58229F582E5833AF5830224F35007ED
:10255000E92582F8022993BBFE07E92582F80229C2
:10256000AC22F5F0C582A4C582C5F0C583A425833D
:10257000F58322A42582F582E5F03583F58322E0F8
:10258000FBA3E0FAA3E0F922F8E0FBA3A3E0F9251E
:10259000F0F0E582158270021583E0FA38F022EB44
:1025A000F0A3EAF0A3E9F022E493FB740193FA7438
:1025B0000293F922BB010789828A8302257F500595
:1025C000E9F80229C5BBFE05E9F80229D789828A04
:1025D000830225A8BB011A89828A83D0F0D0E0F853
:1025E000D0E0F9D0E0FAD0E0FBE8C0E0C0F002258E
:1025F0009F5016E9F8D083D082D0E0F9D0E0FAD02D
:10260000E0FBC082C0830229CEBBFE16E9F8D0836E
:10261000D082D0E0F9D0E0FAD0E0FBC082C08302E3
:1026200029E022BB010DE58229F582E5833AF58395
:1026300002257F5007E92582F80229C5BBFE07E97C
:102640002582F80229D7E58229F582E5833AF583C8
:102650000225A8BB0120E58229F582E5833AF583AE
:10266000D0F0D0E0F8D0E0F9D0E0FAD0E0FBE8C05C
:10267000E0C0F002259F5018E92582F8D083D0826F
:10268000D0E0F9D0E0FAD0E0FBC082C0830229CECE
:10269000BBFE18E92582F8D083D082D0E0F9D0E0E3
:1026A000FAD0E0FBC082C0830229E022D083D0822E
:1026B000F8E4937012740193700DA3A393F874015E
:1026C00093F5828883E4737402936860EFA3A3A3F5
:1026D00080DFD083D082E4937012740193700DA3D5
:1026E000A393F8740193F5828883E4737402936C66
:1026F00070127403936D700C7404936E70067405FD
:10270000936F60DDA3A3A3A3A3A380CA8A83898256
:10271000E473E5712582F582E5703583F583B57044
:10272000048582712210AF06858271F57022858240
:1027300071F570D2AF22EC8EF0A4CCC5F0CCCDF800
:10274000EFA4CEC5F02DFDE43CFCE8A42EC8C5F0F6
:102750003DFDE43CFCEFA4FFE5F028FEE43DFDE494
:102760003CFC22E3F5F009E208B5F06BDFF5806789
:10277000E3F5F009E608B5F05EDFF5805A87F00969
:10278000E608B5F052DFF6804E87F009E208B5F0B2
:1027900046DFF6804288828C8387F009E0A3B5F09B
:1027A00036DFF6803288828C8387F009E493A3B504
:1027B000F025DFF5802188828C83E3F5F009E0A322
:1027C000B5F014DFF5801088828C83E3F5F009E41E
:1027D00093A3B5F002DFF4022892808780E980900D
:1027E00080D4803E8015806E807E809D80B7808DF5
:1027F00080A380518074803C02289E89828A83EC69
:10280000FAE493F5F0A3C8C582C8CCC583CCE493A1
:10281000A3C8C582C8CCC583CCB5F076DFE3DEE1C2
:10282000807089828A83E493F5F0A3E208B5F062B0
:10283000DFF4805E89828A83E0F5F0A3E608B5F0D4
:1028400051DFF5804D89828A83E0F5F0A3E208B577
:10285000F040DFF5803C89828A83E493F5F0A3E6BB
:1028600008B5F02EDFF4802A8002805789828A839F
:10287000ECFAE493F5F0A3C8C582C8CCC583CCE0DC
:10288000A3C8C582C8CCC583CCB5F006DFE4DEE2C0
:1028900080007FFFB5F0020F2240027F0122898273
:1028A0008A83ECFAE0F5F0A3C8C582C8CCC583CC16
:1028B000E0A3C8C582C8CCC583CCB5F0D5DFE5DEC2
:1028C000E380CF89828A83ECFAE0F5F0A3C8C58261
:1028D000C8CCC583CCE493A3C8C582C8CCC583CC7F
:1028E000B5F0AFDFE4DEE280A988F0EF60010E4EC4
:1028F00060ABED2402B404005098F582EB2402B4DE
:102900000400508E23234582239027DA73EF4E6014
:1029100012EF60010EEDBB010B89828A83F0A3DF09
:10292000FCDEFA2289F05007F709DFFCA9F022BB90
:10293000FEFCF309DFFCA9F022E6FC08E6FD08E650
:10294000FE08E6FF22E2FC08E2FD08E2FE08E2FFE4
:1029500022E6FB08E6F908E6FA08E6CBF822E2FBF5
:1029600008E2F908E2FA08E2CBF822E493F87401ED
:1029700093F9740293FA740393FB22ECF608EDF6D4
:1029800008EEF608EFF622ECF208EDF208EEF20897
:10299000EFF222D083D082E493F608740193F60814
:1029A000740293F608740393F6740473D083D08290
:1029B000E493F208740193F208740293F20874032A
:1029C00093F2740473E6FB08E6FA08E6F922EBF6E4
:1029D00008EAF608E9F622E2FB08E2FA08E2F92240
:1029E000EBF208EAF208E9F2224105E5004105E4CC
:1029F00000E0020200001421E002020002120FE0D7
:102A00000102000954E00102000AA5E00102120BD4
:102A100000E00502120C120F02060A410A03060129
:102A20001300410A0201410A0001C11B0118000103
:102A30001600C130413D6300413D5800413D6100F9
:102A4000413D6200413D5FFF413C2B00C11EC1087A
:102A5000412B2400412BB2FF412BA900C106412B81
:102A6000B300412BB400412BAA01C10B412B230021
:102A70004143C500C13C4339EE0000004139ED003F
:102A80004139F1004303E70000004303E40103E799
:102A9000422D85980743410A000000434107014148
:102AA0000AE00202121101B0E00102121300E0017B
:102AB00002129400E0050213BC01B006060A41426E
:102AC000EA024142E90D4142EB086020354442DB15
:102AD00001000000000000000000000000000000F5
:102AE0000000000000000000000000000000602066
:102AF0003564090000000000000000000000000034
:102B000000000000000000000000000000000000C5
:102B100000005038600000000000000000000000CD
:102B20000000000000C115015000C112C113414254
:102B30005705C11FC121C12442238C984041238ED7
:102B4000004335B70000004235B500006020234B3C
:102B50000000000000000000000000000000000075
:102B60000000000000000000000000000000000065
:102B70004320009F010050200300000000000000DF
:102B80000000000000000000016127260E00020185
:102B9000050101020E060101000407040102030001
:102BA00000040006080504020803140400040014CD
:102BB00005010809080502080314050004001405AE
:102BC000000600140802020A0A08020301000800B5
:102BD000040014080006001408010800140A020D7D
:102BE000000A0A020C000A0A02080B0A0A01050C74
:102BF0000E0A000400140A000600140A010800145A
:102C00000E000A0D110E020804140E000400140E2A
:102C1000000600140E010800140E010500140E0237
:102C20000F0E1211000C0C0E1102080414110004F6
:102C30000014110006001411010800141101050010
:102C40001411000A00141102050E121202080414D5
:102C500012020C0F001200040014120006001412DD
:102C600001080014120105001412000A00141202D7
:102C700005001412000C001413020C0100000209DC
:102C800000000002100000140209010014020B00F1
:102C900013140007100014020A01001402040014A7
:102CA00014020C001414020D010014020E0014147E
:102CB000021001006024281E0200FFFF0602FF0030
:102CC0000602FF000301FF002300FFFF03000000D6
:102CD00013000000020001010300000046277501F7
:102CE00000020104024227FB1D6341288200412AA1
:102CF0003001412888004328850128434328790171
:102D00002843410BE20060200A71EDFFFFFFFFFF47
:102D1000FFFFFFFFFFFFFFFFFFFFFFFFFFFFFFFFC3
:102D2000FFFFFFFFFFFFFFFFFF7F49331186858E07
:102D300059725A73807A4F331AFF313F0EFF314D6B
:102D400005013311090210014932D64C6966656CE0
:102D5000696E650044330D80035A01602E32DF0036
:102D60000000000000000000000000000000000063
:102D70000000000000000000000000000000000053
:102D80000000000000000000000000000041332AA5
:102D9000004132D501C141E0020213C1004CE005FF
:102DA000021408004C040405E00202140D0013E0B4
:102DB0000C02140F00000305000300050405060AB9
:102DC000E00502141B0013FF0405E00202142000BA
:102DD00000433C42000000423C490000443C45079F
:102DE000102232463C3C40464A4E5256C12641389B
:102DF000C1004138BE0042434A000041434900C17E
:102E00004843337E00000041332B0041323F0142F2
:102E1000399D000041399400453E670000000000E4
:102E2000453E620000000000413DFB00413DF700CF
:102E3000413DF100413DFA00413DF200413EFF00BD
:102E4000413EFE00444299000000004143AF004172
:102E5000435AFF4243580000C1534138F9005B38E0
:102E6000DD00000000000000000000000000000085
:102E70000000000000000000000000004138DCFFFE
:102E8000C15641374F005036AA0000000000000034
:102E90000000000000000000004536BA00010204F6
:102EA000804736CA000000000000004336C700001B
:102EB000004140DC004140DB004240D9000042407C
:102EC000D700004140D6004C3DC410000000000077
:102ED000110000000000C15C00C2D5E830E70FB26D
:102EE000D5E4C39BFBE49AFAE499F9E498F8EC3052
:102EF000E717B2D5122F0F122307E4C39BFBE49A06
:102F0000FAE499F9E498F8800312230730D50DE428
:102F1000C39FFFE49EFEE49DFDE49CFC22789FE4B9
:102F2000F6D8FD9000007F007E10E4F0A3DFFCDE09
:102F3000FA9043FAA3E583C394204011FEAF829038
:102F400020000E0FE48002F0A3DFFCDEFA1219204D
:102F50000218602232000001000000001706000085
:102F60000000180600000006180600000001180600
:102F70000000000818060000000101010000000127
:102F80001500000000010204000000010B04000015
:102F900000060B04000000080B04000000010D00F7
:102FA000000000010E0400000001100000000001FC
:102FB0000F000000000405010000000406060000E8
:102FC00000040708000000020500000000030501DE
:102FD00000000001080500000000080000000001DA
:102FE0000C010000000112050000000803020000AF
:102FF0000001220000000008160800000008080078
:103000000000000116010000000616010000000586
:103010000903000000050A0000000005030200008B
:1030200000050400000000061B06000000011B064E
:10303000000000061C07000000061D070000000736
:103040000508000000081E0700000008200000001E
:1030500000081F0000000008210000000008110601
:103060000000000111060000000822000000000618
:103070001906000000061E000000000620000000E7
:1030800000061A08000000061401000000071401E1
:10309000000000081B0600000007240000000008D4
:1030A0001401000000555555555555555555555564
:1030B0005555555533333333333333333333333358
:1030C00033333333888888888888888888888888D4
:1030D0008888883F241E16110E0B09070504030279
:1030E00001F0C8A791776760463835323024222036
:1030F0001400010102020303040405050606070784
:1031000000000000000000000000000000000000BF
:103110000000000000000000000000000000008728
:103120008888888888888888888888888888882681
:103130002626262626262626262626262626265EF7
:10314000858E595586725A73989F6C807A5E6C553D
:10315000989F00011E031E081E0D1E21000E1384E1
:10316000000E18FC000E225C020202003F3F3F04EA
:103170000404323232000201904C6966656C696E5B
:103180006500496E76616C69642067726F757000C6
:1031900019DA19DF19E419E919F31A071A0C1A11C7
:1031A0001D7C1D861D8B1D901D951D9A1D9F1DA9A3
:1031B0001C5F1C6E1C731C781C7D1E6C1E711E76A1
:1031C0001E7B1E80475965574E671A9D1AA21AD951
:1031D0001CAF1CB91CCD1E2B1E301E351E4E1E539F
:1031E0001E5864CD65131A521A571CD21CD71E5D87
:1031F0001E621E851E8A1E8F1E941E991E9E1BD344
:103200001BE71D721E265A012003800300011E6762
:103210005970E4FD7C0CAB050DEB9018F1938F8297
:103220008E83F00FBF00010EDCEC7F03228F828EB5
:1032300083E4F0A37406514F740A514FA3E4F0EFF6
:103240002404F582E43EF583E4F0A3746DF022F0EB
:103250008F828E83A3A322AD07901217E054FCF057
:10326000E0FFED54307E0060027E02EF4E901217B8
:10327000F0E0FFED7E0030E0027E01EF4E9012178D
:10328000F0229005ED7402F09005E4E0FF121DEAD3
:1032900051579005ED7405F02275FF0275E404E4C2
:1032A000F5E4D123C330E001D34017E5E630E01266
:1032B000901217E0540C600A121C0F901217E05481
:1032C000F7F0C21AD12330E039E5E6540364017007
:1032D00031121A3E125B6A401F90123EE0600BE012
:1032E00014F07006122F1DB1EEF0901215E020E0E0
:1032F0000261941250BF6194122F1DD21AB1EEF0E8
:103300006194122F1D1267159005E6EFF0901200E0
:10331000E0B47A14901214E0B49C0D9005E6E0FF3E
:1033200064056004EFB40330E49005ECF09005EC24
:10333000E0FFC394805013E42FF582E43412F58348
:10334000E4F09005ECE004F080E3901200747AF071
:10335000901214749CF0D216121C3C4003121C37BD
:103360007B017A1279107D017F01121C327B017A78
:103370001279117D017F21121C327B017A127912A0
:103380007D017F22121C327B017A1279287D017F18
:1033900002121C32901228E0B401057F01126DB8B0
:1033A000121A43126715121A399005E6EFF0121936
:1033B000B2121A349005E6E0FFB40602800C301A0F
:1033C000047F0280059005E6E0FF121DE5EF24FF73
:1033D000B3923C75FF0253E6BF1247E46003B1EEBF
:1033E000F0125178121A4D1240AB30160B7B017A55
:1033F00012792A7D1012631C121A8E901215E0C3E6
:1034000030E001D3400E203C0B51827B017A2B79B6
:10341000BB1219F8901229E030E0028003301A0440
:103420007F01D151D2AF301A031219B7203C02816B
:10343000AF121C55124AA5121DEF121C2D40F2901E
:1034400005E5E06042121A6BEF7007125A9994007A
:103450004035E51370FCE51420E502D1BF121B884E
:10346000EF70FAB1F55004D10750057F01124A25DB
:103470009005E5E0B40204E4FF80099005E5E0B4BE
:1034800003057F011250C4121A61E51430E1A2D184
:103490003C4002E4F0E51420E504B1D2F1281272B8
:1034A000F9C0E0B1E0D11BD0E0FF12199E8082127A
:1034B00051171250E85002D16EB1CAEF7006900554
:1034C000E5E06053902B24E0704D121A6BEF70070B
:1034D000125A9994004040E51370FCE51420E5026F
:1034E000D1BF121CC3121B88EF70FAB1F55004D182
:1034F0000750057F01124A259005E5E07011B1CA19
:10350000EF600C12409C901217E04408F080089085
:1035100005E5E0FF121C0A121C55124AA5121C1EDA
:103520009040DDE07049124076124084EF7022D165
:103530002BEF6005121C0F8036B1CAEF7031126696
:10354000A6EF702B125000EF64017023124095809B
:103550001E901217E020E217D12BEF600DB1F5504D
:1035600004D1075005E4FF124A25E49005EBF02052
:103570001705121A618022125A619005DEE0FEEFF3
:10358000C39E4005EF9EFF80089005DEE0F4042F07
:10359000FF7403D39F5002C217E51430E11ED13CE3
:1035A0004002E4F0E51420E504B1D2F1281272F9EA
:1035B000C0E0B1E0D11BD0E0FF12199E121BD8125F
:1035C0001A7A1264E612516381AFF1B5B401027F39
:1035D00001229005E7E0FD75F0AA9005F112257330
:1035E000ED75F002A424E0F9740535F0FA2290128A
:1035F00015E054FE22900001740193B40007E49397
:10360000B41802C322D3227F017E009017FCE493FA
:103610005EFE7401935F4E24FFB3227B019005E8A8
:10362000E0FD2275FF02901215E022F1B5B402020E
:103630007F0122C2AFEFF45214D2AF227F02D13306
:103640009005E7E09005ECF09005E704F0C39402E4
:1036500022EF600EB1D27B01AF82AE83E4FDF13088
:103660008009121A70D1BFE433FF227F0122E4FFE8
:10367000D151EF60497B017A1279221255675009C6
:10368000901222E0C394C040EC7B017A127924129C
:103690005567500F1251005FFFA3E05FFFA3E05F8B
:1036A000F460E6901229E030E0047F01D151E4900B
:1036B0001220F07B017A127922E0FD121B9222E5A2
:1036C000137021125ABA5004C238D1E6F1BCF1FE8F
:1036D000E5D120E0FB4314205314FEE4F510A219B9
:1036E00092EDD322C3229043BCE5F4F0E0547FF581
:1036F000F47F827E00F1E4F1EA5005E5FC20E6F774
:103700003038089043BCE04480F5F4F1E0F1EA5031
:1037100005E5FC20E6F775FF01E5D520E702C322A9
:10372000E5F4D330E601C3227B01AF82AE837D0195
:10373000900B401271CDE513707A125ABA5004C240
:1037400038D1E6900B40E0FEA3E08E11F512A312F3
:10375000257F900A0412259FAE11AF127DAA126F29
:1037600019E4F5FF75D901F510E5145421602CE535
:103770001430E505E4FF12611BE4900B45F0900B5B
:1037800045E004F0125CE1EF6009900B45E0C39462
:103790001040EB7F02121DE05314DE1261755005DC
:1037A000E004FF80027F0012610CD238D1E6D2EB38
:1037B000A21992ED229005EBE07F0022F1C37F0871
:1037C000021DE0E5FA30E1FB75FC8075FF0153D581
:1037D000EFE4F5FC75FC40125CDAE5FC20E6FB2228
:1037E0007FE87E031267DC0257D675FF03E591C3BD
:1037F00030E701D322E4F513C1BFC238D1E6E4F5C6
:10380000FFE5D154FE4402F5D122900B7612259F9C
:10381000D22CC2EBE51360024101E51430E202C391
:1038200022510AE924EC1271C5126431A2ED9219F9
:10383000C2ED717454606033510AE92403511720BA
:10384000E1299040E2E0640460219040E1740FF0CF
:10385000510A9040DE12259F718D1273939040E2C1
:103860007405F0511EA21992EDD322510A121FA91C
:10387000540FFFBF0111E924ED5117700A90122176
:10388000E0900B79F0800A510A1219AD900B79EF94
:10389000F0E51420E063125AC240057F0112365150
:1038A000900B797A0B797A125F3CE4335109E92461
:1038B000EDF9E43AFA7401122013EF7002803690A9
:1038C0000B79E0FF24891273FEE0FE900B7AE0D3BF
:1038D0009E4004F1E8C322900B765111FD510A126B
:1038E0004C88900B7AEFF0E0FF7006D2EBD200210B
:1038F000E2EFB40204D2EB21E271745460600F5124
:103900000AE92403511720E105E49040E2F0125A3D
:10391000C25005C2381236E61237FEE5D120E0FB70
:10392000E4F510C21A510AE92408F9E43ACFE9CFC4
:10393000F5118F12510AE924B15117F515AE111284
:103940006F4F510AE924B151175109E924E1511788
:103950002FFFE433FE127482FE900B765111D312C6
:10396000615B9850057401122013510AE924B2F9E1
:10397000E43A8B1AF51B891C510AE924E15117F529
:103980001D71745407900A02F0751308510AE92456
:10399000B2F9E43AFA126F43510AE924E15117FFF0
:1039A000AD15126F6E7B01E4FDFF126EE5E4F5FFCD
:1039B000E5D25480440CF5D2900B79E0900B76510F
:1039C000102418FBE433FA7D031263787174FFAEA0
:1039D000F0A22C922B900B79E0900BA7F01260C212
:1039E0004006A21992EDC322900B79E05109E92417
:1039F000F1F9E43AFAEF122068A21992EDD2EBD372
:103A000022A21992EDD2EBC322FF900B7602257F02
:103A1000FF12257FE924B9F9E43AFA021FA9904080
:103A2000E2E024FC70026134147002612D14700213
:103A3000611C147002615324066002616DE513601D
:103A400002616DC2EB716E1219AD90437BEFF0E530
:103A50001430E0026119126D8060057F0112365149
:103A600090437B7A43797C125F3C4004D2EB6194B3
:103A700090437BE024891273FEE0FF90437CE0D307
:103A80009F4002E1E89040E1E0640F702490437BA6
:103A9000E09040DE5110FD716E124C8890437CEF37
:103AA000F0E0FF7005D2EBD20022EFB40203D2EBBC
:103AB000221262D5716EE924E25117FF9040DE7147
:103AC00077FDACF0E4FB1262B4C22B90437BE09034
:103AD0000BA7F0E4FFFE1260C2503BD2EB9040E235
:103AE0007402F01263147E00E4FCFD7BD07A12793C
:103AF00013F812227C12665D122ED9AB07AA06902B
:103B0000437BE0FF7D031263787E647FCD7D147C70
:103B1000001219678003D2EB22D2EB22E51420E5D4
:103B20002BE51430E0267F01123651801F9040E2D1
:103B30007401F022716EE924EF5117600774FF12CF
:103B400020137008121962716E021A759040E274A7
:103B500003F0221262E6D200716E127393718D909F
:103B600040DE12259FE49040E2F012197622904048
:103B7000DE02257F900B7612257FE92404F9E43AD2
:103B8000FA0221659400904056F0A3CEF07B007AB3
:103B900000790022C3900A0DE094FF900A0CE09493
:103BA000FF5002B1DA22C0E0C0F0C083C082C0D0B2
:103BB00075D008C0FF75FF01E5D530E6047F0280AF
:103BC00009E5D57F0030E7027F018F17E517640212
:103BD00060028169E5131226AC3BF2013C05023C10
:103BE00054083C10093C1B0A3C290B3C490C0000C2
:103BF0003DC575FF0175C3551519E5196002A1C5CD
:103C0000751302A1C575FF0175C3F0751309A1C530
:103C100075FF0175C35575130AA1C575FF01900A9B
:103C200018E0F5C375130BA1C575FF01900A01E0FB
:103C3000F5C3751301751908900A2B1273E845F046
:103C40006002A1C575130CA1C59040E27406F07521
:103C50001300A1C5C2EB7513004314041262F09463
:103C6000FF4002A1C5B1DAA1C5E51764016002A158
:103C7000C5126DB14002A1C5E5107022B1D3E0FFBD
:103C800064556004EFB4540B75100575FF0075D9C9
:103C900001A1C575100275FF0075D908A1C5E51011
:103CA0006402704C75FF01F5EA75EAFF900A041290
:103CB000257FE5D9122068126D861262A0900A0055
:103CC000EFF0127406E0900BDAF0E0FFD3940940B5
:103CD00006EFD394AA40051262FC806E900BDAE0E6
:103CE000F515126D4C75FF008515D9751003A1C52A
:103CF000E51064057020B1D3A3E0FF901220E0FE30
:103D0000EF6E700D9009FF04F0126D4CE0FF121978
:103D1000A87510008034E51064036002A1C5900A04
:103D20000412257F121FA9FF12625B122068126223
:103D3000FC75FF00E5D330E016C3900A13E094FF52
:103D4000900A12E094FF5002B1DA1261368076C216
:103D5000381236E675FF001101E5D120E0FBC2EB19
:103D6000431402B1D3A3E0FF901223E0FEEF6EB143
:103D7000D2E09012221274CFB1D2A3A3E0FE90122F
:103D800024E0FDEE6D4FB1D2A3A3A3E09012251263
:103D900074CF6011C3900A15E094FF900A14E09468
:103DA000FF5002B1DAC3900A0FE094FF900A0EE0D0
:103DB00094FF5002B1DA7510001515127406E5155E
:103DC000F09005E8F0D0FFD0D0D082D083D0F0D0F2
:103DD000E032FF85128285118322E475F001022111
:103DE00039903E801224E7903E8412259F1248109D
:103DF000D1EAEF6005124A9080F61271EC600890EB
:103E00003E80127296D14C903E8012728CD14C90B2
:103E10003E8012248FE48023903E871273F745F092
:103E2000601D903E8412257FE94A600D121FA9FF94
:103E3000D14C903E85B1DA80DFE4FFD14C80D9F1DE
:103E4000D8903C227401F02212248FE4E5C820E2CD
:103E5000FB8FEB227F01F1DC9043BE7401F09043B5
:103E6000BEE06038F1377F05D1DC9043BEEFF0F162
:103E7000F1D1D8903C1EEFF0D1DE903C1FEFF0F175
:103E8000F19043BEE0540112758160D2A3E0F4606A
:103E9000CDEF30E7C9E49043BEF080C2F1377F9F99
:103EA000D1DC903C20EFF0D1DE903C25EFF0D1DE6C
:103EB000903C26F1D6903C1EE0F4601BA3E0F46039
:103EC00016903C25E0FD541F240FA3F0EDC41354BD
:103ED000074480903C25F022F1377FD7D14C7FFFFB
:103EE000D14CE5C820E2FBAFEB227F01F1DC303A98
:103EF00016F1377F05D1DC9043BFEFF0F1F190432D
:103F0000BFE020E002C23A303A1FD1D8903C1EEF09
:103F1000F0D1DE903C1FEF127581600BA3E0F460DE
:103F200006EF30E702C23AF1F1E4FFF1DCA23AE435
:103F300033FF227F01F1DC903C23E01226AC3F5A94
:103F4000043F62143F67153F6C173F7C303F81345C
:103F50003F86363F8B3700003F74536AEF856A8097
:103F6000802F536BEF8008536BDF8003536B7F858B
:103F70006B90801D536CDF856CA08015536DFE80A7
:103F80000D536DEF8008536DBF8003536D7F856DBA
:103F9000B07F0CDFFE2290419C1224E7124810D122
:103FA000EAEF6005124A9080F6F1337F0312720641
:103FB000600890419C127296D14C90419C12728C78
:103FC000D14C90419C12248FE4D1DC9041A0F1D6D9
:103FD0009041A0E0FF22EFF0F1F1E4FFEFB4010423
:103FE00043FE202253FEDF22D2EB7194D20022D175
:103FF0004C126FBBEF70FA903C25E0F4600B9043DD
:10400000BD7406F012406E70FB903C23E01226ACAB
:10401000402C04403414403915403E17404E304087
:104020005334405836405D3700004046436A10859F
:104030006A80802F436B108008436B208003436BA2
:1040400080856B90801D436C20856CA08015436D2E
:1040500001800D436D108008436D408003436D80E7
:10406000856DB09043BD740CF0116E70FC229043CE
:10407000BDE014F0E0229005EBE0FF121DF4900586
:10408000F0EFF0229005F0E07F0070027F0122E463
:104090009005EBF0229005EB7401F0229005EB7493
:1040A00002F0221237B570027F012212484C121A18
:1040B0005C121B291219A3121C5AF1E47002218E02
:1040C0007FFF121AE8900B2312259F7E007F093193
:1040D000F0BF540D7E007F0A31F0BFA5047F018040
:1040E000027F009005E4EFF031DAE94A4B701E7F61
:1040F00004FE31F0EF2401FFE433FEC374011261CA
:104100005B987F0050027F019005E4EFF09005E49A
:10411000E06401705031DA12736A7A0B79299142A6
:10412000900B29E0FEA3E0FF31DAC3E99FF9EA9E94
:10413000FAE92407F9E43AFA900B2612259FE924BC
:1041400008F9E43AFEAF017B017A0B79299142909C
:104150000B29E064047004A3E064056008121AED02
:104160009005E4EFF09005E4E0701B7E007F04C052
:1041700006C374219404FE7414123B84D006F1F239
:10418000E4FFFE121AF29005E4E0FF121B15F1E4C1
:104190007F0060027F01121A1B121A2512196C127D
:1041A00064B31272407922121B8D125100FE4FFD32
:1041B000A3E0FC4DFDA3E0FB4D600BEE5FFFEC5F69
:1041C000FFEB5FF4700312366E901220E0FF901246
:1041D00024E06F9005DFF0021C28900B2302257F5E
:1041E00075F002A42485F9740F35F07B02FEAF014F
:1041F000E4FCFD023F96AE02AF017B017A3A7917EB
:10420000904056E4F0A37402F090405312259FE4CE
:10421000FCFDC00790405312257F9040561273A6B4
:10422000D007903C691224E7903C6D12259F903C8A
:104230006912248F903C28E024FFFD903C27E03455
:10424000FF5EFEED5FFF903C72EEF0A3EFF04E607C
:1042500065903C72127272127371903C72F0A3EF0F
:10426000F0903C70E0FCA3E0FDD39FEC9E5006A3D1
:10427000ECF0A3EDF0B165F0602B9105122261C066
:1042800004C005C006C007715A4A600571F8FF8076
:10429000027F007E00715A1272B6D007D006D00598
:1042A000D004123DE171334A600612751CFF80761E
:1042B0007E007F008070903C70E0FEA3E0FF4E60C7
:1042C00070903C27E0FCA3E0FDD3EF9DEE9C400AFC
:1042D000903C72ECF0A3EDF0800D903C70E0FFA3F9
:1042E000E0A3CFF0A3EFF0B165F0602B91051222AF
:1042F00061C004C005C006C007715A4A600571F864
:10430000FF80027F007E00715A1272B6D007D0067D
:10431000D005D004123DE171334A600612751CFFCE
:1043200080047E007F00903C6EEE8FF01221398079
:1043300085D322903C72E0FEA3E0FFC3903C71E085
:104340009FF0903C70E09EF0903C691224ABE4FC3E
:10435000FD122261903C691224E7903C6D12257F8A
:10436000E922EFF4045FFFE4FEEF70037FFF22EF2A
:10437000D3940F4009EFC4540FFFEE4404FEEFD373
:104380009403400AEF1313543FFFEE4402FEEF3054
:10439000E1010EAF0622AB07AA06EB241FFFE43AA9
:1043A000FEEF7805CEC313CE13D8F9F9EB541F9066
:1043B00043C0F0AF0571FDFCAF057167AE01EE14AF
:1043C000C39FC43354E0F9AF04C3EB9FFFEA9400EA
:1043D000FEE9FDC3EF9DFFEE9400FEED600FE0FDF2
:1043E0006007C374209DFD80067D0080027D007CF7
:1043F00000EF2DFFEC3EFE22903C76E0FF7162EF75
:10440000C43354E022903C72E0FEA3E0FF903C767F
:10441000E0FD7196903C74EEF0A3EFF0A3E0FF7125
:1044200062EF75F020A4FFAEF0E4FCFD903C690261
:1044300024AB903A0612257FAE02AF017B017A3A97
:1044400079159040E87402F09040E512259FE4FC55
:10445000FDC0079040E512257F9040E81271D6D04C
:1044600007903E891224E7903E8D12259F12481036
:10447000123EEAEF6005124A9080F5123F337F0347
:104480001272066009903E89127296123E4C903E5E
:104490008912728C123E4C903E89123E48903E909A
:1044A0001273F745F06010123EDE903E8DF1EB90F6
:1044B0003E8E123DDA80E6123FF1E4FF023FDC124D
:1044C00074B412259FE4903D6EF0A304F0903D6B10
:1044D000E0FEA3E0FF4E7002A15FD3EF9420EE94C4
:1044E0000040047F208006903D6BA3E0FF903D6D6F
:1044F000EFF0903D6812257F903D6DE09037AD1252
:104500007222903D6412248F126E4F400E903D6EC9
:10451000E0FFA3E0FEEF4E903D6EF0903D6DE0FFBA
:10452000C3903D6CE09FF0903D6BE09400F0903DB7
:10453000641224AB903D6D1275631274B412257F22
:10454000E94A6007903D6DE0FF80027F00903D6981
:10455000E48FF0122139903D6FE025E0F081CD909D
:104560003D6EE0FF22903C6D12257F903C72E0FF93
:10457000A3E0903D6BCFF0A3EFF0903C6912248F45
:1045800091BF903C76EF229043BBEFF0C230901287
:1045900020E0601F7E127F0B31F0BF01087FFF1209
:1045A0001DFE7F0022903D5EE06008901220E0FF3B
:1045B000121DFED1669043BBE07002C13EE4903D07
:1045C00062F0903D5EE06002D1E29043BBE0FFB458
:1045D0000107903D6274018009EFB40310903D62C1
:1045E0007402F0D15E903D607404F08049EF640481
:1045F0007036901220E0701FD2301266C8EF700F34
:10460000D15E1266C07E127F0B7D01D182D16E9089
:104610003D5E7404F0803A9005E6E0B40505E4F0F0
:10462000121BF6D15E7F00229043BBE06402702132
:10463000903D60F0D15E903D5E7402F08013E49096
:104640003D62F01266C8EF6002D166903D5E740173
:10465000F0D1E5903D5EE07F0060027F0122901284
:1046600017E05403F0227E127F0BE4FDD182124842
:1046700010123EEAEF6005124A9080F522FEAF016B
:10468000E4FDAB05E4FCFD9041A5EBF09041A112E7
:1046900024E79041A112248F123F969041A5E06F2C
:1046A000603E124810123EEAEF6005124A9080F513
:1046B0001271EC60099041A1127296123E4C904129
:1046C000A112728C123E4C9041A1123E489041A51D
:1046D000E0FF123E4C123FD8903C227401F0D322EE
:1046E000C3227401F0903D5EE0640270247C477D3B
:1046F000597F01121A16E4FBFAFD7FFF121A027E9F
:104700004E7F67C006C007126693D007D006024FDF
:1047100010903D5EE064037018FFFE12654F903DFF
:1047200062E07C477D59B402047F0380117F0280E0
:104730000D903D5EE0B4040C7C477D597F04121A55
:1047400016024E67903D5EE0B4010D127591124F56
:10475000C1D15EE4903D5EF02290437DEFF0A3ED89
:10476000F0124FC190437DE0B40112A3E0903D5F91
:10477000F0D15E903D5E7405F07FFE806090437DD9
:10478000E064027024903D62E064027056903D59EE
:10479000F0903D5E7403F07E4E7F67C006C0071246
:1047A0006693D007D006024F1090437DE07034121C
:1047B0001A7FEF64016029303014121E17EF600C6D
:1047C000121A7FEF600690437E74FFF0C230D1660C
:1047D000903D5EE06002D1E290437EE0FF021DFE6C
:1047E000121A89229005E6E064012212257FEF0269
:1047F0002068510974FFFDFC2275FF0275E4047501
:10480000E40175E4022275FF0275E404E4F5E42294
:1048100075FF02E5E430E10675E40675E403221154
:1048200010123EEAEF6004519080F67F01123FDCE7
:10483000D23A123F377F06123FEF123F377F011205
:104840003E4C7F03123FEFE4FF023FDC7B017A3CEA
:1048500079237F03510A7A3C792C7F08510A7A3CEC
:1048600079297D027F09121C327B017A3C79277DF0
:10487000027F0B121C32903C27E0FEA3E0FF4E604B
:1048800006BEFF16BFFF13511250028004511B8059
:1048900009903C27E4F0A37440F0511250028008C4
:1048A000903C247403F08006903C247402F0903C09
:1048B00023E01226AC48D10448DC1448E41548EC47
:1048C00017490230490A34491236491A370000485C
:1048D000F775FF015366EF8566FD804775FF01534D
:1048E00067EF800E75FF015367DF800675FF015388
:1048F000677F8567C9802C75FF015368DF8568CAAB
:10490000802175FF015369FE801675FF015369EF21
:10491000800E75FF015369BF800675FF0153697FE3
:104920008569CB123FF17F1131FCE4FF5125123E26
:1049300054903C217402F0903C25E0247F600904EF
:1049400070165102740A8007126E1251027458F0E8
:10495000903C247403F0511B903C26E0F46002214B
:10496000FA903C29E0FEA3E0FF64104E7006903CF4
:1049700026740EF0EF64204E7006903C26740FF003
:10498000EF64404E7006903C267410F0EF64804E49
:104990007006903C267411F0E4B5070AEEB40106E7
:1049A000903C267412F0E4B5070AEEB40206903C7F
:1049B000267413F0E4B5070AEEB40406903C26749E
:1049C00014F0E4B5070AEEB40806903C267415F01E
:1049D000E4B5070AEEB41006903C267416F0E4B570
:1049E000070AEEB42006903C267417F0E4B5070AD7
:1049F000EEB44006903C267418F0011FEF4420F5F9
:104A0000FE227F1031FC903C21227D01121C327B62
:104A10000122903C2CE024FE24FD22903C277401CE
:104A2000F0A3E4F02290437FEFF0E4A3F0903C2C5D
:104A3000E0FFB40209740F518874B9F0800CEF6480
:104A4000047044743D51887479F0123F3390437F71
:104A5000E06007903C2BE0FF80027FAB123E4C12DF
:104A60003FF190437FE0903C2BF07016904380E044
:104A7000D39400400D7FFF123E4C904380E014F031
:104A800080EAE4FF123FDC22904380F0903C2B222E
:104A9000E51430E20FE51420E50AE51430E0057F67
:104AA0000112365122D3900001E09400900000E002
:104AB0009400500261E5C2ADE0FFA3E0904379F1BC
:104AC000E5900000F0A3F0D2ADF57371E6E0FEA32F
:104AD000E0FF4E604BC390437AE09F904379E09EA5
:104AE00040219104E0B4010F91047402F0900A197E
:104AF000E0FF71E6E480259104E4F071E6E4F0A3C0
:104B0000F0801D71E6C083C082E0FEA3E09043798F
:104B1000F1D7C3EF9DFFEE9CD082D083F0A3EFF0DE
:104B20000573E573640370A3902CB8E0FF6024F470
:104B300060217E00904379E0FCA3E0FDC39FEC9EE2
:104B400040087A007B007F008004C3EF9DFF902C1B
:104B5000B8EFF0E4F573E573B11FE060729043794C
:104B6000F10771F41224ABD31223CA50429110E022
:104B7000FF6008F460059110E014F09110E0600E01
:104B8000E573B1D712248F71F41224E7800FE57317
:104B9000B11FE4F071F41224F3000000009178E0FA
:104BA000FEA3E04E6005917812741251908020713E
:104BB000F4C083C08212248FC006C007904379F1ED
:104BC0002ED007D00612226ED082D0831224E705A1
:104BD00073E573C3940E50026156904379E0FEA3CF
:104BE000E0FF121B2422E57325E024B2F582E434B1
:104BF0002CF58322E57375F00CA4240AF582E434C5
:104C00002CF5832274072573F582E4342CF5832276
:104C1000E57375F00CA42414F582E4342CF583229A
:104C2000903F3EECF0A3EDF0903F3DEFF0FB903F66
:104C30004012248FEBB1D71224E7EB71F61224E770
:104C4000EB71F6C083C0821224AB900000F1071212
:104C50002261D082D0831224E7903F44E0FF903F4E
:104C60003DE0FE9112EFF0903F3EE0FCA3E0FDEE50
:104C7000917AECF0A3EDF022E57375F00CA4241208
:104C8000F582E4342CF58322121FA9FB900BCCEFA4
:104C9000F0A3EBF0900BCCE024079108E0FEB40207
:104CA000037F0022EE701E900BCCE0FF24079108DA
:104CB0007401F0900A16E0FCA3E0FDEF71E8ECF05F
:104CC000A3EDF0802AED241BFFE433FEE4FCFD7B22
:104CD0000CFAF9F8122ED9EF2405FF900BCCE071F5
:104CE000E8E0FCA3E0C39FEC940050037F00229017
:104CF0002CB8E0B4FF15900BCDE0540FFFBF0103BB
:104D0000E48004900A2AE0902CB8F0902CB8E0607F
:104D1000037F0222902CB874FFF07F0122E0FF7520
:104D2000F00CA42415F582E4342CF5832290403550
:104D3000F1ADEBF090403A74FFF0904039E09040D4
:104D40003BF090403BE0FFC3940E505EEF71F612D3
:104D5000248FE4FBF1DE704A904039E07E0170025E
:104D60007E0290403BB11DEEF0C007904037E0FF5F
:104D70007E006004F1EC80027F0AE4FCFD903F407D
:104D80001224E7904038E0903F44F0904035E0FC3A
:104D9000A3E0FDD007912090403BE004FF90403A13
:104DA000F02290403BE004F0809890403AE0FF22EF
:104DB000AB07E4FF1BEBC3940E501BEBB1D71224DF
:104DC000F300000000EB71F61224F300000000EB8A
:104DD000B11FE4F07F012275F00CA4240EF582E4EB
:104DE000342CF58322AB07E4FA1BEBC3940E500F6F
:104DF000EBB1D71275796007EB71F61224E70AAFB1
:104E00000222903F45EEF0A3EFF07FFFA31224AB08
:104E1000E8494A4B6050903F4C7403F0903F4CE09F
:104E2000FEC3940E5040EEB11FE07032903F4CB183
:104E30001D7405F0C007903F4712248F903F401229
:104E400024E7903F4BE0903F44F0903F45E0FCA3C7
:104E5000E0FDD0079120903F4CE004FF8008903F98
:104E60004CE004F080B622F1C1903D5EE0B4020C4B
:104E7000127591903D5E7403F00246E5903D5EE050
:104E80006403706A903D60E06056903D62E0B4015A
:104E900005121BFB800A903D62E0B40203121C0065
:104EA000903D60E014F0E0601FF118EF75F046846B
:104EB000E5F075F064A4FFEF24A0FFE5F0340FFEE9
:104EC000E433FDE433FC8007E47FA07E0FFDFC901B
:104ED0003F471224E77E4E7F67E4903F4BF08030DF
:104EE000903D5E7401F01246E57FFD021DFE903D8F
:104EF0005EE0B4041112651BEF6008123B8DE4FF05
:104F0000026557121BFB22E0FEA3E0FFE4FCFD223A
:104F1000D102903D63EFF0229005DFE064AA2411F6
:104F2000FFF022F118EF75F0A08422904231E0FEEC
:104F3000A3E0FBAA06E4F9F822904231F1ADEBF0D0
:104F4000F12BF1B71274D6C006C00790423112732C
:104F5000EFF132D007D006D31223B47E0050047F85
:104F60000180027F00C006C007F12BF1B7D0E02F0F
:104F7000FFD0E03E904231F0A3EFF053ECFC9042C2
:104F800031F1D0540342EC75FF02EDF5AF75ED023F
:104F900075ED04A3E0600543EC08800353ECF79043
:104FA0004234E0600443EC042253ECFB22EEF0A315
:104FB000EFF0A3EDF0A3227F807E387D01FC022E6E
:104FC000D9903D63E0FFB1B0E4903D63F022A1E5EC
:104FD000E0FCA3E0FDEC22FFE0FCA3E0FD22FAF9F7
:104FE000F8C30223CACFF0A3EFF0E4227C007D0ACD
:104FF00002209C125A619005EEEEF0A3EFF022FF22
:1050000020082C901217E030E10B1250BC50067EA5
:10501000007F0180047E007F00EF4E7012121C9111
:10502000EF700C121CC8EF7006124FF37F01227F45
:105030000022900B9FEFF0900BA1EBF0900BA0EDF6
:10504000F0540290123FF01100EF7002C322900B57
:105050009FE0B40411A3E0FB7D017F01118F900B51
:105060009F7403F08017900B9FE0B40505121C0598
:10507000800B900BA0E0FB7D01E4FF118F900B9F54
:10508000E09005E5F0900BA1E090123EF0D322EB0A
:10509000600875FF0153CDFD800675FF0143CD0209
:1050A000ED600553FBDF800343FB20EF600775FFD6
:1050B0000243E1402275FF0253E1BF22A21A2212ED
:1050C0001C057F0143FB1075FF0243E640EF600DB6
:1050D00075FF02E5E120E7FB43FB0D800343FB0E78
:1050E00080FE75FF028FE322901220E070103100E5
:1050F0004FFFA3E04FFFA3E04F7003D38001C32213
:10510000901222E0FFA3E022AE07124F18EE04FE39
:10511000EF8EF084AFF02230180C902B24E0700654
:10512000FF1219D5C218301A23AF1F900A29E0FECA
:10513000EFC39E400AEF9ED394024010C21A229001
:105140000A29E0F42FD394014002C21A229005E903
:10515000E0FCA3E04C700A9005E9EEF0A3EFF0D379
:1051600022C3229005E9E0FEA3E0FF4E6009CAEEEB
:10517000CAC9EFC912270C22D2ADD2BD75FF027584
:105180008E7175720975FF02E58E546F4480F58E3D
:105190009042191224F30000000022C0E0C0F0C0C9
:1051A00083C082C0D075D008C0FF75FF02E58E3085
:1051B000E43A75FF02E58E54EF4410F58E904219E3
:1051C00012248F5125FC9042191224E790000012FE
:1051D0003DDAE57230E0020551E572700D75720935
:1051E000051FE51F7002051E8002157275FF02E59E
:1051F0008530E40875FF024385100574D0FFD0D0D8
:10520000D082D083D0F0D0E032FF7E04FDFCE0F805
:10521000A3E0F9A3E0FAA3E0FB12227CE47B7DFA91
:10522000F9F8122307EF2401FFE43EFEE43DFDE41C
:105230003C2290399F1224E7126A879039B41224D5
:10524000F3002DC6C0E4F5FFF5A490120EF0A3F014
:105250009039AF7402F075FF039039AFE0FFF59518
:10526000EF1460181460262402703690399F71ABD9
:10527000FF9039B01224E79039AB80209039A371A8
:10528000ABFF9039B01224E79039AC800F9039A76A
:1052900071ABFF9039B01224E79039ADE09039B886
:1052A000F0126AB49039B8E0700812743D75F418C1
:1052B000805590120EE004F09039AF12616390397E
:1052C000B471AB9039B0126B63C31223CA500A9009
:1052D00039B071ABFFA31224E79039B8E0FF12692F
:1052E000089039AEE0FFA3E0FDA2359233126A3593
:1052F000A371ABF1DD9039AFE0FF126AC19039AF15
:10530000E0719EFF12687412750B600241567402C0
:10531000F075FF039039AF1275897019FF7E04FD97
:10532000FC9039B4510EFC78011223DB9039AF7137
:105330008BFF12687412750B70D71272A040034372
:10534000F420A23592341269679039B471AB2420ED
:10535000FFEE344E512BF1EA5119FC78011223DB98
:10536000C23212735B9012137401F07E127F01E45B
:10537000FD8F828E83EF2DF582E43EF583E0FC9075
:105380001213E02CF00DEDB412E722E0FB25E0252E
:10539000E02401F582E43412F5831224E7EB25E0E2
:1053A00025E02401F582E43412F583E0FCA3E0FD5E
:1053B000A3E0FEA3E0229038401224E79038507416
:1053C00001F0E4A3F0126A8775FF02E5E630E00E13
:1053D0009038517401F0FB7A38795112682A90386C
:1053E0005B1224F3002DC6C0E4F5FFF5A490120F64
:1053F000F09038527402F075FF03903852E0FFF5D8
:1054000095EF1460181460262402703690384071AD
:10541000ABFF9038571224E790384C8020903844E6
:1054200071ABFF9038571224E790384D800F9038B9
:105430004871ABFF9038571224E790384EE090380F
:105440005FF0126AB490385FE0700812743D75F432
:1054500018806590120EE004F0903852126163904B
:105460003851E0701B90385B71AB903857126B630A
:10547000C31223CA500A90385771ABFFA31224E716
:1054800090385FE0FF12690890384FE0FF90385283
:10549000E0FDA2369233126A35903851E0700F90D9
:1054A000385771ABF1DD903852E0FF126AC1903885
:1054B00052E0719EFF126874127502600261F790EB
:1054C0003851E07045A37402F075FF039038521212
:1054D0007589701490385B5109FC78011223DB90B8
:1054E0003852718BFF12687412750270DC90385B51
:1054F00071AB2420FFEE344E512BF1EA5119FC78A8
:10550000011223DB9038531224E71272A0400343A8
:10551000F420A2369234126967903851E024FF9249
:105520003290385371ABFF12735BE4F5FF75E508F9
:105530001273BAE59B30E7FB125D9275FF0143D50C
:1055400004F1CF7165125DAB7B017A387950126836
:10555000B090120EE0B401031274C8903850E0B459
:105560000103D38001C322903DD0126864F0903DC6
:10557000D61224F300000001903DDA7401F0F5FF2B
:10558000E5D554C07005125AC25002C322E4F5FF9B
:1055900053967F75FF0175D5047F3FFE125DA6759A
:1055A000FF0143D508E4F5FF5394FBF5FF53847FD7
:1055B000F5FF7598FF903DD4E5F4F075F49C75FF08
:1055C00001A3E5E4F075E4257B017A3D79DA126800
:1055D0002A903DDAE064016002C195F5FF903DD369
:1055E0007414F0903DD671ABFF78011223EE903D1C
:1055F000D61224E7E5A730E1FB43A702903DD67120
:10560000ABFFE5A730E005E47B018002E4FBFAF99B
:10561000F8EF4BFFEE4AFEED49FDEC48FC903DD61D
:105620001224E7903DD3E014F070B8903DD671ABF2
:10563000FF78101223DB7B6D7A4E79C678411222F7
:105640007CEF2439FFEE3430512BFCE4FBFA790176
:10565000F8122307EE547FFEE4FDFC126D0A903D24
:10566000D671ABFFEB6FFFEA6EFEE8CDEFCDCCEE6F
:10567000CCECFF12685AE0F9EF12206812685AE089
:10568000F9900001ED12207A90120FE030E606E466
:10569000F5FF75968075FF01E4F5D5903DD4E0F5F2
:1056A000F475FF01A3E0F5E4126956903DDAE0B429
:1056B0000103D38001C32290404A124FB0EBF09017
:1056C00040507401F0C2371237E01237EA5005E556
:1056D000FC20E6F6126D54BF0108E4F5FC75FC40B1
:1056E0008008126D54BF0202D322125FE790404B34
:1056F000E0FF126D1775FF0153D5DF53FAFB9040A1
:105700004AE0FF12611B90404BE090404AB4080A07
:10571000E0719E24525128FC8004E0719EFF1268C3
:105720007490404CE0FFF1E475FF0175FF03759B39
:10573000041237E075FC42E5FC20E1051237EA402F
:10574000F390404DE0F075FF03E59B20E70512372D
:10575000EA40F3E59B20E70D75FF03759B1F1237A9
:10576000C3D237804FF1C812682A90404BE0FD90B9
:10577000120FE05D701C90404AE0FFF1C8126B70A0
:1057800090120FE0FF90404BE0FEEF4E90120FF0B2
:105790007165125DF77B017A40794E12680C500FEB
:1057A000C390404FE0942090404EE0940340E6F1D7
:1057B000C81268B0125DAB303702C1BF904050E0F4
:1057C000B40103D38001C3227B017A407950227F48
:1057D000C87E00125CBD75FF0343918022FF90419B
:1057E000980224E775FF018FDA22FCE4FB7A04F9C2
:1057F000F822F0A3EFF07E1C7FCDE4FB7D01E49066
:105800004039F0024D2DE0FEA3E0FFA3E0FDA3E050
:10581000FB80EB90403FECF0A3EDF090403C122574
:105820009F114990403F110690403C1247EB904039
:105830003C12257F121FA9B4FF04E4122068904097
:105840003C12257F121FA9FF229042AD12259F9086
:1058500042AD12257F121FA9FF124DB09042AD122A
:10586000257FE40220687E1E7F6C7B017D0A9040CC
:10587000397403F0024D2D904377ECF0A3EDF090D6
:105880004376EFF031F1FFD246121E3F904376E0AF
:10589000FFE4FD11C3904376E0FF31E4A3E0FEA3F3
:1058A000E0FF904376E03162EEF0A3EFF0205C1170
:1058B000D25C7E597F707BFF7D01116EBFFF02C3FA
:1058C00022D322EF7011ED600775FF0143AE012274
:1058D00075FF0153AEFE22EFB40114901248EDF0B3
:1058E000600775FF0143AE022275FF0153AEFD2232
:1058F00090421512259F904214EFF0C25B31F1FFE8
:105900007B017A427918121E3A4003A25B22904230
:1059100014E0FF3154E0FE904218E0FDEE6D70306F
:105920003153E0FF9042151247EB904214E0FF31F3
:1059300054E0700731537401F08008904214E03154
:1059400054E4F0904214E0FF3154E0FD11C3D25B07
:10595000A25B22EF75F006A424C9F582E4343DF57C
:10596000832275F006A424C7F582E4343DF5832232
:10597000E49043B9F09043B9E0FFC394025058EF6C
:1059800031D8F583E0640170469043B9E031D8F531
:1059900083E4F07B017A4379BA11F0501B9043B94C
:1059A000E0FE3162E0FCA3E04C600D9043BAE0FF02
:1059B000EE316251011227109043B9E0FF75F006F5
:1059C000A424C6F582E4343DF5837401F031E490FB
:1059D00043B9E004F0809E2275F006A424C5F58248
:1059E000E4343D22EF146006047005D2A822D2AA46
:1059F0002275F006A424C4F582E4343DF583E02248
:105A0000FFE0FCA3E0FDF5828C832290435AE0FF87
:105A1000024DB01FEFC3940E5009EF124BF6122443
:105A20008F8005E4FFFEFDFC22E4FEEFC3940E50E0
:105A300013EF124D1FE05D7C00B505027C01EC2EDA
:105A4000FE0F80E7AF06227D02E4FF80DC7D017F50
:105A5000035129AB075147EF2BFF22E4FD7F038061
:105A6000C8A2AD922AC2ADAF1FAE1EA22A92AD222D
:105A7000AD07AC065161C3EF9DEE9C4008EF9DFF62
:105A8000EE9CFE8013EDF4FDECF4FCED2401FDE44E
:105A90003CFCED2FFFEC3EFE229005EEE0FEA3E085
:105AA000FF5170D3EF94C8EE2251C25005126DAA77
:105AB0004003301A03D38001C322C2EBA2ED921936
:105AC000C2EDE5F4C330E701D322900BC8EFF0C27A
:105AD00039919CD222900BC8E09042B3F0D223A31C
:105AE000E4F0A37434F071EBE4900BC9F051C250B0
:105AF00050900BC9E0704AE5F754C060F0715771DF
:105B000057900BC9EFF0645570237157900BC91271
:105B100073B36F600E900BC9E0B4FF0F901215E0E5
:105B200030E116900BC97402F080C2800C900BC952
:105B3000E0B454057433F080B4900BC97401F08064
:105B4000AC900BC9E0B40207C2381236E68000718F
:105B5000DE900BC9E0FF22E5F720E008E5F754C02E
:105B600070F5FF2243F701AFF9221264317F021270
:105B70001DE0E4900BCAF0A3F0900BCBE0FFC394C0
:105B800003503851CA900BCAEFF0BF020280149044
:105B90000BCAE0B43318E4F0A3E0FF51CABF02130C
:105BA000900BCA7401F0A3E0901221F0800DE490F4
:105BB0000BCAF0900BCBE004F080BE900BCAE070F3
:105BC0000E51C25005C2381236E61237BC8008901A
:105BD0001221E0FF1219A8900BCAE024FF22C22272
:105BE000E49042B3F0C223A3F0A3F075FF01E5D522
:105BF00020E702C322C239919C202202818D53F4F6
:105C0000DF9042B3E0FF12611B1274C830230543DA
:105C1000F440800353F4BFE4F5FF53F5F09042B431
:105C2000E0FAA3E0FBEA42F5EBF5F6D239919C12DB
:105C300057CFE4F5FFE59320E6051237EA40F3304D
:105C40002358E5F430E3047D288010E5F430E204C5
:105C50007D288007E5F430E1027D2891DA7F281263
:105C600057D11237EA40FB7F781257D11237EA50EA
:105C700029D1FC50F7F136EFC39D50F0D1FC50EC28
:105C8000E5F720E5E7C239919C91DA80DF53F4BF54
:105C90001272A6400543F420F1E7D322AFF4EF548B
:105CA0007FF5F4303905EF4480F5F475FF01E5D553
:105CB00020E702C322E5F4D330E601C32275FF03D7
:105CC000D3EF9402EE9400400874FE2FFF74FF3E61
:105CD000FEEFF592EE540FF5912275FF03E4F59176
:105CE00022E4904225F0A304F0E4904228F0E5FA83
:105CF00030E1FB75FF01E5D530E7037F0022E4F5D5
:105D0000FF75E508F1E7E5D530E61A75FF01904229
:105D100027E5DAF0E4F5DA75FF01E5D630E3FB902C
:105D200042287401F01273BAE59B30E7FBE4FB757F
:105D3000FF038B9512539DFF1268740BEBB403EFB6
:105D400075FF03759580B19275FF0143D5049042AC
:105D500028E0700691DA7FC8B1A47B017A427926E7
:105D60001268B0904226E09042257006E04404FF9D
:105D70008002E0FF904225EFF090120EE0B40103A4
:105D80001274C875FF01904227E0F5DA904225E0D1
:105D9000FF22E4F5FF758EC8B1F775FF0153D5FBFF
:105DA00091DA7F147E0091BD1257D675FF03E591FD
:105DB00020E7FB22CDEFCDCCEECCF10AAB94EF4B3C
:105DC000126822CBEFCBFAE59130E71DF10DA994D3
:105DD000E9F582EF4582FFEB2DF582EA3CF583C3BE
:105DE000EF9582E5F0958340DEE59120E708CEEC63
:105DF000CECFEDCFB1A622E4F5FF75C2E17F1EF153
:105E0000C930E707E4F5FF75C2A122E4F5FF75C2CA
